{
  "contractName": "ActivityLog",
  "abi": [
    {
      "anonymous": false,
      "inputs": [
        {
          "indexed": true,
          "internalType": "uint256",
          "name": "batchId",
          "type": "uint256"
        },
        {
          "indexed": true,
          "internalType": "uint256",
          "name": "participantId",
          "type": "uint256"
        },
        {
          "indexed": false,
          "internalType": "string",
          "name": "activityName",
          "type": "string"
        },
        {
          "indexed": false,
          "internalType": "string",
          "name": "description",
          "type": "string"
        },
        {
          "indexed": false,
          "internalType": "bool",
          "name": "isSystemGenerated",
          "type": "bool"
        },
        {
          "indexed": false,
          "internalType": "string[]",
          "name": "imageUrls",
          "type": "string[]"
        },
        {
          "indexed": false,
          "internalType": "uint256[]",
          "name": "relatedProductIds",
          "type": "uint256[]"
        }
      ],
      "name": "ActivityLogAdded",
      "type": "event"
    },
    {
      "inputs": [
        {
          "internalType": "uint256",
          "name": "_batchId",
          "type": "uint256"
        },
        {
          "internalType": "uint256",
          "name": "_participantId",
          "type": "uint256"
        },
        {
          "internalType": "string",
          "name": "_activityName",
          "type": "string"
        },
        {
          "internalType": "string",
          "name": "_description",
          "type": "string"
        },
        {
          "internalType": "bool",
          "name": "_isSystemActivity",
          "type": "bool"
        },
        {
          "internalType": "string[]",
          "name": "_imageUrls",
          "type": "string[]"
        },
        {
          "internalType": "uint256[]",
          "name": "_relatedProductIds",
          "type": "uint256[]"
        }
      ],
      "name": "addActivityLog",
      "outputs": [],
      "stateMutability": "nonpayable",
      "type": "function"
    },
    {
      "inputs": [
        {
          "internalType": "uint256",
          "name": "_uid",
          "type": "uint256"
        }
      ],
      "name": "getActivityLogs",
      "outputs": [
        {
          "components": [
            {
              "internalType": "uint256",
              "name": "batchId",
              "type": "uint256"
            },
            {
              "internalType": "uint256",
              "name": "participantId",
              "type": "uint256"
            },
            {
              "internalType": "uint256",
              "name": "timestamp",
              "type": "uint256"
            },
            {
              "internalType": "string",
              "name": "activityName",
              "type": "string"
            },
            {
              "internalType": "string",
              "name": "description",
              "type": "string"
            },
            {
              "internalType": "bool",
              "name": "isSystemActivity",
              "type": "bool"
            },
            {
              "internalType": "string[]",
              "name": "imageUrls",
              "type": "string[]"
            },
            {
              "internalType": "uint256[]",
              "name": "relatedProductIds",
              "type": "uint256[]"
            }
          ],
          "internalType": "struct ActivityLog.ActivityLogEntry[]",
          "name": "",
          "type": "tuple[]"
        }
      ],
      "stateMutability": "view",
      "type": "function",
      "constant": true
    },
    {
      "inputs": [
        {
          "internalType": "uint256",
          "name": "_uid",
          "type": "uint256"
        }
      ],
      "name": "getProducerActivityLogs",
      "outputs": [
        {
          "components": [
            {
              "internalType": "uint256",
              "name": "batchId",
              "type": "uint256"
            },
            {
              "internalType": "uint256",
              "name": "participantId",
              "type": "uint256"
            },
            {
              "internalType": "uint256",
              "name": "timestamp",
              "type": "uint256"
            },
            {
              "internalType": "string",
              "name": "activityName",
              "type": "string"
            },
            {
              "internalType": "string",
              "name": "description",
              "type": "string"
            },
            {
              "internalType": "bool",
              "name": "isSystemActivity",
              "type": "bool"
            },
            {
              "internalType": "string[]",
              "name": "imageUrls",
              "type": "string[]"
            },
            {
              "internalType": "uint256[]",
              "name": "relatedProductIds",
              "type": "uint256[]"
            }
          ],
          "internalType": "struct ActivityLog.ActivityLogEntry[]",
          "name": "",
          "type": "tuple[]"
        }
      ],
      "stateMutability": "view",
      "type": "function",
      "constant": true
    },
    {
      "inputs": [
        {
          "internalType": "uint256",
          "name": "_uid",
          "type": "uint256"
        }
      ],
      "name": "getSystemActivityLogs",
      "outputs": [
        {
          "components": [
            {
              "internalType": "uint256",
              "name": "batchId",
              "type": "uint256"
            },
            {
              "internalType": "uint256",
              "name": "participantId",
              "type": "uint256"
            },
            {
              "internalType": "uint256",
              "name": "timestamp",
              "type": "uint256"
            },
            {
              "internalType": "string",
              "name": "activityName",
              "type": "string"
            },
            {
              "internalType": "string",
              "name": "description",
              "type": "string"
            },
            {
              "internalType": "bool",
              "name": "isSystemActivity",
              "type": "bool"
            },
            {
              "internalType": "string[]",
              "name": "imageUrls",
              "type": "string[]"
            },
            {
              "internalType": "uint256[]",
              "name": "relatedProductIds",
              "type": "uint256[]"
            }
          ],
          "internalType": "struct ActivityLog.ActivityLogEntry[]",
          "name": "",
          "type": "tuple[]"
        }
      ],
      "stateMutability": "view",
      "type": "function",
      "constant": true
    },
    {
      "inputs": [
        {
          "internalType": "string",
          "name": "_sscc",
          "type": "string"
        }
      ],
      "name": "getSystemActivityLogsBySSCC",
      "outputs": [
        {
          "components": [
            {
              "internalType": "uint256",
              "name": "batchId",
              "type": "uint256"
            },
            {
              "internalType": "uint256",
              "name": "participantId",
              "type": "uint256"
            },
            {
              "internalType": "uint256",
              "name": "timestamp",
              "type": "uint256"
            },
            {
              "internalType": "string",
              "name": "activityName",
              "type": "string"
            },
            {
              "internalType": "string",
              "name": "description",
              "type": "string"
            },
            {
              "internalType": "bool",
              "name": "isSystemActivity",
              "type": "bool"
            },
            {
              "internalType": "string[]",
              "name": "imageUrls",
              "type": "string[]"
            },
            {
              "internalType": "uint256[]",
              "name": "relatedProductIds",
              "type": "uint256[]"
            }
          ],
          "internalType": "struct ActivityLog.ActivityLogEntry[]",
          "name": "",
          "type": "tuple[]"
        }
      ],
      "stateMutability": "view",
      "type": "function",
      "constant": true
    }
  ],
  "bytecode": "0x608060405234801561000f575f80fd5b506115948061001d5f395ff3fe608060405234801561000f575f80fd5b5060043610610055575f3560e01c80630e6e369c146100595780633abb5afb146100825780638f9eb92e14610095578063b50f8762146100aa578063f7f097f4146100bd575b5f80fd5b61006c610067366004610e76565b6100d0565b6040516100799190610f69565b60405180910390f35b61006c610090366004610e76565b6103ab565b6100a86100a3366004611226565b6107b6565b005b61006c6100b83660046112ee565b6108f4565b61006c6100cb366004610e76565b610932565b5f81815260208181526040808320805482518185028101850190935280835260609492939192909184015b828210156103a0578382905f5260205f209060080201604051806101000160405290815f8201548152602001600182015481526020016002820154815260200160038201805461014a90611328565b80601f016020809104026020016040519081016040528092919081815260200182805461017690611328565b80156101c15780601f10610198576101008083540402835291602001916101c1565b820191905f5260205f20905b8154815290600101906020018083116101a457829003601f168201915b505050505081526020016004820180546101da90611328565b80601f016020809104026020016040519081016040528092919081815260200182805461020690611328565b80156102515780601f1061022857610100808354040283529160200191610251565b820191905f5260205f20905b81548152906001019060200180831161023457829003601f168201915b5050509183525050600582015460ff16151560208083019190915260068301805460408051828502810185018252828152940193925f9084015b82821015610333578382905f5260205f200180546102a890611328565b80601f01602080910402602001604051908101604052809291908181526020018280546102d490611328565b801561031f5780601f106102f65761010080835404028352916020019161031f565b820191905f5260205f20905b81548152906001019060200180831161030257829003601f168201915b50505050508152602001906001019061028b565b5050505081526020016007820180548060200260200160405190810160405280929190818152602001828054801561038857602002820191905f5260205f20905b815481526020019060010190808311610374575b505050505081525050815260200190600101906100fb565b505050509050919050565b5f81815260208181526040808320805482518185028101850190935280835260609493849084015b82821015610678578382905f5260205f209060080201604051806101000160405290815f8201548152602001600182015481526020016002820154815260200160038201805461042290611328565b80601f016020809104026020016040519081016040528092919081815260200182805461044e90611328565b80156104995780601f1061047057610100808354040283529160200191610499565b820191905f5260205f20905b81548152906001019060200180831161047c57829003601f168201915b505050505081526020016004820180546104b290611328565b80601f01602080910402602001604051908101604052809291908181526020018280546104de90611328565b80156105295780601f1061050057610100808354040283529160200191610529565b820191905f5260205f20905b81548152906001019060200180831161050c57829003601f168201915b5050509183525050600582015460ff16151560208083019190915260068301805460408051828502810185018252828152940193925f9084015b8282101561060b578382905f5260205f2001805461058090611328565b80601f01602080910402602001604051908101604052809291908181526020018280546105ac90611328565b80156105f75780601f106105ce576101008083540402835291602001916105f7565b820191905f5260205f20905b8154815290600101906020018083116105da57829003601f168201915b505050505081526020019060010190610563565b5050505081526020016007820180548060200260200160405190810160405280929190818152602001828054801561066057602002820191905f5260205f20905b81548152602001906001019080831161064c575b505050505081525050815260200190600101906103d3565b5050505090505f805b82518110156106cd5782818151811061069c5761069c611360565b602002602001015160a00151156106bb57816106b781611374565b9250505b806106c581611374565b915050610681565b505f8167ffffffffffffffff8111156106e8576106e861105a565b60405190808252806020026020018201604052801561072157816020015b61070e610d30565b8152602001906001900390816107065790505b5090505f805b84518110156107ab5784818151811061074257610742611360565b602002602001015160a00151156107995784818151811061076557610765611360565b602002602001015183838151811061077f5761077f611360565b6020026020010181905250818061079590611374565b9250505b806107a381611374565b915050610727565b509095945050505050565b6040805161010081018252888152602080820189815242838501908152606084018a8152608085018a905288151560a086015260c0850188905260e085018790525f8d815280855295862080546001818101835591885294909620855160089095020193845591519483019490945592516002820155915190918291600382019061084190826113e6565b506080820151600482019061085690826113e6565b5060a082015160058201805460ff191691151591909117905560c0820151805161088a916006840191602090910190610d73565b5060e082015180516108a6916007840191602090910190610dc7565b50505086887f57fb9146d980bd09c3c39ea5a91427f75ac54c7e992302a3cb2d9f47b6f5fd4688888888886040516108e29594939291906114a2565b60405180910390a35050505050505050565b60605f826040516020016109089190611543565b604051602081830303815290604052805190602001205f1c905061092b816103ab565b9392505050565b5f81815260208181526040808320805482518185028101850190935280835260609493849084015b82821015610bff578382905f5260205f209060080201604051806101000160405290815f820154815260200160018201548152602001600282015481526020016003820180546109a990611328565b80601f01602080910402602001604051908101604052809291908181526020018280546109d590611328565b8015610a205780601f106109f757610100808354040283529160200191610a20565b820191905f5260205f20905b815481529060010190602001808311610a0357829003601f168201915b50505050508152602001600482018054610a3990611328565b80601f0160208091040260200160405190810160405280929190818152602001828054610a6590611328565b8015610ab05780601f10610a8757610100808354040283529160200191610ab0565b820191905f5260205f20905b815481529060010190602001808311610a9357829003601f168201915b5050509183525050600582015460ff16151560208083019190915260068301805460408051828502810185018252828152940193925f9084015b82821015610b92578382905f5260205f20018054610b0790611328565b80601f0160208091040260200160405190810160405280929190818152602001828054610b3390611328565b8015610b7e5780601f10610b5557610100808354040283529160200191610b7e565b820191905f5260205f20905b815481529060010190602001808311610b6157829003601f168201915b505050505081526020019060010190610aea565b50505050815260200160078201805480602002602001604051908101604052809291908181526020018280548015610be757602002820191905f5260205f20905b815481526020019060010190808311610bd3575b5050505050815250508152602001906001019061095a565b5050505090505f805b8251811015610c5357828181518110610c2357610c23611360565b602002602001015160a00151610c415781610c3d81611374565b9250505b80610c4b81611374565b915050610c08565b505f8167ffffffffffffffff811115610c6e57610c6e61105a565b604051908082528060200260200182016040528015610ca757816020015b610c94610d30565b815260200190600190039081610c8c5790505b5090505f805b84518110156107ab57848181518110610cc857610cc8611360565b602002602001015160a00151610d1e57848181518110610cea57610cea611360565b6020026020010151838381518110610d0457610d04611360565b60200260200101819052508180610d1a90611374565b9250505b80610d2881611374565b915050610cad565b6040518061010001604052805f81526020015f81526020015f815260200160608152602001606081526020015f1515815260200160608152602001606081525090565b828054828255905f5260205f20908101928215610db7579160200282015b82811115610db75782518290610da790826113e6565b5091602001919060010190610d91565b50610dc3929150610e0c565b5090565b828054828255905f5260205f20908101928215610e00579160200282015b82811115610e00578251825591602001919060010190610de5565b50610dc3929150610e28565b80821115610dc3575f610e1f8282610e3c565b50600101610e0c565b5b80821115610dc3575f8155600101610e29565b508054610e4890611328565b5f825580601f10610e57575050565b601f0160209004905f5260205f2090810190610e739190610e28565b50565b5f60208284031215610e86575f80fd5b5035919050565b5f5b83811015610ea7578181015183820152602001610e8f565b50505f910152565b5f8151808452610ec6816020860160208601610e8d565b601f01601f19169290920160200192915050565b5f82825180855260208086019550808260051b8401018186015f5b84811015610f2357601f19868403018952610f11838351610eaf565b98840198925090830190600101610ef5565b5090979650505050505050565b5f8151808452602080850194508084015f5b83811015610f5e57815187529582019590820190600101610f42565b509495945050505050565b5f6020808301818452808551808352604092508286019150828160051b8701018488015f5b8381101561104c57603f19898403018552815161010081518552888201518986015287820151888601526060808301518282880152610fcf83880182610eaf565b9250505060808083015186830382880152610fea8382610eaf565b9250505060a0808301516110018288018215159052565b505060c0808301518683038288015261101a8382610eda565b9250505060e080830151925085820381870152506110388183610f30565b968901969450505090860190600101610f8e565b509098975050505050505050565b634e487b7160e01b5f52604160045260245ffd5b604051601f8201601f1916810167ffffffffffffffff811182821017156110975761109761105a565b604052919050565b5f82601f8301126110ae575f80fd5b813567ffffffffffffffff8111156110c8576110c861105a565b6110db601f8201601f191660200161106e565b8181528460208386010111156110ef575f80fd5b816020850160208301375f918101602001919091529392505050565b8035801515811461111a575f80fd5b919050565b5f67ffffffffffffffff8211156111385761113861105a565b5060051b60200190565b5f82601f830112611151575f80fd5b813560206111666111618361111f565b61106e565b82815260059290921b84018101918181019086841115611184575f80fd5b8286015b848110156111c357803567ffffffffffffffff8111156111a7575f8081fd5b6111b58986838b010161109f565b845250918301918301611188565b509695505050505050565b5f82601f8301126111dd575f80fd5b813560206111ed6111618361111f565b82815260059290921b8401810191818101908684111561120b575f80fd5b8286015b848110156111c3578035835291830191830161120f565b5f805f805f805f60e0888a03121561123c575f80fd5b8735965060208801359550604088013567ffffffffffffffff80821115611261575f80fd5b61126d8b838c0161109f565b965060608a0135915080821115611282575f80fd5b61128e8b838c0161109f565b955061129c60808b0161110b565b945060a08a01359150808211156112b1575f80fd5b6112bd8b838c01611142565b935060c08a01359150808211156112d2575f80fd5b506112df8a828b016111ce565b91505092959891949750929550565b5f602082840312156112fe575f80fd5b813567ffffffffffffffff811115611314575f80fd5b6113208482850161109f565b949350505050565b600181811c9082168061133c57607f821691505b60208210810361135a57634e487b7160e01b5f52602260045260245ffd5b50919050565b634e487b7160e01b5f52603260045260245ffd5b5f6001820161139157634e487b7160e01b5f52601160045260245ffd5b5060010190565b601f8211156113e1575f81815260208120601f850160051c810160208610156113be5750805b601f850160051c820191505b818110156113dd578281556001016113ca565b5050505b505050565b815167ffffffffffffffff8111156114005761140061105a565b6114148161140e8454611328565b84611398565b602080601f831160018114611447575f84156114305750858301515b5f19600386901b1c1916600185901b1785556113dd565b5f85815260208120601f198616915b8281101561147557888601518255948401946001909101908401611456565b508582101561149257878501515f19600388901b60f8161c191681555b5050505050600190811b01905550565b60a081525f6114b460a0830188610eaf565b6020838203818501526114c78289610eaf565b9150861515604085015283820360608501528186518084528284019150828160051b8501018389015f5b8381101561151f57601f1987840301855261150d838351610eaf565b948601949250908501906001016114f1565b505086810360808801526115338189610f30565b9c9b505050505050505050505050565b5f8251611554818460208701610e8d565b919091019291505056fea26469706673582212203410ff4a5be622c60220cfb7ef105b834f8718fb6462f3f7943a589d5f697d1b64736f6c63430008140033",
  "immutableReferences": {},
  "source": "// SPDX-License-Identifier: MIT\r\npragma solidity ^0.8.0;\r\n\r\ncontract ActivityLog{\r\n struct ActivityLogEntry {\r\n    uint256 batchId;\r\n    uint256 participantId;\r\n    uint256 timestamp;\r\n    string activityName;\r\n    string description;\r\n    bool isSystemActivity;\r\n    string[] imageUrls;\r\n    uint256[] relatedProductIds;\r\n}\r\n\r\n    mapping(uint256 => ActivityLogEntry[]) private _activityLogs;\r\n\r\n  event ActivityLogAdded(\r\n    uint256 indexed batchId,\r\n    uint256 indexed participantId,\r\n    string activityName,\r\n    string description,\r\n    bool isSystemGenerated,\r\n    string[] imageUrls,\r\n    uint256[] relatedProductIds\r\n);\r\n    function addActivityLog(\r\n        uint256 _batchId,\r\n        uint256 _participantId,\r\n        string memory _activityName,\r\n        string memory _description,\r\n        bool _isSystemActivity,  // i tn tham s ny\r\n        string[] memory _imageUrls,\r\n        uint256[] memory _relatedProductIds\r\n    ) public {\r\n        ActivityLogEntry memory newLog = ActivityLogEntry({\r\n            batchId: _batchId,\r\n            participantId: _participantId,\r\n            timestamp: block.timestamp,\r\n            activityName: _activityName,\r\n            description: _description,\r\n            isSystemActivity: _isSystemActivity,  // V  y\r\n            imageUrls: _imageUrls,\r\n            relatedProductIds: _relatedProductIds\r\n        });\r\n\r\n        _activityLogs[_batchId].push(newLog);\r\n\r\n        emit ActivityLogAdded(_batchId, _participantId, _activityName, _description, _isSystemActivity, _imageUrls, _relatedProductIds);\r\n    }\r\n    function getActivityLogs(uint256 _uid) public view returns (ActivityLogEntry[] memory) {\r\n        return _activityLogs[_uid];\r\n    }\r\n\r\n\r\nfunction getProducerActivityLogs(uint256 _uid) public view returns (ActivityLogEntry[] memory) {\r\n    ActivityLogEntry[] memory allLogs = _activityLogs[_uid];\r\n    uint256 count = 0;\r\n    for (uint256 i = 0; i < allLogs.length; i++) {\r\n        if (!allLogs[i].isSystemActivity) {  // Sa  y\r\n            count++;\r\n        }\r\n    }\r\n\r\n    ActivityLogEntry[] memory producerLogs = new ActivityLogEntry[](count);\r\n    uint256 index = 0;\r\n    for (uint256 i = 0; i < allLogs.length; i++) {\r\n        if (!allLogs[i].isSystemActivity) {  // V  y\r\n            producerLogs[index] = allLogs[i];\r\n            index++;\r\n        }\r\n    }\r\n\r\n    return producerLogs;\r\n}\r\nfunction getSystemActivityLogs(uint256 _uid) public view returns (ActivityLogEntry[] memory) {\r\n    ActivityLogEntry[] memory allLogs = _activityLogs[_uid];\r\n    uint256 count = 0;\r\n    for (uint256 i = 0; i < allLogs.length; i++) {\r\n        if (allLogs[i].isSystemActivity) {  // Sa  y\r\n            count++;\r\n        }\r\n    }\r\n\r\n    ActivityLogEntry[] memory systemLogs = new ActivityLogEntry[](count);\r\n    uint256 index = 0;\r\n    for (uint256 i = 0; i < allLogs.length; i++) {\r\n        if (allLogs[i].isSystemActivity) {  // V  y\r\n            systemLogs[index] = allLogs[i];\r\n            index++;\r\n        }\r\n    }\r\n\r\n    return systemLogs;\r\n}\r\n\r\n    function getSystemActivityLogsBySSCC(string memory _sscc) public view returns (ActivityLogEntry[] memory) {\r\n        uint256 batchId = uint256(keccak256(abi.encodePacked(_sscc)));\r\n        return getSystemActivityLogs(batchId);\r\n    }\r\n}",
  "sourcePath": "D:\\projects\\nckh-be\\blockchain\\contracts\\ActivityLog.sol",
  "compiler": {
    "name": "solc",
    "version": "0.8.20+commit.a1b79de6.Emscripten.clang"
  },
  "schemaVersion": "3.4.16",
  "updatedAt": "2024-10-16T08:20:16.605Z",
  "networkType": "ethereum",
  "devdoc": {
    "kind": "dev",
    "methods": {},
    "version": 1
  },
  "userdoc": {
    "kind": "user",
    "methods": {},
    "version": 1
  }
}