{
  "contractName": "ActivityLog",
  "abi": [
    {
      "anonymous": false,
      "inputs": [
        {
          "indexed": true,
          "internalType": "uint256",
          "name": "uid",
          "type": "uint256"
        },
        {
          "indexed": false,
          "internalType": "string",
          "name": "activityName",
          "type": "string"
        },
        {
          "indexed": false,
          "internalType": "string",
          "name": "description",
          "type": "string"
        },
        {
          "indexed": false,
          "internalType": "bool",
          "name": "isSystemGenerated",
          "type": "bool"
        },
        {
          "indexed": false,
          "internalType": "string[]",
          "name": "imageUrls",
          "type": "string[]"
        },
        {
          "indexed": false,
          "internalType": "uint256[]",
          "name": "relatedProductIds",
          "type": "uint256[]"
        }
      ],
      "name": "ActivityLogAdded",
      "type": "event"
    },
    {
      "inputs": [
        {
          "internalType": "uint256",
          "name": "_uid",
          "type": "uint256"
        },
        {
          "internalType": "string",
          "name": "_activityName",
          "type": "string"
        },
        {
          "internalType": "string",
          "name": "_description",
          "type": "string"
        },
        {
          "internalType": "bool",
          "name": "_isSystemGenerated",
          "type": "bool"
        },
        {
          "internalType": "string[]",
          "name": "_imageUrls",
          "type": "string[]"
        },
        {
          "internalType": "uint256[]",
          "name": "_relatedProductIds",
          "type": "uint256[]"
        }
      ],
      "name": "addActivityLog",
      "outputs": [],
      "stateMutability": "nonpayable",
      "type": "function"
    },
    {
      "inputs": [
        {
          "internalType": "uint256",
          "name": "_uid",
          "type": "uint256"
        }
      ],
      "name": "getActivityLogs",
      "outputs": [
        {
          "components": [
            {
              "internalType": "uint256",
              "name": "timestamp",
              "type": "uint256"
            },
            {
              "internalType": "uint256",
              "name": "uid",
              "type": "uint256"
            },
            {
              "internalType": "string",
              "name": "activityName",
              "type": "string"
            },
            {
              "internalType": "string",
              "name": "description",
              "type": "string"
            },
            {
              "internalType": "bool",
              "name": "isSystemGenerated",
              "type": "bool"
            },
            {
              "internalType": "string[]",
              "name": "imageUrls",
              "type": "string[]"
            },
            {
              "internalType": "uint256[]",
              "name": "relatedProductIds",
              "type": "uint256[]"
            }
          ],
          "internalType": "struct ActivityLog.ActivityLogEntry[]",
          "name": "",
          "type": "tuple[]"
        }
      ],
      "stateMutability": "view",
      "type": "function",
      "constant": true
    },
    {
      "inputs": [
        {
          "internalType": "uint256",
          "name": "_uid",
          "type": "uint256"
        }
      ],
      "name": "getActivityLogCount",
      "outputs": [
        {
          "internalType": "uint256",
          "name": "",
          "type": "uint256"
        }
      ],
      "stateMutability": "view",
      "type": "function",
      "constant": true
    },
    {
      "inputs": [
        {
          "internalType": "uint256",
          "name": "_uid",
          "type": "uint256"
        }
      ],
      "name": "getProducerActivityLogs",
      "outputs": [
        {
          "components": [
            {
              "internalType": "uint256",
              "name": "timestamp",
              "type": "uint256"
            },
            {
              "internalType": "uint256",
              "name": "uid",
              "type": "uint256"
            },
            {
              "internalType": "string",
              "name": "activityName",
              "type": "string"
            },
            {
              "internalType": "string",
              "name": "description",
              "type": "string"
            },
            {
              "internalType": "bool",
              "name": "isSystemGenerated",
              "type": "bool"
            },
            {
              "internalType": "string[]",
              "name": "imageUrls",
              "type": "string[]"
            },
            {
              "internalType": "uint256[]",
              "name": "relatedProductIds",
              "type": "uint256[]"
            }
          ],
          "internalType": "struct ActivityLog.ActivityLogEntry[]",
          "name": "",
          "type": "tuple[]"
        }
      ],
      "stateMutability": "view",
      "type": "function",
      "constant": true
    }
  ],
  "bytecode": "0x608060405234801561001057600080fd5b50610f4a806100206000396000f3fe608060405234801561001057600080fd5b506004361061004c5760003560e01c80630e6e369c1461005157806324ac94351461007a57806385bdd03f1461008f578063f7f097f4146100bd575b600080fd5b61006461005f3660046108bc565b6100d0565b60405161007191906109ae565b60405180910390f35b61008d610088366004610c64565b6103af565b005b6100af61009d3660046108bc565b60009081526020819052604090205490565b604051908152602001610071565b6100646100cb3660046108bc565b6104dc565b600081815260208181526040808320805482518185028101850190935280835260609492939192909184015b828210156103a457838290600052602060002090600702016040518060e0016040529081600082015481526020016001820154815260200160028201805461014390610d29565b80601f016020809104026020016040519081016040528092919081815260200182805461016f90610d29565b80156101bc5780601f10610191576101008083540402835291602001916101bc565b820191906000526020600020905b81548152906001019060200180831161019f57829003601f168201915b505050505081526020016003820180546101d590610d29565b80601f016020809104026020016040519081016040528092919081815260200182805461020190610d29565b801561024e5780601f106102235761010080835404028352916020019161024e565b820191906000526020600020905b81548152906001019060200180831161023157829003601f168201915b5050509183525050600482015460ff161515602080830191909152600583018054604080518285028101850182528281529401939260009084015b828210156103355783829060005260206000200180546102a890610d29565b80601f01602080910402602001604051908101604052809291908181526020018280546102d490610d29565b80156103215780601f106102f657610100808354040283529160200191610321565b820191906000526020600020905b81548152906001019060200180831161030457829003601f168201915b505050505081526020019060010190610289565b5050505081526020016006820180548060200260200160405190810160405280929190818152602001828054801561038c57602002820191906000526020600020905b815481526020019060010190808311610378575b505050505081525050815260200190600101906100fc565b505050509050919050565b6040805160e081018252428152602080820189815282840189815260608401899052871515608085015260a0840187905260c0840186905260008b8152808452948520805460018181018355918752939095208451600790940201928355905193820193909355915190918291600282019061042b9082610db2565b50606082015160038201906104409082610db2565b50608082015160048201805460ff191691151591909117905560a082015180516104749160058401916020909101906107b0565b5060c08201518051610490916006840191602090910190610806565b505050867f0fb336061951903d147e6b93ba30f6d47839e02426fcd5ee1876873afe47bab387878787876040516104cb959493929190610e71565b60405180910390a250505050505050565b600081815260208181526040808320805482518185028101850190935280835260609492939192909184015b828210156103a457838290600052602060002090600702016040518060e0016040529081600082015481526020016001820154815260200160028201805461054f90610d29565b80601f016020809104026020016040519081016040528092919081815260200182805461057b90610d29565b80156105c85780601f1061059d576101008083540402835291602001916105c8565b820191906000526020600020905b8154815290600101906020018083116105ab57829003601f168201915b505050505081526020016003820180546105e190610d29565b80601f016020809104026020016040519081016040528092919081815260200182805461060d90610d29565b801561065a5780601f1061062f5761010080835404028352916020019161065a565b820191906000526020600020905b81548152906001019060200180831161063d57829003601f168201915b5050509183525050600482015460ff161515602080830191909152600583018054604080518285028101850182528281529401939260009084015b828210156107415783829060005260206000200180546106b490610d29565b80601f01602080910402602001604051908101604052809291908181526020018280546106e090610d29565b801561072d5780601f106107025761010080835404028352916020019161072d565b820191906000526020600020905b81548152906001019060200180831161071057829003601f168201915b505050505081526020019060010190610695565b5050505081526020016006820180548060200260200160405190810160405280929190818152602001828054801561079857602002820191906000526020600020905b815481526020019060010190808311610784575b50505050508152505081526020019060010190610508565b8280548282559060005260206000209081019282156107f6579160200282015b828111156107f657825182906107e69082610db2565b50916020019190600101906107d0565b5061080292915061084d565b5090565b828054828255906000526020600020908101928215610841579160200282015b82811115610841578251825591602001919060010190610826565b5061080292915061086a565b80821115610802576000610861828261087f565b5060010161084d565b5b80821115610802576000815560010161086b565b50805461088b90610d29565b6000825580601f1061089b575050565b601f0160209004906000526020600020908101906108b9919061086a565b50565b6000602082840312156108ce57600080fd5b5035919050565b6000815180845260005b818110156108fb576020818501810151868301820152016108df565b506000602082860101526020601f19601f83011685010191505092915050565b600082825180855260208086019550808260051b84010181860160005b8481101561096657601f198684030189526109548383516108d5565b98840198925090830190600101610938565b5090979650505050505050565b600081518084526020808501945080840160005b838110156109a357815187529582019590820190600101610987565b509495945050505050565b60006020808301818452808551808352604092508286019150828160051b87010184880160005b83811015610a7f57603f19898403018552815160e0815185528882015189860152878201518189870152610a0b828701826108d5565b91505060608083015186830382880152610a2583826108d5565b925050506080808301511515818701525060a08083015186830382880152610a4d838261091b565b9250505060c08083015192508582038187015250610a6b8183610973565b9689019694505050908601906001016109d5565b509098975050505050505050565b634e487b7160e01b600052604160045260246000fd5b604051601f8201601f191681016001600160401b0381118282101715610acb57610acb610a8d565b604052919050565b600082601f830112610ae457600080fd5b81356001600160401b03811115610afd57610afd610a8d565b610b10601f8201601f1916602001610aa3565b818152846020838601011115610b2557600080fd5b816020850160208301376000918101602001919091529392505050565b80358015158114610b5257600080fd5b919050565b60006001600160401b03821115610b7057610b70610a8d565b5060051b60200190565b600082601f830112610b8b57600080fd5b81356020610ba0610b9b83610b57565b610aa3565b82815260059290921b84018101918181019086841115610bbf57600080fd5b8286015b84811015610bfe5780356001600160401b03811115610be25760008081fd5b610bf08986838b0101610ad3565b845250918301918301610bc3565b509695505050505050565b600082601f830112610c1a57600080fd5b81356020610c2a610b9b83610b57565b82815260059290921b84018101918181019086841115610c4957600080fd5b8286015b84811015610bfe5780358352918301918301610c4d565b60008060008060008060c08789031215610c7d57600080fd5b8635955060208701356001600160401b0380821115610c9b57600080fd5b610ca78a838b01610ad3565b96506040890135915080821115610cbd57600080fd5b610cc98a838b01610ad3565b9550610cd760608a01610b42565b94506080890135915080821115610ced57600080fd5b610cf98a838b01610b7a565b935060a0890135915080821115610d0f57600080fd5b50610d1c89828a01610c09565b9150509295509295509295565b600181811c90821680610d3d57607f821691505b602082108103610d5d57634e487b7160e01b600052602260045260246000fd5b50919050565b601f821115610dad57600081815260208120601f850160051c81016020861015610d8a5750805b601f850160051c820191505b81811015610da957828155600101610d96565b5050505b505050565b81516001600160401b03811115610dcb57610dcb610a8d565b610ddf81610dd98454610d29565b84610d63565b602080601f831160018114610e145760008415610dfc5750858301515b600019600386901b1c1916600185901b178555610da9565b600085815260208120601f198616915b82811015610e4357888601518255948401946001909101908401610e24565b5085821015610e615787850151600019600388901b60f8161c191681555b5050505050600190811b01905550565b60a081526000610e8460a08301886108d5565b602083820381850152610e9782896108d5565b9150861515604085015283820360608501528186518084528284019150828160051b85010183890160005b83811015610ef057601f19878403018552610ede8383516108d5565b94860194925090850190600101610ec2565b50508681036080880152610f048189610973565b9c9b50505050505050505050505056fea2646970667358221220027701c23b7925e3b12fbe515392846336664e095ecb44c13e483cce55f1614e64736f6c63430008140033",
  "immutableReferences": {},
  "source": "// SPDX-License-Identifier: MIT\r\npragma solidity ^0.8.0;\r\n\r\ncontract ActivityLog {\r\n    struct ActivityLogEntry {\r\n        uint256 timestamp;\r\n        uint256 uid;\r\n        string activityName;\r\n        string description;\r\n        bool isSystemGenerated;\r\n        string[] imageUrls;\r\n        uint256[] relatedProductIds;\r\n    }\r\n\r\n    mapping(uint256 => ActivityLogEntry[]) private _activityLogs;\r\n\r\n    event ActivityLogAdded(\r\n        uint256 indexed uid,\r\n        string activityName,\r\n        string description,\r\n        bool isSystemGenerated,\r\n        string[] imageUrls,\r\n        uint256[] relatedProductIds\r\n    );\r\n\r\n    function addActivityLog(\r\n\r\n        uint256 _uid,\r\n        string memory _activityName,\r\n        string memory _description,\r\n        bool _isSystemGenerated,\r\n        string[] memory _imageUrls,\r\n        uint256[] memory _relatedProductIds\r\n    ) public {\r\n        ActivityLogEntry memory newLog = ActivityLogEntry({\r\n            timestamp: block.timestamp,\r\n            uid: _uid,\r\n            activityName: _activityName,\r\n            description: _description,\r\n            isSystemGenerated: _isSystemGenerated,\r\n            imageUrls: _imageUrls,\r\n            relatedProductIds: _relatedProductIds\r\n        });\r\n\r\n        _activityLogs[_uid].push(newLog);\r\n\r\n        emit ActivityLogAdded(_uid, _activityName, _description, _isSystemGenerated, _imageUrls, _relatedProductIds);\r\n    }\r\n\r\n    function getActivityLogs(uint256 _uid) public view returns (ActivityLogEntry[] memory) {\r\n        return _activityLogs[_uid];\r\n    }\r\n\r\n    function getActivityLogCount(uint256 _uid) public view returns (uint256) {\r\n        return _activityLogs[_uid].length;\r\n    }\r\n \r\nfunction getProducerActivityLogs(uint256 _uid) public view returns (ActivityLogEntry[] memory) {\r\n    return _activityLogs[_uid];\r\n}\r\n\r\n}",
  "sourcePath": "D:\\projects\\nckh-be\\blockchain\\contracts\\ActivityLog.sol",
  "compiler": {
    "name": "solc",
    "version": "0.8.20+commit.a1b79de6.Emscripten.clang"
  },
  "schemaVersion": "3.4.16",
  "updatedAt": "2024-09-21T09:35:19.935Z",
  "networkType": "ethereum",
  "devdoc": {
    "kind": "dev",
    "methods": {},
    "version": 1
  },
  "userdoc": {
    "kind": "user",
    "methods": {},
    "version": 1
  }
}