{
  "contractName": "ActivityLog",
  "abi": [
    {
      "inputs": [],
      "stateMutability": "nonpayable",
      "type": "constructor"
    },
    {
      "anonymous": false,
      "inputs": [
        {
          "indexed": true,
          "internalType": "uint256",
          "name": "batchId",
          "type": "uint256"
        },
        {
          "indexed": true,
          "internalType": "uint256",
          "name": "participantId",
          "type": "uint256"
        },
        {
          "indexed": false,
          "internalType": "string",
          "name": "activityName",
          "type": "string"
        },
        {
          "indexed": false,
          "internalType": "string",
          "name": "description",
          "type": "string"
        },
        {
          "indexed": false,
          "internalType": "bool",
          "name": "isSystemGenerated",
          "type": "bool"
        },
        {
          "indexed": false,
          "internalType": "string[]",
          "name": "imageUrls",
          "type": "string[]"
        },
        {
          "indexed": false,
          "internalType": "uint256[]",
          "name": "relatedProductIds",
          "type": "uint256[]"
        }
      ],
      "name": "ActivityLogAdded",
      "type": "event"
    },
    {
      "inputs": [
        {
          "internalType": "uint256",
          "name": "_batchId",
          "type": "uint256"
        },
        {
          "internalType": "uint256",
          "name": "_participantId",
          "type": "uint256"
        },
        {
          "internalType": "string",
          "name": "_activityName",
          "type": "string"
        },
        {
          "internalType": "string",
          "name": "_description",
          "type": "string"
        },
        {
          "internalType": "bool",
          "name": "_isSystemActivity",
          "type": "bool"
        },
        {
          "internalType": "string[]",
          "name": "_imageUrls",
          "type": "string[]"
        },
        {
          "internalType": "uint256[]",
          "name": "_relatedProductIds",
          "type": "uint256[]"
        }
      ],
      "name": "addActivityLog",
      "outputs": [],
      "stateMutability": "nonpayable",
      "type": "function"
    },
    {
      "inputs": [
        {
          "internalType": "uint256",
          "name": "_uid",
          "type": "uint256"
        }
      ],
      "name": "getActivityLogs",
      "outputs": [
        {
          "components": [
            {
              "internalType": "uint256",
              "name": "batchId",
              "type": "uint256"
            },
            {
              "internalType": "uint256",
              "name": "participantId",
              "type": "uint256"
            },
            {
              "internalType": "uint256",
              "name": "timestamp",
              "type": "uint256"
            },
            {
              "internalType": "string",
              "name": "activityName",
              "type": "string"
            },
            {
              "internalType": "string",
              "name": "description",
              "type": "string"
            },
            {
              "internalType": "bool",
              "name": "isSystemActivity",
              "type": "bool"
            },
            {
              "internalType": "string[]",
              "name": "imageUrls",
              "type": "string[]"
            },
            {
              "internalType": "uint256[]",
              "name": "relatedProductIds",
              "type": "uint256[]"
            }
          ],
          "internalType": "struct ActivityLog.ActivityLogEntry[]",
          "name": "",
          "type": "tuple[]"
        }
      ],
      "stateMutability": "view",
      "type": "function",
      "constant": true
    },
    {
      "inputs": [
        {
          "internalType": "uint256",
          "name": "_uid",
          "type": "uint256"
        }
      ],
      "name": "getSystemActivityLogs",
      "outputs": [
        {
          "components": [
            {
              "internalType": "uint256",
              "name": "batchId",
              "type": "uint256"
            },
            {
              "internalType": "uint256",
              "name": "participantId",
              "type": "uint256"
            },
            {
              "internalType": "uint256",
              "name": "timestamp",
              "type": "uint256"
            },
            {
              "internalType": "string",
              "name": "activityName",
              "type": "string"
            },
            {
              "internalType": "string",
              "name": "description",
              "type": "string"
            },
            {
              "internalType": "bool",
              "name": "isSystemActivity",
              "type": "bool"
            },
            {
              "internalType": "string[]",
              "name": "imageUrls",
              "type": "string[]"
            },
            {
              "internalType": "uint256[]",
              "name": "relatedProductIds",
              "type": "uint256[]"
            }
          ],
          "internalType": "struct ActivityLog.ActivityLogEntry[]",
          "name": "",
          "type": "tuple[]"
        }
      ],
      "stateMutability": "view",
      "type": "function",
      "constant": true
    },
    {
      "inputs": [
        {
          "internalType": "uint256",
          "name": "_uid",
          "type": "uint256"
        }
      ],
      "name": "getProducerActivityLogs",
      "outputs": [
        {
          "components": [
            {
              "internalType": "uint256",
              "name": "batchId",
              "type": "uint256"
            },
            {
              "internalType": "uint256",
              "name": "participantId",
              "type": "uint256"
            },
            {
              "internalType": "uint256",
              "name": "timestamp",
              "type": "uint256"
            },
            {
              "internalType": "string",
              "name": "activityName",
              "type": "string"
            },
            {
              "internalType": "string",
              "name": "description",
              "type": "string"
            },
            {
              "internalType": "bool",
              "name": "isSystemActivity",
              "type": "bool"
            },
            {
              "internalType": "string[]",
              "name": "imageUrls",
              "type": "string[]"
            },
            {
              "internalType": "uint256[]",
              "name": "relatedProductIds",
              "type": "uint256[]"
            }
          ],
          "internalType": "struct ActivityLog.ActivityLogEntry[]",
          "name": "",
          "type": "tuple[]"
        }
      ],
      "stateMutability": "view",
      "type": "function",
      "constant": true
    },
    {
      "inputs": [
        {
          "internalType": "string",
          "name": "_sscc",
          "type": "string"
        }
      ],
      "name": "getSystemActivityLogsBySSCC",
      "outputs": [
        {
          "components": [
            {
              "internalType": "uint256",
              "name": "batchId",
              "type": "uint256"
            },
            {
              "internalType": "uint256",
              "name": "participantId",
              "type": "uint256"
            },
            {
              "internalType": "uint256",
              "name": "timestamp",
              "type": "uint256"
            },
            {
              "internalType": "string",
              "name": "activityName",
              "type": "string"
            },
            {
              "internalType": "string",
              "name": "description",
              "type": "string"
            },
            {
              "internalType": "bool",
              "name": "isSystemActivity",
              "type": "bool"
            },
            {
              "internalType": "string[]",
              "name": "imageUrls",
              "type": "string[]"
            },
            {
              "internalType": "uint256[]",
              "name": "relatedProductIds",
              "type": "uint256[]"
            }
          ],
          "internalType": "struct ActivityLog.ActivityLogEntry[]",
          "name": "",
          "type": "tuple[]"
        }
      ],
      "stateMutability": "view",
      "type": "function",
      "constant": true
    }
  ],
  "bytecode": "0x608060405234801561001057600080fd5b5061160f806100206000396000f3fe608060405234801561001057600080fd5b50600436106100575760003560e01c80630e6e369c1461005c5780633abb5afb146100855780638f9eb92e14610098578063b50f8762146100ad578063f7f097f4146100c0575b600080fd5b61006f61006a366004610ebc565b6100d3565b60405161007c9190610fb8565b60405180910390f35b61006f610093366004610ebc565b6103bd565b6100ab6100a6366004611286565b6107da565b005b61006f6100bb366004611357565b610919565b61006f6100ce366004610ebc565b610959565b600081815260208181526040808320805482518185028101850190935280835260609492939192909184015b828210156103b257838290600052602060002090600802016040518061010001604052908160008201548152602001600182015481526020016002820154815260200160038201805461015190611394565b80601f016020809104026020016040519081016040528092919081815260200182805461017d90611394565b80156101ca5780601f1061019f576101008083540402835291602001916101ca565b820191906000526020600020905b8154815290600101906020018083116101ad57829003601f168201915b505050505081526020016004820180546101e390611394565b80601f016020809104026020016040519081016040528092919081815260200182805461020f90611394565b801561025c5780601f106102315761010080835404028352916020019161025c565b820191906000526020600020905b81548152906001019060200180831161023f57829003601f168201915b5050509183525050600582015460ff161515602080830191909152600683018054604080518285028101850182528281529401939260009084015b828210156103435783829060005260206000200180546102b690611394565b80601f01602080910402602001604051908101604052809291908181526020018280546102e290611394565b801561032f5780601f106103045761010080835404028352916020019161032f565b820191906000526020600020905b81548152906001019060200180831161031257829003601f168201915b505050505081526020019060010190610297565b5050505081526020016007820180548060200260200160405190810160405280929190818152602001828054801561039a57602002820191906000526020600020905b815481526020019060010190808311610386575b505050505081525050815260200190600101906100ff565b505050509050919050565b600081815260208181526040808320805482518185028101850190935280835260609493849084015b8282101561069957838290600052602060002090600802016040518061010001604052908160008201548152602001600182015481526020016002820154815260200160038201805461043890611394565b80601f016020809104026020016040519081016040528092919081815260200182805461046490611394565b80156104b15780601f10610486576101008083540402835291602001916104b1565b820191906000526020600020905b81548152906001019060200180831161049457829003601f168201915b505050505081526020016004820180546104ca90611394565b80601f01602080910402602001604051908101604052809291908181526020018280546104f690611394565b80156105435780601f1061051857610100808354040283529160200191610543565b820191906000526020600020905b81548152906001019060200180831161052657829003601f168201915b5050509183525050600582015460ff161515602080830191909152600683018054604080518285028101850182528281529401939260009084015b8282101561062a57838290600052602060002001805461059d90611394565b80601f01602080910402602001604051908101604052809291908181526020018280546105c990611394565b80156106165780601f106105eb57610100808354040283529160200191610616565b820191906000526020600020905b8154815290600101906020018083116105f957829003601f168201915b50505050508152602001906001019061057e565b5050505081526020016007820180548060200260200160405190810160405280929190818152602001828054801561068157602002820191906000526020600020905b81548152602001906001019080831161066d575b505050505081525050815260200190600101906103e6565b5050505090506000805b82518110156106ef578281815181106106be576106be6113ce565b602002602001015160a00151156106dd57816106d9816113e4565b9250505b806106e7816113e4565b9150506106a3565b5060008167ffffffffffffffff81111561070b5761070b6110ab565b60405190808252806020026020018201604052801561074457816020015b610731610d69565b8152602001906001900390816107295790505b5090506000805b84518110156107cf57848181518110610766576107666113ce565b602002602001015160a00151156107bd57848181518110610789576107896113ce565b60200260200101518383815181106107a3576107a36113ce565b602002602001018190525081806107b9906113e4565b9250505b806107c7816113e4565b91505061074b565b509095945050505050565b6040805161010081018252888152602080820189815242838501908152606084018a8152608085018a905288151560a086015260c0850188905260e0850187905260008d8152808552958620805460018181018355918852949096208551600890950201938455915194830194909455925160028201559151909182916003820190610866908261145a565b506080820151600482019061087b908261145a565b5060a082015160058201805460ff191691151591909117905560c082015180516108af916006840191602090910190610db0565b5060e082015180516108cb916007840191602090910190610e06565b50505086887f57fb9146d980bd09c3c39ea5a91427f75ac54c7e992302a3cb2d9f47b6f5fd46888888888860405161090795949392919061151a565b60405180910390a35050505050505050565b606060008260405160200161092e91906115bd565b6040516020818303038152906040528051906020012060001c9050610952816103bd565b9392505050565b600081815260208181526040808320805482518185028101850190935280835260609493849084015b82821015610c355783829060005260206000209060080201604051806101000160405290816000820154815260200160018201548152602001600282015481526020016003820180546109d490611394565b80601f0160208091040260200160405190810160405280929190818152602001828054610a0090611394565b8015610a4d5780601f10610a2257610100808354040283529160200191610a4d565b820191906000526020600020905b815481529060010190602001808311610a3057829003601f168201915b50505050508152602001600482018054610a6690611394565b80601f0160208091040260200160405190810160405280929190818152602001828054610a9290611394565b8015610adf5780601f10610ab457610100808354040283529160200191610adf565b820191906000526020600020905b815481529060010190602001808311610ac257829003601f168201915b5050509183525050600582015460ff161515602080830191909152600683018054604080518285028101850182528281529401939260009084015b82821015610bc6578382906000526020600020018054610b3990611394565b80601f0160208091040260200160405190810160405280929190818152602001828054610b6590611394565b8015610bb25780601f10610b8757610100808354040283529160200191610bb2565b820191906000526020600020905b815481529060010190602001808311610b9557829003601f168201915b505050505081526020019060010190610b1a565b50505050815260200160078201805480602002602001604051908101604052809291908181526020018280548015610c1d57602002820191906000526020600020905b815481526020019060010190808311610c09575b50505050508152505081526020019060010190610982565b5050505090506000805b8251811015610c8a57828181518110610c5a57610c5a6113ce565b602002602001015160a00151610c785781610c74816113e4565b9250505b80610c82816113e4565b915050610c3f565b5060008167ffffffffffffffff811115610ca657610ca66110ab565b604051908082528060200260200182016040528015610cdf57816020015b610ccc610d69565b815260200190600190039081610cc45790505b5090506000805b84518110156107cf57848181518110610d0157610d016113ce565b602002602001015160a00151610d5757848181518110610d2357610d236113ce565b6020026020010151838381518110610d3d57610d3d6113ce565b60200260200101819052508180610d53906113e4565b9250505b80610d61816113e4565b915050610ce6565b604051806101000160405280600081526020016000815260200160008152602001606081526020016060815260200160001515815260200160608152602001606081525090565b828054828255906000526020600020908101928215610df6579160200282015b82811115610df65782518290610de6908261145a565b5091602001919060010190610dd0565b50610e02929150610e4d565b5090565b828054828255906000526020600020908101928215610e41579160200282015b82811115610e41578251825591602001919060010190610e26565b50610e02929150610e6a565b80821115610e02576000610e618282610e7f565b50600101610e4d565b5b80821115610e025760008155600101610e6b565b508054610e8b90611394565b6000825580601f10610e9b575050565b601f016020900490600052602060002090810190610eb99190610e6a565b50565b600060208284031215610ece57600080fd5b5035919050565b60005b83811015610ef0578181015183820152602001610ed8565b50506000910152565b60008151808452610f11816020860160208601610ed5565b601f01601f19169290920160200192915050565b600082825180855260208086019550808260051b84010181860160005b84811015610f7057601f19868403018952610f5e838351610ef9565b98840198925090830190600101610f42565b5090979650505050505050565b600081518084526020808501945080840160005b83811015610fad57815187529582019590820190600101610f91565b509495945050505050565b60006020808301818452808551808352604092508286019150828160051b87010184880160005b8381101561109d57603f1989840301855281516101008151855288820151898601528782015188860152606080830151828288015261102083880182610ef9565b925050506080808301518683038288015261103b8382610ef9565b9250505060a0808301516110528288018215159052565b505060c0808301518683038288015261106b8382610f25565b9250505060e080830151925085820381870152506110898183610f7d565b968901969450505090860190600101610fdf565b509098975050505050505050565b634e487b7160e01b600052604160045260246000fd5b604051601f8201601f1916810167ffffffffffffffff811182821017156110ea576110ea6110ab565b604052919050565b600082601f83011261110357600080fd5b813567ffffffffffffffff81111561111d5761111d6110ab565b611130601f8201601f19166020016110c1565b81815284602083860101111561114557600080fd5b816020850160208301376000918101602001919091529392505050565b8035801515811461117257600080fd5b919050565b600067ffffffffffffffff821115611191576111916110ab565b5060051b60200190565b600082601f8301126111ac57600080fd5b813560206111c16111bc83611177565b6110c1565b82815260059290921b840181019181810190868411156111e057600080fd5b8286015b8481101561122057803567ffffffffffffffff8111156112045760008081fd5b6112128986838b01016110f2565b8452509183019183016111e4565b509695505050505050565b600082601f83011261123c57600080fd5b8135602061124c6111bc83611177565b82815260059290921b8401810191818101908684111561126b57600080fd5b8286015b84811015611220578035835291830191830161126f565b600080600080600080600060e0888a0312156112a157600080fd5b8735965060208801359550604088013567ffffffffffffffff808211156112c757600080fd5b6112d38b838c016110f2565b965060608a01359150808211156112e957600080fd5b6112f58b838c016110f2565b955061130360808b01611162565b945060a08a013591508082111561131957600080fd5b6113258b838c0161119b565b935060c08a013591508082111561133b57600080fd5b506113488a828b0161122b565b91505092959891949750929550565b60006020828403121561136957600080fd5b813567ffffffffffffffff81111561138057600080fd5b61138c848285016110f2565b949350505050565b600181811c908216806113a857607f821691505b6020821081036113c857634e487b7160e01b600052602260045260246000fd5b50919050565b634e487b7160e01b600052603260045260246000fd5b60006001820161140457634e487b7160e01b600052601160045260246000fd5b5060010190565b601f82111561145557600081815260208120601f850160051c810160208610156114325750805b601f850160051c820191505b818110156114515782815560010161143e565b5050505b505050565b815167ffffffffffffffff811115611474576114746110ab565b611488816114828454611394565b8461140b565b602080601f8311600181146114bd57600084156114a55750858301515b600019600386901b1c1916600185901b178555611451565b600085815260208120601f198616915b828110156114ec578886015182559484019460019091019084016114cd565b508582101561150a5787850151600019600388901b60f8161c191681555b5050505050600190811b01905550565b60a08152600061152d60a0830188610ef9565b6020838203818501526115408289610ef9565b9150861515604085015283820360608501528186518084528284019150828160051b85010183890160005b8381101561159957601f19878403018552611587838351610ef9565b9486019492509085019060010161156b565b505086810360808801526115ad8189610f7d565b9c9b505050505050505050505050565b600082516115cf818460208701610ed5565b919091019291505056fea2646970667358221220ab79a2cde3ffbe480daba964a7c595b12fc3976829d824c4dfbcc370db96665b64736f6c63430008140033",
  "immutableReferences": {},
  "source": "// SPDX-License-Identifier: MIT\r\npragma solidity ^0.8.0;\r\n\r\ncontract ActivityLog {\r\n    struct ActivityLogEntry {\r\n        uint256 batchId;\r\n        uint256 participantId;\r\n        uint256 timestamp;\r\n        string activityName;\r\n        string description;\r\n        bool isSystemActivity;\r\n        string[] imageUrls;\r\n        uint256[] relatedProductIds;\r\n    }\r\n\r\n    mapping(uint256 => ActivityLogEntry[]) private _activityLogs;\r\n\r\n    event ActivityLogAdded(\r\n        uint256 indexed batchId,\r\n        uint256 indexed participantId,\r\n        string activityName,\r\n        string description,\r\n        bool isSystemGenerated,\r\n        string[] imageUrls,\r\n        uint256[] relatedProductIds\r\n    );\r\n\r\n    constructor() {\r\n        // Thm constructor rng\r\n    }\r\n\r\n    function addActivityLog(\r\n        uint256 _batchId,\r\n        uint256 _participantId,\r\n        string memory _activityName,\r\n        string memory _description,\r\n        bool _isSystemActivity,\r\n        string[] memory _imageUrls,\r\n        uint256[] memory _relatedProductIds\r\n    ) public {\r\n        ActivityLogEntry memory newLog = ActivityLogEntry({\r\n            batchId: _batchId,\r\n            participantId: _participantId,\r\n            timestamp: block.timestamp,\r\n            activityName: _activityName,\r\n            description: _description,\r\n            isSystemActivity: _isSystemActivity,\r\n            imageUrls: _imageUrls,\r\n            relatedProductIds: _relatedProductIds\r\n        });\r\n\r\n        _activityLogs[_batchId].push(newLog);\r\n\r\n        emit ActivityLogAdded(\r\n            _batchId,\r\n            _participantId,\r\n            _activityName,\r\n            _description,\r\n            _isSystemActivity,\r\n            _imageUrls,\r\n            _relatedProductIds\r\n        );\r\n    }\r\n\r\n    function getActivityLogs(uint256 _uid) public view returns (ActivityLogEntry[] memory) {\r\n        return _activityLogs[_uid];\r\n    }\r\n\r\n    function getSystemActivityLogs(uint256 _uid) public view returns (ActivityLogEntry[] memory) {\r\n        ActivityLogEntry[] memory allLogs = _activityLogs[_uid];\r\n        uint256 count = 0;\r\n        for (uint256 i = 0; i < allLogs.length; i++) {\r\n            if (allLogs[i].isSystemActivity) {\r\n                count++;\r\n            }\r\n        }\r\n\r\n        ActivityLogEntry[] memory systemLogs = new ActivityLogEntry[](count);\r\n        uint256 index = 0;\r\n        for (uint256 i = 0; i < allLogs.length; i++) {\r\n            if (allLogs[i].isSystemActivity) {\r\n                systemLogs[index] = allLogs[i];\r\n                index++;\r\n            }\r\n        }\r\n\r\n        return systemLogs;\r\n    }\r\n\r\n    function getProducerActivityLogs(uint256 _uid) public view returns (ActivityLogEntry[] memory) {\r\n        ActivityLogEntry[] memory allLogs = _activityLogs[_uid];\r\n        uint256 count = 0;\r\n        for (uint256 i = 0; i < allLogs.length; i++) {\r\n            if (!allLogs[i].isSystemActivity) {\r\n                count++;\r\n            }\r\n        }\r\n\r\n        ActivityLogEntry[] memory producerLogs = new ActivityLogEntry[](count);\r\n        uint256 index = 0;\r\n        for (uint256 i = 0; i < allLogs.length; i++) {\r\n            if (!allLogs[i].isSystemActivity) {\r\n                producerLogs[index] = allLogs[i];\r\n                index++;\r\n            }\r\n        }\r\n\r\n        return producerLogs;\r\n    }\r\n\r\n    function getSystemActivityLogsBySSCC(\r\n        string memory _sscc\r\n    ) public view returns (ActivityLogEntry[] memory) {\r\n        uint256 batchId = uint256(keccak256(abi.encodePacked(_sscc)));\r\n        return getSystemActivityLogs(batchId);\r\n    }\r\n}\r\n",
  "sourcePath": "D:\\projects\\nckh-be\\blockchain\\contracts\\ActivityLog.sol",
  "compiler": {
    "name": "solc",
    "version": "0.8.20+commit.a1b79de6.Emscripten.clang"
  },
  "schemaVersion": "3.4.16",
  "updatedAt": "2025-02-15T14:54:28.270Z",
  "networkType": "ethereum",
  "devdoc": {
    "kind": "dev",
    "methods": {},
    "version": 1
  },
  "userdoc": {
    "kind": "user",
    "methods": {},
    "version": 1
  }
}