{
  "contractName": "ActivityLog",
  "abi": [
    {
      "anonymous": false,
      "inputs": [
        {
          "indexed": true,
          "internalType": "uint256",
          "name": "uid",
          "type": "uint256"
        },
        {
          "indexed": false,
          "internalType": "string",
          "name": "activityName",
          "type": "string"
        },
        {
          "indexed": false,
          "internalType": "string",
          "name": "description",
          "type": "string"
        },
        {
          "indexed": false,
          "internalType": "bool",
          "name": "isSystemGenerated",
          "type": "bool"
        },
        {
          "indexed": false,
          "internalType": "string[]",
          "name": "imageUrls",
          "type": "string[]"
        },
        {
          "indexed": false,
          "internalType": "uint256[]",
          "name": "relatedProductIds",
          "type": "uint256[]"
        }
      ],
      "name": "ActivityLogAdded",
      "type": "event"
    },
    {
      "inputs": [
        {
          "internalType": "uint256",
          "name": "_uid",
          "type": "uint256"
        },
        {
          "internalType": "string",
          "name": "_activityName",
          "type": "string"
        },
        {
          "internalType": "string",
          "name": "_description",
          "type": "string"
        },
        {
          "internalType": "bool",
          "name": "_isSystemGenerated",
          "type": "bool"
        },
        {
          "internalType": "string[]",
          "name": "_imageUrls",
          "type": "string[]"
        },
        {
          "internalType": "uint256[]",
          "name": "_relatedProductIds",
          "type": "uint256[]"
        }
      ],
      "name": "addActivityLog",
      "outputs": [],
      "stateMutability": "nonpayable",
      "type": "function"
    },
    {
      "inputs": [
        {
          "internalType": "uint256",
          "name": "_uid",
          "type": "uint256"
        }
      ],
      "name": "getActivityLogs",
      "outputs": [
        {
          "components": [
            {
              "internalType": "uint256",
              "name": "timestamp",
              "type": "uint256"
            },
            {
              "internalType": "uint256",
              "name": "uid",
              "type": "uint256"
            },
            {
              "internalType": "string",
              "name": "activityName",
              "type": "string"
            },
            {
              "internalType": "string",
              "name": "description",
              "type": "string"
            },
            {
              "internalType": "bool",
              "name": "isSystemGenerated",
              "type": "bool"
            },
            {
              "internalType": "string[]",
              "name": "imageUrls",
              "type": "string[]"
            },
            {
              "internalType": "uint256[]",
              "name": "relatedProductIds",
              "type": "uint256[]"
            }
          ],
          "internalType": "struct ActivityLog.ActivityLogEntry[]",
          "name": "",
          "type": "tuple[]"
        }
      ],
      "stateMutability": "view",
      "type": "function",
      "constant": true
    },
    {
      "inputs": [
        {
          "internalType": "uint256",
          "name": "_uid",
          "type": "uint256"
        }
      ],
      "name": "getActivityLogCount",
      "outputs": [
        {
          "internalType": "uint256",
          "name": "",
          "type": "uint256"
        }
      ],
      "stateMutability": "view",
      "type": "function",
      "constant": true
    },
    {
      "inputs": [
        {
          "internalType": "uint256",
          "name": "_uid",
          "type": "uint256"
        }
      ],
      "name": "getProducerActivityLogs",
      "outputs": [
        {
          "components": [
            {
              "internalType": "uint256",
              "name": "timestamp",
              "type": "uint256"
            },
            {
              "internalType": "uint256",
              "name": "uid",
              "type": "uint256"
            },
            {
              "internalType": "string",
              "name": "activityName",
              "type": "string"
            },
            {
              "internalType": "string",
              "name": "description",
              "type": "string"
            },
            {
              "internalType": "bool",
              "name": "isSystemGenerated",
              "type": "bool"
            },
            {
              "internalType": "string[]",
              "name": "imageUrls",
              "type": "string[]"
            },
            {
              "internalType": "uint256[]",
              "name": "relatedProductIds",
              "type": "uint256[]"
            }
          ],
          "internalType": "struct ActivityLog.ActivityLogEntry[]",
          "name": "",
          "type": "tuple[]"
        }
      ],
      "stateMutability": "view",
      "type": "function",
      "constant": true
    },
    {
      "inputs": [
        {
          "internalType": "uint256",
          "name": "_uid",
          "type": "uint256"
        }
      ],
      "name": "getSystemActivityLogs",
      "outputs": [
        {
          "components": [
            {
              "internalType": "uint256",
              "name": "timestamp",
              "type": "uint256"
            },
            {
              "internalType": "uint256",
              "name": "uid",
              "type": "uint256"
            },
            {
              "internalType": "string",
              "name": "activityName",
              "type": "string"
            },
            {
              "internalType": "string",
              "name": "description",
              "type": "string"
            },
            {
              "internalType": "bool",
              "name": "isSystemGenerated",
              "type": "bool"
            },
            {
              "internalType": "string[]",
              "name": "imageUrls",
              "type": "string[]"
            },
            {
              "internalType": "uint256[]",
              "name": "relatedProductIds",
              "type": "uint256[]"
            }
          ],
          "internalType": "struct ActivityLog.ActivityLogEntry[]",
          "name": "",
          "type": "tuple[]"
        }
      ],
      "stateMutability": "view",
      "type": "function",
      "constant": true
    },
    {
      "inputs": [
        {
          "internalType": "string",
          "name": "_sscc",
          "type": "string"
        }
      ],
      "name": "getSystemActivityLogsBySSCC",
      "outputs": [
        {
          "components": [
            {
              "internalType": "uint256",
              "name": "timestamp",
              "type": "uint256"
            },
            {
              "internalType": "uint256",
              "name": "uid",
              "type": "uint256"
            },
            {
              "internalType": "string",
              "name": "activityName",
              "type": "string"
            },
            {
              "internalType": "string",
              "name": "description",
              "type": "string"
            },
            {
              "internalType": "bool",
              "name": "isSystemGenerated",
              "type": "bool"
            },
            {
              "internalType": "string[]",
              "name": "imageUrls",
              "type": "string[]"
            },
            {
              "internalType": "uint256[]",
              "name": "relatedProductIds",
              "type": "uint256[]"
            }
          ],
          "internalType": "struct ActivityLog.ActivityLogEntry[]",
          "name": "",
          "type": "tuple[]"
        }
      ],
      "stateMutability": "view",
      "type": "function",
      "constant": true
    }
  ],
  "bytecode": "0x608060405234801561001057600080fd5b506115e2806100206000396000f3fe608060405234801561001057600080fd5b50600436106100625760003560e01c80630e6e369c1461006757806324ac9435146100905780633abb5afb146100a557806385bdd03f146100b8578063b50f8762146100e6578063f7f097f4146100f9575b600080fd5b61007a610075366004610eb8565b61010c565b6040516100879190610fb1565b60405180910390f35b6100a361009e366004611267565b6103eb565b005b61007a6100b3366004610eb8565b610518565b6100d86100c6366004610eb8565b60009081526020819052604090205490565b604051908152602001610087565b61007a6100f436600461132c565b610929565b61007a610107366004610eb8565b610969565b600081815260208181526040808320805482518185028101850190935280835260609492939192909184015b828210156103e057838290600052602060002090600702016040518060e0016040529081600082015481526020016001820154815260200160028201805461017f90611368565b80601f01602080910402602001604051908101604052809291908181526020018280546101ab90611368565b80156101f85780601f106101cd576101008083540402835291602001916101f8565b820191906000526020600020905b8154815290600101906020018083116101db57829003601f168201915b5050505050815260200160038201805461021190611368565b80601f016020809104026020016040519081016040528092919081815260200182805461023d90611368565b801561028a5780601f1061025f5761010080835404028352916020019161028a565b820191906000526020600020905b81548152906001019060200180831161026d57829003601f168201915b5050509183525050600482015460ff161515602080830191909152600583018054604080518285028101850182528281529401939260009084015b828210156103715783829060005260206000200180546102e490611368565b80601f016020809104026020016040519081016040528092919081815260200182805461031090611368565b801561035d5780601f106103325761010080835404028352916020019161035d565b820191906000526020600020905b81548152906001019060200180831161034057829003601f168201915b5050505050815260200190600101906102c5565b505050508152602001600682018054806020026020016040519081016040528092919081815260200182805480156103c857602002820191906000526020600020905b8154815260200190600101908083116103b4575b50505050508152505081526020019060010190610138565b505050509050919050565b6040805160e081018252428152602080820189815282840189815260608401899052871515608085015260a0840187905260c0840186905260008b8152808452948520805460018181018355918752939095208451600790940201928355905193820193909355915190918291600282019061046790826113f1565b506060820151600382019061047c90826113f1565b50608082015160048201805460ff191691151591909117905560a082015180516104b0916005840191602090910190610d6d565b5060c082015180516104cc916006840191602090910190610dc3565b505050867f0fb336061951903d147e6b93ba30f6d47839e02426fcd5ee1876873afe47bab387878787876040516105079594939291906114b0565b60405180910390a250505050505050565b600081815260208181526040808320805482518185028101850190935280835260609493849084015b828210156107e957838290600052602060002090600702016040518060e0016040529081600082015481526020016001820154815260200160028201805461058890611368565b80601f01602080910402602001604051908101604052809291908181526020018280546105b490611368565b80156106015780601f106105d657610100808354040283529160200191610601565b820191906000526020600020905b8154815290600101906020018083116105e457829003601f168201915b5050505050815260200160038201805461061a90611368565b80601f016020809104026020016040519081016040528092919081815260200182805461064690611368565b80156106935780601f1061066857610100808354040283529160200191610693565b820191906000526020600020905b81548152906001019060200180831161067657829003601f168201915b5050509183525050600482015460ff161515602080830191909152600583018054604080518285028101850182528281529401939260009084015b8282101561077a5783829060005260206000200180546106ed90611368565b80601f016020809104026020016040519081016040528092919081815260200182805461071990611368565b80156107665780601f1061073b57610100808354040283529160200191610766565b820191906000526020600020905b81548152906001019060200180831161074957829003601f168201915b5050505050815260200190600101906106ce565b505050508152602001600682018054806020026020016040519081016040528092919081815260200182805480156107d157602002820191906000526020600020905b8154815260200190600101908083116107bd575b50505050508152505081526020019060010190610541565b5050505090506000805b825181101561083f5782818151811061080e5761080e611553565b6020026020010151608001511561082d578161082981611569565b9250505b8061083781611569565b9150506107f3565b506000816001600160401b0381111561085a5761085a611090565b60405190808252806020026020018201604052801561089357816020015b610880610e0a565b8152602001906001900390816108785790505b5090506000805b845181101561091e578481815181106108b5576108b5611553565b6020026020010151608001511561090c578481815181106108d8576108d8611553565b60200260200101518383815181106108f2576108f2611553565b6020026020010181905250818061090890611569565b9250505b8061091681611569565b91505061089a565b509095945050505050565b606060008260405160200161093e9190611590565b6040516020818303038152906040528051906020012060001c905061096281610518565b9392505050565b600081815260208181526040808320805482518185028101850190935280835260609493849084015b82821015610c3a57838290600052602060002090600702016040518060e001604052908160008201548152602001600182015481526020016002820180546109d990611368565b80601f0160208091040260200160405190810160405280929190818152602001828054610a0590611368565b8015610a525780601f10610a2757610100808354040283529160200191610a52565b820191906000526020600020905b815481529060010190602001808311610a3557829003601f168201915b50505050508152602001600382018054610a6b90611368565b80601f0160208091040260200160405190810160405280929190818152602001828054610a9790611368565b8015610ae45780601f10610ab957610100808354040283529160200191610ae4565b820191906000526020600020905b815481529060010190602001808311610ac757829003601f168201915b5050509183525050600482015460ff161515602080830191909152600583018054604080518285028101850182528281529401939260009084015b82821015610bcb578382906000526020600020018054610b3e90611368565b80601f0160208091040260200160405190810160405280929190818152602001828054610b6a90611368565b8015610bb75780601f10610b8c57610100808354040283529160200191610bb7565b820191906000526020600020905b815481529060010190602001808311610b9a57829003601f168201915b505050505081526020019060010190610b1f565b50505050815260200160068201805480602002602001604051908101604052809291908181526020018280548015610c2257602002820191906000526020600020905b815481526020019060010190808311610c0e575b50505050508152505081526020019060010190610992565b5050505090506000805b8251811015610c8f57828181518110610c5f57610c5f611553565b602002602001015160800151610c7d5781610c7981611569565b9250505b80610c8781611569565b915050610c44565b506000816001600160401b03811115610caa57610caa611090565b604051908082528060200260200182016040528015610ce357816020015b610cd0610e0a565b815260200190600190039081610cc85790505b5090506000805b845181101561091e57848181518110610d0557610d05611553565b602002602001015160800151610d5b57848181518110610d2757610d27611553565b6020026020010151838381518110610d4157610d41611553565b60200260200101819052508180610d5790611569565b9250505b80610d6581611569565b915050610cea565b828054828255906000526020600020908101928215610db3579160200282015b82811115610db35782518290610da390826113f1565b5091602001919060010190610d8d565b50610dbf929150610e49565b5090565b828054828255906000526020600020908101928215610dfe579160200282015b82811115610dfe578251825591602001919060010190610de3565b50610dbf929150610e66565b6040518060e001604052806000815260200160008152602001606081526020016060815260200160001515815260200160608152602001606081525090565b80821115610dbf576000610e5d8282610e7b565b50600101610e49565b5b80821115610dbf5760008155600101610e67565b508054610e8790611368565b6000825580601f10610e97575050565b601f016020900490600052602060002090810190610eb59190610e66565b50565b600060208284031215610eca57600080fd5b5035919050565b60005b83811015610eec578181015183820152602001610ed4565b50506000910152565b60008151808452610f0d816020860160208601610ed1565b601f01601f19169290920160200192915050565b600081518084526020808501808196508360051b8101915082860160005b85811015610f69578284038952610f57848351610ef5565b98850198935090840190600101610f3f565b5091979650505050505050565b600081518084526020808501945080840160005b83811015610fa657815187529582019590820190600101610f8a565b509495945050505050565b60006020808301818452808551808352604092508286019150828160051b87010184880160005b8381101561108257603f19898403018552815160e081518552888201518986015287820151818987015261100e82870182610ef5565b915050606080830151868303828801526110288382610ef5565b925050506080808301511515818701525060a080830151868303828801526110508382610f21565b9250505060c0808301519250858203818701525061106e8183610f76565b968901969450505090860190600101610fd8565b509098975050505050505050565b634e487b7160e01b600052604160045260246000fd5b604051601f8201601f191681016001600160401b03811182821017156110ce576110ce611090565b604052919050565b600082601f8301126110e757600080fd5b81356001600160401b0381111561110057611100611090565b611113601f8201601f19166020016110a6565b81815284602083860101111561112857600080fd5b816020850160208301376000918101602001919091529392505050565b8035801515811461115557600080fd5b919050565b60006001600160401b0382111561117357611173611090565b5060051b60200190565b600082601f83011261118e57600080fd5b813560206111a361119e8361115a565b6110a6565b82815260059290921b840181019181810190868411156111c257600080fd5b8286015b848110156112015780356001600160401b038111156111e55760008081fd5b6111f38986838b01016110d6565b8452509183019183016111c6565b509695505050505050565b600082601f83011261121d57600080fd5b8135602061122d61119e8361115a565b82815260059290921b8401810191818101908684111561124c57600080fd5b8286015b848110156112015780358352918301918301611250565b60008060008060008060c0878903121561128057600080fd5b8635955060208701356001600160401b038082111561129e57600080fd5b6112aa8a838b016110d6565b965060408901359150808211156112c057600080fd5b6112cc8a838b016110d6565b95506112da60608a01611145565b945060808901359150808211156112f057600080fd5b6112fc8a838b0161117d565b935060a089013591508082111561131257600080fd5b5061131f89828a0161120c565b9150509295509295509295565b60006020828403121561133e57600080fd5b81356001600160401b0381111561135457600080fd5b611360848285016110d6565b949350505050565b600181811c9082168061137c57607f821691505b60208210810361139c57634e487b7160e01b600052602260045260246000fd5b50919050565b601f8211156113ec57600081815260208120601f850160051c810160208610156113c95750805b601f850160051c820191505b818110156113e8578281556001016113d5565b5050505b505050565b81516001600160401b0381111561140a5761140a611090565b61141e816114188454611368565b846113a2565b602080601f831160018114611453576000841561143b5750858301515b600019600386901b1c1916600185901b1785556113e8565b600085815260208120601f198616915b8281101561148257888601518255948401946001909101908401611463565b50858210156114a05787850151600019600388901b60f8161c191681555b5050505050600190811b01905550565b60a0815260006114c360a0830188610ef5565b6020838203818501526114d68289610ef5565b9150861515604085015283820360608501528186518084528284019150828160051b85010183890160005b8381101561152f57601f1987840301855261151d838351610ef5565b94860194925090850190600101611501565b505086810360808801526115438189610f76565b9c9b505050505050505050505050565b634e487b7160e01b600052603260045260246000fd5b60006001820161158957634e487b7160e01b600052601160045260246000fd5b5060010190565b600082516115a2818460208701610ed1565b919091019291505056fea2646970667358221220558b09504b5f157e72948772f7af5f44c9eb755afd4d2cef48f8a39fa1c20a1464736f6c63430008140033",
  "immutableReferences": {},
  "source": "// SPDX-License-Identifier: MIT\r\npragma solidity ^0.8.0;\r\n\r\ncontract ActivityLog {\r\n    struct ActivityLogEntry {\r\n        uint256 timestamp;\r\n        uint256 uid;\r\n        string activityName;\r\n        string description;\r\n        bool isSystemGenerated;\r\n        string[] imageUrls;\r\n        uint256[] relatedProductIds;\r\n    }\r\n\r\n    mapping(uint256 => ActivityLogEntry[]) private _activityLogs;\r\n\r\n    event ActivityLogAdded(\r\n        uint256 indexed uid,\r\n        string activityName,\r\n        string description,\r\n        bool isSystemGenerated,\r\n        string[] imageUrls,\r\n        uint256[] relatedProductIds\r\n    );\r\n\r\n    function addActivityLog(\r\n\r\n        uint256 _uid,\r\n        string memory _activityName,\r\n        string memory _description,\r\n        bool _isSystemGenerated,\r\n        string[] memory _imageUrls,\r\n        uint256[] memory _relatedProductIds\r\n    ) public {\r\n        ActivityLogEntry memory newLog = ActivityLogEntry({\r\n            timestamp: block.timestamp,\r\n            uid: _uid,\r\n            activityName: _activityName,\r\n            description: _description,\r\n            isSystemGenerated: _isSystemGenerated,\r\n            imageUrls: _imageUrls,\r\n            relatedProductIds: _relatedProductIds\r\n        });\r\n\r\n        _activityLogs[_uid].push(newLog);\r\n\r\n        emit ActivityLogAdded(_uid, _activityName, _description, _isSystemGenerated, _imageUrls, _relatedProductIds);\r\n    }\r\n    function getActivityLogs(uint256 _uid) public view returns (ActivityLogEntry[] memory) {\r\n        return _activityLogs[_uid];\r\n    }\r\n\r\n    function getActivityLogCount(uint256 _uid) public view returns (uint256) {\r\n        return _activityLogs[_uid].length;\r\n    }\r\n\r\n    function getProducerActivityLogs(uint256 _uid) public view returns (ActivityLogEntry[] memory) {\r\n        ActivityLogEntry[] memory allLogs = _activityLogs[_uid];\r\n        uint256 count = 0;\r\n        for (uint256 i = 0; i < allLogs.length; i++) {\r\n            if (!allLogs[i].isSystemGenerated) {\r\n                count++;\r\n            }\r\n        }\r\n\r\n        ActivityLogEntry[] memory producerLogs = new ActivityLogEntry[](count);\r\n        uint256 index = 0;\r\n        for (uint256 i = 0; i < allLogs.length; i++) {\r\n            if (!allLogs[i].isSystemGenerated) {\r\n                producerLogs[index] = allLogs[i];\r\n                index++;\r\n            }\r\n        }\r\n\r\n        return producerLogs;\r\n    }\r\n\r\n    function getSystemActivityLogs(uint256 _uid) public view returns (ActivityLogEntry[] memory) {\r\n        ActivityLogEntry[] memory allLogs = _activityLogs[_uid];\r\n        uint256 count = 0;\r\n        for (uint256 i = 0; i < allLogs.length; i++) {\r\n            if (allLogs[i].isSystemGenerated) {\r\n                count++;\r\n            }\r\n        }\r\n\r\n        ActivityLogEntry[] memory systemLogs = new ActivityLogEntry[](count);\r\n        uint256 index = 0;\r\n        for (uint256 i = 0; i < allLogs.length; i++) {\r\n            if (allLogs[i].isSystemGenerated) {\r\n                systemLogs[index] = allLogs[i];\r\n                index++;\r\n            }\r\n        }\r\n\r\n        return systemLogs;\r\n    }\r\n\r\n    function getSystemActivityLogsBySSCC(string memory _sscc) public view returns (ActivityLogEntry[] memory) {\r\n        uint256 batchId = uint256(keccak256(abi.encodePacked(_sscc)));\r\n        return getSystemActivityLogs(batchId);\r\n    }\r\n}",
  "sourcePath": "D:\\projects\\nckh-be\\blockchain\\contracts\\ActivityLog.sol",
  "compiler": {
    "name": "solc",
    "version": "0.8.20+commit.a1b79de6.Emscripten.clang"
  },
  "schemaVersion": "3.4.16",
  "updatedAt": "2024-09-23T09:45:37.487Z",
  "networkType": "ethereum",
  "devdoc": {
    "kind": "dev",
    "methods": {},
    "version": 1
  },
  "userdoc": {
    "kind": "user",
    "methods": {},
    "version": 1
  }
}