{
  "contractName": "SupplyChain",
  "abi": [
    {
      "anonymous": false,
      "inputs": [
        {
          "indexed": false,
          "internalType": "uint256",
          "name": "batchId",
          "type": "uint256"
        },
        {
          "indexed": false,
          "internalType": "string",
          "name": "batchName",
          "type": "string"
        },
        {
          "indexed": false,
          "internalType": "uint256",
          "name": "productId",
          "type": "uint256"
        },
        {
          "indexed": false,
          "internalType": "uint256",
          "name": "producerId",
          "type": "uint256"
        },
        {
          "indexed": false,
          "internalType": "uint256",
          "name": "quantity",
          "type": "uint256"
        },
        {
          "indexed": false,
          "internalType": "uint256",
          "name": "productionDate",
          "type": "uint256"
        },
        {
          "indexed": false,
          "internalType": "uint256",
          "name": "expireDate",
          "type": "uint256"
        },
        {
          "indexed": false,
          "internalType": "uint256",
          "name": "timestamp",
          "type": "uint256"
        },
        {
          "indexed": false,
          "internalType": "string[]",
          "name": "imageHashes",
          "type": "string[]"
        },
        {
          "indexed": false,
          "internalType": "string",
          "name": "certificateHash",
          "type": "string"
        },
        {
          "indexed": false,
          "internalType": "uint256",
          "name": "approverId",
          "type": "uint256"
        }
      ],
      "name": "BatchCreated",
      "type": "event"
    },
    {
      "inputs": [
        {
          "internalType": "uint256",
          "name": "",
          "type": "uint256"
        }
      ],
      "name": "batches",
      "outputs": [
        {
          "internalType": "uint256",
          "name": "batchId",
          "type": "uint256"
        },
        {
          "internalType": "string",
          "name": "batchName",
          "type": "string"
        },
        {
          "internalType": "uint256",
          "name": "productId",
          "type": "uint256"
        },
        {
          "internalType": "uint256",
          "name": "producerId",
          "type": "uint256"
        },
        {
          "internalType": "uint256",
          "name": "quantity",
          "type": "uint256"
        },
        {
          "internalType": "uint256",
          "name": "productionDate",
          "type": "uint256"
        },
        {
          "internalType": "uint256",
          "name": "expireDate",
          "type": "uint256"
        },
        {
          "internalType": "enum SupplyChain.BatchStatus",
          "name": "status",
          "type": "uint8"
        },
        {
          "internalType": "uint256",
          "name": "timestamp",
          "type": "uint256"
        },
        {
          "internalType": "string",
          "name": "sscc",
          "type": "string"
        },
        {
          "internalType": "string",
          "name": "certificateHash",
          "type": "string"
        },
        {
          "internalType": "uint256",
          "name": "approverId",
          "type": "uint256"
        }
      ],
      "stateMutability": "view",
      "type": "function"
    },
    {
      "inputs": [],
      "name": "nextBatchId",
      "outputs": [
        {
          "internalType": "uint256",
          "name": "",
          "type": "uint256"
        }
      ],
      "stateMutability": "view",
      "type": "function"
    },
    {
      "inputs": [
        {
          "internalType": "string",
          "name": "_batchName",
          "type": "string"
        },
        {
          "internalType": "uint256",
          "name": "_productId",
          "type": "uint256"
        },
        {
          "internalType": "uint256",
          "name": "_producerId",
          "type": "uint256"
        },
        {
          "internalType": "uint256",
          "name": "_quantity",
          "type": "uint256"
        },
        {
          "internalType": "uint256",
          "name": "_productionDate",
          "type": "uint256"
        },
        {
          "internalType": "uint256",
          "name": "_expireDate",
          "type": "uint256"
        },
        {
          "internalType": "string[]",
          "name": "_imageHashes",
          "type": "string[]"
        },
        {
          "internalType": "string",
          "name": "_certificateHash",
          "type": "string"
        },
        {
          "internalType": "uint256",
          "name": "_approverId",
          "type": "uint256"
        }
      ],
      "name": "createBatch",
      "outputs": [],
      "stateMutability": "nonpayable",
      "type": "function"
    }
  ],
  "bytecode": "0x608060405234801561001057600080fd5b50611249806100206000396000f3fe608060405234801561001057600080fd5b50600436106100415760003560e01c806325f894ba146100465780638462a7f814610062578063b32c4d8d14610080575b600080fd5b610060600480360381019061005b91906108f0565b6100bb565b005b61006a61046a565b6040516100779190610d92565b60405180910390f35b61009a600480360381019061009591906109fe565b610470565b6040516100b29c9b9a99989796959493929190610dad565b60405180910390f35b60008951116100ff576040517f08c379a00000000000000000000000000000000000000000000000000000000081526004016100f690610d32565b60405180910390fd5b60008611610142576040517f08c379a000000000000000000000000000000000000000000000000000000000815260040161013990610d72565b60405180910390fd5b838510610184576040517f08c379a000000000000000000000000000000000000000000000000000000000815260040161017b90610cf2565b60405180910390fd5b60008351116101c8576040517f08c379a00000000000000000000000000000000000000000000000000000000081526004016101bf90610d52565b60405180910390fd5b600082511161020c576040517f08c379a000000000000000000000000000000000000000000000000000000000815260040161020390610d12565b60405180910390fd5b6000604051806101a0016040528060015481526020018b81526020018a815260200189815260200188815260200187815260200186815260200160016003811115610280577f4e487b7100000000000000000000000000000000000000000000000000000000600052602160045260246000fd5b81526020014281526020016040518060200160405280600081525081526020018581526020018481526020018381525090806001815401808255809150506001900390600052602060002090600d02016000909190919091506000820151816000015560208201518160010190805190602001906102ff929190610685565b5060408201518160020155606082015181600301556080820151816004015560a0820151816005015560c0820151816006015560e08201518160070160006101000a81548160ff02191690836003811115610383577f4e487b7100000000000000000000000000000000000000000000000000000000600052602160045260246000fd5b021790555061010082015181600801556101208201518160090190805190602001906103b0929190610685565b5061014082015181600a0190805190602001906103ce92919061070b565b5061016082015181600b0190805190602001906103ec929190610685565b5061018082015181600c015550507f1b21b0cf235b129aa11b85f70842fa15e44ca1cda46bbe8feeacf871fa14f1776001548a8a8a8a8a8a428b8b8b60405161043f9b9a99989796959493929190610e7c565b60405180910390a16001600081548092919061045a906110d2565b9190505550505050505050505050565b60015481565b6000818154811061048057600080fd5b90600052602060002090600d02016000915090508060000154908060010180546104a9906110a0565b80601f01602080910402602001604051908101604052809291908181526020018280546104d5906110a0565b80156105225780601f106104f757610100808354040283529160200191610522565b820191906000526020600020905b81548152906001019060200180831161050557829003601f168201915b5050505050908060020154908060030154908060040154908060050154908060060154908060070160009054906101000a900460ff169080600801549080600901805461056e906110a0565b80601f016020809104026020016040519081016040528092919081815260200182805461059a906110a0565b80156105e75780601f106105bc576101008083540402835291602001916105e7565b820191906000526020600020905b8154815290600101906020018083116105ca57829003601f168201915b50505050509080600b0180546105fc906110a0565b80601f0160208091040260200160405190810160405280929190818152602001828054610628906110a0565b80156106755780601f1061064a57610100808354040283529160200191610675565b820191906000526020600020905b81548152906001019060200180831161065857829003601f168201915b50505050509080600c015490508c565b828054610691906110a0565b90600052602060002090601f0160209004810192826106b357600085556106fa565b82601f106106cc57805160ff19168380011785556106fa565b828001600101855582156106fa579182015b828111156106f95782518255916020019190600101906106de565b5b509050610707919061076b565b5090565b82805482825590600052602060002090810192821561075a579160200282015b82811115610759578251829080519060200190610749929190610685565b509160200191906001019061072b565b5b5090506107679190610788565b5090565b5b8082111561078457600081600090555060010161076c565b5090565b5b808211156107a8576000818161079f91906107ac565b50600101610789565b5090565b5080546107b8906110a0565b6000825580601f106107ca57506107e9565b601f0160209004906000526020600020908101906107e8919061076b565b5b50565b60006107ff6107fa84610f6d565b610f3c565b9050808382526020820190508260005b8581101561083f578135850161082588826108b1565b84526020840193506020830192505060018101905061080f565b5050509392505050565b600061085c61085784610f99565b610f3c565b90508281526020810184848401111561087457600080fd5b61087f84828561105e565b509392505050565b600082601f83011261089857600080fd5b81356108a88482602086016107ec565b91505092915050565b600082601f8301126108c257600080fd5b81356108d2848260208601610849565b91505092915050565b6000813590506108ea816111fc565b92915050565b60008060008060008060008060006101208a8c03121561090f57600080fd5b60008a013567ffffffffffffffff81111561092957600080fd5b6109358c828d016108b1565b99505060206109468c828d016108db565b98505060406109578c828d016108db565b97505060606109688c828d016108db565b96505060806109798c828d016108db565b95505060a061098a8c828d016108db565b94505060c08a013567ffffffffffffffff8111156109a757600080fd5b6109b38c828d01610887565b93505060e08a013567ffffffffffffffff8111156109d057600080fd5b6109dc8c828d016108b1565b9250506101006109ee8c828d016108db565b9150509295985092959850929598565b600060208284031215610a1057600080fd5b6000610a1e848285016108db565b91505092915050565b6000610a338383610abf565b905092915050565b6000610a4682610fd9565b610a508185610ffc565b935083602082028501610a6285610fc9565b8060005b85811015610a9e5784840389528151610a7f8582610a27565b9450610a8a83610fef565b925060208a01995050600181019050610a66565b50829750879550505050505092915050565b610ab98161104c565b82525050565b6000610aca82610fe4565b610ad4818561100d565b9350610ae481856020860161106d565b610aed816111d7565b840191505092915050565b6000610b0382610fe4565b610b0d818561101e565b9350610b1d81856020860161106d565b610b26816111d7565b840191505092915050565b6000610b3e602a8361101e565b91507f50726f64756374696f6e2064617465206d757374206265206265666f7265206560008301527f78706972652064617465000000000000000000000000000000000000000000006020830152604082019050919050565b6000610ba4601c8361101e565b91507f43657274696669636174652068617368206973207265717569726564000000006000830152602082019050919050565b6000610be460168361101e565b91507f4261746368206e616d65206973207265717569726564000000000000000000006000830152602082019050919050565b6000610c2460238361101e565b91507f4174206c65617374206f6e6520696d616765206861736820697320726571756960008301527f72656400000000000000000000000000000000000000000000000000000000006020830152604082019050919050565b6000610c8a60228361101e565b91507f5175616e74697479206d7573742062652067726561746572207468616e207a6560008301527f726f0000000000000000000000000000000000000000000000000000000000006020830152604082019050919050565b610cec81611042565b82525050565b60006020820190508181036000830152610d0b81610b31565b9050919050565b60006020820190508181036000830152610d2b81610b97565b9050919050565b60006020820190508181036000830152610d4b81610bd7565b9050919050565b60006020820190508181036000830152610d6b81610c17565b9050919050565b60006020820190508181036000830152610d8b81610c7d565b9050919050565b6000602082019050610da76000830184610ce3565b92915050565b600061018082019050610dc3600083018f610ce3565b8181036020830152610dd5818e610af8565b9050610de4604083018d610ce3565b610df1606083018c610ce3565b610dfe608083018b610ce3565b610e0b60a083018a610ce3565b610e1860c0830189610ce3565b610e2560e0830188610ab0565b610e33610100830187610ce3565b818103610120830152610e468186610af8565b9050818103610140830152610e5b8185610af8565b9050610e6b610160830184610ce3565b9d9c50505050505050505050505050565b600061016082019050610e92600083018e610ce3565b8181036020830152610ea4818d610af8565b9050610eb3604083018c610ce3565b610ec0606083018b610ce3565b610ecd608083018a610ce3565b610eda60a0830189610ce3565b610ee760c0830188610ce3565b610ef460e0830187610ce3565b818103610100830152610f078186610a3b565b9050818103610120830152610f1c8185610af8565b9050610f2c610140830184610ce3565b9c9b505050505050505050505050565b6000604051905081810181811067ffffffffffffffff82111715610f6357610f626111a8565b5b8060405250919050565b600067ffffffffffffffff821115610f8857610f876111a8565b5b602082029050602081019050919050565b600067ffffffffffffffff821115610fb457610fb36111a8565b5b601f19601f8301169050602081019050919050565b6000819050602082019050919050565b600081519050919050565b600081519050919050565b6000602082019050919050565b600082825260208201905092915050565b600082825260208201905092915050565b600082825260208201905092915050565b600081905061103d826111e8565b919050565b6000819050919050565b60006110578261102f565b9050919050565b82818337600083830152505050565b60005b8381101561108b578082015181840152602081019050611070565b8381111561109a576000848401525b50505050565b600060028204905060018216806110b857607f821691505b602082108114156110cc576110cb611179565b5b50919050565b60006110dd82611042565b91507fffffffffffffffffffffffffffffffffffffffffffffffffffffffffffffffff8214156111105761110f61111b565b5b600182019050919050565b7f4e487b7100000000000000000000000000000000000000000000000000000000600052601160045260246000fd5b7f4e487b7100000000000000000000000000000000000000000000000000000000600052602160045260246000fd5b7f4e487b7100000000000000000000000000000000000000000000000000000000600052602260045260246000fd5b7f4e487b7100000000000000000000000000000000000000000000000000000000600052604160045260246000fd5b6000601f19601f8301169050919050565b600481106111f9576111f861114a565b5b50565b61120581611042565b811461121057600080fd5b5056fea2646970667358221220f3ec44761e380935ffcb0dacf220a3dc0cbbae35f6a6552ca78fbf332020df6564736f6c63430008000033",
  "immutableReferences": {},
  "source": "// SPDX-License-Identifier: MIT\r\npragma solidity ^0.8.0;\r\n\r\ncontract SupplyChain {\r\n    enum BatchStatus { Created, PendingApproval, Approved, Rejected }\r\n\r\n    event BatchCreated(\r\n        uint batchId,\r\n        string batchName,\r\n        uint productId,\r\n        uint producerId,\r\n        uint quantity,\r\n        uint productionDate,\r\n        uint expireDate,\r\n        uint timestamp,\r\n        string[] imageHashes,\r\n        string certificateHash,\r\n        uint approverId\r\n    );\r\n\r\n    struct Batch {\r\n        uint batchId;\r\n        string batchName;\r\n        uint productId;\r\n        uint producerId;\r\n        uint quantity;\r\n        uint productionDate;\r\n        uint expireDate;\r\n        BatchStatus status;\r\n        uint timestamp;\r\n        string sscc;\r\n        string[] imageHashes;\r\n        string certificateHash;\r\n        uint approverId;\r\n    }\r\n\r\n    Batch[] public batches;\r\n    uint public nextBatchId;\r\n\r\n    function createBatch(\r\n        string memory _batchName,\r\n        uint _productId,\r\n        uint _producerId,\r\n        uint _quantity,\r\n        uint _productionDate,\r\n        uint _expireDate,\r\n        string[] memory _imageHashes,\r\n        string memory _certificateHash,\r\n        uint _approverId\r\n    ) public {\r\n        require(bytes(_batchName).length > 0, \"Batch name is required\");\r\n        require(_quantity > 0, \"Quantity must be greater than zero\");\r\n        require(_productionDate < _expireDate, \"Production date must be before expire date\");\r\n        require(_imageHashes.length > 0, \"At least one image hash is required\");\r\n        require(bytes(_certificateHash).length > 0, \"Certificate hash is required\");\r\n\r\n        batches.push(Batch({\r\n            batchId: nextBatchId,\r\n            batchName: _batchName,\r\n            productId: _productId,\r\n            producerId: _producerId,\r\n            quantity: _quantity,\r\n            productionDate: _productionDate,\r\n            expireDate: _expireDate,\r\n            status: BatchStatus.PendingApproval,\r\n            timestamp: block.timestamp,\r\n            sscc: \"\",\r\n            imageHashes: _imageHashes,\r\n            certificateHash: _certificateHash,\r\n            approverId: _approverId\r\n        }));\r\n\r\n        emit BatchCreated(\r\n            nextBatchId,\r\n            _batchName,\r\n            _productId,\r\n            _producerId,\r\n            _quantity,\r\n            _productionDate,\r\n            _expireDate,\r\n            block.timestamp,\r\n            _imageHashes,\r\n            _certificateHash,\r\n            _approverId\r\n        );\r\n\r\n        nextBatchId++;\r\n    }\r\n}",
  "sourcePath": "D:\\projects\\nckh-be\\blockchain\\contracts\\supplychain.sol",
  "compiler": {
    "name": "solc",
    "version": "0.8.0+commit.c7dfd78e.Emscripten.clang"
  },
  "schemaVersion": "3.4.16",
  "updatedAt": "2024-08-26T17:15:39.657Z",
  "devdoc": {
    "kind": "dev",
    "methods": {},
    "version": 1
  },
  "userdoc": {
    "kind": "user",
    "methods": {},
    "version": 1
  }
}