{
  "contractName": "SupplyChain",
  "abi": [
    {
      "anonymous": false,
      "inputs": [
        {
          "indexed": false,
          "internalType": "uint256",
          "name": "logId",
          "type": "uint256"
        },
        {
          "indexed": false,
          "internalType": "uint256",
          "name": "batchId",
          "type": "uint256"
        },
        {
          "indexed": false,
          "internalType": "uint256",
          "name": "userId",
          "type": "uint256"
        },
        {
          "indexed": false,
          "internalType": "string",
          "name": "activity",
          "type": "string"
        }
      ],
      "name": "ActivityLogged",
      "type": "event"
    },
    {
      "anonymous": false,
      "inputs": [
        {
          "indexed": false,
          "internalType": "uint256",
          "name": "batchId",
          "type": "uint256"
        },
        {
          "indexed": false,
          "internalType": "string",
          "name": "batchName",
          "type": "string"
        },
        {
          "indexed": false,
          "internalType": "uint256",
          "name": "productId",
          "type": "uint256"
        },
        {
          "indexed": false,
          "internalType": "uint256",
          "name": "producerId",
          "type": "uint256"
        },
        {
          "indexed": false,
          "internalType": "uint256",
          "name": "quantity",
          "type": "uint256"
        },
        {
          "indexed": false,
          "internalType": "uint256",
          "name": "productionDate",
          "type": "uint256"
        },
        {
          "indexed": false,
          "internalType": "uint256",
          "name": "expireDate",
          "type": "uint256"
        },
        {
          "indexed": false,
          "internalType": "uint256",
          "name": "timestamp",
          "type": "uint256"
        }
      ],
      "name": "BatchCreated",
      "type": "event"
    },
    {
      "anonymous": false,
      "inputs": [
        {
          "indexed": false,
          "internalType": "uint256",
          "name": "batchId",
          "type": "uint256"
        },
        {
          "indexed": false,
          "internalType": "enum SupplyChain.BatchStatus",
          "name": "status",
          "type": "uint8"
        }
      ],
      "name": "BatchStatusUpdated",
      "type": "event"
    },
    {
      "inputs": [
        {
          "internalType": "uint256",
          "name": "",
          "type": "uint256"
        },
        {
          "internalType": "uint256",
          "name": "",
          "type": "uint256"
        }
      ],
      "name": "activityLogs",
      "outputs": [
        {
          "internalType": "uint256",
          "name": "logId",
          "type": "uint256"
        },
        {
          "internalType": "uint256",
          "name": "batchId",
          "type": "uint256"
        },
        {
          "internalType": "uint256",
          "name": "userId",
          "type": "uint256"
        },
        {
          "internalType": "string",
          "name": "activity",
          "type": "string"
        },
        {
          "internalType": "uint256",
          "name": "timestamp",
          "type": "uint256"
        }
      ],
      "stateMutability": "view",
      "type": "function",
      "constant": true
    },
    {
      "inputs": [],
      "name": "batchCount",
      "outputs": [
        {
          "internalType": "uint256",
          "name": "",
          "type": "uint256"
        }
      ],
      "stateMutability": "view",
      "type": "function",
      "constant": true
    },
    {
      "inputs": [
        {
          "internalType": "uint256",
          "name": "",
          "type": "uint256"
        }
      ],
      "name": "batches",
      "outputs": [
        {
          "internalType": "uint256",
          "name": "batchId",
          "type": "uint256"
        },
        {
          "internalType": "string",
          "name": "batchName",
          "type": "string"
        },
        {
          "internalType": "uint256",
          "name": "productId",
          "type": "uint256"
        },
        {
          "internalType": "uint256",
          "name": "producerId",
          "type": "uint256"
        },
        {
          "internalType": "uint256",
          "name": "quantity",
          "type": "uint256"
        },
        {
          "internalType": "uint256",
          "name": "productionDate",
          "type": "uint256"
        },
        {
          "internalType": "uint256",
          "name": "expireDate",
          "type": "uint256"
        },
        {
          "internalType": "enum SupplyChain.BatchStatus",
          "name": "status",
          "type": "uint8"
        },
        {
          "internalType": "uint256",
          "name": "timestamp",
          "type": "uint256"
        }
      ],
      "stateMutability": "view",
      "type": "function",
      "constant": true
    },
    {
      "inputs": [],
      "name": "logCount",
      "outputs": [
        {
          "internalType": "uint256",
          "name": "",
          "type": "uint256"
        }
      ],
      "stateMutability": "view",
      "type": "function",
      "constant": true
    },
    {
      "inputs": [],
      "name": "nextBatchId",
      "outputs": [
        {
          "internalType": "uint256",
          "name": "",
          "type": "uint256"
        }
      ],
      "stateMutability": "view",
      "type": "function",
      "constant": true
    },
    {
      "inputs": [
        {
          "internalType": "string",
          "name": "_batchName",
          "type": "string"
        },
        {
          "internalType": "uint256",
          "name": "_productId",
          "type": "uint256"
        },
        {
          "internalType": "uint256",
          "name": "_producerId",
          "type": "uint256"
        },
        {
          "internalType": "uint256",
          "name": "_quantity",
          "type": "uint256"
        },
        {
          "internalType": "uint256",
          "name": "_productionDate",
          "type": "uint256"
        },
        {
          "internalType": "uint256",
          "name": "_expireDate",
          "type": "uint256"
        }
      ],
      "name": "createBatch",
      "outputs": [],
      "stateMutability": "nonpayable",
      "type": "function"
    },
    {
      "inputs": [
        {
          "internalType": "uint256",
          "name": "_batchId",
          "type": "uint256"
        }
      ],
      "name": "getBatch",
      "outputs": [
        {
          "internalType": "uint256",
          "name": "batchId",
          "type": "uint256"
        },
        {
          "internalType": "string",
          "name": "batchName",
          "type": "string"
        },
        {
          "internalType": "uint256",
          "name": "productId",
          "type": "uint256"
        },
        {
          "internalType": "uint256",
          "name": "producerId",
          "type": "uint256"
        },
        {
          "internalType": "uint256",
          "name": "quantity",
          "type": "uint256"
        },
        {
          "internalType": "uint256",
          "name": "productionDate",
          "type": "uint256"
        },
        {
          "internalType": "uint256",
          "name": "expireDate",
          "type": "uint256"
        },
        {
          "internalType": "enum SupplyChain.BatchStatus",
          "name": "status",
          "type": "uint8"
        },
        {
          "internalType": "uint256",
          "name": "timestamp",
          "type": "uint256"
        }
      ],
      "stateMutability": "view",
      "type": "function",
      "constant": true
    },
    {
      "inputs": [],
      "name": "getAllBatches",
      "outputs": [
        {
          "components": [
            {
              "internalType": "uint256",
              "name": "batchId",
              "type": "uint256"
            },
            {
              "internalType": "string",
              "name": "batchName",
              "type": "string"
            },
            {
              "internalType": "uint256",
              "name": "productId",
              "type": "uint256"
            },
            {
              "internalType": "uint256",
              "name": "producerId",
              "type": "uint256"
            },
            {
              "internalType": "uint256",
              "name": "quantity",
              "type": "uint256"
            },
            {
              "internalType": "uint256",
              "name": "productionDate",
              "type": "uint256"
            },
            {
              "internalType": "uint256",
              "name": "expireDate",
              "type": "uint256"
            },
            {
              "internalType": "enum SupplyChain.BatchStatus",
              "name": "status",
              "type": "uint8"
            },
            {
              "internalType": "uint256",
              "name": "timestamp",
              "type": "uint256"
            }
          ],
          "internalType": "struct SupplyChain.Batch[]",
          "name": "",
          "type": "tuple[]"
        }
      ],
      "stateMutability": "view",
      "type": "function",
      "constant": true
    },
    {
      "inputs": [
        {
          "internalType": "uint256",
          "name": "_batchId",
          "type": "uint256"
        },
        {
          "internalType": "uint256",
          "name": "_producerId",
          "type": "uint256"
        }
      ],
      "name": "requestApproval",
      "outputs": [],
      "stateMutability": "nonpayable",
      "type": "function"
    },
    {
      "inputs": [
        {
          "internalType": "uint256",
          "name": "_batchId",
          "type": "uint256"
        }
      ],
      "name": "approveBatch",
      "outputs": [],
      "stateMutability": "nonpayable",
      "type": "function"
    },
    {
      "inputs": [
        {
          "internalType": "uint256",
          "name": "_batchId",
          "type": "uint256"
        },
        {
          "internalType": "uint256",
          "name": "_userId",
          "type": "uint256"
        },
        {
          "internalType": "string",
          "name": "_activity",
          "type": "string"
        }
      ],
      "name": "logActivity",
      "outputs": [],
      "stateMutability": "nonpayable",
      "type": "function"
    },
    {
      "inputs": [
        {
          "internalType": "uint256",
          "name": "_batchId",
          "type": "uint256"
        }
      ],
      "name": "getActivityLogs",
      "outputs": [
        {
          "components": [
            {
              "internalType": "uint256",
              "name": "logId",
              "type": "uint256"
            },
            {
              "internalType": "uint256",
              "name": "batchId",
              "type": "uint256"
            },
            {
              "internalType": "uint256",
              "name": "userId",
              "type": "uint256"
            },
            {
              "internalType": "string",
              "name": "activity",
              "type": "string"
            },
            {
              "internalType": "uint256",
              "name": "timestamp",
              "type": "uint256"
            }
          ],
          "internalType": "struct SupplyChain.ActivityLog[]",
          "name": "",
          "type": "tuple[]"
        }
      ],
      "stateMutability": "view",
      "type": "function",
      "constant": true
    }
  ],
  "bytecode": "0x608060405234801561001057600080fd5b5061207c806100206000396000f3fe608060405234801561001057600080fd5b50600436106100b45760003560e01c8063ac4f663611610071578063ac4f663614610197578063b32c4d8d146101cb578063dd235d9d14610203578063e80e076b1461021f578063f0d7ea441461023d578063fb5c758f14610259576100b4565b806306f13056146100b95780630e6e369c146100d75780630fc38146146101075780635ac44282146101235780638462a7f81461015b578063a503898f14610179575b600080fd5b6100c1610275565b6040516100ce9190611b5f565b60405180910390f35b6100f160048036038101906100ec919061141c565b61027b565b6040516100fe9190611a3b565b60405180910390f35b610121600480360381019061011c919061137b565b6103a7565b005b61013d6004803603810190610138919061141c565b610639565b60405161015299989796959493929190611ba3565b60405180910390f35b6101636107be565b6040516101709190611b5f565b60405180910390f35b6101816107c4565b60405161018e9190611b5f565b60405180910390f35b6101b160048036038101906101ac9190611445565b6107ca565b6040516101c2959493929190611d08565b60405180910390f35b6101e560048036038101906101e0919061141c565b6108a5565b6040516101fa99989796959493929190611ba3565b60405180910390f35b61021d6004803603810190610218919061141c565b610998565b005b610227610c08565b6040516102349190611a5d565b60405180910390f35b61025760048036038101906102529190611481565b610dc7565b005b610273600480360381019061026e9190611445565b610f5d565b005b60035481565b606060026000838152602001908152602001600020805480602002602001604051908101604052809291908181526020016000905b8282101561039c57838290600052602060002090600502016040518060a001604052908160008201548152602001600182015481526020016002820154815260200160038201805461030190611ed3565b80601f016020809104026020016040519081016040528092919081815260200182805461032d90611ed3565b801561037a5780601f1061034f5761010080835404028352916020019161037a565b820191906000526020600020905b81548152906001019060200180831161035d57829003601f168201915b50505050508152602001600482015481525050815260200190600101906102b0565b505050509050919050565b60008651116103eb576040517f08c379a00000000000000000000000000000000000000000000000000000000081526004016103e290611aff565b60405180910390fd5b6000831161042e576040517f08c379a000000000000000000000000000000000000000000000000000000000815260040161042590611b3f565b60405180910390fd5b808210610470576040517f08c379a000000000000000000000000000000000000000000000000000000000815260040161046790611a9f565b60405180910390fd5b60006040518061012001604052806001548152602001888152602001878152602001868152602001858152602001848152602001838152602001600060038111156104e4577f4e487b7100000000000000000000000000000000000000000000000000000000600052602160045260246000fd5b815260200142815250908060018154018082558091505060019003906000526020600020906009020160009091909190915060008201518160000155602082015181600101908051906020019061053c92919061125b565b5060408201518160020155606082015181600301556080820151816004015560a0820151816005015560c0820151816006015560e08201518160070160006101000a81548160ff021916908360038111156105c0577f4e487b7100000000000000000000000000000000000000000000000000000000600052602160045260246000fd5b0217905550610100820151816008015550507f7799f15f075ce8559b4111c70bd9522f0d91cb9074c129eb420d588a7b02538860015487878787878742604051610611989796959493929190611c37565b60405180910390a16001600081548092919061062c90611f05565b9190505550505050505050565b60006060600080600080600080600080805490508a1061068e576040517f08c379a000000000000000000000000000000000000000000000000000000000815260040161068590611a7f565b60405180910390fd5b6000808b815481106106c9577f4e487b7100000000000000000000000000000000000000000000000000000000600052603260045260246000fd5b90600052602060002090600902019050806000015481600101826002015483600301548460040154856005015486600601548760070160009054906101000a900460ff16886008015487805461071e90611ed3565b80601f016020809104026020016040519081016040528092919081815260200182805461074a90611ed3565b80156107975780601f1061076c57610100808354040283529160200191610797565b820191906000526020600020905b81548152906001019060200180831161077a57829003601f168201915b50505050509750995099509950995099509950995099509950509193959799909294969850565b60015481565b60045481565b600260205281600052604060002081815481106107e657600080fd5b90600052602060002090600502016000915091505080600001549080600101549080600201549080600301805461081c90611ed3565b80601f016020809104026020016040519081016040528092919081815260200182805461084890611ed3565b80156108955780601f1061086a57610100808354040283529160200191610895565b820191906000526020600020905b81548152906001019060200180831161087857829003601f168201915b5050505050908060040154905085565b600081815481106108b557600080fd5b90600052602060002090600902016000915090508060000154908060010180546108de90611ed3565b80601f016020809104026020016040519081016040528092919081815260200182805461090a90611ed3565b80156109575780601f1061092c57610100808354040283529160200191610957565b820191906000526020600020905b81548152906001019060200180831161093a57829003601f168201915b5050505050908060020154908060030154908060040154908060050154908060060154908060070160009054906101000a900460ff16908060080154905089565b60008082815481106109d3577f4e487b7100000000000000000000000000000000000000000000000000000000600052603260045260246000fd5b9060005260206000209060090201600001541415610a26576040517f08c379a0000000000000000000000000000000000000000000000000000000008152600401610a1d90611a7f565b60405180910390fd5b60016003811115610a60577f4e487b7100000000000000000000000000000000000000000000000000000000600052602160045260246000fd5b60008281548110610a9a577f4e487b7100000000000000000000000000000000000000000000000000000000600052603260045260246000fd5b906000526020600020906009020160070160009054906101000a900460ff166003811115610af1577f4e487b7100000000000000000000000000000000000000000000000000000000600052602160045260246000fd5b14610b31576040517f08c379a0000000000000000000000000000000000000000000000000000000008152600401610b2890611abf565b60405180910390fd5b600260008281548110610b6d577f4e487b7100000000000000000000000000000000000000000000000000000000600052603260045260246000fd5b906000526020600020906009020160070160006101000a81548160ff02191690836003811115610bc6577f4e487b7100000000000000000000000000000000000000000000000000000000600052602160045260246000fd5b02179055507fcf4d4f3dcd5294f4d19269f489155c2187699f4a9fb9004b6a303752b00b282f816002604051610bfd929190611b7a565b60405180910390a150565b60606000805480602002602001604051908101604052809291908181526020016000905b82821015610dbe57838290600052602060002090600902016040518061012001604052908160008201548152602001600182018054610c6a90611ed3565b80601f0160208091040260200160405190810160405280929190818152602001828054610c9690611ed3565b8015610ce35780601f10610cb857610100808354040283529160200191610ce3565b820191906000526020600020905b815481529060010190602001808311610cc657829003601f168201915b5050505050815260200160028201548152602001600382015481526020016004820154815260200160058201548152602001600682015481526020016007820160009054906101000a900460ff166003811115610d69577f4e487b7100000000000000000000000000000000000000000000000000000000600052602160045260246000fd5b6003811115610da1577f4e487b7100000000000000000000000000000000000000000000000000000000600052602160045260246000fd5b815260200160088201548152505081526020019060010190610c2c565b50505050905090565b6000808481548110610e02577f4e487b7100000000000000000000000000000000000000000000000000000000600052603260045260246000fd5b9060005260206000209060090201600001541415610e55576040517f08c379a0000000000000000000000000000000000000000000000000000000008152600401610e4c90611a7f565b60405180910390fd5b60046000815480929190610e6890611f05565b9190505550600260008481526020019081526020016000206040518060a0016040528060045481526020018581526020018481526020018381526020014281525090806001815401808255809150506001900390600052602060002090600502016000909190919091506000820151816000015560208201518160010155604082015181600201556060820151816003019080519060200190610f0c92919061125b565b506080820151816004015550507f570464a0fb254f26d8bab973a23eb93f05447a89802b14cf9b7f8350c8a53663600454848484604051610f509493929190611cbc565b60405180910390a1505050565b6000808381548110610f98577f4e487b7100000000000000000000000000000000000000000000000000000000600052603260045260246000fd5b9060005260206000209060090201600001541415610feb576040517f08c379a0000000000000000000000000000000000000000000000000000000008152600401610fe290611a7f565b60405180910390fd5b8060008381548110611026577f4e487b7100000000000000000000000000000000000000000000000000000000600052603260045260246000fd5b90600052602060002090600902016003015414611078576040517f08c379a000000000000000000000000000000000000000000000000000000000815260040161106f90611adf565b60405180910390fd5b600060038111156110b2577f4e487b7100000000000000000000000000000000000000000000000000000000600052602160045260246000fd5b600083815481106110ec577f4e487b7100000000000000000000000000000000000000000000000000000000600052603260045260246000fd5b906000526020600020906009020160070160009054906101000a900460ff166003811115611143577f4e487b7100000000000000000000000000000000000000000000000000000000600052602160045260246000fd5b14611183576040517f08c379a000000000000000000000000000000000000000000000000000000000815260040161117a90611b1f565b60405180910390fd5b6001600083815481106111bf577f4e487b7100000000000000000000000000000000000000000000000000000000600052603260045260246000fd5b906000526020600020906009020160070160006101000a81548160ff02191690836003811115611218577f4e487b7100000000000000000000000000000000000000000000000000000000600052602160045260246000fd5b02179055507fcf4d4f3dcd5294f4d19269f489155c2187699f4a9fb9004b6a303752b00b282f82600160405161124f929190611b7a565b60405180910390a15050565b82805461126790611ed3565b90600052602060002090601f01602090048101928261128957600085556112d0565b82601f106112a257805160ff19168380011785556112d0565b828001600101855582156112d0579182015b828111156112cf5782518255916020019190600101906112b4565b5b5090506112dd91906112e1565b5090565b5b808211156112fa5760008160009055506001016112e2565b5090565b600061131161130c84611d93565b611d62565b90508281526020810184848401111561132957600080fd5b611334848285611e91565b509392505050565b600082601f83011261134d57600080fd5b813561135d8482602086016112fe565b91505092915050565b6000813590506113758161202f565b92915050565b60008060008060008060c0878903121561139457600080fd5b600087013567ffffffffffffffff8111156113ae57600080fd5b6113ba89828a0161133c565b96505060206113cb89828a01611366565b95505060406113dc89828a01611366565b94505060606113ed89828a01611366565b93505060806113fe89828a01611366565b92505060a061140f89828a01611366565b9150509295509295509295565b60006020828403121561142e57600080fd5b600061143c84828501611366565b91505092915050565b6000806040838503121561145857600080fd5b600061146685828601611366565b925050602061147785828601611366565b9150509250929050565b60008060006060848603121561149657600080fd5b60006114a486828701611366565b93505060206114b586828701611366565b925050604084013567ffffffffffffffff8111156114d257600080fd5b6114de8682870161133c565b9150509250925092565b60006114f483836118e2565b905092915050565b60006115088383611958565b905092915050565b600061151b82611de3565b6115258185611e1e565b93508360208202850161153785611dc3565b8060005b85811015611573578484038952815161155485826114e8565b945061155f83611e04565b925060208a0199505060018101905061153b565b50829750879550505050505092915050565b600061159082611dee565b61159a8185611e2f565b9350836020820285016115ac85611dd3565b8060005b858110156115e857848403895281516115c985826114fc565b94506115d483611e11565b925060208a019950506001810190506115b0565b50829750879550505050505092915050565b61160381611e7f565b82525050565b61161281611e7f565b82525050565b600061162382611df9565b61162d8185611e40565b935061163d818560208601611ea0565b6116468161200a565b840191505092915050565b600061165c82611df9565b6116668185611e51565b9350611676818560208601611ea0565b61167f8161200a565b840191505092915050565b6000611697601483611e51565b91507f426174636820646f6573206e6f742065786973740000000000000000000000006000830152602082019050919050565b60006116d7602a83611e51565b91507f50726f64756374696f6e2064617465206d757374206265206265666f7265206560008301527f78706972652064617465000000000000000000000000000000000000000000006020830152604082019050919050565b600061173d602783611e51565b91507f4261746368206973206e6f7420696e2050656e64696e6720417070726f76616c60008301527f20737461747573000000000000000000000000000000000000000000000000006020830152604082019050919050565b60006117a3602683611e51565b91507f4f6e6c79207468652070726f64756365722063616e207265717565737420617060008301527f70726f76616c00000000000000000000000000000000000000000000000000006020830152604082019050919050565b6000611809601683611e51565b91507f4261746368206e616d65206973207265717569726564000000000000000000006000830152602082019050919050565b6000611849601e83611e51565b91507f4261746368206973206e6f7420696e20437265617465642073746174757300006000830152602082019050919050565b6000611889602283611e51565b91507f5175616e74697479206d7573742062652067726561746572207468616e207a6560008301527f726f0000000000000000000000000000000000000000000000000000000000006020830152604082019050919050565b600060a0830160008301516118fa6000860182611a1d565b50602083015161190d6020860182611a1d565b5060408301516119206040860182611a1d565b50606083015184820360608601526119388282611618565b915050608083015161194d6080860182611a1d565b508091505092915050565b6000610120830160008301516119716000860182611a1d565b50602083015184820360208601526119898282611618565b915050604083015161199e6040860182611a1d565b5060608301516119b16060860182611a1d565b5060808301516119c46080860182611a1d565b5060a08301516119d760a0860182611a1d565b5060c08301516119ea60c0860182611a1d565b5060e08301516119fd60e08601826115fa565b50610100830151611a12610100860182611a1d565b508091505092915050565b611a2681611e75565b82525050565b611a3581611e75565b82525050565b60006020820190508181036000830152611a558184611510565b905092915050565b60006020820190508181036000830152611a778184611585565b905092915050565b60006020820190508181036000830152611a988161168a565b9050919050565b60006020820190508181036000830152611ab8816116ca565b9050919050565b60006020820190508181036000830152611ad881611730565b9050919050565b60006020820190508181036000830152611af881611796565b9050919050565b60006020820190508181036000830152611b18816117fc565b9050919050565b60006020820190508181036000830152611b388161183c565b9050919050565b60006020820190508181036000830152611b588161187c565b9050919050565b6000602082019050611b746000830184611a2c565b92915050565b6000604082019050611b8f6000830185611a2c565b611b9c6020830184611609565b9392505050565b600061012082019050611bb9600083018c611a2c565b8181036020830152611bcb818b611651565b9050611bda604083018a611a2c565b611be76060830189611a2c565b611bf46080830188611a2c565b611c0160a0830187611a2c565b611c0e60c0830186611a2c565b611c1b60e0830185611609565b611c29610100830184611a2c565b9a9950505050505050505050565b600061010082019050611c4d600083018b611a2c565b8181036020830152611c5f818a611651565b9050611c6e6040830189611a2c565b611c7b6060830188611a2c565b611c886080830187611a2c565b611c9560a0830186611a2c565b611ca260c0830185611a2c565b611caf60e0830184611a2c565b9998505050505050505050565b6000608082019050611cd16000830187611a2c565b611cde6020830186611a2c565b611ceb6040830185611a2c565b8181036060830152611cfd8184611651565b905095945050505050565b600060a082019050611d1d6000830188611a2c565b611d2a6020830187611a2c565b611d376040830186611a2c565b8181036060830152611d498185611651565b9050611d586080830184611a2c565b9695505050505050565b6000604051905081810181811067ffffffffffffffff82111715611d8957611d88611fdb565b5b8060405250919050565b600067ffffffffffffffff821115611dae57611dad611fdb565b5b601f19601f8301169050602081019050919050565b6000819050602082019050919050565b6000819050602082019050919050565b600081519050919050565b600081519050919050565b600081519050919050565b6000602082019050919050565b6000602082019050919050565b600082825260208201905092915050565b600082825260208201905092915050565b600082825260208201905092915050565b600082825260208201905092915050565b6000819050611e708261201b565b919050565b6000819050919050565b6000611e8a82611e62565b9050919050565b82818337600083830152505050565b60005b83811015611ebe578082015181840152602081019050611ea3565b83811115611ecd576000848401525b50505050565b60006002820490506001821680611eeb57607f821691505b60208210811415611eff57611efe611fac565b5b50919050565b6000611f1082611e75565b91507fffffffffffffffffffffffffffffffffffffffffffffffffffffffffffffffff821415611f4357611f42611f4e565b5b600182019050919050565b7f4e487b7100000000000000000000000000000000000000000000000000000000600052601160045260246000fd5b7f4e487b7100000000000000000000000000000000000000000000000000000000600052602160045260246000fd5b7f4e487b7100000000000000000000000000000000000000000000000000000000600052602260045260246000fd5b7f4e487b7100000000000000000000000000000000000000000000000000000000600052604160045260246000fd5b6000601f19601f8301169050919050565b6004811061202c5761202b611f7d565b5b50565b61203881611e75565b811461204357600080fd5b5056fea26469706673582212203f748e46e8a72ce764ee298767d211eb88ff5b43a048f3cd3f581c488c5a7e3064736f6c63430008000033",
  "immutableReferences": {},
  "source": "// SPDX-License-Identifier: MIT\r\npragma solidity ^0.8.0;\r\n\r\ncontract SupplyChain {\r\n    //\r\n    enum BatchStatus { Created, PendingApproval, Approved, Rejected }\r\n    // to s kin  thng bo khi mt batch mi c to\r\n    event BatchCreated(\r\n        uint batchId,\r\n        string batchName,\r\n        uint productId, \r\n        uint producerId, \r\n        uint quantity, \r\n        uint productionDate,\r\n        uint expireDate, \r\n        uint timestamp\r\n           );\r\n\r\n     struct Batch {\r\n        uint batchId;\r\n        string batchName;\r\n        uint productId;\r\n        uint producerId;\r\n        uint quantity;\r\n        uint productionDate;\r\n        uint expireDate;\r\n        BatchStatus status;\r\n        uint timestamp;\r\n    }\r\n\r\n\r\n    struct ActivityLog {\r\n        uint logId;\r\n        uint batchId;\r\n        uint userId; // ID ca ngi dng t bng users\r\n        string activity;\r\n        uint timestamp;\r\n    }\r\n    // dng  lu tr thng tin ca cc batch\r\n    Batch[] public batches;\r\n    uint public nextBatchId;\r\n    // dng  lu tr thng tin ca cc activity log\r\n    mapping(uint => ActivityLog[]) public activityLogs;\r\n\r\n    uint public batchCount;\r\n    uint public logCount;\r\n    // to s kin khi mt batch mi c to, cp nht trng thi ca batch, v khi mt activity log mi c to    event BatchCreated(uint batchId, string batchName, uint productId, uint producerId, uint timestamp);\r\n\r\n    event BatchStatusUpdated(uint batchId, BatchStatus status);\r\n    event ActivityLogged(uint logId, uint batchId, uint userId, string activity);\r\n\r\n    function createBatch(\r\n        string memory _batchName,\r\n        uint _productId,\r\n        uint _producerId,\r\n        uint _quantity,\r\n        uint _productionDate,\r\n        uint _expireDate\r\n    ) public {\r\n        // Kim tra d liu u vo\r\n        require(bytes(_batchName).length > 0, \"Batch name is required\");\r\n        require(_quantity > 0, \"Quantity must be greater than zero\");\r\n        require(_productionDate < _expireDate, \"Production date must be before expire date\");\r\n\r\n        // To l hng mi\r\n        batches.push(Batch({\r\n            batchId: nextBatchId,\r\n            batchName: _batchName,\r\n            productId: _productId,\r\n            producerId: _producerId,\r\n            quantity: _quantity,\r\n            productionDate: _productionDate,\r\n            expireDate: _expireDate,\r\n            status: BatchStatus.Created,\r\n            timestamp: block.timestamp\r\n        }));\r\n\r\n        // Kch hot s kin\r\n        emit BatchCreated(\r\n            nextBatchId,\r\n            _batchName,\r\n            _productId,\r\n            _producerId,\r\n            _quantity,\r\n            _productionDate,\r\n            _expireDate,\r\n            block.timestamp\r\n        );\r\n\r\n        // Tng gi tr batchId cho l hng tip theo\r\n        nextBatchId++;\r\n    }\r\n        // Hm  ly thng tin ca mt l hng da trn batchId\r\n    function getBatch(uint _batchId) public view returns (\r\n        uint batchId,\r\n        string memory batchName,\r\n        uint productId,\r\n        uint producerId,\r\n        uint quantity,\r\n        uint productionDate,\r\n        uint expireDate,\r\n        BatchStatus status,\r\n        uint timestamp\r\n    ) {\r\n        require(_batchId < batches.length, \"Batch does not exist\");\r\n        Batch storage batch = batches[_batchId];\r\n        return (\r\n            batch.batchId,\r\n            batch.batchName,\r\n            batch.productId,\r\n            batch.producerId,\r\n            batch.quantity,\r\n            batch.productionDate,\r\n            batch.expireDate,\r\n            batch.status,\r\n            batch.timestamp\r\n        );\r\n    }\r\n\r\n    // Hm  ly danh sch tt c cc l hng\r\n    function getAllBatches() public view returns (Batch[] memory) {\r\n        return batches;\r\n    }\r\n\r\n    function requestApproval(uint _batchId, uint _producerId) public {\r\n        require(batches[_batchId].batchId != 0, \"Batch does not exist\");\r\n        require(batches[_batchId].producerId == _producerId, \"Only the producer can request approval\");\r\n        require(batches[_batchId].status == BatchStatus.Created, \"Batch is not in Created status\");\r\n        batches[_batchId].status = BatchStatus.PendingApproval;\r\n        emit BatchStatusUpdated(_batchId, BatchStatus.PendingApproval);\r\n    }\r\n\r\n    function approveBatch(uint _batchId) public {\r\n        require(batches[_batchId].batchId != 0, \"Batch does not exist\");\r\n        require(batches[_batchId].status == BatchStatus.PendingApproval, \"Batch is not in Pending Approval status\");\r\n        batches[_batchId].status = BatchStatus.Approved;\r\n        emit BatchStatusUpdated(_batchId, BatchStatus.Approved);\r\n    }\r\n\r\n    function logActivity(uint _batchId, uint _userId, string memory _activity) public {\r\n        require(batches[_batchId].batchId != 0, \"Batch does not exist\");\r\n        logCount++;\r\n        activityLogs[_batchId].push(ActivityLog(logCount, _batchId, _userId, _activity, block.timestamp));\r\n        emit ActivityLogged(logCount, _batchId, _userId, _activity);\r\n    }\r\n\r\n    function getActivityLogs(uint _batchId) public view returns (ActivityLog[] memory) {\r\n        return activityLogs[_batchId];\r\n    }\r\n}",
  "sourcePath": "D:\\projects\\nckh-be\\blockchain\\contracts\\supplychain.sol",
  "compiler": {
    "name": "solc",
    "version": "0.8.0+commit.c7dfd78e.Emscripten.clang"
  },
  "schemaVersion": "3.4.16",
  "updatedAt": "2024-08-23T14:40:26.341Z",
  "networkType": "ethereum",
  "devdoc": {
    "kind": "dev",
    "methods": {},
    "version": 1
  },
  "userdoc": {
    "kind": "user",
    "methods": {},
    "version": 1
  }
}