{
  "contractName": "SupplyChain",
  "abi": [
    {
      "anonymous": false,
      "inputs": [
        {
          "indexed": false,
          "internalType": "uint256",
          "name": "logId",
          "type": "uint256"
        },
        {
          "indexed": false,
          "internalType": "uint256",
          "name": "batchId",
          "type": "uint256"
        },
        {
          "indexed": false,
          "internalType": "uint256",
          "name": "userId",
          "type": "uint256"
        },
        {
          "indexed": false,
          "internalType": "string",
          "name": "activity",
          "type": "string"
        }
      ],
      "name": "ActivityLogged",
      "type": "event"
    },
    {
      "anonymous": false,
      "inputs": [
        {
          "indexed": false,
          "internalType": "uint256",
          "name": "batchId",
          "type": "uint256"
        },
        {
          "indexed": false,
          "internalType": "string",
          "name": "batchName",
          "type": "string"
        },
        {
          "indexed": false,
          "internalType": "uint256",
          "name": "productId",
          "type": "uint256"
        },
        {
          "indexed": false,
          "internalType": "uint256",
          "name": "producerId",
          "type": "uint256"
        },
        {
          "indexed": false,
          "internalType": "uint256",
          "name": "quantity",
          "type": "uint256"
        },
        {
          "indexed": false,
          "internalType": "uint256",
          "name": "productionDate",
          "type": "uint256"
        },
        {
          "indexed": false,
          "internalType": "uint256",
          "name": "expireDate",
          "type": "uint256"
        },
        {
          "indexed": false,
          "internalType": "uint256",
          "name": "timestamp",
          "type": "uint256"
        }
      ],
      "name": "BatchCreated",
      "type": "event"
    },
    {
      "anonymous": false,
      "inputs": [
        {
          "indexed": false,
          "internalType": "uint256",
          "name": "batchId",
          "type": "uint256"
        },
        {
          "indexed": false,
          "internalType": "enum SupplyChain.BatchStatus",
          "name": "status",
          "type": "uint8"
        }
      ],
      "name": "BatchStatusUpdated",
      "type": "event"
    },
    {
      "inputs": [
        {
          "internalType": "uint256",
          "name": "",
          "type": "uint256"
        },
        {
          "internalType": "uint256",
          "name": "",
          "type": "uint256"
        }
      ],
      "name": "activityLogs",
      "outputs": [
        {
          "internalType": "uint256",
          "name": "logId",
          "type": "uint256"
        },
        {
          "internalType": "uint256",
          "name": "batchId",
          "type": "uint256"
        },
        {
          "internalType": "uint256",
          "name": "userId",
          "type": "uint256"
        },
        {
          "internalType": "string",
          "name": "activity",
          "type": "string"
        },
        {
          "internalType": "uint256",
          "name": "timestamp",
          "type": "uint256"
        }
      ],
      "stateMutability": "view",
      "type": "function",
      "constant": true
    },
    {
      "inputs": [],
      "name": "batchCount",
      "outputs": [
        {
          "internalType": "uint256",
          "name": "",
          "type": "uint256"
        }
      ],
      "stateMutability": "view",
      "type": "function",
      "constant": true
    },
    {
      "inputs": [
        {
          "internalType": "uint256",
          "name": "",
          "type": "uint256"
        }
      ],
      "name": "batches",
      "outputs": [
        {
          "internalType": "uint256",
          "name": "batchId",
          "type": "uint256"
        },
        {
          "internalType": "string",
          "name": "batchName",
          "type": "string"
        },
        {
          "internalType": "uint256",
          "name": "productId",
          "type": "uint256"
        },
        {
          "internalType": "uint256",
          "name": "producerId",
          "type": "uint256"
        },
        {
          "internalType": "uint256",
          "name": "quantity",
          "type": "uint256"
        },
        {
          "internalType": "uint256",
          "name": "productionDate",
          "type": "uint256"
        },
        {
          "internalType": "uint256",
          "name": "expireDate",
          "type": "uint256"
        },
        {
          "internalType": "enum SupplyChain.BatchStatus",
          "name": "status",
          "type": "uint8"
        },
        {
          "internalType": "uint256",
          "name": "timestamp",
          "type": "uint256"
        }
      ],
      "stateMutability": "view",
      "type": "function",
      "constant": true
    },
    {
      "inputs": [],
      "name": "logCount",
      "outputs": [
        {
          "internalType": "uint256",
          "name": "",
          "type": "uint256"
        }
      ],
      "stateMutability": "view",
      "type": "function",
      "constant": true
    },
    {
      "inputs": [],
      "name": "nextBatchId",
      "outputs": [
        {
          "internalType": "uint256",
          "name": "",
          "type": "uint256"
        }
      ],
      "stateMutability": "view",
      "type": "function",
      "constant": true
    },
    {
      "inputs": [
        {
          "internalType": "string",
          "name": "_batchName",
          "type": "string"
        },
        {
          "internalType": "uint256",
          "name": "_productId",
          "type": "uint256"
        },
        {
          "internalType": "uint256",
          "name": "_producerId",
          "type": "uint256"
        },
        {
          "internalType": "uint256",
          "name": "_quantity",
          "type": "uint256"
        },
        {
          "internalType": "uint256",
          "name": "_productionDate",
          "type": "uint256"
        },
        {
          "internalType": "uint256",
          "name": "_expireDate",
          "type": "uint256"
        }
      ],
      "name": "createBatch",
      "outputs": [],
      "stateMutability": "nonpayable",
      "type": "function"
    },
    {
      "inputs": [
        {
          "internalType": "uint256",
          "name": "_batchId",
          "type": "uint256"
        },
        {
          "internalType": "uint256",
          "name": "_producerId",
          "type": "uint256"
        }
      ],
      "name": "requestApproval",
      "outputs": [],
      "stateMutability": "nonpayable",
      "type": "function"
    },
    {
      "inputs": [
        {
          "internalType": "uint256",
          "name": "_batchId",
          "type": "uint256"
        }
      ],
      "name": "approveBatch",
      "outputs": [],
      "stateMutability": "nonpayable",
      "type": "function"
    },
    {
      "inputs": [
        {
          "internalType": "uint256",
          "name": "_batchId",
          "type": "uint256"
        },
        {
          "internalType": "uint256",
          "name": "_userId",
          "type": "uint256"
        },
        {
          "internalType": "string",
          "name": "_activity",
          "type": "string"
        }
      ],
      "name": "logActivity",
      "outputs": [],
      "stateMutability": "nonpayable",
      "type": "function"
    },
    {
      "inputs": [
        {
          "internalType": "uint256",
          "name": "_batchId",
          "type": "uint256"
        }
      ],
      "name": "getActivityLogs",
      "outputs": [
        {
          "components": [
            {
              "internalType": "uint256",
              "name": "logId",
              "type": "uint256"
            },
            {
              "internalType": "uint256",
              "name": "batchId",
              "type": "uint256"
            },
            {
              "internalType": "uint256",
              "name": "userId",
              "type": "uint256"
            },
            {
              "internalType": "string",
              "name": "activity",
              "type": "string"
            },
            {
              "internalType": "uint256",
              "name": "timestamp",
              "type": "uint256"
            }
          ],
          "internalType": "struct SupplyChain.ActivityLog[]",
          "name": "",
          "type": "tuple[]"
        }
      ],
      "stateMutability": "view",
      "type": "function",
      "constant": true
    }
  ],
  "bytecode": "0x608060405234801561001057600080fd5b50611b14806100206000396000f3fe608060405234801561001057600080fd5b506004361061009e5760003560e01c8063ac4f663611610066578063ac4f663614610149578063b32c4d8d1461017d578063dd235d9d146101b5578063f0d7ea44146101d1578063fb5c758f146101ed5761009e565b806306f13056146100a35780630e6e369c146100c15780630fc38146146100f15780638462a7f81461010d578063a503898f1461012b575b600080fd5b6100ab610209565b6040516100b89190611630565b60405180910390f35b6100db60048036038101906100d6919061106c565b61020f565b6040516100e8919061152e565b60405180910390f35b61010b60048036038101906101069190610fcb565b61033b565b005b6101156105cd565b6040516101229190611630565b60405180910390f35b6101336105d3565b6040516101409190611630565b60405180910390f35b610163600480360381019061015e9190611095565b6105d9565b6040516101749594939291906117d9565b60405180910390f35b6101976004803603810190610192919061106c565b6106b4565b6040516101ac99989796959493929190611674565b60405180910390f35b6101cf60048036038101906101ca919061106c565b6107a7565b005b6101eb60048036038101906101e691906110d1565b610a17565b005b61020760048036038101906102029190611095565b610bad565b005b60035481565b606060026000838152602001908152602001600020805480602002602001604051908101604052809291908181526020016000905b8282101561033057838290600052602060002090600502016040518060a00160405290816000820154815260200160018201548152602001600282015481526020016003820180546102959061196b565b80601f01602080910402602001604051908101604052809291908181526020018280546102c19061196b565b801561030e5780601f106102e35761010080835404028352916020019161030e565b820191906000526020600020905b8154815290600101906020018083116102f157829003601f168201915b5050505050815260200160048201548152505081526020019060010190610244565b505050509050919050565b600086511161037f576040517f08c379a0000000000000000000000000000000000000000000000000000000008152600401610376906115d0565b60405180910390fd5b600083116103c2576040517f08c379a00000000000000000000000000000000000000000000000000000000081526004016103b990611610565b60405180910390fd5b808210610404576040517f08c379a00000000000000000000000000000000000000000000000000000000081526004016103fb90611570565b60405180910390fd5b6000604051806101200160405280600154815260200188815260200187815260200186815260200185815260200184815260200183815260200160006003811115610478577f4e487b7100000000000000000000000000000000000000000000000000000000600052602160045260246000fd5b81526020014281525090806001815401808255809150506001900390600052602060002090600902016000909190919091506000820151816000015560208201518160010190805190602001906104d0929190610eab565b5060408201518160020155606082015181600301556080820151816004015560a0820151816005015560c0820151816006015560e08201518160070160006101000a81548160ff02191690836003811115610554577f4e487b7100000000000000000000000000000000000000000000000000000000600052602160045260246000fd5b0217905550610100820151816008015550507f7799f15f075ce8559b4111c70bd9522f0d91cb9074c129eb420d588a7b025388600154878787878787426040516105a5989796959493929190611708565b60405180910390a1600160008154809291906105c09061199d565b9190505550505050505050565b60015481565b60045481565b600260205281600052604060002081815481106105f557600080fd5b90600052602060002090600502016000915091505080600001549080600101549080600201549080600301805461062b9061196b565b80601f01602080910402602001604051908101604052809291908181526020018280546106579061196b565b80156106a45780601f10610679576101008083540402835291602001916106a4565b820191906000526020600020905b81548152906001019060200180831161068757829003601f168201915b5050505050908060040154905085565b600081815481106106c457600080fd5b90600052602060002090600902016000915090508060000154908060010180546106ed9061196b565b80601f01602080910402602001604051908101604052809291908181526020018280546107199061196b565b80156107665780601f1061073b57610100808354040283529160200191610766565b820191906000526020600020905b81548152906001019060200180831161074957829003601f168201915b5050505050908060020154908060030154908060040154908060050154908060060154908060070160009054906101000a900460ff16908060080154905089565b60008082815481106107e2577f4e487b7100000000000000000000000000000000000000000000000000000000600052603260045260246000fd5b9060005260206000209060090201600001541415610835576040517f08c379a000000000000000000000000000000000000000000000000000000000815260040161082c90611550565b60405180910390fd5b6001600381111561086f577f4e487b7100000000000000000000000000000000000000000000000000000000600052602160045260246000fd5b600082815481106108a9577f4e487b7100000000000000000000000000000000000000000000000000000000600052603260045260246000fd5b906000526020600020906009020160070160009054906101000a900460ff166003811115610900577f4e487b7100000000000000000000000000000000000000000000000000000000600052602160045260246000fd5b14610940576040517f08c379a000000000000000000000000000000000000000000000000000000000815260040161093790611590565b60405180910390fd5b60026000828154811061097c577f4e487b7100000000000000000000000000000000000000000000000000000000600052603260045260246000fd5b906000526020600020906009020160070160006101000a81548160ff021916908360038111156109d5577f4e487b7100000000000000000000000000000000000000000000000000000000600052602160045260246000fd5b02179055507fcf4d4f3dcd5294f4d19269f489155c2187699f4a9fb9004b6a303752b00b282f816002604051610a0c92919061164b565b60405180910390a150565b6000808481548110610a52577f4e487b7100000000000000000000000000000000000000000000000000000000600052603260045260246000fd5b9060005260206000209060090201600001541415610aa5576040517f08c379a0000000000000000000000000000000000000000000000000000000008152600401610a9c90611550565b60405180910390fd5b60046000815480929190610ab89061199d565b9190505550600260008481526020019081526020016000206040518060a0016040528060045481526020018581526020018481526020018381526020014281525090806001815401808255809150506001900390600052602060002090600502016000909190919091506000820151816000015560208201518160010155604082015181600201556060820151816003019080519060200190610b5c929190610eab565b506080820151816004015550507f570464a0fb254f26d8bab973a23eb93f05447a89802b14cf9b7f8350c8a53663600454848484604051610ba0949392919061178d565b60405180910390a1505050565b6000808381548110610be8577f4e487b7100000000000000000000000000000000000000000000000000000000600052603260045260246000fd5b9060005260206000209060090201600001541415610c3b576040517f08c379a0000000000000000000000000000000000000000000000000000000008152600401610c3290611550565b60405180910390fd5b8060008381548110610c76577f4e487b7100000000000000000000000000000000000000000000000000000000600052603260045260246000fd5b90600052602060002090600902016003015414610cc8576040517f08c379a0000000000000000000000000000000000000000000000000000000008152600401610cbf906115b0565b60405180910390fd5b60006003811115610d02577f4e487b7100000000000000000000000000000000000000000000000000000000600052602160045260246000fd5b60008381548110610d3c577f4e487b7100000000000000000000000000000000000000000000000000000000600052603260045260246000fd5b906000526020600020906009020160070160009054906101000a900460ff166003811115610d93577f4e487b7100000000000000000000000000000000000000000000000000000000600052602160045260246000fd5b14610dd3576040517f08c379a0000000000000000000000000000000000000000000000000000000008152600401610dca906115f0565b60405180910390fd5b600160008381548110610e0f577f4e487b7100000000000000000000000000000000000000000000000000000000600052603260045260246000fd5b906000526020600020906009020160070160006101000a81548160ff02191690836003811115610e68577f4e487b7100000000000000000000000000000000000000000000000000000000600052602160045260246000fd5b02179055507fcf4d4f3dcd5294f4d19269f489155c2187699f4a9fb9004b6a303752b00b282f826001604051610e9f92919061164b565b60405180910390a15050565b828054610eb79061196b565b90600052602060002090601f016020900481019282610ed95760008555610f20565b82601f10610ef257805160ff1916838001178555610f20565b82800160010185558215610f20579182015b82811115610f1f578251825591602001919060010190610f04565b5b509050610f2d9190610f31565b5090565b5b80821115610f4a576000816000905550600101610f32565b5090565b6000610f61610f5c84611864565b611833565b905082815260208101848484011115610f7957600080fd5b610f84848285611929565b509392505050565b600082601f830112610f9d57600080fd5b8135610fad848260208601610f4e565b91505092915050565b600081359050610fc581611ac7565b92915050565b60008060008060008060c08789031215610fe457600080fd5b600087013567ffffffffffffffff811115610ffe57600080fd5b61100a89828a01610f8c565b965050602061101b89828a01610fb6565b955050604061102c89828a01610fb6565b945050606061103d89828a01610fb6565b935050608061104e89828a01610fb6565b92505060a061105f89828a01610fb6565b9150509295509295509295565b60006020828403121561107e57600080fd5b600061108c84828501610fb6565b91505092915050565b600080604083850312156110a857600080fd5b60006110b685828601610fb6565b92505060206110c785828601610fb6565b9150509250929050565b6000806000606084860312156110e657600080fd5b60006110f486828701610fb6565b935050602061110586828701610fb6565b925050604084013567ffffffffffffffff81111561112257600080fd5b61112e86828701610f8c565b9150509250925092565b6000611144838361149a565b905092915050565b6000611157826118a4565b61116181856118c7565b93508360208202850161117385611894565b8060005b858110156111af57848403895281516111908582611138565b945061119b836118ba565b925060208a01995050600181019050611177565b50829750879550505050505092915050565b6111ca81611917565b82525050565b60006111db826118af565b6111e581856118d8565b93506111f5818560208601611938565b6111fe81611aa2565b840191505092915050565b6000611214826118af565b61121e81856118e9565b935061122e818560208601611938565b61123781611aa2565b840191505092915050565b600061124f6014836118e9565b91507f426174636820646f6573206e6f742065786973740000000000000000000000006000830152602082019050919050565b600061128f602a836118e9565b91507f50726f64756374696f6e2064617465206d757374206265206265666f7265206560008301527f78706972652064617465000000000000000000000000000000000000000000006020830152604082019050919050565b60006112f56027836118e9565b91507f4261746368206973206e6f7420696e2050656e64696e6720417070726f76616c60008301527f20737461747573000000000000000000000000000000000000000000000000006020830152604082019050919050565b600061135b6026836118e9565b91507f4f6e6c79207468652070726f64756365722063616e207265717565737420617060008301527f70726f76616c00000000000000000000000000000000000000000000000000006020830152604082019050919050565b60006113c16016836118e9565b91507f4261746368206e616d65206973207265717569726564000000000000000000006000830152602082019050919050565b6000611401601e836118e9565b91507f4261746368206973206e6f7420696e20437265617465642073746174757300006000830152602082019050919050565b60006114416022836118e9565b91507f5175616e74697479206d7573742062652067726561746572207468616e207a6560008301527f726f0000000000000000000000000000000000000000000000000000000000006020830152604082019050919050565b600060a0830160008301516114b26000860182611510565b5060208301516114c56020860182611510565b5060408301516114d86040860182611510565b50606083015184820360608601526114f082826111d0565b91505060808301516115056080860182611510565b508091505092915050565b6115198161190d565b82525050565b6115288161190d565b82525050565b60006020820190508181036000830152611548818461114c565b905092915050565b6000602082019050818103600083015261156981611242565b9050919050565b6000602082019050818103600083015261158981611282565b9050919050565b600060208201905081810360008301526115a9816112e8565b9050919050565b600060208201905081810360008301526115c98161134e565b9050919050565b600060208201905081810360008301526115e9816113b4565b9050919050565b60006020820190508181036000830152611609816113f4565b9050919050565b6000602082019050818103600083015261162981611434565b9050919050565b6000602082019050611645600083018461151f565b92915050565b6000604082019050611660600083018561151f565b61166d60208301846111c1565b9392505050565b60006101208201905061168a600083018c61151f565b818103602083015261169c818b611209565b90506116ab604083018a61151f565b6116b8606083018961151f565b6116c5608083018861151f565b6116d260a083018761151f565b6116df60c083018661151f565b6116ec60e08301856111c1565b6116fa61010083018461151f565b9a9950505050505050505050565b60006101008201905061171e600083018b61151f565b8181036020830152611730818a611209565b905061173f604083018961151f565b61174c606083018861151f565b611759608083018761151f565b61176660a083018661151f565b61177360c083018561151f565b61178060e083018461151f565b9998505050505050505050565b60006080820190506117a2600083018761151f565b6117af602083018661151f565b6117bc604083018561151f565b81810360608301526117ce8184611209565b905095945050505050565b600060a0820190506117ee600083018861151f565b6117fb602083018761151f565b611808604083018661151f565b818103606083015261181a8185611209565b9050611829608083018461151f565b9695505050505050565b6000604051905081810181811067ffffffffffffffff8211171561185a57611859611a73565b5b8060405250919050565b600067ffffffffffffffff82111561187f5761187e611a73565b5b601f19601f8301169050602081019050919050565b6000819050602082019050919050565b600081519050919050565b600081519050919050565b6000602082019050919050565b600082825260208201905092915050565b600082825260208201905092915050565b600082825260208201905092915050565b600081905061190882611ab3565b919050565b6000819050919050565b6000611922826118fa565b9050919050565b82818337600083830152505050565b60005b8381101561195657808201518184015260208101905061193b565b83811115611965576000848401525b50505050565b6000600282049050600182168061198357607f821691505b6020821081141561199757611996611a44565b5b50919050565b60006119a88261190d565b91507fffffffffffffffffffffffffffffffffffffffffffffffffffffffffffffffff8214156119db576119da6119e6565b5b600182019050919050565b7f4e487b7100000000000000000000000000000000000000000000000000000000600052601160045260246000fd5b7f4e487b7100000000000000000000000000000000000000000000000000000000600052602160045260246000fd5b7f4e487b7100000000000000000000000000000000000000000000000000000000600052602260045260246000fd5b7f4e487b7100000000000000000000000000000000000000000000000000000000600052604160045260246000fd5b6000601f19601f8301169050919050565b60048110611ac457611ac3611a15565b5b50565b611ad08161190d565b8114611adb57600080fd5b5056fea26469706673582212208dfcb924dd3dfed321901c40e8e40a9326382a62260fade5b9093eef64b044d164736f6c63430008000033",
  "immutableReferences": {},
  "source": "// SPDX-License-Identifier: MIT\r\npragma solidity ^0.8.0;\r\n\r\ncontract SupplyChain {\r\n    enum BatchStatus { Created, PendingApproval, Approved, Rejected }\r\n    event BatchCreated(\r\n        uint batchId,\r\n        string batchName,\r\n        uint productId, \r\n        uint producerId, \r\n        uint quantity, \r\n        uint productionDate,\r\n        uint expireDate, \r\n        uint timestamp\r\n           );\r\n\r\n     struct Batch {\r\n        uint batchId;\r\n        string batchName;\r\n        uint productId;\r\n        uint producerId;\r\n        uint quantity;\r\n        uint productionDate;\r\n        uint expireDate;\r\n        BatchStatus status;\r\n        uint timestamp;\r\n    }\r\n\r\n\r\n    struct ActivityLog {\r\n        uint logId;\r\n        uint batchId;\r\n        uint userId; // ID ca ngi dng t bng users\r\n        string activity;\r\n        uint timestamp;\r\n    }\r\n    // dng  lu tr thng tin ca cc batch\r\n    Batch[] public batches;\r\n    uint public nextBatchId;\r\n    // dng  lu tr thng tin ca cc activity log\r\n    mapping(uint => ActivityLog[]) public activityLogs;\r\n\r\n    uint public batchCount;\r\n    uint public logCount;\r\n    // to s kin khi mt batch mi c to, cp nht trng thi ca batch, v khi mt activity log mi c to    event BatchCreated(uint batchId, string batchName, uint productId, uint producerId, uint timestamp);\r\n\r\n    event BatchStatusUpdated(uint batchId, BatchStatus status);\r\n    event ActivityLogged(uint logId, uint batchId, uint userId, string activity);\r\n\r\n    function createBatch(\r\n        string memory _batchName,\r\n        uint _productId,\r\n        uint _producerId,\r\n        uint _quantity,\r\n        uint _productionDate,\r\n        uint _expireDate\r\n    ) public {\r\n        // Kim tra d liu u vo\r\n        require(bytes(_batchName).length > 0, \"Batch name is required\");\r\n        require(_quantity > 0, \"Quantity must be greater than zero\");\r\n        require(_productionDate < _expireDate, \"Production date must be before expire date\");\r\n\r\n        // To l hng mi\r\n        batches.push(Batch({\r\n            batchId: nextBatchId,\r\n            batchName: _batchName,\r\n            productId: _productId,\r\n            producerId: _producerId,\r\n            quantity: _quantity,\r\n            productionDate: _productionDate,\r\n            expireDate: _expireDate,\r\n            status: BatchStatus.Created,\r\n            timestamp: block.timestamp\r\n        }));\r\n\r\n        // Kch hot s kin\r\n        emit BatchCreated(\r\n            nextBatchId,\r\n            _batchName,\r\n            _productId,\r\n            _producerId,\r\n            _quantity,\r\n            _productionDate,\r\n            _expireDate,\r\n            block.timestamp\r\n        );\r\n\r\n        // Tng gi tr batchId cho l hng tip theo\r\n        nextBatchId++;\r\n    }\r\n\r\n    function requestApproval(uint _batchId, uint _producerId) public {\r\n        require(batches[_batchId].batchId != 0, \"Batch does not exist\");\r\n        require(batches[_batchId].producerId == _producerId, \"Only the producer can request approval\");\r\n        require(batches[_batchId].status == BatchStatus.Created, \"Batch is not in Created status\");\r\n        batches[_batchId].status = BatchStatus.PendingApproval;\r\n        emit BatchStatusUpdated(_batchId, BatchStatus.PendingApproval);\r\n    }\r\n\r\n    function approveBatch(uint _batchId) public {\r\n        require(batches[_batchId].batchId != 0, \"Batch does not exist\");\r\n        require(batches[_batchId].status == BatchStatus.PendingApproval, \"Batch is not in Pending Approval status\");\r\n        batches[_batchId].status = BatchStatus.Approved;\r\n        emit BatchStatusUpdated(_batchId, BatchStatus.Approved);\r\n    }\r\n\r\n    function logActivity(uint _batchId, uint _userId, string memory _activity) public {\r\n        require(batches[_batchId].batchId != 0, \"Batch does not exist\");\r\n        logCount++;\r\n        activityLogs[_batchId].push(ActivityLog(logCount, _batchId, _userId, _activity, block.timestamp));\r\n        emit ActivityLogged(logCount, _batchId, _userId, _activity);\r\n    }\r\n\r\n    function getActivityLogs(uint _batchId) public view returns (ActivityLog[] memory) {\r\n        return activityLogs[_batchId];\r\n    }\r\n}",
  "sourcePath": "D:\\projects\\nckh-be\\blockchain\\contracts\\supplychain.sol",
  "compiler": {
    "name": "solc",
    "version": "0.8.0+commit.c7dfd78e.Emscripten.clang"
  },
  "schemaVersion": "3.4.16",
  "updatedAt": "2024-08-23T00:13:21.583Z",
  "networkType": "ethereum",
  "devdoc": {
    "kind": "dev",
    "methods": {},
    "version": 1
  },
  "userdoc": {
    "kind": "user",
    "methods": {},
    "version": 1
  }
}