{
  "contractName": "SupplyChain",
  "abi": [
    {
      "inputs": [
        {
          "internalType": "address",
          "name": "_admin",
          "type": "address"
        }
      ],
      "stateMutability": "nonpayable",
      "type": "constructor"
    },
    {
      "anonymous": false,
      "inputs": [
        {
          "indexed": false,
          "internalType": "uint256",
          "name": "batchId",
          "type": "uint256"
        },
        {
          "indexed": false,
          "internalType": "string",
          "name": "sscc",
          "type": "string"
        }
      ],
      "name": "BatchApproved",
      "type": "event"
    },
    {
      "anonymous": false,
      "inputs": [
        {
          "indexed": false,
          "internalType": "uint256",
          "name": "batchId",
          "type": "uint256"
        },
        {
          "indexed": false,
          "internalType": "string",
          "name": "batchName",
          "type": "string"
        },
        {
          "indexed": false,
          "internalType": "uint256",
          "name": "productId",
          "type": "uint256"
        },
        {
          "indexed": false,
          "internalType": "uint256",
          "name": "producerId",
          "type": "uint256"
        },
        {
          "indexed": false,
          "internalType": "uint256",
          "name": "quantity",
          "type": "uint256"
        },
        {
          "indexed": false,
          "internalType": "uint256",
          "name": "productionDate",
          "type": "uint256"
        },
        {
          "indexed": false,
          "internalType": "uint256",
          "name": "expireDate",
          "type": "uint256"
        },
        {
          "indexed": false,
          "internalType": "uint256",
          "name": "timestamp",
          "type": "uint256"
        },
        {
          "indexed": false,
          "internalType": "string[]",
          "name": "imageHashes",
          "type": "string[]"
        },
        {
          "indexed": false,
          "internalType": "string",
          "name": "certificateImageHash",
          "type": "string"
        },
        {
          "indexed": false,
          "internalType": "uint256",
          "name": "approverId",
          "type": "uint256"
        }
      ],
      "name": "BatchCreated",
      "type": "event"
    },
    {
      "anonymous": false,
      "inputs": [
        {
          "indexed": false,
          "internalType": "uint256",
          "name": "batchId",
          "type": "uint256"
        }
      ],
      "name": "BatchRejected",
      "type": "event"
    },
    {
      "inputs": [],
      "name": "admin",
      "outputs": [
        {
          "internalType": "address",
          "name": "",
          "type": "address"
        }
      ],
      "stateMutability": "view",
      "type": "function",
      "constant": true
    },
    {
      "inputs": [
        {
          "internalType": "uint256",
          "name": "",
          "type": "uint256"
        }
      ],
      "name": "batches",
      "outputs": [
        {
          "internalType": "uint256",
          "name": "batchId",
          "type": "uint256"
        },
        {
          "internalType": "string",
          "name": "batchName",
          "type": "string"
        },
        {
          "internalType": "uint256",
          "name": "productId",
          "type": "uint256"
        },
        {
          "internalType": "uint256",
          "name": "producerId",
          "type": "uint256"
        },
        {
          "internalType": "uint256",
          "name": "quantity",
          "type": "uint256"
        },
        {
          "internalType": "uint256",
          "name": "productionDate",
          "type": "uint256"
        },
        {
          "internalType": "uint256",
          "name": "expireDate",
          "type": "uint256"
        },
        {
          "internalType": "enum SupplyChain.BatchStatus",
          "name": "status",
          "type": "uint8"
        },
        {
          "internalType": "uint256",
          "name": "timestamp",
          "type": "uint256"
        },
        {
          "internalType": "string",
          "name": "sscc",
          "type": "string"
        },
        {
          "internalType": "string",
          "name": "certificateImageHash",
          "type": "string"
        },
        {
          "internalType": "uint256",
          "name": "approverId",
          "type": "uint256"
        }
      ],
      "stateMutability": "view",
      "type": "function",
      "constant": true
    },
    {
      "inputs": [],
      "name": "nextBatchId",
      "outputs": [
        {
          "internalType": "uint256",
          "name": "",
          "type": "uint256"
        }
      ],
      "stateMutability": "view",
      "type": "function",
      "constant": true
    },
    {
      "inputs": [
        {
          "internalType": "string",
          "name": "_batchName",
          "type": "string"
        },
        {
          "internalType": "uint256",
          "name": "_productId",
          "type": "uint256"
        },
        {
          "internalType": "uint256",
          "name": "_producerId",
          "type": "uint256"
        },
        {
          "internalType": "uint256",
          "name": "_quantity",
          "type": "uint256"
        },
        {
          "internalType": "uint256",
          "name": "_productionDate",
          "type": "uint256"
        },
        {
          "internalType": "uint256",
          "name": "_expireDate",
          "type": "uint256"
        },
        {
          "internalType": "string[]",
          "name": "_imageHashes",
          "type": "string[]"
        },
        {
          "internalType": "string",
          "name": "_certificateImageHash",
          "type": "string"
        },
        {
          "internalType": "uint256",
          "name": "_approverId",
          "type": "uint256"
        }
      ],
      "name": "createBatch",
      "outputs": [],
      "stateMutability": "nonpayable",
      "type": "function"
    },
    {
      "inputs": [
        {
          "internalType": "uint256",
          "name": "_batchId",
          "type": "uint256"
        },
        {
          "internalType": "string",
          "name": "_sscc",
          "type": "string"
        }
      ],
      "name": "approveBatch",
      "outputs": [],
      "stateMutability": "nonpayable",
      "type": "function"
    },
    {
      "inputs": [
        {
          "internalType": "uint256",
          "name": "_batchId",
          "type": "uint256"
        }
      ],
      "name": "rejectBatch",
      "outputs": [],
      "stateMutability": "nonpayable",
      "type": "function"
    },
    {
      "inputs": [],
      "name": "getPendingBatches",
      "outputs": [
        {
          "components": [
            {
              "internalType": "uint256",
              "name": "batchId",
              "type": "uint256"
            },
            {
              "internalType": "string",
              "name": "batchName",
              "type": "string"
            },
            {
              "internalType": "uint256",
              "name": "productId",
              "type": "uint256"
            },
            {
              "internalType": "uint256",
              "name": "producerId",
              "type": "uint256"
            },
            {
              "internalType": "uint256",
              "name": "quantity",
              "type": "uint256"
            },
            {
              "internalType": "uint256",
              "name": "productionDate",
              "type": "uint256"
            },
            {
              "internalType": "uint256",
              "name": "expireDate",
              "type": "uint256"
            },
            {
              "internalType": "enum SupplyChain.BatchStatus",
              "name": "status",
              "type": "uint8"
            },
            {
              "internalType": "uint256",
              "name": "timestamp",
              "type": "uint256"
            },
            {
              "internalType": "string",
              "name": "sscc",
              "type": "string"
            },
            {
              "internalType": "string[]",
              "name": "imageHashes",
              "type": "string[]"
            },
            {
              "internalType": "string",
              "name": "certificateImageHash",
              "type": "string"
            },
            {
              "internalType": "uint256",
              "name": "approverId",
              "type": "uint256"
            }
          ],
          "internalType": "struct SupplyChain.Batch[]",
          "name": "",
          "type": "tuple[]"
        }
      ],
      "stateMutability": "view",
      "type": "function",
      "constant": true
    }
  ],
  "bytecode": "0x60806040523480156200001157600080fd5b506040516200264b3803806200264b833981810160405281019062000037919062000096565b80600360006101000a81548173ffffffffffffffffffffffffffffffffffffffff021916908373ffffffffffffffffffffffffffffffffffffffff1602179055505062000110565b6000815190506200009081620000f6565b92915050565b600060208284031215620000a957600080fd5b6000620000b9848285016200007f565b91505092915050565b6000620000cf82620000d6565b9050919050565b600073ffffffffffffffffffffffffffffffffffffffff82169050919050565b6200010181620000c2565b81146200010d57600080fd5b50565b61252b80620001206000396000f3fe608060405234801561001057600080fd5b506004361061007d5760003560e01c80638462a7f81161005b5780638462a7f8146100d6578063b32c4d8d146100f4578063d59317d61461012f578063f851a4401461014d5761007d565b806325f894ba146100825780633dd28fce1461009e578063838b1da3146100ba575b600080fd5b61009c6004803603810190610097919061167d565b61016b565b005b6100b860048036038101906100b391906117b4565b61051a565b005b6100d460048036038101906100cf919061178b565b610839565b005b6100de610a99565b6040516100eb9190611fbd565b60405180910390f35b61010e6004803603810190610109919061178b565b610a9f565b6040516101269c9b9a99989796959493929190612008565b60405180910390f35b610137610cb4565b6040516101449190611e9b565b60405180910390f35b610155611345565b6040516101629190611e80565b60405180910390f35b60008951116101af576040517f08c379a00000000000000000000000000000000000000000000000000000000081526004016101a690611edd565b60405180910390fd5b600086116101f2576040517f08c379a00000000000000000000000000000000000000000000000000000000081526004016101e990611f3d565b60405180910390fd5b838510610234576040517f08c379a000000000000000000000000000000000000000000000000000000000815260040161022b90611ebd565b60405180910390fd5b6000835111610278576040517f08c379a000000000000000000000000000000000000000000000000000000000815260040161026f90611efd565b60405180910390fd5b60008251116102bc576040517f08c379a00000000000000000000000000000000000000000000000000000000081526004016102b390611f1d565b60405180910390fd5b6000604051806101a0016040528060015481526020018b81526020018a815260200189815260200188815260200187815260200186815260200160016003811115610330577f4e487b7100000000000000000000000000000000000000000000000000000000600052602160045260246000fd5b81526020014281526020016040518060200160405280600081525081526020018581526020018481526020018381525090806001815401808255809150506001900390600052602060002090600d02016000909190919091506000820151816000015560208201518160010190805190602001906103af929190611372565b5060408201518160020155606082015181600301556080820151816004015560a0820151816005015560c0820151816006015560e08201518160070160006101000a81548160ff02191690836003811115610433577f4e487b7100000000000000000000000000000000000000000000000000000000600052602160045260246000fd5b02179055506101008201518160080155610120820151816009019080519060200190610460929190611372565b5061014082015181600a01908051906020019061047e9291906113f8565b5061016082015181600b01908051906020019061049c929190611372565b5061018082015181600c015550507f1b21b0cf235b129aa11b85f70842fa15e44ca1cda46bbe8feeacf871fa14f1776001548a8a8a8a8a8a428b8b8b6040516104ef9b9a999897969594939291906120d7565b60405180910390a16001600081548092919061050a906123b4565b9190505550505050505050505050565b8161056f60008281548110610558577f4e487b7100000000000000000000000000000000000000000000000000000000600052603260045260246000fd5b90600052602060002090600d0201600c015461136b565b73ffffffffffffffffffffffffffffffffffffffff163373ffffffffffffffffffffffffffffffffffffffff16146105dc576040517f08c379a00000000000000000000000000000000000000000000000000000000081526004016105d390611f9d565b60405180910390fd5b6000808481548110610617577f4e487b7100000000000000000000000000000000000000000000000000000000600052603260045260246000fd5b90600052602060002090600d0201905060016003811115610661577f4e487b7100000000000000000000000000000000000000000000000000000000600052602160045260246000fd5b8160070160009054906101000a900460ff1660038111156106ab577f4e487b7100000000000000000000000000000000000000000000000000000000600052602160045260246000fd5b146106eb576040517f08c379a00000000000000000000000000000000000000000000000000000000081526004016106e290611f7d565b60405180910390fd5b6002836040516106fb9190611e69565b908152602001604051809103902060009054906101000a900460ff1615610757576040517f08c379a000000000000000000000000000000000000000000000000000000000815260040161074e90611f5d565b60405180910390fd5b60016002846040516107699190611e69565b908152602001604051809103902060006101000a81548160ff02191690831515021790555060028160070160006101000a81548160ff021916908360038111156107dc577f4e487b7100000000000000000000000000000000000000000000000000000000600052602160045260246000fd5b0217905550828160090190805190602001906107f9929190611372565b507fd6fc769f013f8d9527ee9538140db27a2334a58c35ab2082cf97447815ab4b2d848460405161082b929190611fd8565b60405180910390a150505050565b8061088e60008281548110610877577f4e487b7100000000000000000000000000000000000000000000000000000000600052603260045260246000fd5b90600052602060002090600d0201600c015461136b565b73ffffffffffffffffffffffffffffffffffffffff163373ffffffffffffffffffffffffffffffffffffffff16146108fb576040517f08c379a00000000000000000000000000000000000000000000000000000000081526004016108f290611f9d565b60405180910390fd5b6000808381548110610936577f4e487b7100000000000000000000000000000000000000000000000000000000600052603260045260246000fd5b90600052602060002090600d0201905060016003811115610980577f4e487b7100000000000000000000000000000000000000000000000000000000600052602160045260246000fd5b8160070160009054906101000a900460ff1660038111156109ca577f4e487b7100000000000000000000000000000000000000000000000000000000600052602160045260246000fd5b14610a0a576040517f08c379a0000000000000000000000000000000000000000000000000000000008152600401610a0190611f7d565b60405180910390fd5b60038160070160006101000a81548160ff02191690836003811115610a58577f4e487b7100000000000000000000000000000000000000000000000000000000600052602160045260246000fd5b02179055507ff42772ae1a60341814f07b136014e42d106ce906aa847a63e2109d49f230814583604051610a8c9190611fbd565b60405180910390a1505050565b60015481565b60008181548110610aaf57600080fd5b90600052602060002090600d0201600091509050806000015490806001018054610ad890612382565b80601f0160208091040260200160405190810160405280929190818152602001828054610b0490612382565b8015610b515780601f10610b2657610100808354040283529160200191610b51565b820191906000526020600020905b815481529060010190602001808311610b3457829003601f168201915b5050505050908060020154908060030154908060040154908060050154908060060154908060070160009054906101000a900460ff1690806008015490806009018054610b9d90612382565b80601f0160208091040260200160405190810160405280929190818152602001828054610bc990612382565b8015610c165780601f10610beb57610100808354040283529160200191610c16565b820191906000526020600020905b815481529060010190602001808311610bf957829003601f168201915b50505050509080600b018054610c2b90612382565b80601f0160208091040260200160405190810160405280929190818152602001828054610c5790612382565b8015610ca45780601f10610c7957610100808354040283529160200191610ca4565b820191906000526020600020905b815481529060010190602001808311610c8757829003601f168201915b50505050509080600c015490508c565b60606000805b600080549050811015610dba5760016003811115610d01577f4e487b7100000000000000000000000000000000000000000000000000000000600052602160045260246000fd5b60008281548110610d3b577f4e487b7100000000000000000000000000000000000000000000000000000000600052603260045260246000fd5b90600052602060002090600d020160070160009054906101000a900460ff166003811115610d92577f4e487b7100000000000000000000000000000000000000000000000000000000600052602160045260246000fd5b1415610da7578180610da3906123b4565b9250505b8080610db2906123b4565b915050610cba565b5060008167ffffffffffffffff811115610dfd577f4e487b7100000000000000000000000000000000000000000000000000000000600052604160045260246000fd5b604051908082528060200260200182016040528015610e3657816020015b610e23611458565b815260200190600190039081610e1b5790505b5090506000805b60008054905081101561133b5760016003811115610e84577f4e487b7100000000000000000000000000000000000000000000000000000000600052602160045260246000fd5b60008281548110610ebe577f4e487b7100000000000000000000000000000000000000000000000000000000600052603260045260246000fd5b90600052602060002090600d020160070160009054906101000a900460ff166003811115610f15577f4e487b7100000000000000000000000000000000000000000000000000000000600052602160045260246000fd5b14156113285760008181548110610f55577f4e487b7100000000000000000000000000000000000000000000000000000000600052603260045260246000fd5b90600052602060002090600d0201604051806101a001604052908160008201548152602001600182018054610f8990612382565b80601f0160208091040260200160405190810160405280929190818152602001828054610fb590612382565b80156110025780601f10610fd757610100808354040283529160200191611002565b820191906000526020600020905b815481529060010190602001808311610fe557829003601f168201915b5050505050815260200160028201548152602001600382015481526020016004820154815260200160058201548152602001600682015481526020016007820160009054906101000a900460ff166003811115611088577f4e487b7100000000000000000000000000000000000000000000000000000000600052602160045260246000fd5b60038111156110c0577f4e487b7100000000000000000000000000000000000000000000000000000000600052602160045260246000fd5b8152602001600882015481526020016009820180546110de90612382565b80601f016020809104026020016040519081016040528092919081815260200182805461110a90612382565b80156111575780601f1061112c57610100808354040283529160200191611157565b820191906000526020600020905b81548152906001019060200180831161113a57829003601f168201915b50505050508152602001600a8201805480602002602001604051908101604052809291908181526020016000905b828210156112315783829060005260206000200180546111a490612382565b80601f01602080910402602001604051908101604052809291908181526020018280546111d090612382565b801561121d5780601f106111f25761010080835404028352916020019161121d565b820191906000526020600020905b81548152906001019060200180831161120057829003601f168201915b505050505081526020019060010190611185565b505050508152602001600b8201805461124990612382565b80601f016020809104026020016040519081016040528092919081815260200182805461127590612382565b80156112c25780601f10611297576101008083540402835291602001916112c2565b820191906000526020600020905b8154815290600101906020018083116112a557829003601f168201915b50505050508152602001600c8201548152505083838151811061130e577f4e487b7100000000000000000000000000000000000000000000000000000000600052603260045260246000fd5b60200260200101819052508180611324906123b4565b9250505b8080611333906123b4565b915050610e3d565b5081935050505090565b600360009054906101000a900473ffffffffffffffffffffffffffffffffffffffff1681565b6000919050565b82805461137e90612382565b90600052602060002090601f0160209004810192826113a057600085556113e7565b82601f106113b957805160ff19168380011785556113e7565b828001600101855582156113e7579182015b828111156113e65782518255916020019190600101906113cb565b5b5090506113f491906114f8565b5090565b828054828255906000526020600020908101928215611447579160200282015b82811115611446578251829080519060200190611436929190611372565b5091602001919060010190611418565b5b5090506114549190611515565b5090565b604051806101a0016040528060008152602001606081526020016000815260200160008152602001600081526020016000815260200160008152602001600060038111156114cf577f4e487b7100000000000000000000000000000000000000000000000000000000600052602160045260246000fd5b815260200160008152602001606081526020016060815260200160608152602001600081525090565b5b808211156115115760008160009055506001016114f9565b5090565b5b80821115611535576000818161152c9190611539565b50600101611516565b5090565b50805461154590612382565b6000825580601f106115575750611576565b601f01602090049060005260206000209081019061157591906114f8565b5b50565b600061158c611587846121c8565b612197565b9050808382526020820190508260005b858110156115cc57813585016115b2888261163e565b84526020840193506020830192505060018101905061159c565b5050509392505050565b60006115e96115e4846121f4565b612197565b90508281526020810184848401111561160157600080fd5b61160c848285612340565b509392505050565b600082601f83011261162557600080fd5b8135611635848260208601611579565b91505092915050565b600082601f83011261164f57600080fd5b813561165f8482602086016115d6565b91505092915050565b600081359050611677816124de565b92915050565b60008060008060008060008060006101208a8c03121561169c57600080fd5b60008a013567ffffffffffffffff8111156116b657600080fd5b6116c28c828d0161163e565b99505060206116d38c828d01611668565b98505060406116e48c828d01611668565b97505060606116f58c828d01611668565b96505060806117068c828d01611668565b95505060a06117178c828d01611668565b94505060c08a013567ffffffffffffffff81111561173457600080fd5b6117408c828d01611614565b93505060e08a013567ffffffffffffffff81111561175d57600080fd5b6117698c828d0161163e565b92505061010061177b8c828d01611668565b9150509295985092959850929598565b60006020828403121561179d57600080fd5b60006117ab84828501611668565b91505092915050565b600080604083850312156117c757600080fd5b60006117d585828601611668565b925050602083013567ffffffffffffffff8111156117f257600080fd5b6117fe8582860161163e565b9150509250929050565b600061181483836119bc565b905092915050565b60006118288383611d1d565b905092915050565b611839816122df565b82525050565b600061184a82612244565b611854818561227f565b93508360208202850161186685612224565b8060005b858110156118a257848403895281516118838582611808565b945061188e83612265565b925060208a0199505060018101905061186a565b50829750879550505050505092915050565b60006118bf82612244565b6118c98185612290565b9350836020820285016118db85612224565b8060005b8581101561191757848403895281516118f88582611808565b945061190383612265565b925060208a019950506001810190506118df565b50829750879550505050505092915050565b60006119348261224f565b61193e81856122a1565b93508360208202850161195085612234565b8060005b8581101561198c578484038952815161196d858261181c565b945061197883612272565b925060208a01995050600181019050611954565b50829750879550505050505092915050565b6119a78161232e565b82525050565b6119b68161232e565b82525050565b60006119c78261225a565b6119d181856122b2565b93506119e181856020860161234f565b6119ea816124b9565b840191505092915050565b6000611a008261225a565b611a0a81856122c3565b9350611a1a81856020860161234f565b611a23816124b9565b840191505092915050565b6000611a398261225a565b611a4381856122d4565b9350611a5381856020860161234f565b80840191505092915050565b6000611a6c602a836122c3565b91507f50726f64756374696f6e2064617465206d757374206265206265666f7265206560008301527f78706972652064617465000000000000000000000000000000000000000000006020830152604082019050919050565b6000611ad26016836122c3565b91507f4261746368206e616d65206973207265717569726564000000000000000000006000830152602082019050919050565b6000611b126023836122c3565b91507f4174206c65617374206f6e6520696d616765206861736820697320726571756960008301527f72656400000000000000000000000000000000000000000000000000000000006020830152604082019050919050565b6000611b786022836122c3565b91507f436572746966696361746520696d61676520686173682069732072657175697260008301527f65640000000000000000000000000000000000000000000000000000000000006020830152604082019050919050565b6000611bde6022836122c3565b91507f5175616e74697479206d7573742062652067726561746572207468616e207a6560008301527f726f0000000000000000000000000000000000000000000000000000000000006020830152604082019050919050565b6000611c44601a836122c3565b91507f535343432068617320616c7265616479206265656e20757365640000000000006000830152602082019050919050565b6000611c84601d836122c3565b91507f4261746368206973206e6f742070656e64696e6720617070726f76616c0000006000830152602082019050919050565b6000611cc46031836122c3565b91507f4f6e6c79207468652061737369676e656420617070726f7665722063616e206360008301527f616c6c20746869732066756e6374696f6e0000000000000000000000000000006020830152604082019050919050565b60006101a083016000830151611d366000860182611e4b565b5060208301518482036020860152611d4e82826119bc565b9150506040830151611d636040860182611e4b565b506060830151611d766060860182611e4b565b506080830151611d896080860182611e4b565b5060a0830151611d9c60a0860182611e4b565b5060c0830151611daf60c0860182611e4b565b5060e0830151611dc260e086018261199e565b50610100830151611dd7610100860182611e4b565b50610120830151848203610120860152611df182826119bc565b915050610140830151848203610140860152611e0d828261183f565b915050610160830151848203610160860152611e2982826119bc565b915050610180830151611e40610180860182611e4b565b508091505092915050565b611e5481612324565b82525050565b611e6381612324565b82525050565b6000611e758284611a2e565b915081905092915050565b6000602082019050611e956000830184611830565b92915050565b60006020820190508181036000830152611eb58184611929565b905092915050565b60006020820190508181036000830152611ed681611a5f565b9050919050565b60006020820190508181036000830152611ef681611ac5565b9050919050565b60006020820190508181036000830152611f1681611b05565b9050919050565b60006020820190508181036000830152611f3681611b6b565b9050919050565b60006020820190508181036000830152611f5681611bd1565b9050919050565b60006020820190508181036000830152611f7681611c37565b9050919050565b60006020820190508181036000830152611f9681611c77565b9050919050565b60006020820190508181036000830152611fb681611cb7565b9050919050565b6000602082019050611fd26000830184611e5a565b92915050565b6000604082019050611fed6000830185611e5a565b8181036020830152611fff81846119f5565b90509392505050565b60006101808201905061201e600083018f611e5a565b8181036020830152612030818e6119f5565b905061203f604083018d611e5a565b61204c606083018c611e5a565b612059608083018b611e5a565b61206660a083018a611e5a565b61207360c0830189611e5a565b61208060e08301886119ad565b61208e610100830187611e5a565b8181036101208301526120a181866119f5565b90508181036101408301526120b681856119f5565b90506120c6610160830184611e5a565b9d9c50505050505050505050505050565b6000610160820190506120ed600083018e611e5a565b81810360208301526120ff818d6119f5565b905061210e604083018c611e5a565b61211b606083018b611e5a565b612128608083018a611e5a565b61213560a0830189611e5a565b61214260c0830188611e5a565b61214f60e0830187611e5a565b81810361010083015261216281866118b4565b905081810361012083015261217781856119f5565b9050612187610140830184611e5a565b9c9b505050505050505050505050565b6000604051905081810181811067ffffffffffffffff821117156121be576121bd61248a565b5b8060405250919050565b600067ffffffffffffffff8211156121e3576121e261248a565b5b602082029050602081019050919050565b600067ffffffffffffffff82111561220f5761220e61248a565b5b601f19601f8301169050602081019050919050565b6000819050602082019050919050565b6000819050602082019050919050565b600081519050919050565b600081519050919050565b600081519050919050565b6000602082019050919050565b6000602082019050919050565b600082825260208201905092915050565b600082825260208201905092915050565b600082825260208201905092915050565b600082825260208201905092915050565b600082825260208201905092915050565b600081905092915050565b60006122ea82612304565b9050919050565b60008190506122ff826124ca565b919050565b600073ffffffffffffffffffffffffffffffffffffffff82169050919050565b6000819050919050565b6000612339826122f1565b9050919050565b82818337600083830152505050565b60005b8381101561236d578082015181840152602081019050612352565b8381111561237c576000848401525b50505050565b6000600282049050600182168061239a57607f821691505b602082108114156123ae576123ad61245b565b5b50919050565b60006123bf82612324565b91507fffffffffffffffffffffffffffffffffffffffffffffffffffffffffffffffff8214156123f2576123f16123fd565b5b600182019050919050565b7f4e487b7100000000000000000000000000000000000000000000000000000000600052601160045260246000fd5b7f4e487b7100000000000000000000000000000000000000000000000000000000600052602160045260246000fd5b7f4e487b7100000000000000000000000000000000000000000000000000000000600052602260045260246000fd5b7f4e487b7100000000000000000000000000000000000000000000000000000000600052604160045260246000fd5b6000601f19601f8301169050919050565b600481106124db576124da61242c565b5b50565b6124e781612324565b81146124f257600080fd5b5056fea26469706673582212205f1a894ea2311f58698320d7d78d06ae8d9224ba14093c47070ac2930cf36feb64736f6c63430008000033",
  "immutableReferences": {},
  "source": "// SPDX-License-Identifier: MIT\r\npragma solidity ^0.8.0;\r\n\r\ncontract SupplyChain {\r\n    enum BatchStatus { Created, PendingApproval, Approved, Rejected }\r\n\r\n    event BatchCreated(\r\n        uint batchId,\r\n        string batchName,\r\n        uint productId,\r\n        uint producerId,\r\n        uint quantity,\r\n        uint productionDate,\r\n        uint expireDate,\r\n        uint timestamp,\r\n        string[] imageHashes,\r\n        string certificateImageHash,\r\n        uint approverId\r\n    );\r\n\r\n    event BatchApproved(uint batchId, string sscc);\r\n    event BatchRejected(uint batchId);\r\n\r\n    struct Batch {\r\n        uint batchId;\r\n        string batchName;\r\n        uint productId;\r\n        uint producerId;\r\n        uint quantity;\r\n        uint productionDate;\r\n        uint expireDate;\r\n        BatchStatus status;\r\n        uint timestamp;\r\n        string sscc;\r\n        string[] imageHashes;\r\n        string certificateImageHash;\r\n        uint approverId; // ID ca nh kim duyt c chn\r\n    }\r\n\r\n    struct ActivityLog {\r\n        uint logId;\r\n        uint batchId;\r\n        uint userId; // ID ca ngi dng t bng users\r\n        string activity;\r\n    }\r\n\r\n    Batch[] public batches;\r\n    uint public nextBatchId;\r\n\r\n    mapping(string => bool) private usedSSCCs;\r\n\r\n    address public admin;\r\n\r\n    constructor(address _admin) {\r\n        admin = _admin;\r\n    }\r\n\r\n    modifier onlyAdmin() {\r\n        require(msg.sender == admin, \"Only admin can call this function\");\r\n        _;\r\n    }\r\n\r\n    modifier onlyApprover(uint _batchId) {\r\n        require(msg.sender == getApproverAddress(batches[_batchId].approverId), \"Only the assigned approver can call this function\");\r\n        _;\r\n    }\r\n\r\n    function getApproverAddress(uint _approverId) internal view returns (address) {\r\n        // Implement logic to get the approver's address by their ID\r\n        // This could be a mapping from approverId to address\r\n        // For example: return approvers[_approverId];\r\n    }\r\n\r\n    function createBatch(\r\n        string memory _batchName,\r\n        uint _productId,\r\n        uint _producerId,\r\n        uint _quantity,\r\n        uint _productionDate,\r\n        uint _expireDate,\r\n        string[] memory _imageHashes,\r\n        string memory _certificateImageHash,\r\n        uint _approverId\r\n    ) public {\r\n        require(bytes(_batchName).length > 0, \"Batch name is required\");\r\n        require(_quantity > 0, \"Quantity must be greater than zero\");\r\n        require(_productionDate < _expireDate, \"Production date must be before expire date\");\r\n        require(_imageHashes.length > 0, \"At least one image hash is required\");\r\n        require(bytes(_certificateImageHash).length > 0, \"Certificate image hash is required\");\r\n\r\n        batches.push(Batch({\r\n            batchId: nextBatchId,\r\n            batchName: _batchName,\r\n            productId: _productId,\r\n            producerId: _producerId,\r\n            quantity: _quantity,\r\n            productionDate: _productionDate,\r\n            expireDate: _expireDate,\r\n            status: BatchStatus.PendingApproval,\r\n            timestamp: block.timestamp,\r\n            sscc: \"\",\r\n            imageHashes: _imageHashes,\r\n            certificateImageHash: _certificateImageHash,\r\n            approverId: _approverId\r\n        }));\r\n\r\n        emit BatchCreated(\r\n            nextBatchId,\r\n            _batchName,\r\n            _productId,\r\n            _producerId,\r\n            _quantity,\r\n            _productionDate,\r\n            _expireDate,\r\n            block.timestamp,\r\n            _imageHashes,\r\n            _certificateImageHash,\r\n            _approverId\r\n        );\r\n\r\n        nextBatchId++;\r\n    }\r\n\r\n    function approveBatch(uint _batchId, string memory _sscc) public onlyApprover(_batchId) {\r\n        Batch storage batch = batches[_batchId];\r\n        require(batch.status == BatchStatus.PendingApproval, \"Batch is not pending approval\");\r\n\r\n        require(!usedSSCCs[_sscc], \"SSCC has already been used\");\r\n\r\n        usedSSCCs[_sscc] = true;\r\n\r\n        batch.status = BatchStatus.Approved;\r\n        batch.sscc = _sscc;\r\n        emit BatchApproved(_batchId, _sscc);\r\n    }\r\n\r\n    function rejectBatch(uint _batchId) public onlyApprover(_batchId) {\r\n        Batch storage batch = batches[_batchId];\r\n        require(batch.status == BatchStatus.PendingApproval, \"Batch is not pending approval\");\r\n\r\n        batch.status = BatchStatus.Rejected;\r\n        emit BatchRejected(_batchId);\r\n    }\r\n\r\n    function getPendingBatches() public view returns (Batch[] memory) {\r\n        uint pendingCount = 0;\r\n        for (uint i = 0; i < batches.length; i++) {\r\n            if (batches[i].status == BatchStatus.PendingApproval) {\r\n                pendingCount++;\r\n            }\r\n        }\r\n\r\n        Batch[] memory pendingBatches = new Batch[](pendingCount);\r\n        uint index = 0;\r\n        for (uint i = 0; i < batches.length; i++) {\r\n            if (batches[i].status == BatchStatus.PendingApproval) {\r\n                pendingBatches[index] = batches[i];\r\n                index++;\r\n            }\r\n        }\r\n\r\n        return pendingBatches;\r\n    }\r\n}",
  "sourcePath": "D:\\projects\\nckh-be\\blockchain\\contracts\\supplychain.sol",
  "compiler": {
    "name": "solc",
    "version": "0.8.0+commit.c7dfd78e.Emscripten.clang"
  },
  "schemaVersion": "3.4.16",
  "updatedAt": "2024-08-24T21:38:18.861Z",
  "networkType": "ethereum",
  "devdoc": {
    "kind": "dev",
    "methods": {},
    "version": 1
  },
  "userdoc": {
    "kind": "user",
    "methods": {},
    "version": 1
  }
}