{
  "contractName": "SupplyChain",
  "abi": [
    {
      "anonymous": false,
      "inputs": [
        {
          "indexed": false,
          "internalType": "uint256",
          "name": "batchId",
          "type": "uint256"
        },
        {
          "indexed": false,
          "internalType": "string",
          "name": "batchName",
          "type": "string"
        },
        {
          "indexed": false,
          "internalType": "uint256",
          "name": "productId",
          "type": "uint256"
        },
        {
          "indexed": false,
          "internalType": "uint256",
          "name": "producerId",
          "type": "uint256"
        },
        {
          "indexed": false,
          "internalType": "uint256",
          "name": "quantity",
          "type": "uint256"
        },
        {
          "indexed": false,
          "internalType": "uint256",
          "name": "productionDate",
          "type": "uint256"
        },
        {
          "indexed": false,
          "internalType": "uint256",
          "name": "expireDate",
          "type": "uint256"
        },
        {
          "indexed": false,
          "internalType": "uint256",
          "name": "timestamp",
          "type": "uint256"
        },
        {
          "indexed": false,
          "internalType": "string[]",
          "name": "imageHashes",
          "type": "string[]"
        },
        {
          "indexed": false,
          "internalType": "address",
          "name": "approver",
          "type": "address"
        },
        {
          "indexed": false,
          "internalType": "string",
          "name": "productionAddress",
          "type": "string"
        }
      ],
      "name": "BatchCreated",
      "type": "event"
    },
    {
      "anonymous": false,
      "inputs": [
        {
          "indexed": false,
          "internalType": "uint256",
          "name": "batchId",
          "type": "uint256"
        },
        {
          "indexed": false,
          "internalType": "enum SupplyChain.BatchStatus",
          "name": "status",
          "type": "uint8"
        },
        {
          "indexed": false,
          "internalType": "uint256",
          "name": "timestamp",
          "type": "uint256"
        }
      ],
      "name": "BatchStatusUpdated",
      "type": "event"
    },
    {
      "inputs": [
        {
          "internalType": "uint256",
          "name": "",
          "type": "uint256"
        }
      ],
      "name": "batches",
      "outputs": [
        {
          "internalType": "uint256",
          "name": "batchId",
          "type": "uint256"
        },
        {
          "internalType": "string",
          "name": "batchName",
          "type": "string"
        },
        {
          "internalType": "uint256",
          "name": "productId",
          "type": "uint256"
        },
        {
          "internalType": "uint256",
          "name": "producerId",
          "type": "uint256"
        },
        {
          "internalType": "uint256",
          "name": "quantity",
          "type": "uint256"
        },
        {
          "internalType": "uint256",
          "name": "productionDate",
          "type": "uint256"
        },
        {
          "internalType": "uint256",
          "name": "expireDate",
          "type": "uint256"
        },
        {
          "internalType": "enum SupplyChain.BatchStatus",
          "name": "status",
          "type": "uint8"
        },
        {
          "internalType": "uint256",
          "name": "timestamp",
          "type": "uint256"
        },
        {
          "internalType": "string",
          "name": "sscc",
          "type": "string"
        },
        {
          "internalType": "address",
          "name": "approver",
          "type": "address"
        },
        {
          "internalType": "string",
          "name": "productionAddress",
          "type": "string"
        }
      ],
      "stateMutability": "view",
      "type": "function",
      "constant": true
    },
    {
      "inputs": [],
      "name": "nextBatchId",
      "outputs": [
        {
          "internalType": "uint256",
          "name": "",
          "type": "uint256"
        }
      ],
      "stateMutability": "view",
      "type": "function",
      "constant": true
    },
    {
      "inputs": [
        {
          "internalType": "string",
          "name": "_batchName",
          "type": "string"
        },
        {
          "internalType": "uint256",
          "name": "_productId",
          "type": "uint256"
        },
        {
          "internalType": "uint256",
          "name": "_producerId",
          "type": "uint256"
        },
        {
          "internalType": "uint256",
          "name": "_quantity",
          "type": "uint256"
        },
        {
          "internalType": "uint256",
          "name": "_productionDate",
          "type": "uint256"
        },
        {
          "internalType": "uint256",
          "name": "_expireDate",
          "type": "uint256"
        },
        {
          "internalType": "string[]",
          "name": "_imageHashes",
          "type": "string[]"
        },
        {
          "internalType": "address",
          "name": "_approver",
          "type": "address"
        },
        {
          "internalType": "string",
          "name": "_productionAddress",
          "type": "string"
        }
      ],
      "name": "createBatch",
      "outputs": [],
      "stateMutability": "nonpayable",
      "type": "function"
    },
    {
      "inputs": [
        {
          "internalType": "uint256",
          "name": "_batchId",
          "type": "uint256"
        },
        {
          "internalType": "enum SupplyChain.BatchStatus",
          "name": "_status",
          "type": "uint8"
        }
      ],
      "name": "updateBatchStatus",
      "outputs": [],
      "stateMutability": "nonpayable",
      "type": "function"
    }
  ],
  "bytecode": "0x608060405234801561001057600080fd5b506116c5806100206000396000f3fe608060405234801561001057600080fd5b506004361061004c5760003560e01c806352c88f36146100515780638462a7f81461006d578063940171dc1461008b578063b32c4d8d146100a7575b600080fd5b61006b60048036038101906100669190610ce2565b6100e2565b005b6100756102d9565b604051610082919061117e565b60405180910390f35b6100a560048036038101906100a09190610bab565b6102df565b005b6100c160048036038101906100bc9190610cb9565b6106e1565b6040516100d99c9b9a999897969594939291906111d0565b60405180910390f35b816000818154811061011d577f4e487b7100000000000000000000000000000000000000000000000000000000600052603260045260246000fd5b90600052602060002090600d0201600b0160009054906101000a900473ffffffffffffffffffffffffffffffffffffffff1673ffffffffffffffffffffffffffffffffffffffff163373ffffffffffffffffffffffffffffffffffffffff16146101bc576040517f08c379a00000000000000000000000000000000000000000000000000000000081526004016101b39061109e565b60405180910390fd5b6001548310610200576040517f08c379a00000000000000000000000000000000000000000000000000000000081526004016101f79061115e565b60405180910390fd5b816000848154811061023b577f4e487b7100000000000000000000000000000000000000000000000000000000600052603260045260246000fd5b90600052602060002090600d020160070160006101000a81548160ff02191690836003811115610294577f4e487b7100000000000000000000000000000000000000000000000000000000600052602160045260246000fd5b02179055507f53abf7e786b8d7e0b5df0017a30d110cdbf586f60ae1d09363beb652278edba38383426040516102cc93929190611199565b60405180910390a1505050565b60015481565b6000895111610323576040517f08c379a000000000000000000000000000000000000000000000000000000000815260040161031a906110de565b60405180910390fd5b60008611610366576040517f08c379a000000000000000000000000000000000000000000000000000000000815260040161035d9061111e565b60405180910390fd5b8385106103a8576040517f08c379a000000000000000000000000000000000000000000000000000000000815260040161039f906110be565b60405180910390fd5b60008351116103ec576040517f08c379a00000000000000000000000000000000000000000000000000000000081526004016103e3906110fe565b60405180910390fd5b6000815111610430576040517f08c379a00000000000000000000000000000000000000000000000000000000081526004016104279061113e565b60405180910390fd5b6000604051806101a0016040528060015481526020018b81526020018a8152602001898152602001888152602001878152602001868152602001600160038111156104a4577f4e487b7100000000000000000000000000000000000000000000000000000000600052602160045260246000fd5b81526020014281526020016040518060200160405280600081525081526020018581526020018473ffffffffffffffffffffffffffffffffffffffff1681526020018381525090806001815401808255809150506001900390600052602060002090600d0201600090919091909150600082015181600001556020820151816001019080519060200190610539929190610916565b5060408201518160020155606082015181600301556080820151816004015560a0820151816005015560c0820151816006015560e08201518160070160006101000a81548160ff021916908360038111156105bd577f4e487b7100000000000000000000000000000000000000000000000000000000600052602160045260246000fd5b021790555061010082015181600801556101208201518160090190805190602001906105ea929190610916565b5061014082015181600a01908051906020019061060892919061099c565b5061016082015181600b0160006101000a81548173ffffffffffffffffffffffffffffffffffffffff021916908373ffffffffffffffffffffffffffffffffffffffff16021790555061018082015181600c01908051906020019061066e929190610916565b5050507fa14295586d4b28081d36d3142697d5464745a3eb1f0879bd19fe8a312bd291796001548a8a8a8a8a8a428b8b8b6040516106b69b9a9998979695949392919061129f565b60405180910390a1600160008154809291906106d190611527565b9190505550505050505050505050565b600081815481106106f157600080fd5b90600052602060002090600d020160009150905080600001549080600101805461071a906114f5565b80601f0160208091040260200160405190810160405280929190818152602001828054610746906114f5565b80156107935780601f1061076857610100808354040283529160200191610793565b820191906000526020600020905b81548152906001019060200180831161077657829003601f168201915b5050505050908060020154908060030154908060040154908060050154908060060154908060070160009054906101000a900460ff16908060080154908060090180546107df906114f5565b80601f016020809104026020016040519081016040528092919081815260200182805461080b906114f5565b80156108585780601f1061082d57610100808354040283529160200191610858565b820191906000526020600020905b81548152906001019060200180831161083b57829003601f168201915b50505050509080600b0160009054906101000a900473ffffffffffffffffffffffffffffffffffffffff169080600c018054610893906114f5565b80601f01602080910402602001604051908101604052809291908181526020018280546108bf906114f5565b801561090c5780601f106108e15761010080835404028352916020019161090c565b820191906000526020600020905b8154815290600101906020018083116108ef57829003601f168201915b505050505090508c565b828054610922906114f5565b90600052602060002090601f016020900481019282610944576000855561098b565b82601f1061095d57805160ff191683800117855561098b565b8280016001018555821561098b579182015b8281111561098a57825182559160200191906001019061096f565b5b50905061099891906109fc565b5090565b8280548282559060005260206000209081019282156109eb579160200282015b828111156109ea5782518290805190602001906109da929190610916565b50916020019190600101906109bc565b5b5090506109f89190610a19565b5090565b5b80821115610a155760008160009055506001016109fd565b5090565b5b80821115610a395760008181610a309190610a3d565b50600101610a1a565b5090565b508054610a49906114f5565b6000825580601f10610a5b5750610a7a565b601f016020900490600052602060002090810190610a7991906109fc565b5b50565b6000610a90610a8b84611390565b61135f565b9050808382526020820190508260005b85811015610ad05781358501610ab68882610b6c565b845260208401935060208301925050600181019050610aa0565b5050509392505050565b6000610aed610ae8846113bc565b61135f565b905082815260208101848484011115610b0557600080fd5b610b108482856114b3565b509392505050565b600081359050610b2781611651565b92915050565b600082601f830112610b3e57600080fd5b8135610b4e848260208601610a7d565b91505092915050565b600081359050610b6681611668565b92915050565b600082601f830112610b7d57600080fd5b8135610b8d848260208601610ada565b91505092915050565b600081359050610ba581611678565b92915050565b60008060008060008060008060006101208a8c031215610bca57600080fd5b60008a013567ffffffffffffffff811115610be457600080fd5b610bf08c828d01610b6c565b9950506020610c018c828d01610b96565b9850506040610c128c828d01610b96565b9750506060610c238c828d01610b96565b9650506080610c348c828d01610b96565b95505060a0610c458c828d01610b96565b94505060c08a013567ffffffffffffffff811115610c6257600080fd5b610c6e8c828d01610b2d565b93505060e0610c7f8c828d01610b18565b9250506101008a013567ffffffffffffffff811115610c9d57600080fd5b610ca98c828d01610b6c565b9150509295985092959850929598565b600060208284031215610ccb57600080fd5b6000610cd984828501610b96565b91505092915050565b60008060408385031215610cf557600080fd5b6000610d0385828601610b96565b9250506020610d1485828601610b57565b9150509250929050565b6000610d2a8383610dc5565b905092915050565b610d3b81611452565b82525050565b6000610d4c826113fc565b610d56818561141f565b935083602082028501610d68856113ec565b8060005b85811015610da45784840389528151610d858582610d1e565b9450610d9083611412565b925060208a01995050600181019050610d6c565b50829750879550505050505092915050565b610dbf816114a1565b82525050565b6000610dd082611407565b610dda8185611430565b9350610dea8185602086016114c2565b610df38161162c565b840191505092915050565b6000610e0982611407565b610e138185611441565b9350610e238185602086016114c2565b610e2c8161162c565b840191505092915050565b6000610e44602983611441565b91507f4f6e6c792074686520617070726f7665722063616e20706572666f726d20746860008301527f697320616374696f6e00000000000000000000000000000000000000000000006020830152604082019050919050565b6000610eaa602a83611441565b91507f50726f64756374696f6e2064617465206d757374206265206265666f7265206560008301527f78706972652064617465000000000000000000000000000000000000000000006020830152604082019050919050565b6000610f10601683611441565b91507f4261746368206e616d65206973207265717569726564000000000000000000006000830152602082019050919050565b6000610f50602383611441565b91507f4174206c65617374206f6e6520696d616765206861736820697320726571756960008301527f72656400000000000000000000000000000000000000000000000000000000006020830152604082019050919050565b6000610fb6602283611441565b91507f5175616e74697479206d7573742062652067726561746572207468616e207a6560008301527f726f0000000000000000000000000000000000000000000000000000000000006020830152604082019050919050565b600061101c601e83611441565b91507f50726f64756374696f6e206164647265737320697320726571756972656400006000830152602082019050919050565b600061105c601083611441565b91507f496e76616c6964206261746368204944000000000000000000000000000000006000830152602082019050919050565b61109881611497565b82525050565b600060208201905081810360008301526110b781610e37565b9050919050565b600060208201905081810360008301526110d781610e9d565b9050919050565b600060208201905081810360008301526110f781610f03565b9050919050565b6000602082019050818103600083015261111781610f43565b9050919050565b6000602082019050818103600083015261113781610fa9565b9050919050565b600060208201905081810360008301526111578161100f565b9050919050565b600060208201905081810360008301526111778161104f565b9050919050565b6000602082019050611193600083018461108f565b92915050565b60006060820190506111ae600083018661108f565b6111bb6020830185610db6565b6111c8604083018461108f565b949350505050565b6000610180820190506111e6600083018f61108f565b81810360208301526111f8818e610dfe565b9050611207604083018d61108f565b611214606083018c61108f565b611221608083018b61108f565b61122e60a083018a61108f565b61123b60c083018961108f565b61124860e0830188610db6565b61125661010083018761108f565b8181036101208301526112698186610dfe565b9050611279610140830185610d32565b81810361016083015261128c8184610dfe565b90509d9c50505050505050505050505050565b6000610160820190506112b5600083018e61108f565b81810360208301526112c7818d610dfe565b90506112d6604083018c61108f565b6112e3606083018b61108f565b6112f0608083018a61108f565b6112fd60a083018961108f565b61130a60c083018861108f565b61131760e083018761108f565b81810361010083015261132a8186610d41565b905061133a610120830185610d32565b81810361014083015261134d8184610dfe565b90509c9b505050505050505050505050565b6000604051905081810181811067ffffffffffffffff82111715611386576113856115fd565b5b8060405250919050565b600067ffffffffffffffff8211156113ab576113aa6115fd565b5b602082029050602081019050919050565b600067ffffffffffffffff8211156113d7576113d66115fd565b5b601f19601f8301169050602081019050919050565b6000819050602082019050919050565b600081519050919050565b600081519050919050565b6000602082019050919050565b600082825260208201905092915050565b600082825260208201905092915050565b600082825260208201905092915050565b600061145d82611477565b9050919050565b60008190506114728261163d565b919050565b600073ffffffffffffffffffffffffffffffffffffffff82169050919050565b6000819050919050565b60006114ac82611464565b9050919050565b82818337600083830152505050565b60005b838110156114e05780820151818401526020810190506114c5565b838111156114ef576000848401525b50505050565b6000600282049050600182168061150d57607f821691505b60208210811415611521576115206115ce565b5b50919050565b600061153282611497565b91507fffffffffffffffffffffffffffffffffffffffffffffffffffffffffffffffff82141561156557611564611570565b5b600182019050919050565b7f4e487b7100000000000000000000000000000000000000000000000000000000600052601160045260246000fd5b7f4e487b7100000000000000000000000000000000000000000000000000000000600052602160045260246000fd5b7f4e487b7100000000000000000000000000000000000000000000000000000000600052602260045260246000fd5b7f4e487b7100000000000000000000000000000000000000000000000000000000600052604160045260246000fd5b6000601f19601f8301169050919050565b6004811061164e5761164d61159f565b5b50565b61165a81611452565b811461166557600080fd5b50565b6004811061167557600080fd5b50565b61168181611497565b811461168c57600080fd5b5056fea2646970667358221220abd0f076b7a4cb490822dfb6b1d5d313766e847c2d7c400a56c5478d52e4639464736f6c63430008000033",
  "immutableReferences": {},
  "source": "// SPDX-License-Identifier: MIT\r\npragma solidity ^0.8.0;\r\n\r\ncontract SupplyChain {\r\n    enum BatchStatus { Created, PendingApproval, Approved, Rejected }\r\n\r\n    event BatchCreated(\r\n        uint batchId,\r\n        string batchName,\r\n        uint productId,\r\n        uint producerId,\r\n        uint quantity,\r\n        uint productionDate,\r\n        uint expireDate,\r\n        uint timestamp,\r\n        string[] imageHashes,\r\n        address approver,\r\n        string productionAddress\r\n    );\r\n\r\n    event BatchStatusUpdated(\r\n        uint batchId,\r\n        BatchStatus status,\r\n        uint timestamp\r\n    );\r\n\r\n    struct Batch {\r\n        uint batchId;\r\n        string batchName;\r\n        uint productId;\r\n        uint producerId;\r\n        uint quantity;\r\n        uint productionDate;\r\n        uint expireDate;\r\n        BatchStatus status;\r\n        uint timestamp;\r\n        string sscc;\r\n        string[] imageHashes;\r\n        address approver;\r\n        string productionAddress;\r\n    }\r\n\r\n    Batch[] public batches;\r\n    uint public nextBatchId;\r\n\r\n    modifier onlyApprover(uint _batchId) {\r\n        require(msg.sender == batches[_batchId].approver, \"Only the approver can perform this action\");\r\n        _;\r\n    }\r\n\r\n    function createBatch(\r\n        string memory _batchName,\r\n        uint _productId,\r\n        uint _producerId,\r\n        uint _quantity,\r\n        uint _productionDate,\r\n        uint _expireDate,\r\n        string[] memory _imageHashes,\r\n        address _approver,\r\n        string memory _productionAddress\r\n    ) public {\r\n        require(bytes(_batchName).length > 0, \"Batch name is required\");\r\n        require(_quantity > 0, \"Quantity must be greater than zero\");\r\n        require(_productionDate < _expireDate, \"Production date must be before expire date\");\r\n        require(_imageHashes.length > 0, \"At least one image hash is required\");\r\n        require(bytes(_productionAddress).length > 0, \"Production address is required\");\r\n\r\n        batches.push(Batch({\r\n            batchId: nextBatchId,\r\n            batchName: _batchName,\r\n            productId: _productId,\r\n            producerId: _producerId,\r\n            quantity: _quantity,\r\n            productionDate: _productionDate,\r\n            expireDate: _expireDate,\r\n            status: BatchStatus.PendingApproval,\r\n            timestamp: block.timestamp,\r\n            sscc: \"\",\r\n            imageHashes: _imageHashes,\r\n            approver: _approver,\r\n            productionAddress: _productionAddress\r\n        }));\r\n\r\n        emit BatchCreated(\r\n            nextBatchId,\r\n            _batchName,\r\n            _productId,\r\n            _producerId,\r\n            _quantity,\r\n            _productionDate,\r\n            _expireDate,\r\n            block.timestamp,\r\n            _imageHashes,\r\n            _approver,\r\n            _productionAddress\r\n        );\r\n\r\n        nextBatchId++;\r\n    }\r\n\r\n    function updateBatchStatus(uint _batchId, BatchStatus _status) public onlyApprover(_batchId) {\r\n        require(_batchId < nextBatchId, \"Invalid batch ID\");\r\n        batches[_batchId].status = _status;\r\n        emit BatchStatusUpdated(_batchId, _status, block.timestamp);\r\n    }\r\n}",
  "sourcePath": "D:\\projects\\nckh-be\\blockchain\\contracts\\supplychain.sol",
  "compiler": {
    "name": "solc",
    "version": "0.8.0+commit.c7dfd78e.Emscripten.clang"
  },
  "schemaVersion": "3.4.16",
  "updatedAt": "2024-08-27T09:37:31.687Z",
  "networkType": "ethereum",
  "devdoc": {
    "kind": "dev",
    "methods": {},
    "version": 1
  },
  "userdoc": {
    "kind": "user",
    "methods": {},
    "version": 1
  }
}