{
  "contractName": "SupplyChain",
  "abi": [
    {
      "anonymous": false,
      "inputs": [
        {
          "indexed": false,
          "internalType": "uint256",
          "name": "batchId",
          "type": "uint256"
        },
        {
          "indexed": false,
          "internalType": "string",
          "name": "batchName",
          "type": "string"
        },
        {
          "indexed": false,
          "internalType": "uint256",
          "name": "productId",
          "type": "uint256"
        },
        {
          "indexed": false,
          "internalType": "uint256",
          "name": "producerId",
          "type": "uint256"
        },
        {
          "indexed": false,
          "internalType": "uint256",
          "name": "quantity",
          "type": "uint256"
        },
        {
          "indexed": false,
          "internalType": "uint256",
          "name": "productionDate",
          "type": "uint256"
        },
        {
          "indexed": false,
          "internalType": "uint256",
          "name": "expireDate",
          "type": "uint256"
        },
        {
          "indexed": false,
          "internalType": "uint256",
          "name": "timestamp",
          "type": "uint256"
        },
        {
          "indexed": false,
          "internalType": "address",
          "name": "approver",
          "type": "address"
        },
        {
          "indexed": false,
          "internalType": "string",
          "name": "productionAddress",
          "type": "string"
        }
      ],
      "name": "BatchCreated",
      "type": "event"
    },
    {
      "anonymous": false,
      "inputs": [
        {
          "indexed": false,
          "internalType": "uint256",
          "name": "batchId",
          "type": "uint256"
        },
        {
          "indexed": false,
          "internalType": "enum SupplyChain.BatchStatus",
          "name": "status",
          "type": "uint8"
        },
        {
          "indexed": false,
          "internalType": "uint256",
          "name": "timestamp",
          "type": "uint256"
        }
      ],
      "name": "BatchStatusUpdated",
      "type": "event"
    },
    {
      "inputs": [
        {
          "internalType": "uint256",
          "name": "",
          "type": "uint256"
        }
      ],
      "name": "batches",
      "outputs": [
        {
          "internalType": "uint256",
          "name": "batchId",
          "type": "uint256"
        },
        {
          "internalType": "string",
          "name": "batchName",
          "type": "string"
        },
        {
          "internalType": "uint256",
          "name": "productId",
          "type": "uint256"
        },
        {
          "internalType": "uint256",
          "name": "producerId",
          "type": "uint256"
        },
        {
          "internalType": "uint256",
          "name": "quantity",
          "type": "uint256"
        },
        {
          "internalType": "uint256",
          "name": "productionDate",
          "type": "uint256"
        },
        {
          "internalType": "uint256",
          "name": "expireDate",
          "type": "uint256"
        },
        {
          "internalType": "enum SupplyChain.BatchStatus",
          "name": "status",
          "type": "uint8"
        },
        {
          "internalType": "uint256",
          "name": "timestamp",
          "type": "uint256"
        },
        {
          "internalType": "string",
          "name": "sscc",
          "type": "string"
        },
        {
          "internalType": "address",
          "name": "approver",
          "type": "address"
        },
        {
          "internalType": "string",
          "name": "productionAddress",
          "type": "string"
        }
      ],
      "stateMutability": "view",
      "type": "function",
      "constant": true
    },
    {
      "inputs": [],
      "name": "nextBatchId",
      "outputs": [
        {
          "internalType": "uint256",
          "name": "",
          "type": "uint256"
        }
      ],
      "stateMutability": "view",
      "type": "function",
      "constant": true
    },
    {
      "inputs": [
        {
          "internalType": "string",
          "name": "_batchName",
          "type": "string"
        },
        {
          "internalType": "uint256",
          "name": "_productId",
          "type": "uint256"
        },
        {
          "internalType": "uint256",
          "name": "_producerId",
          "type": "uint256"
        },
        {
          "internalType": "uint256",
          "name": "_quantity",
          "type": "uint256"
        },
        {
          "internalType": "uint256",
          "name": "_productionDate",
          "type": "uint256"
        },
        {
          "internalType": "uint256",
          "name": "_expireDate",
          "type": "uint256"
        },
        {
          "internalType": "address",
          "name": "_approver",
          "type": "address"
        },
        {
          "internalType": "string",
          "name": "_productionAddress",
          "type": "string"
        }
      ],
      "name": "createBatch",
      "outputs": [],
      "stateMutability": "nonpayable",
      "type": "function"
    },
    {
      "inputs": [
        {
          "internalType": "uint256",
          "name": "_batchId",
          "type": "uint256"
        },
        {
          "internalType": "enum SupplyChain.BatchStatus",
          "name": "_status",
          "type": "uint8"
        }
      ],
      "name": "updateBatchStatus",
      "outputs": [],
      "stateMutability": "nonpayable",
      "type": "function"
    }
  ],
  "bytecode": "0x608060405234801561001057600080fd5b5061130e806100206000396000f3fe608060405234801561001057600080fd5b506004361061004c5760003560e01c806352c88f361461005157806360f9d5541461006d5780638462a7f814610089578063b32c4d8d146100a7575b600080fd5b61006b60048036038101906100669190610aff565b6100e2565b005b610087600480360381019061008291906109f4565b6102d9565b005b61009161066f565b60405161009e9190610e53565b60405180910390f35b6100c160048036038101906100bc9190610ad6565b610675565b6040516100d99c9b9a99989796959493929190610ea5565b60405180910390f35b816000818154811061011d577f4e487b7100000000000000000000000000000000000000000000000000000000600052603260045260246000fd5b90600052602060002090600c0201600a0160009054906101000a900473ffffffffffffffffffffffffffffffffffffffff1673ffffffffffffffffffffffffffffffffffffffff163373ffffffffffffffffffffffffffffffffffffffff16146101bc576040517f08c379a00000000000000000000000000000000000000000000000000000000081526004016101b390610d93565b60405180910390fd5b6001548310610200576040517f08c379a00000000000000000000000000000000000000000000000000000000081526004016101f790610e33565b60405180910390fd5b816000848154811061023b577f4e487b7100000000000000000000000000000000000000000000000000000000600052603260045260246000fd5b90600052602060002090600c020160070160006101000a81548160ff02191690836003811115610294577f4e487b7100000000000000000000000000000000000000000000000000000000600052602160045260246000fd5b02179055507f53abf7e786b8d7e0b5df0017a30d110cdbf586f60ae1d09363beb652278edba38383426040516102cc93929190610e6e565b60405180910390a1505050565b600088511161031d576040517f08c379a000000000000000000000000000000000000000000000000000000000815260040161031490610dd3565b60405180910390fd5b60008511610360576040517f08c379a000000000000000000000000000000000000000000000000000000000815260040161035790610df3565b60405180910390fd5b8284106103a2576040517f08c379a000000000000000000000000000000000000000000000000000000000815260040161039990610db3565b60405180910390fd5b60008151116103e6576040517f08c379a00000000000000000000000000000000000000000000000000000000081526004016103dd90610e13565b60405180910390fd5b600060405180610180016040528060015481526020018a81526020018981526020018881526020018781526020018681526020018581526020016001600381111561045a577f4e487b7100000000000000000000000000000000000000000000000000000000600052602160045260246000fd5b81526020014281526020016040518060200160405280600081525081526020018473ffffffffffffffffffffffffffffffffffffffff1681526020018381525090806001815401808255809150506001900390600052602060002090600c02016000909190919091506000820151816000015560208201518160010190805190602001906104e99291906108aa565b5060408201518160020155606082015181600301556080820151816004015560a0820151816005015560c0820151816006015560e08201518160070160006101000a81548160ff0219169083600381111561056d577f4e487b7100000000000000000000000000000000000000000000000000000000600052602160045260246000fd5b0217905550610100820151816008015561012082015181600901908051906020019061059a9291906108aa565b5061014082015181600a0160006101000a81548173ffffffffffffffffffffffffffffffffffffffff021916908373ffffffffffffffffffffffffffffffffffffffff16021790555061016082015181600b0190805190602001906106009291906108aa565b5050507e6b1f679f9661383af5e27376c018c8f8b05daf619f7d265b657b46b8f74d71600154898989898989428a8a6040516106459a99989796959493929190610f74565b60405180910390a16001600081548092919061066090611170565b91905055505050505050505050565b60015481565b6000818154811061068557600080fd5b90600052602060002090600c02016000915090508060000154908060010180546106ae9061113e565b80601f01602080910402602001604051908101604052809291908181526020018280546106da9061113e565b80156107275780601f106106fc57610100808354040283529160200191610727565b820191906000526020600020905b81548152906001019060200180831161070a57829003601f168201915b5050505050908060020154908060030154908060040154908060050154908060060154908060070160009054906101000a900460ff16908060080154908060090180546107739061113e565b80601f016020809104026020016040519081016040528092919081815260200182805461079f9061113e565b80156107ec5780601f106107c1576101008083540402835291602001916107ec565b820191906000526020600020905b8154815290600101906020018083116107cf57829003601f168201915b50505050509080600a0160009054906101000a900473ffffffffffffffffffffffffffffffffffffffff169080600b0180546108279061113e565b80601f01602080910402602001604051908101604052809291908181526020018280546108539061113e565b80156108a05780601f10610875576101008083540402835291602001916108a0565b820191906000526020600020905b81548152906001019060200180831161088357829003601f168201915b505050505090508c565b8280546108b69061113e565b90600052602060002090601f0160209004810192826108d8576000855561091f565b82601f106108f157805160ff191683800117855561091f565b8280016001018555821561091f579182015b8281111561091e578251825591602001919060010190610903565b5b50905061092c9190610930565b5090565b5b80821115610949576000816000905550600101610931565b5090565b600061096061095b8461104f565b61101e565b90508281526020810184848401111561097857600080fd5b6109838482856110fc565b509392505050565b60008135905061099a8161129a565b92915050565b6000813590506109af816112b1565b92915050565b600082601f8301126109c657600080fd5b81356109d684826020860161094d565b91505092915050565b6000813590506109ee816112c1565b92915050565b600080600080600080600080610100898b031215610a1157600080fd5b600089013567ffffffffffffffff811115610a2b57600080fd5b610a378b828c016109b5565b9850506020610a488b828c016109df565b9750506040610a598b828c016109df565b9650506060610a6a8b828c016109df565b9550506080610a7b8b828c016109df565b94505060a0610a8c8b828c016109df565b93505060c0610a9d8b828c0161098b565b92505060e089013567ffffffffffffffff811115610aba57600080fd5b610ac68b828c016109b5565b9150509295985092959890939650565b600060208284031215610ae857600080fd5b6000610af6848285016109df565b91505092915050565b60008060408385031215610b1257600080fd5b6000610b20858286016109df565b9250506020610b31858286016109a0565b9150509250929050565b610b448161109b565b82525050565b610b53816110ea565b82525050565b6000610b648261107f565b610b6e818561108a565b9350610b7e81856020860161110b565b610b8781611275565b840191505092915050565b6000610b9f60298361108a565b91507f4f6e6c792074686520617070726f7665722063616e20706572666f726d20746860008301527f697320616374696f6e00000000000000000000000000000000000000000000006020830152604082019050919050565b6000610c05602a8361108a565b91507f50726f64756374696f6e2064617465206d757374206265206265666f7265206560008301527f78706972652064617465000000000000000000000000000000000000000000006020830152604082019050919050565b6000610c6b60168361108a565b91507f4261746368206e616d65206973207265717569726564000000000000000000006000830152602082019050919050565b6000610cab60228361108a565b91507f5175616e74697479206d7573742062652067726561746572207468616e207a6560008301527f726f0000000000000000000000000000000000000000000000000000000000006020830152604082019050919050565b6000610d11601e8361108a565b91507f50726f64756374696f6e206164647265737320697320726571756972656400006000830152602082019050919050565b6000610d5160108361108a565b91507f496e76616c6964206261746368204944000000000000000000000000000000006000830152602082019050919050565b610d8d816110e0565b82525050565b60006020820190508181036000830152610dac81610b92565b9050919050565b60006020820190508181036000830152610dcc81610bf8565b9050919050565b60006020820190508181036000830152610dec81610c5e565b9050919050565b60006020820190508181036000830152610e0c81610c9e565b9050919050565b60006020820190508181036000830152610e2c81610d04565b9050919050565b60006020820190508181036000830152610e4c81610d44565b9050919050565b6000602082019050610e686000830184610d84565b92915050565b6000606082019050610e836000830186610d84565b610e906020830185610b4a565b610e9d6040830184610d84565b949350505050565b600061018082019050610ebb600083018f610d84565b8181036020830152610ecd818e610b59565b9050610edc604083018d610d84565b610ee9606083018c610d84565b610ef6608083018b610d84565b610f0360a083018a610d84565b610f1060c0830189610d84565b610f1d60e0830188610b4a565b610f2b610100830187610d84565b818103610120830152610f3e8186610b59565b9050610f4e610140830185610b3b565b818103610160830152610f618184610b59565b90509d9c50505050505050505050505050565b600061014082019050610f8a600083018d610d84565b8181036020830152610f9c818c610b59565b9050610fab604083018b610d84565b610fb8606083018a610d84565b610fc56080830189610d84565b610fd260a0830188610d84565b610fdf60c0830187610d84565b610fec60e0830186610d84565b610ffa610100830185610b3b565b81810361012083015261100d8184610b59565b90509b9a5050505050505050505050565b6000604051905081810181811067ffffffffffffffff8211171561104557611044611246565b5b8060405250919050565b600067ffffffffffffffff82111561106a57611069611246565b5b601f19601f8301169050602081019050919050565b600081519050919050565b600082825260208201905092915050565b60006110a6826110c0565b9050919050565b60008190506110bb82611286565b919050565b600073ffffffffffffffffffffffffffffffffffffffff82169050919050565b6000819050919050565b60006110f5826110ad565b9050919050565b82818337600083830152505050565b60005b8381101561112957808201518184015260208101905061110e565b83811115611138576000848401525b50505050565b6000600282049050600182168061115657607f821691505b6020821081141561116a57611169611217565b5b50919050565b600061117b826110e0565b91507fffffffffffffffffffffffffffffffffffffffffffffffffffffffffffffffff8214156111ae576111ad6111b9565b5b600182019050919050565b7f4e487b7100000000000000000000000000000000000000000000000000000000600052601160045260246000fd5b7f4e487b7100000000000000000000000000000000000000000000000000000000600052602160045260246000fd5b7f4e487b7100000000000000000000000000000000000000000000000000000000600052602260045260246000fd5b7f4e487b7100000000000000000000000000000000000000000000000000000000600052604160045260246000fd5b6000601f19601f8301169050919050565b60048110611297576112966111e8565b5b50565b6112a38161109b565b81146112ae57600080fd5b50565b600481106112be57600080fd5b50565b6112ca816110e0565b81146112d557600080fd5b5056fea264697066735822122041a28591f22911da665d117a13701a51626fe9664f5c48636f45d0afaa908f9664736f6c63430008000033",
  "immutableReferences": {},
  "source": "// SPDX-License-Identifier: MIT\r\npragma solidity ^0.8.0;\r\n\r\ncontract SupplyChain {\r\n    enum BatchStatus { Created, PendingApproval, Approved, Rejected }\r\n\r\n    event BatchCreated(\r\n        uint batchId,\r\n        string batchName,\r\n        uint productId,\r\n        uint producerId,\r\n        uint quantity,\r\n        uint productionDate,\r\n        uint expireDate,\r\n        uint timestamp,\r\n        address approver,\r\n        string productionAddress\r\n    );\r\n\r\n    event BatchStatusUpdated(\r\n        uint batchId,\r\n        BatchStatus status,\r\n        uint timestamp\r\n    );\r\n\r\n    struct Batch {\r\n        uint batchId;\r\n        string batchName;\r\n        uint productId;\r\n        uint producerId;\r\n        uint quantity;\r\n        uint productionDate;\r\n        uint expireDate;\r\n        BatchStatus status;\r\n        uint timestamp;\r\n        string sscc;\r\n        address approver;\r\n        string productionAddress;\r\n    }\r\n\r\n    Batch[] public batches;\r\n    uint public nextBatchId;\r\n\r\n    modifier onlyApprover(uint _batchId) {\r\n        require(msg.sender == batches[_batchId].approver, \"Only the approver can perform this action\");\r\n        _;\r\n    }\r\n\r\n    function createBatch(\r\n        string memory _batchName,\r\n        uint _productId,\r\n        uint _producerId,\r\n        uint _quantity,\r\n        uint _productionDate,\r\n        uint _expireDate,\r\n        address _approver,\r\n        string memory _productionAddress\r\n    ) public {\r\n        require(bytes(_batchName).length > 0, \"Batch name is required\");\r\n        require(_quantity > 0, \"Quantity must be greater than zero\");\r\n        require(_productionDate < _expireDate, \"Production date must be before expire date\");\r\n        require(bytes(_productionAddress).length > 0, \"Production address is required\");\r\n\r\n        batches.push(Batch({\r\n            batchId: nextBatchId,\r\n            batchName: _batchName,\r\n            productId: _productId,\r\n            producerId: _producerId,\r\n            quantity: _quantity,\r\n            productionDate: _productionDate,\r\n            expireDate: _expireDate,\r\n            status: BatchStatus.PendingApproval,\r\n            timestamp: block.timestamp,\r\n            sscc: \"\",\r\n            approver: _approver,\r\n            productionAddress: _productionAddress\r\n        }));\r\n\r\n        emit BatchCreated(\r\n            nextBatchId,\r\n            _batchName,\r\n            _productId,\r\n            _producerId,\r\n            _quantity,\r\n            _productionDate,\r\n            _expireDate,\r\n            block.timestamp,\r\n            _approver,\r\n            _productionAddress\r\n        );\r\n\r\n        nextBatchId++;\r\n    }\r\n\r\n    function updateBatchStatus(uint _batchId, BatchStatus _status) public onlyApprover(_batchId) {\r\n        require(_batchId < nextBatchId, \"Invalid batch ID\");\r\n        batches[_batchId].status = _status;\r\n        emit BatchStatusUpdated(_batchId, _status, block.timestamp);\r\n    }\r\n}",
  "sourcePath": "D:\\projects\\nckh-be\\blockchain\\contracts\\supplychain.sol",
  "compiler": {
    "name": "solc",
    "version": "0.8.0+commit.c7dfd78e.Emscripten.clang"
  },
  "schemaVersion": "3.4.16",
  "updatedAt": "2024-08-29T11:10:14.715Z",
  "networkType": "ethereum",
  "devdoc": {
    "kind": "dev",
    "methods": {},
    "version": 1
  },
  "userdoc": {
    "kind": "user",
    "methods": {},
    "version": 1
  }
}