{
  "contractName": "TraceabilityContract",
  "abi": [
    {
      "anonymous": false,
      "inputs": [
        {
          "indexed": true,
          "internalType": "uint256",
          "name": "uid",
          "type": "uint256"
        },
        {
          "indexed": false,
          "internalType": "string",
          "name": "activityName",
          "type": "string"
        },
        {
          "indexed": false,
          "internalType": "string",
          "name": "description",
          "type": "string"
        },
        {
          "indexed": false,
          "internalType": "bool",
          "name": "isSystemGenerated",
          "type": "bool"
        },
        {
          "indexed": false,
          "internalType": "string[]",
          "name": "imageUrls",
          "type": "string[]"
        },
        {
          "indexed": false,
          "internalType": "uint256[]",
          "name": "relatedProductIds",
          "type": "uint256[]"
        }
      ],
      "name": "ActivityLogAdded",
      "type": "event"
    },
    {
      "anonymous": false,
      "inputs": [
        {
          "indexed": true,
          "internalType": "uint256",
          "name": "batchId",
          "type": "uint256"
        },
        {
          "indexed": true,
          "internalType": "uint256",
          "name": "producerId",
          "type": "uint256"
        },
        {
          "indexed": false,
          "internalType": "string",
          "name": "sscc",
          "type": "string"
        }
      ],
      "name": "BatchApproved",
      "type": "event"
    },
    {
      "anonymous": false,
      "inputs": [
        {
          "indexed": true,
          "internalType": "uint256",
          "name": "batchId",
          "type": "uint256"
        },
        {
          "indexed": true,
          "internalType": "uint256",
          "name": "producerId",
          "type": "uint256"
        },
        {
          "indexed": false,
          "internalType": "string",
          "name": "sscc",
          "type": "string"
        }
      ],
      "name": "BatchApprovedForQR",
      "type": "event"
    },
    {
      "anonymous": false,
      "inputs": [
        {
          "indexed": true,
          "internalType": "uint256",
          "name": "batchId",
          "type": "uint256"
        },
        {
          "indexed": false,
          "internalType": "string",
          "name": "sscc",
          "type": "string"
        },
        {
          "indexed": false,
          "internalType": "uint256",
          "name": "producerId",
          "type": "uint256"
        }
      ],
      "name": "BatchCreated",
      "type": "event"
    },
    {
      "anonymous": false,
      "inputs": [
        {
          "indexed": true,
          "internalType": "uint256",
          "name": "batchId",
          "type": "uint256"
        },
        {
          "indexed": false,
          "internalType": "uint256",
          "name": "producerId",
          "type": "uint256"
        },
        {
          "indexed": false,
          "internalType": "string",
          "name": "sscc",
          "type": "string"
        }
      ],
      "name": "BatchRejected",
      "type": "event"
    },
    {
      "anonymous": false,
      "inputs": [
        {
          "indexed": true,
          "internalType": "uint256",
          "name": "batchId",
          "type": "uint256"
        },
        {
          "indexed": false,
          "internalType": "enum TraceabilityContract.BatchStatus",
          "name": "newStatus",
          "type": "uint8"
        }
      ],
      "name": "BatchStatusUpdated",
      "type": "event"
    },
    {
      "anonymous": false,
      "inputs": [
        {
          "indexed": true,
          "internalType": "uint256",
          "name": "batchId",
          "type": "uint256"
        },
        {
          "indexed": false,
          "internalType": "string",
          "name": "participantType",
          "type": "string"
        }
      ],
      "name": "LogParticipantType",
      "type": "event"
    },
    {
      "anonymous": false,
      "inputs": [
        {
          "indexed": true,
          "internalType": "uint256",
          "name": "batchId",
          "type": "uint256"
        },
        {
          "indexed": false,
          "internalType": "uint256",
          "name": "participantId",
          "type": "uint256"
        },
        {
          "indexed": false,
          "internalType": "string",
          "name": "participantType",
          "type": "string"
        },
        {
          "indexed": false,
          "internalType": "string",
          "name": "action",
          "type": "string"
        }
      ],
      "name": "ParticipationRecorded",
      "type": "event"
    },
    {
      "anonymous": false,
      "inputs": [
        {
          "indexed": true,
          "internalType": "uint256",
          "name": "batchId",
          "type": "uint256"
        },
        {
          "indexed": false,
          "internalType": "enum TraceabilityContract.DetailedTransportStatus",
          "name": "newStatus",
          "type": "uint8"
        },
        {
          "indexed": false,
          "internalType": "string",
          "name": "action",
          "type": "string"
        },
        {
          "indexed": false,
          "internalType": "uint256",
          "name": "participantId",
          "type": "uint256"
        },
        {
          "indexed": false,
          "internalType": "string",
          "name": "participantType",
          "type": "string"
        }
      ],
      "name": "TransportStatusUpdated",
      "type": "event"
    },
    {
      "inputs": [
        {
          "internalType": "string",
          "name": "_name",
          "type": "string"
        },
        {
          "internalType": "uint256",
          "name": "_producerId",
          "type": "uint256"
        },
        {
          "internalType": "string",
          "name": "_quantity",
          "type": "string"
        },
        {
          "internalType": "string[]",
          "name": "_productImageUrls",
          "type": "string[]"
        },
        {
          "internalType": "string",
          "name": "_certificateImageUrl",
          "type": "string"
        },
        {
          "internalType": "string",
          "name": "_farmPlotNumber",
          "type": "string"
        },
        {
          "internalType": "uint256",
          "name": "_productId",
          "type": "uint256"
        },
        {
          "internalType": "uint256",
          "name": "_startDate",
          "type": "uint256"
        },
        {
          "internalType": "uint256",
          "name": "_endDate",
          "type": "uint256"
        }
      ],
      "name": "createBatch",
      "outputs": [
        {
          "internalType": "uint256",
          "name": "",
          "type": "uint256"
        }
      ],
      "stateMutability": "nonpayable",
      "type": "function"
    },
    {
      "inputs": [
        {
          "internalType": "uint256",
          "name": "_uid",
          "type": "uint256"
        },
        {
          "internalType": "string",
          "name": "_activityName",
          "type": "string"
        },
        {
          "internalType": "string",
          "name": "_description",
          "type": "string"
        },
        {
          "internalType": "string[]",
          "name": "_imageUrls",
          "type": "string[]"
        },
        {
          "internalType": "uint256[]",
          "name": "_relatedProductIds",
          "type": "uint256[]"
        }
      ],
      "name": "addActivityLog",
      "outputs": [],
      "stateMutability": "nonpayable",
      "type": "function"
    },
    {
      "inputs": [
        {
          "internalType": "uint256",
          "name": "_uid",
          "type": "uint256"
        }
      ],
      "name": "getProducerActivityLogs",
      "outputs": [
        {
          "components": [
            {
              "internalType": "uint256",
              "name": "timestamp",
              "type": "uint256"
            },
            {
              "internalType": "uint256",
              "name": "uid",
              "type": "uint256"
            },
            {
              "internalType": "string",
              "name": "activityName",
              "type": "string"
            },
            {
              "internalType": "string",
              "name": "description",
              "type": "string"
            },
            {
              "internalType": "bool",
              "name": "isSystemGenerated",
              "type": "bool"
            },
            {
              "internalType": "string[]",
              "name": "imageUrls",
              "type": "string[]"
            },
            {
              "internalType": "uint256[]",
              "name": "relatedProductIds",
              "type": "uint256[]"
            }
          ],
          "internalType": "struct TraceabilityContract.ActivityLog[]",
          "name": "",
          "type": "tuple[]"
        }
      ],
      "stateMutability": "view",
      "type": "function",
      "constant": true
    },
    {
      "inputs": [
        {
          "internalType": "string",
          "name": "sscc",
          "type": "string"
        }
      ],
      "name": "ssccExists",
      "outputs": [
        {
          "internalType": "bool",
          "name": "",
          "type": "bool"
        }
      ],
      "stateMutability": "view",
      "type": "function",
      "constant": true
    },
    {
      "inputs": [
        {
          "internalType": "uint256",
          "name": "producerId",
          "type": "uint256"
        }
      ],
      "name": "getBatchesByProducer",
      "outputs": [
        {
          "components": [
            {
              "internalType": "uint256",
              "name": "batchId",
              "type": "uint256"
            },
            {
              "internalType": "string",
              "name": "name",
              "type": "string"
            },
            {
              "internalType": "string",
              "name": "sscc",
              "type": "string"
            },
            {
              "internalType": "uint256",
              "name": "producerId",
              "type": "uint256"
            },
            {
              "internalType": "string",
              "name": "quantity",
              "type": "string"
            },
            {
              "internalType": "uint256",
              "name": "productionDate",
              "type": "uint256"
            },
            {
              "internalType": "uint256",
              "name": "startDate",
              "type": "uint256"
            },
            {
              "internalType": "uint256",
              "name": "endDate",
              "type": "uint256"
            },
            {
              "internalType": "enum TraceabilityContract.BatchStatus",
              "name": "status",
              "type": "uint8"
            },
            {
              "internalType": "string[]",
              "name": "productImageUrls",
              "type": "string[]"
            },
            {
              "internalType": "string",
              "name": "certificateImageUrl",
              "type": "string"
            },
            {
              "internalType": "string",
              "name": "farmPlotNumber",
              "type": "string"
            },
            {
              "internalType": "bytes32",
              "name": "dataHash",
              "type": "bytes32"
            },
            {
              "internalType": "uint256",
              "name": "productId",
              "type": "uint256"
            },
            {
              "internalType": "enum TraceabilityContract.TransportStatus",
              "name": "transportStatus",
              "type": "uint8"
            },
            {
              "internalType": "enum TraceabilityContract.DetailedTransportStatus",
              "name": "detailedTransportStatus",
              "type": "uint8"
            },
            {
              "internalType": "uint256",
              "name": "lastTransporterId",
              "type": "uint256"
            }
          ],
          "internalType": "struct TraceabilityContract.Batch[]",
          "name": "",
          "type": "tuple[]"
        }
      ],
      "stateMutability": "view",
      "type": "function",
      "constant": true
    },
    {
      "inputs": [
        {
          "internalType": "uint256",
          "name": "_batchId",
          "type": "uint256"
        },
        {
          "internalType": "enum TraceabilityContract.BatchStatus",
          "name": "_newStatus",
          "type": "uint8"
        }
      ],
      "name": "updateBatchStatus",
      "outputs": [],
      "stateMutability": "nonpayable",
      "type": "function"
    },
    {
      "inputs": [
        {
          "internalType": "uint256",
          "name": "_producerId",
          "type": "uint256"
        }
      ],
      "name": "getPendingBatchesByProducer",
      "outputs": [
        {
          "components": [
            {
              "internalType": "uint256",
              "name": "batchId",
              "type": "uint256"
            },
            {
              "internalType": "string",
              "name": "name",
              "type": "string"
            },
            {
              "internalType": "string",
              "name": "sscc",
              "type": "string"
            },
            {
              "internalType": "uint256",
              "name": "producerId",
              "type": "uint256"
            },
            {
              "internalType": "string",
              "name": "quantity",
              "type": "string"
            },
            {
              "internalType": "uint256",
              "name": "productionDate",
              "type": "uint256"
            },
            {
              "internalType": "uint256",
              "name": "startDate",
              "type": "uint256"
            },
            {
              "internalType": "uint256",
              "name": "endDate",
              "type": "uint256"
            },
            {
              "internalType": "enum TraceabilityContract.BatchStatus",
              "name": "status",
              "type": "uint8"
            },
            {
              "internalType": "string[]",
              "name": "productImageUrls",
              "type": "string[]"
            },
            {
              "internalType": "string",
              "name": "certificateImageUrl",
              "type": "string"
            },
            {
              "internalType": "string",
              "name": "farmPlotNumber",
              "type": "string"
            },
            {
              "internalType": "bytes32",
              "name": "dataHash",
              "type": "bytes32"
            },
            {
              "internalType": "uint256",
              "name": "productId",
              "type": "uint256"
            },
            {
              "internalType": "enum TraceabilityContract.TransportStatus",
              "name": "transportStatus",
              "type": "uint8"
            },
            {
              "internalType": "enum TraceabilityContract.DetailedTransportStatus",
              "name": "detailedTransportStatus",
              "type": "uint8"
            },
            {
              "internalType": "uint256",
              "name": "lastTransporterId",
              "type": "uint256"
            }
          ],
          "internalType": "struct TraceabilityContract.Batch[]",
          "name": "",
          "type": "tuple[]"
        }
      ],
      "stateMutability": "view",
      "type": "function",
      "constant": true
    },
    {
      "inputs": [
        {
          "internalType": "uint256",
          "name": "_producerId",
          "type": "uint256"
        }
      ],
      "name": "getRejectedBatchesByProducer",
      "outputs": [
        {
          "components": [
            {
              "internalType": "uint256",
              "name": "batchId",
              "type": "uint256"
            },
            {
              "internalType": "string",
              "name": "name",
              "type": "string"
            },
            {
              "internalType": "string",
              "name": "sscc",
              "type": "string"
            },
            {
              "internalType": "uint256",
              "name": "producerId",
              "type": "uint256"
            },
            {
              "internalType": "string",
              "name": "quantity",
              "type": "string"
            },
            {
              "internalType": "uint256",
              "name": "productionDate",
              "type": "uint256"
            },
            {
              "internalType": "uint256",
              "name": "startDate",
              "type": "uint256"
            },
            {
              "internalType": "uint256",
              "name": "endDate",
              "type": "uint256"
            },
            {
              "internalType": "enum TraceabilityContract.BatchStatus",
              "name": "status",
              "type": "uint8"
            },
            {
              "internalType": "string[]",
              "name": "productImageUrls",
              "type": "string[]"
            },
            {
              "internalType": "string",
              "name": "certificateImageUrl",
              "type": "string"
            },
            {
              "internalType": "string",
              "name": "farmPlotNumber",
              "type": "string"
            },
            {
              "internalType": "bytes32",
              "name": "dataHash",
              "type": "bytes32"
            },
            {
              "internalType": "uint256",
              "name": "productId",
              "type": "uint256"
            },
            {
              "internalType": "enum TraceabilityContract.TransportStatus",
              "name": "transportStatus",
              "type": "uint8"
            },
            {
              "internalType": "enum TraceabilityContract.DetailedTransportStatus",
              "name": "detailedTransportStatus",
              "type": "uint8"
            },
            {
              "internalType": "uint256",
              "name": "lastTransporterId",
              "type": "uint256"
            }
          ],
          "internalType": "struct TraceabilityContract.Batch[]",
          "name": "",
          "type": "tuple[]"
        }
      ],
      "stateMutability": "view",
      "type": "function",
      "constant": true
    },
    {
      "inputs": [],
      "name": "getAllPendingBatches",
      "outputs": [
        {
          "components": [
            {
              "internalType": "uint256",
              "name": "batchId",
              "type": "uint256"
            },
            {
              "internalType": "string",
              "name": "name",
              "type": "string"
            },
            {
              "internalType": "string",
              "name": "sscc",
              "type": "string"
            },
            {
              "internalType": "uint256",
              "name": "producerId",
              "type": "uint256"
            },
            {
              "internalType": "string",
              "name": "quantity",
              "type": "string"
            },
            {
              "internalType": "uint256",
              "name": "productionDate",
              "type": "uint256"
            },
            {
              "internalType": "uint256",
              "name": "startDate",
              "type": "uint256"
            },
            {
              "internalType": "uint256",
              "name": "endDate",
              "type": "uint256"
            },
            {
              "internalType": "enum TraceabilityContract.BatchStatus",
              "name": "status",
              "type": "uint8"
            },
            {
              "internalType": "string[]",
              "name": "productImageUrls",
              "type": "string[]"
            },
            {
              "internalType": "string",
              "name": "certificateImageUrl",
              "type": "string"
            },
            {
              "internalType": "string",
              "name": "farmPlotNumber",
              "type": "string"
            },
            {
              "internalType": "bytes32",
              "name": "dataHash",
              "type": "bytes32"
            },
            {
              "internalType": "uint256",
              "name": "productId",
              "type": "uint256"
            },
            {
              "internalType": "enum TraceabilityContract.TransportStatus",
              "name": "transportStatus",
              "type": "uint8"
            },
            {
              "internalType": "enum TraceabilityContract.DetailedTransportStatus",
              "name": "detailedTransportStatus",
              "type": "uint8"
            },
            {
              "internalType": "uint256",
              "name": "lastTransporterId",
              "type": "uint256"
            }
          ],
          "internalType": "struct TraceabilityContract.Batch[]",
          "name": "",
          "type": "tuple[]"
        }
      ],
      "stateMutability": "view",
      "type": "function",
      "constant": true
    },
    {
      "inputs": [
        {
          "internalType": "uint256",
          "name": "_batchId",
          "type": "uint256"
        }
      ],
      "name": "getBatchDetails",
      "outputs": [
        {
          "components": [
            {
              "internalType": "uint256",
              "name": "batchId",
              "type": "uint256"
            },
            {
              "internalType": "string",
              "name": "name",
              "type": "string"
            },
            {
              "internalType": "string",
              "name": "sscc",
              "type": "string"
            },
            {
              "internalType": "uint256",
              "name": "producerId",
              "type": "uint256"
            },
            {
              "internalType": "string",
              "name": "quantity",
              "type": "string"
            },
            {
              "internalType": "uint256",
              "name": "productionDate",
              "type": "uint256"
            },
            {
              "internalType": "uint256",
              "name": "startDate",
              "type": "uint256"
            },
            {
              "internalType": "uint256",
              "name": "endDate",
              "type": "uint256"
            },
            {
              "internalType": "enum TraceabilityContract.BatchStatus",
              "name": "status",
              "type": "uint8"
            },
            {
              "internalType": "string[]",
              "name": "productImageUrls",
              "type": "string[]"
            },
            {
              "internalType": "string",
              "name": "certificateImageUrl",
              "type": "string"
            },
            {
              "internalType": "string",
              "name": "farmPlotNumber",
              "type": "string"
            },
            {
              "internalType": "bytes32",
              "name": "dataHash",
              "type": "bytes32"
            },
            {
              "internalType": "uint256",
              "name": "productId",
              "type": "uint256"
            },
            {
              "internalType": "enum TraceabilityContract.TransportStatus",
              "name": "transportStatus",
              "type": "uint8"
            },
            {
              "internalType": "enum TraceabilityContract.DetailedTransportStatus",
              "name": "detailedTransportStatus",
              "type": "uint8"
            },
            {
              "internalType": "uint256",
              "name": "lastTransporterId",
              "type": "uint256"
            }
          ],
          "internalType": "struct TraceabilityContract.Batch",
          "name": "",
          "type": "tuple"
        }
      ],
      "stateMutability": "view",
      "type": "function",
      "constant": true
    },
    {
      "inputs": [],
      "name": "getTotalBatches",
      "outputs": [
        {
          "internalType": "uint256",
          "name": "",
          "type": "uint256"
        }
      ],
      "stateMutability": "view",
      "type": "function",
      "constant": true
    },
    {
      "inputs": [
        {
          "internalType": "uint256",
          "name": "_batchId",
          "type": "uint256"
        },
        {
          "internalType": "uint256",
          "name": "_producerId",
          "type": "uint256"
        }
      ],
      "name": "isProducerOfBatch",
      "outputs": [
        {
          "internalType": "bool",
          "name": "",
          "type": "bool"
        }
      ],
      "stateMutability": "view",
      "type": "function",
      "constant": true
    },
    {
      "inputs": [
        {
          "internalType": "uint256",
          "name": "_uid",
          "type": "uint256"
        }
      ],
      "name": "getActivityLogs",
      "outputs": [
        {
          "components": [
            {
              "internalType": "uint256",
              "name": "timestamp",
              "type": "uint256"
            },
            {
              "internalType": "uint256",
              "name": "uid",
              "type": "uint256"
            },
            {
              "internalType": "string",
              "name": "activityName",
              "type": "string"
            },
            {
              "internalType": "string",
              "name": "description",
              "type": "string"
            },
            {
              "internalType": "bool",
              "name": "isSystemGenerated",
              "type": "bool"
            },
            {
              "internalType": "string[]",
              "name": "imageUrls",
              "type": "string[]"
            },
            {
              "internalType": "uint256[]",
              "name": "relatedProductIds",
              "type": "uint256[]"
            }
          ],
          "internalType": "struct TraceabilityContract.ActivityLog[]",
          "name": "",
          "type": "tuple[]"
        }
      ],
      "stateMutability": "view",
      "type": "function",
      "constant": true
    },
    {
      "inputs": [
        {
          "internalType": "uint256",
          "name": "_uid",
          "type": "uint256"
        }
      ],
      "name": "getActivityLogCount",
      "outputs": [
        {
          "internalType": "uint256",
          "name": "",
          "type": "uint256"
        }
      ],
      "stateMutability": "view",
      "type": "function",
      "constant": true
    },
    {
      "inputs": [
        {
          "internalType": "uint256",
          "name": "_batchId",
          "type": "uint256"
        }
      ],
      "name": "approveBatch",
      "outputs": [],
      "stateMutability": "nonpayable",
      "type": "function"
    },
    {
      "inputs": [
        {
          "internalType": "uint256",
          "name": "_batchId",
          "type": "uint256"
        }
      ],
      "name": "rejectBatch",
      "outputs": [],
      "stateMutability": "nonpayable",
      "type": "function"
    },
    {
      "inputs": [
        {
          "internalType": "uint256",
          "name": "_producerId",
          "type": "uint256"
        }
      ],
      "name": "getApprovedBatchesByProducer",
      "outputs": [
        {
          "components": [
            {
              "internalType": "uint256",
              "name": "batchId",
              "type": "uint256"
            },
            {
              "internalType": "string",
              "name": "name",
              "type": "string"
            },
            {
              "internalType": "string",
              "name": "sscc",
              "type": "string"
            },
            {
              "internalType": "uint256",
              "name": "producerId",
              "type": "uint256"
            },
            {
              "internalType": "string",
              "name": "quantity",
              "type": "string"
            },
            {
              "internalType": "uint256",
              "name": "productionDate",
              "type": "uint256"
            },
            {
              "internalType": "uint256",
              "name": "startDate",
              "type": "uint256"
            },
            {
              "internalType": "uint256",
              "name": "endDate",
              "type": "uint256"
            },
            {
              "internalType": "enum TraceabilityContract.BatchStatus",
              "name": "status",
              "type": "uint8"
            },
            {
              "internalType": "string[]",
              "name": "productImageUrls",
              "type": "string[]"
            },
            {
              "internalType": "string",
              "name": "certificateImageUrl",
              "type": "string"
            },
            {
              "internalType": "string",
              "name": "farmPlotNumber",
              "type": "string"
            },
            {
              "internalType": "bytes32",
              "name": "dataHash",
              "type": "bytes32"
            },
            {
              "internalType": "uint256",
              "name": "productId",
              "type": "uint256"
            },
            {
              "internalType": "enum TraceabilityContract.TransportStatus",
              "name": "transportStatus",
              "type": "uint8"
            },
            {
              "internalType": "enum TraceabilityContract.DetailedTransportStatus",
              "name": "detailedTransportStatus",
              "type": "uint8"
            },
            {
              "internalType": "uint256",
              "name": "lastTransporterId",
              "type": "uint256"
            }
          ],
          "internalType": "struct TraceabilityContract.Batch[]",
          "name": "",
          "type": "tuple[]"
        }
      ],
      "stateMutability": "view",
      "type": "function",
      "constant": true
    },
    {
      "inputs": [
        {
          "internalType": "string",
          "name": "_sscc",
          "type": "string"
        }
      ],
      "name": "getBatchBySSCC",
      "outputs": [
        {
          "components": [
            {
              "internalType": "uint256",
              "name": "batchId",
              "type": "uint256"
            },
            {
              "internalType": "string",
              "name": "name",
              "type": "string"
            },
            {
              "internalType": "string",
              "name": "sscc",
              "type": "string"
            },
            {
              "internalType": "uint256",
              "name": "producerId",
              "type": "uint256"
            },
            {
              "internalType": "string",
              "name": "quantity",
              "type": "string"
            },
            {
              "internalType": "uint256",
              "name": "productionDate",
              "type": "uint256"
            },
            {
              "internalType": "uint256",
              "name": "startDate",
              "type": "uint256"
            },
            {
              "internalType": "uint256",
              "name": "endDate",
              "type": "uint256"
            },
            {
              "internalType": "enum TraceabilityContract.BatchStatus",
              "name": "status",
              "type": "uint8"
            },
            {
              "internalType": "string[]",
              "name": "productImageUrls",
              "type": "string[]"
            },
            {
              "internalType": "string",
              "name": "certificateImageUrl",
              "type": "string"
            },
            {
              "internalType": "string",
              "name": "farmPlotNumber",
              "type": "string"
            },
            {
              "internalType": "bytes32",
              "name": "dataHash",
              "type": "bytes32"
            },
            {
              "internalType": "uint256",
              "name": "productId",
              "type": "uint256"
            },
            {
              "internalType": "enum TraceabilityContract.TransportStatus",
              "name": "transportStatus",
              "type": "uint8"
            },
            {
              "internalType": "enum TraceabilityContract.DetailedTransportStatus",
              "name": "detailedTransportStatus",
              "type": "uint8"
            },
            {
              "internalType": "uint256",
              "name": "lastTransporterId",
              "type": "uint256"
            }
          ],
          "internalType": "struct TraceabilityContract.Batch",
          "name": "",
          "type": "tuple"
        }
      ],
      "stateMutability": "view",
      "type": "function",
      "constant": true
    },
    {
      "inputs": [
        {
          "internalType": "string",
          "name": "_sscc",
          "type": "string"
        }
      ],
      "name": "isValidSSCC",
      "outputs": [
        {
          "internalType": "bool",
          "name": "",
          "type": "bool"
        }
      ],
      "stateMutability": "view",
      "type": "function",
      "constant": true
    },
    {
      "inputs": [
        {
          "internalType": "uint256",
          "name": "_batchId",
          "type": "uint256"
        }
      ],
      "name": "isBatchApproved",
      "outputs": [
        {
          "internalType": "bool",
          "name": "",
          "type": "bool"
        }
      ],
      "stateMutability": "view",
      "type": "function",
      "constant": true
    },
    {
      "inputs": [
        {
          "internalType": "uint256",
          "name": "_batchId",
          "type": "uint256"
        },
        {
          "internalType": "uint256",
          "name": "_participantId",
          "type": "uint256"
        },
        {
          "internalType": "string",
          "name": "_participantType",
          "type": "string"
        },
        {
          "internalType": "string",
          "name": "_action",
          "type": "string"
        }
      ],
      "name": "recordParticipation",
      "outputs": [],
      "stateMutability": "nonpayable",
      "type": "function"
    },
    {
      "inputs": [
        {
          "internalType": "uint256",
          "name": "_batchId",
          "type": "uint256"
        },
        {
          "internalType": "uint256",
          "name": "_participantId",
          "type": "uint256"
        },
        {
          "internalType": "string",
          "name": "_action",
          "type": "string"
        },
        {
          "internalType": "string",
          "name": "_participantType",
          "type": "string"
        }
      ],
      "name": "updateTransportStatus",
      "outputs": [],
      "stateMutability": "nonpayable",
      "type": "function"
    },
    {
      "inputs": [
        {
          "internalType": "string",
          "name": "_sscc",
          "type": "string"
        },
        {
          "internalType": "uint256",
          "name": "_participantId",
          "type": "uint256"
        },
        {
          "internalType": "string",
          "name": "_action",
          "type": "string"
        },
        {
          "internalType": "string",
          "name": "_participantType",
          "type": "string"
        }
      ],
      "name": "updateTransportStatusBySSCC",
      "outputs": [],
      "stateMutability": "nonpayable",
      "type": "function"
    },
    {
      "inputs": [
        {
          "internalType": "string",
          "name": "_sscc",
          "type": "string"
        }
      ],
      "name": "getBatchIdBySSCC",
      "outputs": [
        {
          "internalType": "uint256",
          "name": "",
          "type": "uint256"
        }
      ],
      "stateMutability": "view",
      "type": "function",
      "constant": true
    },
    {
      "inputs": [
        {
          "internalType": "uint256",
          "name": "_batchId",
          "type": "uint256"
        }
      ],
      "name": "getDetailedTransportStatus",
      "outputs": [
        {
          "internalType": "enum TraceabilityContract.DetailedTransportStatus",
          "name": "",
          "type": "uint8"
        }
      ],
      "stateMutability": "view",
      "type": "function",
      "constant": true
    },
    {
      "inputs": [
        {
          "internalType": "uint256",
          "name": "_batchId",
          "type": "uint256"
        },
        {
          "internalType": "uint256",
          "name": "_transporterId",
          "type": "uint256"
        }
      ],
      "name": "canStartTransport",
      "outputs": [
        {
          "internalType": "bool",
          "name": "",
          "type": "bool"
        }
      ],
      "stateMutability": "view",
      "type": "function",
      "constant": true
    },
    {
      "inputs": [
        {
          "internalType": "string",
          "name": "_sscc",
          "type": "string"
        }
      ],
      "name": "getTransportHistoryBySSCC",
      "outputs": [
        {
          "components": [
            {
              "internalType": "uint256",
              "name": "participantId",
              "type": "uint256"
            },
            {
              "internalType": "uint256",
              "name": "timestamp",
              "type": "uint256"
            },
            {
              "internalType": "string",
              "name": "action",
              "type": "string"
            },
            {
              "internalType": "string",
              "name": "participantType",
              "type": "string"
            }
          ],
          "internalType": "struct TraceabilityContract.TransportEvent[]",
          "name": "",
          "type": "tuple[]"
        }
      ],
      "stateMutability": "view",
      "type": "function",
      "constant": true
    },
    {
      "inputs": [
        {
          "internalType": "uint256",
          "name": "_batchId",
          "type": "uint256"
        }
      ],
      "name": "getBatchTransportStatus",
      "outputs": [
        {
          "internalType": "enum TraceabilityContract.TransportStatus",
          "name": "",
          "type": "uint8"
        }
      ],
      "stateMutability": "view",
      "type": "function",
      "constant": true
    }
  ],
  "bytecode": "0x608060405234801561001057600080fd5b50615dc280620000216000396000f3fe608060405234801561001057600080fd5b50600436106101c45760003560e01c806385bdd03f116100f9578063d040e18c11610097578063dd235d9d11610071578063dd235d9d14610403578063e561dddc14610416578063f7f097f41461041e578063f9b8da0e1461043157600080fd5b8063d040e18c146101c9578063d043b843146103dd578063d9860bfc146103f057600080fd5b8063a7732c96116100d3578063a7732c9614610384578063a7934786146103a4578063b82adf3b146103b7578063bf193ffa146103ca57600080fd5b806385bdd03f1461032457806397ae6a0e146103445780639d47dcc01461036457600080fd5b806347e2f863116101665780635a9c9d90116101405780635a9c9d90146102e35780635aa825aa146102f657806380e32d45146102fe578063838b1da31461031157600080fd5b806347e2f863146102a8578063510664ed146102bb57806352c88f36146102d057600080fd5b806319d6ed3c116101a257806319d6ed3c146102345780631bb93d1e146102555780632db53c9d1461027557806336c701e11461029557600080fd5b806304008078146101c95780630d82dcf4146101f15780630e6e369c14610214575b600080fd5b6101dc6101d7366004614eeb565b610456565b60405190151581526020015b60405180910390f35b6101dc6101ff366004614f27565b60009081526005602052604090205460ff1690565b610227610222366004614f27565b610480565b6040516101e89190615023565b610247610242366004614eeb565b610768565b6040519081526020016101e8565b610268610263366004614eeb565b610790565b6040516101e89190615102565b610288610283366004614f27565b61097d565b6040516101e89190615311565b6102476102a3366004615425565b610faf565b6102886102b6366004614f27565b611020565b6102ce6102c936600461551d565b611646565b005b6102ce6102de366004615593565b611b24565b6102ce6102f13660046155c7565b611bc5565b610288611c1b565b61028861030c366004614f27565b612210565b6102ce61031f366004614f27565b6127d6565b610247610332366004614f27565b60009081526004602052604090205490565b610357610352366004614f27565b61298e565b6040516101e8919061561d565b610377610372366004614f27565b6129d9565b6040516101e8919061562b565b610397610392366004614f27565b612ed6565b6040516101e8919061563e565b6101dc6103b2366004615651565b612f1c565b6102ce6103c536600461551d565b612fa5565b6102ce6103d8366004615673565b613092565b6102886103eb366004614f27565b6131bf565b6103776103fe366004614eeb565b6137eb565b6102ce610411366004614f27565b613cff565b600054610247565b61022761042c366004614f27565b613f1e565b6101dc61043f366004615651565b600091825260026020526040909120600301541490565b6000600382604051610468919061577f565b90815260405190819003602001902054151592915050565b606060046000838152602001908152602001600020805480602002602001604051908101604052809291908181526020016000905b8282101561075d57838290600052602060002090600702016040518060e001604052908160008201548152602001600182015481526020016002820180546104fc9061579b565b80601f01602080910402602001604051908101604052809291908181526020018280546105289061579b565b80156105755780601f1061054a57610100808354040283529160200191610575565b820191906000526020600020905b81548152906001019060200180831161055857829003601f168201915b5050505050815260200160038201805461058e9061579b565b80601f01602080910402602001604051908101604052809291908181526020018280546105ba9061579b565b80156106075780601f106105dc57610100808354040283529160200191610607565b820191906000526020600020905b8154815290600101906020018083116105ea57829003601f168201915b5050509183525050600482015460ff161515602080830191909152600583018054604080518285028101850182528281529401939260009084015b828210156106ee5783829060005260206000200180546106619061579b565b80601f016020809104026020016040519081016040528092919081815260200182805461068d9061579b565b80156106da5780601f106106af576101008083540402835291602001916106da565b820191906000526020600020905b8154815290600101906020018083116106bd57829003601f168201915b505050505081526020019060010190610642565b5050505081526020016006820180548060200260200160405190810160405280929190818152602001828054801561074557602002820191906000526020600020905b815481526020019060010190808311610731575b505050505081525050815260200190600101906104b5565b505050509050919050565b600060038260405161077a919061577f565b9081526020016040518091039020549050919050565b606060006003836040516107a4919061577f565b9081526020016040518091039020549050806000036107de5760405162461bcd60e51b81526004016107d5906157d5565b60405180910390fd5b600081815260016020908152604080832080548251818502810185019093528083529193909284015b828210156109715783829060005260206000209060040201604051806080016040529081600082015481526020016001820154815260200160028201805461084e9061579b565b80601f016020809104026020016040519081016040528092919081815260200182805461087a9061579b565b80156108c75780601f1061089c576101008083540402835291602001916108c7565b820191906000526020600020905b8154815290600101906020018083116108aa57829003601f168201915b505050505081526020016003820180546108e09061579b565b80601f016020809104026020016040519081016040528092919081815260200182805461090c9061579b565b80156109595780601f1061092e57610100808354040283529160200191610959565b820191906000526020600020905b81548152906001019060200180831161093c57829003601f168201915b50505050508152505081526020019060010190610807565b50505050915050919050565b6060600060015b60005481116109f757600081815260026020526040902060030154841480156109d2575060008181526002602081905260409091206008015460ff16818111156109d0576109d0615190565b145b156109e557816109e18161582e565b9250505b806109ef8161582e565b915050610984565b506000816001600160401b03811115610a1257610a12614e36565b604051908082528060200260200182016040528015610a4b57816020015b610a38614c81565b815260200190600190039081610a305790505b509050600060015b6000548111610fa55760008181526002602052604090206003015486148015610aa1575060008181526002602081905260409091206008015460ff1681811115610a9f57610a9f615190565b145b15610f9357600260008281526020019081526020016000206040518061022001604052908160008201548152602001600182018054610adf9061579b565b80601f0160208091040260200160405190810160405280929190818152602001828054610b0b9061579b565b8015610b585780601f10610b2d57610100808354040283529160200191610b58565b820191906000526020600020905b815481529060010190602001808311610b3b57829003601f168201915b50505050508152602001600282018054610b719061579b565b80601f0160208091040260200160405190810160405280929190818152602001828054610b9d9061579b565b8015610bea5780601f10610bbf57610100808354040283529160200191610bea565b820191906000526020600020905b815481529060010190602001808311610bcd57829003601f168201915b5050505050815260200160038201548152602001600482018054610c0d9061579b565b80601f0160208091040260200160405190810160405280929190818152602001828054610c399061579b565b8015610c865780601f10610c5b57610100808354040283529160200191610c86565b820191906000526020600020905b815481529060010190602001808311610c6957829003601f168201915b5050509183525050600582015460208201526006820154604082015260078201546060820152600882015460809091019060ff166002811115610ccb57610ccb615190565b6002811115610cdc57610cdc615190565b815260200160098201805480602002602001604051908101604052809291908181526020016000905b82821015610db1578382906000526020600020018054610d249061579b565b80601f0160208091040260200160405190810160405280929190818152602001828054610d509061579b565b8015610d9d5780601f10610d7257610100808354040283529160200191610d9d565b820191906000526020600020905b815481529060010190602001808311610d8057829003601f168201915b505050505081526020019060010190610d05565b505050508152602001600a82018054610dc99061579b565b80601f0160208091040260200160405190810160405280929190818152602001828054610df59061579b565b8015610e425780601f10610e1757610100808354040283529160200191610e42565b820191906000526020600020905b815481529060010190602001808311610e2557829003601f168201915b50505050508152602001600b82018054610e5b9061579b565b80601f0160208091040260200160405190810160405280929190818152602001828054610e879061579b565b8015610ed45780601f10610ea957610100808354040283529160200191610ed4565b820191906000526020600020905b815481529060010190602001808311610eb757829003601f168201915b5050509183525050600c8201546020820152600d8201546040820152600e82015460609091019060ff166002811115610f0f57610f0f615190565b6002811115610f2057610f20615190565b8152602001600e820160019054906101000a900460ff166003811115610f4857610f48615190565b6003811115610f5957610f59615190565b8152602001600f82015481525050838381518110610f7957610f79615847565b60200260200101819052508180610f8f9061582e565b9250505b80610f9d8161582e565b915050610a53565b5090949350505050565b600080610fbb8a6141fb565b905060006040518061014001604052808d81526020018381526020018c81526020018b81526020018a8152602001898152602001888152602001878152602001868152602001858152509050611010816142ce565b9c9b505050505050505050505050565b6060600060015b600054811161109957600081815260026020526040902060030154841480156110745750600081815260026020819052604082206008015460ff169081111561107257611072615190565b145b1561108757816110838161582e565b9250505b806110918161582e565b915050611027565b506000816001600160401b038111156110b4576110b4614e36565b6040519080825280602002602001820160405280156110ed57816020015b6110da614c81565b8152602001906001900390816110d25790505b509050600060015b6000548111610fa557600081815260026020526040902060030154861480156111425750600081815260026020819052604082206008015460ff169081111561114057611140615190565b145b15611634576002600082815260200190815260200160002060405180610220016040529081600082015481526020016001820180546111809061579b565b80601f01602080910402602001604051908101604052809291908181526020018280546111ac9061579b565b80156111f95780601f106111ce576101008083540402835291602001916111f9565b820191906000526020600020905b8154815290600101906020018083116111dc57829003601f168201915b505050505081526020016002820180546112129061579b565b80601f016020809104026020016040519081016040528092919081815260200182805461123e9061579b565b801561128b5780601f106112605761010080835404028352916020019161128b565b820191906000526020600020905b81548152906001019060200180831161126e57829003601f168201915b50505050508152602001600382015481526020016004820180546112ae9061579b565b80601f01602080910402602001604051908101604052809291908181526020018280546112da9061579b565b80156113275780601f106112fc57610100808354040283529160200191611327565b820191906000526020600020905b81548152906001019060200180831161130a57829003601f168201915b5050509183525050600582015460208201526006820154604082015260078201546060820152600882015460809091019060ff16600281111561136c5761136c615190565b600281111561137d5761137d615190565b815260200160098201805480602002602001604051908101604052809291908181526020016000905b828210156114525783829060005260206000200180546113c59061579b565b80601f01602080910402602001604051908101604052809291908181526020018280546113f19061579b565b801561143e5780601f106114135761010080835404028352916020019161143e565b820191906000526020600020905b81548152906001019060200180831161142157829003601f168201915b5050505050815260200190600101906113a6565b505050508152602001600a8201805461146a9061579b565b80601f01602080910402602001604051908101604052809291908181526020018280546114969061579b565b80156114e35780601f106114b8576101008083540402835291602001916114e3565b820191906000526020600020905b8154815290600101906020018083116114c657829003601f168201915b50505050508152602001600b820180546114fc9061579b565b80601f01602080910402602001604051908101604052809291908181526020018280546115289061579b565b80156115755780601f1061154a57610100808354040283529160200191611575565b820191906000526020600020905b81548152906001019060200180831161155857829003601f168201915b5050509183525050600c8201546020820152600d8201546040820152600e82015460609091019060ff1660028111156115b0576115b0615190565b60028111156115c1576115c1615190565b8152602001600e820160019054906101000a900460ff1660038111156115e9576115e9615190565b60038111156115fa576115fa615190565b8152602001600f8201548152505083838151811061161a5761161a615847565b602002602001018190525081806116309061582e565b9250505b8061163e8161582e565b9150506110f5565b60008481526002602052604081205490036116735760405162461bcd60e51b81526004016107d59061585d565b600160008581526002602081905260409091206008015460ff169081111561169d5761169d615190565b146116e35760405162461bcd60e51b815260206004820152601660248201527510985d18da081b5d5cdd08189948185c1c1c9bdd995960521b60448201526064016107d5565b837fcc958f36ef2c56626db9996f7dc3af3f8a41de09bb88249416708168d4ffbdaa82604051611713919061588b565b60405180910390a26040516857617265686f75736560b81b6020820152602901604051602081830303815290604052805190602001208160405160200161175a919061577f565b6040516020818303038152906040528051906020012014806117d057506040516a2a3930b739b837b93a32b960a91b6020820152602b0160405160208183030381529060405280519060200120816040516020016117b8919061577f565b60405160208183030381529060405280519060200120145b61181c5760405162461bcd60e51b815260206004820152601860248201527f496e76616c6964207061727469636970616e742074797065000000000000000060448201526064016107d5565b6040805160808101825284815242602080830191825282840186815260608401869052600089815260018084529581208054808801825590825292902084516004909302019182559151938101939093555190918291600282019061188190826158ed565b506060820151600382019061189690826158ed565b5050604051712130ba103230ba903b30b71031b43abcb2b760711b6020820152603201905060405160208183030381529060405280519060200120836040516020016118e2919061577f565b6040516020818303038152906040528051906020012003611927576000858152600260205260409020600e8101805461ffff1916610101179055600f01849055611ac3565b604051722a30b690323ab733903b30b71031b43abcb2b760691b60208201526033016040516020818303038152906040528051906020012083604051602001611970919061577f565b60405160208183030381529060405280519060200120036119b5576000858152600260208190526040909120600e01805461ff001916610100835b0217905550611ac3565b604051722a34b2b8103a3ab1903b30b71031b43abcb2b760691b602082015260330160405160208183030381529060405280519060200120836040516020016119fe919061577f565b6040516020818303038152906040528051906020012003611a3e576000858152600260205260409020600e0180546001919061ff001916610100836119ab565b604051742437b0b7103a3430b734103b30b71031b43abcb2b760591b60208201526035016040516020818303038152906040528051906020012083604051602001611a89919061577f565b6040516020818303038152906040528051906020012003611ac3576000858152600260205260409020600e01805461ffff19166103021790555b60008581526002602052604090819020600e0154905186917f946c8fa0a82d640c200413cf1c62f9401d34b0f1435a263a281ff0fd09030ae891611b1591610100900460ff16908790899088906159ac565b60405180910390a25050505050565b6000828152600260205260408120549003611b515760405162461bcd60e51b81526004016107d59061585d565b60008281526002602081905260409091206008018054839260ff19909116906001908490811115611b8457611b84615190565b0217905550817fcf4d4f3dcd5294f4d19269f489155c2187699f4a9fb9004b6a303752b00b282f82604051611bb9919061563e565b60405180910390a25050565b6000600385604051611bd7919061577f565b908152602001604051809103902054905080600003611c085760405162461bcd60e51b81526004016107d5906157d5565b611c1481858585611646565b5050505050565b6060600060015b6000548111611c7757600081815260026020819052604082206008015460ff1690811115611c5257611c52615190565b03611c655781611c618161582e565b9250505b80611c6f8161582e565b915050611c22565b506000816001600160401b03811115611c9257611c92614e36565b604051908082528060200260200182016040528015611ccb57816020015b611cb8614c81565b815260200190600190039081611cb05790505b509050600060015b600054811161220757600081815260026020819052604082206008015460ff1690811115611d0357611d03615190565b036121f557600260008281526020019081526020016000206040518061022001604052908160008201548152602001600182018054611d419061579b565b80601f0160208091040260200160405190810160405280929190818152602001828054611d6d9061579b565b8015611dba5780601f10611d8f57610100808354040283529160200191611dba565b820191906000526020600020905b815481529060010190602001808311611d9d57829003601f168201915b50505050508152602001600282018054611dd39061579b565b80601f0160208091040260200160405190810160405280929190818152602001828054611dff9061579b565b8015611e4c5780601f10611e2157610100808354040283529160200191611e4c565b820191906000526020600020905b815481529060010190602001808311611e2f57829003601f168201915b5050505050815260200160038201548152602001600482018054611e6f9061579b565b80601f0160208091040260200160405190810160405280929190818152602001828054611e9b9061579b565b8015611ee85780601f10611ebd57610100808354040283529160200191611ee8565b820191906000526020600020905b815481529060010190602001808311611ecb57829003601f168201915b5050509183525050600582015460208201526006820154604082015260078201546060820152600882015460809091019060ff166002811115611f2d57611f2d615190565b6002811115611f3e57611f3e615190565b815260200160098201805480602002602001604051908101604052809291908181526020016000905b82821015612013578382906000526020600020018054611f869061579b565b80601f0160208091040260200160405190810160405280929190818152602001828054611fb29061579b565b8015611fff5780601f10611fd457610100808354040283529160200191611fff565b820191906000526020600020905b815481529060010190602001808311611fe257829003601f168201915b505050505081526020019060010190611f67565b505050508152602001600a8201805461202b9061579b565b80601f01602080910402602001604051908101604052809291908181526020018280546120579061579b565b80156120a45780601f10612079576101008083540402835291602001916120a4565b820191906000526020600020905b81548152906001019060200180831161208757829003601f168201915b50505050508152602001600b820180546120bd9061579b565b80601f01602080910402602001604051908101604052809291908181526020018280546120e99061579b565b80156121365780601f1061210b57610100808354040283529160200191612136565b820191906000526020600020905b81548152906001019060200180831161211957829003601f168201915b5050509183525050600c8201546020820152600d8201546040820152600e82015460609091019060ff16600281111561217157612171615190565b600281111561218257612182615190565b8152602001600e820160019054906101000a900460ff1660038111156121aa576121aa615190565b60038111156121bb576121bb615190565b8152602001600f820154815250508383815181106121db576121db615847565b602002602001018190525081806121f19061582e565b9250505b806121ff8161582e565b915050611cd3565b50909392505050565b6060600060015b60005481116122595760008181526002602052604090206003015484900361224757816122438161582e565b9250505b806122518161582e565b915050612217565b506000816001600160401b0381111561227457612274614e36565b6040519080825280602002602001820160405280156122ad57816020015b61229a614c81565b8152602001906001900390816122925790505b509050600060015b6000548111610fa5576000818152600260205260409020600301548690036127c4576002600082815260200190815260200160002060405180610220016040529081600082015481526020016001820180546123109061579b565b80601f016020809104026020016040519081016040528092919081815260200182805461233c9061579b565b80156123895780601f1061235e57610100808354040283529160200191612389565b820191906000526020600020905b81548152906001019060200180831161236c57829003601f168201915b505050505081526020016002820180546123a29061579b565b80601f01602080910402602001604051908101604052809291908181526020018280546123ce9061579b565b801561241b5780601f106123f05761010080835404028352916020019161241b565b820191906000526020600020905b8154815290600101906020018083116123fe57829003601f168201915b505050505081526020016003820154815260200160048201805461243e9061579b565b80601f016020809104026020016040519081016040528092919081815260200182805461246a9061579b565b80156124b75780601f1061248c576101008083540402835291602001916124b7565b820191906000526020600020905b81548152906001019060200180831161249a57829003601f168201915b5050509183525050600582015460208201526006820154604082015260078201546060820152600882015460809091019060ff1660028111156124fc576124fc615190565b600281111561250d5761250d615190565b815260200160098201805480602002602001604051908101604052809291908181526020016000905b828210156125e25783829060005260206000200180546125559061579b565b80601f01602080910402602001604051908101604052809291908181526020018280546125819061579b565b80156125ce5780601f106125a3576101008083540402835291602001916125ce565b820191906000526020600020905b8154815290600101906020018083116125b157829003601f168201915b505050505081526020019060010190612536565b505050508152602001600a820180546125fa9061579b565b80601f01602080910402602001604051908101604052809291908181526020018280546126269061579b565b80156126735780601f1061264857610100808354040283529160200191612673565b820191906000526020600020905b81548152906001019060200180831161265657829003601f168201915b50505050508152602001600b8201805461268c9061579b565b80601f01602080910402602001604051908101604052809291908181526020018280546126b89061579b565b80156127055780601f106126da57610100808354040283529160200191612705565b820191906000526020600020905b8154815290600101906020018083116126e857829003601f168201915b5050509183525050600c8201546020820152600d8201546040820152600e82015460609091019060ff16600281111561274057612740615190565b600281111561275157612751615190565b8152602001600e820160019054906101000a900460ff16600381111561277957612779615190565b600381111561278a5761278a615190565b8152602001600f820154815250508383815181106127aa576127aa615847565b602002602001018190525081806127c09061582e565b9250505b806127ce8161582e565b9150506122b5565b60008181526002602052604081205490036128035760405162461bcd60e51b81526004016107d59061585d565b600081815260026020819052604082206008015460ff169081111561282a5761282a615190565b146128775760405162461bcd60e51b815260206004820152601d60248201527f4261746368206973206e6f742070656e64696e6720617070726f76616c00000060448201526064016107d5565b60008181526002602081905260409182902060088101805460ff1916831790556003810154925184937ffd30c1d70626cdbca41a738198079b1d57c2a7d36d52b79ae4b4bcc980506f76936128d0939192910190615a6c565b60405180910390a2604080516001808252818301909252600091602080830190803683375050506000838152600260205260408120600d015482519293509183919061291e5761291e615847565b60200260200101818152505061298a60026000848152602001908152602001600020600301546040518060400160405280600e81526020016d10985d18da0814995a9958dd195960921b815250604051806060016040528060278152602001615d3f602791398461491e565b5050565b60008181526002602052604081205481036129bb5760405162461bcd60e51b81526004016107d59061585d565b506000908152600260205260409020600e0154610100900460ff1690565b6129e1614c81565b6000828152600260205260408120549003612a0e5760405162461bcd60e51b81526004016107d59061585d565b600260008381526020019081526020016000206040518061022001604052908160008201548152602001600182018054612a479061579b565b80601f0160208091040260200160405190810160405280929190818152602001828054612a739061579b565b8015612ac05780601f10612a9557610100808354040283529160200191612ac0565b820191906000526020600020905b815481529060010190602001808311612aa357829003601f168201915b50505050508152602001600282018054612ad99061579b565b80601f0160208091040260200160405190810160405280929190818152602001828054612b059061579b565b8015612b525780601f10612b2757610100808354040283529160200191612b52565b820191906000526020600020905b815481529060010190602001808311612b3557829003601f168201915b5050505050815260200160038201548152602001600482018054612b759061579b565b80601f0160208091040260200160405190810160405280929190818152602001828054612ba19061579b565b8015612bee5780601f10612bc357610100808354040283529160200191612bee565b820191906000526020600020905b815481529060010190602001808311612bd157829003601f168201915b5050509183525050600582015460208201526006820154604082015260078201546060820152600882015460809091019060ff166002811115612c3357612c33615190565b6002811115612c4457612c44615190565b815260200160098201805480602002602001604051908101604052809291908181526020016000905b82821015612d19578382906000526020600020018054612c8c9061579b565b80601f0160208091040260200160405190810160405280929190818152602001828054612cb89061579b565b8015612d055780601f10612cda57610100808354040283529160200191612d05565b820191906000526020600020905b815481529060010190602001808311612ce857829003601f168201915b505050505081526020019060010190612c6d565b505050508152602001600a82018054612d319061579b565b80601f0160208091040260200160405190810160405280929190818152602001828054612d5d9061579b565b8015612daa5780601f10612d7f57610100808354040283529160200191612daa565b820191906000526020600020905b815481529060010190602001808311612d8d57829003601f168201915b50505050508152602001600b82018054612dc39061579b565b80601f0160208091040260200160405190810160405280929190818152602001828054612def9061579b565b8015612e3c5780601f10612e1157610100808354040283529160200191612e3c565b820191906000526020600020905b815481529060010190602001808311612e1f57829003601f168201915b5050509183525050600c8201546020820152600d8201546040820152600e82015460609091019060ff166002811115612e7757612e77615190565b6002811115612e8857612e88615190565b8152602001600e820160019054906101000a900460ff166003811115612eb057612eb0615190565b6003811115612ec157612ec1615190565b8152602001600f820154815250509050919050565b6000818152600260205260408120548103612f035760405162461bcd60e51b81526004016107d59061585d565b506000908152600260205260409020600e015460ff1690565b6000806000848152600260205260409020600e0154610100900460ff166003811115612f4a57612f4a615190565b1480612f9c575060036000848152600260205260409020600e0154610100900460ff166003811115612f7e57612f7e615190565b148015612f9c57506000838152600260205260409020600f01548214155b90505b92915050565b6000848152600260205260408120549003612fd25760405162461bcd60e51b81526004016107d59061585d565b6000848152600660209081526040808320815160808101835287815280840187815242938201939093526060810186905281546001818101845592865293909420845160049094020192835590519082019061302e90826158ed565b50604082015160028201556060820151600382019061304d90826158ed565b505050837fe5fd3732b00b2878e55e64cdde6c59b6566f044952fe6b2f36658364da9b561c84848460405161308493929190615a85565b60405180910390a250505050565b6040805160e08101825242815260208082018881528284018881526060840188905260006080850181905260a0850188905260c085018790528a815260048452948520805460018181018355918752939095208451600790940201928355905193820193909355915190918291600282019061310e90826158ed565b506060820151600382019061312390826158ed565b50608082015160048201805460ff191691151591909117905560a08201518051613157916005840191602090910190614d2a565b5060c08201518051613173916006840191602090910190614d80565b505050857f0fb336061951903d147e6b93ba30f6d47839e02426fcd5ee1876873afe47bab38686600087876040516131af959493929190615aba565b60405180910390a2505050505050565b6060600060015b600054811161323b57600081815260026020526040902060030154841480156132165750600160008281526002602081905260409091206008015460ff169081111561321457613214615190565b145b1561322957816132258161582e565b9250505b806132338161582e565b9150506131c6565b506000816001600160401b0381111561325657613256614e36565b60405190808252806020026020018201604052801561328f57816020015b61327c614c81565b8152602001906001900390816132745790505b509050600060015b6000548111610fa557600081815260026020526040902060030154861480156132e75750600160008281526002602081905260409091206008015460ff16908111156132e5576132e5615190565b145b156137d9576002600082815260200190815260200160002060405180610220016040529081600082015481526020016001820180546133259061579b565b80601f01602080910402602001604051908101604052809291908181526020018280546133519061579b565b801561339e5780601f106133735761010080835404028352916020019161339e565b820191906000526020600020905b81548152906001019060200180831161338157829003601f168201915b505050505081526020016002820180546133b79061579b565b80601f01602080910402602001604051908101604052809291908181526020018280546133e39061579b565b80156134305780601f1061340557610100808354040283529160200191613430565b820191906000526020600020905b81548152906001019060200180831161341357829003601f168201915b50505050508152602001600382015481526020016004820180546134539061579b565b80601f016020809104026020016040519081016040528092919081815260200182805461347f9061579b565b80156134cc5780601f106134a1576101008083540402835291602001916134cc565b820191906000526020600020905b8154815290600101906020018083116134af57829003601f168201915b5050509183525050600582015460208201526006820154604082015260078201546060820152600882015460809091019060ff16600281111561351157613511615190565b600281111561352257613522615190565b815260200160098201805480602002602001604051908101604052809291908181526020016000905b828210156135f757838290600052602060002001805461356a9061579b565b80601f01602080910402602001604051908101604052809291908181526020018280546135969061579b565b80156135e35780601f106135b8576101008083540402835291602001916135e3565b820191906000526020600020905b8154815290600101906020018083116135c657829003601f168201915b50505050508152602001906001019061354b565b505050508152602001600a8201805461360f9061579b565b80601f016020809104026020016040519081016040528092919081815260200182805461363b9061579b565b80156136885780601f1061365d57610100808354040283529160200191613688565b820191906000526020600020905b81548152906001019060200180831161366b57829003601f168201915b50505050508152602001600b820180546136a19061579b565b80601f01602080910402602001604051908101604052809291908181526020018280546136cd9061579b565b801561371a5780601f106136ef5761010080835404028352916020019161371a565b820191906000526020600020905b8154815290600101906020018083116136fd57829003601f168201915b5050509183525050600c8201546020820152600d8201546040820152600e82015460609091019060ff16600281111561375557613755615190565b600281111561376657613766615190565b8152602001600e820160019054906101000a900460ff16600381111561378e5761378e615190565b600381111561379f5761379f615190565b8152602001600f820154815250508383815181106137bf576137bf615847565b602002602001018190525081806137d59061582e565b9250505b806137e38161582e565b915050613297565b6137f3614c81565b6000600383604051613805919061577f565b9081526020016040518091039020549050806000036138365760405162461bcd60e51b81526004016107d5906157d5565b60026000828152602001908152602001600020604051806102200160405290816000820154815260200160018201805461386f9061579b565b80601f016020809104026020016040519081016040528092919081815260200182805461389b9061579b565b80156138e85780601f106138bd576101008083540402835291602001916138e8565b820191906000526020600020905b8154815290600101906020018083116138cb57829003601f168201915b505050505081526020016002820180546139019061579b565b80601f016020809104026020016040519081016040528092919081815260200182805461392d9061579b565b801561397a5780601f1061394f5761010080835404028352916020019161397a565b820191906000526020600020905b81548152906001019060200180831161395d57829003601f168201915b505050505081526020016003820154815260200160048201805461399d9061579b565b80601f01602080910402602001604051908101604052809291908181526020018280546139c99061579b565b8015613a165780601f106139eb57610100808354040283529160200191613a16565b820191906000526020600020905b8154815290600101906020018083116139f957829003601f168201915b5050509183525050600582015460208201526006820154604082015260078201546060820152600882015460809091019060ff166002811115613a5b57613a5b615190565b6002811115613a6c57613a6c615190565b815260200160098201805480602002602001604051908101604052809291908181526020016000905b82821015613b41578382906000526020600020018054613ab49061579b565b80601f0160208091040260200160405190810160405280929190818152602001828054613ae09061579b565b8015613b2d5780601f10613b0257610100808354040283529160200191613b2d565b820191906000526020600020905b815481529060010190602001808311613b1057829003601f168201915b505050505081526020019060010190613a95565b505050508152602001600a82018054613b599061579b565b80601f0160208091040260200160405190810160405280929190818152602001828054613b859061579b565b8015613bd25780601f10613ba757610100808354040283529160200191613bd2565b820191906000526020600020905b815481529060010190602001808311613bb557829003601f168201915b50505050508152602001600b82018054613beb9061579b565b80601f0160208091040260200160405190810160405280929190818152602001828054613c179061579b565b8015613c645780601f10613c3957610100808354040283529160200191613c64565b820191906000526020600020905b815481529060010190602001808311613c4757829003601f168201915b5050509183525050600c8201546020820152600d8201546040820152600e82015460609091019060ff166002811115613c9f57613c9f615190565b6002811115613cb057613cb0615190565b8152602001600e820160019054906101000a900460ff166003811115613cd857613cd8615190565b6003811115613ce957613ce9615190565b8152602001600f82015481525050915050919050565b6000818152600260205260408120549003613d2c5760405162461bcd60e51b81526004016107d59061585d565b600081815260026020819052604082206008015460ff1690811115613d5357613d53615190565b14613da05760405162461bcd60e51b815260206004820152601d60248201527f4261746368206973206e6f742070656e64696e6720617070726f76616c00000060448201526064016107d5565b6000818152600260208181526040808420600881018054600160ff19918216811790925560058552958390208054909616179094559082905260038301549051909284927f1a621270a25ae67b5e557b98be27914cd1de793b7ca49110be85cb5aaa169c9b92613e139290910190615b4d565b60405180910390a36000818152600260208190526040918290206003810154925184927f309958f3629dbb8b1c3fb39cc2ffd4759c619a8c6c7927159d9e608c99ae463292613e6492910190615b4d565b60405180910390a3604080516001808252818301909252600091602080830190803683375050506000838152600260205260408120600d0154825192935091839190613eb257613eb2615847565b60200260200101818152505061298a60026000848152602001908152602001600020600301546040518060400160405280600e81526020016d10985d18da08105c1c1c9bdd995960921b815250604051806060016040528060278152602001615d66602791398461491e565b606060046000838152602001908152602001600020805480602002602001604051908101604052809291908181526020016000905b8282101561075d57838290600052602060002090600702016040518060e00160405290816000820154815260200160018201548152602001600282018054613f9a9061579b565b80601f0160208091040260200160405190810160405280929190818152602001828054613fc69061579b565b80156140135780601f10613fe857610100808354040283529160200191614013565b820191906000526020600020905b815481529060010190602001808311613ff657829003601f168201915b5050505050815260200160038201805461402c9061579b565b80601f01602080910402602001604051908101604052809291908181526020018280546140589061579b565b80156140a55780601f1061407a576101008083540402835291602001916140a5565b820191906000526020600020905b81548152906001019060200180831161408857829003601f168201915b5050509183525050600482015460ff161515602080830191909152600583018054604080518285028101850182528281529401939260009084015b8282101561418c5783829060005260206000200180546140ff9061579b565b80601f016020809104026020016040519081016040528092919081815260200182805461412b9061579b565b80156141785780601f1061414d57610100808354040283529160200191614178565b820191906000526020600020905b81548152906001019060200180831161415b57829003601f168201915b5050505050815260200190600101906140e0565b505050508152602001600682018054806020026020016040519081016040528092919081815260200182805480156141e357602002820191906000526020600020905b8154815260200190600101908083116141cf575b50505050508152505081526020019060010190613f53565b604080518082019091526002815261030360f41b6020820152606090600061422284614a6a565b604080514260208083019190915281830188905282518083038401815260609092019092528051910120909150600061425a82614a6a565b9050600084848360405160200161427393929190615b60565b6040516020818303038152906040529050600061428f82614b95565b90506000826142a08360ff16614a6a565b6040516020016142b1929190615ba3565b60408051601f198184030181529190529998505050505050505050565b6000600382602001516040516142e4919061577f565b9081526020016040518091039020546000146143385760405162461bcd60e51b81526020600482015260136024820152725353434320616c72656164792065786973747360681b60448201526064016107d5565b60008260600151511161438d5760405162461bcd60e51b815260206004820152601a60248201527f5175616e74697479206d757374206e6f7420626520656d70747900000000000060448201526064016107d5565b6000826080015151116143f55760405162461bcd60e51b815260206004820152602a60248201527f4174206c65617374206f6e652070726f6475637420696d6167652055524c20696044820152691cc81c995c5d5a5c995960b21b60648201526084016107d5565b60008260a0015151116144545760405162461bcd60e51b815260206004820152602160248201527f436572746966696361746520696d6167652055524c20697320726571756972656044820152601960fa1b60648201526084016107d5565b60008260c0015151116144a95760405162461bcd60e51b815260206004820152601c60248201527f4661726d20706c6f74206e756d6265722069732072657175697265640000000060448201526064016107d5565b60008260e00151116144fd5760405162461bcd60e51b815260206004820152601860248201527f50726f64756374204944206d7573742062652076616c6964000000000000000060448201526064016107d5565b60008261010001511161454b5760405162461bcd60e51b815260206004820152601660248201527514dd185c9d0819185d19481a5cc81c995c5d5a5c995960521b60448201526064016107d5565b6000826101200151116145975760405162461bcd60e51b8152602060048201526014602482015273115b990819185d19481a5cc81c995c5d5a5c995960621b60448201526064016107d5565b816101200151826101000151106145fb5760405162461bcd60e51b815260206004820152602260248201527f53746172742064617465206d757374206265206265666f726520656e64206461604482015261746560f01b60648201526084016107d5565b81515161464a5760405162461bcd60e51b815260206004820152601c60248201527f4261746368206e616d65206d757374206e6f7420626520656d7074790000000060448201526064016107d5565b6000805490806146598361582e565b919050555060008054905060004290506000614692856020015186604001518760600151858960c001518a60e001518b60000151614c3f565b905060006040518061022001604052808581526020018760000151815260200187602001518152602001876040015181526020018760600151815260200184815260200187610100015181526020018761012001518152602001600060028111156146ff576146ff615190565b8152608080890151602083015260a0808a0151604084015260c0808b0151606085015291830186905260e08a01519083015201600081526020016000815260006020918201819052868152600282526040902082518155908201519192508291600182019061476e90826158ed565b506040820151600282019061478390826158ed565b5060608201516003820155608082015160048201906147a290826158ed565b5060a0820151600582015560c0820151600682015560e0820151600782015561010082015160088201805460ff191660018360028111156147e5576147e5615190565b02179055506101208201518051614806916009840191602090910190614d2a565b50610140820151600a82019061481c90826158ed565b50610160820151600b82019061483290826158ed565b50610180820151600c8201556101a0820151600d8201556101c0820151600e8201805460ff1916600183600281111561486d5761486d615190565b02179055506101e0820151600e8201805461ff00191661010083600381111561489857614898615190565b021790555061020082015181600f015590505083600387602001516040516148c0919061577f565b908152602001604051809103902081905550837f58c168780de5fc719a1e7a85c7eca394e664c0e74b7c9ebc621f0b093112d04b8760200151886040015160405161490c929190615bd2565b60405180910390a25091949350505050565b6040805160008082526020820190925281614949565b60608152602001906001900390816149345790505b506040805160e08101825242815260208082018981528284018981526060840189905260016080850181905260a0850187905260c0850189905260008c8152600485529586208054808301825590875293909520845160079094020192835590519382019390935591519293509182919060028201906149c990826158ed565b50606082015160038201906149de90826158ed565b50608082015160048201805460ff191691151591909117905560a08201518051614a12916005840191602090910190614d2a565b5060c08201518051614a2e916006840191602090910190614d80565b505050857f0fb336061951903d147e6b93ba30f6d47839e02426fcd5ee1876873afe47bab38686600186886040516131af959493929190615aba565b606081600003614a915750506040805180820190915260018152600360fc1b602082015290565b8160005b8115614abb5780614aa58161582e565b9150614ab49050600a83615c0a565b9150614a95565b6000816001600160401b03811115614ad557614ad5614e36565b6040519080825280601f01601f191660200182016040528015614aff576020820181803683370190505b509050815b8515614b8c57614b15600182615c1e565b90506000614b24600a88615c0a565b614b2f90600a615c31565b614b399088615c1e565b614b44906030615c48565b905060008160f81b905080848481518110614b6157614b61615847565b60200101906001600160f81b031916908160001a905350614b83600a89615c0a565b97505050614b04565b50949350505050565b60008181805b8251811015614c125760006030848381518110614bba57614bba615847565b0160200151614bcc919060f81c615c61565b9050614bd9600283615c7a565b15614be45780614bef565b614bef816003615c8e565b614bfc9060ff1684615cb1565b9250508080614c0a9061582e565b915050614b9b565b506000600a614c218184615c7a565b614c2c90600a615c1e565b614c369190615c7a565b95945050505050565b600087878787878787604051602001614c5e9796959493929190615cc4565b604051602081830303815290604052805190602001209050979650505050505050565b604051806102200160405280600081526020016060815260200160608152602001600081526020016060815260200160008152602001600081526020016000815260200160006002811115614cd857614cd8615190565b8152602001606081526020016060815260200160608152602001600080191681526020016000815260200160006002811115614d1657614d16615190565b815260200160008152602001600081525090565b828054828255906000526020600020908101928215614d70579160200282015b82811115614d705782518290614d6090826158ed565b5091602001919060010190614d4a565b50614d7c929150614dc7565b5090565b828054828255906000526020600020908101928215614dbb579160200282015b82811115614dbb578251825591602001919060010190614da0565b50614d7c929150614de4565b80821115614d7c576000614ddb8282614df9565b50600101614dc7565b5b80821115614d7c5760008155600101614de5565b508054614e059061579b565b6000825580601f10614e15575050565b601f016020900490600052602060002090810190614e339190614de4565b50565b634e487b7160e01b600052604160045260246000fd5b604051601f8201601f191681016001600160401b0381118282101715614e7457614e74614e36565b604052919050565b600082601f830112614e8d57600080fd5b81356001600160401b03811115614ea657614ea6614e36565b614eb9601f8201601f1916602001614e4c565b818152846020838601011115614ece57600080fd5b816020850160208301376000918101602001919091529392505050565b600060208284031215614efd57600080fd5b81356001600160401b03811115614f1357600080fd5b614f1f84828501614e7c565b949350505050565b600060208284031215614f3957600080fd5b5035919050565b60005b83811015614f5b578181015183820152602001614f43565b50506000910152565b60008151808452614f7c816020860160208601614f40565b601f01601f19169290920160200192915050565b600082825180855260208086019550808260051b84010181860160005b84811015614fdb57601f19868403018952614fc9838351614f64565b98840198925090830190600101614fad565b5090979650505050505050565b600081518084526020808501945080840160005b8381101561501857815187529582019590820190600101614ffc565b509495945050505050565b60006020808301818452808551808352604092508286019150828160051b87010184880160005b838110156150f457603f19898403018552815160e081518552888201518986015287820151818987015261508082870182614f64565b9150506060808301518683038288015261509a8382614f64565b925050506080808301511515818701525060a080830151868303828801526150c28382614f90565b9250505060c080830151925085820381870152506150e08183614fe8565b96890196945050509086019060010161504a565b509098975050505050505050565b60006020808301818452808551808352604092508286019150828160051b87010184880160005b838110156150f457603f198984030185528151608081518552888201518986015287820151818987015261515f82870182614f64565b9150506060808301519250858203818701525061517c8183614f64565b968901969450505090860190600101615129565b634e487b7160e01b600052602160045260246000fd5b60038110614e3357614e33615190565b6151bf816151a6565b9052565b600481106151bf576151bf615190565b60006102208251845260208301518160208601526151f382860182614f64565b9150506040830151848203604086015261520d8282614f64565b91505060608301516060850152608083015184820360808601526152318282614f64565b91505060a083015160a085015260c083015160c085015260e083015160e085015261010080840151615265828701826151b6565b5050610120808401518583038287015261527f8382614f90565b92505050610140808401518583038287015261529b8382614f64565b9250505061016080840151858303828701526152b78382614f64565b925050506101808084015181860152506101a08084015181860152506101c0808401516152e6828701826151b6565b50506101e0808401516152fb828701826151c3565b5050610200928301519390920192909252919050565b6000602080830181845280855180835260408601915060408160051b870101925083870160005b8281101561536657603f198886030184526153548583516151d3565b94509285019290850190600101615338565b5092979650505050505050565b60006001600160401b0382111561538c5761538c614e36565b5060051b60200190565b600082601f8301126153a757600080fd5b813560206153bc6153b783615373565b614e4c565b82815260059290921b840181019181810190868411156153db57600080fd5b8286015b8481101561541a5780356001600160401b038111156153fe5760008081fd5b61540c8986838b0101614e7c565b8452509183019183016153df565b509695505050505050565b60008060008060008060008060006101208a8c03121561544457600080fd5b89356001600160401b038082111561545b57600080fd5b6154678d838e01614e7c565b9a5060208c0135995060408c013591508082111561548457600080fd5b6154908d838e01614e7c565b985060608c01359150808211156154a657600080fd5b6154b28d838e01615396565b975060808c01359150808211156154c857600080fd5b6154d48d838e01614e7c565b965060a08c01359150808211156154ea57600080fd5b506154f78c828d01614e7c565b94505060c08a0135925060e08a013591506101008a013590509295985092959850929598565b6000806000806080858703121561553357600080fd5b843593506020850135925060408501356001600160401b038082111561555857600080fd5b61556488838901614e7c565b9350606087013591508082111561557a57600080fd5b5061558787828801614e7c565b91505092959194509250565b600080604083850312156155a657600080fd5b823591506020830135600381106155bc57600080fd5b809150509250929050565b600080600080608085870312156155dd57600080fd5b84356001600160401b03808211156155f457600080fd5b61560088838901614e7c565b955060208701359450604087013591508082111561555857600080fd5b60208101612f9f82846151c3565b602081526000612f9c60208301846151d3565b6020810161564b836151a6565b91905290565b6000806040838503121561566457600080fd5b50508035926020909101359150565b600080600080600060a0868803121561568b57600080fd5b853594506020808701356001600160401b03808211156156aa57600080fd5b6156b68a838b01614e7c565b965060408901359150808211156156cc57600080fd5b6156d88a838b01614e7c565b955060608901359150808211156156ee57600080fd5b6156fa8a838b01615396565b9450608089013591508082111561571057600080fd5b508701601f8101891361572257600080fd5b80356157306153b782615373565b81815260059190911b8201830190838101908b83111561574f57600080fd5b928401925b8284101561576d57833582529284019290840190615754565b80955050505050509295509295909350565b60008251615791818460208701614f40565b9190910192915050565b600181811c908216806157af57607f821691505b6020821081036157cf57634e487b7160e01b600052602260045260246000fd5b50919050565b60208082526023908201527f426174636820646f6573206e6f7420657869737420776974682074686973205360408201526253434360e81b606082015260800190565b634e487b7160e01b600052601160045260246000fd5b60006001820161584057615840615818565b5060010190565b634e487b7160e01b600052603260045260246000fd5b60208082526014908201527310985d18da08191bd95cc81b9bdd08195e1a5cdd60621b604082015260600190565b602081526000612f9c6020830184614f64565b601f8211156158e857600081815260208120601f850160051c810160208610156158c55750805b601f850160051c820191505b818110156158e4578281556001016158d1565b5050505b505050565b81516001600160401b0381111561590657615906614e36565b61591a81615914845461579b565b8461589e565b602080601f83116001811461594f57600084156159375750858301515b600019600386901b1c1916600185901b1785556158e4565b600085815260208120601f198616915b8281101561597e5788860151825594840194600190910190840161595f565b508582101561599c5787850151600019600388901b60f8161c191681555b5050505050600190811b01905550565b6159b681866151c3565b6080602082015260006159cc6080830186614f64565b84604084015282810360608401526159e48185614f64565b979650505050505050565b600081546159fc8161579b565b808552602060018381168015615a195760018114615a3357615a61565b60ff1985168884015283151560051b880183019550615a61565b866000528260002060005b85811015615a595781548a8201860152908301908401615a3e565b890184019650505b505050505092915050565b828152604060208201526000614f1f60408301846159ef565b838152606060208201526000615a9e6060830185614f64565b8281036040840152615ab08185614f64565b9695505050505050565b60a081526000615acd60a0830188614f64565b602083820381850152615ae08289614f64565b9150861515604085015283820360608501528186518084528284019150828160051b85010183890160005b83811015615b3957601f19878403018552615b27838351614f64565b94860194925090850190600101615b0b565b505086810360808801526110108189614fe8565b602081526000612f9c60208301846159ef565b60008451615b72818460208901614f40565b845190830190615b86818360208901614f40565b8451910190615b99818360208801614f40565b0195945050505050565b60008351615bb5818460208801614f40565b835190830190615bc9818360208801614f40565b01949350505050565b604081526000615be56040830185614f64565b90508260208301529392505050565b634e487b7160e01b600052601260045260246000fd5b600082615c1957615c19615bf4565b500490565b81810381811115612f9f57612f9f615818565b8082028115828204841417612f9f57612f9f615818565b60ff8181168382160190811115612f9f57612f9f615818565b60ff8281168282160390811115612f9f57612f9f615818565b600082615c8957615c89615bf4565b500690565b60ff8181168382160290811690818114615caa57615caa615818565b5092915050565b80820180821115612f9f57612f9f615818565b600088516020615cd78285838e01614f40565b81840191508982528851615cf081838501848d01614f40565b80830192505087818301528651615d0d8160408501848b01614f40565b604092019182018690528451615d298160608501848901614f40565b919091016060019a995050505050505050505056fe426174636820686173206265656e2072656a65637465642062792074686520617070726f766572426174636820686173206265656e20617070726f7665642062792074686520617070726f766572a2646970667358221220f3cfe32a3812dc5bfadfefc00e8a568e949fecdc672ce989568b695d0f45c0ca64736f6c63430008140033",
  "immutableReferences": {},
  "source": "// SPDX-License-Identifier: MIT\r\npragma solidity ^0.8.0;\r\n\r\ncontract TraceabilityContract {\r\n    uint256 private _batchIdCounter;\r\n\r\nenum BatchStatus { PendingApproval, Approved, Rejected }\r\nenum TransportStatus { NotTransported, InTransit, Delivered }\r\nenum ParticipantType { Producer, Transporter, Warehouse, Consumer }\r\nenum DetailedTransportStatus { NotStarted, InTransit, Paused, Delivered }\r\n\r\n    struct Batch {\r\n        uint256 batchId;\r\n        string name;  // Thm trng tn l hng\r\n        string sscc;\r\n        uint256 producerId;\r\n        string quantity;\r\n        uint256 productionDate;\r\n        uint256 startDate;\r\n        uint256 endDate;\r\n        BatchStatus status;\r\n        string[] productImageUrls;\r\n        string certificateImageUrl;\r\n        string farmPlotNumber;\r\n        bytes32 dataHash;\r\n        uint256 productId;\r\n        TransportStatus transportStatus;\r\n        DetailedTransportStatus detailedTransportStatus;\r\n      uint256 lastTransporterId;\r\n    }\r\n    \r\n    struct Participation {\r\n        uint256 participantId;\r\n        string participantType;\r\n        uint256 timestamp;\r\n        string action;\r\n    }\r\n      struct ActivityLog {\r\n        uint256 timestamp;\r\n        uint256 uid;\r\n        string activityName;\r\n        string description;\r\n        bool isSystemGenerated;\r\n        string[] imageUrls;\r\n        uint256[] relatedProductIds;\r\n    }\r\n    struct TransportEvent {\r\n    uint256 participantId;\r\n    uint256 timestamp;\r\n    string action;\r\n    string participantType;\r\n}\r\n\r\nmapping(uint256 => TransportEvent[]) private _batchTransportEvents;\r\n\r\n\r\n    mapping(uint256 => Batch) private _batches;\r\n    mapping(string => uint256) private _ssccToBatchId;\r\n    mapping(uint256 => ActivityLog[]) private _producerActivityLogs;\r\n    mapping(uint256 => bool) private _approvedBatches;\r\n    mapping(uint256 => Participation[]) private _batchParticipations;\r\n    \r\n    event BatchApproved(uint256 indexed batchId, uint256 indexed producerId, string sscc);\r\n    event BatchApprovedForQR(uint256 indexed batchId, uint256 indexed producerId, string sscc);\r\n    event ParticipationRecorded(uint256 indexed batchId, uint256 participantId, string participantType, string action);\r\n    event BatchCreated(uint256 indexed batchId, string sscc, uint256 producerId);\r\n    event ActivityLogAdded(\r\n        uint256 indexed uid,\r\n        string activityName,\r\n        string description,\r\n        bool isSystemGenerated,\r\n        string[] imageUrls,\r\n        uint256[] relatedProductIds\r\n    );\r\nevent TransportStatusUpdated(uint256 indexed batchId, DetailedTransportStatus newStatus, string action, uint256 participantId, string participantType);    struct BatchParams {\r\n        string name;  // Thm trng tn l hng\r\n        string sscc;\r\n        uint256 producerId;\r\n        string quantity;\r\n        string[] productImageUrls;\r\n        string certificateImageUrl;\r\n        string farmPlotNumber;\r\n        uint256 productId;\r\n        uint256 startDate;\r\n        uint256 endDate;\r\n    }\r\n\r\n    function createBatch(\r\n        string memory _name,  // Thm tham s tn l hng\r\n        uint256 _producerId,\r\n        string memory _quantity,\r\n        string[] memory _productImageUrls,\r\n        string memory _certificateImageUrl,\r\n        string memory _farmPlotNumber,\r\n        uint256 _productId,\r\n        uint256 _startDate,\r\n        uint256 _endDate\r\n    ) public returns (uint256) {\r\n        string memory sscc = generateSSCC(_producerId);\r\n        BatchParams memory params = BatchParams({\r\n            name: _name,  // Thm tn l hng\r\n            sscc: sscc,\r\n            producerId: _producerId,\r\n            quantity: _quantity,\r\n            productImageUrls: _productImageUrls,\r\n            certificateImageUrl: _certificateImageUrl,\r\n            farmPlotNumber: _farmPlotNumber,\r\n            productId: _productId,\r\n            startDate: _startDate,\r\n            endDate: _endDate\r\n        });\r\n\r\n        return _createBatch(params);\r\n    }\r\n\r\n    function generateSSCC(uint256 _producerId) private view returns (string memory) {\r\n        string memory prefix = \"00\";\r\n        string memory companyPrefix = uint2str(_producerId);\r\n        uint256 serialNumber = uint256(keccak256(abi.encodePacked(block.timestamp, _producerId)));\r\n        string memory serialReference = uint2str(serialNumber);\r\n        \r\n        string memory ssccWithoutCheck = string(abi.encodePacked(prefix, companyPrefix, serialReference));\r\n        uint8 checkDigit = calculateCheckDigit(ssccWithoutCheck);\r\n        \r\n        string memory sscc = string(abi.encodePacked(ssccWithoutCheck, uint2str(uint256(checkDigit))));\r\n        \r\n        return sscc;\r\n    }\r\n\r\n    function calculateCheckDigit(string memory _code) private pure returns (uint8) {\r\n        bytes memory codeBytes = bytes(_code);\r\n        uint256 sum = 0;\r\n        for (uint256 i = 0; i < codeBytes.length; i++) {\r\n            uint8 digit = uint8(codeBytes[i]) - 48;\r\n            sum += (i % 2 == 0) ? digit * 3 : digit;\r\n        }\r\n        uint8 checkDigit = uint8((10 - (sum % 10)) % 10);\r\n        return checkDigit;\r\n    }\r\n\r\n    function uint2str(uint256 _i) private pure returns (string memory) {\r\n        if (_i == 0) {\r\n            return \"0\";\r\n        }\r\n        uint256 j = _i;\r\n        uint256 length;\r\n        while (j != 0) {\r\n            length++;\r\n            j /= 10;\r\n        }\r\n        bytes memory bstr = new bytes(length);\r\n        uint256 k = length;\r\n        while (_i != 0) {\r\n            k = k-1;\r\n            uint8 temp = (48 + uint8(_i - _i / 10 * 10));\r\n            bytes1 b1 = bytes1(temp);\r\n            bstr[k] = b1;\r\n            _i /= 10;\r\n        }\r\n        return string(bstr);\r\n    }\r\n\r\n    function _createBatch(BatchParams memory params) private returns (uint256) {\r\n        require(_ssccToBatchId[params.sscc] == 0, \"SSCC already exists\");\r\n        require(bytes(params.quantity).length > 0, \"Quantity must not be empty\");\r\n        require(params.productImageUrls.length > 0, \"At least one product image URL is required\");\r\n        require(bytes(params.certificateImageUrl).length > 0, \"Certificate image URL is required\");\r\n        require(bytes(params.farmPlotNumber).length > 0, \"Farm plot number is required\");\r\n        require(params.productId > 0, \"Product ID must be valid\");\r\n        require(params.startDate > 0, \"Start date is required\");\r\n        require(params.endDate > 0, \"End date is required\");\r\n        require(params.startDate < params.endDate, \"Start date must be before end date\");\r\n        require(bytes(params.name).length > 0, \"Batch name must not be empty\");\r\n\r\n        _batchIdCounter++;\r\n        uint256 newBatchId = _batchIdCounter;\r\n\r\n        uint256 productionDate = block.timestamp;\r\n\r\n        bytes32 dataHash = _calculateDataHash(\r\n            params.sscc,\r\n            params.producerId,\r\n            params.quantity,\r\n            productionDate,\r\n            params.farmPlotNumber,\r\n            params.productId,\r\n            params.name  // Thm tn l hng vo hm bm\r\n        );\r\n\r\n        Batch memory newBatch = Batch({\r\n            batchId: newBatchId,\r\n            name: params.name,  // Thm tn l hng\r\n            sscc: params.sscc,\r\n            producerId: params.producerId,\r\n            quantity: params.quantity,\r\n            productionDate: productionDate,\r\n            startDate: params.startDate,\r\n            endDate: params.endDate,\r\n            status: BatchStatus.PendingApproval,\r\n            productImageUrls: params.productImageUrls,\r\n            certificateImageUrl: params.certificateImageUrl,\r\n            farmPlotNumber: params.farmPlotNumber,\r\n            dataHash: dataHash,\r\n            productId: params.productId,\r\n            transportStatus: TransportStatus.NotTransported,\r\n            detailedTransportStatus: DetailedTransportStatus.NotStarted,\r\n            lastTransporterId: 0\r\n        });\r\n\r\n        _batches[newBatchId] = newBatch;\r\n        _ssccToBatchId[params.sscc] = newBatchId;\r\n\r\n        emit BatchCreated(newBatchId, params.sscc, params.producerId);\r\n        return newBatchId;\r\n    }\r\n    \r\n\r\n    function addActivityLog(\r\n        uint256 _uid,\r\n        string memory _activityName,\r\n        string memory _description,\r\n        string[] memory _imageUrls,\r\n        uint256[] memory _relatedProductIds\r\n    ) public {\r\n        ActivityLog memory newLog = ActivityLog({\r\n            timestamp: block.timestamp,\r\n            uid: _uid,\r\n            activityName: _activityName,\r\n            description: _description,\r\n            isSystemGenerated: false,\r\n            imageUrls: _imageUrls,\r\n            relatedProductIds: _relatedProductIds\r\n        });\r\n\r\n        _producerActivityLogs[_uid].push(newLog);\r\n        emit ActivityLogAdded(_uid, _activityName, _description, false, _imageUrls, _relatedProductIds);\r\n    }\r\n // Hm  ly nht k hot ng ca mt nh sn xut\r\n    function getProducerActivityLogs(uint256 _uid) public view returns (ActivityLog[] memory) {\r\n        return _producerActivityLogs[_uid];\r\n    }\r\n\r\n    \r\n    // Hm ni b  h thng t ng thm nht k\r\n    function _addSystemActivityLog(\r\n        uint256 _uid,\r\n        string memory _activityName,\r\n        string memory _description,\r\n        uint256[] memory _relatedProductIds\r\n    ) internal {\r\n        string[] memory emptyImageUrls = new string[](0);\r\n        ActivityLog memory newLog = ActivityLog({\r\n            timestamp: block.timestamp,\r\n            uid: _uid,\r\n            activityName: _activityName,\r\n            description: _description,\r\n            isSystemGenerated: true,\r\n            imageUrls: emptyImageUrls,\r\n            relatedProductIds: _relatedProductIds\r\n        });\r\n\r\n        _producerActivityLogs[_uid].push(newLog);\r\n        emit ActivityLogAdded(_uid, _activityName, _description, true, emptyImageUrls, _relatedProductIds);\r\n    }\r\n    \r\n    function _calculateDataHash(\r\n        string memory _sscc,\r\n        uint256 _producerId,\r\n        string memory _quantity,\r\n        uint256 _productionDate,\r\n        string memory _farmPlotNumber,\r\n        uint256 _productId,\r\n        string memory _name  // Thm tn l hng\r\n    ) private pure returns (bytes32) {\r\n        return keccak256(abi.encodePacked(_sscc, _producerId, _quantity, _productionDate, _farmPlotNumber, _productId, _name));\r\n    }\r\n    // hm kim tra sscc  tn ti hay cha \r\n    function ssccExists(string memory sscc) public view returns (bool) {\r\n        return _ssccToBatchId[sscc] != 0;\r\n    }\r\n\r\n    // Hm mi  ly danh sch cc l hng da trn producerId\r\n    function getBatchesByProducer(uint256 producerId) public view returns (Batch[] memory) {\r\n        uint256 count = 0;\r\n        for (uint256 i = 1; i <= _batchIdCounter; i++) {\r\n            if (_batches[i].producerId == producerId) {\r\n                count++;\r\n            }\r\n        }\r\n\r\n        Batch[] memory batches = new Batch[](count);\r\n        uint256 index = 0;\r\n        for (uint256 i = 1; i <= _batchIdCounter; i++) {\r\n            if (_batches[i].producerId == producerId) {\r\n                batches[index] = _batches[i];\r\n                index++;\r\n            }\r\n        }\r\n\r\n        return batches;\r\n    }\r\n\r\n    // hm cp nht trng thi l hng\r\nfunction updateBatchStatus(uint256 _batchId, BatchStatus _newStatus) public {\r\n    require(_batches[_batchId].batchId != 0, \"Batch does not exist\");\r\n    // Thm kim tra quyn nu cn\r\n    _batches[_batchId].status = _newStatus;\r\n    emit BatchStatusUpdated(_batchId, _newStatus);\r\n}\r\nfunction getPendingBatchesByProducer(uint256 _producerId) public view returns (Batch[] memory) {\r\n    uint256 pendingCount = 0;\r\n    for (uint256 i = 1; i <= _batchIdCounter; i++) {\r\n        if (_batches[i].producerId == _producerId && _batches[i].status == BatchStatus.PendingApproval) {\r\n            pendingCount++;\r\n        }\r\n    }\r\n    Batch[] memory pendingBatches = new Batch[](pendingCount);\r\n    uint256 index = 0;\r\n    for (uint256 i = 1; i <= _batchIdCounter; i++) {\r\n        if (_batches[i].producerId == _producerId && _batches[i].status == BatchStatus.PendingApproval) {\r\n            pendingBatches[index] = _batches[i];\r\n            index++;\r\n        }\r\n    }\r\n\r\n    return pendingBatches;\r\n}\r\n\r\nfunction getRejectedBatchesByProducer(uint256 _producerId) public view returns (Batch[] memory) {\r\n    uint256 rejectedCount = 0;\r\n    for (uint256 i = 1; i <= _batchIdCounter; i++) {\r\n        if (_batches[i].producerId == _producerId && _batches[i].status == BatchStatus.Rejected) {\r\n            rejectedCount++;\r\n        }\r\n    }\r\n\r\n    Batch[] memory rejectedBatches = new Batch[](rejectedCount);\r\n    uint256 index = 0;\r\n    for (uint256 i = 1; i <= _batchIdCounter; i++) {\r\n        if (_batches[i].producerId == _producerId && _batches[i].status == BatchStatus.Rejected) {\r\n            rejectedBatches[index] = _batches[i];\r\n            index++;\r\n        }\r\n    }\r\n\r\n    return rejectedBatches;\r\n}\r\nfunction getAllPendingBatches() public view returns (Batch[] memory) {\r\n        uint256 pendingCount = 0;\r\n        for (uint256 i = 1; i <= _batchIdCounter; i++) {\r\n            if (_batches[i].status == BatchStatus.PendingApproval) {\r\n                pendingCount++;\r\n            }\r\n        }\r\n\r\n        Batch[] memory pendingBatches = new Batch[](pendingCount);\r\n        uint256 index = 0;\r\n        for (uint256 i = 1; i <= _batchIdCounter; i++) {\r\n            if (_batches[i].status == BatchStatus.PendingApproval) {\r\n                pendingBatches[index] = _batches[i];\r\n                index++;\r\n            }\r\n        }\r\n\r\n        return pendingBatches;\r\n    }\r\n\r\nevent BatchStatusUpdated(uint256 indexed batchId, BatchStatus newStatus);\r\n\r\n// hm ly thng tin l hng\r\nfunction getBatchDetails(uint256 _batchId) public view returns (Batch memory) {\r\n    require(_batches[_batchId].batchId != 0, \"Batch does not exist\");\r\n    return _batches[_batchId];\r\n}\r\n\r\n\r\nfunction getTotalBatches() public view returns (uint256) {\r\n    return _batchIdCounter;\r\n}\r\n\r\nfunction isProducerOfBatch(uint256 _batchId, uint256 _producerId) public view returns (bool) {\r\n    return _batches[_batchId].producerId == _producerId;\r\n}\r\n\r\n// Thm hm ny vo smart contract\r\nfunction getActivityLogs(uint256 _uid) public view returns (ActivityLog[] memory) {\r\n    return _producerActivityLogs[_uid];\r\n}\r\nfunction getActivityLogCount(uint256 _uid) public view returns (uint256) {\r\n    return _producerActivityLogs[_uid].length;\r\n}\r\n\r\nmodifier onlyApprover() {\r\n    // Implement logic to check if msg.sender is an approver\r\n    _;\r\n}\r\n\r\nfunction approveBatch(uint256 _batchId) public onlyApprover {\r\n    require(_batches[_batchId].batchId != 0, \"Batch does not exist\");\r\n    require(_batches[_batchId].status == BatchStatus.PendingApproval, \"Batch is not pending approval\");\r\n\r\n    _batches[_batchId].status = BatchStatus.Approved;\r\n    _approvedBatches[_batchId] = true;\r\n\r\n    emit BatchApproved(_batchId, _batches[_batchId].producerId, _batches[_batchId].sscc);\r\n    emit BatchApprovedForQR(_batchId, _batches[_batchId].producerId, _batches[_batchId].sscc);\r\n    \r\n    // Add system activity log\r\n    uint256[] memory relatedProductIds = new uint256[](1);\r\n    relatedProductIds[0] = _batches[_batchId].productId;\r\n    _addSystemActivityLog(_batches[_batchId].producerId, \"Batch Approved\", \"Batch has been approved by the approver\", relatedProductIds);\r\n}\r\n\r\nfunction rejectBatch(uint256 _batchId) public onlyApprover {\r\n    require(_batches[_batchId].batchId != 0, \"Batch does not exist\");\r\n    require(_batches[_batchId].status == BatchStatus.PendingApproval, \"Batch is not pending approval\");\r\n\r\n    _batches[_batchId].status = BatchStatus.Rejected;\r\n\r\n    emit BatchRejected(_batchId, _batches[_batchId].producerId, _batches[_batchId].sscc);\r\n    \r\n    // Add system activity log\r\n    uint256[] memory relatedProductIds = new uint256[](1);\r\n    relatedProductIds[0] = _batches[_batchId].productId;\r\n    _addSystemActivityLog(_batches[_batchId].producerId, \"Batch Rejected\", \"Batch has been rejected by the approver\", relatedProductIds);\r\n}\r\n\r\nevent BatchRejected(uint256 indexed batchId, uint256 producerId, string sscc);\r\n\r\nfunction getApprovedBatchesByProducer(uint256 _producerId) public view returns (Batch[] memory) {\r\n    uint256 approvedCount = 0;\r\n    for (uint256 i = 1; i <= _batchIdCounter; i++) {\r\n        if (_batches[i].producerId == _producerId && _batches[i].status == BatchStatus.Approved) {\r\n            approvedCount++;\r\n        }\r\n    }\r\n\r\n    Batch[] memory approvedBatches = new Batch[](approvedCount);\r\n    uint256 index = 0;\r\n    for (uint256 i = 1; i <= _batchIdCounter; i++) {\r\n        if (_batches[i].producerId == _producerId && _batches[i].status == BatchStatus.Approved) {\r\n            approvedBatches[index] = _batches[i];\r\n            index++;\r\n        }\r\n    }\r\n\r\n    return approvedBatches;\r\n}\r\n\r\nfunction getBatchBySSCC(string memory _sscc) public view returns (Batch memory) {\r\n    uint256 batchId = _ssccToBatchId[_sscc];\r\n    require(batchId != 0, \"Batch does not exist with this SSCC\");\r\n    return _batches[batchId];\r\n}\r\n\r\nfunction isValidSSCC(string memory _sscc) public view returns (bool) {\r\n    return _ssccToBatchId[_sscc] != 0;\r\n}\r\n\r\nfunction isBatchApproved(uint256 _batchId) public view returns (bool) {\r\n    return _approvedBatches[_batchId];\r\n}\r\n\r\nfunction recordParticipation(uint256 _batchId, uint256 _participantId, string memory _participantType, string memory _action) public {\r\n    require(_batches[_batchId].batchId != 0, \"Batch does not exist\");\r\n    _batchParticipations[_batchId].push(Participation(_participantId, _participantType, block.timestamp, _action));\r\n    \r\n    emit ParticipationRecorded(_batchId, _participantId, _participantType, _action);\r\n}\r\nevent LogParticipantType(uint256 indexed batchId, string participantType);\r\n\r\nfunction updateTransportStatus(uint256 _batchId, uint256 _participantId, string memory _action, string memory _participantType) public {\r\n\r\n    \r\n    require(_batches[_batchId].batchId != 0, \"Batch does not exist\");\r\n    require(_batches[_batchId].status == BatchStatus.Approved, \"Batch must be approved\");\r\n    \r\n    emit LogParticipantType(_batchId, _participantType);\r\n\r\n\r\n    require(\r\n        keccak256(abi.encodePacked(_participantType)) == keccak256(abi.encodePacked(\"Warehouse\")) ||\r\n        keccak256(abi.encodePacked(_participantType)) == keccak256(abi.encodePacked(\"Transporter\")),\r\n        \"Invalid participant type\"\r\n    );\r\n    TransportEvent memory newEvent = TransportEvent({\r\n        participantId: _participantId,\r\n        timestamp: block.timestamp,\r\n        action: _action,\r\n        participantType: _participantType\r\n    });\r\n    \r\n    _batchTransportEvents[_batchId].push(newEvent);\r\n    \r\n    if (keccak256(abi.encodePacked(_action)) == keccak256(abi.encodePacked(\"Bat dau van chuyen\"))) {\r\n        _batches[_batchId].detailedTransportStatus = DetailedTransportStatus.InTransit;\r\n        _batches[_batchId].transportStatus = TransportStatus.InTransit;\r\n        _batches[_batchId].lastTransporterId = _participantId;\r\n    } else if (keccak256(abi.encodePacked(_action)) == keccak256(abi.encodePacked(\"Tam dung van chuyen\"))) {\r\n        _batches[_batchId].detailedTransportStatus = DetailedTransportStatus.Paused;\r\n    } else if (keccak256(abi.encodePacked(_action)) == keccak256(abi.encodePacked(\"Tiep tuc van chuyen\"))) {\r\n        _batches[_batchId].detailedTransportStatus = DetailedTransportStatus.InTransit;\r\n    } else if (keccak256(abi.encodePacked(_action)) == keccak256(abi.encodePacked(\"Hoan thanh van chuyen\"))) {\r\n        _batches[_batchId].detailedTransportStatus = DetailedTransportStatus.Delivered;\r\n        _batches[_batchId].transportStatus = TransportStatus.Delivered;\r\n    }\r\n    \r\n    emit TransportStatusUpdated(_batchId, _batches[_batchId].detailedTransportStatus, _action, _participantId, _participantType);\r\n}\r\nfunction updateTransportStatusBySSCC(string memory _sscc, uint256 _participantId, string memory _action, string memory _participantType) public {\r\n    uint256 batchId = _ssccToBatchId[_sscc];\r\n    require(batchId != 0, \"Batch does not exist with this SSCC\");\r\n    updateTransportStatus(batchId, _participantId, _action, _participantType);\r\n}\r\nfunction getBatchIdBySSCC(string memory _sscc) public view returns (uint256) {\r\n    return _ssccToBatchId[_sscc];\r\n}\r\n\r\nfunction getDetailedTransportStatus(uint256 _batchId) public view returns (DetailedTransportStatus) {\r\n    require(_batches[_batchId].batchId != 0, \"Batch does not exist\");\r\n    return _batches[_batchId].detailedTransportStatus;\r\n}\r\nfunction canStartTransport(uint256 _batchId, uint256 _transporterId) public view returns (bool) {\r\n    return _batches[_batchId].detailedTransportStatus == DetailedTransportStatus.NotStarted ||\r\n           (_batches[_batchId].detailedTransportStatus == DetailedTransportStatus.Delivered && _batches[_batchId].lastTransporterId != _transporterId);\r\n}\r\nfunction getTransportHistoryBySSCC(string memory _sscc) public view returns (TransportEvent[] memory) {\r\n    uint256 batchId = _ssccToBatchId[_sscc];\r\n    require(batchId != 0, \"Batch does not exist with this SSCC\");\r\n    return _batchTransportEvents[batchId];\r\n}\r\n// Thm hm  kim tra trng thi vn chuyn\r\nfunction getBatchTransportStatus(uint256 _batchId) public view returns (TransportStatus) {\r\n    require(_batches[_batchId].batchId != 0, \"Batch does not exist\");\r\n    return _batches[_batchId].transportStatus;\r\n}\r\n\r\n}\r\n",
  "sourcePath": "D:\\projects\\nckh-be\\blockchain\\contracts\\supplychain.sol",
  "compiler": {
    "name": "solc",
    "version": "0.8.20+commit.a1b79de6.Emscripten.clang"
  },
  "schemaVersion": "3.4.16",
  "updatedAt": "2024-09-19T17:47:59.828Z",
  "networkType": "ethereum",
  "devdoc": {
    "kind": "dev",
    "methods": {},
    "version": 1
  },
  "userdoc": {
    "kind": "user",
    "methods": {},
    "version": 1
  }
}