{
  "contractName": "TraceabilityContract",
  "abi": [
    {
      "inputs": [
        {
          "internalType": "address",
          "name": "_activityLogAddress",
          "type": "address"
        }
      ],
      "stateMutability": "nonpayable",
      "type": "constructor"
    },
    {
      "anonymous": false,
      "inputs": [
        {
          "indexed": true,
          "internalType": "uint256",
          "name": "uid",
          "type": "uint256"
        },
        {
          "indexed": false,
          "internalType": "string",
          "name": "activityName",
          "type": "string"
        },
        {
          "indexed": false,
          "internalType": "string",
          "name": "description",
          "type": "string"
        },
        {
          "indexed": false,
          "internalType": "bool",
          "name": "isSystemGenerated",
          "type": "bool"
        },
        {
          "indexed": false,
          "internalType": "string[]",
          "name": "imageUrls",
          "type": "string[]"
        },
        {
          "indexed": false,
          "internalType": "uint256[]",
          "name": "relatedProductIds",
          "type": "uint256[]"
        }
      ],
      "name": "ActivityLogAdded",
      "type": "event"
    },
    {
      "anonymous": false,
      "inputs": [
        {
          "indexed": true,
          "internalType": "uint256",
          "name": "batchId",
          "type": "uint256"
        },
        {
          "indexed": true,
          "internalType": "uint256",
          "name": "producerId",
          "type": "uint256"
        },
        {
          "indexed": false,
          "internalType": "string",
          "name": "sscc",
          "type": "string"
        }
      ],
      "name": "BatchApproved",
      "type": "event"
    },
    {
      "anonymous": false,
      "inputs": [
        {
          "indexed": true,
          "internalType": "uint256",
          "name": "batchId",
          "type": "uint256"
        },
        {
          "indexed": true,
          "internalType": "uint256",
          "name": "producerId",
          "type": "uint256"
        },
        {
          "indexed": false,
          "internalType": "string",
          "name": "sscc",
          "type": "string"
        }
      ],
      "name": "BatchApprovedForQR",
      "type": "event"
    },
    {
      "anonymous": false,
      "inputs": [
        {
          "indexed": true,
          "internalType": "uint256",
          "name": "batchId",
          "type": "uint256"
        },
        {
          "indexed": false,
          "internalType": "string",
          "name": "sscc",
          "type": "string"
        },
        {
          "indexed": false,
          "internalType": "uint256",
          "name": "producerId",
          "type": "uint256"
        }
      ],
      "name": "BatchCreated",
      "type": "event"
    },
    {
      "anonymous": false,
      "inputs": [
        {
          "indexed": true,
          "internalType": "uint256",
          "name": "batchId",
          "type": "uint256"
        },
        {
          "indexed": false,
          "internalType": "uint256",
          "name": "producerId",
          "type": "uint256"
        },
        {
          "indexed": false,
          "internalType": "string",
          "name": "sscc",
          "type": "string"
        }
      ],
      "name": "BatchRejected",
      "type": "event"
    },
    {
      "anonymous": false,
      "inputs": [
        {
          "indexed": true,
          "internalType": "uint256",
          "name": "batchId",
          "type": "uint256"
        },
        {
          "indexed": false,
          "internalType": "enum TraceabilityContract.BatchStatus",
          "name": "newStatus",
          "type": "uint8"
        }
      ],
      "name": "BatchStatusUpdated",
      "type": "event"
    },
    {
      "anonymous": false,
      "inputs": [
        {
          "indexed": true,
          "internalType": "uint256",
          "name": "batchId",
          "type": "uint256"
        },
        {
          "indexed": false,
          "internalType": "string",
          "name": "participantType",
          "type": "string"
        }
      ],
      "name": "LogParticipantType",
      "type": "event"
    },
    {
      "anonymous": false,
      "inputs": [
        {
          "indexed": true,
          "internalType": "uint256",
          "name": "batchId",
          "type": "uint256"
        },
        {
          "indexed": false,
          "internalType": "uint256",
          "name": "participantId",
          "type": "uint256"
        },
        {
          "indexed": false,
          "internalType": "string",
          "name": "participantType",
          "type": "string"
        },
        {
          "indexed": false,
          "internalType": "string",
          "name": "action",
          "type": "string"
        }
      ],
      "name": "ParticipationRecorded",
      "type": "event"
    },
    {
      "anonymous": false,
      "inputs": [
        {
          "indexed": true,
          "internalType": "uint256",
          "name": "batchId",
          "type": "uint256"
        },
        {
          "indexed": false,
          "internalType": "enum TraceabilityContract.DetailedTransportStatus",
          "name": "newStatus",
          "type": "uint8"
        },
        {
          "indexed": false,
          "internalType": "string",
          "name": "action",
          "type": "string"
        },
        {
          "indexed": false,
          "internalType": "uint256",
          "name": "participantId",
          "type": "uint256"
        },
        {
          "indexed": false,
          "internalType": "string",
          "name": "participantType",
          "type": "string"
        }
      ],
      "name": "TransportStatusUpdated",
      "type": "event"
    },
    {
      "anonymous": false,
      "inputs": [
        {
          "indexed": true,
          "internalType": "uint256",
          "name": "batchId",
          "type": "uint256"
        },
        {
          "indexed": true,
          "internalType": "uint256",
          "name": "warehouseId",
          "type": "uint256"
        }
      ],
      "name": "WarehouseConfirmed",
      "type": "event"
    },
    {
      "inputs": [
        {
          "internalType": "string",
          "name": "_name",
          "type": "string"
        },
        {
          "internalType": "uint256",
          "name": "_producerId",
          "type": "uint256"
        },
        {
          "internalType": "string",
          "name": "_quantity",
          "type": "string"
        },
        {
          "internalType": "string[]",
          "name": "_productImageUrls",
          "type": "string[]"
        },
        {
          "internalType": "string",
          "name": "_certificateImageUrl",
          "type": "string"
        },
        {
          "internalType": "string",
          "name": "_farmPlotNumber",
          "type": "string"
        },
        {
          "internalType": "uint256",
          "name": "_productId",
          "type": "uint256"
        },
        {
          "internalType": "uint256",
          "name": "_startDate",
          "type": "uint256"
        },
        {
          "internalType": "uint256",
          "name": "_endDate",
          "type": "uint256"
        }
      ],
      "name": "createBatch",
      "outputs": [
        {
          "internalType": "uint256",
          "name": "",
          "type": "uint256"
        }
      ],
      "stateMutability": "nonpayable",
      "type": "function"
    },
    {
      "inputs": [
        {
          "internalType": "string",
          "name": "sscc",
          "type": "string"
        }
      ],
      "name": "ssccExists",
      "outputs": [
        {
          "internalType": "bool",
          "name": "",
          "type": "bool"
        }
      ],
      "stateMutability": "view",
      "type": "function",
      "constant": true
    },
    {
      "inputs": [
        {
          "internalType": "uint256",
          "name": "producerId",
          "type": "uint256"
        }
      ],
      "name": "getBatchesByProducer",
      "outputs": [
        {
          "components": [
            {
              "internalType": "uint256",
              "name": "batchId",
              "type": "uint256"
            },
            {
              "internalType": "string",
              "name": "name",
              "type": "string"
            },
            {
              "internalType": "string",
              "name": "sscc",
              "type": "string"
            },
            {
              "internalType": "uint256",
              "name": "producerId",
              "type": "uint256"
            },
            {
              "internalType": "string",
              "name": "quantity",
              "type": "string"
            },
            {
              "internalType": "uint256",
              "name": "productionDate",
              "type": "uint256"
            },
            {
              "internalType": "uint256",
              "name": "startDate",
              "type": "uint256"
            },
            {
              "internalType": "uint256",
              "name": "endDate",
              "type": "uint256"
            },
            {
              "internalType": "enum TraceabilityContract.BatchStatus",
              "name": "status",
              "type": "uint8"
            },
            {
              "internalType": "string[]",
              "name": "productImageUrls",
              "type": "string[]"
            },
            {
              "internalType": "string",
              "name": "certificateImageUrl",
              "type": "string"
            },
            {
              "internalType": "string",
              "name": "farmPlotNumber",
              "type": "string"
            },
            {
              "internalType": "bytes32",
              "name": "dataHash",
              "type": "bytes32"
            },
            {
              "internalType": "uint256",
              "name": "productId",
              "type": "uint256"
            },
            {
              "internalType": "enum TraceabilityContract.TransportStatus",
              "name": "transportStatus",
              "type": "uint8"
            },
            {
              "internalType": "enum TraceabilityContract.DetailedTransportStatus",
              "name": "detailedTransportStatus",
              "type": "uint8"
            },
            {
              "internalType": "uint256",
              "name": "lastTransporterId",
              "type": "uint256"
            },
            {
              "internalType": "bool",
              "name": "warehouseConfirmed",
              "type": "bool"
            }
          ],
          "internalType": "struct TraceabilityContract.Batch[]",
          "name": "",
          "type": "tuple[]"
        }
      ],
      "stateMutability": "view",
      "type": "function",
      "constant": true
    },
    {
      "inputs": [
        {
          "internalType": "uint256",
          "name": "_batchId",
          "type": "uint256"
        },
        {
          "internalType": "enum TraceabilityContract.BatchStatus",
          "name": "_newStatus",
          "type": "uint8"
        }
      ],
      "name": "updateBatchStatus",
      "outputs": [],
      "stateMutability": "nonpayable",
      "type": "function"
    },
    {
      "inputs": [
        {
          "internalType": "uint256",
          "name": "_producerId",
          "type": "uint256"
        }
      ],
      "name": "getPendingBatchesByProducer",
      "outputs": [
        {
          "components": [
            {
              "internalType": "uint256",
              "name": "batchId",
              "type": "uint256"
            },
            {
              "internalType": "string",
              "name": "name",
              "type": "string"
            },
            {
              "internalType": "string",
              "name": "sscc",
              "type": "string"
            },
            {
              "internalType": "uint256",
              "name": "producerId",
              "type": "uint256"
            },
            {
              "internalType": "string",
              "name": "quantity",
              "type": "string"
            },
            {
              "internalType": "uint256",
              "name": "productionDate",
              "type": "uint256"
            },
            {
              "internalType": "uint256",
              "name": "startDate",
              "type": "uint256"
            },
            {
              "internalType": "uint256",
              "name": "endDate",
              "type": "uint256"
            },
            {
              "internalType": "enum TraceabilityContract.BatchStatus",
              "name": "status",
              "type": "uint8"
            },
            {
              "internalType": "string[]",
              "name": "productImageUrls",
              "type": "string[]"
            },
            {
              "internalType": "string",
              "name": "certificateImageUrl",
              "type": "string"
            },
            {
              "internalType": "string",
              "name": "farmPlotNumber",
              "type": "string"
            },
            {
              "internalType": "bytes32",
              "name": "dataHash",
              "type": "bytes32"
            },
            {
              "internalType": "uint256",
              "name": "productId",
              "type": "uint256"
            },
            {
              "internalType": "enum TraceabilityContract.TransportStatus",
              "name": "transportStatus",
              "type": "uint8"
            },
            {
              "internalType": "enum TraceabilityContract.DetailedTransportStatus",
              "name": "detailedTransportStatus",
              "type": "uint8"
            },
            {
              "internalType": "uint256",
              "name": "lastTransporterId",
              "type": "uint256"
            },
            {
              "internalType": "bool",
              "name": "warehouseConfirmed",
              "type": "bool"
            }
          ],
          "internalType": "struct TraceabilityContract.Batch[]",
          "name": "",
          "type": "tuple[]"
        }
      ],
      "stateMutability": "view",
      "type": "function",
      "constant": true
    },
    {
      "inputs": [
        {
          "internalType": "uint256",
          "name": "_producerId",
          "type": "uint256"
        }
      ],
      "name": "getRejectedBatchesByProducer",
      "outputs": [
        {
          "components": [
            {
              "internalType": "uint256",
              "name": "batchId",
              "type": "uint256"
            },
            {
              "internalType": "string",
              "name": "name",
              "type": "string"
            },
            {
              "internalType": "string",
              "name": "sscc",
              "type": "string"
            },
            {
              "internalType": "uint256",
              "name": "producerId",
              "type": "uint256"
            },
            {
              "internalType": "string",
              "name": "quantity",
              "type": "string"
            },
            {
              "internalType": "uint256",
              "name": "productionDate",
              "type": "uint256"
            },
            {
              "internalType": "uint256",
              "name": "startDate",
              "type": "uint256"
            },
            {
              "internalType": "uint256",
              "name": "endDate",
              "type": "uint256"
            },
            {
              "internalType": "enum TraceabilityContract.BatchStatus",
              "name": "status",
              "type": "uint8"
            },
            {
              "internalType": "string[]",
              "name": "productImageUrls",
              "type": "string[]"
            },
            {
              "internalType": "string",
              "name": "certificateImageUrl",
              "type": "string"
            },
            {
              "internalType": "string",
              "name": "farmPlotNumber",
              "type": "string"
            },
            {
              "internalType": "bytes32",
              "name": "dataHash",
              "type": "bytes32"
            },
            {
              "internalType": "uint256",
              "name": "productId",
              "type": "uint256"
            },
            {
              "internalType": "enum TraceabilityContract.TransportStatus",
              "name": "transportStatus",
              "type": "uint8"
            },
            {
              "internalType": "enum TraceabilityContract.DetailedTransportStatus",
              "name": "detailedTransportStatus",
              "type": "uint8"
            },
            {
              "internalType": "uint256",
              "name": "lastTransporterId",
              "type": "uint256"
            },
            {
              "internalType": "bool",
              "name": "warehouseConfirmed",
              "type": "bool"
            }
          ],
          "internalType": "struct TraceabilityContract.Batch[]",
          "name": "",
          "type": "tuple[]"
        }
      ],
      "stateMutability": "view",
      "type": "function",
      "constant": true
    },
    {
      "inputs": [],
      "name": "getAllPendingBatches",
      "outputs": [
        {
          "components": [
            {
              "internalType": "uint256",
              "name": "batchId",
              "type": "uint256"
            },
            {
              "internalType": "string",
              "name": "name",
              "type": "string"
            },
            {
              "internalType": "string",
              "name": "sscc",
              "type": "string"
            },
            {
              "internalType": "uint256",
              "name": "producerId",
              "type": "uint256"
            },
            {
              "internalType": "string",
              "name": "quantity",
              "type": "string"
            },
            {
              "internalType": "uint256",
              "name": "productionDate",
              "type": "uint256"
            },
            {
              "internalType": "uint256",
              "name": "startDate",
              "type": "uint256"
            },
            {
              "internalType": "uint256",
              "name": "endDate",
              "type": "uint256"
            },
            {
              "internalType": "enum TraceabilityContract.BatchStatus",
              "name": "status",
              "type": "uint8"
            },
            {
              "internalType": "string[]",
              "name": "productImageUrls",
              "type": "string[]"
            },
            {
              "internalType": "string",
              "name": "certificateImageUrl",
              "type": "string"
            },
            {
              "internalType": "string",
              "name": "farmPlotNumber",
              "type": "string"
            },
            {
              "internalType": "bytes32",
              "name": "dataHash",
              "type": "bytes32"
            },
            {
              "internalType": "uint256",
              "name": "productId",
              "type": "uint256"
            },
            {
              "internalType": "enum TraceabilityContract.TransportStatus",
              "name": "transportStatus",
              "type": "uint8"
            },
            {
              "internalType": "enum TraceabilityContract.DetailedTransportStatus",
              "name": "detailedTransportStatus",
              "type": "uint8"
            },
            {
              "internalType": "uint256",
              "name": "lastTransporterId",
              "type": "uint256"
            },
            {
              "internalType": "bool",
              "name": "warehouseConfirmed",
              "type": "bool"
            }
          ],
          "internalType": "struct TraceabilityContract.Batch[]",
          "name": "",
          "type": "tuple[]"
        }
      ],
      "stateMutability": "view",
      "type": "function",
      "constant": true
    },
    {
      "inputs": [
        {
          "internalType": "uint256",
          "name": "_batchId",
          "type": "uint256"
        }
      ],
      "name": "getBatchDetails",
      "outputs": [
        {
          "components": [
            {
              "internalType": "uint256",
              "name": "batchId",
              "type": "uint256"
            },
            {
              "internalType": "string",
              "name": "name",
              "type": "string"
            },
            {
              "internalType": "string",
              "name": "sscc",
              "type": "string"
            },
            {
              "internalType": "uint256",
              "name": "producerId",
              "type": "uint256"
            },
            {
              "internalType": "string",
              "name": "quantity",
              "type": "string"
            },
            {
              "internalType": "uint256",
              "name": "productionDate",
              "type": "uint256"
            },
            {
              "internalType": "uint256",
              "name": "startDate",
              "type": "uint256"
            },
            {
              "internalType": "uint256",
              "name": "endDate",
              "type": "uint256"
            },
            {
              "internalType": "enum TraceabilityContract.BatchStatus",
              "name": "status",
              "type": "uint8"
            },
            {
              "internalType": "string[]",
              "name": "productImageUrls",
              "type": "string[]"
            },
            {
              "internalType": "string",
              "name": "certificateImageUrl",
              "type": "string"
            },
            {
              "internalType": "string",
              "name": "farmPlotNumber",
              "type": "string"
            },
            {
              "internalType": "bytes32",
              "name": "dataHash",
              "type": "bytes32"
            },
            {
              "internalType": "uint256",
              "name": "productId",
              "type": "uint256"
            },
            {
              "internalType": "enum TraceabilityContract.TransportStatus",
              "name": "transportStatus",
              "type": "uint8"
            },
            {
              "internalType": "enum TraceabilityContract.DetailedTransportStatus",
              "name": "detailedTransportStatus",
              "type": "uint8"
            },
            {
              "internalType": "uint256",
              "name": "lastTransporterId",
              "type": "uint256"
            },
            {
              "internalType": "bool",
              "name": "warehouseConfirmed",
              "type": "bool"
            }
          ],
          "internalType": "struct TraceabilityContract.Batch",
          "name": "",
          "type": "tuple"
        }
      ],
      "stateMutability": "view",
      "type": "function",
      "constant": true
    },
    {
      "inputs": [],
      "name": "getTotalBatches",
      "outputs": [
        {
          "internalType": "uint256",
          "name": "",
          "type": "uint256"
        }
      ],
      "stateMutability": "view",
      "type": "function",
      "constant": true
    },
    {
      "inputs": [
        {
          "internalType": "uint256",
          "name": "_batchId",
          "type": "uint256"
        },
        {
          "internalType": "uint256",
          "name": "_producerId",
          "type": "uint256"
        }
      ],
      "name": "isProducerOfBatch",
      "outputs": [
        {
          "internalType": "bool",
          "name": "",
          "type": "bool"
        }
      ],
      "stateMutability": "view",
      "type": "function",
      "constant": true
    },
    {
      "inputs": [
        {
          "internalType": "uint256",
          "name": "_batchId",
          "type": "uint256"
        }
      ],
      "name": "approveBatch",
      "outputs": [],
      "stateMutability": "nonpayable",
      "type": "function"
    },
    {
      "inputs": [
        {
          "internalType": "uint256",
          "name": "_batchId",
          "type": "uint256"
        }
      ],
      "name": "rejectBatch",
      "outputs": [],
      "stateMutability": "nonpayable",
      "type": "function"
    },
    {
      "inputs": [
        {
          "internalType": "uint256",
          "name": "_uid",
          "type": "uint256"
        }
      ],
      "name": "getActivityLogs",
      "outputs": [
        {
          "components": [
            {
              "internalType": "uint256",
              "name": "timestamp",
              "type": "uint256"
            },
            {
              "internalType": "uint256",
              "name": "uid",
              "type": "uint256"
            },
            {
              "internalType": "string",
              "name": "activityName",
              "type": "string"
            },
            {
              "internalType": "string",
              "name": "description",
              "type": "string"
            },
            {
              "internalType": "bool",
              "name": "isSystemGenerated",
              "type": "bool"
            },
            {
              "internalType": "string[]",
              "name": "imageUrls",
              "type": "string[]"
            },
            {
              "internalType": "uint256[]",
              "name": "relatedProductIds",
              "type": "uint256[]"
            }
          ],
          "internalType": "struct ActivityLog.ActivityLogEntry[]",
          "name": "",
          "type": "tuple[]"
        }
      ],
      "stateMutability": "view",
      "type": "function",
      "constant": true
    },
    {
      "inputs": [
        {
          "internalType": "uint256",
          "name": "_producerId",
          "type": "uint256"
        }
      ],
      "name": "getApprovedBatchesByProducer",
      "outputs": [
        {
          "components": [
            {
              "internalType": "uint256",
              "name": "batchId",
              "type": "uint256"
            },
            {
              "internalType": "string",
              "name": "name",
              "type": "string"
            },
            {
              "internalType": "string",
              "name": "sscc",
              "type": "string"
            },
            {
              "internalType": "uint256",
              "name": "producerId",
              "type": "uint256"
            },
            {
              "internalType": "string",
              "name": "quantity",
              "type": "string"
            },
            {
              "internalType": "uint256",
              "name": "productionDate",
              "type": "uint256"
            },
            {
              "internalType": "uint256",
              "name": "startDate",
              "type": "uint256"
            },
            {
              "internalType": "uint256",
              "name": "endDate",
              "type": "uint256"
            },
            {
              "internalType": "enum TraceabilityContract.BatchStatus",
              "name": "status",
              "type": "uint8"
            },
            {
              "internalType": "string[]",
              "name": "productImageUrls",
              "type": "string[]"
            },
            {
              "internalType": "string",
              "name": "certificateImageUrl",
              "type": "string"
            },
            {
              "internalType": "string",
              "name": "farmPlotNumber",
              "type": "string"
            },
            {
              "internalType": "bytes32",
              "name": "dataHash",
              "type": "bytes32"
            },
            {
              "internalType": "uint256",
              "name": "productId",
              "type": "uint256"
            },
            {
              "internalType": "enum TraceabilityContract.TransportStatus",
              "name": "transportStatus",
              "type": "uint8"
            },
            {
              "internalType": "enum TraceabilityContract.DetailedTransportStatus",
              "name": "detailedTransportStatus",
              "type": "uint8"
            },
            {
              "internalType": "uint256",
              "name": "lastTransporterId",
              "type": "uint256"
            },
            {
              "internalType": "bool",
              "name": "warehouseConfirmed",
              "type": "bool"
            }
          ],
          "internalType": "struct TraceabilityContract.Batch[]",
          "name": "",
          "type": "tuple[]"
        }
      ],
      "stateMutability": "view",
      "type": "function",
      "constant": true
    },
    {
      "inputs": [
        {
          "internalType": "string",
          "name": "_sscc",
          "type": "string"
        }
      ],
      "name": "getBatchBySSCC",
      "outputs": [
        {
          "components": [
            {
              "internalType": "uint256",
              "name": "batchId",
              "type": "uint256"
            },
            {
              "internalType": "string",
              "name": "name",
              "type": "string"
            },
            {
              "internalType": "string",
              "name": "sscc",
              "type": "string"
            },
            {
              "internalType": "uint256",
              "name": "producerId",
              "type": "uint256"
            },
            {
              "internalType": "string",
              "name": "quantity",
              "type": "string"
            },
            {
              "internalType": "uint256",
              "name": "productionDate",
              "type": "uint256"
            },
            {
              "internalType": "uint256",
              "name": "startDate",
              "type": "uint256"
            },
            {
              "internalType": "uint256",
              "name": "endDate",
              "type": "uint256"
            },
            {
              "internalType": "enum TraceabilityContract.BatchStatus",
              "name": "status",
              "type": "uint8"
            },
            {
              "internalType": "string[]",
              "name": "productImageUrls",
              "type": "string[]"
            },
            {
              "internalType": "string",
              "name": "certificateImageUrl",
              "type": "string"
            },
            {
              "internalType": "string",
              "name": "farmPlotNumber",
              "type": "string"
            },
            {
              "internalType": "bytes32",
              "name": "dataHash",
              "type": "bytes32"
            },
            {
              "internalType": "uint256",
              "name": "productId",
              "type": "uint256"
            },
            {
              "internalType": "enum TraceabilityContract.TransportStatus",
              "name": "transportStatus",
              "type": "uint8"
            },
            {
              "internalType": "enum TraceabilityContract.DetailedTransportStatus",
              "name": "detailedTransportStatus",
              "type": "uint8"
            },
            {
              "internalType": "uint256",
              "name": "lastTransporterId",
              "type": "uint256"
            },
            {
              "internalType": "bool",
              "name": "warehouseConfirmed",
              "type": "bool"
            }
          ],
          "internalType": "struct TraceabilityContract.Batch",
          "name": "",
          "type": "tuple"
        }
      ],
      "stateMutability": "view",
      "type": "function",
      "constant": true
    },
    {
      "inputs": [
        {
          "internalType": "string",
          "name": "_sscc",
          "type": "string"
        }
      ],
      "name": "isValidSSCC",
      "outputs": [
        {
          "internalType": "bool",
          "name": "",
          "type": "bool"
        }
      ],
      "stateMutability": "view",
      "type": "function",
      "constant": true
    },
    {
      "inputs": [
        {
          "internalType": "uint256",
          "name": "_batchId",
          "type": "uint256"
        }
      ],
      "name": "isBatchApproved",
      "outputs": [
        {
          "internalType": "bool",
          "name": "",
          "type": "bool"
        }
      ],
      "stateMutability": "view",
      "type": "function",
      "constant": true
    },
    {
      "inputs": [
        {
          "internalType": "uint256",
          "name": "_batchId",
          "type": "uint256"
        },
        {
          "internalType": "uint256",
          "name": "_participantId",
          "type": "uint256"
        },
        {
          "internalType": "string",
          "name": "_participantType",
          "type": "string"
        },
        {
          "internalType": "string",
          "name": "_action",
          "type": "string"
        }
      ],
      "name": "recordParticipation",
      "outputs": [],
      "stateMutability": "nonpayable",
      "type": "function"
    },
    {
      "inputs": [
        {
          "internalType": "uint256",
          "name": "_batchId",
          "type": "uint256"
        },
        {
          "internalType": "uint256",
          "name": "_participantId",
          "type": "uint256"
        },
        {
          "internalType": "string",
          "name": "_action",
          "type": "string"
        },
        {
          "internalType": "string",
          "name": "_participantType",
          "type": "string"
        }
      ],
      "name": "updateTransportStatus",
      "outputs": [],
      "stateMutability": "nonpayable",
      "type": "function"
    },
    {
      "inputs": [
        {
          "internalType": "string",
          "name": "_sscc",
          "type": "string"
        },
        {
          "internalType": "uint256",
          "name": "_participantId",
          "type": "uint256"
        },
        {
          "internalType": "string",
          "name": "_action",
          "type": "string"
        },
        {
          "internalType": "string",
          "name": "_participantType",
          "type": "string"
        }
      ],
      "name": "updateTransportStatusBySSCC",
      "outputs": [],
      "stateMutability": "nonpayable",
      "type": "function"
    },
    {
      "inputs": [
        {
          "internalType": "uint256",
          "name": "_batchId",
          "type": "uint256"
        },
        {
          "internalType": "uint256",
          "name": "_warehouseId",
          "type": "uint256"
        }
      ],
      "name": "warehouseConfirmation",
      "outputs": [],
      "stateMutability": "nonpayable",
      "type": "function"
    },
    {
      "inputs": [
        {
          "internalType": "uint256",
          "name": "_batchId",
          "type": "uint256"
        },
        {
          "internalType": "uint256",
          "name": "_warehouseId",
          "type": "uint256"
        }
      ],
      "name": "isWarehouseConfirmed",
      "outputs": [
        {
          "internalType": "bool",
          "name": "",
          "type": "bool"
        }
      ],
      "stateMutability": "view",
      "type": "function",
      "constant": true
    },
    {
      "inputs": [
        {
          "internalType": "uint256",
          "name": "_batchId",
          "type": "uint256"
        }
      ],
      "name": "getConfirmedWarehouses",
      "outputs": [
        {
          "internalType": "uint256[]",
          "name": "",
          "type": "uint256[]"
        }
      ],
      "stateMutability": "view",
      "type": "function",
      "constant": true
    },
    {
      "inputs": [
        {
          "internalType": "string",
          "name": "_sscc",
          "type": "string"
        }
      ],
      "name": "getBatchIdBySSCC",
      "outputs": [
        {
          "internalType": "uint256",
          "name": "",
          "type": "uint256"
        }
      ],
      "stateMutability": "view",
      "type": "function",
      "constant": true
    },
    {
      "inputs": [
        {
          "internalType": "uint256",
          "name": "_batchId",
          "type": "uint256"
        }
      ],
      "name": "getDetailedTransportStatus",
      "outputs": [
        {
          "internalType": "enum TraceabilityContract.DetailedTransportStatus",
          "name": "",
          "type": "uint8"
        }
      ],
      "stateMutability": "view",
      "type": "function",
      "constant": true
    },
    {
      "inputs": [
        {
          "internalType": "uint256",
          "name": "_batchId",
          "type": "uint256"
        },
        {
          "internalType": "uint256",
          "name": "_transporterId",
          "type": "uint256"
        }
      ],
      "name": "canStartTransport",
      "outputs": [
        {
          "internalType": "bool",
          "name": "",
          "type": "bool"
        }
      ],
      "stateMutability": "view",
      "type": "function",
      "constant": true
    },
    {
      "inputs": [
        {
          "internalType": "string",
          "name": "_sscc",
          "type": "string"
        }
      ],
      "name": "getTransportHistoryBySSCC",
      "outputs": [
        {
          "components": [
            {
              "internalType": "uint256",
              "name": "participantId",
              "type": "uint256"
            },
            {
              "internalType": "uint256",
              "name": "timestamp",
              "type": "uint256"
            },
            {
              "internalType": "string",
              "name": "action",
              "type": "string"
            },
            {
              "internalType": "string",
              "name": "participantType",
              "type": "string"
            }
          ],
          "internalType": "struct TraceabilityContract.TransportEvent[]",
          "name": "",
          "type": "tuple[]"
        }
      ],
      "stateMutability": "view",
      "type": "function",
      "constant": true
    },
    {
      "inputs": [
        {
          "internalType": "uint256",
          "name": "_batchId",
          "type": "uint256"
        }
      ],
      "name": "getBatchTransportStatus",
      "outputs": [
        {
          "internalType": "enum TraceabilityContract.TransportStatus",
          "name": "",
          "type": "uint8"
        }
      ],
      "stateMutability": "view",
      "type": "function",
      "constant": true
    }
  ],
  "bytecode": "0x60806040523480156200001157600080fd5b5060405162005d2538038062005d258339810160408190526200003491620000b5565b6001600160a01b0381166200008f5760405162461bcd60e51b815260206004820152601b60248201527f496e76616c69642041637469766974794c6f6720616464726573730000000000604482015260640160405180910390fd5b600080546001600160a01b0319166001600160a01b0392909216919091179055620000e7565b600060208284031215620000c857600080fd5b81516001600160a01b0381168114620000e057600080fd5b9392505050565b615c2e80620000f76000396000f3fe608060405234801561001057600080fd5b50600436106101545760003560e01c806304008078146101595780630d82dcf4146101815780630e6e369c146101a457806319d6ed3c146101c45780631bb93d1e146101e55780632db53c9d1461020557806336c701e1146102255780633904c26c1461023857806347e2f86314610258578063510664ed1461026b57806352c88f36146102805780635a9c9d90146102935780635aa825aa146102a65780636b0ba8da146102ae57806380e32d45146102c157806381f7d4e0146102d4578063838b1da31461030257806397ae6a0e146103155780639d47dcc014610335578063a7732c9614610355578063a793478614610375578063b82adf3b14610388578063d040e18c14610159578063d043b8431461039b578063d9860bfc146103ae578063dd235d9d146103c1578063e561dddc146103d4578063f9b8da0e146103dc575b600080fd5b61016c610167366004614ac8565b610401565b60405190151581526020015b60405180910390f35b61016c61018f366004614b04565b60009081526006602052604090205460ff1690565b6101b76101b2366004614b04565b61042b565b6040516101789190614c00565b6101d76101d2366004614ac8565b6104a3565b604051908152602001610178565b6101f86101f3366004614ac8565b6104cb565b6040516101789190614cdf565b610218610213366004614b04565b6106b8565b6040516101789190614ef8565b6101d7610233366004615007565b610cfb565b61024b610246366004614b04565b610d6c565b60405161017891906150ff565b610218610266366004614b04565b610e73565b61027e610279366004615112565b6114a8565b005b61027e61028e366004615188565b61194a565b61027e6102a13660046151bc565b6119e6565b610218611a3c565b61027e6102bc366004615212565b612040565b6102186102cf366004614b04565b61231d565b61016c6102e2366004615212565b600091825260086020908152604080842092845291905290205460ff1690565b61027e610310366004614b04565b6128f4565b610328610323366004614b04565b612ab6565b6040516101789190615234565b610348610343366004614b04565b612b01565b6040516101789190615242565b610368610363366004614b04565b61300c565b6040516101789190615255565b61016c610383366004615212565b613052565b61027e610396366004615112565b6130d9565b6102186103a9366004614b04565b6131c6565b6103486103bc366004614ac8565b6137ff565b61027e6103cf366004614b04565b613d21565b6001546101d7565b61016c6103ea366004615212565b600091825260046020526040909120600301541490565b60006005826040516104139190615268565b90815260405190819003602001902054151592915050565b60005460405163039b8da760e21b8152600481018390526060916001600160a01b031690630e6e369c90602401600060405180830381865afa158015610475573d6000803e3d6000fd5b505050506040513d6000823e601f3d908101601f1916820160405261049d91908101906153b8565b92915050565b60006005826040516104b59190615268565b9081526020016040518091039020549050919050565b606060006005836040516104df9190615268565b9081526020016040518091039020549050806000036105195760405162461bcd60e51b81526004016105109061553d565b60405180910390fd5b600081815260036020908152604080832080548251818502810185019093528083529193909284015b828210156106ac5783829060005260206000209060040201604051806080016040529081600082015481526020016001820154815260200160028201805461058990615580565b80601f01602080910402602001604051908101604052809291908181526020018280546105b590615580565b80156106025780601f106105d757610100808354040283529160200191610602565b820191906000526020600020905b8154815290600101906020018083116105e557829003601f168201915b5050505050815260200160038201805461061b90615580565b80601f016020809104026020016040519081016040528092919081815260200182805461064790615580565b80156106945780601f1061066957610100808354040283529160200191610694565b820191906000526020600020905b81548152906001019060200180831161067757829003601f168201915b50505050508152505081526020019060010190610542565b50505050915050919050565b6060600060015b6001548111610732576000818152600460205260409020600301548414801561070d5750600260008281526004602052604090206008015460ff16600281111561070b5761070b614d6d565b145b15610720578161071c816155d0565b9250505b8061072a816155d0565b9150506106bf565b506000816001600160401b0381111561074d5761074d6149dd565b60405190808252806020026020018201604052801561078657816020015b610773614868565b81526020019060019003908161076b5790505b509050600060015b6001548111610cf157600081815260046020526040902060030154861480156107dc5750600260008281526004602052604090206008015460ff1660028111156107da576107da614d6d565b145b15610cdf5760046000828152602001908152602001600020604051806102400160405290816000820154815260200160018201805461081a90615580565b80601f016020809104026020016040519081016040528092919081815260200182805461084690615580565b80156108935780601f1061086857610100808354040283529160200191610893565b820191906000526020600020905b81548152906001019060200180831161087657829003601f168201915b505050505081526020016002820180546108ac90615580565b80601f01602080910402602001604051908101604052809291908181526020018280546108d890615580565b80156109255780601f106108fa57610100808354040283529160200191610925565b820191906000526020600020905b81548152906001019060200180831161090857829003601f168201915b505050505081526020016003820154815260200160048201805461094890615580565b80601f016020809104026020016040519081016040528092919081815260200182805461097490615580565b80156109c15780601f10610996576101008083540402835291602001916109c1565b820191906000526020600020905b8154815290600101906020018083116109a457829003601f168201915b5050509183525050600582015460208201526006820154604082015260078201546060820152600882015460809091019060ff166002811115610a0657610a06614d6d565b6002811115610a1757610a17614d6d565b815260200160098201805480602002602001604051908101604052809291908181526020016000905b82821015610aec578382906000526020600020018054610a5f90615580565b80601f0160208091040260200160405190810160405280929190818152602001828054610a8b90615580565b8015610ad85780601f10610aad57610100808354040283529160200191610ad8565b820191906000526020600020905b815481529060010190602001808311610abb57829003601f168201915b505050505081526020019060010190610a40565b505050508152602001600a82018054610b0490615580565b80601f0160208091040260200160405190810160405280929190818152602001828054610b3090615580565b8015610b7d5780601f10610b5257610100808354040283529160200191610b7d565b820191906000526020600020905b815481529060010190602001808311610b6057829003601f168201915b50505050508152602001600b82018054610b9690615580565b80601f0160208091040260200160405190810160405280929190818152602001828054610bc290615580565b8015610c0f5780601f10610be457610100808354040283529160200191610c0f565b820191906000526020600020905b815481529060010190602001808311610bf257829003601f168201915b5050509183525050600c8201546020820152600d8201546040820152600e82015460609091019060ff166002811115610c4a57610c4a614d6d565b6002811115610c5b57610c5b614d6d565b8152602001600e820160019054906101000a900460ff166003811115610c8357610c83614d6d565b6003811115610c9457610c94614d6d565b8152600f820154602082015260109091015460ff1615156040909101528351849084908110610cc557610cc56155e9565b60200260200101819052508180610cdb906155d0565b9250505b80610ce9816155d0565b91505061078e565b5090949350505050565b600080610d078a613f15565b905060006040518061014001604052808d81526020018381526020018c81526020018b81526020018a8152602001898152602001888152602001878152602001868152602001858152509050610d5c81613fe8565b9c9b505050505050505050505050565b6060600060015b6002548111610dbe57600084815260086020908152604080832084845290915290205460ff1615610dac5781610da8816155d0565b9250505b80610db6816155d0565b915050610d73565b506000816001600160401b03811115610dd957610dd96149dd565b604051908082528060200260200182016040528015610e02578160200160208202803683370190505b509050600060015b6002548111610cf157600086815260086020908152604080832084845290915290205460ff1615610e615780838381518110610e4857610e486155e9565b602090810291909101015281610e5d816155d0565b9250505b80610e6b816155d0565b915050610e0a565b6060600060015b6001548111610eeb5760008181526004602052604090206003015484148015610ec6575060008181526004602052604081206008015460ff166002811115610ec457610ec4614d6d565b145b15610ed95781610ed5816155d0565b9250505b80610ee3816155d0565b915050610e7a565b506000816001600160401b03811115610f0657610f066149dd565b604051908082528060200260200182016040528015610f3f57816020015b610f2c614868565b815260200190600190039081610f245790505b509050600060015b6001548111610cf15760008181526004602052604090206003015486148015610f93575060008181526004602052604081206008015460ff166002811115610f9157610f91614d6d565b145b1561149657600460008281526020019081526020016000206040518061024001604052908160008201548152602001600182018054610fd190615580565b80601f0160208091040260200160405190810160405280929190818152602001828054610ffd90615580565b801561104a5780601f1061101f5761010080835404028352916020019161104a565b820191906000526020600020905b81548152906001019060200180831161102d57829003601f168201915b5050505050815260200160028201805461106390615580565b80601f016020809104026020016040519081016040528092919081815260200182805461108f90615580565b80156110dc5780601f106110b1576101008083540402835291602001916110dc565b820191906000526020600020905b8154815290600101906020018083116110bf57829003601f168201915b50505050508152602001600382015481526020016004820180546110ff90615580565b80601f016020809104026020016040519081016040528092919081815260200182805461112b90615580565b80156111785780601f1061114d57610100808354040283529160200191611178565b820191906000526020600020905b81548152906001019060200180831161115b57829003601f168201915b5050509183525050600582015460208201526006820154604082015260078201546060820152600882015460809091019060ff1660028111156111bd576111bd614d6d565b60028111156111ce576111ce614d6d565b815260200160098201805480602002602001604051908101604052809291908181526020016000905b828210156112a357838290600052602060002001805461121690615580565b80601f016020809104026020016040519081016040528092919081815260200182805461124290615580565b801561128f5780601f106112645761010080835404028352916020019161128f565b820191906000526020600020905b81548152906001019060200180831161127257829003601f168201915b5050505050815260200190600101906111f7565b505050508152602001600a820180546112bb90615580565b80601f01602080910402602001604051908101604052809291908181526020018280546112e790615580565b80156113345780601f1061130957610100808354040283529160200191611334565b820191906000526020600020905b81548152906001019060200180831161131757829003601f168201915b50505050508152602001600b8201805461134d90615580565b80601f016020809104026020016040519081016040528092919081815260200182805461137990615580565b80156113c65780601f1061139b576101008083540402835291602001916113c6565b820191906000526020600020905b8154815290600101906020018083116113a957829003601f168201915b5050509183525050600c8201546020820152600d8201546040820152600e82015460609091019060ff16600281111561140157611401614d6d565b600281111561141257611412614d6d565b8152602001600e820160019054906101000a900460ff16600381111561143a5761143a614d6d565b600381111561144b5761144b614d6d565b8152600f820154602082015260109091015460ff161515604090910152835184908490811061147c5761147c6155e9565b60200260200101819052508180611492906155d0565b9250505b806114a0816155d0565b915050610f47565b6040516a2a3930b739b837b93a32b960a91b6020820152602b0160405160208183030381529060405280519060200120816040516020016114e99190615268565b60405160208183030381529060405280519060200120148061155d57506040516857617265686f75736560b81b602082015260290160405160208183030381529060405280519060200120816040516020016115459190615268565b60405160208183030381529060405280519060200120145b6115a45760405162461bcd60e51b8152602060048201526018602482015277496e76616c6964207061727469636970616e74207479706560401b6044820152606401610510565b60008481526004602052604081205490036115d15760405162461bcd60e51b8152600401610510906155ff565b600160008581526004602052604090206008015460ff1660028111156115f9576115f9614d6d565b1461163f5760405162461bcd60e51b815260206004820152601660248201527510985d18da081b5d5cdd08189948185c1c1c9bdd995960521b6044820152606401610510565b6040805160808101825284815242602080830191825282840186815260608401869052600089815260038352948520805460018181018355918752929095208451600490930201918255915193810193909355519091829160028201906116a6908261567c565b50606082015160038201906116bb908261567c565b5050604051712130ba103230ba903b30b71031b43abcb2b760711b6020820152603201905060405160208183030381529060405280519060200120836040516020016117079190615268565b604051602081830303815290604052805190602001200361174c576000858152600460205260409020600e8101805461ffff1916610101179055600f018490556118e9565b604051722a30b690323ab733903b30b71031b43abcb2b760691b602082015260330160405160208183030381529060405280519060200120836040516020016117959190615268565b60405160208183030381529060405280519060200120036117db576000858152600460205260409020600e0180546002919061ff001916610100835b02179055506118e9565b604051722a34b2b8103a3ab1903b30b71031b43abcb2b760691b602082015260330160405160208183030381529060405280519060200120836040516020016118249190615268565b6040516020818303038152906040528051906020012003611864576000858152600460205260409020600e0180546001919061ff001916610100836117d1565b604051742437b0b7103a3430b734103b30b71031b43abcb2b760591b602082015260350160405160208183030381529060405280519060200120836040516020016118af9190615268565b60405160208183030381529060405280519060200120036118e9576000858152600460205260409020600e01805461ffff19166103021790555b60008581526004602052604090819020600e0154905186917f946c8fa0a82d640c200413cf1c62f9401d34b0f1435a263a281ff0fd09030ae89161193b91610100900460ff169087908990889061573b565b60405180910390a25050505050565b60008281526004602052604081205490036119775760405162461bcd60e51b8152600401610510906155ff565b6000828152600460205260409020600801805482919060ff191660018360028111156119a5576119a5614d6d565b0217905550817fcf4d4f3dcd5294f4d19269f489155c2187699f4a9fb9004b6a303752b00b282f826040516119da9190615255565b60405180910390a25050565b60006005856040516119f89190615268565b908152602001604051809103902054905080600003611a295760405162461bcd60e51b81526004016105109061553d565b611a35818585856114a8565b5050505050565b6060600060015b6001548111611a975760008181526004602052604081206008015460ff166002811115611a7257611a72614d6d565b03611a855781611a81816155d0565b9250505b80611a8f816155d0565b915050611a43565b506000816001600160401b03811115611ab257611ab26149dd565b604051908082528060200260200182016040528015611aeb57816020015b611ad8614868565b815260200190600190039081611ad05790505b509050600060015b60015481116120375760008181526004602052604081206008015460ff166002811115611b2257611b22614d6d565b0361202557600460008281526020019081526020016000206040518061024001604052908160008201548152602001600182018054611b6090615580565b80601f0160208091040260200160405190810160405280929190818152602001828054611b8c90615580565b8015611bd95780601f10611bae57610100808354040283529160200191611bd9565b820191906000526020600020905b815481529060010190602001808311611bbc57829003601f168201915b50505050508152602001600282018054611bf290615580565b80601f0160208091040260200160405190810160405280929190818152602001828054611c1e90615580565b8015611c6b5780601f10611c4057610100808354040283529160200191611c6b565b820191906000526020600020905b815481529060010190602001808311611c4e57829003601f168201915b5050505050815260200160038201548152602001600482018054611c8e90615580565b80601f0160208091040260200160405190810160405280929190818152602001828054611cba90615580565b8015611d075780601f10611cdc57610100808354040283529160200191611d07565b820191906000526020600020905b815481529060010190602001808311611cea57829003601f168201915b5050509183525050600582015460208201526006820154604082015260078201546060820152600882015460809091019060ff166002811115611d4c57611d4c614d6d565b6002811115611d5d57611d5d614d6d565b815260200160098201805480602002602001604051908101604052809291908181526020016000905b82821015611e32578382906000526020600020018054611da590615580565b80601f0160208091040260200160405190810160405280929190818152602001828054611dd190615580565b8015611e1e5780601f10611df357610100808354040283529160200191611e1e565b820191906000526020600020905b815481529060010190602001808311611e0157829003601f168201915b505050505081526020019060010190611d86565b505050508152602001600a82018054611e4a90615580565b80601f0160208091040260200160405190810160405280929190818152602001828054611e7690615580565b8015611ec35780601f10611e9857610100808354040283529160200191611ec3565b820191906000526020600020905b815481529060010190602001808311611ea657829003601f168201915b50505050508152602001600b82018054611edc90615580565b80601f0160208091040260200160405190810160405280929190818152602001828054611f0890615580565b8015611f555780601f10611f2a57610100808354040283529160200191611f55565b820191906000526020600020905b815481529060010190602001808311611f3857829003601f168201915b5050509183525050600c8201546020820152600d8201546040820152600e82015460609091019060ff166002811115611f9057611f90614d6d565b6002811115611fa157611fa1614d6d565b8152602001600e820160019054906101000a900460ff166003811115611fc957611fc9614d6d565b6003811115611fda57611fda614d6d565b8152600f820154602082015260109091015460ff161515604090910152835184908490811061200b5761200b6155e9565b60200260200101819052508180612021906155d0565b9250505b8061202f816155d0565b915050611af3565b50909392505050565b600082815260046020526040812054900361206d5760405162461bcd60e51b8152600401610510906155ff565b60026000838152600460205260409020600e015460ff16600281111561209557612095614d6d565b146121005760405162461bcd60e51b815260206004820152603560248201527f4261746368206d7573742062652064656c697665726564206265666f7265207760448201527430b932b437bab9b29031b7b73334b936b0ba34b7b760591b6064820152608401610510565b60036000838152600460205260409020600e0154610100900460ff16600381111561212d5761212d614d6d565b146121845760405162461bcd60e51b815260206004820152602160248201527f4261746368206d75737420626520696e2044656c6976657265642073746174756044820152607360f81b6064820152608401610510565b600082815260086020908152604080832084845290915290205460ff16156122065760405162461bcd60e51b815260206004820152602f60248201527f546869732077617265686f7573652068617320616c726561647920636f6e666960448201526e0e4dacac840e8d0d2e640c4c2e8c6d608b1b6064820152608401610510565b60008281526008602090815260408083208484528252808320805460ff19166001908117909155815160808101835285815282518084018452600981526857617265686f75736560b81b81860152818501908152428285015283518085018552601e81527f436f6e6669726d656420726563656970742061742077617265686f7573650000818701526060830152878652600785529285208054808401825590865293909420845160049094020192835590518392918201906122c9908261567c565b5060408201516002820155606082015160038201906122e8908261567c565b505060405183915084907f5a0ca583abbe4762e00286f277fb259ed4a722726e02cd87aa38d3b2eeead4f590600090a3505050565b6060600060015b6001548111612366576000818152600460205260409020600301548490036123545781612350816155d0565b9250505b8061235e816155d0565b915050612324565b506000816001600160401b03811115612381576123816149dd565b6040519080825280602002602001820160405280156123ba57816020015b6123a7614868565b81526020019060019003908161239f5790505b509050600060015b6001548111610cf1576000818152600460205260409020600301548690036128e25760046000828152602001908152602001600020604051806102400160405290816000820154815260200160018201805461241d90615580565b80601f016020809104026020016040519081016040528092919081815260200182805461244990615580565b80156124965780601f1061246b57610100808354040283529160200191612496565b820191906000526020600020905b81548152906001019060200180831161247957829003601f168201915b505050505081526020016002820180546124af90615580565b80601f01602080910402602001604051908101604052809291908181526020018280546124db90615580565b80156125285780601f106124fd57610100808354040283529160200191612528565b820191906000526020600020905b81548152906001019060200180831161250b57829003601f168201915b505050505081526020016003820154815260200160048201805461254b90615580565b80601f016020809104026020016040519081016040528092919081815260200182805461257790615580565b80156125c45780601f10612599576101008083540402835291602001916125c4565b820191906000526020600020905b8154815290600101906020018083116125a757829003601f168201915b5050509183525050600582015460208201526006820154604082015260078201546060820152600882015460809091019060ff16600281111561260957612609614d6d565b600281111561261a5761261a614d6d565b815260200160098201805480602002602001604051908101604052809291908181526020016000905b828210156126ef57838290600052602060002001805461266290615580565b80601f016020809104026020016040519081016040528092919081815260200182805461268e90615580565b80156126db5780601f106126b0576101008083540402835291602001916126db565b820191906000526020600020905b8154815290600101906020018083116126be57829003601f168201915b505050505081526020019060010190612643565b505050508152602001600a8201805461270790615580565b80601f016020809104026020016040519081016040528092919081815260200182805461273390615580565b80156127805780601f1061275557610100808354040283529160200191612780565b820191906000526020600020905b81548152906001019060200180831161276357829003601f168201915b50505050508152602001600b8201805461279990615580565b80601f01602080910402602001604051908101604052809291908181526020018280546127c590615580565b80156128125780601f106127e757610100808354040283529160200191612812565b820191906000526020600020905b8154815290600101906020018083116127f557829003601f168201915b5050509183525050600c8201546020820152600d8201546040820152600e82015460609091019060ff16600281111561284d5761284d614d6d565b600281111561285e5761285e614d6d565b8152602001600e820160019054906101000a900460ff16600381111561288657612886614d6d565b600381111561289757612897614d6d565b8152600f820154602082015260109091015460ff16151560409091015283518490849081106128c8576128c86155e9565b602002602001018190525081806128de906155d0565b9250505b806128ec816155d0565b9150506123c2565b60008181526004602052604081205490036129215760405162461bcd60e51b8152600401610510906155ff565b60008181526004602052604081206008015460ff16600281111561294757612947614d6d565b146129645760405162461bcd60e51b81526004016105109061577e565b6000818152600460205260409081902060088101805460ff191660029081179091556003820154925184937ffd30c1d70626cdbca41a738198079b1d57c2a7d36d52b79ae4b4bcc980506f76936129bf939192910190615832565b60405180910390a2604080516001808252818301909252600091602080830190803683375050506000838152600460205260408120600d0154825192935091839190612a0d57612a0d6155e9565b60209081029190910181019190915260408051600080825292810190915281612a46565b6060815260200190600190039081612a315790505b506000546040516324ac943560e01b81529192506001600160a01b0316906324ac943590612a7f908690600190869088906004016158a0565b600060405180830381600087803b158015612a9957600080fd5b505af1158015612aad573d6000803e3d6000fd5b50505050505050565b6000818152600460205260408120548103612ae35760405162461bcd60e51b8152600401610510906155ff565b506000908152600460205260409020600e0154610100900460ff1690565b612b09614868565b6000828152600460205260408120549003612b365760405162461bcd60e51b8152600401610510906155ff565b600460008381526020019081526020016000206040518061024001604052908160008201548152602001600182018054612b6f90615580565b80601f0160208091040260200160405190810160405280929190818152602001828054612b9b90615580565b8015612be85780601f10612bbd57610100808354040283529160200191612be8565b820191906000526020600020905b815481529060010190602001808311612bcb57829003601f168201915b50505050508152602001600282018054612c0190615580565b80601f0160208091040260200160405190810160405280929190818152602001828054612c2d90615580565b8015612c7a5780601f10612c4f57610100808354040283529160200191612c7a565b820191906000526020600020905b815481529060010190602001808311612c5d57829003601f168201915b5050505050815260200160038201548152602001600482018054612c9d90615580565b80601f0160208091040260200160405190810160405280929190818152602001828054612cc990615580565b8015612d165780601f10612ceb57610100808354040283529160200191612d16565b820191906000526020600020905b815481529060010190602001808311612cf957829003601f168201915b5050509183525050600582015460208201526006820154604082015260078201546060820152600882015460809091019060ff166002811115612d5b57612d5b614d6d565b6002811115612d6c57612d6c614d6d565b815260200160098201805480602002602001604051908101604052809291908181526020016000905b82821015612e41578382906000526020600020018054612db490615580565b80601f0160208091040260200160405190810160405280929190818152602001828054612de090615580565b8015612e2d5780601f10612e0257610100808354040283529160200191612e2d565b820191906000526020600020905b815481529060010190602001808311612e1057829003601f168201915b505050505081526020019060010190612d95565b505050508152602001600a82018054612e5990615580565b80601f0160208091040260200160405190810160405280929190818152602001828054612e8590615580565b8015612ed25780601f10612ea757610100808354040283529160200191612ed2565b820191906000526020600020905b815481529060010190602001808311612eb557829003601f168201915b50505050508152602001600b82018054612eeb90615580565b80601f0160208091040260200160405190810160405280929190818152602001828054612f1790615580565b8015612f645780601f10612f3957610100808354040283529160200191612f64565b820191906000526020600020905b815481529060010190602001808311612f4757829003601f168201915b5050509183525050600c8201546020820152600d8201546040820152600e82015460609091019060ff166002811115612f9f57612f9f614d6d565b6002811115612fb057612fb0614d6d565b8152602001600e820160019054906101000a900460ff166003811115612fd857612fd8614d6d565b6003811115612fe957612fe9614d6d565b8152600f820154602082015260109091015460ff16151560409091015292915050565b60008181526004602052604081205481036130395760405162461bcd60e51b8152600401610510906155ff565b506000908152600460205260409020600e015460ff1690565b6000806000848152600460205260409020600e0154610100900460ff16600381111561308057613080614d6d565b14806130d2575060036000848152600460205260409020600e0154610100900460ff1660038111156130b4576130b4614d6d565b1480156130d257506000838152600460205260409020600f01548214155b9392505050565b60008481526004602052604081205490036131065760405162461bcd60e51b8152600401610510906155ff565b60008481526007602090815260408083208151608081018352878152808401878152429382019390935260608101869052815460018181018455928652939094208451600490940201928355905190820190613162908261567c565b506040820151600282015560608201516003820190613181908261567c565b505050837fe5fd3732b00b2878e55e64cdde6c59b6566f044952fe6b2f36658364da9b561c8484846040516131b893929190615943565b60405180910390a250505050565b6060600060015b6001548111613240576000818152600460205260409020600301548414801561321b5750600160008281526004602052604090206008015460ff16600281111561321957613219614d6d565b145b1561322e578161322a816155d0565b9250505b80613238816155d0565b9150506131cd565b506000816001600160401b0381111561325b5761325b6149dd565b60405190808252806020026020018201604052801561329457816020015b613281614868565b8152602001906001900390816132795790505b509050600060015b6001548111610cf157600081815260046020526040902060030154861480156132ea5750600160008281526004602052604090206008015460ff1660028111156132e8576132e8614d6d565b145b156137ed5760046000828152602001908152602001600020604051806102400160405290816000820154815260200160018201805461332890615580565b80601f016020809104026020016040519081016040528092919081815260200182805461335490615580565b80156133a15780601f10613376576101008083540402835291602001916133a1565b820191906000526020600020905b81548152906001019060200180831161338457829003601f168201915b505050505081526020016002820180546133ba90615580565b80601f01602080910402602001604051908101604052809291908181526020018280546133e690615580565b80156134335780601f1061340857610100808354040283529160200191613433565b820191906000526020600020905b81548152906001019060200180831161341657829003601f168201915b505050505081526020016003820154815260200160048201805461345690615580565b80601f016020809104026020016040519081016040528092919081815260200182805461348290615580565b80156134cf5780601f106134a4576101008083540402835291602001916134cf565b820191906000526020600020905b8154815290600101906020018083116134b257829003601f168201915b5050509183525050600582015460208201526006820154604082015260078201546060820152600882015460809091019060ff16600281111561351457613514614d6d565b600281111561352557613525614d6d565b815260200160098201805480602002602001604051908101604052809291908181526020016000905b828210156135fa57838290600052602060002001805461356d90615580565b80601f016020809104026020016040519081016040528092919081815260200182805461359990615580565b80156135e65780601f106135bb576101008083540402835291602001916135e6565b820191906000526020600020905b8154815290600101906020018083116135c957829003601f168201915b50505050508152602001906001019061354e565b505050508152602001600a8201805461361290615580565b80601f016020809104026020016040519081016040528092919081815260200182805461363e90615580565b801561368b5780601f106136605761010080835404028352916020019161368b565b820191906000526020600020905b81548152906001019060200180831161366e57829003601f168201915b50505050508152602001600b820180546136a490615580565b80601f01602080910402602001604051908101604052809291908181526020018280546136d090615580565b801561371d5780601f106136f25761010080835404028352916020019161371d565b820191906000526020600020905b81548152906001019060200180831161370057829003601f168201915b5050509183525050600c8201546020820152600d8201546040820152600e82015460609091019060ff16600281111561375857613758614d6d565b600281111561376957613769614d6d565b8152602001600e820160019054906101000a900460ff16600381111561379157613791614d6d565b60038111156137a2576137a2614d6d565b8152600f820154602082015260109091015460ff16151560409091015283518490849081106137d3576137d36155e9565b602002602001018190525081806137e9906155d0565b9250505b806137f7816155d0565b91505061329c565b613807614868565b60006005836040516138199190615268565b90815260200160405180910390205490508060000361384a5760405162461bcd60e51b81526004016105109061553d565b60046000828152602001908152602001600020604051806102400160405290816000820154815260200160018201805461388390615580565b80601f01602080910402602001604051908101604052809291908181526020018280546138af90615580565b80156138fc5780601f106138d1576101008083540402835291602001916138fc565b820191906000526020600020905b8154815290600101906020018083116138df57829003601f168201915b5050505050815260200160028201805461391590615580565b80601f016020809104026020016040519081016040528092919081815260200182805461394190615580565b801561398e5780601f106139635761010080835404028352916020019161398e565b820191906000526020600020905b81548152906001019060200180831161397157829003601f168201915b50505050508152602001600382015481526020016004820180546139b190615580565b80601f01602080910402602001604051908101604052809291908181526020018280546139dd90615580565b8015613a2a5780601f106139ff57610100808354040283529160200191613a2a565b820191906000526020600020905b815481529060010190602001808311613a0d57829003601f168201915b5050509183525050600582015460208201526006820154604082015260078201546060820152600882015460809091019060ff166002811115613a6f57613a6f614d6d565b6002811115613a8057613a80614d6d565b815260200160098201805480602002602001604051908101604052809291908181526020016000905b82821015613b55578382906000526020600020018054613ac890615580565b80601f0160208091040260200160405190810160405280929190818152602001828054613af490615580565b8015613b415780601f10613b1657610100808354040283529160200191613b41565b820191906000526020600020905b815481529060010190602001808311613b2457829003601f168201915b505050505081526020019060010190613aa9565b505050508152602001600a82018054613b6d90615580565b80601f0160208091040260200160405190810160405280929190818152602001828054613b9990615580565b8015613be65780601f10613bbb57610100808354040283529160200191613be6565b820191906000526020600020905b815481529060010190602001808311613bc957829003601f168201915b50505050508152602001600b82018054613bff90615580565b80601f0160208091040260200160405190810160405280929190818152602001828054613c2b90615580565b8015613c785780601f10613c4d57610100808354040283529160200191613c78565b820191906000526020600020905b815481529060010190602001808311613c5b57829003601f168201915b5050509183525050600c8201546020820152600d8201546040820152600e82015460609091019060ff166002811115613cb357613cb3614d6d565b6002811115613cc457613cc4614d6d565b8152602001600e820160019054906101000a900460ff166003811115613cec57613cec614d6d565b6003811115613cfd57613cfd614d6d565b8152600f820154602082015260109091015460ff1615156040909101529392505050565b6000818152600460205260408120549003613d4e5760405162461bcd60e51b8152600401610510906155ff565b60008181526004602052604081206008015460ff166002811115613d7457613d74614d6d565b14613d915760405162461bcd60e51b81526004016105109061577e565b6000818152600460208181526040808420600881018054600160ff199182168117909255600685529583902080549096161790945591905260038201549051909183917f1a621270a25ae67b5e557b98be27914cd1de793b7ca49110be85cb5aaa169c9b91613e0591600290910190615978565b60405180910390a3600081815260046020526040908190206003810154915183917f309958f3629dbb8b1c3fb39cc2ffd4759c619a8c6c7927159d9e608c99ae463291613e559160020190615978565b60405180910390a3604080516001808252818301909252600091602080830190803683375050506000838152600460205260408120600d0154825192935091839190613ea357613ea36155e9565b60209081029190910181019190915260408051600080825292810190915281613edc565b6060815260200190600190039081613ec75790505b506000546040516324ac943560e01b81529192506001600160a01b0316906324ac943590612a7f9086906001908690889060040161598b565b604080518082019091526002815261030360f41b60208201526060906000613f3c84614651565b6040805142602080830191909152818301889052825180830384018152606090920190925280519101209091506000613f7482614651565b90506000848483604051602001613f8d93929190615a1a565b60405160208183030381529060405290506000613fa98261477c565b9050600082613fba8360ff16614651565b604051602001613fcb929190615a5d565b60408051601f198184030181529190529998505050505050505050565b600060058260200151604051613ffe9190615268565b9081526020016040518091039020546000146140525760405162461bcd60e51b81526020600482015260136024820152725353434320616c72656164792065786973747360681b6044820152606401610510565b6000826060015151116140a45760405162461bcd60e51b815260206004820152601a6024820152795175616e74697479206d757374206e6f7420626520656d70747960301b6044820152606401610510565b60008260800151511161410c5760405162461bcd60e51b815260206004820152602a60248201527f4174206c65617374206f6e652070726f6475637420696d6167652055524c20696044820152691cc81c995c5d5a5c995960b21b6064820152608401610510565b60008260a00151511161416b5760405162461bcd60e51b815260206004820152602160248201527f436572746966696361746520696d6167652055524c20697320726571756972656044820152601960fa1b6064820152608401610510565b60008260c0015151116141bf5760405162461bcd60e51b815260206004820152601c60248201527b11985c9b481c1b1bdd081b9d5b58995c881a5cc81c995c5d5a5c995960221b6044820152606401610510565b60008260e001511161420e5760405162461bcd60e51b8152602060048201526018602482015277141c9bd91d58dd081251081b5d5cdd081899481d985b1a5960421b6044820152606401610510565b60008261010001511161425c5760405162461bcd60e51b815260206004820152601660248201527514dd185c9d0819185d19481a5cc81c995c5d5a5c995960521b6044820152606401610510565b6000826101200151116142a85760405162461bcd60e51b8152602060048201526014602482015273115b990819185d19481a5cc81c995c5d5a5c995960621b6044820152606401610510565b8161012001518261010001511061430c5760405162461bcd60e51b815260206004820152602260248201527f53746172742064617465206d757374206265206265666f726520656e64206461604482015261746560f01b6064820152608401610510565b81515161435a5760405162461bcd60e51b815260206004820152601c60248201527b4261746368206e616d65206d757374206e6f7420626520656d70747960201b6044820152606401610510565b6001805490600061436a836155d0565b919050555060006001549050600042905060006143a4856020015186604001518760600151858960c001518a60e001518b60000151614826565b9050600060405180610240016040528085815260200187600001518152602001876020015181526020018760400151815260200187606001518152602001848152602001876101000151815260200187610120015181526020016000600281111561441157614411614d6d565b8152608080890151602083015260a0808a0151604084015260c0808b0151606085015291830186905260e08a01519083015201600081526020016000815260006020808301829052604092830182905287825260048152919020825181559082015191925082916001820190614487908261567c565b506040820151600282019061449c908261567c565b5060608201516003820155608082015160048201906144bb908261567c565b5060a0820151600582015560c0820151600682015560e0820151600782015561010082015160088201805460ff191660018360028111156144fe576144fe614d6d565b0217905550610120820151805161451f916009840191602090910190614918565b50610140820151600a820190614535908261567c565b50610160820151600b82019061454b908261567c565b50610180820151600c8201556101a0820151600d8201556101c0820151600e8201805460ff1916600183600281111561458657614586614d6d565b02179055506101e0820151600e8201805461ff0019166101008360038111156145b1576145b1614d6d565b0217905550610200820151600f820155610220909101516010909101805460ff1916911515919091179055602086015160405185916005916145f39190615268565b908152602001604051809103902081905550837f58c168780de5fc719a1e7a85c7eca394e664c0e74b7c9ebc621f0b093112d04b8760200151886040015160405161463f929190615a8c565b60405180910390a25091949350505050565b6060816000036146785750506040805180820190915260018152600360fc1b602082015290565b8160005b81156146a2578061468c816155d0565b915061469b9050600a83615ac4565b915061467c565b6000816001600160401b038111156146bc576146bc6149dd565b6040519080825280601f01601f1916602001820160405280156146e6576020820181803683370190505b509050815b8515614773576146fc600182615ad8565b9050600061470b600a88615ac4565b61471690600a615aeb565b6147209088615ad8565b61472b906030615b02565b905060008160f81b905080848481518110614748576147486155e9565b60200101906001600160f81b031916908160001a90535061476a600a89615ac4565b975050506146eb565b50949350505050565b60008181805b82518110156147f957600060308483815181106147a1576147a16155e9565b01602001516147b3919060f81c615b1b565b90506147c0600283615b34565b156147cb57806147d6565b6147d6816003615b48565b6147e39060ff1684615b6b565b92505080806147f1906155d0565b915050614782565b506000600a6148088184615b34565b61481390600a615ad8565b61481d9190615b34565b95945050505050565b6000878787878787876040516020016148459796959493929190615b7e565b604051602081830303815290604052805190602001209050979650505050505050565b6040518061024001604052806000815260200160608152602001606081526020016000815260200160608152602001600081526020016000815260200160008152602001600060028111156148bf576148bf614d6d565b81526020016060815260200160608152602001606081526020016000801916815260200160008152602001600060028111156148fd576148fd614d6d565b81526020016000815260006020820181905260409091015290565b82805482825590600052602060002090810192821561495e579160200282015b8281111561495e578251829061494e908261567c565b5091602001919060010190614938565b5061496a92915061496e565b5090565b8082111561496a576000614982828261498b565b5060010161496e565b50805461499790615580565b6000825580601f106149a7575050565b601f0160209004906000526020600020908101906149c591906149c8565b50565b5b8082111561496a57600081556001016149c9565b634e487b7160e01b600052604160045260246000fd5b60405160e081016001600160401b0381118282101715614a1557614a156149dd565b60405290565b604051601f8201601f191681016001600160401b0381118282101715614a4357614a436149dd565b604052919050565b60006001600160401b03821115614a6457614a646149dd565b50601f01601f191660200190565b600082601f830112614a8357600080fd5b8135614a96614a9182614a4b565b614a1b565b818152846020838601011115614aab57600080fd5b816020850160208301376000918101602001919091529392505050565b600060208284031215614ada57600080fd5b81356001600160401b03811115614af057600080fd5b614afc84828501614a72565b949350505050565b600060208284031215614b1657600080fd5b5035919050565b60005b83811015614b38578181015183820152602001614b20565b50506000910152565b60008151808452614b59816020860160208601614b1d565b601f01601f19169290920160200192915050565b600082825180855260208086019550808260051b84010181860160005b84811015614bb857601f19868403018952614ba6838351614b41565b98840198925090830190600101614b8a565b5090979650505050505050565b600081518084526020808501945080840160005b83811015614bf557815187529582019590820190600101614bd9565b509495945050505050565b60006020808301818452808551808352604092508286019150828160051b87010184880160005b83811015614cd157603f19898403018552815160e0815185528882015189860152878201518189870152614c5d82870182614b41565b91505060608083015186830382880152614c778382614b41565b925050506080808301511515818701525060a08083015186830382880152614c9f8382614b6d565b9250505060c08083015192508582038187015250614cbd8183614bc5565b968901969450505090860190600101614c27565b509098975050505050505050565b60006020808301818452808551808352604092508286019150828160051b87010184880160005b83811015614cd157603f1989840301855281516080815185528882015189860152878201518189870152614d3c82870182614b41565b91505060608083015192508582038187015250614d598183614b41565b968901969450505090860190600101614d06565b634e487b7160e01b600052602160045260246000fd5b600381106149c5576149c5614d6d565b614d9c81614d83565b9052565b60048110614d9c57614d9c614d6d565b6000610240825184526020830151816020860152614dd082860182614b41565b91505060408301518482036040860152614dea8282614b41565b9150506060830151606085015260808301518482036080860152614e0e8282614b41565b91505060a083015160a085015260c083015160c085015260e083015160e085015261010080840151614e4282870182614d93565b50506101208084015185830382870152614e5c8382614b6d565b925050506101408084015185830382870152614e788382614b41565b925050506101608084015185830382870152614e948382614b41565b925050506101808084015181860152506101a08084015181860152506101c080840151614ec382870182614d93565b50506101e080840151614ed882870182614da0565b505061020083810151908501526102208084015180151582870152610cf1565b6000602080830181845280855180835260408601915060408160051b870101925083870160005b82811015614f4d57603f19888603018452614f3b858351614db0565b94509285019290850190600101614f1f565b5092979650505050505050565b60006001600160401b03821115614f7357614f736149dd565b5060051b60200190565b600082601f830112614f8e57600080fd5b81356020614f9e614a9183614f5a565b82815260059290921b84018101918181019086841115614fbd57600080fd5b8286015b84811015614ffc5780356001600160401b03811115614fe05760008081fd5b614fee8986838b0101614a72565b845250918301918301614fc1565b509695505050505050565b60008060008060008060008060006101208a8c03121561502657600080fd5b89356001600160401b038082111561503d57600080fd5b6150498d838e01614a72565b9a5060208c0135995060408c013591508082111561506657600080fd5b6150728d838e01614a72565b985060608c013591508082111561508857600080fd5b6150948d838e01614f7d565b975060808c01359150808211156150aa57600080fd5b6150b68d838e01614a72565b965060a08c01359150808211156150cc57600080fd5b506150d98c828d01614a72565b94505060c08a0135925060e08a013591506101008a013590509295985092959850929598565b6020815260006130d26020830184614bc5565b6000806000806080858703121561512857600080fd5b843593506020850135925060408501356001600160401b038082111561514d57600080fd5b61515988838901614a72565b9350606087013591508082111561516f57600080fd5b5061517c87828801614a72565b91505092959194509250565b6000806040838503121561519b57600080fd5b823591506020830135600381106151b157600080fd5b809150509250929050565b600080600080608085870312156151d257600080fd5b84356001600160401b03808211156151e957600080fd5b6151f588838901614a72565b955060208701359450604087013591508082111561514d57600080fd5b6000806040838503121561522557600080fd5b50508035926020909101359150565b6020810161049d8284614da0565b6020815260006130d26020830184614db0565b6020810161526283614d83565b91905290565b6000825161527a818460208701614b1d565b9190910192915050565b600082601f83011261529557600080fd5b81516152a3614a9182614a4b565b8181528460208386010111156152b857600080fd5b614afc826020830160208701614b1d565b805180151581146152d957600080fd5b919050565b600082601f8301126152ef57600080fd5b815160206152ff614a9183614f5a565b82815260059290921b8401810191818101908684111561531e57600080fd5b8286015b84811015614ffc5780516001600160401b038111156153415760008081fd5b61534f8986838b0101615284565b845250918301918301615322565b600082601f83011261536e57600080fd5b8151602061537e614a9183614f5a565b82815260059290921b8401810191818101908684111561539d57600080fd5b8286015b84811015614ffc57805183529183019183016153a1565b600060208083850312156153cb57600080fd5b82516001600160401b03808211156153e257600080fd5b818501915085601f8301126153f657600080fd5b8151615404614a9182614f5a565b81815260059190911b8301840190848101908883111561542357600080fd5b8585015b838110156155305780518581111561543e57600080fd5b860160e0818c03601f190112156154555760008081fd5b61545d6149f3565b8882015181526040808301518a830152606080840151898111156154815760008081fd5b61548f8f8d83880101615284565b83850152506080915081840151898111156154aa5760008081fd5b6154b88f8d83880101615284565b82850152505060a06154cb8185016152c9565b8284015260c0915081840151898111156154e55760008081fd5b6154f38f8d838801016152de565b82850152505060e08301518881111561550c5760008081fd5b61551a8e8c8387010161535d565b9183019190915250845250918601918601615427565b5098975050505050505050565b60208082526023908201527f426174636820646f6573206e6f7420657869737420776974682074686973205360408201526253434360e81b606082015260800190565b600181811c9082168061559457607f821691505b6020821081036155b457634e487b7160e01b600052602260045260246000fd5b50919050565b634e487b7160e01b600052601160045260246000fd5b6000600182016155e2576155e26155ba565b5060010190565b634e487b7160e01b600052603260045260246000fd5b60208082526014908201527310985d18da08191bd95cc81b9bdd08195e1a5cdd60621b604082015260600190565b601f82111561567757600081815260208120601f850160051c810160208610156156545750805b601f850160051c820191505b8181101561567357828155600101615660565b5050505b505050565b81516001600160401b03811115615695576156956149dd565b6156a9816156a38454615580565b8461562d565b602080601f8311600181146156de57600084156156c65750858301515b600019600386901b1c1916600185901b178555615673565b600085815260208120601f198616915b8281101561570d578886015182559484019460019091019084016156ee565b508582101561572b5787850151600019600388901b60f8161c191681555b5050505050600190811b01905550565b6157458186614da0565b60806020820152600061575b6080830186614b41565b84604084015282810360608401526157738185614b41565b979650505050505050565b6020808252601d908201527f4261746368206973206e6f742070656e64696e6720617070726f76616c000000604082015260600190565b600081546157c281615580565b8085526020600183811680156157df57600181146157f957615827565b60ff1985168884015283151560051b880183019550615827565b866000528260002060005b8581101561581f5781548a8201860152908301908401615804565b890184019650505b505050505092915050565b828152604060208201526000614afc60408301846157b5565b600081518084526020808501808196508360051b8101915082860160005b85811015615893578284038952615881848351614b41565b98850198935090840190600101615869565b5091979650505050505050565b84815260c06020820152600e60c08201526d10985d18da0814995a9958dd195960921b60e08201526000610100806040840152602781840152507f426174636820686173206265656e2072656a65637465642062792074686520616101208301526638383937bb32b960c91b610140830152610160851515606084015280608084015261592f8184018661584b565b905082810360a08401526157738185614bc5565b83815260606020820152600061595c6060830185614b41565b828103604084015261596e8185614b41565b9695505050505050565b6020815260006130d260208301846157b5565b84815260c06020820152600e60c08201526d10985d18da08105c1c1c9bdd995960921b60e08201526000610100806040840152602781840152507f426174636820686173206265656e20617070726f7665642062792074686520616101208301526638383937bb32b960c91b610140830152610160851515606084015280608084015261592f8184018661584b565b60008451615a2c818460208901614b1d565b845190830190615a40818360208901614b1d565b8451910190615a53818360208801614b1d565b0195945050505050565b60008351615a6f818460208801614b1d565b835190830190615a83818360208801614b1d565b01949350505050565b604081526000615a9f6040830185614b41565b90508260208301529392505050565b634e487b7160e01b600052601260045260246000fd5b600082615ad357615ad3615aae565b500490565b8181038181111561049d5761049d6155ba565b808202811582820484141761049d5761049d6155ba565b60ff818116838216019081111561049d5761049d6155ba565b60ff828116828216039081111561049d5761049d6155ba565b600082615b4357615b43615aae565b500690565b60ff8181168382160290811690818114615b6457615b646155ba565b5092915050565b8082018082111561049d5761049d6155ba565b600088516020615b918285838e01614b1d565b81840191508982528851615baa81838501848d01614b1d565b80830192505087818301528651615bc78160408501848b01614b1d565b604092019182018690528451615be38160608501848901614b1d565b919091016060019a995050505050505050505056fea264697066735822122091348bac314d9e35eadfce5df6cea830c618bc26af31df9c07a4709388e772fd64736f6c63430008140033",
  "immutableReferences": {},
  "source": "// SPDX-License-Identifier: MIT\r\npragma solidity ^0.8.0;\r\nimport \"./ActivityLog.sol\";\r\ncontract TraceabilityContract {\r\n    ActivityLog private activityLogContract;   \r\n\r\n  constructor(address _activityLogAddress) {\r\n    require(_activityLogAddress != address(0), \"Invalid ActivityLog address\");\r\n    activityLogContract = ActivityLog(_activityLogAddress);\r\n}\r\n\r\n    uint256 private _batchIdCounter;\r\n    uint256 private _warehouseIdCounter;\r\n\r\nenum BatchStatus { PendingApproval, Approved, Rejected }\r\nenum TransportStatus { NotTransported, InTransit, Delivered }\r\nenum ParticipantType { Transporter, Warehouse }\r\nenum DetailedTransportStatus { NotStarted, InTransit, Paused, Delivered }\r\n\r\n    struct Batch {\r\n        uint256 batchId;\r\n        string name;  // Thm trng tn l hng\r\n        string sscc;\r\n        uint256 producerId;\r\n        string quantity;\r\n        uint256 productionDate;\r\n        uint256 startDate;\r\n        uint256 endDate;\r\n        BatchStatus status;\r\n        string[] productImageUrls;\r\n        string certificateImageUrl;\r\n        string farmPlotNumber;\r\n        bytes32 dataHash;\r\n        uint256 productId;\r\n        TransportStatus transportStatus;\r\n        DetailedTransportStatus detailedTransportStatus;\r\n        uint256 lastTransporterId;\r\n        bool warehouseConfirmed;  // Thm trng ny\r\n\r\n    }\r\n\r\n     struct BatchParams {\r\n        string name;\r\n        string sscc;\r\n        uint256 producerId;\r\n        string quantity;\r\n        string[] productImageUrls;\r\n        string certificateImageUrl;\r\n        string farmPlotNumber;\r\n        uint256 productId;\r\n        uint256 startDate;\r\n        uint256 endDate;\r\n    }\r\n    \r\n    struct Participation {\r\n        uint256 participantId;\r\n        string participantType;\r\n        uint256 timestamp;\r\n        string action;\r\n    }\r\n\r\n    struct TransportEvent {\r\n    uint256 participantId;\r\n    uint256 timestamp;\r\n    string action;\r\n    string participantType;\r\n}\r\n\r\nmapping(uint256 => TransportEvent[]) private _batchTransportEvents;\r\n\r\n\r\n    mapping(uint256 => Batch) private _batches;\r\n    mapping(string => uint256) private _ssccToBatchId;\r\n   \r\n    mapping(uint256 => bool) private _approvedBatches;\r\n    mapping(uint256 => Participation[]) private _batchParticipations;\r\n    \r\n    event BatchApproved(uint256 indexed batchId, uint256 indexed producerId, string sscc);\r\n    event BatchApprovedForQR(uint256 indexed batchId, uint256 indexed producerId, string sscc);\r\n    event ParticipationRecorded(uint256 indexed batchId, uint256 participantId, string participantType, string action);\r\n    event BatchCreated(uint256 indexed batchId, string sscc, uint256 producerId);\r\n    event ActivityLogAdded(\r\n        uint256 indexed uid,\r\n        string activityName,\r\n        string description,\r\n        bool isSystemGenerated,\r\n        string[] imageUrls,\r\n        uint256[] relatedProductIds\r\n    );\r\nevent TransportStatusUpdated(\r\n    uint256 indexed batchId, \r\n    DetailedTransportStatus newStatus, \r\n    string action, \r\n    uint256 participantId, \r\n    string participantType\r\n);\r\n\r\n\r\n\r\n\r\n    function addSystemActivityLog(\r\n        uint256 _uid,\r\n        string memory _activityName,\r\n        string memory _description,\r\n        uint256[] memory _relatedProductIds\r\n    ) internal {\r\n        activityLogContract.addActivityLog(\r\n            _uid,\r\n            _activityName,\r\n            _description,\r\n            true,\r\n            new string[](0),\r\n            _relatedProductIds\r\n        );\r\n    }\r\n\r\n\r\n    function createBatch(\r\n        string memory _name,  // Thm tham s tn l hng\r\n        uint256 _producerId,\r\n        string memory _quantity,\r\n        string[] memory _productImageUrls,\r\n        string memory _certificateImageUrl,\r\n        string memory _farmPlotNumber,\r\n        uint256 _productId,\r\n        uint256 _startDate,\r\n        uint256 _endDate\r\n    ) public returns (uint256) {\r\n        string memory sscc = generateSSCC(_producerId);\r\n        BatchParams memory params = BatchParams({\r\n            name: _name,  // Thm tn l hng\r\n            sscc: sscc,\r\n            producerId: _producerId,\r\n            quantity: _quantity,\r\n            productImageUrls: _productImageUrls,\r\n            certificateImageUrl: _certificateImageUrl,\r\n            farmPlotNumber: _farmPlotNumber,\r\n            productId: _productId,\r\n            startDate: _startDate,\r\n            endDate: _endDate\r\n        });\r\n\r\n        return _createBatch(params);\r\n    }\r\n\r\n    function generateSSCC(uint256 _producerId) private view returns (string memory) {\r\n        string memory prefix = \"00\";\r\n        string memory companyPrefix = uint2str(_producerId);\r\n        uint256 serialNumber = uint256(keccak256(abi.encodePacked(block.timestamp, _producerId)));\r\n        string memory serialReference = uint2str(serialNumber);\r\n        \r\n        string memory ssccWithoutCheck = string(abi.encodePacked(prefix, companyPrefix, serialReference));\r\n        uint8 checkDigit = calculateCheckDigit(ssccWithoutCheck);\r\n        \r\n        string memory sscc = string(abi.encodePacked(ssccWithoutCheck, uint2str(uint256(checkDigit))));\r\n        \r\n        return sscc;\r\n    }\r\n\r\n    function calculateCheckDigit(string memory _code) private pure returns (uint8) {\r\n        bytes memory codeBytes = bytes(_code);\r\n        uint256 sum = 0;\r\n        for (uint256 i = 0; i < codeBytes.length; i++) {\r\n            uint8 digit = uint8(codeBytes[i]) - 48;\r\n            sum += (i % 2 == 0) ? digit * 3 : digit;\r\n        }\r\n        uint8 checkDigit = uint8((10 - (sum % 10)) % 10);\r\n        return checkDigit;\r\n    }\r\n\r\n    function uint2str(uint256 _i) private pure returns (string memory) {\r\n        if (_i == 0) {\r\n            return \"0\";\r\n        }\r\n        uint256 j = _i;\r\n        uint256 length;\r\n        while (j != 0) {\r\n            length++;\r\n            j /= 10;\r\n        }\r\n        bytes memory bstr = new bytes(length);\r\n        uint256 k = length;\r\n        while (_i != 0) {\r\n            k = k-1;\r\n            uint8 temp = (48 + uint8(_i - _i / 10 * 10));\r\n            bytes1 b1 = bytes1(temp);\r\n            bstr[k] = b1;\r\n            _i /= 10;\r\n        }\r\n        return string(bstr);\r\n    }\r\n\r\n    function _createBatch(BatchParams memory params) private returns (uint256) {\r\n        require(_ssccToBatchId[params.sscc] == 0, \"SSCC already exists\");\r\n        require(bytes(params.quantity).length > 0, \"Quantity must not be empty\");\r\n        require(params.productImageUrls.length > 0, \"At least one product image URL is required\");\r\n        require(bytes(params.certificateImageUrl).length > 0, \"Certificate image URL is required\");\r\n        require(bytes(params.farmPlotNumber).length > 0, \"Farm plot number is required\");\r\n        require(params.productId > 0, \"Product ID must be valid\");\r\n        require(params.startDate > 0, \"Start date is required\");\r\n        require(params.endDate > 0, \"End date is required\");\r\n        require(params.startDate < params.endDate, \"Start date must be before end date\");\r\n        require(bytes(params.name).length > 0, \"Batch name must not be empty\");\r\n\r\n        _batchIdCounter++;\r\n        uint256 newBatchId = _batchIdCounter;\r\n\r\n        uint256 productionDate = block.timestamp;\r\n\r\n        bytes32 dataHash = _calculateDataHash(\r\n            params.sscc,\r\n            params.producerId,\r\n            params.quantity,\r\n            productionDate,\r\n            params.farmPlotNumber,\r\n            params.productId,\r\n            params.name  // Thm tn l hng vo hm bm\r\n        );\r\n\r\n        Batch memory newBatch = Batch({\r\n            batchId: newBatchId,\r\n            name: params.name,  // Thm tn l hng\r\n            sscc: params.sscc,\r\n            producerId: params.producerId,\r\n            quantity: params.quantity,\r\n            productionDate: productionDate,\r\n            startDate: params.startDate,\r\n            endDate: params.endDate,\r\n            status: BatchStatus.PendingApproval,\r\n            productImageUrls: params.productImageUrls,\r\n            certificateImageUrl: params.certificateImageUrl,\r\n            farmPlotNumber: params.farmPlotNumber,\r\n            dataHash: dataHash,\r\n            productId: params.productId,\r\n            transportStatus: TransportStatus.NotTransported,\r\n            detailedTransportStatus: DetailedTransportStatus.NotStarted,\r\n            lastTransporterId: 0,\r\n            warehouseConfirmed: false  // Thm trng mi ny\r\n        });\r\n\r\n        _batches[newBatchId] = newBatch;\r\n        _ssccToBatchId[params.sscc] = newBatchId;\r\n\r\n        emit BatchCreated(newBatchId, params.sscc, params.producerId);\r\n        return newBatchId;\r\n    }\r\n    \r\n\r\n // Hm  ly nht k hot ng ca mt nh sn xut\r\n\r\n    \r\n    function _calculateDataHash(\r\n        string memory _sscc,\r\n        uint256 _producerId,\r\n        string memory _quantity,\r\n        uint256 _productionDate,\r\n        string memory _farmPlotNumber,\r\n        uint256 _productId,\r\n        string memory _name  // Thm tn l hng\r\n    ) private pure returns (bytes32) {\r\n        return keccak256(abi.encodePacked(_sscc, _producerId, _quantity, _productionDate, _farmPlotNumber, _productId, _name));\r\n    }\r\n    // hm kim tra sscc  tn ti hay cha \r\n    function ssccExists(string memory sscc) public view returns (bool) {\r\n        return _ssccToBatchId[sscc] != 0;\r\n    }\r\n\r\n    // Hm mi  ly danh sch cc l hng da trn producerId\r\n    function getBatchesByProducer(uint256 producerId) public view returns (Batch[] memory) {\r\n        uint256 count = 0;\r\n        for (uint256 i = 1; i <= _batchIdCounter; i++) {\r\n            if (_batches[i].producerId == producerId) {\r\n                count++;\r\n            }\r\n        }\r\n\r\n        Batch[] memory batches = new Batch[](count);\r\n        uint256 index = 0;\r\n        for (uint256 i = 1; i <= _batchIdCounter; i++) {\r\n            if (_batches[i].producerId == producerId) {\r\n                batches[index] = _batches[i];\r\n                index++;\r\n            }\r\n        }\r\n\r\n        return batches;\r\n    }\r\n\r\n    // hm cp nht trng thi l hng\r\nfunction updateBatchStatus(uint256 _batchId, BatchStatus _newStatus) public {\r\n    require(_batches[_batchId].batchId != 0, \"Batch does not exist\");\r\n    // Thm kim tra quyn nu cn\r\n    _batches[_batchId].status = _newStatus;\r\n    emit BatchStatusUpdated(_batchId, _newStatus);\r\n}\r\nfunction getPendingBatchesByProducer(uint256 _producerId) public view returns (Batch[] memory) {\r\n    uint256 pendingCount = 0;\r\n    for (uint256 i = 1; i <= _batchIdCounter; i++) {\r\n        if (_batches[i].producerId == _producerId && _batches[i].status == BatchStatus.PendingApproval) {\r\n            pendingCount++;\r\n        }\r\n    }\r\n    Batch[] memory pendingBatches = new Batch[](pendingCount);\r\n    uint256 index = 0;\r\n    for (uint256 i = 1; i <= _batchIdCounter; i++) {\r\n        if (_batches[i].producerId == _producerId && _batches[i].status == BatchStatus.PendingApproval) {\r\n            pendingBatches[index] = _batches[i];\r\n            index++;\r\n        }\r\n    }\r\n\r\n    return pendingBatches;\r\n}\r\n\r\nfunction getRejectedBatchesByProducer(uint256 _producerId) public view returns (Batch[] memory) {\r\n    uint256 rejectedCount = 0;\r\n    for (uint256 i = 1; i <= _batchIdCounter; i++) {\r\n        if (_batches[i].producerId == _producerId && _batches[i].status == BatchStatus.Rejected) {\r\n            rejectedCount++;\r\n        }\r\n    }\r\n\r\n    Batch[] memory rejectedBatches = new Batch[](rejectedCount);\r\n    uint256 index = 0;\r\n    for (uint256 i = 1; i <= _batchIdCounter; i++) {\r\n        if (_batches[i].producerId == _producerId && _batches[i].status == BatchStatus.Rejected) {\r\n            rejectedBatches[index] = _batches[i];\r\n            index++;\r\n        }\r\n    }\r\n\r\n    return rejectedBatches;\r\n}\r\nfunction getAllPendingBatches() public view returns (Batch[] memory) {\r\n        uint256 pendingCount = 0;\r\n        for (uint256 i = 1; i <= _batchIdCounter; i++) {\r\n            if (_batches[i].status == BatchStatus.PendingApproval) {\r\n                pendingCount++;\r\n            }\r\n        }\r\n\r\n        Batch[] memory pendingBatches = new Batch[](pendingCount);\r\n        uint256 index = 0;\r\n        for (uint256 i = 1; i <= _batchIdCounter; i++) {\r\n            if (_batches[i].status == BatchStatus.PendingApproval) {\r\n                pendingBatches[index] = _batches[i];\r\n                index++;\r\n            }\r\n        }\r\n\r\n        return pendingBatches;\r\n    }\r\n\r\nevent BatchStatusUpdated(uint256 indexed batchId, BatchStatus newStatus);\r\n\r\n// hm ly thng tin l hng\r\nfunction getBatchDetails(uint256 _batchId) public view returns (Batch memory) {\r\n    require(_batches[_batchId].batchId != 0, \"Batch does not exist\");\r\n    return _batches[_batchId];\r\n}\r\n\r\n\r\nfunction getTotalBatches() public view returns (uint256) {\r\n    return _batchIdCounter;\r\n}\r\n\r\nfunction isProducerOfBatch(uint256 _batchId, uint256 _producerId) public view returns (bool) {\r\n    return _batches[_batchId].producerId == _producerId;\r\n}\r\n\r\n// Thm hm ny vo smart contract\r\n\r\n\r\n\r\nmodifier onlyApprover() {\r\n    // Implement logic to check if msg.sender is an approver\r\n    _;\r\n}\r\nfunction approveBatch(uint256 _batchId) public onlyApprover {\r\n    require(_batches[_batchId].batchId != 0, \"Batch does not exist\");\r\n    require(_batches[_batchId].status == BatchStatus.PendingApproval, \"Batch is not pending approval\");\r\n\r\n    _batches[_batchId].status = BatchStatus.Approved;\r\n    _approvedBatches[_batchId] = true;\r\n\r\n    emit BatchApproved(_batchId, _batches[_batchId].producerId, _batches[_batchId].sscc);\r\n    emit BatchApprovedForQR(_batchId, _batches[_batchId].producerId, _batches[_batchId].sscc);\r\n    \r\n    // Add system activity log\r\n    uint256[] memory relatedProductIds = new uint256[](1);\r\n    relatedProductIds[0] = _batches[_batchId].productId;\r\n    string[] memory imageUrls = new string[](0); // Empty array for imageUrls\r\n    activityLogContract.addActivityLog(\r\n        _batchId,\r\n        \"Batch Approved\",\r\n        \"Batch has been approved by the approver\",\r\n        true, // isSystemGenerated\r\n        imageUrls,\r\n        relatedProductIds\r\n    );\r\n}\r\n\r\nfunction rejectBatch(uint256 _batchId) public onlyApprover {\r\n    require(_batches[_batchId].batchId != 0, \"Batch does not exist\");\r\n    require(_batches[_batchId].status == BatchStatus.PendingApproval, \"Batch is not pending approval\");\r\n\r\n    _batches[_batchId].status = BatchStatus.Rejected;\r\n\r\n    emit BatchRejected(_batchId, _batches[_batchId].producerId, _batches[_batchId].sscc);\r\n    \r\n    // Add system activity log\r\n    uint256[] memory relatedProductIds = new uint256[](1);\r\n    relatedProductIds[0] = _batches[_batchId].productId;\r\n    string[] memory imageUrls = new string[](0); // Empty array for imageUrls\r\n    activityLogContract.addActivityLog(\r\n        _batchId,\r\n        \"Batch Rejected\",\r\n        \"Batch has been rejected by the approver\",\r\n        true, // isSystemGenerated\r\n        imageUrls,\r\n        relatedProductIds\r\n    );\r\n}\r\nfunction getActivityLogs(uint256 _uid) public view returns (ActivityLog.ActivityLogEntry[] memory) {\r\n    return activityLogContract.getActivityLogs(_uid);\r\n}\r\n\r\nevent BatchRejected(uint256 indexed batchId, uint256 producerId, string sscc);\r\n\r\n\r\nfunction getApprovedBatchesByProducer(uint256 _producerId) public view returns (Batch[] memory) {\r\n    uint256 approvedCount = 0;\r\n    for (uint256 i = 1; i <= _batchIdCounter; i++) {\r\n        if (_batches[i].producerId == _producerId && _batches[i].status == BatchStatus.Approved) {\r\n            approvedCount++;\r\n        }\r\n    }\r\n\r\n    Batch[] memory approvedBatches = new Batch[](approvedCount);\r\n    uint256 index = 0;\r\n    for (uint256 i = 1; i <= _batchIdCounter; i++) {\r\n        if (_batches[i].producerId == _producerId && _batches[i].status == BatchStatus.Approved) {\r\n            approvedBatches[index] = _batches[i];\r\n            index++;\r\n        }\r\n    }\r\n\r\n    return approvedBatches;\r\n}\r\n\r\nfunction getBatchBySSCC(string memory _sscc) public view returns (Batch memory) {\r\n    uint256 batchId = _ssccToBatchId[_sscc];\r\n    require(batchId != 0, \"Batch does not exist with this SSCC\");\r\n    return _batches[batchId];\r\n}\r\n\r\nfunction isValidSSCC(string memory _sscc) public view returns (bool) {\r\n    return _ssccToBatchId[_sscc] != 0;\r\n}\r\n\r\nfunction isBatchApproved(uint256 _batchId) public view returns (bool) {\r\n    return _approvedBatches[_batchId];\r\n}\r\n\r\nfunction recordParticipation(uint256 _batchId, uint256 _participantId, string memory _participantType, string memory _action) public {\r\n    require(_batches[_batchId].batchId != 0, \"Batch does not exist\");\r\n    _batchParticipations[_batchId].push(Participation(_participantId, _participantType, block.timestamp, _action));\r\n    \r\n    emit ParticipationRecorded(_batchId, _participantId, _participantType, _action);\r\n}\r\nevent LogParticipantType(uint256 indexed batchId, string participantType);\r\nfunction updateTransportStatus(\r\n    uint256 _batchId, \r\n    uint256 _participantId, \r\n    string memory _action, \r\n    string memory _participantType\r\n) public {\r\n    require(\r\n        keccak256(abi.encodePacked(_participantType)) == keccak256(abi.encodePacked(\"Transporter\")) ||\r\n        keccak256(abi.encodePacked(_participantType)) == keccak256(abi.encodePacked(\"Warehouse\")),\r\n        \"Invalid participant type\"\r\n    );\r\n    \r\n    require(_batches[_batchId].batchId != 0, \"Batch does not exist\");\r\n    require(_batches[_batchId].status == BatchStatus.Approved, \"Batch must be approved\");\r\n\r\n    TransportEvent memory newEvent = TransportEvent({\r\n        participantId: _participantId,\r\n        timestamp: block.timestamp,\r\n        action: _action,\r\n        participantType: _participantType\r\n    });\r\n    \r\n    _batchTransportEvents[_batchId].push(newEvent);\r\n    \r\n    if (keccak256(abi.encodePacked(_action)) == keccak256(abi.encodePacked(\"Bat dau van chuyen\"))) {\r\n        _batches[_batchId].detailedTransportStatus = DetailedTransportStatus.InTransit;\r\n        _batches[_batchId].transportStatus = TransportStatus.InTransit;\r\n        _batches[_batchId].lastTransporterId = _participantId;\r\n    } else if (keccak256(abi.encodePacked(_action)) == keccak256(abi.encodePacked(\"Tam dung van chuyen\"))) {\r\n        _batches[_batchId].detailedTransportStatus = DetailedTransportStatus.Paused;\r\n    } else if (keccak256(abi.encodePacked(_action)) == keccak256(abi.encodePacked(\"Tiep tuc van chuyen\"))) {\r\n        _batches[_batchId].detailedTransportStatus = DetailedTransportStatus.InTransit;\r\n    } else if (keccak256(abi.encodePacked(_action)) == keccak256(abi.encodePacked(\"Hoan thanh van chuyen\"))) {\r\n        _batches[_batchId].detailedTransportStatus = DetailedTransportStatus.Delivered;\r\n        _batches[_batchId].transportStatus = TransportStatus.Delivered;\r\n    }\r\n    \r\n    emit TransportStatusUpdated(_batchId, _batches[_batchId].detailedTransportStatus, _action, _participantId, _participantType);\r\n}\r\nfunction updateTransportStatusBySSCC(\r\n    string memory _sscc, \r\n    uint256 _participantId, \r\n    string memory _action, \r\n    string memory _participantType\r\n) public {\r\n    uint256 batchId = _ssccToBatchId[_sscc];\r\n    require(batchId != 0, \"Batch does not exist with this SSCC\");\r\n    updateTransportStatus(batchId, _participantId, _action, _participantType);\r\n}\r\n\r\n// i tn s kin\r\n// Thm mapping  theo di xc nhn ca cc nh kho\r\n\r\nmapping(uint256 => mapping(uint256 => bool)) private _warehouseConfirmations;\r\n\r\n// Thm s kin  theo di xc nhn ca cc nh kho\r\nevent WarehouseConfirmed(uint256 indexed batchId, uint256 indexed warehouseId);\r\nfunction warehouseConfirmation(uint256 _batchId, uint256 _warehouseId) public {\r\n    require(_batches[_batchId].batchId != 0, \"Batch does not exist\");\r\n    require(_batches[_batchId].transportStatus == TransportStatus.Delivered, \"Batch must be delivered before warehouse confirmation\");\r\n    require(_batches[_batchId].detailedTransportStatus == DetailedTransportStatus.Delivered, \"Batch must be in Delivered status\");\r\n    //Nu nh kho  xc nhn l hng th khng th xc nhn li\r\n    require(!_warehouseConfirmations[_batchId][_warehouseId], \"This warehouse has already confirmed this batch\");\r\n    \r\n    // nh du nh kho ny  xc nhn\r\n    _warehouseConfirmations[_batchId][_warehouseId] = true;\r\n    \r\n    // Ghi nhn s tham gia ca nh kho\r\n    Participation memory newParticipation = Participation({\r\n        participantId: _warehouseId,\r\n        participantType: \"Warehouse\",\r\n        timestamp: block.timestamp,\r\n        action: \"Confirmed receipt at warehouse\"\r\n    });\r\n    _batchParticipations[_batchId].push(newParticipation);\r\n    \r\n    // Pht ra s kin\r\n    emit WarehouseConfirmed(_batchId, _warehouseId);\r\n}\r\n\r\n// Hm  kim tra xem mt nh kho c th  xc nhn l hng cha\r\nfunction isWarehouseConfirmed(uint256 _batchId, uint256 _warehouseId) public view returns (bool) {\r\n    return _warehouseConfirmations[_batchId][_warehouseId];\r\n}\r\n\r\n// Hm  ly danh sch cc nh kho  xc nhn mt l hng\r\nfunction getConfirmedWarehouses(uint256 _batchId) public view returns (uint256[] memory) {\r\n    uint256 confirmedCount = 0;\r\n    for (uint256 i = 1; i <= _warehouseIdCounter; i++) {\r\n        if (_warehouseConfirmations[_batchId][i]) {\r\n            confirmedCount++;\r\n        }\r\n    }\r\n    \r\n    uint256[] memory confirmedWarehouses = new uint256[](confirmedCount);\r\n    uint256 index = 0;\r\n    for (uint256 i = 1; i <= _warehouseIdCounter; i++) {\r\n        if (_warehouseConfirmations[_batchId][i]) {\r\n            confirmedWarehouses[index] = i;\r\n            index++;\r\n        }\r\n    }\r\n    \r\n    return confirmedWarehouses;\r\n}\r\nfunction getBatchIdBySSCC(string memory _sscc) public view returns (uint256) {\r\n    return _ssccToBatchId[_sscc];\r\n}\r\n\r\nfunction getDetailedTransportStatus(uint256 _batchId) public view returns (DetailedTransportStatus) {\r\n    require(_batches[_batchId].batchId != 0, \"Batch does not exist\");\r\n    return _batches[_batchId].detailedTransportStatus;\r\n}\r\n// hm kim tra trng thi vn chuyn\r\nfunction canStartTransport(uint256 _batchId, uint256 _transporterId) public view returns (bool) {\r\n    return _batches[_batchId].detailedTransportStatus == DetailedTransportStatus.NotStarted ||\r\n           (_batches[_batchId].detailedTransportStatus == DetailedTransportStatus.Delivered && _batches[_batchId].lastTransporterId != _transporterId);\r\n}\r\nfunction getTransportHistoryBySSCC(string memory _sscc) public view returns (TransportEvent[] memory) {\r\n    uint256 batchId = _ssccToBatchId[_sscc];\r\n    require(batchId != 0, \"Batch does not exist with this SSCC\");\r\n    return _batchTransportEvents[batchId];\r\n}\r\n// Thm hm  kim tra trng thi vn chuyn\r\nfunction getBatchTransportStatus(uint256 _batchId) public view returns (TransportStatus) {\r\n    require(_batches[_batchId].batchId != 0, \"Batch does not exist\");\r\n    return _batches[_batchId].transportStatus;\r\n}\r\n\r\n}",
  "sourcePath": "D:\\projects\\nckh-be\\blockchain\\contracts\\supplychain.sol",
  "compiler": {
    "name": "solc",
    "version": "0.8.20+commit.a1b79de6.Emscripten.clang"
  },
  "schemaVersion": "3.4.16",
  "updatedAt": "2024-09-21T09:35:19.999Z",
  "networkType": "ethereum",
  "devdoc": {
    "kind": "dev",
    "methods": {},
    "version": 1
  },
  "userdoc": {
    "kind": "user",
    "methods": {},
    "version": 1
  }
}