{
  "contractName": "TraceabilityContract",
  "abi": [
    {
      "anonymous": false,
      "inputs": [
        {
          "indexed": true,
          "internalType": "uint256",
          "name": "uid",
          "type": "uint256"
        },
        {
          "indexed": false,
          "internalType": "string",
          "name": "activityName",
          "type": "string"
        },
        {
          "indexed": false,
          "internalType": "string",
          "name": "description",
          "type": "string"
        },
        {
          "indexed": false,
          "internalType": "bool",
          "name": "isSystemGenerated",
          "type": "bool"
        },
        {
          "indexed": false,
          "internalType": "string[]",
          "name": "imageUrls",
          "type": "string[]"
        },
        {
          "indexed": false,
          "internalType": "uint256[]",
          "name": "relatedProductIds",
          "type": "uint256[]"
        }
      ],
      "name": "ActivityLogAdded",
      "type": "event"
    },
    {
      "anonymous": false,
      "inputs": [
        {
          "indexed": true,
          "internalType": "uint256",
          "name": "batchId",
          "type": "uint256"
        },
        {
          "indexed": true,
          "internalType": "uint256",
          "name": "producerId",
          "type": "uint256"
        },
        {
          "indexed": false,
          "internalType": "string",
          "name": "sscc",
          "type": "string"
        }
      ],
      "name": "BatchApproved",
      "type": "event"
    },
    {
      "anonymous": false,
      "inputs": [
        {
          "indexed": true,
          "internalType": "uint256",
          "name": "batchId",
          "type": "uint256"
        },
        {
          "indexed": true,
          "internalType": "uint256",
          "name": "producerId",
          "type": "uint256"
        },
        {
          "indexed": false,
          "internalType": "string",
          "name": "sscc",
          "type": "string"
        }
      ],
      "name": "BatchApprovedForQR",
      "type": "event"
    },
    {
      "anonymous": false,
      "inputs": [
        {
          "indexed": true,
          "internalType": "uint256",
          "name": "batchId",
          "type": "uint256"
        },
        {
          "indexed": false,
          "internalType": "string",
          "name": "sscc",
          "type": "string"
        },
        {
          "indexed": false,
          "internalType": "uint256",
          "name": "producerId",
          "type": "uint256"
        }
      ],
      "name": "BatchCreated",
      "type": "event"
    },
    {
      "anonymous": false,
      "inputs": [
        {
          "indexed": true,
          "internalType": "uint256",
          "name": "batchId",
          "type": "uint256"
        },
        {
          "indexed": false,
          "internalType": "uint256",
          "name": "producerId",
          "type": "uint256"
        },
        {
          "indexed": false,
          "internalType": "string",
          "name": "sscc",
          "type": "string"
        }
      ],
      "name": "BatchRejected",
      "type": "event"
    },
    {
      "anonymous": false,
      "inputs": [
        {
          "indexed": true,
          "internalType": "uint256",
          "name": "batchId",
          "type": "uint256"
        },
        {
          "indexed": false,
          "internalType": "enum TraceabilityContract.BatchStatus",
          "name": "newStatus",
          "type": "uint8"
        }
      ],
      "name": "BatchStatusUpdated",
      "type": "event"
    },
    {
      "anonymous": false,
      "inputs": [
        {
          "indexed": true,
          "internalType": "uint256",
          "name": "batchId",
          "type": "uint256"
        },
        {
          "indexed": false,
          "internalType": "string",
          "name": "participantType",
          "type": "string"
        }
      ],
      "name": "LogParticipantType",
      "type": "event"
    },
    {
      "anonymous": false,
      "inputs": [
        {
          "indexed": true,
          "internalType": "uint256",
          "name": "batchId",
          "type": "uint256"
        },
        {
          "indexed": false,
          "internalType": "uint256",
          "name": "participantId",
          "type": "uint256"
        },
        {
          "indexed": false,
          "internalType": "string",
          "name": "participantType",
          "type": "string"
        },
        {
          "indexed": false,
          "internalType": "string",
          "name": "action",
          "type": "string"
        }
      ],
      "name": "ParticipationRecorded",
      "type": "event"
    },
    {
      "anonymous": false,
      "inputs": [
        {
          "indexed": true,
          "internalType": "uint256",
          "name": "batchId",
          "type": "uint256"
        },
        {
          "indexed": false,
          "internalType": "enum TraceabilityContract.DetailedTransportStatus",
          "name": "newStatus",
          "type": "uint8"
        },
        {
          "indexed": false,
          "internalType": "string",
          "name": "action",
          "type": "string"
        },
        {
          "indexed": false,
          "internalType": "uint256",
          "name": "participantId",
          "type": "uint256"
        },
        {
          "indexed": false,
          "internalType": "string",
          "name": "participantType",
          "type": "string"
        }
      ],
      "name": "TransportStatusUpdated",
      "type": "event"
    },
    {
      "inputs": [
        {
          "internalType": "string",
          "name": "_name",
          "type": "string"
        },
        {
          "internalType": "uint256",
          "name": "_producerId",
          "type": "uint256"
        },
        {
          "internalType": "string",
          "name": "_quantity",
          "type": "string"
        },
        {
          "internalType": "string[]",
          "name": "_productImageUrls",
          "type": "string[]"
        },
        {
          "internalType": "string",
          "name": "_certificateImageUrl",
          "type": "string"
        },
        {
          "internalType": "string",
          "name": "_farmPlotNumber",
          "type": "string"
        },
        {
          "internalType": "uint256",
          "name": "_productId",
          "type": "uint256"
        },
        {
          "internalType": "uint256",
          "name": "_startDate",
          "type": "uint256"
        },
        {
          "internalType": "uint256",
          "name": "_endDate",
          "type": "uint256"
        }
      ],
      "name": "createBatch",
      "outputs": [
        {
          "internalType": "uint256",
          "name": "",
          "type": "uint256"
        }
      ],
      "stateMutability": "nonpayable",
      "type": "function"
    },
    {
      "inputs": [
        {
          "internalType": "uint256",
          "name": "_uid",
          "type": "uint256"
        },
        {
          "internalType": "string",
          "name": "_activityName",
          "type": "string"
        },
        {
          "internalType": "string",
          "name": "_description",
          "type": "string"
        },
        {
          "internalType": "string[]",
          "name": "_imageUrls",
          "type": "string[]"
        },
        {
          "internalType": "uint256[]",
          "name": "_relatedProductIds",
          "type": "uint256[]"
        }
      ],
      "name": "addActivityLog",
      "outputs": [],
      "stateMutability": "nonpayable",
      "type": "function"
    },
    {
      "inputs": [
        {
          "internalType": "uint256",
          "name": "_uid",
          "type": "uint256"
        }
      ],
      "name": "getProducerActivityLogs",
      "outputs": [
        {
          "components": [
            {
              "internalType": "uint256",
              "name": "timestamp",
              "type": "uint256"
            },
            {
              "internalType": "uint256",
              "name": "uid",
              "type": "uint256"
            },
            {
              "internalType": "string",
              "name": "activityName",
              "type": "string"
            },
            {
              "internalType": "string",
              "name": "description",
              "type": "string"
            },
            {
              "internalType": "bool",
              "name": "isSystemGenerated",
              "type": "bool"
            },
            {
              "internalType": "string[]",
              "name": "imageUrls",
              "type": "string[]"
            },
            {
              "internalType": "uint256[]",
              "name": "relatedProductIds",
              "type": "uint256[]"
            }
          ],
          "internalType": "struct TraceabilityContract.ActivityLog[]",
          "name": "",
          "type": "tuple[]"
        }
      ],
      "stateMutability": "view",
      "type": "function",
      "constant": true
    },
    {
      "inputs": [
        {
          "internalType": "string",
          "name": "sscc",
          "type": "string"
        }
      ],
      "name": "ssccExists",
      "outputs": [
        {
          "internalType": "bool",
          "name": "",
          "type": "bool"
        }
      ],
      "stateMutability": "view",
      "type": "function",
      "constant": true
    },
    {
      "inputs": [
        {
          "internalType": "uint256",
          "name": "producerId",
          "type": "uint256"
        }
      ],
      "name": "getBatchesByProducer",
      "outputs": [
        {
          "components": [
            {
              "internalType": "uint256",
              "name": "batchId",
              "type": "uint256"
            },
            {
              "internalType": "string",
              "name": "name",
              "type": "string"
            },
            {
              "internalType": "string",
              "name": "sscc",
              "type": "string"
            },
            {
              "internalType": "uint256",
              "name": "producerId",
              "type": "uint256"
            },
            {
              "internalType": "string",
              "name": "quantity",
              "type": "string"
            },
            {
              "internalType": "uint256",
              "name": "productionDate",
              "type": "uint256"
            },
            {
              "internalType": "uint256",
              "name": "startDate",
              "type": "uint256"
            },
            {
              "internalType": "uint256",
              "name": "endDate",
              "type": "uint256"
            },
            {
              "internalType": "enum TraceabilityContract.BatchStatus",
              "name": "status",
              "type": "uint8"
            },
            {
              "internalType": "string[]",
              "name": "productImageUrls",
              "type": "string[]"
            },
            {
              "internalType": "string",
              "name": "certificateImageUrl",
              "type": "string"
            },
            {
              "internalType": "string",
              "name": "farmPlotNumber",
              "type": "string"
            },
            {
              "internalType": "bytes32",
              "name": "dataHash",
              "type": "bytes32"
            },
            {
              "internalType": "uint256",
              "name": "productId",
              "type": "uint256"
            },
            {
              "internalType": "enum TraceabilityContract.TransportStatus",
              "name": "transportStatus",
              "type": "uint8"
            },
            {
              "internalType": "enum TraceabilityContract.DetailedTransportStatus",
              "name": "detailedTransportStatus",
              "type": "uint8"
            },
            {
              "internalType": "uint256",
              "name": "lastTransporterId",
              "type": "uint256"
            }
          ],
          "internalType": "struct TraceabilityContract.Batch[]",
          "name": "",
          "type": "tuple[]"
        }
      ],
      "stateMutability": "view",
      "type": "function",
      "constant": true
    },
    {
      "inputs": [
        {
          "internalType": "uint256",
          "name": "_batchId",
          "type": "uint256"
        },
        {
          "internalType": "enum TraceabilityContract.BatchStatus",
          "name": "_newStatus",
          "type": "uint8"
        }
      ],
      "name": "updateBatchStatus",
      "outputs": [],
      "stateMutability": "nonpayable",
      "type": "function"
    },
    {
      "inputs": [
        {
          "internalType": "uint256",
          "name": "_producerId",
          "type": "uint256"
        }
      ],
      "name": "getPendingBatchesByProducer",
      "outputs": [
        {
          "components": [
            {
              "internalType": "uint256",
              "name": "batchId",
              "type": "uint256"
            },
            {
              "internalType": "string",
              "name": "name",
              "type": "string"
            },
            {
              "internalType": "string",
              "name": "sscc",
              "type": "string"
            },
            {
              "internalType": "uint256",
              "name": "producerId",
              "type": "uint256"
            },
            {
              "internalType": "string",
              "name": "quantity",
              "type": "string"
            },
            {
              "internalType": "uint256",
              "name": "productionDate",
              "type": "uint256"
            },
            {
              "internalType": "uint256",
              "name": "startDate",
              "type": "uint256"
            },
            {
              "internalType": "uint256",
              "name": "endDate",
              "type": "uint256"
            },
            {
              "internalType": "enum TraceabilityContract.BatchStatus",
              "name": "status",
              "type": "uint8"
            },
            {
              "internalType": "string[]",
              "name": "productImageUrls",
              "type": "string[]"
            },
            {
              "internalType": "string",
              "name": "certificateImageUrl",
              "type": "string"
            },
            {
              "internalType": "string",
              "name": "farmPlotNumber",
              "type": "string"
            },
            {
              "internalType": "bytes32",
              "name": "dataHash",
              "type": "bytes32"
            },
            {
              "internalType": "uint256",
              "name": "productId",
              "type": "uint256"
            },
            {
              "internalType": "enum TraceabilityContract.TransportStatus",
              "name": "transportStatus",
              "type": "uint8"
            },
            {
              "internalType": "enum TraceabilityContract.DetailedTransportStatus",
              "name": "detailedTransportStatus",
              "type": "uint8"
            },
            {
              "internalType": "uint256",
              "name": "lastTransporterId",
              "type": "uint256"
            }
          ],
          "internalType": "struct TraceabilityContract.Batch[]",
          "name": "",
          "type": "tuple[]"
        }
      ],
      "stateMutability": "view",
      "type": "function",
      "constant": true
    },
    {
      "inputs": [
        {
          "internalType": "uint256",
          "name": "_producerId",
          "type": "uint256"
        }
      ],
      "name": "getRejectedBatchesByProducer",
      "outputs": [
        {
          "components": [
            {
              "internalType": "uint256",
              "name": "batchId",
              "type": "uint256"
            },
            {
              "internalType": "string",
              "name": "name",
              "type": "string"
            },
            {
              "internalType": "string",
              "name": "sscc",
              "type": "string"
            },
            {
              "internalType": "uint256",
              "name": "producerId",
              "type": "uint256"
            },
            {
              "internalType": "string",
              "name": "quantity",
              "type": "string"
            },
            {
              "internalType": "uint256",
              "name": "productionDate",
              "type": "uint256"
            },
            {
              "internalType": "uint256",
              "name": "startDate",
              "type": "uint256"
            },
            {
              "internalType": "uint256",
              "name": "endDate",
              "type": "uint256"
            },
            {
              "internalType": "enum TraceabilityContract.BatchStatus",
              "name": "status",
              "type": "uint8"
            },
            {
              "internalType": "string[]",
              "name": "productImageUrls",
              "type": "string[]"
            },
            {
              "internalType": "string",
              "name": "certificateImageUrl",
              "type": "string"
            },
            {
              "internalType": "string",
              "name": "farmPlotNumber",
              "type": "string"
            },
            {
              "internalType": "bytes32",
              "name": "dataHash",
              "type": "bytes32"
            },
            {
              "internalType": "uint256",
              "name": "productId",
              "type": "uint256"
            },
            {
              "internalType": "enum TraceabilityContract.TransportStatus",
              "name": "transportStatus",
              "type": "uint8"
            },
            {
              "internalType": "enum TraceabilityContract.DetailedTransportStatus",
              "name": "detailedTransportStatus",
              "type": "uint8"
            },
            {
              "internalType": "uint256",
              "name": "lastTransporterId",
              "type": "uint256"
            }
          ],
          "internalType": "struct TraceabilityContract.Batch[]",
          "name": "",
          "type": "tuple[]"
        }
      ],
      "stateMutability": "view",
      "type": "function",
      "constant": true
    },
    {
      "inputs": [],
      "name": "getAllPendingBatches",
      "outputs": [
        {
          "components": [
            {
              "internalType": "uint256",
              "name": "batchId",
              "type": "uint256"
            },
            {
              "internalType": "string",
              "name": "name",
              "type": "string"
            },
            {
              "internalType": "string",
              "name": "sscc",
              "type": "string"
            },
            {
              "internalType": "uint256",
              "name": "producerId",
              "type": "uint256"
            },
            {
              "internalType": "string",
              "name": "quantity",
              "type": "string"
            },
            {
              "internalType": "uint256",
              "name": "productionDate",
              "type": "uint256"
            },
            {
              "internalType": "uint256",
              "name": "startDate",
              "type": "uint256"
            },
            {
              "internalType": "uint256",
              "name": "endDate",
              "type": "uint256"
            },
            {
              "internalType": "enum TraceabilityContract.BatchStatus",
              "name": "status",
              "type": "uint8"
            },
            {
              "internalType": "string[]",
              "name": "productImageUrls",
              "type": "string[]"
            },
            {
              "internalType": "string",
              "name": "certificateImageUrl",
              "type": "string"
            },
            {
              "internalType": "string",
              "name": "farmPlotNumber",
              "type": "string"
            },
            {
              "internalType": "bytes32",
              "name": "dataHash",
              "type": "bytes32"
            },
            {
              "internalType": "uint256",
              "name": "productId",
              "type": "uint256"
            },
            {
              "internalType": "enum TraceabilityContract.TransportStatus",
              "name": "transportStatus",
              "type": "uint8"
            },
            {
              "internalType": "enum TraceabilityContract.DetailedTransportStatus",
              "name": "detailedTransportStatus",
              "type": "uint8"
            },
            {
              "internalType": "uint256",
              "name": "lastTransporterId",
              "type": "uint256"
            }
          ],
          "internalType": "struct TraceabilityContract.Batch[]",
          "name": "",
          "type": "tuple[]"
        }
      ],
      "stateMutability": "view",
      "type": "function",
      "constant": true
    },
    {
      "inputs": [
        {
          "internalType": "uint256",
          "name": "_batchId",
          "type": "uint256"
        }
      ],
      "name": "getBatchDetails",
      "outputs": [
        {
          "components": [
            {
              "internalType": "uint256",
              "name": "batchId",
              "type": "uint256"
            },
            {
              "internalType": "string",
              "name": "name",
              "type": "string"
            },
            {
              "internalType": "string",
              "name": "sscc",
              "type": "string"
            },
            {
              "internalType": "uint256",
              "name": "producerId",
              "type": "uint256"
            },
            {
              "internalType": "string",
              "name": "quantity",
              "type": "string"
            },
            {
              "internalType": "uint256",
              "name": "productionDate",
              "type": "uint256"
            },
            {
              "internalType": "uint256",
              "name": "startDate",
              "type": "uint256"
            },
            {
              "internalType": "uint256",
              "name": "endDate",
              "type": "uint256"
            },
            {
              "internalType": "enum TraceabilityContract.BatchStatus",
              "name": "status",
              "type": "uint8"
            },
            {
              "internalType": "string[]",
              "name": "productImageUrls",
              "type": "string[]"
            },
            {
              "internalType": "string",
              "name": "certificateImageUrl",
              "type": "string"
            },
            {
              "internalType": "string",
              "name": "farmPlotNumber",
              "type": "string"
            },
            {
              "internalType": "bytes32",
              "name": "dataHash",
              "type": "bytes32"
            },
            {
              "internalType": "uint256",
              "name": "productId",
              "type": "uint256"
            },
            {
              "internalType": "enum TraceabilityContract.TransportStatus",
              "name": "transportStatus",
              "type": "uint8"
            },
            {
              "internalType": "enum TraceabilityContract.DetailedTransportStatus",
              "name": "detailedTransportStatus",
              "type": "uint8"
            },
            {
              "internalType": "uint256",
              "name": "lastTransporterId",
              "type": "uint256"
            }
          ],
          "internalType": "struct TraceabilityContract.Batch",
          "name": "",
          "type": "tuple"
        }
      ],
      "stateMutability": "view",
      "type": "function",
      "constant": true
    },
    {
      "inputs": [],
      "name": "getTotalBatches",
      "outputs": [
        {
          "internalType": "uint256",
          "name": "",
          "type": "uint256"
        }
      ],
      "stateMutability": "view",
      "type": "function",
      "constant": true
    },
    {
      "inputs": [
        {
          "internalType": "uint256",
          "name": "_batchId",
          "type": "uint256"
        },
        {
          "internalType": "uint256",
          "name": "_producerId",
          "type": "uint256"
        }
      ],
      "name": "isProducerOfBatch",
      "outputs": [
        {
          "internalType": "bool",
          "name": "",
          "type": "bool"
        }
      ],
      "stateMutability": "view",
      "type": "function",
      "constant": true
    },
    {
      "inputs": [
        {
          "internalType": "uint256",
          "name": "_uid",
          "type": "uint256"
        }
      ],
      "name": "getActivityLogs",
      "outputs": [
        {
          "components": [
            {
              "internalType": "uint256",
              "name": "timestamp",
              "type": "uint256"
            },
            {
              "internalType": "uint256",
              "name": "uid",
              "type": "uint256"
            },
            {
              "internalType": "string",
              "name": "activityName",
              "type": "string"
            },
            {
              "internalType": "string",
              "name": "description",
              "type": "string"
            },
            {
              "internalType": "bool",
              "name": "isSystemGenerated",
              "type": "bool"
            },
            {
              "internalType": "string[]",
              "name": "imageUrls",
              "type": "string[]"
            },
            {
              "internalType": "uint256[]",
              "name": "relatedProductIds",
              "type": "uint256[]"
            }
          ],
          "internalType": "struct TraceabilityContract.ActivityLog[]",
          "name": "",
          "type": "tuple[]"
        }
      ],
      "stateMutability": "view",
      "type": "function",
      "constant": true
    },
    {
      "inputs": [
        {
          "internalType": "uint256",
          "name": "_uid",
          "type": "uint256"
        }
      ],
      "name": "getActivityLogCount",
      "outputs": [
        {
          "internalType": "uint256",
          "name": "",
          "type": "uint256"
        }
      ],
      "stateMutability": "view",
      "type": "function",
      "constant": true
    },
    {
      "inputs": [
        {
          "internalType": "uint256",
          "name": "_batchId",
          "type": "uint256"
        }
      ],
      "name": "approveBatch",
      "outputs": [],
      "stateMutability": "nonpayable",
      "type": "function"
    },
    {
      "inputs": [
        {
          "internalType": "uint256",
          "name": "_batchId",
          "type": "uint256"
        }
      ],
      "name": "rejectBatch",
      "outputs": [],
      "stateMutability": "nonpayable",
      "type": "function"
    },
    {
      "inputs": [
        {
          "internalType": "uint256",
          "name": "_producerId",
          "type": "uint256"
        }
      ],
      "name": "getApprovedBatchesByProducer",
      "outputs": [
        {
          "components": [
            {
              "internalType": "uint256",
              "name": "batchId",
              "type": "uint256"
            },
            {
              "internalType": "string",
              "name": "name",
              "type": "string"
            },
            {
              "internalType": "string",
              "name": "sscc",
              "type": "string"
            },
            {
              "internalType": "uint256",
              "name": "producerId",
              "type": "uint256"
            },
            {
              "internalType": "string",
              "name": "quantity",
              "type": "string"
            },
            {
              "internalType": "uint256",
              "name": "productionDate",
              "type": "uint256"
            },
            {
              "internalType": "uint256",
              "name": "startDate",
              "type": "uint256"
            },
            {
              "internalType": "uint256",
              "name": "endDate",
              "type": "uint256"
            },
            {
              "internalType": "enum TraceabilityContract.BatchStatus",
              "name": "status",
              "type": "uint8"
            },
            {
              "internalType": "string[]",
              "name": "productImageUrls",
              "type": "string[]"
            },
            {
              "internalType": "string",
              "name": "certificateImageUrl",
              "type": "string"
            },
            {
              "internalType": "string",
              "name": "farmPlotNumber",
              "type": "string"
            },
            {
              "internalType": "bytes32",
              "name": "dataHash",
              "type": "bytes32"
            },
            {
              "internalType": "uint256",
              "name": "productId",
              "type": "uint256"
            },
            {
              "internalType": "enum TraceabilityContract.TransportStatus",
              "name": "transportStatus",
              "type": "uint8"
            },
            {
              "internalType": "enum TraceabilityContract.DetailedTransportStatus",
              "name": "detailedTransportStatus",
              "type": "uint8"
            },
            {
              "internalType": "uint256",
              "name": "lastTransporterId",
              "type": "uint256"
            }
          ],
          "internalType": "struct TraceabilityContract.Batch[]",
          "name": "",
          "type": "tuple[]"
        }
      ],
      "stateMutability": "view",
      "type": "function",
      "constant": true
    },
    {
      "inputs": [
        {
          "internalType": "string",
          "name": "_sscc",
          "type": "string"
        }
      ],
      "name": "getBatchBySSCC",
      "outputs": [
        {
          "components": [
            {
              "internalType": "uint256",
              "name": "batchId",
              "type": "uint256"
            },
            {
              "internalType": "string",
              "name": "name",
              "type": "string"
            },
            {
              "internalType": "string",
              "name": "sscc",
              "type": "string"
            },
            {
              "internalType": "uint256",
              "name": "producerId",
              "type": "uint256"
            },
            {
              "internalType": "string",
              "name": "quantity",
              "type": "string"
            },
            {
              "internalType": "uint256",
              "name": "productionDate",
              "type": "uint256"
            },
            {
              "internalType": "uint256",
              "name": "startDate",
              "type": "uint256"
            },
            {
              "internalType": "uint256",
              "name": "endDate",
              "type": "uint256"
            },
            {
              "internalType": "enum TraceabilityContract.BatchStatus",
              "name": "status",
              "type": "uint8"
            },
            {
              "internalType": "string[]",
              "name": "productImageUrls",
              "type": "string[]"
            },
            {
              "internalType": "string",
              "name": "certificateImageUrl",
              "type": "string"
            },
            {
              "internalType": "string",
              "name": "farmPlotNumber",
              "type": "string"
            },
            {
              "internalType": "bytes32",
              "name": "dataHash",
              "type": "bytes32"
            },
            {
              "internalType": "uint256",
              "name": "productId",
              "type": "uint256"
            },
            {
              "internalType": "enum TraceabilityContract.TransportStatus",
              "name": "transportStatus",
              "type": "uint8"
            },
            {
              "internalType": "enum TraceabilityContract.DetailedTransportStatus",
              "name": "detailedTransportStatus",
              "type": "uint8"
            },
            {
              "internalType": "uint256",
              "name": "lastTransporterId",
              "type": "uint256"
            }
          ],
          "internalType": "struct TraceabilityContract.Batch",
          "name": "",
          "type": "tuple"
        }
      ],
      "stateMutability": "view",
      "type": "function",
      "constant": true
    },
    {
      "inputs": [
        {
          "internalType": "string",
          "name": "_sscc",
          "type": "string"
        }
      ],
      "name": "isValidSSCC",
      "outputs": [
        {
          "internalType": "bool",
          "name": "",
          "type": "bool"
        }
      ],
      "stateMutability": "view",
      "type": "function",
      "constant": true
    },
    {
      "inputs": [
        {
          "internalType": "uint256",
          "name": "_batchId",
          "type": "uint256"
        }
      ],
      "name": "isBatchApproved",
      "outputs": [
        {
          "internalType": "bool",
          "name": "",
          "type": "bool"
        }
      ],
      "stateMutability": "view",
      "type": "function",
      "constant": true
    },
    {
      "inputs": [
        {
          "internalType": "uint256",
          "name": "_batchId",
          "type": "uint256"
        },
        {
          "internalType": "uint256",
          "name": "_participantId",
          "type": "uint256"
        },
        {
          "internalType": "string",
          "name": "_participantType",
          "type": "string"
        },
        {
          "internalType": "string",
          "name": "_action",
          "type": "string"
        }
      ],
      "name": "recordParticipation",
      "outputs": [],
      "stateMutability": "nonpayable",
      "type": "function"
    },
    {
      "inputs": [
        {
          "internalType": "uint256",
          "name": "_batchId",
          "type": "uint256"
        },
        {
          "internalType": "uint256",
          "name": "_participantId",
          "type": "uint256"
        },
        {
          "internalType": "string",
          "name": "_action",
          "type": "string"
        },
        {
          "internalType": "string",
          "name": "_participantType",
          "type": "string"
        }
      ],
      "name": "updateTransportStatus",
      "outputs": [],
      "stateMutability": "nonpayable",
      "type": "function"
    },
    {
      "inputs": [
        {
          "internalType": "string",
          "name": "_sscc",
          "type": "string"
        },
        {
          "internalType": "uint256",
          "name": "_participantId",
          "type": "uint256"
        },
        {
          "internalType": "string",
          "name": "_action",
          "type": "string"
        },
        {
          "internalType": "string",
          "name": "_participantType",
          "type": "string"
        }
      ],
      "name": "updateTransportStatusBySSCC",
      "outputs": [],
      "stateMutability": "nonpayable",
      "type": "function"
    },
    {
      "inputs": [
        {
          "internalType": "string",
          "name": "_sscc",
          "type": "string"
        }
      ],
      "name": "getBatchIdBySSCC",
      "outputs": [
        {
          "internalType": "uint256",
          "name": "",
          "type": "uint256"
        }
      ],
      "stateMutability": "view",
      "type": "function",
      "constant": true
    },
    {
      "inputs": [
        {
          "internalType": "uint256",
          "name": "_batchId",
          "type": "uint256"
        }
      ],
      "name": "getDetailedTransportStatus",
      "outputs": [
        {
          "internalType": "enum TraceabilityContract.DetailedTransportStatus",
          "name": "",
          "type": "uint8"
        }
      ],
      "stateMutability": "view",
      "type": "function",
      "constant": true
    },
    {
      "inputs": [
        {
          "internalType": "uint256",
          "name": "_batchId",
          "type": "uint256"
        },
        {
          "internalType": "uint256",
          "name": "_transporterId",
          "type": "uint256"
        }
      ],
      "name": "canStartTransport",
      "outputs": [
        {
          "internalType": "bool",
          "name": "",
          "type": "bool"
        }
      ],
      "stateMutability": "view",
      "type": "function",
      "constant": true
    },
    {
      "inputs": [
        {
          "internalType": "string",
          "name": "_sscc",
          "type": "string"
        }
      ],
      "name": "getTransportHistoryBySSCC",
      "outputs": [
        {
          "components": [
            {
              "internalType": "uint256",
              "name": "participantId",
              "type": "uint256"
            },
            {
              "internalType": "uint256",
              "name": "timestamp",
              "type": "uint256"
            },
            {
              "internalType": "string",
              "name": "action",
              "type": "string"
            },
            {
              "internalType": "string",
              "name": "participantType",
              "type": "string"
            }
          ],
          "internalType": "struct TraceabilityContract.TransportEvent[]",
          "name": "",
          "type": "tuple[]"
        }
      ],
      "stateMutability": "view",
      "type": "function",
      "constant": true
    },
    {
      "inputs": [
        {
          "internalType": "uint256",
          "name": "_batchId",
          "type": "uint256"
        }
      ],
      "name": "getBatchTransportStatus",
      "outputs": [
        {
          "internalType": "enum TraceabilityContract.TransportStatus",
          "name": "",
          "type": "uint8"
        }
      ],
      "stateMutability": "view",
      "type": "function",
      "constant": true
    }
  ],
  "bytecode": "0x608060405234801561001057600080fd5b50615d7780620000216000396000f3fe608060405234801561001057600080fd5b50600436106101c45760003560e01c806385bdd03f116100f9578063d040e18c11610097578063dd235d9d11610071578063dd235d9d14610403578063e561dddc14610416578063f7f097f41461041e578063f9b8da0e1461043157600080fd5b8063d040e18c146101c9578063d043b843146103dd578063d9860bfc146103f057600080fd5b8063a7732c96116100d3578063a7732c9614610384578063a7934786146103a4578063b82adf3b146103b7578063bf193ffa146103ca57600080fd5b806385bdd03f1461032457806397ae6a0e146103445780639d47dcc01461036457600080fd5b806347e2f863116101665780635a9c9d90116101405780635a9c9d90146102e35780635aa825aa146102f657806380e32d45146102fe578063838b1da31461031157600080fd5b806347e2f863146102a8578063510664ed146102bb57806352c88f36146102d057600080fd5b806319d6ed3c116101a257806319d6ed3c146102345780631bb93d1e146102555780632db53c9d1461027557806336c701e11461029557600080fd5b806304008078146101c95780630d82dcf4146101f15780630e6e369c14610214575b600080fd5b6101dc6101d7366004614eb3565b610456565b60405190151581526020015b60405180910390f35b6101dc6101ff366004614eef565b60009081526005602052604090205460ff1690565b610227610222366004614eef565b610480565b6040516101e89190614feb565b610247610242366004614eb3565b610768565b6040519081526020016101e8565b610268610263366004614eb3565b610790565b6040516101e891906150ca565b610288610283366004614eef565b61097d565b6040516101e891906152d9565b6102476102a33660046153ed565b610faf565b6102886102b6366004614eef565b611020565b6102ce6102c93660046154e5565b611646565b005b6102ce6102de36600461555b565b611aec565b6102ce6102f136600461558f565b611b8d565b610288611be3565b61028861030c366004614eef565b6121d8565b6102ce61031f366004614eef565b61279e565b610247610332366004614eef565b60009081526004602052604090205490565b610357610352366004614eef565b612956565b6040516101e891906155e5565b610377610372366004614eef565b6129a1565b6040516101e891906155f3565b610397610392366004614eef565b612e9e565b6040516101e89190615606565b6101dc6103b2366004615619565b612ee4565b6102ce6103c53660046154e5565b612f6d565b6102ce6103d836600461563b565b61305a565b6102886103eb366004614eef565b613187565b6103776103fe366004614eb3565b6137b3565b6102ce610411366004614eef565b613cc7565b600054610247565b61022761042c366004614eef565b613ee6565b6101dc61043f366004615619565b600091825260026020526040909120600301541490565b60006003826040516104689190615747565b90815260405190819003602001902054151592915050565b606060046000838152602001908152602001600020805480602002602001604051908101604052809291908181526020016000905b8282101561075d57838290600052602060002090600702016040518060e001604052908160008201548152602001600182015481526020016002820180546104fc90615763565b80601f016020809104026020016040519081016040528092919081815260200182805461052890615763565b80156105755780601f1061054a57610100808354040283529160200191610575565b820191906000526020600020905b81548152906001019060200180831161055857829003601f168201915b5050505050815260200160038201805461058e90615763565b80601f01602080910402602001604051908101604052809291908181526020018280546105ba90615763565b80156106075780601f106105dc57610100808354040283529160200191610607565b820191906000526020600020905b8154815290600101906020018083116105ea57829003601f168201915b5050509183525050600482015460ff161515602080830191909152600583018054604080518285028101850182528281529401939260009084015b828210156106ee57838290600052602060002001805461066190615763565b80601f016020809104026020016040519081016040528092919081815260200182805461068d90615763565b80156106da5780601f106106af576101008083540402835291602001916106da565b820191906000526020600020905b8154815290600101906020018083116106bd57829003601f168201915b505050505081526020019060010190610642565b5050505081526020016006820180548060200260200160405190810160405280929190818152602001828054801561074557602002820191906000526020600020905b815481526020019060010190808311610731575b505050505081525050815260200190600101906104b5565b505050509050919050565b600060038260405161077a9190615747565b9081526020016040518091039020549050919050565b606060006003836040516107a49190615747565b9081526020016040518091039020549050806000036107de5760405162461bcd60e51b81526004016107d59061579d565b60405180910390fd5b600081815260016020908152604080832080548251818502810185019093528083529193909284015b828210156109715783829060005260206000209060040201604051806080016040529081600082015481526020016001820154815260200160028201805461084e90615763565b80601f016020809104026020016040519081016040528092919081815260200182805461087a90615763565b80156108c75780601f1061089c576101008083540402835291602001916108c7565b820191906000526020600020905b8154815290600101906020018083116108aa57829003601f168201915b505050505081526020016003820180546108e090615763565b80601f016020809104026020016040519081016040528092919081815260200182805461090c90615763565b80156109595780601f1061092e57610100808354040283529160200191610959565b820191906000526020600020905b81548152906001019060200180831161093c57829003601f168201915b50505050508152505081526020019060010190610807565b50505050915050919050565b6060600060015b60005481116109f757600081815260026020526040902060030154841480156109d2575060008181526002602081905260409091206008015460ff16818111156109d0576109d0615158565b145b156109e557816109e1816157f6565b9250505b806109ef816157f6565b915050610984565b506000816001600160401b03811115610a1257610a12614dfe565b604051908082528060200260200182016040528015610a4b57816020015b610a38614c49565b815260200190600190039081610a305790505b509050600060015b6000548111610fa55760008181526002602052604090206003015486148015610aa1575060008181526002602081905260409091206008015460ff1681811115610a9f57610a9f615158565b145b15610f9357600260008281526020019081526020016000206040518061022001604052908160008201548152602001600182018054610adf90615763565b80601f0160208091040260200160405190810160405280929190818152602001828054610b0b90615763565b8015610b585780601f10610b2d57610100808354040283529160200191610b58565b820191906000526020600020905b815481529060010190602001808311610b3b57829003601f168201915b50505050508152602001600282018054610b7190615763565b80601f0160208091040260200160405190810160405280929190818152602001828054610b9d90615763565b8015610bea5780601f10610bbf57610100808354040283529160200191610bea565b820191906000526020600020905b815481529060010190602001808311610bcd57829003601f168201915b5050505050815260200160038201548152602001600482018054610c0d90615763565b80601f0160208091040260200160405190810160405280929190818152602001828054610c3990615763565b8015610c865780601f10610c5b57610100808354040283529160200191610c86565b820191906000526020600020905b815481529060010190602001808311610c6957829003601f168201915b5050509183525050600582015460208201526006820154604082015260078201546060820152600882015460809091019060ff166002811115610ccb57610ccb615158565b6002811115610cdc57610cdc615158565b815260200160098201805480602002602001604051908101604052809291908181526020016000905b82821015610db1578382906000526020600020018054610d2490615763565b80601f0160208091040260200160405190810160405280929190818152602001828054610d5090615763565b8015610d9d5780601f10610d7257610100808354040283529160200191610d9d565b820191906000526020600020905b815481529060010190602001808311610d8057829003601f168201915b505050505081526020019060010190610d05565b505050508152602001600a82018054610dc990615763565b80601f0160208091040260200160405190810160405280929190818152602001828054610df590615763565b8015610e425780601f10610e1757610100808354040283529160200191610e42565b820191906000526020600020905b815481529060010190602001808311610e2557829003601f168201915b50505050508152602001600b82018054610e5b90615763565b80601f0160208091040260200160405190810160405280929190818152602001828054610e8790615763565b8015610ed45780601f10610ea957610100808354040283529160200191610ed4565b820191906000526020600020905b815481529060010190602001808311610eb757829003601f168201915b5050509183525050600c8201546020820152600d8201546040820152600e82015460609091019060ff166002811115610f0f57610f0f615158565b6002811115610f2057610f20615158565b8152602001600e820160019054906101000a900460ff166003811115610f4857610f48615158565b6003811115610f5957610f59615158565b8152602001600f82015481525050838381518110610f7957610f7961580f565b60200260200101819052508180610f8f906157f6565b9250505b80610f9d816157f6565b915050610a53565b5090949350505050565b600080610fbb8a6141c3565b905060006040518061014001604052808d81526020018381526020018c81526020018b81526020018a815260200189815260200188815260200187815260200186815260200185815250905061101081614296565b9c9b505050505050505050505050565b6060600060015b600054811161109957600081815260026020526040902060030154841480156110745750600081815260026020819052604082206008015460ff169081111561107257611072615158565b145b156110875781611083816157f6565b9250505b80611091816157f6565b915050611027565b506000816001600160401b038111156110b4576110b4614dfe565b6040519080825280602002602001820160405280156110ed57816020015b6110da614c49565b8152602001906001900390816110d25790505b509050600060015b6000548111610fa557600081815260026020526040902060030154861480156111425750600081815260026020819052604082206008015460ff169081111561114057611140615158565b145b156116345760026000828152602001908152602001600020604051806102200160405290816000820154815260200160018201805461118090615763565b80601f01602080910402602001604051908101604052809291908181526020018280546111ac90615763565b80156111f95780601f106111ce576101008083540402835291602001916111f9565b820191906000526020600020905b8154815290600101906020018083116111dc57829003601f168201915b5050505050815260200160028201805461121290615763565b80601f016020809104026020016040519081016040528092919081815260200182805461123e90615763565b801561128b5780601f106112605761010080835404028352916020019161128b565b820191906000526020600020905b81548152906001019060200180831161126e57829003601f168201915b50505050508152602001600382015481526020016004820180546112ae90615763565b80601f01602080910402602001604051908101604052809291908181526020018280546112da90615763565b80156113275780601f106112fc57610100808354040283529160200191611327565b820191906000526020600020905b81548152906001019060200180831161130a57829003601f168201915b5050509183525050600582015460208201526006820154604082015260078201546060820152600882015460809091019060ff16600281111561136c5761136c615158565b600281111561137d5761137d615158565b815260200160098201805480602002602001604051908101604052809291908181526020016000905b828210156114525783829060005260206000200180546113c590615763565b80601f01602080910402602001604051908101604052809291908181526020018280546113f190615763565b801561143e5780601f106114135761010080835404028352916020019161143e565b820191906000526020600020905b81548152906001019060200180831161142157829003601f168201915b5050505050815260200190600101906113a6565b505050508152602001600a8201805461146a90615763565b80601f016020809104026020016040519081016040528092919081815260200182805461149690615763565b80156114e35780601f106114b8576101008083540402835291602001916114e3565b820191906000526020600020905b8154815290600101906020018083116114c657829003601f168201915b50505050508152602001600b820180546114fc90615763565b80601f016020809104026020016040519081016040528092919081815260200182805461152890615763565b80156115755780601f1061154a57610100808354040283529160200191611575565b820191906000526020600020905b81548152906001019060200180831161155857829003601f168201915b5050509183525050600c8201546020820152600d8201546040820152600e82015460609091019060ff1660028111156115b0576115b0615158565b60028111156115c1576115c1615158565b8152602001600e820160019054906101000a900460ff1660038111156115e9576115e9615158565b60038111156115fa576115fa615158565b8152602001600f8201548152505083838151811061161a5761161a61580f565b60200260200101819052508180611630906157f6565b9250505b8061163e816157f6565b9150506110f5565b6040516a2a3930b739b837b93a32b960a91b6020820152602b0160405160208183030381529060405280519060200120816040516020016116879190615747565b6040516020818303038152906040528051906020012014806116fb57506040516857617265686f75736560b81b602082015260290160405160208183030381529060405280519060200120816040516020016116e39190615747565b60405160208183030381529060405280519060200120145b6117475760405162461bcd60e51b815260206004820152601860248201527f496e76616c6964207061727469636970616e742074797065000000000000000060448201526064016107d5565b60008481526002602052604081205490036117745760405162461bcd60e51b81526004016107d590615825565b600160008581526002602081905260409091206008015460ff169081111561179e5761179e615158565b146117e45760405162461bcd60e51b815260206004820152601660248201527510985d18da081b5d5cdd08189948185c1c1c9bdd995960521b60448201526064016107d5565b6040805160808101825284815242602080830191825282840186815260608401869052600089815260018084529581208054808801825590825292902084516004909302019182559151938101939093555190918291600282019061184990826158a2565b506060820151600382019061185e90826158a2565b5050604051712130ba103230ba903b30b71031b43abcb2b760711b6020820152603201905060405160208183030381529060405280519060200120836040516020016118aa9190615747565b60405160208183030381529060405280519060200120036118ef576000858152600260205260409020600e8101805461ffff1916610101179055600f01849055611a8b565b604051722a30b690323ab733903b30b71031b43abcb2b760691b602082015260330160405160208183030381529060405280519060200120836040516020016119389190615747565b604051602081830303815290604052805190602001200361197d576000858152600260208190526040909120600e01805461ff001916610100835b0217905550611a8b565b604051722a34b2b8103a3ab1903b30b71031b43abcb2b760691b602082015260330160405160208183030381529060405280519060200120836040516020016119c69190615747565b6040516020818303038152906040528051906020012003611a06576000858152600260205260409020600e0180546001919061ff00191661010083611973565b604051742437b0b7103a3430b734103b30b71031b43abcb2b760591b60208201526035016040516020818303038152906040528051906020012083604051602001611a519190615747565b6040516020818303038152906040528051906020012003611a8b576000858152600260205260409020600e01805461ffff19166103021790555b60008581526002602052604090819020600e0154905186917f946c8fa0a82d640c200413cf1c62f9401d34b0f1435a263a281ff0fd09030ae891611add91610100900460ff1690879089908890615961565b60405180910390a25050505050565b6000828152600260205260408120549003611b195760405162461bcd60e51b81526004016107d590615825565b60008281526002602081905260409091206008018054839260ff19909116906001908490811115611b4c57611b4c615158565b0217905550817fcf4d4f3dcd5294f4d19269f489155c2187699f4a9fb9004b6a303752b00b282f82604051611b819190615606565b60405180910390a25050565b6000600385604051611b9f9190615747565b908152602001604051809103902054905080600003611bd05760405162461bcd60e51b81526004016107d59061579d565b611bdc81858585611646565b5050505050565b6060600060015b6000548111611c3f57600081815260026020819052604082206008015460ff1690811115611c1a57611c1a615158565b03611c2d5781611c29816157f6565b9250505b80611c37816157f6565b915050611bea565b506000816001600160401b03811115611c5a57611c5a614dfe565b604051908082528060200260200182016040528015611c9357816020015b611c80614c49565b815260200190600190039081611c785790505b509050600060015b60005481116121cf57600081815260026020819052604082206008015460ff1690811115611ccb57611ccb615158565b036121bd57600260008281526020019081526020016000206040518061022001604052908160008201548152602001600182018054611d0990615763565b80601f0160208091040260200160405190810160405280929190818152602001828054611d3590615763565b8015611d825780601f10611d5757610100808354040283529160200191611d82565b820191906000526020600020905b815481529060010190602001808311611d6557829003601f168201915b50505050508152602001600282018054611d9b90615763565b80601f0160208091040260200160405190810160405280929190818152602001828054611dc790615763565b8015611e145780601f10611de957610100808354040283529160200191611e14565b820191906000526020600020905b815481529060010190602001808311611df757829003601f168201915b5050505050815260200160038201548152602001600482018054611e3790615763565b80601f0160208091040260200160405190810160405280929190818152602001828054611e6390615763565b8015611eb05780601f10611e8557610100808354040283529160200191611eb0565b820191906000526020600020905b815481529060010190602001808311611e9357829003601f168201915b5050509183525050600582015460208201526006820154604082015260078201546060820152600882015460809091019060ff166002811115611ef557611ef5615158565b6002811115611f0657611f06615158565b815260200160098201805480602002602001604051908101604052809291908181526020016000905b82821015611fdb578382906000526020600020018054611f4e90615763565b80601f0160208091040260200160405190810160405280929190818152602001828054611f7a90615763565b8015611fc75780601f10611f9c57610100808354040283529160200191611fc7565b820191906000526020600020905b815481529060010190602001808311611faa57829003601f168201915b505050505081526020019060010190611f2f565b505050508152602001600a82018054611ff390615763565b80601f016020809104026020016040519081016040528092919081815260200182805461201f90615763565b801561206c5780601f106120415761010080835404028352916020019161206c565b820191906000526020600020905b81548152906001019060200180831161204f57829003601f168201915b50505050508152602001600b8201805461208590615763565b80601f01602080910402602001604051908101604052809291908181526020018280546120b190615763565b80156120fe5780601f106120d3576101008083540402835291602001916120fe565b820191906000526020600020905b8154815290600101906020018083116120e157829003601f168201915b5050509183525050600c8201546020820152600d8201546040820152600e82015460609091019060ff16600281111561213957612139615158565b600281111561214a5761214a615158565b8152602001600e820160019054906101000a900460ff16600381111561217257612172615158565b600381111561218357612183615158565b8152602001600f820154815250508383815181106121a3576121a361580f565b602002602001018190525081806121b9906157f6565b9250505b806121c7816157f6565b915050611c9b565b50909392505050565b6060600060015b60005481116122215760008181526002602052604090206003015484900361220f578161220b816157f6565b9250505b80612219816157f6565b9150506121df565b506000816001600160401b0381111561223c5761223c614dfe565b60405190808252806020026020018201604052801561227557816020015b612262614c49565b81526020019060019003908161225a5790505b509050600060015b6000548111610fa55760008181526002602052604090206003015486900361278c576002600082815260200190815260200160002060405180610220016040529081600082015481526020016001820180546122d890615763565b80601f016020809104026020016040519081016040528092919081815260200182805461230490615763565b80156123515780601f1061232657610100808354040283529160200191612351565b820191906000526020600020905b81548152906001019060200180831161233457829003601f168201915b5050505050815260200160028201805461236a90615763565b80601f016020809104026020016040519081016040528092919081815260200182805461239690615763565b80156123e35780601f106123b8576101008083540402835291602001916123e3565b820191906000526020600020905b8154815290600101906020018083116123c657829003601f168201915b505050505081526020016003820154815260200160048201805461240690615763565b80601f016020809104026020016040519081016040528092919081815260200182805461243290615763565b801561247f5780601f106124545761010080835404028352916020019161247f565b820191906000526020600020905b81548152906001019060200180831161246257829003601f168201915b5050509183525050600582015460208201526006820154604082015260078201546060820152600882015460809091019060ff1660028111156124c4576124c4615158565b60028111156124d5576124d5615158565b815260200160098201805480602002602001604051908101604052809291908181526020016000905b828210156125aa57838290600052602060002001805461251d90615763565b80601f016020809104026020016040519081016040528092919081815260200182805461254990615763565b80156125965780601f1061256b57610100808354040283529160200191612596565b820191906000526020600020905b81548152906001019060200180831161257957829003601f168201915b5050505050815260200190600101906124fe565b505050508152602001600a820180546125c290615763565b80601f01602080910402602001604051908101604052809291908181526020018280546125ee90615763565b801561263b5780601f106126105761010080835404028352916020019161263b565b820191906000526020600020905b81548152906001019060200180831161261e57829003601f168201915b50505050508152602001600b8201805461265490615763565b80601f016020809104026020016040519081016040528092919081815260200182805461268090615763565b80156126cd5780601f106126a2576101008083540402835291602001916126cd565b820191906000526020600020905b8154815290600101906020018083116126b057829003601f168201915b5050509183525050600c8201546020820152600d8201546040820152600e82015460609091019060ff16600281111561270857612708615158565b600281111561271957612719615158565b8152602001600e820160019054906101000a900460ff16600381111561274157612741615158565b600381111561275257612752615158565b8152602001600f820154815250508383815181106127725761277261580f565b60200260200101819052508180612788906157f6565b9250505b80612796816157f6565b91505061227d565b60008181526002602052604081205490036127cb5760405162461bcd60e51b81526004016107d590615825565b600081815260026020819052604082206008015460ff16908111156127f2576127f2615158565b1461283f5760405162461bcd60e51b815260206004820152601d60248201527f4261746368206973206e6f742070656e64696e6720617070726f76616c00000060448201526064016107d5565b60008181526002602081905260409182902060088101805460ff1916831790556003810154925184937ffd30c1d70626cdbca41a738198079b1d57c2a7d36d52b79ae4b4bcc980506f7693612898939192910190615a21565b60405180910390a2604080516001808252818301909252600091602080830190803683375050506000838152600260205260408120600d01548251929350918391906128e6576128e661580f565b60200260200101818152505061295260026000848152602001908152602001600020600301546040518060400160405280600e81526020016d10985d18da0814995a9958dd195960921b815250604051806060016040528060278152602001615cf460279139846148e6565b5050565b60008181526002602052604081205481036129835760405162461bcd60e51b81526004016107d590615825565b506000908152600260205260409020600e0154610100900460ff1690565b6129a9614c49565b60008281526002602052604081205490036129d65760405162461bcd60e51b81526004016107d590615825565b600260008381526020019081526020016000206040518061022001604052908160008201548152602001600182018054612a0f90615763565b80601f0160208091040260200160405190810160405280929190818152602001828054612a3b90615763565b8015612a885780601f10612a5d57610100808354040283529160200191612a88565b820191906000526020600020905b815481529060010190602001808311612a6b57829003601f168201915b50505050508152602001600282018054612aa190615763565b80601f0160208091040260200160405190810160405280929190818152602001828054612acd90615763565b8015612b1a5780601f10612aef57610100808354040283529160200191612b1a565b820191906000526020600020905b815481529060010190602001808311612afd57829003601f168201915b5050505050815260200160038201548152602001600482018054612b3d90615763565b80601f0160208091040260200160405190810160405280929190818152602001828054612b6990615763565b8015612bb65780601f10612b8b57610100808354040283529160200191612bb6565b820191906000526020600020905b815481529060010190602001808311612b9957829003601f168201915b5050509183525050600582015460208201526006820154604082015260078201546060820152600882015460809091019060ff166002811115612bfb57612bfb615158565b6002811115612c0c57612c0c615158565b815260200160098201805480602002602001604051908101604052809291908181526020016000905b82821015612ce1578382906000526020600020018054612c5490615763565b80601f0160208091040260200160405190810160405280929190818152602001828054612c8090615763565b8015612ccd5780601f10612ca257610100808354040283529160200191612ccd565b820191906000526020600020905b815481529060010190602001808311612cb057829003601f168201915b505050505081526020019060010190612c35565b505050508152602001600a82018054612cf990615763565b80601f0160208091040260200160405190810160405280929190818152602001828054612d2590615763565b8015612d725780601f10612d4757610100808354040283529160200191612d72565b820191906000526020600020905b815481529060010190602001808311612d5557829003601f168201915b50505050508152602001600b82018054612d8b90615763565b80601f0160208091040260200160405190810160405280929190818152602001828054612db790615763565b8015612e045780601f10612dd957610100808354040283529160200191612e04565b820191906000526020600020905b815481529060010190602001808311612de757829003601f168201915b5050509183525050600c8201546020820152600d8201546040820152600e82015460609091019060ff166002811115612e3f57612e3f615158565b6002811115612e5057612e50615158565b8152602001600e820160019054906101000a900460ff166003811115612e7857612e78615158565b6003811115612e8957612e89615158565b8152602001600f820154815250509050919050565b6000818152600260205260408120548103612ecb5760405162461bcd60e51b81526004016107d590615825565b506000908152600260205260409020600e015460ff1690565b6000806000848152600260205260409020600e0154610100900460ff166003811115612f1257612f12615158565b1480612f64575060036000848152600260205260409020600e0154610100900460ff166003811115612f4657612f46615158565b148015612f6457506000838152600260205260409020600f01548214155b90505b92915050565b6000848152600260205260408120549003612f9a5760405162461bcd60e51b81526004016107d590615825565b60008481526006602090815260408083208151608081018352878152808401878152429382019390935260608101869052815460018181018455928652939094208451600490940201928355905190820190612ff690826158a2565b50604082015160028201556060820151600382019061301590826158a2565b505050837fe5fd3732b00b2878e55e64cdde6c59b6566f044952fe6b2f36658364da9b561c84848460405161304c93929190615a3a565b60405180910390a250505050565b6040805160e08101825242815260208082018881528284018881526060840188905260006080850181905260a0850188905260c085018790528a81526004845294852080546001818101835591875293909520845160079094020192835590519382019390935591519091829160028201906130d690826158a2565b50606082015160038201906130eb90826158a2565b50608082015160048201805460ff191691151591909117905560a0820151805161311f916005840191602090910190614cf2565b5060c0820151805161313b916006840191602090910190614d48565b505050857f0fb336061951903d147e6b93ba30f6d47839e02426fcd5ee1876873afe47bab3868660008787604051613177959493929190615a6f565b60405180910390a2505050505050565b6060600060015b600054811161320357600081815260026020526040902060030154841480156131de5750600160008281526002602081905260409091206008015460ff16908111156131dc576131dc615158565b145b156131f157816131ed816157f6565b9250505b806131fb816157f6565b91505061318e565b506000816001600160401b0381111561321e5761321e614dfe565b60405190808252806020026020018201604052801561325757816020015b613244614c49565b81526020019060019003908161323c5790505b509050600060015b6000548111610fa557600081815260026020526040902060030154861480156132af5750600160008281526002602081905260409091206008015460ff16908111156132ad576132ad615158565b145b156137a1576002600082815260200190815260200160002060405180610220016040529081600082015481526020016001820180546132ed90615763565b80601f016020809104026020016040519081016040528092919081815260200182805461331990615763565b80156133665780601f1061333b57610100808354040283529160200191613366565b820191906000526020600020905b81548152906001019060200180831161334957829003601f168201915b5050505050815260200160028201805461337f90615763565b80601f01602080910402602001604051908101604052809291908181526020018280546133ab90615763565b80156133f85780601f106133cd576101008083540402835291602001916133f8565b820191906000526020600020905b8154815290600101906020018083116133db57829003601f168201915b505050505081526020016003820154815260200160048201805461341b90615763565b80601f016020809104026020016040519081016040528092919081815260200182805461344790615763565b80156134945780601f1061346957610100808354040283529160200191613494565b820191906000526020600020905b81548152906001019060200180831161347757829003601f168201915b5050509183525050600582015460208201526006820154604082015260078201546060820152600882015460809091019060ff1660028111156134d9576134d9615158565b60028111156134ea576134ea615158565b815260200160098201805480602002602001604051908101604052809291908181526020016000905b828210156135bf57838290600052602060002001805461353290615763565b80601f016020809104026020016040519081016040528092919081815260200182805461355e90615763565b80156135ab5780601f10613580576101008083540402835291602001916135ab565b820191906000526020600020905b81548152906001019060200180831161358e57829003601f168201915b505050505081526020019060010190613513565b505050508152602001600a820180546135d790615763565b80601f016020809104026020016040519081016040528092919081815260200182805461360390615763565b80156136505780601f1061362557610100808354040283529160200191613650565b820191906000526020600020905b81548152906001019060200180831161363357829003601f168201915b50505050508152602001600b8201805461366990615763565b80601f016020809104026020016040519081016040528092919081815260200182805461369590615763565b80156136e25780601f106136b7576101008083540402835291602001916136e2565b820191906000526020600020905b8154815290600101906020018083116136c557829003601f168201915b5050509183525050600c8201546020820152600d8201546040820152600e82015460609091019060ff16600281111561371d5761371d615158565b600281111561372e5761372e615158565b8152602001600e820160019054906101000a900460ff16600381111561375657613756615158565b600381111561376757613767615158565b8152602001600f820154815250508383815181106137875761378761580f565b6020026020010181905250818061379d906157f6565b9250505b806137ab816157f6565b91505061325f565b6137bb614c49565b60006003836040516137cd9190615747565b9081526020016040518091039020549050806000036137fe5760405162461bcd60e51b81526004016107d59061579d565b60026000828152602001908152602001600020604051806102200160405290816000820154815260200160018201805461383790615763565b80601f016020809104026020016040519081016040528092919081815260200182805461386390615763565b80156138b05780601f10613885576101008083540402835291602001916138b0565b820191906000526020600020905b81548152906001019060200180831161389357829003601f168201915b505050505081526020016002820180546138c990615763565b80601f01602080910402602001604051908101604052809291908181526020018280546138f590615763565b80156139425780601f1061391757610100808354040283529160200191613942565b820191906000526020600020905b81548152906001019060200180831161392557829003601f168201915b505050505081526020016003820154815260200160048201805461396590615763565b80601f016020809104026020016040519081016040528092919081815260200182805461399190615763565b80156139de5780601f106139b3576101008083540402835291602001916139de565b820191906000526020600020905b8154815290600101906020018083116139c157829003601f168201915b5050509183525050600582015460208201526006820154604082015260078201546060820152600882015460809091019060ff166002811115613a2357613a23615158565b6002811115613a3457613a34615158565b815260200160098201805480602002602001604051908101604052809291908181526020016000905b82821015613b09578382906000526020600020018054613a7c90615763565b80601f0160208091040260200160405190810160405280929190818152602001828054613aa890615763565b8015613af55780601f10613aca57610100808354040283529160200191613af5565b820191906000526020600020905b815481529060010190602001808311613ad857829003601f168201915b505050505081526020019060010190613a5d565b505050508152602001600a82018054613b2190615763565b80601f0160208091040260200160405190810160405280929190818152602001828054613b4d90615763565b8015613b9a5780601f10613b6f57610100808354040283529160200191613b9a565b820191906000526020600020905b815481529060010190602001808311613b7d57829003601f168201915b50505050508152602001600b82018054613bb390615763565b80601f0160208091040260200160405190810160405280929190818152602001828054613bdf90615763565b8015613c2c5780601f10613c0157610100808354040283529160200191613c2c565b820191906000526020600020905b815481529060010190602001808311613c0f57829003601f168201915b5050509183525050600c8201546020820152600d8201546040820152600e82015460609091019060ff166002811115613c6757613c67615158565b6002811115613c7857613c78615158565b8152602001600e820160019054906101000a900460ff166003811115613ca057613ca0615158565b6003811115613cb157613cb1615158565b8152602001600f82015481525050915050919050565b6000818152600260205260408120549003613cf45760405162461bcd60e51b81526004016107d590615825565b600081815260026020819052604082206008015460ff1690811115613d1b57613d1b615158565b14613d685760405162461bcd60e51b815260206004820152601d60248201527f4261746368206973206e6f742070656e64696e6720617070726f76616c00000060448201526064016107d5565b6000818152600260208181526040808420600881018054600160ff19918216811790925560058552958390208054909616179094559082905260038301549051909284927f1a621270a25ae67b5e557b98be27914cd1de793b7ca49110be85cb5aaa169c9b92613ddb9290910190615b02565b60405180910390a36000818152600260208190526040918290206003810154925184927f309958f3629dbb8b1c3fb39cc2ffd4759c619a8c6c7927159d9e608c99ae463292613e2c92910190615b02565b60405180910390a3604080516001808252818301909252600091602080830190803683375050506000838152600260205260408120600d0154825192935091839190613e7a57613e7a61580f565b60200260200101818152505061295260026000848152602001908152602001600020600301546040518060400160405280600e81526020016d10985d18da08105c1c1c9bdd995960921b815250604051806060016040528060278152602001615d1b60279139846148e6565b606060046000838152602001908152602001600020805480602002602001604051908101604052809291908181526020016000905b8282101561075d57838290600052602060002090600702016040518060e00160405290816000820154815260200160018201548152602001600282018054613f6290615763565b80601f0160208091040260200160405190810160405280929190818152602001828054613f8e90615763565b8015613fdb5780601f10613fb057610100808354040283529160200191613fdb565b820191906000526020600020905b815481529060010190602001808311613fbe57829003601f168201915b50505050508152602001600382018054613ff490615763565b80601f016020809104026020016040519081016040528092919081815260200182805461402090615763565b801561406d5780601f106140425761010080835404028352916020019161406d565b820191906000526020600020905b81548152906001019060200180831161405057829003601f168201915b5050509183525050600482015460ff161515602080830191909152600583018054604080518285028101850182528281529401939260009084015b828210156141545783829060005260206000200180546140c790615763565b80601f01602080910402602001604051908101604052809291908181526020018280546140f390615763565b80156141405780601f1061411557610100808354040283529160200191614140565b820191906000526020600020905b81548152906001019060200180831161412357829003601f168201915b5050505050815260200190600101906140a8565b505050508152602001600682018054806020026020016040519081016040528092919081815260200182805480156141ab57602002820191906000526020600020905b815481526020019060010190808311614197575b50505050508152505081526020019060010190613f1b565b604080518082019091526002815261030360f41b602082015260609060006141ea84614a32565b604080514260208083019190915281830188905282518083038401815260609092019092528051910120909150600061422282614a32565b9050600084848360405160200161423b93929190615b15565b6040516020818303038152906040529050600061425782614b5d565b90506000826142688360ff16614a32565b604051602001614279929190615b58565b60408051601f198184030181529190529998505050505050505050565b6000600382602001516040516142ac9190615747565b9081526020016040518091039020546000146143005760405162461bcd60e51b81526020600482015260136024820152725353434320616c72656164792065786973747360681b60448201526064016107d5565b6000826060015151116143555760405162461bcd60e51b815260206004820152601a60248201527f5175616e74697479206d757374206e6f7420626520656d70747900000000000060448201526064016107d5565b6000826080015151116143bd5760405162461bcd60e51b815260206004820152602a60248201527f4174206c65617374206f6e652070726f6475637420696d6167652055524c20696044820152691cc81c995c5d5a5c995960b21b60648201526084016107d5565b60008260a00151511161441c5760405162461bcd60e51b815260206004820152602160248201527f436572746966696361746520696d6167652055524c20697320726571756972656044820152601960fa1b60648201526084016107d5565b60008260c0015151116144715760405162461bcd60e51b815260206004820152601c60248201527f4661726d20706c6f74206e756d6265722069732072657175697265640000000060448201526064016107d5565b60008260e00151116144c55760405162461bcd60e51b815260206004820152601860248201527f50726f64756374204944206d7573742062652076616c6964000000000000000060448201526064016107d5565b6000826101000151116145135760405162461bcd60e51b815260206004820152601660248201527514dd185c9d0819185d19481a5cc81c995c5d5a5c995960521b60448201526064016107d5565b60008261012001511161455f5760405162461bcd60e51b8152602060048201526014602482015273115b990819185d19481a5cc81c995c5d5a5c995960621b60448201526064016107d5565b816101200151826101000151106145c35760405162461bcd60e51b815260206004820152602260248201527f53746172742064617465206d757374206265206265666f726520656e64206461604482015261746560f01b60648201526084016107d5565b8151516146125760405162461bcd60e51b815260206004820152601c60248201527f4261746368206e616d65206d757374206e6f7420626520656d7074790000000060448201526064016107d5565b600080549080614621836157f6565b91905055506000805490506000429050600061465a856020015186604001518760600151858960c001518a60e001518b60000151614c07565b905060006040518061022001604052808581526020018760000151815260200187602001518152602001876040015181526020018760600151815260200184815260200187610100015181526020018761012001518152602001600060028111156146c7576146c7615158565b8152608080890151602083015260a0808a0151604084015260c0808b0151606085015291830186905260e08a01519083015201600081526020016000815260006020918201819052868152600282526040902082518155908201519192508291600182019061473690826158a2565b506040820151600282019061474b90826158a2565b50606082015160038201556080820151600482019061476a90826158a2565b5060a0820151600582015560c0820151600682015560e0820151600782015561010082015160088201805460ff191660018360028111156147ad576147ad615158565b021790555061012082015180516147ce916009840191602090910190614cf2565b50610140820151600a8201906147e490826158a2565b50610160820151600b8201906147fa90826158a2565b50610180820151600c8201556101a0820151600d8201556101c0820151600e8201805460ff1916600183600281111561483557614835615158565b02179055506101e0820151600e8201805461ff00191661010083600381111561486057614860615158565b021790555061020082015181600f015590505083600387602001516040516148889190615747565b908152602001604051809103902081905550837f58c168780de5fc719a1e7a85c7eca394e664c0e74b7c9ebc621f0b093112d04b876020015188604001516040516148d4929190615b87565b60405180910390a25091949350505050565b6040805160008082526020820190925281614911565b60608152602001906001900390816148fc5790505b506040805160e08101825242815260208082018981528284018981526060840189905260016080850181905260a0850187905260c0850189905260008c81526004855295862080548083018255908752939095208451600790940201928355905193820193909355915192935091829190600282019061499190826158a2565b50606082015160038201906149a690826158a2565b50608082015160048201805460ff191691151591909117905560a082015180516149da916005840191602090910190614cf2565b5060c082015180516149f6916006840191602090910190614d48565b505050857f0fb336061951903d147e6b93ba30f6d47839e02426fcd5ee1876873afe47bab3868660018688604051613177959493929190615a6f565b606081600003614a595750506040805180820190915260018152600360fc1b602082015290565b8160005b8115614a835780614a6d816157f6565b9150614a7c9050600a83615bbf565b9150614a5d565b6000816001600160401b03811115614a9d57614a9d614dfe565b6040519080825280601f01601f191660200182016040528015614ac7576020820181803683370190505b509050815b8515614b5457614add600182615bd3565b90506000614aec600a88615bbf565b614af790600a615be6565b614b019088615bd3565b614b0c906030615bfd565b905060008160f81b905080848481518110614b2957614b2961580f565b60200101906001600160f81b031916908160001a905350614b4b600a89615bbf565b97505050614acc565b50949350505050565b60008181805b8251811015614bda5760006030848381518110614b8257614b8261580f565b0160200151614b94919060f81c615c16565b9050614ba1600283615c2f565b15614bac5780614bb7565b614bb7816003615c43565b614bc49060ff1684615c66565b9250508080614bd2906157f6565b915050614b63565b506000600a614be98184615c2f565b614bf490600a615bd3565b614bfe9190615c2f565b95945050505050565b600087878787878787604051602001614c269796959493929190615c79565b604051602081830303815290604052805190602001209050979650505050505050565b604051806102200160405280600081526020016060815260200160608152602001600081526020016060815260200160008152602001600081526020016000815260200160006002811115614ca057614ca0615158565b8152602001606081526020016060815260200160608152602001600080191681526020016000815260200160006002811115614cde57614cde615158565b815260200160008152602001600081525090565b828054828255906000526020600020908101928215614d38579160200282015b82811115614d385782518290614d2890826158a2565b5091602001919060010190614d12565b50614d44929150614d8f565b5090565b828054828255906000526020600020908101928215614d83579160200282015b82811115614d83578251825591602001919060010190614d68565b50614d44929150614dac565b80821115614d44576000614da38282614dc1565b50600101614d8f565b5b80821115614d445760008155600101614dad565b508054614dcd90615763565b6000825580601f10614ddd575050565b601f016020900490600052602060002090810190614dfb9190614dac565b50565b634e487b7160e01b600052604160045260246000fd5b604051601f8201601f191681016001600160401b0381118282101715614e3c57614e3c614dfe565b604052919050565b600082601f830112614e5557600080fd5b81356001600160401b03811115614e6e57614e6e614dfe565b614e81601f8201601f1916602001614e14565b818152846020838601011115614e9657600080fd5b816020850160208301376000918101602001919091529392505050565b600060208284031215614ec557600080fd5b81356001600160401b03811115614edb57600080fd5b614ee784828501614e44565b949350505050565b600060208284031215614f0157600080fd5b5035919050565b60005b83811015614f23578181015183820152602001614f0b565b50506000910152565b60008151808452614f44816020860160208601614f08565b601f01601f19169290920160200192915050565b600082825180855260208086019550808260051b84010181860160005b84811015614fa357601f19868403018952614f91838351614f2c565b98840198925090830190600101614f75565b5090979650505050505050565b600081518084526020808501945080840160005b83811015614fe057815187529582019590820190600101614fc4565b509495945050505050565b60006020808301818452808551808352604092508286019150828160051b87010184880160005b838110156150bc57603f19898403018552815160e081518552888201518986015287820151818987015261504882870182614f2c565b915050606080830151868303828801526150628382614f2c565b925050506080808301511515818701525060a0808301518683038288015261508a8382614f58565b9250505060c080830151925085820381870152506150a88183614fb0565b968901969450505090860190600101615012565b509098975050505050505050565b60006020808301818452808551808352604092508286019150828160051b87010184880160005b838110156150bc57603f198984030185528151608081518552888201518986015287820151818987015261512782870182614f2c565b915050606080830151925085820381870152506151448183614f2c565b9689019694505050908601906001016150f1565b634e487b7160e01b600052602160045260246000fd5b60038110614dfb57614dfb615158565b6151878161516e565b9052565b6004811061518757615187615158565b60006102208251845260208301518160208601526151bb82860182614f2c565b915050604083015184820360408601526151d58282614f2c565b91505060608301516060850152608083015184820360808601526151f98282614f2c565b91505060a083015160a085015260c083015160c085015260e083015160e08501526101008084015161522d8287018261517e565b505061012080840151858303828701526152478382614f58565b9250505061014080840151858303828701526152638382614f2c565b92505050610160808401518583038287015261527f8382614f2c565b925050506101808084015181860152506101a08084015181860152506101c0808401516152ae8287018261517e565b50506101e0808401516152c38287018261518b565b5050610200928301519390920192909252919050565b6000602080830181845280855180835260408601915060408160051b870101925083870160005b8281101561532e57603f1988860301845261531c85835161519b565b94509285019290850190600101615300565b5092979650505050505050565b60006001600160401b0382111561535457615354614dfe565b5060051b60200190565b600082601f83011261536f57600080fd5b8135602061538461537f8361533b565b614e14565b82815260059290921b840181019181810190868411156153a357600080fd5b8286015b848110156153e25780356001600160401b038111156153c65760008081fd5b6153d48986838b0101614e44565b8452509183019183016153a7565b509695505050505050565b60008060008060008060008060006101208a8c03121561540c57600080fd5b89356001600160401b038082111561542357600080fd5b61542f8d838e01614e44565b9a5060208c0135995060408c013591508082111561544c57600080fd5b6154588d838e01614e44565b985060608c013591508082111561546e57600080fd5b61547a8d838e0161535e565b975060808c013591508082111561549057600080fd5b61549c8d838e01614e44565b965060a08c01359150808211156154b257600080fd5b506154bf8c828d01614e44565b94505060c08a0135925060e08a013591506101008a013590509295985092959850929598565b600080600080608085870312156154fb57600080fd5b843593506020850135925060408501356001600160401b038082111561552057600080fd5b61552c88838901614e44565b9350606087013591508082111561554257600080fd5b5061554f87828801614e44565b91505092959194509250565b6000806040838503121561556e57600080fd5b8235915060208301356003811061558457600080fd5b809150509250929050565b600080600080608085870312156155a557600080fd5b84356001600160401b03808211156155bc57600080fd5b6155c888838901614e44565b955060208701359450604087013591508082111561552057600080fd5b60208101612f67828461518b565b602081526000612f64602083018461519b565b602081016156138361516e565b91905290565b6000806040838503121561562c57600080fd5b50508035926020909101359150565b600080600080600060a0868803121561565357600080fd5b853594506020808701356001600160401b038082111561567257600080fd5b61567e8a838b01614e44565b9650604089013591508082111561569457600080fd5b6156a08a838b01614e44565b955060608901359150808211156156b657600080fd5b6156c28a838b0161535e565b945060808901359150808211156156d857600080fd5b508701601f810189136156ea57600080fd5b80356156f861537f8261533b565b81815260059190911b8201830190838101908b83111561571757600080fd5b928401925b828410156157355783358252928401929084019061571c565b80955050505050509295509295909350565b60008251615759818460208701614f08565b9190910192915050565b600181811c9082168061577757607f821691505b60208210810361579757634e487b7160e01b600052602260045260246000fd5b50919050565b60208082526023908201527f426174636820646f6573206e6f7420657869737420776974682074686973205360408201526253434360e81b606082015260800190565b634e487b7160e01b600052601160045260246000fd5b600060018201615808576158086157e0565b5060010190565b634e487b7160e01b600052603260045260246000fd5b60208082526014908201527310985d18da08191bd95cc81b9bdd08195e1a5cdd60621b604082015260600190565b601f82111561589d57600081815260208120601f850160051c8101602086101561587a5750805b601f850160051c820191505b8181101561589957828155600101615886565b5050505b505050565b81516001600160401b038111156158bb576158bb614dfe565b6158cf816158c98454615763565b84615853565b602080601f83116001811461590457600084156158ec5750858301515b600019600386901b1c1916600185901b178555615899565b600085815260208120601f198616915b8281101561593357888601518255948401946001909101908401615914565b50858210156159515787850151600019600388901b60f8161c191681555b5050505050600190811b01905550565b61596b818661518b565b6080602082015260006159816080830186614f2c565b84604084015282810360608401526159998185614f2c565b979650505050505050565b600081546159b181615763565b8085526020600183811680156159ce57600181146159e857615a16565b60ff1985168884015283151560051b880183019550615a16565b866000528260002060005b85811015615a0e5781548a82018601529083019084016159f3565b890184019650505b505050505092915050565b828152604060208201526000614ee760408301846159a4565b838152606060208201526000615a536060830185614f2c565b8281036040840152615a658185614f2c565b9695505050505050565b60a081526000615a8260a0830188614f2c565b602083820381850152615a958289614f2c565b9150861515604085015283820360608501528186518084528284019150828160051b85010183890160005b83811015615aee57601f19878403018552615adc838351614f2c565b94860194925090850190600101615ac0565b505086810360808801526110108189614fb0565b602081526000612f6460208301846159a4565b60008451615b27818460208901614f08565b845190830190615b3b818360208901614f08565b8451910190615b4e818360208801614f08565b0195945050505050565b60008351615b6a818460208801614f08565b835190830190615b7e818360208801614f08565b01949350505050565b604081526000615b9a6040830185614f2c565b90508260208301529392505050565b634e487b7160e01b600052601260045260246000fd5b600082615bce57615bce615ba9565b500490565b81810381811115612f6757612f676157e0565b8082028115828204841417612f6757612f676157e0565b60ff8181168382160190811115612f6757612f676157e0565b60ff8281168282160390811115612f6757612f676157e0565b600082615c3e57615c3e615ba9565b500690565b60ff8181168382160290811690818114615c5f57615c5f6157e0565b5092915050565b80820180821115612f6757612f676157e0565b600088516020615c8c8285838e01614f08565b81840191508982528851615ca581838501848d01614f08565b80830192505087818301528651615cc28160408501848b01614f08565b604092019182018690528451615cde8160608501848901614f08565b919091016060019a995050505050505050505056fe426174636820686173206265656e2072656a65637465642062792074686520617070726f766572426174636820686173206265656e20617070726f7665642062792074686520617070726f766572a264697066735822122028e2ee22d21618364db05f59547552962c85ed7a108b0956f94be5e8dcb2650164736f6c63430008140033",
  "immutableReferences": {},
  "source": "// SPDX-License-Identifier: MIT\r\npragma solidity ^0.8.0;\r\n\r\ncontract TraceabilityContract {\r\n    uint256 private _batchIdCounter;\r\n\r\nenum BatchStatus { PendingApproval, Approved, Rejected }\r\nenum TransportStatus { NotTransported, InTransit, Delivered }\r\nenum ParticipantType { Transporter, Warehouse }\r\nenum DetailedTransportStatus { NotStarted, InTransit, Paused, Delivered }\r\n\r\n    struct Batch {\r\n        uint256 batchId;\r\n        string name;  // Thm trng tn l hng\r\n        string sscc;\r\n        uint256 producerId;\r\n        string quantity;\r\n        uint256 productionDate;\r\n        uint256 startDate;\r\n        uint256 endDate;\r\n        BatchStatus status;\r\n        string[] productImageUrls;\r\n        string certificateImageUrl;\r\n        string farmPlotNumber;\r\n        bytes32 dataHash;\r\n        uint256 productId;\r\n        TransportStatus transportStatus;\r\n        DetailedTransportStatus detailedTransportStatus;\r\n      uint256 lastTransporterId;\r\n    }\r\n\r\n     struct BatchParams {\r\n        string name;\r\n        string sscc;\r\n        uint256 producerId;\r\n        string quantity;\r\n        string[] productImageUrls;\r\n        string certificateImageUrl;\r\n        string farmPlotNumber;\r\n        uint256 productId;\r\n        uint256 startDate;\r\n        uint256 endDate;\r\n    }\r\n    \r\n    struct Participation {\r\n        uint256 participantId;\r\n        string participantType;\r\n        uint256 timestamp;\r\n        string action;\r\n    }\r\n      struct ActivityLog {\r\n        uint256 timestamp;\r\n        uint256 uid;\r\n        string activityName;\r\n        string description;\r\n        bool isSystemGenerated;\r\n        string[] imageUrls;\r\n        uint256[] relatedProductIds;\r\n    }\r\n    struct TransportEvent {\r\n    uint256 participantId;\r\n    uint256 timestamp;\r\n    string action;\r\n    string participantType;\r\n}\r\n\r\nmapping(uint256 => TransportEvent[]) private _batchTransportEvents;\r\n\r\n\r\n    mapping(uint256 => Batch) private _batches;\r\n    mapping(string => uint256) private _ssccToBatchId;\r\n    mapping(uint256 => ActivityLog[]) private _producerActivityLogs;\r\n    mapping(uint256 => bool) private _approvedBatches;\r\n    mapping(uint256 => Participation[]) private _batchParticipations;\r\n    \r\n    event BatchApproved(uint256 indexed batchId, uint256 indexed producerId, string sscc);\r\n    event BatchApprovedForQR(uint256 indexed batchId, uint256 indexed producerId, string sscc);\r\n    event ParticipationRecorded(uint256 indexed batchId, uint256 participantId, string participantType, string action);\r\n    event BatchCreated(uint256 indexed batchId, string sscc, uint256 producerId);\r\n    event ActivityLogAdded(\r\n        uint256 indexed uid,\r\n        string activityName,\r\n        string description,\r\n        bool isSystemGenerated,\r\n        string[] imageUrls,\r\n        uint256[] relatedProductIds\r\n    );\r\nevent TransportStatusUpdated(\r\n    uint256 indexed batchId, \r\n    DetailedTransportStatus newStatus, \r\n    string action, \r\n    uint256 participantId, \r\n    string participantType\r\n);\r\n\r\n    function createBatch(\r\n        string memory _name,  // Thm tham s tn l hng\r\n        uint256 _producerId,\r\n        string memory _quantity,\r\n        string[] memory _productImageUrls,\r\n        string memory _certificateImageUrl,\r\n        string memory _farmPlotNumber,\r\n        uint256 _productId,\r\n        uint256 _startDate,\r\n        uint256 _endDate\r\n    ) public returns (uint256) {\r\n        string memory sscc = generateSSCC(_producerId);\r\n        BatchParams memory params = BatchParams({\r\n            name: _name,  // Thm tn l hng\r\n            sscc: sscc,\r\n            producerId: _producerId,\r\n            quantity: _quantity,\r\n            productImageUrls: _productImageUrls,\r\n            certificateImageUrl: _certificateImageUrl,\r\n            farmPlotNumber: _farmPlotNumber,\r\n            productId: _productId,\r\n            startDate: _startDate,\r\n            endDate: _endDate\r\n        });\r\n\r\n        return _createBatch(params);\r\n    }\r\n\r\n    function generateSSCC(uint256 _producerId) private view returns (string memory) {\r\n        string memory prefix = \"00\";\r\n        string memory companyPrefix = uint2str(_producerId);\r\n        uint256 serialNumber = uint256(keccak256(abi.encodePacked(block.timestamp, _producerId)));\r\n        string memory serialReference = uint2str(serialNumber);\r\n        \r\n        string memory ssccWithoutCheck = string(abi.encodePacked(prefix, companyPrefix, serialReference));\r\n        uint8 checkDigit = calculateCheckDigit(ssccWithoutCheck);\r\n        \r\n        string memory sscc = string(abi.encodePacked(ssccWithoutCheck, uint2str(uint256(checkDigit))));\r\n        \r\n        return sscc;\r\n    }\r\n\r\n    function calculateCheckDigit(string memory _code) private pure returns (uint8) {\r\n        bytes memory codeBytes = bytes(_code);\r\n        uint256 sum = 0;\r\n        for (uint256 i = 0; i < codeBytes.length; i++) {\r\n            uint8 digit = uint8(codeBytes[i]) - 48;\r\n            sum += (i % 2 == 0) ? digit * 3 : digit;\r\n        }\r\n        uint8 checkDigit = uint8((10 - (sum % 10)) % 10);\r\n        return checkDigit;\r\n    }\r\n\r\n    function uint2str(uint256 _i) private pure returns (string memory) {\r\n        if (_i == 0) {\r\n            return \"0\";\r\n        }\r\n        uint256 j = _i;\r\n        uint256 length;\r\n        while (j != 0) {\r\n            length++;\r\n            j /= 10;\r\n        }\r\n        bytes memory bstr = new bytes(length);\r\n        uint256 k = length;\r\n        while (_i != 0) {\r\n            k = k-1;\r\n            uint8 temp = (48 + uint8(_i - _i / 10 * 10));\r\n            bytes1 b1 = bytes1(temp);\r\n            bstr[k] = b1;\r\n            _i /= 10;\r\n        }\r\n        return string(bstr);\r\n    }\r\n\r\n    function _createBatch(BatchParams memory params) private returns (uint256) {\r\n        require(_ssccToBatchId[params.sscc] == 0, \"SSCC already exists\");\r\n        require(bytes(params.quantity).length > 0, \"Quantity must not be empty\");\r\n        require(params.productImageUrls.length > 0, \"At least one product image URL is required\");\r\n        require(bytes(params.certificateImageUrl).length > 0, \"Certificate image URL is required\");\r\n        require(bytes(params.farmPlotNumber).length > 0, \"Farm plot number is required\");\r\n        require(params.productId > 0, \"Product ID must be valid\");\r\n        require(params.startDate > 0, \"Start date is required\");\r\n        require(params.endDate > 0, \"End date is required\");\r\n        require(params.startDate < params.endDate, \"Start date must be before end date\");\r\n        require(bytes(params.name).length > 0, \"Batch name must not be empty\");\r\n\r\n        _batchIdCounter++;\r\n        uint256 newBatchId = _batchIdCounter;\r\n\r\n        uint256 productionDate = block.timestamp;\r\n\r\n        bytes32 dataHash = _calculateDataHash(\r\n            params.sscc,\r\n            params.producerId,\r\n            params.quantity,\r\n            productionDate,\r\n            params.farmPlotNumber,\r\n            params.productId,\r\n            params.name  // Thm tn l hng vo hm bm\r\n        );\r\n\r\n        Batch memory newBatch = Batch({\r\n            batchId: newBatchId,\r\n            name: params.name,  // Thm tn l hng\r\n            sscc: params.sscc,\r\n            producerId: params.producerId,\r\n            quantity: params.quantity,\r\n            productionDate: productionDate,\r\n            startDate: params.startDate,\r\n            endDate: params.endDate,\r\n            status: BatchStatus.PendingApproval,\r\n            productImageUrls: params.productImageUrls,\r\n            certificateImageUrl: params.certificateImageUrl,\r\n            farmPlotNumber: params.farmPlotNumber,\r\n            dataHash: dataHash,\r\n            productId: params.productId,\r\n            transportStatus: TransportStatus.NotTransported,\r\n            detailedTransportStatus: DetailedTransportStatus.NotStarted,\r\n            lastTransporterId: 0\r\n        });\r\n\r\n        _batches[newBatchId] = newBatch;\r\n        _ssccToBatchId[params.sscc] = newBatchId;\r\n\r\n        emit BatchCreated(newBatchId, params.sscc, params.producerId);\r\n        return newBatchId;\r\n    }\r\n    \r\n\r\n    function addActivityLog(\r\n        uint256 _uid,\r\n        string memory _activityName,\r\n        string memory _description,\r\n        string[] memory _imageUrls,\r\n        uint256[] memory _relatedProductIds\r\n    ) public {\r\n        ActivityLog memory newLog = ActivityLog({\r\n            timestamp: block.timestamp,\r\n            uid: _uid,\r\n            activityName: _activityName,\r\n            description: _description,\r\n            isSystemGenerated: false,\r\n            imageUrls: _imageUrls,\r\n            relatedProductIds: _relatedProductIds\r\n        });\r\n\r\n        _producerActivityLogs[_uid].push(newLog);\r\n        emit ActivityLogAdded(_uid, _activityName, _description, false, _imageUrls, _relatedProductIds);\r\n    }\r\n // Hm  ly nht k hot ng ca mt nh sn xut\r\n    function getProducerActivityLogs(uint256 _uid) public view returns (ActivityLog[] memory) {\r\n        return _producerActivityLogs[_uid];\r\n    }\r\n\r\n    \r\n    // Hm ni b  h thng t ng thm nht k\r\n    function _addSystemActivityLog(\r\n        uint256 _uid,\r\n        string memory _activityName,\r\n        string memory _description,\r\n        uint256[] memory _relatedProductIds\r\n    ) internal {\r\n        string[] memory emptyImageUrls = new string[](0);\r\n        ActivityLog memory newLog = ActivityLog({\r\n            timestamp: block.timestamp,\r\n            uid: _uid,\r\n            activityName: _activityName,\r\n            description: _description,\r\n            isSystemGenerated: true,\r\n            imageUrls: emptyImageUrls,\r\n            relatedProductIds: _relatedProductIds\r\n        });\r\n\r\n        _producerActivityLogs[_uid].push(newLog);\r\n        emit ActivityLogAdded(_uid, _activityName, _description, true, emptyImageUrls, _relatedProductIds);\r\n    }\r\n    \r\n    function _calculateDataHash(\r\n        string memory _sscc,\r\n        uint256 _producerId,\r\n        string memory _quantity,\r\n        uint256 _productionDate,\r\n        string memory _farmPlotNumber,\r\n        uint256 _productId,\r\n        string memory _name  // Thm tn l hng\r\n    ) private pure returns (bytes32) {\r\n        return keccak256(abi.encodePacked(_sscc, _producerId, _quantity, _productionDate, _farmPlotNumber, _productId, _name));\r\n    }\r\n    // hm kim tra sscc  tn ti hay cha \r\n    function ssccExists(string memory sscc) public view returns (bool) {\r\n        return _ssccToBatchId[sscc] != 0;\r\n    }\r\n\r\n    // Hm mi  ly danh sch cc l hng da trn producerId\r\n    function getBatchesByProducer(uint256 producerId) public view returns (Batch[] memory) {\r\n        uint256 count = 0;\r\n        for (uint256 i = 1; i <= _batchIdCounter; i++) {\r\n            if (_batches[i].producerId == producerId) {\r\n                count++;\r\n            }\r\n        }\r\n\r\n        Batch[] memory batches = new Batch[](count);\r\n        uint256 index = 0;\r\n        for (uint256 i = 1; i <= _batchIdCounter; i++) {\r\n            if (_batches[i].producerId == producerId) {\r\n                batches[index] = _batches[i];\r\n                index++;\r\n            }\r\n        }\r\n\r\n        return batches;\r\n    }\r\n\r\n    // hm cp nht trng thi l hng\r\nfunction updateBatchStatus(uint256 _batchId, BatchStatus _newStatus) public {\r\n    require(_batches[_batchId].batchId != 0, \"Batch does not exist\");\r\n    // Thm kim tra quyn nu cn\r\n    _batches[_batchId].status = _newStatus;\r\n    emit BatchStatusUpdated(_batchId, _newStatus);\r\n}\r\nfunction getPendingBatchesByProducer(uint256 _producerId) public view returns (Batch[] memory) {\r\n    uint256 pendingCount = 0;\r\n    for (uint256 i = 1; i <= _batchIdCounter; i++) {\r\n        if (_batches[i].producerId == _producerId && _batches[i].status == BatchStatus.PendingApproval) {\r\n            pendingCount++;\r\n        }\r\n    }\r\n    Batch[] memory pendingBatches = new Batch[](pendingCount);\r\n    uint256 index = 0;\r\n    for (uint256 i = 1; i <= _batchIdCounter; i++) {\r\n        if (_batches[i].producerId == _producerId && _batches[i].status == BatchStatus.PendingApproval) {\r\n            pendingBatches[index] = _batches[i];\r\n            index++;\r\n        }\r\n    }\r\n\r\n    return pendingBatches;\r\n}\r\n\r\nfunction getRejectedBatchesByProducer(uint256 _producerId) public view returns (Batch[] memory) {\r\n    uint256 rejectedCount = 0;\r\n    for (uint256 i = 1; i <= _batchIdCounter; i++) {\r\n        if (_batches[i].producerId == _producerId && _batches[i].status == BatchStatus.Rejected) {\r\n            rejectedCount++;\r\n        }\r\n    }\r\n\r\n    Batch[] memory rejectedBatches = new Batch[](rejectedCount);\r\n    uint256 index = 0;\r\n    for (uint256 i = 1; i <= _batchIdCounter; i++) {\r\n        if (_batches[i].producerId == _producerId && _batches[i].status == BatchStatus.Rejected) {\r\n            rejectedBatches[index] = _batches[i];\r\n            index++;\r\n        }\r\n    }\r\n\r\n    return rejectedBatches;\r\n}\r\nfunction getAllPendingBatches() public view returns (Batch[] memory) {\r\n        uint256 pendingCount = 0;\r\n        for (uint256 i = 1; i <= _batchIdCounter; i++) {\r\n            if (_batches[i].status == BatchStatus.PendingApproval) {\r\n                pendingCount++;\r\n            }\r\n        }\r\n\r\n        Batch[] memory pendingBatches = new Batch[](pendingCount);\r\n        uint256 index = 0;\r\n        for (uint256 i = 1; i <= _batchIdCounter; i++) {\r\n            if (_batches[i].status == BatchStatus.PendingApproval) {\r\n                pendingBatches[index] = _batches[i];\r\n                index++;\r\n            }\r\n        }\r\n\r\n        return pendingBatches;\r\n    }\r\n\r\nevent BatchStatusUpdated(uint256 indexed batchId, BatchStatus newStatus);\r\n\r\n// hm ly thng tin l hng\r\nfunction getBatchDetails(uint256 _batchId) public view returns (Batch memory) {\r\n    require(_batches[_batchId].batchId != 0, \"Batch does not exist\");\r\n    return _batches[_batchId];\r\n}\r\n\r\n\r\nfunction getTotalBatches() public view returns (uint256) {\r\n    return _batchIdCounter;\r\n}\r\n\r\nfunction isProducerOfBatch(uint256 _batchId, uint256 _producerId) public view returns (bool) {\r\n    return _batches[_batchId].producerId == _producerId;\r\n}\r\n\r\n// Thm hm ny vo smart contract\r\nfunction getActivityLogs(uint256 _uid) public view returns (ActivityLog[] memory) {\r\n    return _producerActivityLogs[_uid];\r\n}\r\nfunction getActivityLogCount(uint256 _uid) public view returns (uint256) {\r\n    return _producerActivityLogs[_uid].length;\r\n}\r\n\r\nmodifier onlyApprover() {\r\n    // Implement logic to check if msg.sender is an approver\r\n    _;\r\n}\r\n\r\nfunction approveBatch(uint256 _batchId) public onlyApprover {\r\n    require(_batches[_batchId].batchId != 0, \"Batch does not exist\");\r\n    require(_batches[_batchId].status == BatchStatus.PendingApproval, \"Batch is not pending approval\");\r\n\r\n    _batches[_batchId].status = BatchStatus.Approved;\r\n    _approvedBatches[_batchId] = true;\r\n\r\n    emit BatchApproved(_batchId, _batches[_batchId].producerId, _batches[_batchId].sscc);\r\n    emit BatchApprovedForQR(_batchId, _batches[_batchId].producerId, _batches[_batchId].sscc);\r\n    \r\n    // Add system activity log\r\n    uint256[] memory relatedProductIds = new uint256[](1);\r\n    relatedProductIds[0] = _batches[_batchId].productId;\r\n    _addSystemActivityLog(_batches[_batchId].producerId, \"Batch Approved\", \"Batch has been approved by the approver\", relatedProductIds);\r\n}\r\n\r\nfunction rejectBatch(uint256 _batchId) public onlyApprover {\r\n    require(_batches[_batchId].batchId != 0, \"Batch does not exist\");\r\n    require(_batches[_batchId].status == BatchStatus.PendingApproval, \"Batch is not pending approval\");\r\n\r\n    _batches[_batchId].status = BatchStatus.Rejected;\r\n\r\n    emit BatchRejected(_batchId, _batches[_batchId].producerId, _batches[_batchId].sscc);\r\n    \r\n    // Add system activity log\r\n    uint256[] memory relatedProductIds = new uint256[](1);\r\n    relatedProductIds[0] = _batches[_batchId].productId;\r\n    _addSystemActivityLog(_batches[_batchId].producerId, \"Batch Rejected\", \"Batch has been rejected by the approver\", relatedProductIds);\r\n}\r\n\r\nevent BatchRejected(uint256 indexed batchId, uint256 producerId, string sscc);\r\n\r\nfunction getApprovedBatchesByProducer(uint256 _producerId) public view returns (Batch[] memory) {\r\n    uint256 approvedCount = 0;\r\n    for (uint256 i = 1; i <= _batchIdCounter; i++) {\r\n        if (_batches[i].producerId == _producerId && _batches[i].status == BatchStatus.Approved) {\r\n            approvedCount++;\r\n        }\r\n    }\r\n\r\n    Batch[] memory approvedBatches = new Batch[](approvedCount);\r\n    uint256 index = 0;\r\n    for (uint256 i = 1; i <= _batchIdCounter; i++) {\r\n        if (_batches[i].producerId == _producerId && _batches[i].status == BatchStatus.Approved) {\r\n            approvedBatches[index] = _batches[i];\r\n            index++;\r\n        }\r\n    }\r\n\r\n    return approvedBatches;\r\n}\r\n\r\nfunction getBatchBySSCC(string memory _sscc) public view returns (Batch memory) {\r\n    uint256 batchId = _ssccToBatchId[_sscc];\r\n    require(batchId != 0, \"Batch does not exist with this SSCC\");\r\n    return _batches[batchId];\r\n}\r\n\r\nfunction isValidSSCC(string memory _sscc) public view returns (bool) {\r\n    return _ssccToBatchId[_sscc] != 0;\r\n}\r\n\r\nfunction isBatchApproved(uint256 _batchId) public view returns (bool) {\r\n    return _approvedBatches[_batchId];\r\n}\r\n\r\nfunction recordParticipation(uint256 _batchId, uint256 _participantId, string memory _participantType, string memory _action) public {\r\n    require(_batches[_batchId].batchId != 0, \"Batch does not exist\");\r\n    _batchParticipations[_batchId].push(Participation(_participantId, _participantType, block.timestamp, _action));\r\n    \r\n    emit ParticipationRecorded(_batchId, _participantId, _participantType, _action);\r\n}\r\nevent LogParticipantType(uint256 indexed batchId, string participantType);\r\nfunction updateTransportStatus(\r\n    uint256 _batchId, \r\n    uint256 _participantId, \r\n    string memory _action, \r\n    string memory _participantType\r\n) public {\r\n    require(\r\n        keccak256(abi.encodePacked(_participantType)) == keccak256(abi.encodePacked(\"Transporter\")) ||\r\n        keccak256(abi.encodePacked(_participantType)) == keccak256(abi.encodePacked(\"Warehouse\")),\r\n        \"Invalid participant type\"\r\n    );\r\n    \r\n    require(_batches[_batchId].batchId != 0, \"Batch does not exist\");\r\n    require(_batches[_batchId].status == BatchStatus.Approved, \"Batch must be approved\");\r\n\r\n    TransportEvent memory newEvent = TransportEvent({\r\n        participantId: _participantId,\r\n        timestamp: block.timestamp,\r\n        action: _action,\r\n        participantType: _participantType\r\n    });\r\n    \r\n    _batchTransportEvents[_batchId].push(newEvent);\r\n    \r\n    if (keccak256(abi.encodePacked(_action)) == keccak256(abi.encodePacked(\"Bat dau van chuyen\"))) {\r\n        _batches[_batchId].detailedTransportStatus = DetailedTransportStatus.InTransit;\r\n        _batches[_batchId].transportStatus = TransportStatus.InTransit;\r\n        _batches[_batchId].lastTransporterId = _participantId;\r\n    } else if (keccak256(abi.encodePacked(_action)) == keccak256(abi.encodePacked(\"Tam dung van chuyen\"))) {\r\n        _batches[_batchId].detailedTransportStatus = DetailedTransportStatus.Paused;\r\n    } else if (keccak256(abi.encodePacked(_action)) == keccak256(abi.encodePacked(\"Tiep tuc van chuyen\"))) {\r\n        _batches[_batchId].detailedTransportStatus = DetailedTransportStatus.InTransit;\r\n    } else if (keccak256(abi.encodePacked(_action)) == keccak256(abi.encodePacked(\"Hoan thanh van chuyen\"))) {\r\n        _batches[_batchId].detailedTransportStatus = DetailedTransportStatus.Delivered;\r\n        _batches[_batchId].transportStatus = TransportStatus.Delivered;\r\n    }\r\n    \r\n    emit TransportStatusUpdated(_batchId, _batches[_batchId].detailedTransportStatus, _action, _participantId, _participantType);\r\n}\r\nfunction updateTransportStatusBySSCC(\r\n    string memory _sscc, \r\n    uint256 _participantId, \r\n    string memory _action, \r\n    string memory _participantType\r\n) public {\r\n    uint256 batchId = _ssccToBatchId[_sscc];\r\n    require(batchId != 0, \"Batch does not exist with this SSCC\");\r\n    updateTransportStatus(batchId, _participantId, _action, _participantType);\r\n}\r\nfunction getBatchIdBySSCC(string memory _sscc) public view returns (uint256) {\r\n    return _ssccToBatchId[_sscc];\r\n}\r\n\r\nfunction getDetailedTransportStatus(uint256 _batchId) public view returns (DetailedTransportStatus) {\r\n    require(_batches[_batchId].batchId != 0, \"Batch does not exist\");\r\n    return _batches[_batchId].detailedTransportStatus;\r\n}\r\nfunction canStartTransport(uint256 _batchId, uint256 _transporterId) public view returns (bool) {\r\n    return _batches[_batchId].detailedTransportStatus == DetailedTransportStatus.NotStarted ||\r\n           (_batches[_batchId].detailedTransportStatus == DetailedTransportStatus.Delivered && _batches[_batchId].lastTransporterId != _transporterId);\r\n}\r\nfunction getTransportHistoryBySSCC(string memory _sscc) public view returns (TransportEvent[] memory) {\r\n    uint256 batchId = _ssccToBatchId[_sscc];\r\n    require(batchId != 0, \"Batch does not exist with this SSCC\");\r\n    return _batchTransportEvents[batchId];\r\n}\r\n// Thm hm  kim tra trng thi vn chuyn\r\nfunction getBatchTransportStatus(uint256 _batchId) public view returns (TransportStatus) {\r\n    require(_batches[_batchId].batchId != 0, \"Batch does not exist\");\r\n    return _batches[_batchId].transportStatus;\r\n}\r\n\r\n}\r\n",
  "sourcePath": "D:\\projects\\nckh-be\\blockchain\\contracts\\supplychain.sol",
  "compiler": {
    "name": "solc",
    "version": "0.8.20+commit.a1b79de6.Emscripten.clang"
  },
  "schemaVersion": "3.4.16",
  "updatedAt": "2024-09-19T18:52:30.250Z",
  "networkType": "ethereum",
  "devdoc": {
    "kind": "dev",
    "methods": {},
    "version": 1
  },
  "userdoc": {
    "kind": "user",
    "methods": {},
    "version": 1
  }
}