{
  "contractName": "TraceabilityContract",
  "abi": [
    {
      "inputs": [
        {
          "internalType": "address",
          "name": "_activityLogAddress",
          "type": "address"
        }
      ],
      "stateMutability": "nonpayable",
      "type": "constructor"
    },
    {
      "anonymous": false,
      "inputs": [
        {
          "indexed": true,
          "internalType": "uint256",
          "name": "uid",
          "type": "uint256"
        },
        {
          "indexed": false,
          "internalType": "string",
          "name": "activityName",
          "type": "string"
        },
        {
          "indexed": false,
          "internalType": "string",
          "name": "description",
          "type": "string"
        },
        {
          "indexed": false,
          "internalType": "bool",
          "name": "isSystemGenerated",
          "type": "bool"
        },
        {
          "indexed": false,
          "internalType": "string[]",
          "name": "imageUrls",
          "type": "string[]"
        },
        {
          "indexed": false,
          "internalType": "uint256[]",
          "name": "relatedProductIds",
          "type": "uint256[]"
        }
      ],
      "name": "ActivityLogAdded",
      "type": "event"
    },
    {
      "anonymous": false,
      "inputs": [
        {
          "indexed": true,
          "internalType": "uint256",
          "name": "batchId",
          "type": "uint256"
        },
        {
          "indexed": true,
          "internalType": "uint256",
          "name": "producerId",
          "type": "uint256"
        },
        {
          "indexed": false,
          "internalType": "string",
          "name": "sscc",
          "type": "string"
        }
      ],
      "name": "BatchApproved",
      "type": "event"
    },
    {
      "anonymous": false,
      "inputs": [
        {
          "indexed": true,
          "internalType": "uint256",
          "name": "batchId",
          "type": "uint256"
        },
        {
          "indexed": true,
          "internalType": "uint256",
          "name": "producerId",
          "type": "uint256"
        },
        {
          "indexed": false,
          "internalType": "string",
          "name": "sscc",
          "type": "string"
        }
      ],
      "name": "BatchApprovedForQR",
      "type": "event"
    },
    {
      "anonymous": false,
      "inputs": [
        {
          "indexed": true,
          "internalType": "uint256",
          "name": "batchId",
          "type": "uint256"
        },
        {
          "indexed": false,
          "internalType": "string",
          "name": "sscc",
          "type": "string"
        },
        {
          "indexed": false,
          "internalType": "uint256",
          "name": "producerId",
          "type": "uint256"
        }
      ],
      "name": "BatchCreated",
      "type": "event"
    },
    {
      "anonymous": false,
      "inputs": [
        {
          "indexed": true,
          "internalType": "uint256",
          "name": "batchId",
          "type": "uint256"
        },
        {
          "indexed": false,
          "internalType": "uint256",
          "name": "producerId",
          "type": "uint256"
        },
        {
          "indexed": false,
          "internalType": "string",
          "name": "sscc",
          "type": "string"
        }
      ],
      "name": "BatchRejected",
      "type": "event"
    },
    {
      "anonymous": false,
      "inputs": [
        {
          "indexed": true,
          "internalType": "uint256",
          "name": "batchId",
          "type": "uint256"
        },
        {
          "indexed": false,
          "internalType": "enum TraceabilityContract.BatchStatus",
          "name": "newStatus",
          "type": "uint8"
        }
      ],
      "name": "BatchStatusUpdated",
      "type": "event"
    },
    {
      "anonymous": false,
      "inputs": [
        {
          "indexed": true,
          "internalType": "uint256",
          "name": "batchId",
          "type": "uint256"
        },
        {
          "indexed": false,
          "internalType": "string",
          "name": "participantType",
          "type": "string"
        }
      ],
      "name": "LogParticipantType",
      "type": "event"
    },
    {
      "anonymous": false,
      "inputs": [
        {
          "indexed": true,
          "internalType": "uint256",
          "name": "batchId",
          "type": "uint256"
        },
        {
          "indexed": false,
          "internalType": "uint256",
          "name": "participantId",
          "type": "uint256"
        },
        {
          "indexed": false,
          "internalType": "string",
          "name": "participantType",
          "type": "string"
        },
        {
          "indexed": false,
          "internalType": "string",
          "name": "action",
          "type": "string"
        }
      ],
      "name": "ParticipationRecorded",
      "type": "event"
    },
    {
      "anonymous": false,
      "inputs": [
        {
          "indexed": true,
          "internalType": "uint256",
          "name": "batchId",
          "type": "uint256"
        },
        {
          "indexed": false,
          "internalType": "enum TraceabilityContract.DetailedTransportStatus",
          "name": "newStatus",
          "type": "uint8"
        },
        {
          "indexed": false,
          "internalType": "string",
          "name": "action",
          "type": "string"
        },
        {
          "indexed": false,
          "internalType": "uint256",
          "name": "participantId",
          "type": "uint256"
        },
        {
          "indexed": false,
          "internalType": "string",
          "name": "participantType",
          "type": "string"
        }
      ],
      "name": "TransportStatusUpdated",
      "type": "event"
    },
    {
      "anonymous": false,
      "inputs": [
        {
          "indexed": true,
          "internalType": "uint256",
          "name": "batchId",
          "type": "uint256"
        },
        {
          "indexed": true,
          "internalType": "uint256",
          "name": "warehouseId",
          "type": "uint256"
        }
      ],
      "name": "WarehouseConfirmed",
      "type": "event"
    },
    {
      "inputs": [
        {
          "internalType": "string",
          "name": "_name",
          "type": "string"
        },
        {
          "internalType": "uint256",
          "name": "_producerId",
          "type": "uint256"
        },
        {
          "internalType": "string",
          "name": "_quantity",
          "type": "string"
        },
        {
          "internalType": "string[]",
          "name": "_productImageUrls",
          "type": "string[]"
        },
        {
          "internalType": "string",
          "name": "_certificateImageUrl",
          "type": "string"
        },
        {
          "internalType": "string",
          "name": "_farmPlotNumber",
          "type": "string"
        },
        {
          "internalType": "uint256",
          "name": "_productId",
          "type": "uint256"
        },
        {
          "internalType": "uint256",
          "name": "_startDate",
          "type": "uint256"
        },
        {
          "internalType": "uint256",
          "name": "_endDate",
          "type": "uint256"
        }
      ],
      "name": "createBatch",
      "outputs": [
        {
          "internalType": "uint256",
          "name": "",
          "type": "uint256"
        }
      ],
      "stateMutability": "nonpayable",
      "type": "function"
    },
    {
      "inputs": [
        {
          "internalType": "string",
          "name": "sscc",
          "type": "string"
        }
      ],
      "name": "ssccExists",
      "outputs": [
        {
          "internalType": "bool",
          "name": "",
          "type": "bool"
        }
      ],
      "stateMutability": "view",
      "type": "function",
      "constant": true
    },
    {
      "inputs": [
        {
          "internalType": "uint256",
          "name": "producerId",
          "type": "uint256"
        }
      ],
      "name": "getBatchesByProducer",
      "outputs": [
        {
          "components": [
            {
              "internalType": "uint256",
              "name": "batchId",
              "type": "uint256"
            },
            {
              "internalType": "string",
              "name": "name",
              "type": "string"
            },
            {
              "internalType": "string",
              "name": "sscc",
              "type": "string"
            },
            {
              "internalType": "uint256",
              "name": "producerId",
              "type": "uint256"
            },
            {
              "internalType": "string",
              "name": "quantity",
              "type": "string"
            },
            {
              "internalType": "uint256",
              "name": "productionDate",
              "type": "uint256"
            },
            {
              "internalType": "uint256",
              "name": "startDate",
              "type": "uint256"
            },
            {
              "internalType": "uint256",
              "name": "endDate",
              "type": "uint256"
            },
            {
              "internalType": "enum TraceabilityContract.BatchStatus",
              "name": "status",
              "type": "uint8"
            },
            {
              "internalType": "string[]",
              "name": "productImageUrls",
              "type": "string[]"
            },
            {
              "internalType": "string",
              "name": "certificateImageUrl",
              "type": "string"
            },
            {
              "internalType": "string",
              "name": "farmPlotNumber",
              "type": "string"
            },
            {
              "internalType": "bytes32",
              "name": "dataHash",
              "type": "bytes32"
            },
            {
              "internalType": "uint256",
              "name": "productId",
              "type": "uint256"
            },
            {
              "internalType": "enum TraceabilityContract.TransportStatus",
              "name": "transportStatus",
              "type": "uint8"
            },
            {
              "internalType": "enum TraceabilityContract.DetailedTransportStatus",
              "name": "detailedTransportStatus",
              "type": "uint8"
            },
            {
              "internalType": "uint256",
              "name": "lastTransporterId",
              "type": "uint256"
            },
            {
              "internalType": "bool",
              "name": "warehouseConfirmed",
              "type": "bool"
            }
          ],
          "internalType": "struct TraceabilityContract.Batch[]",
          "name": "",
          "type": "tuple[]"
        }
      ],
      "stateMutability": "view",
      "type": "function",
      "constant": true
    },
    {
      "inputs": [
        {
          "internalType": "uint256",
          "name": "_producerId",
          "type": "uint256"
        }
      ],
      "name": "getPendingBatchesByProducer",
      "outputs": [
        {
          "components": [
            {
              "internalType": "uint256",
              "name": "batchId",
              "type": "uint256"
            },
            {
              "internalType": "string",
              "name": "name",
              "type": "string"
            },
            {
              "internalType": "string",
              "name": "sscc",
              "type": "string"
            },
            {
              "internalType": "uint256",
              "name": "producerId",
              "type": "uint256"
            },
            {
              "internalType": "string",
              "name": "quantity",
              "type": "string"
            },
            {
              "internalType": "uint256",
              "name": "productionDate",
              "type": "uint256"
            },
            {
              "internalType": "uint256",
              "name": "startDate",
              "type": "uint256"
            },
            {
              "internalType": "uint256",
              "name": "endDate",
              "type": "uint256"
            },
            {
              "internalType": "enum TraceabilityContract.BatchStatus",
              "name": "status",
              "type": "uint8"
            },
            {
              "internalType": "string[]",
              "name": "productImageUrls",
              "type": "string[]"
            },
            {
              "internalType": "string",
              "name": "certificateImageUrl",
              "type": "string"
            },
            {
              "internalType": "string",
              "name": "farmPlotNumber",
              "type": "string"
            },
            {
              "internalType": "bytes32",
              "name": "dataHash",
              "type": "bytes32"
            },
            {
              "internalType": "uint256",
              "name": "productId",
              "type": "uint256"
            },
            {
              "internalType": "enum TraceabilityContract.TransportStatus",
              "name": "transportStatus",
              "type": "uint8"
            },
            {
              "internalType": "enum TraceabilityContract.DetailedTransportStatus",
              "name": "detailedTransportStatus",
              "type": "uint8"
            },
            {
              "internalType": "uint256",
              "name": "lastTransporterId",
              "type": "uint256"
            },
            {
              "internalType": "bool",
              "name": "warehouseConfirmed",
              "type": "bool"
            }
          ],
          "internalType": "struct TraceabilityContract.Batch[]",
          "name": "",
          "type": "tuple[]"
        }
      ],
      "stateMutability": "view",
      "type": "function",
      "constant": true
    },
    {
      "inputs": [
        {
          "internalType": "uint256",
          "name": "_producerId",
          "type": "uint256"
        }
      ],
      "name": "getRejectedBatchesByProducer",
      "outputs": [
        {
          "components": [
            {
              "internalType": "uint256",
              "name": "batchId",
              "type": "uint256"
            },
            {
              "internalType": "string",
              "name": "name",
              "type": "string"
            },
            {
              "internalType": "string",
              "name": "sscc",
              "type": "string"
            },
            {
              "internalType": "uint256",
              "name": "producerId",
              "type": "uint256"
            },
            {
              "internalType": "string",
              "name": "quantity",
              "type": "string"
            },
            {
              "internalType": "uint256",
              "name": "productionDate",
              "type": "uint256"
            },
            {
              "internalType": "uint256",
              "name": "startDate",
              "type": "uint256"
            },
            {
              "internalType": "uint256",
              "name": "endDate",
              "type": "uint256"
            },
            {
              "internalType": "enum TraceabilityContract.BatchStatus",
              "name": "status",
              "type": "uint8"
            },
            {
              "internalType": "string[]",
              "name": "productImageUrls",
              "type": "string[]"
            },
            {
              "internalType": "string",
              "name": "certificateImageUrl",
              "type": "string"
            },
            {
              "internalType": "string",
              "name": "farmPlotNumber",
              "type": "string"
            },
            {
              "internalType": "bytes32",
              "name": "dataHash",
              "type": "bytes32"
            },
            {
              "internalType": "uint256",
              "name": "productId",
              "type": "uint256"
            },
            {
              "internalType": "enum TraceabilityContract.TransportStatus",
              "name": "transportStatus",
              "type": "uint8"
            },
            {
              "internalType": "enum TraceabilityContract.DetailedTransportStatus",
              "name": "detailedTransportStatus",
              "type": "uint8"
            },
            {
              "internalType": "uint256",
              "name": "lastTransporterId",
              "type": "uint256"
            },
            {
              "internalType": "bool",
              "name": "warehouseConfirmed",
              "type": "bool"
            }
          ],
          "internalType": "struct TraceabilityContract.Batch[]",
          "name": "",
          "type": "tuple[]"
        }
      ],
      "stateMutability": "view",
      "type": "function",
      "constant": true
    },
    {
      "inputs": [],
      "name": "getAllPendingBatches",
      "outputs": [
        {
          "components": [
            {
              "internalType": "uint256",
              "name": "batchId",
              "type": "uint256"
            },
            {
              "internalType": "string",
              "name": "name",
              "type": "string"
            },
            {
              "internalType": "string",
              "name": "sscc",
              "type": "string"
            },
            {
              "internalType": "uint256",
              "name": "producerId",
              "type": "uint256"
            },
            {
              "internalType": "string",
              "name": "quantity",
              "type": "string"
            },
            {
              "internalType": "uint256",
              "name": "productionDate",
              "type": "uint256"
            },
            {
              "internalType": "uint256",
              "name": "startDate",
              "type": "uint256"
            },
            {
              "internalType": "uint256",
              "name": "endDate",
              "type": "uint256"
            },
            {
              "internalType": "enum TraceabilityContract.BatchStatus",
              "name": "status",
              "type": "uint8"
            },
            {
              "internalType": "string[]",
              "name": "productImageUrls",
              "type": "string[]"
            },
            {
              "internalType": "string",
              "name": "certificateImageUrl",
              "type": "string"
            },
            {
              "internalType": "string",
              "name": "farmPlotNumber",
              "type": "string"
            },
            {
              "internalType": "bytes32",
              "name": "dataHash",
              "type": "bytes32"
            },
            {
              "internalType": "uint256",
              "name": "productId",
              "type": "uint256"
            },
            {
              "internalType": "enum TraceabilityContract.TransportStatus",
              "name": "transportStatus",
              "type": "uint8"
            },
            {
              "internalType": "enum TraceabilityContract.DetailedTransportStatus",
              "name": "detailedTransportStatus",
              "type": "uint8"
            },
            {
              "internalType": "uint256",
              "name": "lastTransporterId",
              "type": "uint256"
            },
            {
              "internalType": "bool",
              "name": "warehouseConfirmed",
              "type": "bool"
            }
          ],
          "internalType": "struct TraceabilityContract.Batch[]",
          "name": "",
          "type": "tuple[]"
        }
      ],
      "stateMutability": "view",
      "type": "function",
      "constant": true
    },
    {
      "inputs": [
        {
          "internalType": "uint256",
          "name": "_batchId",
          "type": "uint256"
        }
      ],
      "name": "getBatchDetails",
      "outputs": [
        {
          "components": [
            {
              "internalType": "uint256",
              "name": "batchId",
              "type": "uint256"
            },
            {
              "internalType": "string",
              "name": "name",
              "type": "string"
            },
            {
              "internalType": "string",
              "name": "sscc",
              "type": "string"
            },
            {
              "internalType": "uint256",
              "name": "producerId",
              "type": "uint256"
            },
            {
              "internalType": "string",
              "name": "quantity",
              "type": "string"
            },
            {
              "internalType": "uint256",
              "name": "productionDate",
              "type": "uint256"
            },
            {
              "internalType": "uint256",
              "name": "startDate",
              "type": "uint256"
            },
            {
              "internalType": "uint256",
              "name": "endDate",
              "type": "uint256"
            },
            {
              "internalType": "enum TraceabilityContract.BatchStatus",
              "name": "status",
              "type": "uint8"
            },
            {
              "internalType": "string[]",
              "name": "productImageUrls",
              "type": "string[]"
            },
            {
              "internalType": "string",
              "name": "certificateImageUrl",
              "type": "string"
            },
            {
              "internalType": "string",
              "name": "farmPlotNumber",
              "type": "string"
            },
            {
              "internalType": "bytes32",
              "name": "dataHash",
              "type": "bytes32"
            },
            {
              "internalType": "uint256",
              "name": "productId",
              "type": "uint256"
            },
            {
              "internalType": "enum TraceabilityContract.TransportStatus",
              "name": "transportStatus",
              "type": "uint8"
            },
            {
              "internalType": "enum TraceabilityContract.DetailedTransportStatus",
              "name": "detailedTransportStatus",
              "type": "uint8"
            },
            {
              "internalType": "uint256",
              "name": "lastTransporterId",
              "type": "uint256"
            },
            {
              "internalType": "bool",
              "name": "warehouseConfirmed",
              "type": "bool"
            }
          ],
          "internalType": "struct TraceabilityContract.Batch",
          "name": "",
          "type": "tuple"
        }
      ],
      "stateMutability": "view",
      "type": "function",
      "constant": true
    },
    {
      "inputs": [],
      "name": "getTotalBatches",
      "outputs": [
        {
          "internalType": "uint256",
          "name": "",
          "type": "uint256"
        }
      ],
      "stateMutability": "view",
      "type": "function",
      "constant": true
    },
    {
      "inputs": [
        {
          "internalType": "uint256",
          "name": "_batchId",
          "type": "uint256"
        },
        {
          "internalType": "uint256",
          "name": "_producerId",
          "type": "uint256"
        }
      ],
      "name": "isProducerOfBatch",
      "outputs": [
        {
          "internalType": "bool",
          "name": "",
          "type": "bool"
        }
      ],
      "stateMutability": "view",
      "type": "function",
      "constant": true
    },
    {
      "inputs": [
        {
          "internalType": "uint256",
          "name": "_batchId",
          "type": "uint256"
        },
        {
          "internalType": "uint256",
          "name": "_approverId",
          "type": "uint256"
        }
      ],
      "name": "approveBatch",
      "outputs": [],
      "stateMutability": "nonpayable",
      "type": "function"
    },
    {
      "inputs": [
        {
          "internalType": "uint256",
          "name": "_batchId",
          "type": "uint256"
        },
        {
          "internalType": "uint256",
          "name": "_approverId",
          "type": "uint256"
        }
      ],
      "name": "rejectBatch",
      "outputs": [],
      "stateMutability": "nonpayable",
      "type": "function"
    },
    {
      "inputs": [
        {
          "internalType": "uint256",
          "name": "_batchId",
          "type": "uint256"
        }
      ],
      "name": "getActivityLogs",
      "outputs": [
        {
          "components": [
            {
              "internalType": "uint256",
              "name": "batchId",
              "type": "uint256"
            },
            {
              "internalType": "uint256",
              "name": "participantId",
              "type": "uint256"
            },
            {
              "internalType": "uint256",
              "name": "timestamp",
              "type": "uint256"
            },
            {
              "internalType": "string",
              "name": "activityName",
              "type": "string"
            },
            {
              "internalType": "string",
              "name": "description",
              "type": "string"
            },
            {
              "internalType": "bool",
              "name": "isSystemActivity",
              "type": "bool"
            },
            {
              "internalType": "string[]",
              "name": "imageUrls",
              "type": "string[]"
            },
            {
              "internalType": "uint256[]",
              "name": "relatedProductIds",
              "type": "uint256[]"
            }
          ],
          "internalType": "struct ActivityLog.ActivityLogEntry[]",
          "name": "",
          "type": "tuple[]"
        }
      ],
      "stateMutability": "view",
      "type": "function",
      "constant": true
    },
    {
      "inputs": [
        {
          "internalType": "uint256",
          "name": "_producerId",
          "type": "uint256"
        }
      ],
      "name": "getApprovedBatchesByProducer",
      "outputs": [
        {
          "components": [
            {
              "internalType": "uint256",
              "name": "batchId",
              "type": "uint256"
            },
            {
              "internalType": "string",
              "name": "name",
              "type": "string"
            },
            {
              "internalType": "string",
              "name": "sscc",
              "type": "string"
            },
            {
              "internalType": "uint256",
              "name": "producerId",
              "type": "uint256"
            },
            {
              "internalType": "string",
              "name": "quantity",
              "type": "string"
            },
            {
              "internalType": "uint256",
              "name": "productionDate",
              "type": "uint256"
            },
            {
              "internalType": "uint256",
              "name": "startDate",
              "type": "uint256"
            },
            {
              "internalType": "uint256",
              "name": "endDate",
              "type": "uint256"
            },
            {
              "internalType": "enum TraceabilityContract.BatchStatus",
              "name": "status",
              "type": "uint8"
            },
            {
              "internalType": "string[]",
              "name": "productImageUrls",
              "type": "string[]"
            },
            {
              "internalType": "string",
              "name": "certificateImageUrl",
              "type": "string"
            },
            {
              "internalType": "string",
              "name": "farmPlotNumber",
              "type": "string"
            },
            {
              "internalType": "bytes32",
              "name": "dataHash",
              "type": "bytes32"
            },
            {
              "internalType": "uint256",
              "name": "productId",
              "type": "uint256"
            },
            {
              "internalType": "enum TraceabilityContract.TransportStatus",
              "name": "transportStatus",
              "type": "uint8"
            },
            {
              "internalType": "enum TraceabilityContract.DetailedTransportStatus",
              "name": "detailedTransportStatus",
              "type": "uint8"
            },
            {
              "internalType": "uint256",
              "name": "lastTransporterId",
              "type": "uint256"
            },
            {
              "internalType": "bool",
              "name": "warehouseConfirmed",
              "type": "bool"
            }
          ],
          "internalType": "struct TraceabilityContract.Batch[]",
          "name": "",
          "type": "tuple[]"
        }
      ],
      "stateMutability": "view",
      "type": "function",
      "constant": true
    },
    {
      "inputs": [
        {
          "internalType": "string",
          "name": "_sscc",
          "type": "string"
        }
      ],
      "name": "getBatchBySSCC",
      "outputs": [
        {
          "components": [
            {
              "internalType": "uint256",
              "name": "batchId",
              "type": "uint256"
            },
            {
              "internalType": "string",
              "name": "name",
              "type": "string"
            },
            {
              "internalType": "string",
              "name": "sscc",
              "type": "string"
            },
            {
              "internalType": "uint256",
              "name": "producerId",
              "type": "uint256"
            },
            {
              "internalType": "string",
              "name": "quantity",
              "type": "string"
            },
            {
              "internalType": "uint256",
              "name": "productionDate",
              "type": "uint256"
            },
            {
              "internalType": "uint256",
              "name": "startDate",
              "type": "uint256"
            },
            {
              "internalType": "uint256",
              "name": "endDate",
              "type": "uint256"
            },
            {
              "internalType": "enum TraceabilityContract.BatchStatus",
              "name": "status",
              "type": "uint8"
            },
            {
              "internalType": "string[]",
              "name": "productImageUrls",
              "type": "string[]"
            },
            {
              "internalType": "string",
              "name": "certificateImageUrl",
              "type": "string"
            },
            {
              "internalType": "string",
              "name": "farmPlotNumber",
              "type": "string"
            },
            {
              "internalType": "bytes32",
              "name": "dataHash",
              "type": "bytes32"
            },
            {
              "internalType": "uint256",
              "name": "productId",
              "type": "uint256"
            },
            {
              "internalType": "enum TraceabilityContract.TransportStatus",
              "name": "transportStatus",
              "type": "uint8"
            },
            {
              "internalType": "enum TraceabilityContract.DetailedTransportStatus",
              "name": "detailedTransportStatus",
              "type": "uint8"
            },
            {
              "internalType": "uint256",
              "name": "lastTransporterId",
              "type": "uint256"
            },
            {
              "internalType": "bool",
              "name": "warehouseConfirmed",
              "type": "bool"
            }
          ],
          "internalType": "struct TraceabilityContract.Batch",
          "name": "",
          "type": "tuple"
        }
      ],
      "stateMutability": "view",
      "type": "function",
      "constant": true
    },
    {
      "inputs": [
        {
          "internalType": "string",
          "name": "_sscc",
          "type": "string"
        }
      ],
      "name": "isValidSSCC",
      "outputs": [
        {
          "internalType": "bool",
          "name": "",
          "type": "bool"
        }
      ],
      "stateMutability": "view",
      "type": "function",
      "constant": true
    },
    {
      "inputs": [
        {
          "internalType": "uint256",
          "name": "_batchId",
          "type": "uint256"
        }
      ],
      "name": "isBatchApproved",
      "outputs": [
        {
          "internalType": "bool",
          "name": "",
          "type": "bool"
        }
      ],
      "stateMutability": "view",
      "type": "function",
      "constant": true
    },
    {
      "inputs": [
        {
          "internalType": "uint256",
          "name": "_batchId",
          "type": "uint256"
        },
        {
          "internalType": "uint256",
          "name": "_participantId",
          "type": "uint256"
        },
        {
          "internalType": "string",
          "name": "_participantType",
          "type": "string"
        },
        {
          "internalType": "string",
          "name": "_action",
          "type": "string"
        }
      ],
      "name": "recordParticipation",
      "outputs": [],
      "stateMutability": "nonpayable",
      "type": "function"
    },
    {
      "inputs": [
        {
          "internalType": "uint256",
          "name": "_batchId",
          "type": "uint256"
        },
        {
          "internalType": "uint256",
          "name": "_participantId",
          "type": "uint256"
        },
        {
          "internalType": "string",
          "name": "_action",
          "type": "string"
        },
        {
          "internalType": "string",
          "name": "_participantType",
          "type": "string"
        }
      ],
      "name": "updateTransportStatus",
      "outputs": [],
      "stateMutability": "nonpayable",
      "type": "function"
    },
    {
      "inputs": [
        {
          "internalType": "uint256",
          "name": "_batchId",
          "type": "uint256"
        },
        {
          "internalType": "uint256",
          "name": "_warehouseId",
          "type": "uint256"
        }
      ],
      "name": "warehouseConfirmation",
      "outputs": [],
      "stateMutability": "nonpayable",
      "type": "function"
    },
    {
      "inputs": [
        {
          "internalType": "uint256",
          "name": "_batchId",
          "type": "uint256"
        },
        {
          "internalType": "uint256",
          "name": "_warehouseId",
          "type": "uint256"
        }
      ],
      "name": "isWarehouseConfirmed",
      "outputs": [
        {
          "internalType": "bool",
          "name": "",
          "type": "bool"
        }
      ],
      "stateMutability": "view",
      "type": "function",
      "constant": true
    },
    {
      "inputs": [
        {
          "internalType": "uint256",
          "name": "_batchId",
          "type": "uint256"
        }
      ],
      "name": "getConfirmedWarehouses",
      "outputs": [
        {
          "internalType": "uint256[]",
          "name": "",
          "type": "uint256[]"
        }
      ],
      "stateMutability": "view",
      "type": "function",
      "constant": true
    },
    {
      "inputs": [
        {
          "internalType": "uint256",
          "name": "_batchId",
          "type": "uint256"
        }
      ],
      "name": "getDetailedTransportStatus",
      "outputs": [
        {
          "internalType": "enum TraceabilityContract.DetailedTransportStatus",
          "name": "",
          "type": "uint8"
        }
      ],
      "stateMutability": "view",
      "type": "function",
      "constant": true
    },
    {
      "inputs": [
        {
          "internalType": "uint256",
          "name": "_batchId",
          "type": "uint256"
        },
        {
          "internalType": "uint256",
          "name": "_transporterId",
          "type": "uint256"
        }
      ],
      "name": "canStartTransport",
      "outputs": [
        {
          "internalType": "bool",
          "name": "",
          "type": "bool"
        }
      ],
      "stateMutability": "view",
      "type": "function",
      "constant": true
    },
    {
      "inputs": [
        {
          "internalType": "string",
          "name": "_sscc",
          "type": "string"
        }
      ],
      "name": "getTransportHistoryBySSCC",
      "outputs": [
        {
          "components": [
            {
              "internalType": "uint256",
              "name": "participantId",
              "type": "uint256"
            },
            {
              "internalType": "uint256",
              "name": "timestamp",
              "type": "uint256"
            },
            {
              "internalType": "string",
              "name": "action",
              "type": "string"
            },
            {
              "internalType": "string",
              "name": "participantType",
              "type": "string"
            }
          ],
          "internalType": "struct TraceabilityContract.TransportEvent[]",
          "name": "",
          "type": "tuple[]"
        }
      ],
      "stateMutability": "view",
      "type": "function",
      "constant": true
    },
    {
      "inputs": [
        {
          "internalType": "uint256",
          "name": "_batchId",
          "type": "uint256"
        }
      ],
      "name": "getBatchTransportStatus",
      "outputs": [
        {
          "internalType": "enum TraceabilityContract.TransportStatus",
          "name": "",
          "type": "uint8"
        }
      ],
      "stateMutability": "view",
      "type": "function",
      "constant": true
    },
    {
      "inputs": [
        {
          "internalType": "string",
          "name": "_sscc",
          "type": "string"
        }
      ],
      "name": "getSystemActivityLogsBySSCC",
      "outputs": [
        {
          "components": [
            {
              "internalType": "uint256",
              "name": "batchId",
              "type": "uint256"
            },
            {
              "internalType": "uint256",
              "name": "participantId",
              "type": "uint256"
            },
            {
              "internalType": "uint256",
              "name": "timestamp",
              "type": "uint256"
            },
            {
              "internalType": "string",
              "name": "activityName",
              "type": "string"
            },
            {
              "internalType": "string",
              "name": "description",
              "type": "string"
            },
            {
              "internalType": "bool",
              "name": "isSystemActivity",
              "type": "bool"
            },
            {
              "internalType": "string[]",
              "name": "imageUrls",
              "type": "string[]"
            },
            {
              "internalType": "uint256[]",
              "name": "relatedProductIds",
              "type": "uint256[]"
            }
          ],
          "internalType": "struct ActivityLog.ActivityLogEntry[]",
          "name": "",
          "type": "tuple[]"
        }
      ],
      "stateMutability": "view",
      "type": "function",
      "constant": true
    },
    {
      "inputs": [
        {
          "internalType": "string",
          "name": "_sscc",
          "type": "string"
        }
      ],
      "name": "getBatchIdBySSCC",
      "outputs": [
        {
          "internalType": "uint256",
          "name": "",
          "type": "uint256"
        }
      ],
      "stateMutability": "view",
      "type": "function",
      "constant": true
    },
    {
      "inputs": [
        {
          "internalType": "uint256",
          "name": "_producerId",
          "type": "uint256"
        }
      ],
      "name": "getProducerActivityLogsByProducerId",
      "outputs": [
        {
          "components": [
            {
              "internalType": "uint256",
              "name": "batchId",
              "type": "uint256"
            },
            {
              "internalType": "uint256",
              "name": "participantId",
              "type": "uint256"
            },
            {
              "internalType": "uint256",
              "name": "timestamp",
              "type": "uint256"
            },
            {
              "internalType": "string",
              "name": "activityName",
              "type": "string"
            },
            {
              "internalType": "string",
              "name": "description",
              "type": "string"
            },
            {
              "internalType": "bool",
              "name": "isSystemActivity",
              "type": "bool"
            },
            {
              "internalType": "string[]",
              "name": "imageUrls",
              "type": "string[]"
            },
            {
              "internalType": "uint256[]",
              "name": "relatedProductIds",
              "type": "uint256[]"
            }
          ],
          "internalType": "struct ActivityLog.ActivityLogEntry[]",
          "name": "",
          "type": "tuple[]"
        }
      ],
      "stateMutability": "view",
      "type": "function",
      "constant": true
    }
  ],
  "bytecode": "0x60806040523480156200001157600080fd5b50604051620060cb380380620060cb8339810160408190526200003491620000b5565b6001600160a01b0381166200008f5760405162461bcd60e51b815260206004820152601b60248201527f496e76616c69642041637469766974794c6f6720616464726573730000000000604482015260640160405180910390fd5b600080546001600160a01b0319166001600160a01b0392909216919091179055620000e7565b600060208284031215620000c857600080fd5b81516001600160a01b0381168114620000e057600080fd5b9392505050565b615fd480620000f76000396000f3fe608060405234801561001057600080fd5b50600436106101545760003560e01c806304008078146101595780630d82dcf4146101815780630e6e369c146101a457806319d6ed3c146101c45780631bb93d1e146101e557806327e4477f146102055780632db53c9d1461021a57806336c701e11461023a5780633904c26c1461024d5780633a3889f51461026d57806347e2f86314610280578063510664ed146102935780635aa825aa146102a65780636b0ba8da146102ae57806380e32d45146102c157806381f7d4e0146102d457806397ae6a0e146103025780639d47dcc014610322578063a7732c9614610342578063a793478614610362578063b50f876214610375578063b82adf3b14610388578063d040e18c14610159578063d043b8431461039b578063d9860bfc146103ae578063e114238e146103c1578063e561dddc146103d4578063f9b8da0e146103dc575b600080fd5b61016c610167366004614d1c565b610401565b60405190151581526020015b60405180910390f35b61016c61018f366004614d58565b60009081526006602052604090205460ff1690565b6101b76101b2366004614d58565b61042b565b6040516101789190614e54565b6101d76101d2366004614d1c565b6104a4565b604051908152602001610178565b6101f86101f3366004614d1c565b6104cc565b6040516101789190614f47565b610218610213366004614fd5565b6106b9565b005b61022d610228366004614d58565b610854565b6040516101789190615182565b6101d7610248366004615291565b610e97565b61026061025b366004614d58565b610f12565b6040516101789190615389565b6101b761027b366004614d58565b611019565b61022d61028e366004614d58565b61104b565b6102186102a136600461539c565b611680565b61022d611bc8565b6102186102bc366004614fd5565b6121cc565b61022d6102cf366004614d58565b61255c565b61016c6102e2366004614fd5565b600091825260086020908152604080842092845291905290205460ff1690565b610315610310366004614d58565b612b33565b6040516101789190615412565b610335610330366004614d58565b612b7e565b6040516101789190615420565b610355610350366004614d58565b613089565b6040516101789190615433565b61016c610370366004614fd5565b6130cf565b6101b7610383366004614d1c565b613156565b61021861039636600461539c565b6131f3565b61022d6103a9366004614d58565b6132e0565b6103356103bc366004614d1c565b613919565b6102186103cf366004614fd5565b613e3b565b6001546101d7565b61016c6103ea366004614fd5565b600091825260046020526040909120600301541490565b60006005826040516104139190615446565b90815260405190819003602001902054151592915050565b60005460405163039b8da760e21b8152600481018390526060916001600160a01b031690630e6e369c906024015b600060405180830381865afa158015610476573d6000803e3d6000fd5b505050506040513d6000823e601f3d908101601f1916820160405261049e9190810190615596565b92915050565b60006005826040516104b69190615446565b9081526020016040518091039020549050919050565b606060006005836040516104e09190615446565b90815260200160405180910390205490508060000361051a5760405162461bcd60e51b81526004016105119061571b565b60405180910390fd5b600081815260036020908152604080832080548251818502810185019093528083529193909284015b828210156106ad5783829060005260206000209060040201604051806080016040529081600082015481526020016001820154815260200160028201805461058a9061575e565b80601f01602080910402602001604051908101604052809291908181526020018280546105b69061575e565b80156106035780601f106105d857610100808354040283529160200191610603565b820191906000526020600020905b8154815290600101906020018083116105e657829003601f168201915b5050505050815260200160038201805461061c9061575e565b80601f01602080910402602001604051908101604052809291908181526020018280546106489061575e565b80156106955780601f1061066a57610100808354040283529160200191610695565b820191906000526020600020905b81548152906001019060200180831161067857829003601f168201915b50505050508152505081526020019060010190610543565b50505050915050919050565b60008281526004602052604081205490036106e65760405162461bcd60e51b815260040161051190615798565b60008281526004602052604081206008015460ff16600281111561070c5761070c614ff7565b146107295760405162461bcd60e51b8152600401610511906157c6565b6000828152600460205260409081902060088101805460ff191660029081179091556003820154925185937ffd30c1d70626cdbca41a738198079b1d57c2a7d36d52b79ae4b4bcc980506f769361078493919291019061587a565b60405180910390a2604080516001808252818301909252600091602080830190803683375050506000848152600460205260408120600d01548251929350918391906107d2576107d2615893565b60200260200101818152505061084f83836040518060400160405280600e81526020016d10985d18da0814995a9958dd195960921b8152506004600088815260200190815260200160002060010161082987614025565b60405160200161083a92919061591c565b60405160208183030381529060405285614150565b505050565b6060600060015b60015481116108ce57600081815260046020526040902060030154841480156108a95750600260008281526004602052604090206008015460ff1660028111156108a7576108a7614ff7565b145b156108bc57816108b881615990565b9250505b806108c681615990565b91505061085b565b506000816001600160401b038111156108e9576108e9614c30565b60405190808252806020026020018201604052801561092257816020015b61090f614abb565b8152602001906001900390816109075790505b509050600060015b6001548111610e8d57600081815260046020526040902060030154861480156109785750600260008281526004602052604090206008015460ff16600281111561097657610976614ff7565b145b15610e7b576004600082815260200190815260200160002060405180610240016040529081600082015481526020016001820180546109b69061575e565b80601f01602080910402602001604051908101604052809291908181526020018280546109e29061575e565b8015610a2f5780601f10610a0457610100808354040283529160200191610a2f565b820191906000526020600020905b815481529060010190602001808311610a1257829003601f168201915b50505050508152602001600282018054610a489061575e565b80601f0160208091040260200160405190810160405280929190818152602001828054610a749061575e565b8015610ac15780601f10610a9657610100808354040283529160200191610ac1565b820191906000526020600020905b815481529060010190602001808311610aa457829003601f168201915b5050505050815260200160038201548152602001600482018054610ae49061575e565b80601f0160208091040260200160405190810160405280929190818152602001828054610b109061575e565b8015610b5d5780601f10610b3257610100808354040283529160200191610b5d565b820191906000526020600020905b815481529060010190602001808311610b4057829003601f168201915b5050509183525050600582015460208201526006820154604082015260078201546060820152600882015460809091019060ff166002811115610ba257610ba2614ff7565b6002811115610bb357610bb3614ff7565b815260200160098201805480602002602001604051908101604052809291908181526020016000905b82821015610c88578382906000526020600020018054610bfb9061575e565b80601f0160208091040260200160405190810160405280929190818152602001828054610c279061575e565b8015610c745780601f10610c4957610100808354040283529160200191610c74565b820191906000526020600020905b815481529060010190602001808311610c5757829003601f168201915b505050505081526020019060010190610bdc565b505050508152602001600a82018054610ca09061575e565b80601f0160208091040260200160405190810160405280929190818152602001828054610ccc9061575e565b8015610d195780601f10610cee57610100808354040283529160200191610d19565b820191906000526020600020905b815481529060010190602001808311610cfc57829003601f168201915b50505050508152602001600b82018054610d329061575e565b80601f0160208091040260200160405190810160405280929190818152602001828054610d5e9061575e565b8015610dab5780601f10610d8057610100808354040283529160200191610dab565b820191906000526020600020905b815481529060010190602001808311610d8e57829003601f168201915b5050509183525050600c8201546020820152600d8201546040820152600e82015460609091019060ff166002811115610de657610de6614ff7565b6002811115610df757610df7614ff7565b8152602001600e820160019054906101000a900460ff166003811115610e1f57610e1f614ff7565b6003811115610e3057610e30614ff7565b8152600f820154602082015260109091015460ff1615156040909101528351849084908110610e6157610e61615893565b60200260200101819052508180610e7790615990565b9250505b80610e8581615990565b91505061092a565b5090949350505050565b600080610ea38a6141f6565b90506000610ef56040518061014001604052808e81526020018481526020018d81526020018c81526020018b81526020018a8152602001898152602001888152602001878152602001868152506142c9565b9050610f03818c8e89614932565b9b9a5050505050505050505050565b6060600060015b6002548111610f6457600084815260086020908152604080832084845290915290205460ff1615610f525781610f4e81615990565b9250505b80610f5c81615990565b915050610f19565b506000816001600160401b03811115610f7f57610f7f614c30565b604051908082528060200260200182016040528015610fa8578160200160208202803683370190505b509050600060015b6002548111610e8d57600086815260086020908152604080832084845290915290205460ff16156110075780838381518110610fee57610fee615893565b60209081029190910101528161100381615990565b9250505b8061101181615990565b915050610fb0565b600054604051633dfc25fd60e21b8152600481018390526060916001600160a01b03169063f7f097f490602401610459565b6060600060015b60015481116110c3576000818152600460205260409020600301548414801561109e575060008181526004602052604081206008015460ff16600281111561109c5761109c614ff7565b145b156110b157816110ad81615990565b9250505b806110bb81615990565b915050611052565b506000816001600160401b038111156110de576110de614c30565b60405190808252806020026020018201604052801561111757816020015b611104614abb565b8152602001906001900390816110fc5790505b509050600060015b6001548111610e8d576000818152600460205260409020600301548614801561116b575060008181526004602052604081206008015460ff16600281111561116957611169614ff7565b145b1561166e576004600082815260200190815260200160002060405180610240016040529081600082015481526020016001820180546111a99061575e565b80601f01602080910402602001604051908101604052809291908181526020018280546111d59061575e565b80156112225780601f106111f757610100808354040283529160200191611222565b820191906000526020600020905b81548152906001019060200180831161120557829003601f168201915b5050505050815260200160028201805461123b9061575e565b80601f01602080910402602001604051908101604052809291908181526020018280546112679061575e565b80156112b45780601f10611289576101008083540402835291602001916112b4565b820191906000526020600020905b81548152906001019060200180831161129757829003601f168201915b50505050508152602001600382015481526020016004820180546112d79061575e565b80601f01602080910402602001604051908101604052809291908181526020018280546113039061575e565b80156113505780601f1061132557610100808354040283529160200191611350565b820191906000526020600020905b81548152906001019060200180831161133357829003601f168201915b5050509183525050600582015460208201526006820154604082015260078201546060820152600882015460809091019060ff16600281111561139557611395614ff7565b60028111156113a6576113a6614ff7565b815260200160098201805480602002602001604051908101604052809291908181526020016000905b8282101561147b5783829060005260206000200180546113ee9061575e565b80601f016020809104026020016040519081016040528092919081815260200182805461141a9061575e565b80156114675780601f1061143c57610100808354040283529160200191611467565b820191906000526020600020905b81548152906001019060200180831161144a57829003601f168201915b5050505050815260200190600101906113cf565b505050508152602001600a820180546114939061575e565b80601f01602080910402602001604051908101604052809291908181526020018280546114bf9061575e565b801561150c5780601f106114e15761010080835404028352916020019161150c565b820191906000526020600020905b8154815290600101906020018083116114ef57829003601f168201915b50505050508152602001600b820180546115259061575e565b80601f01602080910402602001604051908101604052809291908181526020018280546115519061575e565b801561159e5780601f106115735761010080835404028352916020019161159e565b820191906000526020600020905b81548152906001019060200180831161158157829003601f168201915b5050509183525050600c8201546020820152600d8201546040820152600e82015460609091019060ff1660028111156115d9576115d9614ff7565b60028111156115ea576115ea614ff7565b8152602001600e820160019054906101000a900460ff16600381111561161257611612614ff7565b600381111561162357611623614ff7565b8152600f820154602082015260109091015460ff161515604090910152835184908490811061165457611654615893565b6020026020010181905250818061166a90615990565b9250505b8061167881615990565b91505061111f565b6040516a2a3930b739b837b93a32b960a91b6020820152602b0160405160208183030381529060405280519060200120816040516020016116c19190615446565b60405160208183030381529060405280519060200120148061173557506040516857617265686f75736560b81b6020820152602901604051602081830303815290604052805190602001208160405160200161171d9190615446565b60405160208183030381529060405280519060200120145b61177c5760405162461bcd60e51b8152602060048201526018602482015277496e76616c6964207061727469636970616e74207479706560401b6044820152606401610511565b60008481526004602052604081205490036117a95760405162461bcd60e51b815260040161051190615798565b600160008581526004602052604090206008015460ff1660028111156117d1576117d1614ff7565b146118175760405162461bcd60e51b815260206004820152601660248201527510985d18da081b5d5cdd08189948185c1c1c9bdd995960521b6044820152606401610511565b60408051608081018252848152426020808301918252828401868152606084018690526000898152600383529485208054600181810183559187529290952084516004909302019182559151938101939093555190918291600282019061187e90826159ef565b506060820151600382019061189390826159ef565b5050604051712130ba103230ba903b30b71031b43abcb2b760711b6020820152603201905060405160208183030381529060405280519060200120836040516020016118df9190615446565b6040516020818303038152906040528051906020012003611924576000858152600460205260409020600e8101805461ffff1916610101179055600f01849055611ac1565b604051722a30b690323ab733903b30b71031b43abcb2b760691b6020820152603301604051602081830303815290604052805190602001208360405160200161196d9190615446565b60405160208183030381529060405280519060200120036119b3576000858152600460205260409020600e0180546002919061ff001916610100835b0217905550611ac1565b604051722a34b2b8103a3ab1903b30b71031b43abcb2b760691b602082015260330160405160208183030381529060405280519060200120836040516020016119fc9190615446565b6040516020818303038152906040528051906020012003611a3c576000858152600460205260409020600e0180546001919061ff001916610100836119a9565b604051742437b0b7103a3430b734103b30b71031b43abcb2b760591b60208201526035016040516020818303038152906040528051906020012083604051602001611a879190615446565b6040516020818303038152906040528051906020012003611ac1576000858152600460205260409020600e01805461ffff19166103021790555b60008581526004602052604090819020600e0154905186917f946c8fa0a82d640c200413cf1c62f9401d34b0f1435a263a281ff0fd09030ae891611b1391610100900460ff1690879089908890615aae565b60405180910390a2604080516001808252818301909252600091602080830190803683375050506000878152600460205260408120600d0154825192935091839190611b6157611b61615893565b602002602001018181525050611bc0868660405180604001604052806018815260200177151c985b9cdc1bdc9d0814dd185d1d5cc8155c19185d195960421b8152508787611bae8b614025565b60405160200161083a93929190615af1565b505050505050565b6060600060015b6001548111611c235760008181526004602052604081206008015460ff166002811115611bfe57611bfe614ff7565b03611c115781611c0d81615990565b9250505b80611c1b81615990565b915050611bcf565b506000816001600160401b03811115611c3e57611c3e614c30565b604051908082528060200260200182016040528015611c7757816020015b611c64614abb565b815260200190600190039081611c5c5790505b509050600060015b60015481116121c35760008181526004602052604081206008015460ff166002811115611cae57611cae614ff7565b036121b157600460008281526020019081526020016000206040518061024001604052908160008201548152602001600182018054611cec9061575e565b80601f0160208091040260200160405190810160405280929190818152602001828054611d189061575e565b8015611d655780601f10611d3a57610100808354040283529160200191611d65565b820191906000526020600020905b815481529060010190602001808311611d4857829003601f168201915b50505050508152602001600282018054611d7e9061575e565b80601f0160208091040260200160405190810160405280929190818152602001828054611daa9061575e565b8015611df75780601f10611dcc57610100808354040283529160200191611df7565b820191906000526020600020905b815481529060010190602001808311611dda57829003601f168201915b5050505050815260200160038201548152602001600482018054611e1a9061575e565b80601f0160208091040260200160405190810160405280929190818152602001828054611e469061575e565b8015611e935780601f10611e6857610100808354040283529160200191611e93565b820191906000526020600020905b815481529060010190602001808311611e7657829003601f168201915b5050509183525050600582015460208201526006820154604082015260078201546060820152600882015460809091019060ff166002811115611ed857611ed8614ff7565b6002811115611ee957611ee9614ff7565b815260200160098201805480602002602001604051908101604052809291908181526020016000905b82821015611fbe578382906000526020600020018054611f319061575e565b80601f0160208091040260200160405190810160405280929190818152602001828054611f5d9061575e565b8015611faa5780601f10611f7f57610100808354040283529160200191611faa565b820191906000526020600020905b815481529060010190602001808311611f8d57829003601f168201915b505050505081526020019060010190611f12565b505050508152602001600a82018054611fd69061575e565b80601f01602080910402602001604051908101604052809291908181526020018280546120029061575e565b801561204f5780601f106120245761010080835404028352916020019161204f565b820191906000526020600020905b81548152906001019060200180831161203257829003601f168201915b50505050508152602001600b820180546120689061575e565b80601f01602080910402602001604051908101604052809291908181526020018280546120949061575e565b80156120e15780601f106120b6576101008083540402835291602001916120e1565b820191906000526020600020905b8154815290600101906020018083116120c457829003601f168201915b5050509183525050600c8201546020820152600d8201546040820152600e82015460609091019060ff16600281111561211c5761211c614ff7565b600281111561212d5761212d614ff7565b8152602001600e820160019054906101000a900460ff16600381111561215557612155614ff7565b600381111561216657612166614ff7565b8152600f820154602082015260109091015460ff161515604090910152835184908490811061219757612197615893565b602002602001018190525081806121ad90615990565b9250505b806121bb81615990565b915050611c7f565b50909392505050565b60008281526004602052604081205490036121f95760405162461bcd60e51b815260040161051190615798565b60026000838152600460205260409020600e015460ff16600281111561222157612221614ff7565b1461228c5760405162461bcd60e51b815260206004820152603560248201527f4261746368206d7573742062652064656c697665726564206265666f7265207760448201527430b932b437bab9b29031b7b73334b936b0ba34b7b760591b6064820152608401610511565b60036000838152600460205260409020600e0154610100900460ff1660038111156122b9576122b9614ff7565b146123105760405162461bcd60e51b815260206004820152602160248201527f4261746368206d75737420626520696e2044656c6976657265642073746174756044820152607360f81b6064820152608401610511565b600082815260086020908152604080832084845290915290205460ff16156123925760405162461bcd60e51b815260206004820152602f60248201527f546869732077617265686f7573652068617320616c726561647920636f6e666960448201526e0e4dacac840e8d0d2e640c4c2e8c6d608b1b6064820152608401610511565b60008281526008602090815260408083208484528252808320805460ff19166001908117909155815160808101835285815282518084018452600981526857617265686f75736560b81b81860152818501908152428285015283518085018552601e81527f436f6e6669726d656420726563656970742061742077617265686f75736500008187015260608301528786526007855292852080548084018255908652939094208451600490940201928355905183929182019061245590826159ef565b50604082015160028201556060820151600382019061247490826159ef565b505060405183915084907f5a0ca583abbe4762e00286f277fb259ed4a722726e02cd87aa38d3b2eeead4f590600090a3604080516001808252818301909252600091602080830190803683375050506000858152600460205260408120600d01548251929350918391906124ea576124ea615893565b6020026020010181815250506125568484604051806040016040528060168152602001752bb0b932b437bab9b29021b7b73334b936b0ba34b7b760511b81525061253387614025565b600089815260046020908152604091829020915161083a93926001019101615b85565b50505050565b6060600060015b60015481116125a557600081815260046020526040902060030154849003612593578161258f81615990565b9250505b8061259d81615990565b915050612563565b506000816001600160401b038111156125c0576125c0614c30565b6040519080825280602002602001820160405280156125f957816020015b6125e6614abb565b8152602001906001900390816125de5790505b509050600060015b6001548111610e8d57600081815260046020526040902060030154869003612b215760046000828152602001908152602001600020604051806102400160405290816000820154815260200160018201805461265c9061575e565b80601f01602080910402602001604051908101604052809291908181526020018280546126889061575e565b80156126d55780601f106126aa576101008083540402835291602001916126d5565b820191906000526020600020905b8154815290600101906020018083116126b857829003601f168201915b505050505081526020016002820180546126ee9061575e565b80601f016020809104026020016040519081016040528092919081815260200182805461271a9061575e565b80156127675780601f1061273c57610100808354040283529160200191612767565b820191906000526020600020905b81548152906001019060200180831161274a57829003601f168201915b505050505081526020016003820154815260200160048201805461278a9061575e565b80601f01602080910402602001604051908101604052809291908181526020018280546127b69061575e565b80156128035780601f106127d857610100808354040283529160200191612803565b820191906000526020600020905b8154815290600101906020018083116127e657829003601f168201915b5050509183525050600582015460208201526006820154604082015260078201546060820152600882015460809091019060ff16600281111561284857612848614ff7565b600281111561285957612859614ff7565b815260200160098201805480602002602001604051908101604052809291908181526020016000905b8282101561292e5783829060005260206000200180546128a19061575e565b80601f01602080910402602001604051908101604052809291908181526020018280546128cd9061575e565b801561291a5780601f106128ef5761010080835404028352916020019161291a565b820191906000526020600020905b8154815290600101906020018083116128fd57829003601f168201915b505050505081526020019060010190612882565b505050508152602001600a820180546129469061575e565b80601f01602080910402602001604051908101604052809291908181526020018280546129729061575e565b80156129bf5780601f10612994576101008083540402835291602001916129bf565b820191906000526020600020905b8154815290600101906020018083116129a257829003601f168201915b50505050508152602001600b820180546129d89061575e565b80601f0160208091040260200160405190810160405280929190818152602001828054612a049061575e565b8015612a515780601f10612a2657610100808354040283529160200191612a51565b820191906000526020600020905b815481529060010190602001808311612a3457829003601f168201915b5050509183525050600c8201546020820152600d8201546040820152600e82015460609091019060ff166002811115612a8c57612a8c614ff7565b6002811115612a9d57612a9d614ff7565b8152602001600e820160019054906101000a900460ff166003811115612ac557612ac5614ff7565b6003811115612ad657612ad6614ff7565b8152600f820154602082015260109091015460ff1615156040909101528351849084908110612b0757612b07615893565b60200260200101819052508180612b1d90615990565b9250505b80612b2b81615990565b915050612601565b6000818152600460205260408120548103612b605760405162461bcd60e51b815260040161051190615798565b506000908152600460205260409020600e0154610100900460ff1690565b612b86614abb565b6000828152600460205260408120549003612bb35760405162461bcd60e51b815260040161051190615798565b600460008381526020019081526020016000206040518061024001604052908160008201548152602001600182018054612bec9061575e565b80601f0160208091040260200160405190810160405280929190818152602001828054612c189061575e565b8015612c655780601f10612c3a57610100808354040283529160200191612c65565b820191906000526020600020905b815481529060010190602001808311612c4857829003601f168201915b50505050508152602001600282018054612c7e9061575e565b80601f0160208091040260200160405190810160405280929190818152602001828054612caa9061575e565b8015612cf75780601f10612ccc57610100808354040283529160200191612cf7565b820191906000526020600020905b815481529060010190602001808311612cda57829003601f168201915b5050505050815260200160038201548152602001600482018054612d1a9061575e565b80601f0160208091040260200160405190810160405280929190818152602001828054612d469061575e565b8015612d935780601f10612d6857610100808354040283529160200191612d93565b820191906000526020600020905b815481529060010190602001808311612d7657829003601f168201915b5050509183525050600582015460208201526006820154604082015260078201546060820152600882015460809091019060ff166002811115612dd857612dd8614ff7565b6002811115612de957612de9614ff7565b815260200160098201805480602002602001604051908101604052809291908181526020016000905b82821015612ebe578382906000526020600020018054612e319061575e565b80601f0160208091040260200160405190810160405280929190818152602001828054612e5d9061575e565b8015612eaa5780601f10612e7f57610100808354040283529160200191612eaa565b820191906000526020600020905b815481529060010190602001808311612e8d57829003601f168201915b505050505081526020019060010190612e12565b505050508152602001600a82018054612ed69061575e565b80601f0160208091040260200160405190810160405280929190818152602001828054612f029061575e565b8015612f4f5780601f10612f2457610100808354040283529160200191612f4f565b820191906000526020600020905b815481529060010190602001808311612f3257829003601f168201915b50505050508152602001600b82018054612f689061575e565b80601f0160208091040260200160405190810160405280929190818152602001828054612f949061575e565b8015612fe15780601f10612fb657610100808354040283529160200191612fe1565b820191906000526020600020905b815481529060010190602001808311612fc457829003601f168201915b5050509183525050600c8201546020820152600d8201546040820152600e82015460609091019060ff16600281111561301c5761301c614ff7565b600281111561302d5761302d614ff7565b8152602001600e820160019054906101000a900460ff16600381111561305557613055614ff7565b600381111561306657613066614ff7565b8152600f820154602082015260109091015460ff16151560409091015292915050565b60008181526004602052604081205481036130b65760405162461bcd60e51b815260040161051190615798565b506000908152600460205260409020600e015460ff1690565b6000806000848152600460205260409020600e0154610100900460ff1660038111156130fd576130fd614ff7565b148061314f575060036000848152600460205260409020600e0154610100900460ff16600381111561313157613131614ff7565b14801561314f57506000838152600460205260409020600f01548214155b9392505050565b606060008260405160200161316b9190615446565b60408051808303601f19018152908290528051602090910120600054633abb5afb60e01b8352600483018290529092506001600160a01b031690633abb5afb90602401600060405180830381865afa1580156131cb573d6000803e3d6000fd5b505050506040513d6000823e601f3d908101601f1916820160405261314f9190810190615596565b60008481526004602052604081205490036132205760405162461bcd60e51b815260040161051190615798565b6000848152600760209081526040808320815160808101835287815280840187815242938201939093526060810186905281546001818101845592865293909420845160049094020192835590519082019061327c90826159ef565b50604082015160028201556060820151600382019061329b90826159ef565b505050837fe5fd3732b00b2878e55e64cdde6c59b6566f044952fe6b2f36658364da9b561c8484846040516132d293929190615c04565b60405180910390a250505050565b6060600060015b600154811161335a57600081815260046020526040902060030154841480156133355750600160008281526004602052604090206008015460ff16600281111561333357613333614ff7565b145b15613348578161334481615990565b9250505b8061335281615990565b9150506132e7565b506000816001600160401b0381111561337557613375614c30565b6040519080825280602002602001820160405280156133ae57816020015b61339b614abb565b8152602001906001900390816133935790505b509050600060015b6001548111610e8d57600081815260046020526040902060030154861480156134045750600160008281526004602052604090206008015460ff16600281111561340257613402614ff7565b145b15613907576004600082815260200190815260200160002060405180610240016040529081600082015481526020016001820180546134429061575e565b80601f016020809104026020016040519081016040528092919081815260200182805461346e9061575e565b80156134bb5780601f10613490576101008083540402835291602001916134bb565b820191906000526020600020905b81548152906001019060200180831161349e57829003601f168201915b505050505081526020016002820180546134d49061575e565b80601f01602080910402602001604051908101604052809291908181526020018280546135009061575e565b801561354d5780601f106135225761010080835404028352916020019161354d565b820191906000526020600020905b81548152906001019060200180831161353057829003601f168201915b50505050508152602001600382015481526020016004820180546135709061575e565b80601f016020809104026020016040519081016040528092919081815260200182805461359c9061575e565b80156135e95780601f106135be576101008083540402835291602001916135e9565b820191906000526020600020905b8154815290600101906020018083116135cc57829003601f168201915b5050509183525050600582015460208201526006820154604082015260078201546060820152600882015460809091019060ff16600281111561362e5761362e614ff7565b600281111561363f5761363f614ff7565b815260200160098201805480602002602001604051908101604052809291908181526020016000905b828210156137145783829060005260206000200180546136879061575e565b80601f01602080910402602001604051908101604052809291908181526020018280546136b39061575e565b80156137005780601f106136d557610100808354040283529160200191613700565b820191906000526020600020905b8154815290600101906020018083116136e357829003601f168201915b505050505081526020019060010190613668565b505050508152602001600a8201805461372c9061575e565b80601f01602080910402602001604051908101604052809291908181526020018280546137589061575e565b80156137a55780601f1061377a576101008083540402835291602001916137a5565b820191906000526020600020905b81548152906001019060200180831161378857829003601f168201915b50505050508152602001600b820180546137be9061575e565b80601f01602080910402602001604051908101604052809291908181526020018280546137ea9061575e565b80156138375780601f1061380c57610100808354040283529160200191613837565b820191906000526020600020905b81548152906001019060200180831161381a57829003601f168201915b5050509183525050600c8201546020820152600d8201546040820152600e82015460609091019060ff16600281111561387257613872614ff7565b600281111561388357613883614ff7565b8152602001600e820160019054906101000a900460ff1660038111156138ab576138ab614ff7565b60038111156138bc576138bc614ff7565b8152600f820154602082015260109091015460ff16151560409091015283518490849081106138ed576138ed615893565b6020026020010181905250818061390390615990565b9250505b8061391181615990565b9150506133b6565b613921614abb565b60006005836040516139339190615446565b9081526020016040518091039020549050806000036139645760405162461bcd60e51b81526004016105119061571b565b60046000828152602001908152602001600020604051806102400160405290816000820154815260200160018201805461399d9061575e565b80601f01602080910402602001604051908101604052809291908181526020018280546139c99061575e565b8015613a165780601f106139eb57610100808354040283529160200191613a16565b820191906000526020600020905b8154815290600101906020018083116139f957829003601f168201915b50505050508152602001600282018054613a2f9061575e565b80601f0160208091040260200160405190810160405280929190818152602001828054613a5b9061575e565b8015613aa85780601f10613a7d57610100808354040283529160200191613aa8565b820191906000526020600020905b815481529060010190602001808311613a8b57829003601f168201915b5050505050815260200160038201548152602001600482018054613acb9061575e565b80601f0160208091040260200160405190810160405280929190818152602001828054613af79061575e565b8015613b445780601f10613b1957610100808354040283529160200191613b44565b820191906000526020600020905b815481529060010190602001808311613b2757829003601f168201915b5050509183525050600582015460208201526006820154604082015260078201546060820152600882015460809091019060ff166002811115613b8957613b89614ff7565b6002811115613b9a57613b9a614ff7565b815260200160098201805480602002602001604051908101604052809291908181526020016000905b82821015613c6f578382906000526020600020018054613be29061575e565b80601f0160208091040260200160405190810160405280929190818152602001828054613c0e9061575e565b8015613c5b5780601f10613c3057610100808354040283529160200191613c5b565b820191906000526020600020905b815481529060010190602001808311613c3e57829003601f168201915b505050505081526020019060010190613bc3565b505050508152602001600a82018054613c879061575e565b80601f0160208091040260200160405190810160405280929190818152602001828054613cb39061575e565b8015613d005780601f10613cd557610100808354040283529160200191613d00565b820191906000526020600020905b815481529060010190602001808311613ce357829003601f168201915b50505050508152602001600b82018054613d199061575e565b80601f0160208091040260200160405190810160405280929190818152602001828054613d459061575e565b8015613d925780601f10613d6757610100808354040283529160200191613d92565b820191906000526020600020905b815481529060010190602001808311613d7557829003601f168201915b5050509183525050600c8201546020820152600d8201546040820152600e82015460609091019060ff166002811115613dcd57613dcd614ff7565b6002811115613dde57613dde614ff7565b8152602001600e820160019054906101000a900460ff166003811115613e0657613e06614ff7565b6003811115613e1757613e17614ff7565b8152600f820154602082015260109091015460ff1615156040909101529392505050565b6000828152600460205260408120549003613e685760405162461bcd60e51b815260040161051190615798565b60008281526004602052604081206008015460ff166002811115613e8e57613e8e614ff7565b14613eab5760405162461bcd60e51b8152600401610511906157c6565b6000828152600460208181526040808420600881018054600160ff199182168117909255600685529583902080549096161790945591905260038201549051909184917f1a621270a25ae67b5e557b98be27914cd1de793b7ca49110be85cb5aaa169c9b91613f1f91600290910190615c39565b60405180910390a3600082815260046020526040908190206003810154915184917f309958f3629dbb8b1c3fb39cc2ffd4759c619a8c6c7927159d9e608c99ae463291613f6f9160020190615c39565b60405180910390a3604080516001808252818301909252600091602080830190803683375050506000848152600460205260408120600d0154825192935091839190613fbd57613fbd615893565b60200260200101818152505061084f83836040518060400160405280600e81526020016d10985d18da08105c1c1c9bdd995960921b8152506004600088815260200190815260200160002060010161401487614025565b60405160200161083a929190615c4c565b60608160000361404c5750506040805180820190915260018152600360fc1b602082015290565b8160005b8115614076578061406081615990565b915061406f9050600a83615cb4565b9150614050565b6000816001600160401b0381111561409057614090614c30565b6040519080825280601f01601f1916602001820160405280156140ba576020820181803683370190505b509050815b8515614147576140d0600182615cc8565b905060006140df600a88615cb4565b6140ea90600a615cdb565b6140f49088615cc8565b6140ff906030615cf2565b905060008160f81b90508084848151811061411c5761411c615893565b60200101906001600160f81b031916908160001a90535061413e600a89615cb4565b975050506140bf565b50949350505050565b6000805460408051838152602081019091526001600160a01b0390911691638f9eb92e918891889188918891600191614199565b60608152602001906001900390816141845790505b50886040518863ffffffff1660e01b81526004016141bd9796959493929190615d0b565b600060405180830381600087803b1580156141d757600080fd5b505af11580156141eb573d6000803e3d6000fd5b505050505050505050565b604080518082019091526002815261030360f41b6020820152606090600061421d84614025565b604080514260208083019190915281830188905282518083038401815260609092019092528051910120909150600061425582614025565b9050600084848360405160200161426e93929190615dbc565b6040516020818303038152906040529050600061428a826149cf565b905060008261429b8360ff16614025565b6040516020016142ac929190615dff565b60408051601f198184030181529190529998505050505050505050565b6000600582602001516040516142df9190615446565b9081526020016040518091039020546000146143335760405162461bcd60e51b81526020600482015260136024820152725353434320616c72656164792065786973747360681b6044820152606401610511565b6000826060015151116143855760405162461bcd60e51b815260206004820152601a6024820152795175616e74697479206d757374206e6f7420626520656d70747960301b6044820152606401610511565b6000826080015151116143ed5760405162461bcd60e51b815260206004820152602a60248201527f4174206c65617374206f6e652070726f6475637420696d6167652055524c20696044820152691cc81c995c5d5a5c995960b21b6064820152608401610511565b60008260a00151511161444c5760405162461bcd60e51b815260206004820152602160248201527f436572746966696361746520696d6167652055524c20697320726571756972656044820152601960fa1b6064820152608401610511565b60008260c0015151116144a05760405162461bcd60e51b815260206004820152601c60248201527b11985c9b481c1b1bdd081b9d5b58995c881a5cc81c995c5d5a5c995960221b6044820152606401610511565b60008260e00151116144ef5760405162461bcd60e51b8152602060048201526018602482015277141c9bd91d58dd081251081b5d5cdd081899481d985b1a5960421b6044820152606401610511565b60008261010001511161453d5760405162461bcd60e51b815260206004820152601660248201527514dd185c9d0819185d19481a5cc81c995c5d5a5c995960521b6044820152606401610511565b6000826101200151116145895760405162461bcd60e51b8152602060048201526014602482015273115b990819185d19481a5cc81c995c5d5a5c995960621b6044820152606401610511565b816101200151826101000151106145ed5760405162461bcd60e51b815260206004820152602260248201527f53746172742064617465206d757374206265206265666f726520656e64206461604482015261746560f01b6064820152608401610511565b81515161463b5760405162461bcd60e51b815260206004820152601c60248201527b4261746368206e616d65206d757374206e6f7420626520656d70747960201b6044820152606401610511565b6001805490600061464b83615990565b91905055506000600154905060004290506000614685856020015186604001518760600151858960c001518a60e001518b60000151614a79565b905060006040518061024001604052808581526020018760000151815260200187602001518152602001876040015181526020018760600151815260200184815260200187610100015181526020018761012001518152602001600060028111156146f2576146f2614ff7565b8152608080890151602083015260a0808a0151604084015260c0808b0151606085015291830186905260e08a0151908301520160008152602001600081526000602080830182905260409283018290528782526004815291902082518155908201519192508291600182019061476890826159ef565b506040820151600282019061477d90826159ef565b50606082015160038201556080820151600482019061479c90826159ef565b5060a0820151600582015560c0820151600682015560e0820151600782015561010082015160088201805460ff191660018360028111156147df576147df614ff7565b02179055506101208201518051614800916009840191602090910190614b6b565b50610140820151600a82019061481690826159ef565b50610160820151600b82019061482c90826159ef565b50610180820151600c8201556101a0820151600d8201556101c0820151600e8201805460ff1916600183600281111561486757614867614ff7565b02179055506101e0820151600e8201805461ff00191661010083600381111561489257614892614ff7565b0217905550610200820151600f820155610220909101516010909101805460ff1916911515919091179055602086015160405185916005916148d49190615446565b908152602001604051809103902081905550837f58c168780de5fc719a1e7a85c7eca394e664c0e74b7c9ebc621f0b093112d04b87602001518860400151604051614920929190615e2e565b60405180910390a25091949350505050565b60408051600180825281830190925260009160208083019080368337019050509050818160008151811061496857614968615893565b60200260200101818152505060008361498086614025565b604051602001614991929190615e50565b60408051601f19818403018152828201909152600d82526c10985d18da0810dc99585d1959609a1b60208301529150611bc090879087908486614150565b60008181805b8251811015614a4c57600060308483815181106149f4576149f4615893565b0160200151614a06919060f81c615ec1565b9050614a13600283615eda565b15614a1e5780614a29565b614a29816003615eee565b614a369060ff1684615f11565b9250508080614a4490615990565b9150506149d5565b506000600a614a5b8184615eda565b614a6690600a615cc8565b614a709190615eda565b95945050505050565b600087878787878787604051602001614a989796959493929190615f24565b604051602081830303815290604052805190602001209050979650505050505050565b604051806102400160405280600081526020016060815260200160608152602001600081526020016060815260200160008152602001600081526020016000815260200160006002811115614b1257614b12614ff7565b8152602001606081526020016060815260200160608152602001600080191681526020016000815260200160006002811115614b5057614b50614ff7565b81526020016000815260006020820181905260409091015290565b828054828255906000526020600020908101928215614bb1579160200282015b82811115614bb15782518290614ba190826159ef565b5091602001919060010190614b8b565b50614bbd929150614bc1565b5090565b80821115614bbd576000614bd58282614bde565b50600101614bc1565b508054614bea9061575e565b6000825580601f10614bfa575050565b601f016020900490600052602060002090810190614c189190614c1b565b50565b5b80821115614bbd5760008155600101614c1c565b634e487b7160e01b600052604160045260246000fd5b60405161010081016001600160401b0381118282101715614c6957614c69614c30565b60405290565b604051601f8201601f191681016001600160401b0381118282101715614c9757614c97614c30565b604052919050565b60006001600160401b03821115614cb857614cb8614c30565b50601f01601f191660200190565b600082601f830112614cd757600080fd5b8135614cea614ce582614c9f565b614c6f565b818152846020838601011115614cff57600080fd5b816020850160208301376000918101602001919091529392505050565b600060208284031215614d2e57600080fd5b81356001600160401b03811115614d4457600080fd5b614d5084828501614cc6565b949350505050565b600060208284031215614d6a57600080fd5b5035919050565b60005b83811015614d8c578181015183820152602001614d74565b50506000910152565b60008151808452614dad816020860160208601614d71565b601f01601f19169290920160200192915050565b600082825180855260208086019550808260051b84010181860160005b84811015614e0c57601f19868403018952614dfa838351614d95565b98840198925090830190600101614dde565b5090979650505050505050565b600081518084526020808501945080840160005b83811015614e4957815187529582019590820190600101614e2d565b509495945050505050565b60006020808301818452808551808352604092508286019150828160051b87010184880160005b83811015614f3957603f19898403018552815161010081518552888201518986015287820151888601526060808301518282880152614ebc83880182614d95565b9250505060808083015186830382880152614ed78382614d95565b9250505060a080830151614eee8288018215159052565b505060c08083015186830382880152614f078382614dc1565b9250505060e08083015192508582038187015250614f258183614e19565b968901969450505090860190600101614e7b565b509098975050505050505050565b60006020808301818452808551808352604092508286019150828160051b87010184880160005b83811015614f3957603f1989840301855281516080815185528882015189860152878201518189870152614fa482870182614d95565b91505060608083015192508582038187015250614fc18183614d95565b968901969450505090860190600101614f6e565b60008060408385031215614fe857600080fd5b50508035926020909101359150565b634e487b7160e01b600052602160045260246000fd5b60038110614c1857614c18614ff7565b6150268161500d565b9052565b6004811061502657615026614ff7565b600061024082518452602083015181602086015261505a82860182614d95565b915050604083015184820360408601526150748282614d95565b91505060608301516060850152608083015184820360808601526150988282614d95565b91505060a083015160a085015260c083015160c085015260e083015160e0850152610100808401516150cc8287018261501d565b505061012080840151858303828701526150e68382614dc1565b9250505061014080840151858303828701526151028382614d95565b92505050610160808401518583038287015261511e8382614d95565b925050506101808084015181860152506101a08084015181860152506101c08084015161514d8287018261501d565b50506101e0808401516151628287018261502a565b505061020083810151908501526102208084015180151582870152610e8d565b6000602080830181845280855180835260408601915060408160051b870101925083870160005b828110156151d757603f198886030184526151c585835161503a565b945092850192908501906001016151a9565b5092979650505050505050565b60006001600160401b038211156151fd576151fd614c30565b5060051b60200190565b600082601f83011261521857600080fd5b81356020615228614ce5836151e4565b82815260059290921b8401810191818101908684111561524757600080fd5b8286015b848110156152865780356001600160401b0381111561526a5760008081fd5b6152788986838b0101614cc6565b84525091830191830161524b565b509695505050505050565b60008060008060008060008060006101208a8c0312156152b057600080fd5b89356001600160401b03808211156152c757600080fd5b6152d38d838e01614cc6565b9a5060208c0135995060408c01359150808211156152f057600080fd5b6152fc8d838e01614cc6565b985060608c013591508082111561531257600080fd5b61531e8d838e01615207565b975060808c013591508082111561533457600080fd5b6153408d838e01614cc6565b965060a08c013591508082111561535657600080fd5b506153638c828d01614cc6565b94505060c08a0135925060e08a013591506101008a013590509295985092959850929598565b60208152600061314f6020830184614e19565b600080600080608085870312156153b257600080fd5b843593506020850135925060408501356001600160401b03808211156153d757600080fd5b6153e388838901614cc6565b935060608701359150808211156153f957600080fd5b5061540687828801614cc6565b91505092959194509250565b6020810161049e828461502a565b60208152600061314f602083018461503a565b602081016154408361500d565b91905290565b60008251615458818460208701614d71565b9190910192915050565b600082601f83011261547357600080fd5b8151615481614ce582614c9f565b81815284602083860101111561549657600080fd5b614d50826020830160208701614d71565b805180151581146154b757600080fd5b919050565b600082601f8301126154cd57600080fd5b815160206154dd614ce5836151e4565b82815260059290921b840181019181810190868411156154fc57600080fd5b8286015b848110156152865780516001600160401b0381111561551f5760008081fd5b61552d8986838b0101615462565b845250918301918301615500565b600082601f83011261554c57600080fd5b8151602061555c614ce5836151e4565b82815260059290921b8401810191818101908684111561557b57600080fd5b8286015b84811015615286578051835291830191830161557f565b600060208083850312156155a957600080fd5b82516001600160401b03808211156155c057600080fd5b818501915085601f8301126155d457600080fd5b81516155e2614ce5826151e4565b81815260059190911b8301840190848101908883111561560157600080fd5b8585015b8381101561570e5780518581111561561c57600080fd5b8601610100818c03601f190181131561563457600080fd5b61563c614c46565b89830151815260408301518a8201526060830151604082015260808301518881111561566757600080fd5b6156758e8c83870101615462565b60608301525060a08301518881111561568d57600080fd5b61569b8e8c83870101615462565b6080830152506156ad60c084016154a7565b60a082015260e080840151898111156156c65760008081fd5b6156d48f8d838801016154bc565b60c0840152509183015191888311156156ed5760008081fd5b6156fb8e8c8587010161553b565b9082015285525050918601918601615605565b5098975050505050505050565b60208082526023908201527f426174636820646f6573206e6f7420657869737420776974682074686973205360408201526253434360e81b606082015260800190565b600181811c9082168061577257607f821691505b60208210810361579257634e487b7160e01b600052602260045260246000fd5b50919050565b60208082526014908201527310985d18da08191bd95cc81b9bdd08195e1a5cdd60621b604082015260600190565b6020808252601d908201527f4261746368206973206e6f742070656e64696e6720617070726f76616c000000604082015260600190565b6000815461580a8161575e565b80855260206001838116801561582757600181146158415761586f565b60ff1985168884015283151560051b88018301955061586f565b866000528260002060005b858110156158675781548a820186015290830190840161584c565b890184019650505b505050505092915050565b828152604060208201526000614d5060408301846157fd565b634e487b7160e01b600052603260045260246000fd5b600081546158b68161575e565b600182811680156158ce57600181146158e357615912565b60ff1984168752821515830287019450615912565b8560005260208060002060005b858110156159095781548a8201529084019082016158f0565b50505082870194505b5050505092915050565b664261746368202760c81b8152600061593860078301856158a9565b7f2720686173206265656e2072656a656374656420627920617070726f766572208152835161596e816020840160208801614d71565b01602001949350505050565b634e487b7160e01b600052601160045260246000fd5b6000600182016159a2576159a261597a565b5060010190565b601f82111561084f57600081815260208120601f850160051c810160208610156159d05750805b601f850160051c820191505b81811015611bc0578281556001016159dc565b81516001600160401b03811115615a0857615a08614c30565b615a1c81615a16845461575e565b846159a9565b602080601f831160018114615a515760008415615a395750858301515b600019600386901b1c1916600185901b178555611bc0565b600085815260208120601f198616915b82811015615a8057888601518255948401946001909101908401615a61565b5085821015615a9e5787850151600019600388901b60f8161c191681555b5050505050600190811b01905550565b615ab8818661502a565b608060208201526000615ace6080830186614d95565b8460408401528281036060840152615ae68185614d95565b979650505050505050565b7f5472616e73706f727420737461747573207570646174656420746f2027000000815260008451615b2981601d850160208901614d71565b6401390313c960dd1b601d918401918201528451615b4e816022840160208901614d71565b680103bb4ba341024a2160bd1b602292909101918201528351615b7881602b840160208801614d71565b01602b0195945050505050565b7102bb0b932b437bab9b2903bb4ba341024a2160751b815260008351615bb2816012850160208801614d71565b80830190507f2068617320636f6e6669726d65642072656365697074206f66206261746368206012820152602760f81b806032830152615bf560338301866158a9565b90815260010195945050505050565b838152606060208201526000615c1d6060830185614d95565b8281036040840152615c2f8185614d95565b9695505050505050565b60208152600061314f60208301846157fd565b664261746368202760c81b81526000615c6860078301856158a9565b7f2720686173206265656e20617070726f76656420627920617070726f766572208152835161596e816020840160208801614d71565b634e487b7160e01b600052601260045260246000fd5b600082615cc357615cc3615c9e565b500490565b8181038181111561049e5761049e61597a565b808202811582820484141761049e5761049e61597a565b60ff818116838216019081111561049e5761049e61597a565b87815260006020888184015260e06040840152615d2b60e0840189614d95565b8381036060850152615d3d8189614d95565b9050861515608085015283810360a08501528086518083528383019150838160051b84010184890160005b83811015615d9657601f19868403018552615d84838351614d95565b94870194925090860190600101615d68565b505086810360c0880152615daa8189614e19565b9e9d5050505050505050505050505050565b60008451615dce818460208901614d71565b845190830190615de2818360208901614d71565b8451910190615df5818360208801614d71565b0195945050505050565b60008351615e11818460208801614d71565b835190830190615e25818360208801614d71565b01949350505050565b604081526000615e416040830185614d95565b90508260208301529392505050565b6c41206e6577206261746368202760981b815260008351615e7881600d850160208801614d71565b7f2720686173206265656e20637265617465642062792070726f64756365722000600d918401918201528351615eb581602c840160208801614d71565b01602c01949350505050565b60ff828116828216039081111561049e5761049e61597a565b600082615ee957615ee9615c9e565b500690565b60ff8181168382160290811690818114615f0a57615f0a61597a565b5092915050565b8082018082111561049e5761049e61597a565b600088516020615f378285838e01614d71565b81840191508982528851615f5081838501848d01614d71565b80830192505087818301528651615f6d8160408501848b01614d71565b604092019182018690528451615f898160608501848901614d71565b919091016060019a995050505050505050505056fea2646970667358221220e10d5705bcd6ca5f1d960cd2a2ebe8f3525578a165ccd063b3f81b71950a863c64736f6c63430008140033",
  "immutableReferences": {},
  "source": "// SPDX-License-Identifier: MIT\r\npragma solidity ^0.8.0;\r\nimport \"./ActivityLog.sol\";\r\ncontract TraceabilityContract {\r\n    ActivityLog private activityLogContract;   \r\n\r\n  constructor(address _activityLogAddress) {\r\n    require(_activityLogAddress != address(0), \"Invalid ActivityLog address\");\r\n    activityLogContract = ActivityLog(_activityLogAddress);\r\n}\r\n\r\n    uint256 private _batchIdCounter;\r\n    uint256 private _warehouseIdCounter;\r\n\r\nenum BatchStatus { PendingApproval, Approved, Rejected }\r\nenum TransportStatus { NotTransported, InTransit, Delivered }\r\nenum ParticipantType { Transporter, Warehouse }\r\nenum DetailedTransportStatus { NotStarted, InTransit, Paused, Delivered }\r\n\r\n    struct Batch {\r\n        uint256 batchId;\r\n        string name;  // Thm trng tn l hng\r\n        string sscc;\r\n        uint256 producerId;\r\n        string quantity;\r\n        uint256 productionDate;\r\n        uint256 startDate;\r\n        uint256 endDate;\r\n        BatchStatus status;\r\n        string[] productImageUrls;\r\n        string certificateImageUrl;\r\n        string farmPlotNumber;\r\n        bytes32 dataHash;\r\n        uint256 productId;\r\n        TransportStatus transportStatus;\r\n        DetailedTransportStatus detailedTransportStatus;\r\n        uint256 lastTransporterId;\r\n        bool warehouseConfirmed;  // Thm trng ny\r\n\r\n    }\r\n\r\n     struct BatchParams {\r\n        string name;\r\n        string sscc;\r\n        uint256 producerId;\r\n        string quantity;\r\n        string[] productImageUrls;\r\n        string certificateImageUrl;\r\n        string farmPlotNumber;\r\n        uint256 productId;\r\n        uint256 startDate;\r\n        uint256 endDate;\r\n    }\r\n    \r\n    struct Participation {\r\n        uint256 participantId;\r\n        string participantType;\r\n        uint256 timestamp;\r\n        string action;\r\n    }\r\n\r\n    struct TransportEvent {\r\n    uint256 participantId;\r\n    uint256 timestamp;\r\n    string action;\r\n    string participantType;\r\n}\r\n\r\nmapping(uint256 => TransportEvent[]) private _batchTransportEvents;\r\n\r\n\r\n    mapping(uint256 => Batch) private _batches;\r\n    mapping(string => uint256) private _ssccToBatchId;\r\n   \r\n    mapping(uint256 => bool) private _approvedBatches;\r\n    mapping(uint256 => Participation[]) private _batchParticipations;\r\n    \r\n    event BatchApproved(uint256 indexed batchId, uint256 indexed producerId, string sscc);\r\n    event BatchApprovedForQR(uint256 indexed batchId, uint256 indexed producerId, string sscc);\r\n    event ParticipationRecorded(uint256 indexed batchId, uint256 participantId, string participantType, string action);\r\n    event BatchCreated(uint256 indexed batchId, string sscc, uint256 producerId);\r\n    event ActivityLogAdded(\r\n        uint256 indexed uid,\r\n        string activityName,\r\n        string description,\r\n        bool isSystemGenerated,\r\n        string[] imageUrls,\r\n        uint256[] relatedProductIds\r\n    );\r\nevent TransportStatusUpdated(\r\n    uint256 indexed batchId, \r\n    DetailedTransportStatus newStatus, \r\n    string action, \r\n    uint256 participantId, \r\n    string participantType\r\n);\r\n\r\n\r\nfunction addSystemActivityLog(\r\n    uint256 _batchId,\r\n    uint256 _participantId,\r\n    string memory _activityName,\r\n    string memory _description,\r\n    uint256[] memory _relatedProductIds\r\n) internal {\r\n    activityLogContract.addActivityLog(\r\n        _batchId,\r\n        _participantId,\r\n        _activityName,\r\n        _description,\r\n        true,\r\n        new string[](0),\r\n        _relatedProductIds\r\n    );\r\n}\r\nfunction createBatch(\r\n    string memory _name,\r\n    uint256 _producerId,\r\n    string memory _quantity,\r\n    string[] memory _productImageUrls,\r\n    string memory _certificateImageUrl,\r\n    string memory _farmPlotNumber,\r\n    uint256 _productId,\r\n    uint256 _startDate,\r\n    uint256 _endDate\r\n) public returns (uint256) {\r\n    string memory sscc = generateSSCC(_producerId);\r\n    uint256 newBatchId = _createBatch(BatchParams({\r\n        name: _name,\r\n        sscc: sscc,\r\n        producerId: _producerId,\r\n        quantity: _quantity,\r\n        productImageUrls: _productImageUrls,\r\n        certificateImageUrl: _certificateImageUrl,\r\n        farmPlotNumber: _farmPlotNumber,\r\n        productId: _productId,\r\n        startDate: _startDate,\r\n        endDate: _endDate\r\n    }));\r\n\r\n    // Ghi li thng tin l hng vo nht k hot ng\r\n    _addBatchCreationLog(newBatchId, _producerId, _name, _productId);\r\n\r\n    return newBatchId;\r\n}\r\n\r\nfunction _addBatchCreationLog(uint256 _batchId, uint256 _producerId, string memory _name, uint256 _productId) private {\r\n    uint256[] memory relatedProductIds = new uint256[](1);\r\n    relatedProductIds[0] = _productId;\r\n    string memory description = string(abi.encodePacked(\"A new batch '\", _name, \"' has been created by producer \", uint2str(_producerId)));\r\n    addSystemActivityLog(\r\n        _batchId,\r\n        _producerId,\r\n        \"Batch Created\",\r\n        description,\r\n        relatedProductIds\r\n    );\r\n}\r\n\r\n    function generateSSCC(uint256 _producerId) private view returns (string memory) {\r\n        string memory prefix = \"00\";\r\n        string memory companyPrefix = uint2str(_producerId);\r\n        uint256 serialNumber = uint256(keccak256(abi.encodePacked(block.timestamp, _producerId)));\r\n        string memory serialReference = uint2str(serialNumber);\r\n        \r\n        string memory ssccWithoutCheck = string(abi.encodePacked(prefix, companyPrefix, serialReference));\r\n        uint8 checkDigit = calculateCheckDigit(ssccWithoutCheck);\r\n        \r\n        string memory sscc = string(abi.encodePacked(ssccWithoutCheck, uint2str(uint256(checkDigit))));\r\n        \r\n        return sscc;\r\n    }\r\n\r\n    function calculateCheckDigit(string memory _code) private pure returns (uint8) {\r\n        bytes memory codeBytes = bytes(_code);\r\n        uint256 sum = 0;\r\n        for (uint256 i = 0; i < codeBytes.length; i++) {\r\n            uint8 digit = uint8(codeBytes[i]) - 48;\r\n            sum += (i % 2 == 0) ? digit * 3 : digit;\r\n        }\r\n        uint8 checkDigit = uint8((10 - (sum % 10)) % 10);\r\n        return checkDigit;\r\n    }\r\n\r\n    function uint2str(uint256 _i) private pure returns (string memory) {\r\n        if (_i == 0) {\r\n            return \"0\";\r\n        }\r\n        uint256 j = _i;\r\n        uint256 length;\r\n        while (j != 0) {\r\n            length++;\r\n            j /= 10;\r\n        }\r\n        bytes memory bstr = new bytes(length);\r\n        uint256 k = length;\r\n        while (_i != 0) {\r\n            k = k-1;\r\n            uint8 temp = (48 + uint8(_i - _i / 10 * 10));\r\n            bytes1 b1 = bytes1(temp);\r\n            bstr[k] = b1;\r\n            _i /= 10;\r\n        }\r\n        return string(bstr);\r\n    }\r\n\r\n    function _createBatch(BatchParams memory params) private returns (uint256) {\r\n        require(_ssccToBatchId[params.sscc] == 0, \"SSCC already exists\");\r\n        require(bytes(params.quantity).length > 0, \"Quantity must not be empty\");\r\n        require(params.productImageUrls.length > 0, \"At least one product image URL is required\");\r\n        require(bytes(params.certificateImageUrl).length > 0, \"Certificate image URL is required\");\r\n        require(bytes(params.farmPlotNumber).length > 0, \"Farm plot number is required\");\r\n        require(params.productId > 0, \"Product ID must be valid\");\r\n        require(params.startDate > 0, \"Start date is required\");\r\n        require(params.endDate > 0, \"End date is required\");\r\n        require(params.startDate < params.endDate, \"Start date must be before end date\");\r\n        require(bytes(params.name).length > 0, \"Batch name must not be empty\");\r\n\r\n        _batchIdCounter++;\r\n        uint256 newBatchId = _batchIdCounter;\r\n\r\n        uint256 productionDate = block.timestamp;\r\n\r\n        bytes32 dataHash = _calculateDataHash(\r\n            params.sscc,\r\n            params.producerId,\r\n            params.quantity,\r\n            productionDate,\r\n            params.farmPlotNumber,\r\n            params.productId,\r\n            params.name  // Thm tn l hng vo hm bm\r\n        );\r\n\r\n        Batch memory newBatch = Batch({\r\n            batchId: newBatchId,\r\n            name: params.name,  // Thm tn l hng\r\n            sscc: params.sscc,\r\n            producerId: params.producerId,\r\n            quantity: params.quantity,\r\n            productionDate: productionDate,\r\n            startDate: params.startDate,\r\n            endDate: params.endDate,\r\n            status: BatchStatus.PendingApproval,\r\n            productImageUrls: params.productImageUrls,\r\n            certificateImageUrl: params.certificateImageUrl,\r\n            farmPlotNumber: params.farmPlotNumber,\r\n            dataHash: dataHash,\r\n            productId: params.productId,\r\n            transportStatus: TransportStatus.NotTransported,\r\n            detailedTransportStatus: DetailedTransportStatus.NotStarted,\r\n            lastTransporterId: 0,\r\n            warehouseConfirmed: false  // Thm trng mi ny\r\n        });\r\n\r\n        _batches[newBatchId] = newBatch;\r\n        _ssccToBatchId[params.sscc] = newBatchId;\r\n\r\n        emit BatchCreated(newBatchId, params.sscc, params.producerId);\r\n        return newBatchId;\r\n    }\r\n    \r\n\r\n // Hm  ly nht k hot ng ca mt nh sn xut\r\n\r\n    \r\n    function _calculateDataHash(\r\n        string memory _sscc,\r\n        uint256 _producerId,\r\n        string memory _quantity,\r\n        uint256 _productionDate,\r\n        string memory _farmPlotNumber,\r\n        uint256 _productId,\r\n        string memory _name  // Thm tn l hng\r\n    ) private pure returns (bytes32) {\r\n        return keccak256(abi.encodePacked(_sscc, _producerId, _quantity, _productionDate, _farmPlotNumber, _productId, _name));\r\n    }\r\n    // hm kim tra sscc  tn ti hay cha \r\n    function ssccExists(string memory sscc) public view returns (bool) {\r\n        return _ssccToBatchId[sscc] != 0;\r\n    }\r\n\r\n    // Hm mi  ly danh sch cc l hng da trn producerId\r\n    function getBatchesByProducer(uint256 producerId) public view returns (Batch[] memory) {\r\n        uint256 count = 0;\r\n        for (uint256 i = 1; i <= _batchIdCounter; i++) {\r\n            if (_batches[i].producerId == producerId) {\r\n                count++;\r\n            }\r\n        }\r\n\r\n        Batch[] memory batches = new Batch[](count);\r\n        uint256 index = 0;\r\n        for (uint256 i = 1; i <= _batchIdCounter; i++) {\r\n            if (_batches[i].producerId == producerId) {\r\n                batches[index] = _batches[i];\r\n                index++;\r\n            }\r\n        }\r\n\r\n        return batches;\r\n    }\r\n\r\n    // hm cp nht trng thi l hng\r\n\r\nfunction getPendingBatchesByProducer(uint256 _producerId) public view returns (Batch[] memory) {\r\n    uint256 pendingCount = 0;\r\n    for (uint256 i = 1; i <= _batchIdCounter; i++) {\r\n        if (_batches[i].producerId == _producerId && _batches[i].status == BatchStatus.PendingApproval) {\r\n            pendingCount++;\r\n        }\r\n    }\r\n    Batch[] memory pendingBatches = new Batch[](pendingCount);\r\n    uint256 index = 0;\r\n    for (uint256 i = 1; i <= _batchIdCounter; i++) {\r\n        if (_batches[i].producerId == _producerId && _batches[i].status == BatchStatus.PendingApproval) {\r\n            pendingBatches[index] = _batches[i];\r\n            index++;\r\n        }\r\n    }\r\n\r\n    return pendingBatches;\r\n}\r\n\r\nfunction getRejectedBatchesByProducer(uint256 _producerId) public view returns (Batch[] memory) {\r\n    uint256 rejectedCount = 0;\r\n    for (uint256 i = 1; i <= _batchIdCounter; i++) {\r\n        if (_batches[i].producerId == _producerId && _batches[i].status == BatchStatus.Rejected) {\r\n            rejectedCount++;\r\n        }\r\n    }\r\n\r\n    Batch[] memory rejectedBatches = new Batch[](rejectedCount);\r\n    uint256 index = 0;\r\n    for (uint256 i = 1; i <= _batchIdCounter; i++) {\r\n        if (_batches[i].producerId == _producerId && _batches[i].status == BatchStatus.Rejected) {\r\n            rejectedBatches[index] = _batches[i];\r\n            index++;\r\n        }\r\n    }\r\n\r\n    return rejectedBatches;\r\n}\r\nfunction getAllPendingBatches() public view returns (Batch[] memory) {\r\n        uint256 pendingCount = 0;\r\n        for (uint256 i = 1; i <= _batchIdCounter; i++) {\r\n            if (_batches[i].status == BatchStatus.PendingApproval) {\r\n                pendingCount++;\r\n            }\r\n        }\r\n\r\n        Batch[] memory pendingBatches = new Batch[](pendingCount);\r\n        uint256 index = 0;\r\n        for (uint256 i = 1; i <= _batchIdCounter; i++) {\r\n            if (_batches[i].status == BatchStatus.PendingApproval) {\r\n                pendingBatches[index] = _batches[i];\r\n                index++;\r\n            }\r\n        }\r\n\r\n        return pendingBatches;\r\n    }\r\n\r\nevent BatchStatusUpdated(uint256 indexed batchId, BatchStatus newStatus);\r\n\r\n// hm ly thng tin l hng\r\nfunction getBatchDetails(uint256 _batchId) public view returns (Batch memory) {\r\n    require(_batches[_batchId].batchId != 0, \"Batch does not exist\");\r\n    return _batches[_batchId];\r\n}\r\n\r\n\r\nfunction getTotalBatches() public view returns (uint256) {\r\n    return _batchIdCounter;\r\n}\r\n\r\nfunction isProducerOfBatch(uint256 _batchId, uint256 _producerId) public view returns (bool) {\r\n    return _batches[_batchId].producerId == _producerId;\r\n}\r\n\r\n// Thm hm ny vo smart contract\r\n\r\n\r\n\r\nfunction approveBatch(uint256 _batchId, uint256 _approverId) public {\r\n    require(_batches[_batchId].batchId != 0, \"Batch does not exist\");\r\n    require(_batches[_batchId].status == BatchStatus.PendingApproval, \"Batch is not pending approval\");\r\n\r\n    _batches[_batchId].status = BatchStatus.Approved;\r\n    _approvedBatches[_batchId] = true;\r\n\r\n    emit BatchApproved(_batchId, _batches[_batchId].producerId, _batches[_batchId].sscc);\r\n    emit BatchApprovedForQR(_batchId, _batches[_batchId].producerId, _batches[_batchId].sscc);\r\n    \r\n    // Add system activity log\r\n    uint256[] memory relatedProductIds = new uint256[](1);\r\n    relatedProductIds[0] = _batches[_batchId].productId;\r\n    addSystemActivityLog(\r\n        _batchId,\r\n        _approverId,\r\n        \"Batch Approved\",\r\n        string(abi.encodePacked(\"Batch '\", _batches[_batchId].name, \"' has been approved by approver \", uint2str(_approverId))),\r\n        relatedProductIds\r\n    );\r\n}\r\nfunction rejectBatch(uint256 _batchId, uint256 _approverId) public {\r\n    require(_batches[_batchId].batchId != 0, \"Batch does not exist\");\r\n    require(_batches[_batchId].status == BatchStatus.PendingApproval, \"Batch is not pending approval\");\r\n\r\n    _batches[_batchId].status = BatchStatus.Rejected;\r\n\r\n    emit BatchRejected(_batchId, _batches[_batchId].producerId, _batches[_batchId].sscc);\r\n    \r\n    // Add system activity log\r\n    uint256[] memory relatedProductIds = new uint256[](1);\r\n    relatedProductIds[0] = _batches[_batchId].productId;\r\n    addSystemActivityLog(\r\n        _batchId,\r\n        _approverId,\r\n        \"Batch Rejected\",\r\n        string(abi.encodePacked(\"Batch '\", _batches[_batchId].name, \"' has been rejected by approver \", uint2str(_approverId))),\r\n        relatedProductIds\r\n    );\r\n}\r\n\r\nfunction getActivityLogs(uint256 _batchId) public view returns (ActivityLog.ActivityLogEntry[] memory) {\r\n    return activityLogContract.getActivityLogs(_batchId);\r\n}\r\n\r\nevent BatchRejected(uint256 indexed batchId, uint256 producerId, string sscc);\r\n\r\n\r\nfunction getApprovedBatchesByProducer(uint256 _producerId) public view returns (Batch[] memory) {\r\n    uint256 approvedCount = 0;\r\n    for (uint256 i = 1; i <= _batchIdCounter; i++) {\r\n        if (_batches[i].producerId == _producerId && _batches[i].status == BatchStatus.Approved) {\r\n            approvedCount++;\r\n        }\r\n    }\r\n\r\n    Batch[] memory approvedBatches = new Batch[](approvedCount);\r\n    uint256 index = 0;\r\n    for (uint256 i = 1; i <= _batchIdCounter; i++) {\r\n        if (_batches[i].producerId == _producerId && _batches[i].status == BatchStatus.Approved) {\r\n            approvedBatches[index] = _batches[i];\r\n            index++;\r\n        }\r\n    }\r\n\r\n    return approvedBatches;\r\n}\r\n\r\nfunction getBatchBySSCC(string memory _sscc) public view returns (Batch memory) {\r\n    uint256 batchId = _ssccToBatchId[_sscc];\r\n    require(batchId != 0, \"Batch does not exist with this SSCC\");\r\n    return _batches[batchId];\r\n}\r\n\r\nfunction isValidSSCC(string memory _sscc) public view returns (bool) {\r\n    return _ssccToBatchId[_sscc] != 0;\r\n}\r\n\r\nfunction isBatchApproved(uint256 _batchId) public view returns (bool) {\r\n    return _approvedBatches[_batchId];\r\n}\r\n\r\nfunction recordParticipation(uint256 _batchId, uint256 _participantId, string memory _participantType, string memory _action) public {\r\n    require(_batches[_batchId].batchId != 0, \"Batch does not exist\");\r\n    _batchParticipations[_batchId].push(Participation(_participantId, _participantType, block.timestamp, _action));\r\n    \r\n    emit ParticipationRecorded(_batchId, _participantId, _participantType, _action);\r\n}\r\nevent LogParticipantType(uint256 indexed batchId, string participantType);\r\n   function updateTransportStatus(\r\n        uint256 _batchId, \r\n        uint256 _participantId, \r\n        string memory _action, \r\n        string memory _participantType\r\n    ) public {\r\n        require(\r\n            keccak256(abi.encodePacked(_participantType)) == keccak256(abi.encodePacked(\"Transporter\")) ||\r\n            keccak256(abi.encodePacked(_participantType)) == keccak256(abi.encodePacked(\"Warehouse\")),\r\n            \"Invalid participant type\"\r\n        );\r\n        \r\n        require(_batches[_batchId].batchId != 0, \"Batch does not exist\");\r\n        require(_batches[_batchId].status == BatchStatus.Approved, \"Batch must be approved\");\r\n\r\n        TransportEvent memory newEvent = TransportEvent({\r\n            participantId: _participantId,\r\n            timestamp: block.timestamp,\r\n            action: _action,\r\n            participantType: _participantType\r\n        });\r\n        \r\n        _batchTransportEvents[_batchId].push(newEvent);\r\n        \r\n        if (keccak256(abi.encodePacked(_action)) == keccak256(abi.encodePacked(\"Bat dau van chuyen\"))) {\r\n            _batches[_batchId].detailedTransportStatus = DetailedTransportStatus.InTransit;\r\n            _batches[_batchId].transportStatus = TransportStatus.InTransit;\r\n            _batches[_batchId].lastTransporterId = _participantId;\r\n        } else if (keccak256(abi.encodePacked(_action)) == keccak256(abi.encodePacked(\"Tam dung van chuyen\"))) {\r\n            _batches[_batchId].detailedTransportStatus = DetailedTransportStatus.Paused;\r\n        } else if (keccak256(abi.encodePacked(_action)) == keccak256(abi.encodePacked(\"Tiep tuc van chuyen\"))) {\r\n            _batches[_batchId].detailedTransportStatus = DetailedTransportStatus.InTransit;\r\n        } else if (keccak256(abi.encodePacked(_action)) == keccak256(abi.encodePacked(\"Hoan thanh van chuyen\"))) {\r\n            _batches[_batchId].detailedTransportStatus = DetailedTransportStatus.Delivered;\r\n            _batches[_batchId].transportStatus = TransportStatus.Delivered;\r\n        }\r\n        \r\n        emit TransportStatusUpdated(_batchId, _batches[_batchId].detailedTransportStatus, _action, _participantId, _participantType);\r\n        \r\n        uint256[] memory relatedProductIds = new uint256[](1);\r\n        relatedProductIds[0] = _batches[_batchId].productId;\r\n        addSystemActivityLog(\r\n            _batchId,\r\n            _participantId,\r\n            \"Transport Status Updated\",\r\n            string(abi.encodePacked(\r\n                \"Transport status updated to '\", \r\n                _action, \r\n                \"' by \", \r\n                _participantType, \r\n                \" with ID \", \r\n                uint2str(_participantId)\r\n            )),\r\n            relatedProductIds\r\n        );\r\n    }\r\n\r\n\r\n// i tn s kin\r\n// Thm mapping  theo di xc nhn ca cc nh kho\r\n\r\nmapping(uint256 => mapping(uint256 => bool)) private _warehouseConfirmations;\r\n\r\n// Thm s kin  theo di xc nhn ca cc nh kho\r\nevent WarehouseConfirmed(uint256 indexed batchId, uint256 indexed warehouseId);\r\nfunction warehouseConfirmation(uint256 _batchId, uint256 _warehouseId) public {\r\n    require(_batches[_batchId].batchId != 0, \"Batch does not exist\");\r\n    require(_batches[_batchId].transportStatus == TransportStatus.Delivered, \"Batch must be delivered before warehouse confirmation\");\r\n    require(_batches[_batchId].detailedTransportStatus == DetailedTransportStatus.Delivered, \"Batch must be in Delivered status\");\r\n    require(!_warehouseConfirmations[_batchId][_warehouseId], \"This warehouse has already confirmed this batch\");\r\n    \r\n    // nh du nh kho ny  xc nhn\r\n    _warehouseConfirmations[_batchId][_warehouseId] = true;\r\n    \r\n    // Ghi nhn s tham gia ca nh kho\r\n    Participation memory newParticipation = Participation({\r\n        participantId: _warehouseId,\r\n        participantType: \"Warehouse\",\r\n        timestamp: block.timestamp,\r\n        action: \"Confirmed receipt at warehouse\"\r\n    });\r\n    _batchParticipations[_batchId].push(newParticipation);\r\n    \r\n    // Pht ra s kin\r\n    emit WarehouseConfirmed(_batchId, _warehouseId);\r\n\r\n    // Thm log hot ng\r\n    uint256[] memory relatedProductIds = new uint256[](1);\r\n    relatedProductIds[0] = _batches[_batchId].productId;\r\n    addSystemActivityLog(\r\n        _batchId,\r\n        _warehouseId,\r\n        \"Warehouse Confirmation\",\r\n        string(abi.encodePacked(\r\n            \"Warehouse with ID \", \r\n            uint2str(_warehouseId), \r\n            \" has confirmed receipt of batch '\", \r\n            _batches[_batchId].name, \r\n            \"'\"\r\n        )),\r\n        relatedProductIds\r\n    );\r\n}\r\n\r\n\r\n\r\n\r\n// Hm  kim tra xem mt nh kho c th  xc nhn l hng cha\r\nfunction isWarehouseConfirmed(uint256 _batchId, uint256 _warehouseId) public view returns (bool) {\r\n    return _warehouseConfirmations[_batchId][_warehouseId];\r\n}\r\n\r\n// Hm  ly danh sch cc nh kho  xc nhn mt l hng\r\nfunction getConfirmedWarehouses(uint256 _batchId) public view returns (uint256[] memory) {\r\n    uint256 confirmedCount = 0;\r\n    for (uint256 i = 1; i <= _warehouseIdCounter; i++) {\r\n        if (_warehouseConfirmations[_batchId][i]) {\r\n            confirmedCount++;\r\n        }\r\n    }\r\n    \r\n    uint256[] memory confirmedWarehouses = new uint256[](confirmedCount);\r\n    uint256 index = 0;\r\n    for (uint256 i = 1; i <= _warehouseIdCounter; i++) {\r\n        if (_warehouseConfirmations[_batchId][i]) {\r\n            confirmedWarehouses[index] = i;\r\n            index++;\r\n        }\r\n    }\r\n    \r\n    return confirmedWarehouses;\r\n}\r\n\r\n\r\nfunction getDetailedTransportStatus(uint256 _batchId) public view returns (DetailedTransportStatus) {\r\n    require(_batches[_batchId].batchId != 0, \"Batch does not exist\");\r\n    return _batches[_batchId].detailedTransportStatus;\r\n}\r\n// hm kim tra trng thi vn chuyn\r\nfunction canStartTransport(uint256 _batchId, uint256 _transporterId) public view returns (bool) {\r\n    return _batches[_batchId].detailedTransportStatus == DetailedTransportStatus.NotStarted ||\r\n           (_batches[_batchId].detailedTransportStatus == DetailedTransportStatus.Delivered && _batches[_batchId].lastTransporterId != _transporterId);\r\n}\r\nfunction getTransportHistoryBySSCC(string memory _sscc) public view returns (TransportEvent[] memory) {\r\n    uint256 batchId = _ssccToBatchId[_sscc];\r\n    require(batchId != 0, \"Batch does not exist with this SSCC\");\r\n    return _batchTransportEvents[batchId];\r\n}\r\n// Thm hm  kim tra trng thi vn chuyn\r\nfunction getBatchTransportStatus(uint256 _batchId) public view returns (TransportStatus) {\r\n    require(_batches[_batchId].batchId != 0, \"Batch does not exist\");\r\n    return _batches[_batchId].transportStatus;\r\n}\r\n\r\n\r\n    // function getBatchActivityLogs(uint256 _batchId) public view returns (ActivityLog.ActivityLogEntry[] memory) {\r\n    //     return activityLogContract.getActivityLogs(_batchId);\r\n    // }\r\n\r\n    function getSystemActivityLogsBySSCC(string memory _sscc) public view returns (ActivityLog.ActivityLogEntry[] memory) {\r\n        uint256 batchId = uint256(keccak256(abi.encodePacked(_sscc)));\r\n        return activityLogContract.getSystemActivityLogs(batchId);\r\n    }\r\n    function getBatchIdBySSCC(string memory _sscc) public view returns (uint256) {\r\n        return _ssccToBatchId[_sscc];\r\n    }\r\n      function getProducerActivityLogsByProducerId(uint256 _producerId) public view returns (ActivityLog.ActivityLogEntry[] memory) {\r\n        return activityLogContract.getProducerActivityLogs(_producerId);\r\n    }\r\n\r\n}",
  "sourcePath": "D:\\projects\\nckh-be\\blockchain\\contracts\\supplychain.sol",
  "compiler": {
    "name": "solc",
    "version": "0.8.20+commit.a1b79de6.Emscripten.clang"
  },
  "schemaVersion": "3.4.16",
  "updatedAt": "2024-10-01T18:56:48.303Z",
  "networkType": "ethereum",
  "devdoc": {
    "kind": "dev",
    "methods": {},
    "version": 1
  },
  "userdoc": {
    "kind": "user",
    "methods": {},
    "version": 1
  }
}