{
  "contractName": "TraceabilityContract",
  "abi": [
    {
      "anonymous": false,
      "inputs": [
        {
          "indexed": true,
          "internalType": "uint256",
          "name": "batchId",
          "type": "uint256"
        },
        {
          "indexed": false,
          "internalType": "string",
          "name": "sscc",
          "type": "string"
        },
        {
          "indexed": false,
          "internalType": "uint256",
          "name": "producerId",
          "type": "uint256"
        }
      ],
      "name": "BatchCreated",
      "type": "event"
    },
    {
      "inputs": [
        {
          "internalType": "string",
          "name": "_sscc",
          "type": "string"
        },
        {
          "internalType": "uint256",
          "name": "_producerId",
          "type": "uint256"
        },
        {
          "internalType": "string",
          "name": "_quantity",
          "type": "string"
        },
        {
          "internalType": "string[]",
          "name": "_productImageUrls",
          "type": "string[]"
        },
        {
          "internalType": "string",
          "name": "_certificateImageUrl",
          "type": "string"
        },
        {
          "internalType": "string",
          "name": "_farmPlotNumber",
          "type": "string"
        },
        {
          "internalType": "uint256",
          "name": "_productId",
          "type": "uint256"
        },
        {
          "internalType": "uint256",
          "name": "_startDate",
          "type": "uint256"
        },
        {
          "internalType": "uint256",
          "name": "_endDate",
          "type": "uint256"
        }
      ],
      "name": "createBatch",
      "outputs": [
        {
          "internalType": "uint256",
          "name": "",
          "type": "uint256"
        }
      ],
      "stateMutability": "nonpayable",
      "type": "function"
    },
    {
      "inputs": [
        {
          "internalType": "string",
          "name": "sscc",
          "type": "string"
        }
      ],
      "name": "ssccExists",
      "outputs": [
        {
          "internalType": "bool",
          "name": "",
          "type": "bool"
        }
      ],
      "stateMutability": "view",
      "type": "function",
      "constant": true
    },
    {
      "inputs": [
        {
          "internalType": "uint256",
          "name": "producerId",
          "type": "uint256"
        }
      ],
      "name": "getBatchesByProducer",
      "outputs": [
        {
          "components": [
            {
              "internalType": "uint256",
              "name": "batchId",
              "type": "uint256"
            },
            {
              "internalType": "string",
              "name": "sscc",
              "type": "string"
            },
            {
              "internalType": "uint256",
              "name": "producerId",
              "type": "uint256"
            },
            {
              "internalType": "string",
              "name": "quantity",
              "type": "string"
            },
            {
              "internalType": "uint256",
              "name": "productionDate",
              "type": "uint256"
            },
            {
              "internalType": "uint256",
              "name": "startDate",
              "type": "uint256"
            },
            {
              "internalType": "uint256",
              "name": "endDate",
              "type": "uint256"
            },
            {
              "internalType": "enum TraceabilityContract.BatchStatus",
              "name": "status",
              "type": "uint8"
            },
            {
              "internalType": "string[]",
              "name": "productImageUrls",
              "type": "string[]"
            },
            {
              "internalType": "string",
              "name": "certificateImageUrl",
              "type": "string"
            },
            {
              "internalType": "string",
              "name": "farmPlotNumber",
              "type": "string"
            },
            {
              "internalType": "bytes32",
              "name": "dataHash",
              "type": "bytes32"
            },
            {
              "internalType": "uint256",
              "name": "productId",
              "type": "uint256"
            }
          ],
          "internalType": "struct TraceabilityContract.Batch[]",
          "name": "",
          "type": "tuple[]"
        }
      ],
      "stateMutability": "view",
      "type": "function",
      "constant": true
    }
  ],
  "bytecode": "0x608060405234801561001057600080fd5b50611f74806100206000396000f3fe608060405234801561001057600080fd5b50600436106100415760003560e01c8063040080781461004657806336c701e11461007657806380e32d45146100a6575b600080fd5b610060600480360381019061005b9190610e7d565b6100d6565b60405161006d9190610ee1565b60405180910390f35b610090600480360381019061008b9190611018565b610101565b60405161009d919061117d565b60405180910390f35b6100c060048036038101906100bb9190611198565b61015f565b6040516100cd919061159c565b60405180910390f35b6000806002836040516100e991906115fa565b90815260200160405180910390205414159050919050565b6000806040518061012001604052808c81526020018b81526020018a815260200189815260200188815260200187815260200186815260200185815260200184815250905061014f81610645565b9150509998505050505050505050565b6060600080600190505b60005481116101b1578360016000838152602001908152602001600020600201540361019e57818061019a90611640565b9250505b80806101a990611640565b915050610169565b5060008167ffffffffffffffff8111156101ce576101cd610d52565b5b60405190808252806020026020018201604052801561020757816020015b6101f4610bcc565b8152602001906001900390816101ec5790505b509050600080600190505b600054811161063957856001600083815260200190815260200160002060020154036106265760016000828152602001908152602001600020604051806101a001604052908160008201548152602001600182018054610271906116b7565b80601f016020809104026020016040519081016040528092919081815260200182805461029d906116b7565b80156102ea5780601f106102bf576101008083540402835291602001916102ea565b820191906000526020600020905b8154815290600101906020018083116102cd57829003601f168201915b505050505081526020016002820154815260200160038201805461030d906116b7565b80601f0160208091040260200160405190810160405280929190818152602001828054610339906116b7565b80156103865780601f1061035b57610100808354040283529160200191610386565b820191906000526020600020905b81548152906001019060200180831161036957829003601f168201915b505050505081526020016004820154815260200160058201548152602001600682015481526020016007820160009054906101000a900460ff1660038111156103d2576103d161127f565b5b60038111156103e4576103e361127f565b5b815260200160088201805480602002602001604051908101604052809291908181526020016000905b828210156104b957838290600052602060002001805461042c906116b7565b80601f0160208091040260200160405190810160405280929190818152602001828054610458906116b7565b80156104a55780601f1061047a576101008083540402835291602001916104a5565b820191906000526020600020905b81548152906001019060200180831161048857829003601f168201915b50505050508152602001906001019061040d565b5050505081526020016009820180546104d1906116b7565b80601f01602080910402602001604051908101604052809291908181526020018280546104fd906116b7565b801561054a5780601f1061051f5761010080835404028352916020019161054a565b820191906000526020600020905b81548152906001019060200180831161052d57829003601f168201915b50505050508152602001600a82018054610563906116b7565b80601f016020809104026020016040519081016040528092919081815260200182805461058f906116b7565b80156105dc5780601f106105b1576101008083540402835291602001916105dc565b820191906000526020600020905b8154815290600101906020018083116105bf57829003601f168201915b50505050508152602001600b8201548152602001600c8201548152505083838151811061060c5761060b6116e8565b5b6020026020010181905250818061062290611640565b9250505b808061063190611640565b915050610212565b50819350505050919050565b600060128260000151511461068f576040517f08c379a000000000000000000000000000000000000000000000000000000000815260040161068690611774565b60405180910390fd5b6000600283600001516040516106a591906115fa565b908152602001604051809103902054146106f4576040517f08c379a00000000000000000000000000000000000000000000000000000000081526004016106eb906117e0565b60405180910390fd5b60008260400151511161073c576040517f08c379a00000000000000000000000000000000000000000000000000000000081526004016107339061184c565b60405180910390fd5b600082606001515111610784576040517f08c379a000000000000000000000000000000000000000000000000000000000815260040161077b906118de565b60405180910390fd5b6000826080015151116107cc576040517f08c379a00000000000000000000000000000000000000000000000000000000081526004016107c390611970565b60405180910390fd5b60008260a001515111610814576040517f08c379a000000000000000000000000000000000000000000000000000000000815260040161080b906119dc565b60405180910390fd5b60008260c001511161085b576040517f08c379a000000000000000000000000000000000000000000000000000000000815260040161085290611a48565b60405180910390fd5b60008260e00151116108a2576040517f08c379a000000000000000000000000000000000000000000000000000000000815260040161089990611ab4565b60405180910390fd5b6000826101000151116108ea576040517f08c379a00000000000000000000000000000000000000000000000000000000081526004016108e190611b20565b60405180910390fd5b8161010001518260e0015110610935576040517f08c379a000000000000000000000000000000000000000000000000000000000815260040161092c90611bb2565b60405180910390fd5b60008081548092919061094790611640565b91905055506000805490506000429050600061097b856000015186602001518760400151858960a001518a60c00151610b8d565b90506000604051806101a001604052808581526020018760000151815260200187602001518152602001876040015181526020018481526020018760e0015181526020018761010001518152602001600160038111156109de576109dd61127f565b5b815260200187606001518152602001876080015181526020018760a0015181526020018381526020018760c0015181525090508060016000868152602001908152602001600020600082015181600001556020820151816001019081610a449190611d7e565b50604082015181600201556060820151816003019081610a649190611d7e565b506080820151816004015560a0820151816005015560c0820151816006015560e08201518160070160006101000a81548160ff02191690836003811115610aae57610aad61127f565b5b0217905550610100820151816008019080519060200190610ad0929190610c49565b50610120820151816009019081610ae79190611d7e565b5061014082015181600a019081610afe9190611d7e565b5061016082015181600b015561018082015181600c01559050508360028760000151604051610b2d91906115fa565b908152602001604051809103902081905550837f58c168780de5fc719a1e7a85c7eca394e664c0e74b7c9ebc621f0b093112d04b87600001518860200151604051610b79929190611e89565b60405180910390a283945050505050919050565b6000868686868686604051602001610baa96959493929190611eda565b6040516020818303038152906040528051906020012090509695505050505050565b604051806101a001604052806000815260200160608152602001600081526020016060815260200160008152602001600081526020016000815260200160006003811115610c1d57610c1c61127f565b5b815260200160608152602001606081526020016060815260200160008019168152602001600081525090565b828054828255906000526020600020908101928215610c91579160200282015b82811115610c90578251829081610c809190611d7e565b5091602001919060010190610c69565b5b509050610c9e9190610ca2565b5090565b5b80821115610cc25760008181610cb99190610cc6565b50600101610ca3565b5090565b508054610cd2906116b7565b6000825580601f10610ce45750610d03565b601f016020900490600052602060002090810190610d029190610d06565b5b50565b5b80821115610d1f576000816000905550600101610d07565b5090565b6000604051905090565b600080fd5b600080fd5b600080fd5b600080fd5b6000601f19601f8301169050919050565b7f4e487b7100000000000000000000000000000000000000000000000000000000600052604160045260246000fd5b610d8a82610d41565b810181811067ffffffffffffffff82111715610da957610da8610d52565b5b80604052505050565b6000610dbc610d23565b9050610dc88282610d81565b919050565b600067ffffffffffffffff821115610de857610de7610d52565b5b610df182610d41565b9050602081019050919050565b82818337600083830152505050565b6000610e20610e1b84610dcd565b610db2565b905082815260208101848484011115610e3c57610e3b610d3c565b5b610e47848285610dfe565b509392505050565b600082601f830112610e6457610e63610d37565b5b8135610e74848260208601610e0d565b91505092915050565b600060208284031215610e9357610e92610d2d565b5b600082013567ffffffffffffffff811115610eb157610eb0610d32565b5b610ebd84828501610e4f565b91505092915050565b60008115159050919050565b610edb81610ec6565b82525050565b6000602082019050610ef66000830184610ed2565b92915050565b6000819050919050565b610f0f81610efc565b8114610f1a57600080fd5b50565b600081359050610f2c81610f06565b92915050565b600067ffffffffffffffff821115610f4d57610f4c610d52565b5b602082029050602081019050919050565b600080fd5b6000610f76610f7184610f32565b610db2565b90508083825260208201905060208402830185811115610f9957610f98610f5e565b5b835b81811015610fe057803567ffffffffffffffff811115610fbe57610fbd610d37565b5b808601610fcb8982610e4f565b85526020850194505050602081019050610f9b565b5050509392505050565b600082601f830112610fff57610ffe610d37565b5b813561100f848260208601610f63565b91505092915050565b60008060008060008060008060006101208a8c03121561103b5761103a610d2d565b5b60008a013567ffffffffffffffff81111561105957611058610d32565b5b6110658c828d01610e4f565b99505060206110768c828d01610f1d565b98505060408a013567ffffffffffffffff81111561109757611096610d32565b5b6110a38c828d01610e4f565b97505060608a013567ffffffffffffffff8111156110c4576110c3610d32565b5b6110d08c828d01610fea565b96505060808a013567ffffffffffffffff8111156110f1576110f0610d32565b5b6110fd8c828d01610e4f565b95505060a08a013567ffffffffffffffff81111561111e5761111d610d32565b5b61112a8c828d01610e4f565b94505060c061113b8c828d01610f1d565b93505060e061114c8c828d01610f1d565b92505061010061115e8c828d01610f1d565b9150509295985092959850929598565b61117781610efc565b82525050565b6000602082019050611192600083018461116e565b92915050565b6000602082840312156111ae576111ad610d2d565b5b60006111bc84828501610f1d565b91505092915050565b600081519050919050565b600082825260208201905092915050565b6000819050602082019050919050565b6111fa81610efc565b82525050565b600081519050919050565b600082825260208201905092915050565b60005b8381101561123a57808201518184015260208101905061121f565b60008484015250505050565b600061125182611200565b61125b818561120b565b935061126b81856020860161121c565b61127481610d41565b840191505092915050565b7f4e487b7100000000000000000000000000000000000000000000000000000000600052602160045260246000fd5b600481106112bf576112be61127f565b5b50565b60008190506112d0826112ae565b919050565b60006112e0826112c2565b9050919050565b6112f0816112d5565b82525050565b600081519050919050565b600082825260208201905092915050565b6000819050602082019050919050565b600061132e8383611246565b905092915050565b6000602082019050919050565b600061134e826112f6565b6113588185611301565b93508360208202850161136a85611312565b8060005b858110156113a657848403895281516113878582611322565b945061139283611336565b925060208a0199505060018101905061136e565b50829750879550505050505092915050565b6000819050919050565b6113cb816113b8565b82525050565b60006101a0830160008301516113ea60008601826111f1565b50602083015184820360208601526114028282611246565b915050604083015161141760408601826111f1565b506060830151848203606086015261142f8282611246565b915050608083015161144460808601826111f1565b5060a083015161145760a08601826111f1565b5060c083015161146a60c08601826111f1565b5060e083015161147d60e08601826112e7565b506101008301518482036101008601526114978282611343565b9150506101208301518482036101208601526114b38282611246565b9150506101408301518482036101408601526114cf8282611246565b9150506101608301516114e66101608601826113c2565b506101808301516114fb6101808601826111f1565b508091505092915050565b600061151283836113d1565b905092915050565b6000602082019050919050565b6000611532826111c5565b61153c81856111d0565b93508360208202850161154e856111e1565b8060005b8581101561158a578484038952815161156b8582611506565b94506115768361151a565b925060208a01995050600181019050611552565b50829750879550505050505092915050565b600060208201905081810360008301526115b68184611527565b905092915050565b600081905092915050565b60006115d482611200565b6115de81856115be565b93506115ee81856020860161121c565b80840191505092915050565b600061160682846115c9565b915081905092915050565b7f4e487b7100000000000000000000000000000000000000000000000000000000600052601160045260246000fd5b600061164b82610efc565b91507fffffffffffffffffffffffffffffffffffffffffffffffffffffffffffffffff820361167d5761167c611611565b5b600182019050919050565b7f4e487b7100000000000000000000000000000000000000000000000000000000600052602260045260246000fd5b600060028204905060018216806116cf57607f821691505b6020821081036116e2576116e1611688565b5b50919050565b7f4e487b7100000000000000000000000000000000000000000000000000000000600052603260045260246000fd5b600082825260208201905092915050565b7f53534343206d7573742062652031382063686172616374657273206c6f6e6700600082015250565b600061175e601f83611717565b915061176982611728565b602082019050919050565b6000602082019050818103600083015261178d81611751565b9050919050565b7f5353434320616c72656164792065786973747300000000000000000000000000600082015250565b60006117ca601383611717565b91506117d582611794565b602082019050919050565b600060208201905081810360008301526117f9816117bd565b9050919050565b7f5175616e74697479206d757374206e6f7420626520656d707479000000000000600082015250565b6000611836601a83611717565b915061184182611800565b602082019050919050565b6000602082019050818103600083015261186581611829565b9050919050565b7f4174206c65617374206f6e652070726f6475637420696d6167652055524c206960008201527f7320726571756972656400000000000000000000000000000000000000000000602082015250565b60006118c8602a83611717565b91506118d38261186c565b604082019050919050565b600060208201905081810360008301526118f7816118bb565b9050919050565b7f436572746966696361746520696d6167652055524c206973207265717569726560008201527f6400000000000000000000000000000000000000000000000000000000000000602082015250565b600061195a602183611717565b9150611965826118fe565b604082019050919050565b600060208201905081810360008301526119898161194d565b9050919050565b7f4661726d20706c6f74206e756d62657220697320726571756972656400000000600082015250565b60006119c6601c83611717565b91506119d182611990565b602082019050919050565b600060208201905081810360008301526119f5816119b9565b9050919050565b7f50726f64756374204944206d7573742062652076616c69640000000000000000600082015250565b6000611a32601883611717565b9150611a3d826119fc565b602082019050919050565b60006020820190508181036000830152611a6181611a25565b9050919050565b7f5374617274206461746520697320726571756972656400000000000000000000600082015250565b6000611a9e601683611717565b9150611aa982611a68565b602082019050919050565b60006020820190508181036000830152611acd81611a91565b9050919050565b7f456e642064617465206973207265717569726564000000000000000000000000600082015250565b6000611b0a601483611717565b9150611b1582611ad4565b602082019050919050565b60006020820190508181036000830152611b3981611afd565b9050919050565b7f53746172742064617465206d757374206265206265666f726520656e6420646160008201527f7465000000000000000000000000000000000000000000000000000000000000602082015250565b6000611b9c602283611717565b9150611ba782611b40565b604082019050919050565b60006020820190508181036000830152611bcb81611b8f565b9050919050565b60008190508160005260206000209050919050565b60006020601f8301049050919050565b600082821b905092915050565b600060088302611c347fffffffffffffffffffffffffffffffffffffffffffffffffffffffffffffffff82611bf7565b611c3e8683611bf7565b95508019841693508086168417925050509392505050565b6000819050919050565b6000611c7b611c76611c7184610efc565b611c56565b610efc565b9050919050565b6000819050919050565b611c9583611c60565b611ca9611ca182611c82565b848454611c04565b825550505050565b600090565b611cbe611cb1565b611cc9818484611c8c565b505050565b5b81811015611ced57611ce2600082611cb6565b600181019050611ccf565b5050565b601f821115611d3257611d0381611bd2565b611d0c84611be7565b81016020851015611d1b578190505b611d2f611d2785611be7565b830182611cce565b50505b505050565b600082821c905092915050565b6000611d5560001984600802611d37565b1980831691505092915050565b6000611d6e8383611d44565b9150826002028217905092915050565b611d8782611200565b67ffffffffffffffff811115611da057611d9f610d52565b5b611daa82546116b7565b611db5828285611cf1565b600060209050601f831160018114611de85760008415611dd6578287015190505b611de08582611d62565b865550611e48565b601f198416611df686611bd2565b60005b82811015611e1e57848901518255600182019150602085019450602081019050611df9565b86831015611e3b5784890151611e37601f891682611d44565b8355505b6001600288020188555050505b505050505050565b6000611e5b82611200565b611e658185611717565b9350611e7581856020860161121c565b611e7e81610d41565b840191505092915050565b60006040820190508181036000830152611ea38185611e50565b9050611eb2602083018461116e565b9392505050565b6000819050919050565b611ed4611ecf82610efc565b611eb9565b82525050565b6000611ee682896115c9565b9150611ef28288611ec3565b602082019150611f0282876115c9565b9150611f0e8286611ec3565b602082019150611f1e82856115c9565b9150611f2a8284611ec3565b60208201915081905097965050505050505056fea26469706673582212201d39ac278963c0041876248467ed0215e80947e3d84babfa49fff7087e49657864736f6c63430008140033",
  "immutableReferences": {},
  "source": "\r\n// SPDX-License-Identifier: MIT\r\npragma solidity ^0.8.0;\r\n\r\ncontract TraceabilityContract {\r\n    uint256 private _batchIdCounter;\r\n\r\n    struct Batch {\r\n        uint256 batchId;\r\n        string sscc;\r\n        uint256 producerId;\r\n        string quantity;\r\n        uint256 productionDate;\r\n      //  uint256 expiryDate;\r\n        uint256 startDate;\r\n        uint256 endDate;\r\n        BatchStatus status;\r\n        string[] productImageUrls; // Change to array\r\n        string certificateImageUrl;\r\n        string farmPlotNumber;\r\n        bytes32 dataHash;\r\n        uint256 productId;\r\n    }\r\n\r\n    enum BatchStatus { Created, PendingApproval, Approved, Rejected }\r\n\r\n    mapping(uint256 => Batch) private _batches;\r\n    mapping(string => uint256) private _ssccToBatchId;\r\n\r\n    event BatchCreated(uint256 indexed batchId, string sscc, uint256 producerId);\r\n\r\n    struct BatchParams {\r\n        string sscc;\r\n        uint256 producerId;\r\n        string quantity;\r\n        string[] productImageUrls; // Change to array\r\n        string certificateImageUrl;\r\n        string farmPlotNumber;\r\n        uint256 productId;\r\n        uint256 startDate;\r\n        uint256 endDate;\r\n    }\r\n\r\n    function createBatch(\r\n        string memory _sscc,\r\n        uint256 _producerId,\r\n        string memory _quantity,\r\n        string[] memory _productImageUrls, //  thay i thnh mng\r\n        string memory _certificateImageUrl,\r\n        string memory _farmPlotNumber,\r\n        uint256 _productId,\r\n        uint256 _startDate,\r\n        uint256 _endDate\r\n    ) public returns (uint256) {\r\n        BatchParams memory params = BatchParams({\r\n            sscc: _sscc,\r\n            producerId: _producerId,\r\n            quantity: _quantity,\r\n            productImageUrls: _productImageUrls, //  sa\r\n            certificateImageUrl: _certificateImageUrl,\r\n            farmPlotNumber: _farmPlotNumber,\r\n            productId: _productId,\r\n            startDate: _startDate,\r\n            endDate: _endDate\r\n        });\r\n\r\n        return _createBatch(params);\r\n    }\r\n\r\n    \r\n    function _createBatch(BatchParams memory params) private returns (uint256) {\r\n        require(bytes(params.sscc).length == 18, \"SSCC must be 18 characters long\");\r\n        require(_ssccToBatchId[params.sscc] == 0, \"SSCC already exists\");\r\n        require(bytes(params.quantity).length > 0, \"Quantity must not be empty\");\r\n        require(params.productImageUrls.length > 0, \"At least one product image URL is required\");\r\n        require(bytes(params.certificateImageUrl).length > 0, \"Certificate image URL is required\");\r\n        require(bytes(params.farmPlotNumber).length > 0, \"Farm plot number is required\");\r\n        require(params.productId > 0, \"Product ID must be valid\");\r\n        require(params.startDate > 0, \"Start date is required\");\r\n        require(params.endDate > 0, \"End date is required\");\r\n        require(params.startDate < params.endDate, \"Start date must be before end date\");\r\n\r\n        _batchIdCounter++;\r\n        uint256 newBatchId = _batchIdCounter;\r\n\r\n        uint256 productionDate = block.timestamp;\r\n        // uint256 expiryDate = productionDate + 5 days;\r\n\r\n        bytes32 dataHash = _calculateDataHash(\r\n            params.sscc,\r\n            params.producerId,\r\n            params.quantity,\r\n            productionDate,\r\n         //   expiryDate,\r\n            params.farmPlotNumber,\r\n            params.productId\r\n        );\r\n\r\n        Batch memory newBatch = Batch({\r\n            batchId: newBatchId,\r\n            sscc: params.sscc,\r\n            producerId: params.producerId,\r\n            quantity: params.quantity,\r\n            productionDate: productionDate,\r\n        //    expiryDate: expiryDate,\r\n            startDate: params.startDate,\r\n            endDate: params.endDate,\r\n            status: BatchStatus.PendingApproval,\r\n            productImageUrls: params.productImageUrls, //  sa\r\n            certificateImageUrl: params.certificateImageUrl,\r\n            farmPlotNumber: params.farmPlotNumber,\r\n            dataHash: dataHash,\r\n            productId: params.productId\r\n        });\r\n\r\n        _batches[newBatchId] = newBatch;\r\n        _ssccToBatchId[params.sscc] = newBatchId;\r\n\r\n        emit BatchCreated(newBatchId, params.sscc, params.producerId);\r\n        return newBatchId;\r\n    }\r\n    function _calculateDataHash(\r\n        string memory _sscc,\r\n        uint256 _producerId,\r\n        string memory _quantity,\r\n        uint256 _productionDate,\r\n        // Xa _expiryDate khi y\r\n        string memory _farmPlotNumber,\r\n        uint256 _productId\r\n    ) private pure returns (bytes32) {\r\n        return keccak256(abi.encodePacked(_sscc, _producerId, _quantity, _productionDate, _farmPlotNumber, _productId));\r\n    }\r\n    // hm kim tra sscc  tn ti hay cha \r\n    function ssccExists(string memory sscc) public view returns (bool) {\r\n        return _ssccToBatchId[sscc] != 0;\r\n    }\r\n\r\n    // Hm mi  ly danh sch cc l hng da trn producerId\r\n    function getBatchesByProducer(uint256 producerId) public view returns (Batch[] memory) {\r\n        uint256 count = 0;\r\n        for (uint256 i = 1; i <= _batchIdCounter; i++) {\r\n            if (_batches[i].producerId == producerId) {\r\n                count++;\r\n            }\r\n        }\r\n\r\n        Batch[] memory batches = new Batch[](count);\r\n        uint256 index = 0;\r\n        for (uint256 i = 1; i <= _batchIdCounter; i++) {\r\n            if (_batches[i].producerId == producerId) {\r\n                batches[index] = _batches[i];\r\n                index++;\r\n            }\r\n        }\r\n\r\n        return batches;\r\n    }\r\n}",
  "sourcePath": "D:\\projects\\nckh-be\\blockchain\\contracts\\supplychain.sol",
  "compiler": {
    "name": "solc",
    "version": "0.8.20+commit.a1b79de6.Emscripten.clang"
  },
  "schemaVersion": "3.4.16",
  "updatedAt": "2024-09-05T20:14:22.033Z",
  "networkType": "ethereum",
  "devdoc": {
    "kind": "dev",
    "methods": {},
    "version": 1
  },
  "userdoc": {
    "kind": "user",
    "methods": {},
    "version": 1
  }
}