{
  "contractName": "TraceabilityContract",
  "abi": [
    {
      "inputs": [
        {
          "internalType": "address",
          "name": "_activityLogAddress",
          "type": "address"
        }
      ],
      "stateMutability": "nonpayable",
      "type": "constructor"
    },
    {
      "anonymous": false,
      "inputs": [
        {
          "indexed": true,
          "internalType": "uint256",
          "name": "uid",
          "type": "uint256"
        },
        {
          "indexed": false,
          "internalType": "string",
          "name": "activityName",
          "type": "string"
        },
        {
          "indexed": false,
          "internalType": "string",
          "name": "description",
          "type": "string"
        },
        {
          "indexed": false,
          "internalType": "bool",
          "name": "isSystemGenerated",
          "type": "bool"
        },
        {
          "indexed": false,
          "internalType": "string[]",
          "name": "imageUrls",
          "type": "string[]"
        },
        {
          "indexed": false,
          "internalType": "uint256[]",
          "name": "relatedProductIds",
          "type": "uint256[]"
        }
      ],
      "name": "ActivityLogAdded",
      "type": "event"
    },
    {
      "anonymous": false,
      "inputs": [
        {
          "indexed": true,
          "internalType": "uint256",
          "name": "batchId",
          "type": "uint256"
        },
        {
          "indexed": true,
          "internalType": "uint256",
          "name": "producerId",
          "type": "uint256"
        },
        {
          "indexed": false,
          "internalType": "string",
          "name": "sscc",
          "type": "string"
        }
      ],
      "name": "BatchApproved",
      "type": "event"
    },
    {
      "anonymous": false,
      "inputs": [
        {
          "indexed": true,
          "internalType": "uint256",
          "name": "batchId",
          "type": "uint256"
        },
        {
          "indexed": true,
          "internalType": "uint256",
          "name": "producerId",
          "type": "uint256"
        },
        {
          "indexed": false,
          "internalType": "string",
          "name": "sscc",
          "type": "string"
        }
      ],
      "name": "BatchApprovedForQR",
      "type": "event"
    },
    {
      "anonymous": false,
      "inputs": [
        {
          "indexed": true,
          "internalType": "uint256",
          "name": "batchId",
          "type": "uint256"
        },
        {
          "indexed": false,
          "internalType": "string",
          "name": "sscc",
          "type": "string"
        },
        {
          "indexed": false,
          "internalType": "uint256",
          "name": "producerId",
          "type": "uint256"
        }
      ],
      "name": "BatchCreated",
      "type": "event"
    },
    {
      "anonymous": false,
      "inputs": [
        {
          "indexed": true,
          "internalType": "uint256",
          "name": "batchId",
          "type": "uint256"
        },
        {
          "indexed": false,
          "internalType": "uint256",
          "name": "producerId",
          "type": "uint256"
        },
        {
          "indexed": false,
          "internalType": "string",
          "name": "sscc",
          "type": "string"
        }
      ],
      "name": "BatchRejected",
      "type": "event"
    },
    {
      "anonymous": false,
      "inputs": [
        {
          "indexed": true,
          "internalType": "uint256",
          "name": "batchId",
          "type": "uint256"
        },
        {
          "indexed": false,
          "internalType": "enum TraceabilityContract.BatchStatus",
          "name": "newStatus",
          "type": "uint8"
        }
      ],
      "name": "BatchStatusUpdated",
      "type": "event"
    },
    {
      "anonymous": false,
      "inputs": [
        {
          "indexed": true,
          "internalType": "uint256",
          "name": "batchId",
          "type": "uint256"
        },
        {
          "indexed": false,
          "internalType": "string",
          "name": "participantType",
          "type": "string"
        }
      ],
      "name": "LogParticipantType",
      "type": "event"
    },
    {
      "anonymous": false,
      "inputs": [
        {
          "indexed": true,
          "internalType": "uint256",
          "name": "batchId",
          "type": "uint256"
        },
        {
          "indexed": false,
          "internalType": "uint256",
          "name": "participantId",
          "type": "uint256"
        },
        {
          "indexed": false,
          "internalType": "string",
          "name": "participantType",
          "type": "string"
        },
        {
          "indexed": false,
          "internalType": "string",
          "name": "action",
          "type": "string"
        }
      ],
      "name": "ParticipationRecorded",
      "type": "event"
    },
    {
      "anonymous": false,
      "inputs": [
        {
          "indexed": true,
          "internalType": "uint256",
          "name": "batchId",
          "type": "uint256"
        },
        {
          "indexed": false,
          "internalType": "enum TraceabilityContract.DetailedTransportStatus",
          "name": "newStatus",
          "type": "uint8"
        },
        {
          "indexed": false,
          "internalType": "string",
          "name": "action",
          "type": "string"
        },
        {
          "indexed": false,
          "internalType": "uint256",
          "name": "participantId",
          "type": "uint256"
        },
        {
          "indexed": false,
          "internalType": "string",
          "name": "participantType",
          "type": "string"
        }
      ],
      "name": "TransportStatusUpdated",
      "type": "event"
    },
    {
      "anonymous": false,
      "inputs": [
        {
          "indexed": true,
          "internalType": "uint256",
          "name": "batchId",
          "type": "uint256"
        },
        {
          "indexed": true,
          "internalType": "uint256",
          "name": "warehouseId",
          "type": "uint256"
        }
      ],
      "name": "WarehouseConfirmed",
      "type": "event"
    },
    {
      "inputs": [
        {
          "internalType": "string",
          "name": "_name",
          "type": "string"
        },
        {
          "internalType": "uint256",
          "name": "_producerId",
          "type": "uint256"
        },
        {
          "internalType": "string",
          "name": "_quantity",
          "type": "string"
        },
        {
          "internalType": "string[]",
          "name": "_productImageUrls",
          "type": "string[]"
        },
        {
          "internalType": "string",
          "name": "_certificateImageUrl",
          "type": "string"
        },
        {
          "internalType": "string",
          "name": "_farmPlotNumber",
          "type": "string"
        },
        {
          "internalType": "uint256",
          "name": "_productId",
          "type": "uint256"
        },
        {
          "internalType": "uint256",
          "name": "_startDate",
          "type": "uint256"
        },
        {
          "internalType": "uint256",
          "name": "_endDate",
          "type": "uint256"
        }
      ],
      "name": "createBatch",
      "outputs": [
        {
          "internalType": "uint256",
          "name": "",
          "type": "uint256"
        }
      ],
      "stateMutability": "nonpayable",
      "type": "function"
    },
    {
      "inputs": [
        {
          "internalType": "string",
          "name": "sscc",
          "type": "string"
        }
      ],
      "name": "ssccExists",
      "outputs": [
        {
          "internalType": "bool",
          "name": "",
          "type": "bool"
        }
      ],
      "stateMutability": "view",
      "type": "function",
      "constant": true
    },
    {
      "inputs": [
        {
          "internalType": "uint256",
          "name": "producerId",
          "type": "uint256"
        }
      ],
      "name": "getBatchesByProducer",
      "outputs": [
        {
          "components": [
            {
              "internalType": "uint256",
              "name": "batchId",
              "type": "uint256"
            },
            {
              "internalType": "string",
              "name": "name",
              "type": "string"
            },
            {
              "internalType": "string",
              "name": "sscc",
              "type": "string"
            },
            {
              "internalType": "uint256",
              "name": "producerId",
              "type": "uint256"
            },
            {
              "internalType": "string",
              "name": "quantity",
              "type": "string"
            },
            {
              "internalType": "uint256",
              "name": "productionDate",
              "type": "uint256"
            },
            {
              "internalType": "uint256",
              "name": "startDate",
              "type": "uint256"
            },
            {
              "internalType": "uint256",
              "name": "endDate",
              "type": "uint256"
            },
            {
              "internalType": "enum TraceabilityContract.BatchStatus",
              "name": "status",
              "type": "uint8"
            },
            {
              "internalType": "string[]",
              "name": "productImageUrls",
              "type": "string[]"
            },
            {
              "internalType": "string",
              "name": "certificateImageUrl",
              "type": "string"
            },
            {
              "internalType": "string",
              "name": "farmPlotNumber",
              "type": "string"
            },
            {
              "internalType": "bytes32",
              "name": "dataHash",
              "type": "bytes32"
            },
            {
              "internalType": "uint256",
              "name": "productId",
              "type": "uint256"
            },
            {
              "internalType": "enum TraceabilityContract.TransportStatus",
              "name": "transportStatus",
              "type": "uint8"
            },
            {
              "internalType": "enum TraceabilityContract.DetailedTransportStatus",
              "name": "detailedTransportStatus",
              "type": "uint8"
            },
            {
              "internalType": "uint256",
              "name": "lastTransporterId",
              "type": "uint256"
            },
            {
              "internalType": "bool",
              "name": "warehouseConfirmed",
              "type": "bool"
            }
          ],
          "internalType": "struct TraceabilityContract.Batch[]",
          "name": "",
          "type": "tuple[]"
        }
      ],
      "stateMutability": "view",
      "type": "function",
      "constant": true
    },
    {
      "inputs": [
        {
          "internalType": "uint256",
          "name": "_batchId",
          "type": "uint256"
        },
        {
          "internalType": "enum TraceabilityContract.BatchStatus",
          "name": "_newStatus",
          "type": "uint8"
        }
      ],
      "name": "updateBatchStatus",
      "outputs": [],
      "stateMutability": "nonpayable",
      "type": "function"
    },
    {
      "inputs": [
        {
          "internalType": "uint256",
          "name": "_producerId",
          "type": "uint256"
        }
      ],
      "name": "getPendingBatchesByProducer",
      "outputs": [
        {
          "components": [
            {
              "internalType": "uint256",
              "name": "batchId",
              "type": "uint256"
            },
            {
              "internalType": "string",
              "name": "name",
              "type": "string"
            },
            {
              "internalType": "string",
              "name": "sscc",
              "type": "string"
            },
            {
              "internalType": "uint256",
              "name": "producerId",
              "type": "uint256"
            },
            {
              "internalType": "string",
              "name": "quantity",
              "type": "string"
            },
            {
              "internalType": "uint256",
              "name": "productionDate",
              "type": "uint256"
            },
            {
              "internalType": "uint256",
              "name": "startDate",
              "type": "uint256"
            },
            {
              "internalType": "uint256",
              "name": "endDate",
              "type": "uint256"
            },
            {
              "internalType": "enum TraceabilityContract.BatchStatus",
              "name": "status",
              "type": "uint8"
            },
            {
              "internalType": "string[]",
              "name": "productImageUrls",
              "type": "string[]"
            },
            {
              "internalType": "string",
              "name": "certificateImageUrl",
              "type": "string"
            },
            {
              "internalType": "string",
              "name": "farmPlotNumber",
              "type": "string"
            },
            {
              "internalType": "bytes32",
              "name": "dataHash",
              "type": "bytes32"
            },
            {
              "internalType": "uint256",
              "name": "productId",
              "type": "uint256"
            },
            {
              "internalType": "enum TraceabilityContract.TransportStatus",
              "name": "transportStatus",
              "type": "uint8"
            },
            {
              "internalType": "enum TraceabilityContract.DetailedTransportStatus",
              "name": "detailedTransportStatus",
              "type": "uint8"
            },
            {
              "internalType": "uint256",
              "name": "lastTransporterId",
              "type": "uint256"
            },
            {
              "internalType": "bool",
              "name": "warehouseConfirmed",
              "type": "bool"
            }
          ],
          "internalType": "struct TraceabilityContract.Batch[]",
          "name": "",
          "type": "tuple[]"
        }
      ],
      "stateMutability": "view",
      "type": "function",
      "constant": true
    },
    {
      "inputs": [
        {
          "internalType": "uint256",
          "name": "_producerId",
          "type": "uint256"
        }
      ],
      "name": "getRejectedBatchesByProducer",
      "outputs": [
        {
          "components": [
            {
              "internalType": "uint256",
              "name": "batchId",
              "type": "uint256"
            },
            {
              "internalType": "string",
              "name": "name",
              "type": "string"
            },
            {
              "internalType": "string",
              "name": "sscc",
              "type": "string"
            },
            {
              "internalType": "uint256",
              "name": "producerId",
              "type": "uint256"
            },
            {
              "internalType": "string",
              "name": "quantity",
              "type": "string"
            },
            {
              "internalType": "uint256",
              "name": "productionDate",
              "type": "uint256"
            },
            {
              "internalType": "uint256",
              "name": "startDate",
              "type": "uint256"
            },
            {
              "internalType": "uint256",
              "name": "endDate",
              "type": "uint256"
            },
            {
              "internalType": "enum TraceabilityContract.BatchStatus",
              "name": "status",
              "type": "uint8"
            },
            {
              "internalType": "string[]",
              "name": "productImageUrls",
              "type": "string[]"
            },
            {
              "internalType": "string",
              "name": "certificateImageUrl",
              "type": "string"
            },
            {
              "internalType": "string",
              "name": "farmPlotNumber",
              "type": "string"
            },
            {
              "internalType": "bytes32",
              "name": "dataHash",
              "type": "bytes32"
            },
            {
              "internalType": "uint256",
              "name": "productId",
              "type": "uint256"
            },
            {
              "internalType": "enum TraceabilityContract.TransportStatus",
              "name": "transportStatus",
              "type": "uint8"
            },
            {
              "internalType": "enum TraceabilityContract.DetailedTransportStatus",
              "name": "detailedTransportStatus",
              "type": "uint8"
            },
            {
              "internalType": "uint256",
              "name": "lastTransporterId",
              "type": "uint256"
            },
            {
              "internalType": "bool",
              "name": "warehouseConfirmed",
              "type": "bool"
            }
          ],
          "internalType": "struct TraceabilityContract.Batch[]",
          "name": "",
          "type": "tuple[]"
        }
      ],
      "stateMutability": "view",
      "type": "function",
      "constant": true
    },
    {
      "inputs": [],
      "name": "getAllPendingBatches",
      "outputs": [
        {
          "components": [
            {
              "internalType": "uint256",
              "name": "batchId",
              "type": "uint256"
            },
            {
              "internalType": "string",
              "name": "name",
              "type": "string"
            },
            {
              "internalType": "string",
              "name": "sscc",
              "type": "string"
            },
            {
              "internalType": "uint256",
              "name": "producerId",
              "type": "uint256"
            },
            {
              "internalType": "string",
              "name": "quantity",
              "type": "string"
            },
            {
              "internalType": "uint256",
              "name": "productionDate",
              "type": "uint256"
            },
            {
              "internalType": "uint256",
              "name": "startDate",
              "type": "uint256"
            },
            {
              "internalType": "uint256",
              "name": "endDate",
              "type": "uint256"
            },
            {
              "internalType": "enum TraceabilityContract.BatchStatus",
              "name": "status",
              "type": "uint8"
            },
            {
              "internalType": "string[]",
              "name": "productImageUrls",
              "type": "string[]"
            },
            {
              "internalType": "string",
              "name": "certificateImageUrl",
              "type": "string"
            },
            {
              "internalType": "string",
              "name": "farmPlotNumber",
              "type": "string"
            },
            {
              "internalType": "bytes32",
              "name": "dataHash",
              "type": "bytes32"
            },
            {
              "internalType": "uint256",
              "name": "productId",
              "type": "uint256"
            },
            {
              "internalType": "enum TraceabilityContract.TransportStatus",
              "name": "transportStatus",
              "type": "uint8"
            },
            {
              "internalType": "enum TraceabilityContract.DetailedTransportStatus",
              "name": "detailedTransportStatus",
              "type": "uint8"
            },
            {
              "internalType": "uint256",
              "name": "lastTransporterId",
              "type": "uint256"
            },
            {
              "internalType": "bool",
              "name": "warehouseConfirmed",
              "type": "bool"
            }
          ],
          "internalType": "struct TraceabilityContract.Batch[]",
          "name": "",
          "type": "tuple[]"
        }
      ],
      "stateMutability": "view",
      "type": "function",
      "constant": true
    },
    {
      "inputs": [
        {
          "internalType": "uint256",
          "name": "_batchId",
          "type": "uint256"
        }
      ],
      "name": "getBatchDetails",
      "outputs": [
        {
          "components": [
            {
              "internalType": "uint256",
              "name": "batchId",
              "type": "uint256"
            },
            {
              "internalType": "string",
              "name": "name",
              "type": "string"
            },
            {
              "internalType": "string",
              "name": "sscc",
              "type": "string"
            },
            {
              "internalType": "uint256",
              "name": "producerId",
              "type": "uint256"
            },
            {
              "internalType": "string",
              "name": "quantity",
              "type": "string"
            },
            {
              "internalType": "uint256",
              "name": "productionDate",
              "type": "uint256"
            },
            {
              "internalType": "uint256",
              "name": "startDate",
              "type": "uint256"
            },
            {
              "internalType": "uint256",
              "name": "endDate",
              "type": "uint256"
            },
            {
              "internalType": "enum TraceabilityContract.BatchStatus",
              "name": "status",
              "type": "uint8"
            },
            {
              "internalType": "string[]",
              "name": "productImageUrls",
              "type": "string[]"
            },
            {
              "internalType": "string",
              "name": "certificateImageUrl",
              "type": "string"
            },
            {
              "internalType": "string",
              "name": "farmPlotNumber",
              "type": "string"
            },
            {
              "internalType": "bytes32",
              "name": "dataHash",
              "type": "bytes32"
            },
            {
              "internalType": "uint256",
              "name": "productId",
              "type": "uint256"
            },
            {
              "internalType": "enum TraceabilityContract.TransportStatus",
              "name": "transportStatus",
              "type": "uint8"
            },
            {
              "internalType": "enum TraceabilityContract.DetailedTransportStatus",
              "name": "detailedTransportStatus",
              "type": "uint8"
            },
            {
              "internalType": "uint256",
              "name": "lastTransporterId",
              "type": "uint256"
            },
            {
              "internalType": "bool",
              "name": "warehouseConfirmed",
              "type": "bool"
            }
          ],
          "internalType": "struct TraceabilityContract.Batch",
          "name": "",
          "type": "tuple"
        }
      ],
      "stateMutability": "view",
      "type": "function",
      "constant": true
    },
    {
      "inputs": [],
      "name": "getTotalBatches",
      "outputs": [
        {
          "internalType": "uint256",
          "name": "",
          "type": "uint256"
        }
      ],
      "stateMutability": "view",
      "type": "function",
      "constant": true
    },
    {
      "inputs": [
        {
          "internalType": "uint256",
          "name": "_batchId",
          "type": "uint256"
        },
        {
          "internalType": "uint256",
          "name": "_producerId",
          "type": "uint256"
        }
      ],
      "name": "isProducerOfBatch",
      "outputs": [
        {
          "internalType": "bool",
          "name": "",
          "type": "bool"
        }
      ],
      "stateMutability": "view",
      "type": "function",
      "constant": true
    },
    {
      "inputs": [
        {
          "internalType": "uint256",
          "name": "_batchId",
          "type": "uint256"
        }
      ],
      "name": "approveBatch",
      "outputs": [],
      "stateMutability": "nonpayable",
      "type": "function"
    },
    {
      "inputs": [
        {
          "internalType": "uint256",
          "name": "_batchId",
          "type": "uint256"
        }
      ],
      "name": "rejectBatch",
      "outputs": [],
      "stateMutability": "nonpayable",
      "type": "function"
    },
    {
      "inputs": [
        {
          "internalType": "uint256",
          "name": "_uid",
          "type": "uint256"
        }
      ],
      "name": "getActivityLogs",
      "outputs": [
        {
          "components": [
            {
              "internalType": "uint256",
              "name": "timestamp",
              "type": "uint256"
            },
            {
              "internalType": "uint256",
              "name": "uid",
              "type": "uint256"
            },
            {
              "internalType": "string",
              "name": "activityName",
              "type": "string"
            },
            {
              "internalType": "string",
              "name": "description",
              "type": "string"
            },
            {
              "internalType": "bool",
              "name": "isSystemGenerated",
              "type": "bool"
            },
            {
              "internalType": "string[]",
              "name": "imageUrls",
              "type": "string[]"
            },
            {
              "internalType": "uint256[]",
              "name": "relatedProductIds",
              "type": "uint256[]"
            }
          ],
          "internalType": "struct ActivityLog.ActivityLogEntry[]",
          "name": "",
          "type": "tuple[]"
        }
      ],
      "stateMutability": "view",
      "type": "function",
      "constant": true
    },
    {
      "inputs": [
        {
          "internalType": "uint256",
          "name": "_producerId",
          "type": "uint256"
        }
      ],
      "name": "getApprovedBatchesByProducer",
      "outputs": [
        {
          "components": [
            {
              "internalType": "uint256",
              "name": "batchId",
              "type": "uint256"
            },
            {
              "internalType": "string",
              "name": "name",
              "type": "string"
            },
            {
              "internalType": "string",
              "name": "sscc",
              "type": "string"
            },
            {
              "internalType": "uint256",
              "name": "producerId",
              "type": "uint256"
            },
            {
              "internalType": "string",
              "name": "quantity",
              "type": "string"
            },
            {
              "internalType": "uint256",
              "name": "productionDate",
              "type": "uint256"
            },
            {
              "internalType": "uint256",
              "name": "startDate",
              "type": "uint256"
            },
            {
              "internalType": "uint256",
              "name": "endDate",
              "type": "uint256"
            },
            {
              "internalType": "enum TraceabilityContract.BatchStatus",
              "name": "status",
              "type": "uint8"
            },
            {
              "internalType": "string[]",
              "name": "productImageUrls",
              "type": "string[]"
            },
            {
              "internalType": "string",
              "name": "certificateImageUrl",
              "type": "string"
            },
            {
              "internalType": "string",
              "name": "farmPlotNumber",
              "type": "string"
            },
            {
              "internalType": "bytes32",
              "name": "dataHash",
              "type": "bytes32"
            },
            {
              "internalType": "uint256",
              "name": "productId",
              "type": "uint256"
            },
            {
              "internalType": "enum TraceabilityContract.TransportStatus",
              "name": "transportStatus",
              "type": "uint8"
            },
            {
              "internalType": "enum TraceabilityContract.DetailedTransportStatus",
              "name": "detailedTransportStatus",
              "type": "uint8"
            },
            {
              "internalType": "uint256",
              "name": "lastTransporterId",
              "type": "uint256"
            },
            {
              "internalType": "bool",
              "name": "warehouseConfirmed",
              "type": "bool"
            }
          ],
          "internalType": "struct TraceabilityContract.Batch[]",
          "name": "",
          "type": "tuple[]"
        }
      ],
      "stateMutability": "view",
      "type": "function",
      "constant": true
    },
    {
      "inputs": [
        {
          "internalType": "string",
          "name": "_sscc",
          "type": "string"
        }
      ],
      "name": "getBatchBySSCC",
      "outputs": [
        {
          "components": [
            {
              "internalType": "uint256",
              "name": "batchId",
              "type": "uint256"
            },
            {
              "internalType": "string",
              "name": "name",
              "type": "string"
            },
            {
              "internalType": "string",
              "name": "sscc",
              "type": "string"
            },
            {
              "internalType": "uint256",
              "name": "producerId",
              "type": "uint256"
            },
            {
              "internalType": "string",
              "name": "quantity",
              "type": "string"
            },
            {
              "internalType": "uint256",
              "name": "productionDate",
              "type": "uint256"
            },
            {
              "internalType": "uint256",
              "name": "startDate",
              "type": "uint256"
            },
            {
              "internalType": "uint256",
              "name": "endDate",
              "type": "uint256"
            },
            {
              "internalType": "enum TraceabilityContract.BatchStatus",
              "name": "status",
              "type": "uint8"
            },
            {
              "internalType": "string[]",
              "name": "productImageUrls",
              "type": "string[]"
            },
            {
              "internalType": "string",
              "name": "certificateImageUrl",
              "type": "string"
            },
            {
              "internalType": "string",
              "name": "farmPlotNumber",
              "type": "string"
            },
            {
              "internalType": "bytes32",
              "name": "dataHash",
              "type": "bytes32"
            },
            {
              "internalType": "uint256",
              "name": "productId",
              "type": "uint256"
            },
            {
              "internalType": "enum TraceabilityContract.TransportStatus",
              "name": "transportStatus",
              "type": "uint8"
            },
            {
              "internalType": "enum TraceabilityContract.DetailedTransportStatus",
              "name": "detailedTransportStatus",
              "type": "uint8"
            },
            {
              "internalType": "uint256",
              "name": "lastTransporterId",
              "type": "uint256"
            },
            {
              "internalType": "bool",
              "name": "warehouseConfirmed",
              "type": "bool"
            }
          ],
          "internalType": "struct TraceabilityContract.Batch",
          "name": "",
          "type": "tuple"
        }
      ],
      "stateMutability": "view",
      "type": "function",
      "constant": true
    },
    {
      "inputs": [
        {
          "internalType": "string",
          "name": "_sscc",
          "type": "string"
        }
      ],
      "name": "isValidSSCC",
      "outputs": [
        {
          "internalType": "bool",
          "name": "",
          "type": "bool"
        }
      ],
      "stateMutability": "view",
      "type": "function",
      "constant": true
    },
    {
      "inputs": [
        {
          "internalType": "uint256",
          "name": "_batchId",
          "type": "uint256"
        }
      ],
      "name": "isBatchApproved",
      "outputs": [
        {
          "internalType": "bool",
          "name": "",
          "type": "bool"
        }
      ],
      "stateMutability": "view",
      "type": "function",
      "constant": true
    },
    {
      "inputs": [
        {
          "internalType": "uint256",
          "name": "_batchId",
          "type": "uint256"
        },
        {
          "internalType": "uint256",
          "name": "_participantId",
          "type": "uint256"
        },
        {
          "internalType": "string",
          "name": "_participantType",
          "type": "string"
        },
        {
          "internalType": "string",
          "name": "_action",
          "type": "string"
        }
      ],
      "name": "recordParticipation",
      "outputs": [],
      "stateMutability": "nonpayable",
      "type": "function"
    },
    {
      "inputs": [
        {
          "internalType": "uint256",
          "name": "_batchId",
          "type": "uint256"
        },
        {
          "internalType": "uint256",
          "name": "_participantId",
          "type": "uint256"
        },
        {
          "internalType": "string",
          "name": "_action",
          "type": "string"
        },
        {
          "internalType": "string",
          "name": "_participantType",
          "type": "string"
        }
      ],
      "name": "updateTransportStatus",
      "outputs": [],
      "stateMutability": "nonpayable",
      "type": "function"
    },
    {
      "inputs": [
        {
          "internalType": "string",
          "name": "_sscc",
          "type": "string"
        },
        {
          "internalType": "uint256",
          "name": "_participantId",
          "type": "uint256"
        },
        {
          "internalType": "string",
          "name": "_action",
          "type": "string"
        },
        {
          "internalType": "string",
          "name": "_participantType",
          "type": "string"
        }
      ],
      "name": "updateTransportStatusBySSCC",
      "outputs": [],
      "stateMutability": "nonpayable",
      "type": "function"
    },
    {
      "inputs": [
        {
          "internalType": "uint256",
          "name": "_batchId",
          "type": "uint256"
        },
        {
          "internalType": "uint256",
          "name": "_warehouseId",
          "type": "uint256"
        }
      ],
      "name": "warehouseConfirmation",
      "outputs": [],
      "stateMutability": "nonpayable",
      "type": "function"
    },
    {
      "inputs": [
        {
          "internalType": "uint256",
          "name": "_batchId",
          "type": "uint256"
        },
        {
          "internalType": "uint256",
          "name": "_warehouseId",
          "type": "uint256"
        }
      ],
      "name": "isWarehouseConfirmed",
      "outputs": [
        {
          "internalType": "bool",
          "name": "",
          "type": "bool"
        }
      ],
      "stateMutability": "view",
      "type": "function",
      "constant": true
    },
    {
      "inputs": [
        {
          "internalType": "uint256",
          "name": "_batchId",
          "type": "uint256"
        }
      ],
      "name": "getConfirmedWarehouses",
      "outputs": [
        {
          "internalType": "uint256[]",
          "name": "",
          "type": "uint256[]"
        }
      ],
      "stateMutability": "view",
      "type": "function",
      "constant": true
    },
    {
      "inputs": [
        {
          "internalType": "string",
          "name": "_sscc",
          "type": "string"
        }
      ],
      "name": "getBatchIdBySSCC",
      "outputs": [
        {
          "internalType": "uint256",
          "name": "",
          "type": "uint256"
        }
      ],
      "stateMutability": "view",
      "type": "function",
      "constant": true
    },
    {
      "inputs": [
        {
          "internalType": "uint256",
          "name": "_batchId",
          "type": "uint256"
        }
      ],
      "name": "getDetailedTransportStatus",
      "outputs": [
        {
          "internalType": "enum TraceabilityContract.DetailedTransportStatus",
          "name": "",
          "type": "uint8"
        }
      ],
      "stateMutability": "view",
      "type": "function",
      "constant": true
    },
    {
      "inputs": [
        {
          "internalType": "uint256",
          "name": "_batchId",
          "type": "uint256"
        },
        {
          "internalType": "uint256",
          "name": "_transporterId",
          "type": "uint256"
        }
      ],
      "name": "canStartTransport",
      "outputs": [
        {
          "internalType": "bool",
          "name": "",
          "type": "bool"
        }
      ],
      "stateMutability": "view",
      "type": "function",
      "constant": true
    },
    {
      "inputs": [
        {
          "internalType": "string",
          "name": "_sscc",
          "type": "string"
        }
      ],
      "name": "getTransportHistoryBySSCC",
      "outputs": [
        {
          "components": [
            {
              "internalType": "uint256",
              "name": "participantId",
              "type": "uint256"
            },
            {
              "internalType": "uint256",
              "name": "timestamp",
              "type": "uint256"
            },
            {
              "internalType": "string",
              "name": "action",
              "type": "string"
            },
            {
              "internalType": "string",
              "name": "participantType",
              "type": "string"
            }
          ],
          "internalType": "struct TraceabilityContract.TransportEvent[]",
          "name": "",
          "type": "tuple[]"
        }
      ],
      "stateMutability": "view",
      "type": "function",
      "constant": true
    },
    {
      "inputs": [
        {
          "internalType": "uint256",
          "name": "_batchId",
          "type": "uint256"
        }
      ],
      "name": "getBatchTransportStatus",
      "outputs": [
        {
          "internalType": "enum TraceabilityContract.TransportStatus",
          "name": "",
          "type": "uint8"
        }
      ],
      "stateMutability": "view",
      "type": "function",
      "constant": true
    },
    {
      "inputs": [
        {
          "internalType": "uint256",
          "name": "_batchId",
          "type": "uint256"
        }
      ],
      "name": "getBatchActivityLogs",
      "outputs": [
        {
          "components": [
            {
              "internalType": "uint256",
              "name": "timestamp",
              "type": "uint256"
            },
            {
              "internalType": "uint256",
              "name": "uid",
              "type": "uint256"
            },
            {
              "internalType": "string",
              "name": "activityName",
              "type": "string"
            },
            {
              "internalType": "string",
              "name": "description",
              "type": "string"
            },
            {
              "internalType": "bool",
              "name": "isSystemGenerated",
              "type": "bool"
            },
            {
              "internalType": "string[]",
              "name": "imageUrls",
              "type": "string[]"
            },
            {
              "internalType": "uint256[]",
              "name": "relatedProductIds",
              "type": "uint256[]"
            }
          ],
          "internalType": "struct ActivityLog.ActivityLogEntry[]",
          "name": "",
          "type": "tuple[]"
        }
      ],
      "stateMutability": "view",
      "type": "function",
      "constant": true
    },
    {
      "inputs": [
        {
          "internalType": "string",
          "name": "_sscc",
          "type": "string"
        }
      ],
      "name": "getBatchActivityLogsBySSCC",
      "outputs": [
        {
          "components": [
            {
              "internalType": "uint256",
              "name": "timestamp",
              "type": "uint256"
            },
            {
              "internalType": "uint256",
              "name": "uid",
              "type": "uint256"
            },
            {
              "internalType": "string",
              "name": "activityName",
              "type": "string"
            },
            {
              "internalType": "string",
              "name": "description",
              "type": "string"
            },
            {
              "internalType": "bool",
              "name": "isSystemGenerated",
              "type": "bool"
            },
            {
              "internalType": "string[]",
              "name": "imageUrls",
              "type": "string[]"
            },
            {
              "internalType": "uint256[]",
              "name": "relatedProductIds",
              "type": "uint256[]"
            }
          ],
          "internalType": "struct ActivityLog.ActivityLogEntry[]",
          "name": "",
          "type": "tuple[]"
        }
      ],
      "stateMutability": "view",
      "type": "function",
      "constant": true
    }
  ],
  "bytecode": "0x60806040523480156200001157600080fd5b506040516200600e3803806200600e8339810160408190526200003491620000b5565b6001600160a01b0381166200008f5760405162461bcd60e51b815260206004820152601b60248201527f496e76616c69642041637469766974794c6f6720616464726573730000000000604482015260640160405180910390fd5b600080546001600160a01b0319166001600160a01b0392909216919091179055620000e7565b600060208284031215620000c857600080fd5b81516001600160a01b0381168114620000e057600080fd5b9392505050565b615f1780620000f76000396000f3fe608060405234801561001057600080fd5b506004361061016a5760003560e01c8063040080781461016f5780630d82dcf4146101975780630e6e369c146101ba57806319d6ed3c146101da5780631bb93d1e146101fb5780632db53c9d1461021b57806336c701e11461023b5780633904c26c1461024e57806347e2f8631461026e578063510664ed1461028157806352c88f36146102965780635a9c9d90146102a95780635aa825aa146102bc5780636b0ba8da146102c457806380e32d45146102d757806381f7d4e0146102ea578063838b1da31461031857806397ae6a0e1461032b5780639d47dcc01461034b578063a6ef7b32146101ba578063a7732c961461036b578063a79347861461038b578063b82adf3b1461039e578063d040e18c1461016f578063d043b843146103b1578063d9860bfc146103c4578063da4a3426146103d7578063dd235d9d146103ea578063e561dddc146103fd578063f9b8da0e14610405575b600080fd5b61018261017d366004614dfc565b61042a565b60405190151581526020015b60405180910390f35b6101826101a5366004614e38565b60009081526006602052604090205460ff1690565b6101cd6101c8366004614e38565b610454565b60405161018e9190614f34565b6101ed6101e8366004614dfc565b6104cc565b60405190815260200161018e565b61020e610209366004614dfc565b6104f4565b60405161018e9190615013565b61022e610229366004614e38565b6106e1565b60405161018e919061522c565b6101ed61024936600461533b565b610d24565b61026161025c366004614e38565b610e43565b60405161018e9190615433565b61022e61027c366004614e38565b610f4a565b61029461028f366004615446565b61157f565b005b6102946102a43660046154bc565b611ab0565b6102946102b73660046154f0565b611bef565b61022e611c45565b6102946102d2366004615546565b612249565b61022e6102e5366004614e38565b6125cb565b6101826102f8366004615546565b600091825260086020908152604080842092845291905290205460ff1690565b610294610326366004614e38565b612ba2565b61033e610339366004614e38565b612d15565b60405161018e9190615568565b61035e610359366004614e38565b612d60565b60405161018e9190615576565b61037e610379366004614e38565b61326b565b60405161018e9190615589565b610182610399366004615546565b6132b1565b6102946103ac366004615446565b613338565b61022e6103bf366004614e38565b613425565b61035e6103d2366004614dfc565b613a5e565b6101cd6103e5366004614dfc565b613f80565b6102946103f8366004614e38565b613fce565b6001546101ed565b610182610413366004615546565b600091825260046020526040909120600301541490565b600060058260405161043c919061559c565b90815260405190819003602001902054151592915050565b60005460405163039b8da760e21b8152600481018390526060916001600160a01b031690630e6e369c90602401600060405180830381865afa15801561049e573d6000803e3d6000fd5b505050506040513d6000823e601f3d908101601f191682016040526104c691908101906156ec565b92915050565b60006005826040516104de919061559c565b9081526020016040518091039020549050919050565b60606000600583604051610508919061559c565b9081526020016040518091039020549050806000036105425760405162461bcd60e51b815260040161053990615871565b60405180910390fd5b600081815260036020908152604080832080548251818502810185019093528083529193909284015b828210156106d5578382906000526020600020906004020160405180608001604052908160008201548152602001600182015481526020016002820180546105b2906158b4565b80601f01602080910402602001604051908101604052809291908181526020018280546105de906158b4565b801561062b5780601f106106005761010080835404028352916020019161062b565b820191906000526020600020905b81548152906001019060200180831161060e57829003601f168201915b50505050508152602001600382018054610644906158b4565b80601f0160208091040260200160405190810160405280929190818152602001828054610670906158b4565b80156106bd5780601f10610692576101008083540402835291602001916106bd565b820191906000526020600020905b8154815290600101906020018083116106a057829003601f168201915b5050505050815250508152602001906001019061056b565b50505050915050919050565b6060600060015b600154811161075b57600081815260046020526040902060030154841480156107365750600260008281526004602052604090206008015460ff166002811115610734576107346150a1565b145b15610749578161074581615904565b9250505b8061075381615904565b9150506106e8565b506000816001600160401b0381111561077657610776614d11565b6040519080825280602002602001820160405280156107af57816020015b61079c614b9c565b8152602001906001900390816107945790505b509050600060015b6001548111610d1a57600081815260046020526040902060030154861480156108055750600260008281526004602052604090206008015460ff166002811115610803576108036150a1565b145b15610d0857600460008281526020019081526020016000206040518061024001604052908160008201548152602001600182018054610843906158b4565b80601f016020809104026020016040519081016040528092919081815260200182805461086f906158b4565b80156108bc5780601f10610891576101008083540402835291602001916108bc565b820191906000526020600020905b81548152906001019060200180831161089f57829003601f168201915b505050505081526020016002820180546108d5906158b4565b80601f0160208091040260200160405190810160405280929190818152602001828054610901906158b4565b801561094e5780601f106109235761010080835404028352916020019161094e565b820191906000526020600020905b81548152906001019060200180831161093157829003601f168201915b5050505050815260200160038201548152602001600482018054610971906158b4565b80601f016020809104026020016040519081016040528092919081815260200182805461099d906158b4565b80156109ea5780601f106109bf576101008083540402835291602001916109ea565b820191906000526020600020905b8154815290600101906020018083116109cd57829003601f168201915b5050509183525050600582015460208201526006820154604082015260078201546060820152600882015460809091019060ff166002811115610a2f57610a2f6150a1565b6002811115610a4057610a406150a1565b815260200160098201805480602002602001604051908101604052809291908181526020016000905b82821015610b15578382906000526020600020018054610a88906158b4565b80601f0160208091040260200160405190810160405280929190818152602001828054610ab4906158b4565b8015610b015780601f10610ad657610100808354040283529160200191610b01565b820191906000526020600020905b815481529060010190602001808311610ae457829003601f168201915b505050505081526020019060010190610a69565b505050508152602001600a82018054610b2d906158b4565b80601f0160208091040260200160405190810160405280929190818152602001828054610b59906158b4565b8015610ba65780601f10610b7b57610100808354040283529160200191610ba6565b820191906000526020600020905b815481529060010190602001808311610b8957829003601f168201915b50505050508152602001600b82018054610bbf906158b4565b80601f0160208091040260200160405190810160405280929190818152602001828054610beb906158b4565b8015610c385780601f10610c0d57610100808354040283529160200191610c38565b820191906000526020600020905b815481529060010190602001808311610c1b57829003601f168201915b5050509183525050600c8201546020820152600d8201546040820152600e82015460609091019060ff166002811115610c7357610c736150a1565b6002811115610c8457610c846150a1565b8152602001600e820160019054906101000a900460ff166003811115610cac57610cac6150a1565b6003811115610cbd57610cbd6150a1565b8152600f820154602082015260109091015460ff1615156040909101528351849084908110610cee57610cee61591d565b60200260200101819052508180610d0490615904565b9250505b80610d1281615904565b9150506107b7565b5090949350505050565b600080610d308a6141a6565b905060006040518061014001604052808d81526020018381526020018c81526020018b81526020018a81526020018981526020018881526020018781526020018681526020018581525090506000610d8782614279565b60408051600180825281830190925291925060009190602080830190803683370190505090508781600081518110610dc157610dc161591d565b602002602001018181525050610e328d6040518060400160405280600d81526020016c10985d18da0810dc99585d1959609a1b8152506040518060400160405280601c81526020017b10481b995dc818985d18da081a185cc81899595b8818dc99585d195960221b815250846148e2565b509c9b505050505050505050505050565b6060600060015b6002548111610e9557600084815260086020908152604080832084845290915290205460ff1615610e835781610e7f81615904565b9250505b80610e8d81615904565b915050610e4a565b506000816001600160401b03811115610eb057610eb0614d11565b604051908082528060200260200182016040528015610ed9578160200160208202803683370190505b509050600060015b6002548111610d1a57600086815260086020908152604080832084845290915290205460ff1615610f385780838381518110610f1f57610f1f61591d565b602090810291909101015281610f3481615904565b9250505b80610f4281615904565b915050610ee1565b6060600060015b6001548111610fc25760008181526004602052604090206003015484148015610f9d575060008181526004602052604081206008015460ff166002811115610f9b57610f9b6150a1565b145b15610fb05781610fac81615904565b9250505b80610fba81615904565b915050610f51565b506000816001600160401b03811115610fdd57610fdd614d11565b60405190808252806020026020018201604052801561101657816020015b611003614b9c565b815260200190600190039081610ffb5790505b509050600060015b6001548111610d1a576000818152600460205260409020600301548614801561106a575060008181526004602052604081206008015460ff166002811115611068576110686150a1565b145b1561156d576004600082815260200190815260200160002060405180610240016040529081600082015481526020016001820180546110a8906158b4565b80601f01602080910402602001604051908101604052809291908181526020018280546110d4906158b4565b80156111215780601f106110f657610100808354040283529160200191611121565b820191906000526020600020905b81548152906001019060200180831161110457829003601f168201915b5050505050815260200160028201805461113a906158b4565b80601f0160208091040260200160405190810160405280929190818152602001828054611166906158b4565b80156111b35780601f10611188576101008083540402835291602001916111b3565b820191906000526020600020905b81548152906001019060200180831161119657829003601f168201915b50505050508152602001600382015481526020016004820180546111d6906158b4565b80601f0160208091040260200160405190810160405280929190818152602001828054611202906158b4565b801561124f5780601f106112245761010080835404028352916020019161124f565b820191906000526020600020905b81548152906001019060200180831161123257829003601f168201915b5050509183525050600582015460208201526006820154604082015260078201546060820152600882015460809091019060ff166002811115611294576112946150a1565b60028111156112a5576112a56150a1565b815260200160098201805480602002602001604051908101604052809291908181526020016000905b8282101561137a5783829060005260206000200180546112ed906158b4565b80601f0160208091040260200160405190810160405280929190818152602001828054611319906158b4565b80156113665780601f1061133b57610100808354040283529160200191611366565b820191906000526020600020905b81548152906001019060200180831161134957829003601f168201915b5050505050815260200190600101906112ce565b505050508152602001600a82018054611392906158b4565b80601f01602080910402602001604051908101604052809291908181526020018280546113be906158b4565b801561140b5780601f106113e05761010080835404028352916020019161140b565b820191906000526020600020905b8154815290600101906020018083116113ee57829003601f168201915b50505050508152602001600b82018054611424906158b4565b80601f0160208091040260200160405190810160405280929190818152602001828054611450906158b4565b801561149d5780601f106114725761010080835404028352916020019161149d565b820191906000526020600020905b81548152906001019060200180831161148057829003601f168201915b5050509183525050600c8201546020820152600d8201546040820152600e82015460609091019060ff1660028111156114d8576114d86150a1565b60028111156114e9576114e96150a1565b8152602001600e820160019054906101000a900460ff166003811115611511576115116150a1565b6003811115611522576115226150a1565b8152600f820154602082015260109091015460ff16151560409091015283518490849081106115535761155361591d565b6020026020010181905250818061156990615904565b9250505b8061157781615904565b91505061101e565b6040516a2a3930b739b837b93a32b960a91b6020820152602b0160405160208183030381529060405280519060200120816040516020016115c0919061559c565b60405160208183030381529060405280519060200120148061163457506040516857617265686f75736560b81b6020820152602901604051602081830303815290604052805190602001208160405160200161161c919061559c565b60405160208183030381529060405280519060200120145b61167b5760405162461bcd60e51b8152602060048201526018602482015277496e76616c6964207061727469636970616e74207479706560401b6044820152606401610539565b60008481526004602052604081205490036116a85760405162461bcd60e51b815260040161053990615933565b600160008581526004602052604090206008015460ff1660028111156116d0576116d06150a1565b146117165760405162461bcd60e51b815260206004820152601660248201527510985d18da081b5d5cdd08189948185c1c1c9bdd995960521b6044820152606401610539565b60408051608081018252848152426020808301918252828401868152606084018690526000898152600383529485208054600181810183559187529290952084516004909302019182559151938101939093555190918291600282019061177d90826159a7565b506060820151600382019061179290826159a7565b5050604051712130ba103230ba903b30b71031b43abcb2b760711b6020820152603201905060405160208183030381529060405280519060200120836040516020016117de919061559c565b6040516020818303038152906040528051906020012003611823576000858152600460205260409020600e8101805461ffff1916610101179055600f018490556119c0565b604051722a30b690323ab733903b30b71031b43abcb2b760691b6020820152603301604051602081830303815290604052805190602001208360405160200161186c919061559c565b60405160208183030381529060405280519060200120036118b2576000858152600460205260409020600e0180546002919061ff001916610100835b02179055506119c0565b604051722a34b2b8103a3ab1903b30b71031b43abcb2b760691b602082015260330160405160208183030381529060405280519060200120836040516020016118fb919061559c565b604051602081830303815290604052805190602001200361193b576000858152600460205260409020600e0180546001919061ff001916610100836118a8565b604051742437b0b7103a3430b734103b30b71031b43abcb2b760591b60208201526035016040516020818303038152906040528051906020012083604051602001611986919061559c565b60405160208183030381529060405280519060200120036119c0576000858152600460205260409020600e01805461ffff19166103021790555b60008581526004602052604090819020600e0154905186917f946c8fa0a82d640c200413cf1c62f9401d34b0f1435a263a281ff0fd09030ae891611a1291610100900460ff1690879089908890615a66565b60405180910390a2604080516001808252818301909252600091602080830190803683375050506000878152600460205260408120600d0154825192935091839190611a6057611a6061591d565b602002602001018181525050611aa88660405180604001604052806018815260200177151c985b9cdc1bdc9d0814dd185d1d5cc8155c19185d195960421b81525086846148e2565b505050505050565b6000828152600460205260408120549003611add5760405162461bcd60e51b815260040161053990615933565b6000828152600460205260409020600801805482919060ff19166001836002811115611b0b57611b0b6150a1565b0217905550817fcf4d4f3dcd5294f4d19269f489155c2187699f4a9fb9004b6a303752b00b282f82604051611b409190615589565b60405180910390a2604080516001808252818301909252600091602080830190803683375050506000848152600460205260408120600d0154825192935091839190611b8e57611b8e61591d565b602002602001018181525050611bea836040518060400160405280601481526020017310985d18da0814dd185d1d5cc8155c19185d195960621b815250604051806060016040528060218152602001615e9560219139846148e2565b505050565b6000600585604051611c01919061559c565b908152602001604051809103902054905080600003611c325760405162461bcd60e51b815260040161053990615871565b611c3e8185858561157f565b5050505050565b6060600060015b6001548111611ca05760008181526004602052604081206008015460ff166002811115611c7b57611c7b6150a1565b03611c8e5781611c8a81615904565b9250505b80611c9881615904565b915050611c4c565b506000816001600160401b03811115611cbb57611cbb614d11565b604051908082528060200260200182016040528015611cf457816020015b611ce1614b9c565b815260200190600190039081611cd95790505b509050600060015b60015481116122405760008181526004602052604081206008015460ff166002811115611d2b57611d2b6150a1565b0361222e57600460008281526020019081526020016000206040518061024001604052908160008201548152602001600182018054611d69906158b4565b80601f0160208091040260200160405190810160405280929190818152602001828054611d95906158b4565b8015611de25780601f10611db757610100808354040283529160200191611de2565b820191906000526020600020905b815481529060010190602001808311611dc557829003601f168201915b50505050508152602001600282018054611dfb906158b4565b80601f0160208091040260200160405190810160405280929190818152602001828054611e27906158b4565b8015611e745780601f10611e4957610100808354040283529160200191611e74565b820191906000526020600020905b815481529060010190602001808311611e5757829003601f168201915b5050505050815260200160038201548152602001600482018054611e97906158b4565b80601f0160208091040260200160405190810160405280929190818152602001828054611ec3906158b4565b8015611f105780601f10611ee557610100808354040283529160200191611f10565b820191906000526020600020905b815481529060010190602001808311611ef357829003601f168201915b5050509183525050600582015460208201526006820154604082015260078201546060820152600882015460809091019060ff166002811115611f5557611f556150a1565b6002811115611f6657611f666150a1565b815260200160098201805480602002602001604051908101604052809291908181526020016000905b8282101561203b578382906000526020600020018054611fae906158b4565b80601f0160208091040260200160405190810160405280929190818152602001828054611fda906158b4565b80156120275780601f10611ffc57610100808354040283529160200191612027565b820191906000526020600020905b81548152906001019060200180831161200a57829003601f168201915b505050505081526020019060010190611f8f565b505050508152602001600a82018054612053906158b4565b80601f016020809104026020016040519081016040528092919081815260200182805461207f906158b4565b80156120cc5780601f106120a1576101008083540402835291602001916120cc565b820191906000526020600020905b8154815290600101906020018083116120af57829003601f168201915b50505050508152602001600b820180546120e5906158b4565b80601f0160208091040260200160405190810160405280929190818152602001828054612111906158b4565b801561215e5780601f106121335761010080835404028352916020019161215e565b820191906000526020600020905b81548152906001019060200180831161214157829003601f168201915b5050509183525050600c8201546020820152600d8201546040820152600e82015460609091019060ff166002811115612199576121996150a1565b60028111156121aa576121aa6150a1565b8152602001600e820160019054906101000a900460ff1660038111156121d2576121d26150a1565b60038111156121e3576121e36150a1565b8152600f820154602082015260109091015460ff16151560409091015283518490849081106122145761221461591d565b6020026020010181905250818061222a90615904565b9250505b8061223881615904565b915050611cfc565b50909392505050565b60008281526004602052604081205490036122765760405162461bcd60e51b815260040161053990615933565b60026000838152600460205260409020600e015460ff16600281111561229e5761229e6150a1565b146123095760405162461bcd60e51b815260206004820152603560248201527f4261746368206d7573742062652064656c697665726564206265666f7265207760448201527430b932b437bab9b29031b7b73334b936b0ba34b7b760591b6064820152608401610539565b60036000838152600460205260409020600e0154610100900460ff166003811115612336576123366150a1565b1461238d5760405162461bcd60e51b815260206004820152602160248201527f4261746368206d75737420626520696e2044656c6976657265642073746174756044820152607360f81b6064820152608401610539565b600082815260086020908152604080832084845290915290205460ff161561240f5760405162461bcd60e51b815260206004820152602f60248201527f546869732077617265686f7573652068617320616c726561647920636f6e666960448201526e0e4dacac840e8d0d2e640c4c2e8c6d608b1b6064820152608401610539565b60008281526008602090815260408083208484528252808320805460ff19166001908117909155815160808101835285815282518084018452600981526857617265686f75736560b81b81860152818501908152428285015283518085018552601e81527f436f6e6669726d656420726563656970742061742077617265686f7573650000818701526060830152878652600785529285208054808401825590865293909420845160049094020192835590518392918201906124d290826159a7565b5060408201516002820155606082015160038201906124f190826159a7565b505060405183915084907f5a0ca583abbe4762e00286f277fb259ed4a722726e02cd87aa38d3b2eeead4f590600090a3604080516001808252818301909252600091602080830190803683375050506000858152600460205260408120600d01548251929350918391906125675761256761591d565b6020026020010181815250506125c584604051806040016040528060168152602001752bb0b932b437bab9b29021b7b73334b936b0ba34b7b760511b8152506040518060600160405280602c8152602001615eb6602c9139846148e2565b50505050565b6060600060015b60015481116126145760008181526004602052604090206003015484900361260257816125fe81615904565b9250505b8061260c81615904565b9150506125d2565b506000816001600160401b0381111561262f5761262f614d11565b60405190808252806020026020018201604052801561266857816020015b612655614b9c565b81526020019060019003908161264d5790505b509050600060015b6001548111610d1a57600081815260046020526040902060030154869003612b90576004600082815260200190815260200160002060405180610240016040529081600082015481526020016001820180546126cb906158b4565b80601f01602080910402602001604051908101604052809291908181526020018280546126f7906158b4565b80156127445780601f1061271957610100808354040283529160200191612744565b820191906000526020600020905b81548152906001019060200180831161272757829003601f168201915b5050505050815260200160028201805461275d906158b4565b80601f0160208091040260200160405190810160405280929190818152602001828054612789906158b4565b80156127d65780601f106127ab576101008083540402835291602001916127d6565b820191906000526020600020905b8154815290600101906020018083116127b957829003601f168201915b50505050508152602001600382015481526020016004820180546127f9906158b4565b80601f0160208091040260200160405190810160405280929190818152602001828054612825906158b4565b80156128725780601f1061284757610100808354040283529160200191612872565b820191906000526020600020905b81548152906001019060200180831161285557829003601f168201915b5050509183525050600582015460208201526006820154604082015260078201546060820152600882015460809091019060ff1660028111156128b7576128b76150a1565b60028111156128c8576128c86150a1565b815260200160098201805480602002602001604051908101604052809291908181526020016000905b8282101561299d578382906000526020600020018054612910906158b4565b80601f016020809104026020016040519081016040528092919081815260200182805461293c906158b4565b80156129895780601f1061295e57610100808354040283529160200191612989565b820191906000526020600020905b81548152906001019060200180831161296c57829003601f168201915b5050505050815260200190600101906128f1565b505050508152602001600a820180546129b5906158b4565b80601f01602080910402602001604051908101604052809291908181526020018280546129e1906158b4565b8015612a2e5780601f10612a0357610100808354040283529160200191612a2e565b820191906000526020600020905b815481529060010190602001808311612a1157829003601f168201915b50505050508152602001600b82018054612a47906158b4565b80601f0160208091040260200160405190810160405280929190818152602001828054612a73906158b4565b8015612ac05780601f10612a9557610100808354040283529160200191612ac0565b820191906000526020600020905b815481529060010190602001808311612aa357829003601f168201915b5050509183525050600c8201546020820152600d8201546040820152600e82015460609091019060ff166002811115612afb57612afb6150a1565b6002811115612b0c57612b0c6150a1565b8152602001600e820160019054906101000a900460ff166003811115612b3457612b346150a1565b6003811115612b4557612b456150a1565b8152600f820154602082015260109091015460ff1615156040909101528351849084908110612b7657612b7661591d565b60200260200101819052508180612b8c90615904565b9250505b80612b9a81615904565b915050612670565b6000818152600460205260408120549003612bcf5760405162461bcd60e51b815260040161053990615933565b60008181526004602052604081206008015460ff166002811115612bf557612bf56150a1565b14612c125760405162461bcd60e51b815260040161053990615aa9565b6000818152600460205260409081902060088101805460ff191660029081179091556003820154925184937ffd30c1d70626cdbca41a738198079b1d57c2a7d36d52b79ae4b4bcc980506f7693612c6d939192910190615b5d565b60405180910390a2604080516001808252818301909252600091602080830190803683375050506000838152600460205260408120600d0154825192935091839190612cbb57612cbb61591d565b602002602001018181525050612d11826040518060400160405280600e81526020016d10985d18da0814995a9958dd195960921b815250604051806060016040528060278152602001615e4760279139846148e2565b5050565b6000818152600460205260408120548103612d425760405162461bcd60e51b815260040161053990615933565b506000908152600460205260409020600e0154610100900460ff1690565b612d68614b9c565b6000828152600460205260408120549003612d955760405162461bcd60e51b815260040161053990615933565b600460008381526020019081526020016000206040518061024001604052908160008201548152602001600182018054612dce906158b4565b80601f0160208091040260200160405190810160405280929190818152602001828054612dfa906158b4565b8015612e475780601f10612e1c57610100808354040283529160200191612e47565b820191906000526020600020905b815481529060010190602001808311612e2a57829003601f168201915b50505050508152602001600282018054612e60906158b4565b80601f0160208091040260200160405190810160405280929190818152602001828054612e8c906158b4565b8015612ed95780601f10612eae57610100808354040283529160200191612ed9565b820191906000526020600020905b815481529060010190602001808311612ebc57829003601f168201915b5050505050815260200160038201548152602001600482018054612efc906158b4565b80601f0160208091040260200160405190810160405280929190818152602001828054612f28906158b4565b8015612f755780601f10612f4a57610100808354040283529160200191612f75565b820191906000526020600020905b815481529060010190602001808311612f5857829003601f168201915b5050509183525050600582015460208201526006820154604082015260078201546060820152600882015460809091019060ff166002811115612fba57612fba6150a1565b6002811115612fcb57612fcb6150a1565b815260200160098201805480602002602001604051908101604052809291908181526020016000905b828210156130a0578382906000526020600020018054613013906158b4565b80601f016020809104026020016040519081016040528092919081815260200182805461303f906158b4565b801561308c5780601f106130615761010080835404028352916020019161308c565b820191906000526020600020905b81548152906001019060200180831161306f57829003601f168201915b505050505081526020019060010190612ff4565b505050508152602001600a820180546130b8906158b4565b80601f01602080910402602001604051908101604052809291908181526020018280546130e4906158b4565b80156131315780601f1061310657610100808354040283529160200191613131565b820191906000526020600020905b81548152906001019060200180831161311457829003601f168201915b50505050508152602001600b8201805461314a906158b4565b80601f0160208091040260200160405190810160405280929190818152602001828054613176906158b4565b80156131c35780601f10613198576101008083540402835291602001916131c3565b820191906000526020600020905b8154815290600101906020018083116131a657829003601f168201915b5050509183525050600c8201546020820152600d8201546040820152600e82015460609091019060ff1660028111156131fe576131fe6150a1565b600281111561320f5761320f6150a1565b8152602001600e820160019054906101000a900460ff166003811115613237576132376150a1565b6003811115613248576132486150a1565b8152600f820154602082015260109091015460ff16151560409091015292915050565b60008181526004602052604081205481036132985760405162461bcd60e51b815260040161053990615933565b506000908152600460205260409020600e015460ff1690565b6000806000848152600460205260409020600e0154610100900460ff1660038111156132df576132df6150a1565b1480613331575060036000848152600460205260409020600e0154610100900460ff166003811115613313576133136150a1565b14801561333157506000838152600460205260409020600f01548214155b9392505050565b60008481526004602052604081205490036133655760405162461bcd60e51b815260040161053990615933565b600084815260076020908152604080832081516080810183528781528084018781524293820193909352606081018690528154600181810184559286529390942084516004909402019283559051908201906133c190826159a7565b5060408201516002820155606082015160038201906133e090826159a7565b505050837fe5fd3732b00b2878e55e64cdde6c59b6566f044952fe6b2f36658364da9b561c84848460405161341793929190615b76565b60405180910390a250505050565b6060600060015b600154811161349f576000818152600460205260409020600301548414801561347a5750600160008281526004602052604090206008015460ff166002811115613478576134786150a1565b145b1561348d578161348981615904565b9250505b8061349781615904565b91505061342c565b506000816001600160401b038111156134ba576134ba614d11565b6040519080825280602002602001820160405280156134f357816020015b6134e0614b9c565b8152602001906001900390816134d85790505b509050600060015b6001548111610d1a57600081815260046020526040902060030154861480156135495750600160008281526004602052604090206008015460ff166002811115613547576135476150a1565b145b15613a4c57600460008281526020019081526020016000206040518061024001604052908160008201548152602001600182018054613587906158b4565b80601f01602080910402602001604051908101604052809291908181526020018280546135b3906158b4565b80156136005780601f106135d557610100808354040283529160200191613600565b820191906000526020600020905b8154815290600101906020018083116135e357829003601f168201915b50505050508152602001600282018054613619906158b4565b80601f0160208091040260200160405190810160405280929190818152602001828054613645906158b4565b80156136925780601f1061366757610100808354040283529160200191613692565b820191906000526020600020905b81548152906001019060200180831161367557829003601f168201915b50505050508152602001600382015481526020016004820180546136b5906158b4565b80601f01602080910402602001604051908101604052809291908181526020018280546136e1906158b4565b801561372e5780601f106137035761010080835404028352916020019161372e565b820191906000526020600020905b81548152906001019060200180831161371157829003601f168201915b5050509183525050600582015460208201526006820154604082015260078201546060820152600882015460809091019060ff166002811115613773576137736150a1565b6002811115613784576137846150a1565b815260200160098201805480602002602001604051908101604052809291908181526020016000905b828210156138595783829060005260206000200180546137cc906158b4565b80601f01602080910402602001604051908101604052809291908181526020018280546137f8906158b4565b80156138455780601f1061381a57610100808354040283529160200191613845565b820191906000526020600020905b81548152906001019060200180831161382857829003601f168201915b5050505050815260200190600101906137ad565b505050508152602001600a82018054613871906158b4565b80601f016020809104026020016040519081016040528092919081815260200182805461389d906158b4565b80156138ea5780601f106138bf576101008083540402835291602001916138ea565b820191906000526020600020905b8154815290600101906020018083116138cd57829003601f168201915b50505050508152602001600b82018054613903906158b4565b80601f016020809104026020016040519081016040528092919081815260200182805461392f906158b4565b801561397c5780601f106139515761010080835404028352916020019161397c565b820191906000526020600020905b81548152906001019060200180831161395f57829003601f168201915b5050509183525050600c8201546020820152600d8201546040820152600e82015460609091019060ff1660028111156139b7576139b76150a1565b60028111156139c8576139c86150a1565b8152602001600e820160019054906101000a900460ff1660038111156139f0576139f06150a1565b6003811115613a0157613a016150a1565b8152600f820154602082015260109091015460ff1615156040909101528351849084908110613a3257613a3261591d565b60200260200101819052508180613a4890615904565b9250505b80613a5681615904565b9150506134fb565b613a66614b9c565b6000600583604051613a78919061559c565b908152602001604051809103902054905080600003613aa95760405162461bcd60e51b815260040161053990615871565b600460008281526020019081526020016000206040518061024001604052908160008201548152602001600182018054613ae2906158b4565b80601f0160208091040260200160405190810160405280929190818152602001828054613b0e906158b4565b8015613b5b5780601f10613b3057610100808354040283529160200191613b5b565b820191906000526020600020905b815481529060010190602001808311613b3e57829003601f168201915b50505050508152602001600282018054613b74906158b4565b80601f0160208091040260200160405190810160405280929190818152602001828054613ba0906158b4565b8015613bed5780601f10613bc257610100808354040283529160200191613bed565b820191906000526020600020905b815481529060010190602001808311613bd057829003601f168201915b5050505050815260200160038201548152602001600482018054613c10906158b4565b80601f0160208091040260200160405190810160405280929190818152602001828054613c3c906158b4565b8015613c895780601f10613c5e57610100808354040283529160200191613c89565b820191906000526020600020905b815481529060010190602001808311613c6c57829003601f168201915b5050509183525050600582015460208201526006820154604082015260078201546060820152600882015460809091019060ff166002811115613cce57613cce6150a1565b6002811115613cdf57613cdf6150a1565b815260200160098201805480602002602001604051908101604052809291908181526020016000905b82821015613db4578382906000526020600020018054613d27906158b4565b80601f0160208091040260200160405190810160405280929190818152602001828054613d53906158b4565b8015613da05780601f10613d7557610100808354040283529160200191613da0565b820191906000526020600020905b815481529060010190602001808311613d8357829003601f168201915b505050505081526020019060010190613d08565b505050508152602001600a82018054613dcc906158b4565b80601f0160208091040260200160405190810160405280929190818152602001828054613df8906158b4565b8015613e455780601f10613e1a57610100808354040283529160200191613e45565b820191906000526020600020905b815481529060010190602001808311613e2857829003601f168201915b50505050508152602001600b82018054613e5e906158b4565b80601f0160208091040260200160405190810160405280929190818152602001828054613e8a906158b4565b8015613ed75780601f10613eac57610100808354040283529160200191613ed7565b820191906000526020600020905b815481529060010190602001808311613eba57829003601f168201915b5050509183525050600c8201546020820152600d8201546040820152600e82015460609091019060ff166002811115613f1257613f126150a1565b6002811115613f2357613f236150a1565b8152602001600e820160019054906101000a900460ff166003811115613f4b57613f4b6150a1565b6003811115613f5c57613f5c6150a1565b8152600f820154602082015260109091015460ff1615156040909101529392505050565b60606000600583604051613f94919061559c565b908152602001604051809103902054905080600003613fc55760405162461bcd60e51b815260040161053990615871565b61333181610454565b6000818152600460205260408120549003613ffb5760405162461bcd60e51b815260040161053990615933565b60008181526004602052604081206008015460ff166002811115614021576140216150a1565b1461403e5760405162461bcd60e51b815260040161053990615aa9565b6000818152600460208181526040808420600881018054600160ff199182168117909255600685529583902080549096161790945591905260038201549051909183917f1a621270a25ae67b5e557b98be27914cd1de793b7ca49110be85cb5aaa169c9b916140b291600290910190615bab565b60405180910390a3600081815260046020526040908190206003810154915183917f309958f3629dbb8b1c3fb39cc2ffd4759c619a8c6c7927159d9e608c99ae4632916141029160020190615bab565b60405180910390a3604080516001808252818301909252600091602080830190803683375050506000838152600460205260408120600d01548251929350918391906141505761415061591d565b602002602001018181525050612d11826040518060400160405280600e81526020016d10985d18da08105c1c1c9bdd995960921b815250604051806060016040528060278152602001615e6e60279139846148e2565b604080518082019091526002815261030360f41b602082015260609060006141cd84614985565b604080514260208083019190915281830188905282518083038401815260609092019092528051910120909150600061420582614985565b9050600084848360405160200161421e93929190615bbe565b6040516020818303038152906040529050600061423a82614ab0565b905060008261424b8360ff16614985565b60405160200161425c929190615c01565b60408051601f198184030181529190529998505050505050505050565b60006005826020015160405161428f919061559c565b9081526020016040518091039020546000146142e35760405162461bcd60e51b81526020600482015260136024820152725353434320616c72656164792065786973747360681b6044820152606401610539565b6000826060015151116143355760405162461bcd60e51b815260206004820152601a6024820152795175616e74697479206d757374206e6f7420626520656d70747960301b6044820152606401610539565b60008260800151511161439d5760405162461bcd60e51b815260206004820152602a60248201527f4174206c65617374206f6e652070726f6475637420696d6167652055524c20696044820152691cc81c995c5d5a5c995960b21b6064820152608401610539565b60008260a0015151116143fc5760405162461bcd60e51b815260206004820152602160248201527f436572746966696361746520696d6167652055524c20697320726571756972656044820152601960fa1b6064820152608401610539565b60008260c0015151116144505760405162461bcd60e51b815260206004820152601c60248201527b11985c9b481c1b1bdd081b9d5b58995c881a5cc81c995c5d5a5c995960221b6044820152606401610539565b60008260e001511161449f5760405162461bcd60e51b8152602060048201526018602482015277141c9bd91d58dd081251081b5d5cdd081899481d985b1a5960421b6044820152606401610539565b6000826101000151116144ed5760405162461bcd60e51b815260206004820152601660248201527514dd185c9d0819185d19481a5cc81c995c5d5a5c995960521b6044820152606401610539565b6000826101200151116145395760405162461bcd60e51b8152602060048201526014602482015273115b990819185d19481a5cc81c995c5d5a5c995960621b6044820152606401610539565b8161012001518261010001511061459d5760405162461bcd60e51b815260206004820152602260248201527f53746172742064617465206d757374206265206265666f726520656e64206461604482015261746560f01b6064820152608401610539565b8151516145eb5760405162461bcd60e51b815260206004820152601c60248201527b4261746368206e616d65206d757374206e6f7420626520656d70747960201b6044820152606401610539565b600180549060006145fb83615904565b91905055506000600154905060004290506000614635856020015186604001518760600151858960c001518a60e001518b60000151614b5a565b905060006040518061024001604052808581526020018760000151815260200187602001518152602001876040015181526020018760600151815260200184815260200187610100015181526020018761012001518152602001600060028111156146a2576146a26150a1565b8152608080890151602083015260a0808a0151604084015260c0808b0151606085015291830186905260e08a0151908301520160008152602001600081526000602080830182905260409283018290528782526004815291902082518155908201519192508291600182019061471890826159a7565b506040820151600282019061472d90826159a7565b50606082015160038201556080820151600482019061474c90826159a7565b5060a0820151600582015560c0820151600682015560e0820151600782015561010082015160088201805460ff1916600183600281111561478f5761478f6150a1565b021790555061012082015180516147b0916009840191602090910190614c4c565b50610140820151600a8201906147c690826159a7565b50610160820151600b8201906147dc90826159a7565b50610180820151600c8201556101a0820151600d8201556101c0820151600e8201805460ff19166001836002811115614817576148176150a1565b02179055506101e0820151600e8201805461ff001916610100836003811115614842576148426150a1565b0217905550610200820151600f820155610220909101516010909101805460ff191691151591909117905560208601516040518591600591614884919061559c565b908152602001604051809103902081905550837f58c168780de5fc719a1e7a85c7eca394e664c0e74b7c9ebc621f0b093112d04b876020015188604001516040516148d0929190615c30565b60405180910390a25091949350505050565b6000805460408051838152602081019091526001600160a01b03909116916324ac9435918791879187916001919061492a565b60608152602001906001900390816149155790505b50876040518763ffffffff1660e01b815260040161494d96959493929190615c52565b600060405180830381600087803b15801561496757600080fd5b505af115801561497b573d6000803e3d6000fd5b5050505050505050565b6060816000036149ac5750506040805180820190915260018152600360fc1b602082015290565b8160005b81156149d657806149c081615904565b91506149cf9050600a83615d12565b91506149b0565b6000816001600160401b038111156149f0576149f0614d11565b6040519080825280601f01601f191660200182016040528015614a1a576020820181803683370190505b509050815b8515614aa757614a30600182615d26565b90506000614a3f600a88615d12565b614a4a90600a615d39565b614a549088615d26565b614a5f906030615d50565b905060008160f81b905080848481518110614a7c57614a7c61591d565b60200101906001600160f81b031916908160001a905350614a9e600a89615d12565b97505050614a1f565b50949350505050565b60008181805b8251811015614b2d5760006030848381518110614ad557614ad561591d565b0160200151614ae7919060f81c615d69565b9050614af4600283615d82565b15614aff5780614b0a565b614b0a816003615d96565b614b179060ff1684615db9565b9250508080614b2590615904565b915050614ab6565b506000600a614b3c8184615d82565b614b4790600a615d26565b614b519190615d82565b95945050505050565b600087878787878787604051602001614b799796959493929190615dcc565b604051602081830303815290604052805190602001209050979650505050505050565b604051806102400160405280600081526020016060815260200160608152602001600081526020016060815260200160008152602001600081526020016000815260200160006002811115614bf357614bf36150a1565b8152602001606081526020016060815260200160608152602001600080191681526020016000815260200160006002811115614c3157614c316150a1565b81526020016000815260006020820181905260409091015290565b828054828255906000526020600020908101928215614c92579160200282015b82811115614c925782518290614c8290826159a7565b5091602001919060010190614c6c565b50614c9e929150614ca2565b5090565b80821115614c9e576000614cb68282614cbf565b50600101614ca2565b508054614ccb906158b4565b6000825580601f10614cdb575050565b601f016020900490600052602060002090810190614cf99190614cfc565b50565b5b80821115614c9e5760008155600101614cfd565b634e487b7160e01b600052604160045260246000fd5b60405160e081016001600160401b0381118282101715614d4957614d49614d11565b60405290565b604051601f8201601f191681016001600160401b0381118282101715614d7757614d77614d11565b604052919050565b60006001600160401b03821115614d9857614d98614d11565b50601f01601f191660200190565b600082601f830112614db757600080fd5b8135614dca614dc582614d7f565b614d4f565b818152846020838601011115614ddf57600080fd5b816020850160208301376000918101602001919091529392505050565b600060208284031215614e0e57600080fd5b81356001600160401b03811115614e2457600080fd5b614e3084828501614da6565b949350505050565b600060208284031215614e4a57600080fd5b5035919050565b60005b83811015614e6c578181015183820152602001614e54565b50506000910152565b60008151808452614e8d816020860160208601614e51565b601f01601f19169290920160200192915050565b600082825180855260208086019550808260051b84010181860160005b84811015614eec57601f19868403018952614eda838351614e75565b98840198925090830190600101614ebe565b5090979650505050505050565b600081518084526020808501945080840160005b83811015614f2957815187529582019590820190600101614f0d565b509495945050505050565b60006020808301818452808551808352604092508286019150828160051b87010184880160005b8381101561500557603f19898403018552815160e0815185528882015189860152878201518189870152614f9182870182614e75565b91505060608083015186830382880152614fab8382614e75565b925050506080808301511515818701525060a08083015186830382880152614fd38382614ea1565b9250505060c08083015192508582038187015250614ff18183614ef9565b968901969450505090860190600101614f5b565b509098975050505050505050565b60006020808301818452808551808352604092508286019150828160051b87010184880160005b8381101561500557603f198984030185528151608081518552888201518986015287820151818987015261507082870182614e75565b9150506060808301519250858203818701525061508d8183614e75565b96890196945050509086019060010161503a565b634e487b7160e01b600052602160045260246000fd5b60038110614cf957614cf96150a1565b6150d0816150b7565b9052565b600481106150d0576150d06150a1565b600061024082518452602083015181602086015261510482860182614e75565b9150506040830151848203604086015261511e8282614e75565b91505060608301516060850152608083015184820360808601526151428282614e75565b91505060a083015160a085015260c083015160c085015260e083015160e085015261010080840151615176828701826150c7565b505061012080840151858303828701526151908382614ea1565b9250505061014080840151858303828701526151ac8382614e75565b9250505061016080840151858303828701526151c88382614e75565b925050506101808084015181860152506101a08084015181860152506101c0808401516151f7828701826150c7565b50506101e08084015161520c828701826150d4565b505061020083810151908501526102208084015180151582870152610d1a565b6000602080830181845280855180835260408601915060408160051b870101925083870160005b8281101561528157603f1988860301845261526f8583516150e4565b94509285019290850190600101615253565b5092979650505050505050565b60006001600160401b038211156152a7576152a7614d11565b5060051b60200190565b600082601f8301126152c257600080fd5b813560206152d2614dc58361528e565b82815260059290921b840181019181810190868411156152f157600080fd5b8286015b848110156153305780356001600160401b038111156153145760008081fd5b6153228986838b0101614da6565b8452509183019183016152f5565b509695505050505050565b60008060008060008060008060006101208a8c03121561535a57600080fd5b89356001600160401b038082111561537157600080fd5b61537d8d838e01614da6565b9a5060208c0135995060408c013591508082111561539a57600080fd5b6153a68d838e01614da6565b985060608c01359150808211156153bc57600080fd5b6153c88d838e016152b1565b975060808c01359150808211156153de57600080fd5b6153ea8d838e01614da6565b965060a08c013591508082111561540057600080fd5b5061540d8c828d01614da6565b94505060c08a0135925060e08a013591506101008a013590509295985092959850929598565b6020815260006133316020830184614ef9565b6000806000806080858703121561545c57600080fd5b843593506020850135925060408501356001600160401b038082111561548157600080fd5b61548d88838901614da6565b935060608701359150808211156154a357600080fd5b506154b087828801614da6565b91505092959194509250565b600080604083850312156154cf57600080fd5b823591506020830135600381106154e557600080fd5b809150509250929050565b6000806000806080858703121561550657600080fd5b84356001600160401b038082111561551d57600080fd5b61552988838901614da6565b955060208701359450604087013591508082111561548157600080fd5b6000806040838503121561555957600080fd5b50508035926020909101359150565b602081016104c682846150d4565b60208152600061333160208301846150e4565b60208101615596836150b7565b91905290565b600082516155ae818460208701614e51565b9190910192915050565b600082601f8301126155c957600080fd5b81516155d7614dc582614d7f565b8181528460208386010111156155ec57600080fd5b614e30826020830160208701614e51565b8051801515811461560d57600080fd5b919050565b600082601f83011261562357600080fd5b81516020615633614dc58361528e565b82815260059290921b8401810191818101908684111561565257600080fd5b8286015b848110156153305780516001600160401b038111156156755760008081fd5b6156838986838b01016155b8565b845250918301918301615656565b600082601f8301126156a257600080fd5b815160206156b2614dc58361528e565b82815260059290921b840181019181810190868411156156d157600080fd5b8286015b8481101561533057805183529183019183016156d5565b600060208083850312156156ff57600080fd5b82516001600160401b038082111561571657600080fd5b818501915085601f83011261572a57600080fd5b8151615738614dc58261528e565b81815260059190911b8301840190848101908883111561575757600080fd5b8585015b838110156158645780518581111561577257600080fd5b860160e0818c03601f190112156157895760008081fd5b615791614d27565b8882015181526040808301518a830152606080840151898111156157b55760008081fd5b6157c38f8d838801016155b8565b83850152506080915081840151898111156157de5760008081fd5b6157ec8f8d838801016155b8565b82850152505060a06157ff8185016155fd565b8284015260c0915081840151898111156158195760008081fd5b6158278f8d83880101615612565b82850152505060e0830151888111156158405760008081fd5b61584e8e8c83870101615691565b918301919091525084525091860191860161575b565b5098975050505050505050565b60208082526023908201527f426174636820646f6573206e6f7420657869737420776974682074686973205360408201526253434360e81b606082015260800190565b600181811c908216806158c857607f821691505b6020821081036158e857634e487b7160e01b600052602260045260246000fd5b50919050565b634e487b7160e01b600052601160045260246000fd5b600060018201615916576159166158ee565b5060010190565b634e487b7160e01b600052603260045260246000fd5b60208082526014908201527310985d18da08191bd95cc81b9bdd08195e1a5cdd60621b604082015260600190565b601f821115611bea57600081815260208120601f850160051c810160208610156159885750805b601f850160051c820191505b81811015611aa857828155600101615994565b81516001600160401b038111156159c0576159c0614d11565b6159d4816159ce84546158b4565b84615961565b602080601f831160018114615a0957600084156159f15750858301515b600019600386901b1c1916600185901b178555611aa8565b600085815260208120601f198616915b82811015615a3857888601518255948401946001909101908401615a19565b5085821015615a565787850151600019600388901b60f8161c191681555b5050505050600190811b01905550565b615a7081866150d4565b608060208201526000615a866080830186614e75565b8460408401528281036060840152615a9e8185614e75565b979650505050505050565b6020808252601d908201527f4261746368206973206e6f742070656e64696e6720617070726f76616c000000604082015260600190565b60008154615aed816158b4565b808552602060018381168015615b0a5760018114615b2457615b52565b60ff1985168884015283151560051b880183019550615b52565b866000528260002060005b85811015615b4a5781548a8201860152908301908401615b2f565b890184019650505b505050505092915050565b828152604060208201526000614e306040830184615ae0565b838152606060208201526000615b8f6060830185614e75565b8281036040840152615ba18185614e75565b9695505050505050565b6020815260006133316020830184615ae0565b60008451615bd0818460208901614e51565b845190830190615be4818360208901614e51565b8451910190615bf7818360208801614e51565b0195945050505050565b60008351615c13818460208801614e51565b835190830190615c27818360208801614e51565b01949350505050565b604081526000615c436040830185614e75565b90508260208301529392505050565b8681526000602060c081840152615c6c60c0840189614e75565b8381036040850152615c7e8189614e75565b9050861515606085015283810360808501528086518083528383019150838160051b84010184890160005b83811015615cd757601f19868403018552615cc5838351614e75565b94870194925090860190600101615ca9565b505086810360a0880152615ceb8189614ef9565b9d9c50505050505050505050505050565b634e487b7160e01b600052601260045260246000fd5b600082615d2157615d21615cfc565b500490565b818103818111156104c6576104c66158ee565b80820281158282048414176104c6576104c66158ee565b60ff81811683821601908111156104c6576104c66158ee565b60ff82811682821603908111156104c6576104c66158ee565b600082615d9157615d91615cfc565b500690565b60ff8181168382160290811690818114615db257615db26158ee565b5092915050565b808201808211156104c6576104c66158ee565b600088516020615ddf8285838e01614e51565b81840191508982528851615df881838501848d01614e51565b80830192505087818301528651615e158160408501848b01614e51565b604092019182018690528451615e318160608501848901614e51565b919091016060019a995050505050505050505056fe426174636820686173206265656e2072656a65637465642062792074686520617070726f766572426174636820686173206265656e20617070726f7665642062792074686520617070726f7665725468652062617463682073746174757320686173206265656e207570646174656457617265686f7573652068617320636f6e6669726d65642072656365697074206f6620746865206261746368a26469706673582212200dfc5e0ecdb549e8f6a0eee68745b0bb29ac93276d3e6f4a9e0d30526222d31264736f6c63430008140033",
  "immutableReferences": {},
  "source": "// SPDX-License-Identifier: MIT\r\npragma solidity ^0.8.0;\r\nimport \"./ActivityLog.sol\";\r\ncontract TraceabilityContract {\r\n    ActivityLog private activityLogContract;   \r\n\r\n  constructor(address _activityLogAddress) {\r\n    require(_activityLogAddress != address(0), \"Invalid ActivityLog address\");\r\n    activityLogContract = ActivityLog(_activityLogAddress);\r\n}\r\n\r\n    uint256 private _batchIdCounter;\r\n    uint256 private _warehouseIdCounter;\r\n\r\nenum BatchStatus { PendingApproval, Approved, Rejected }\r\nenum TransportStatus { NotTransported, InTransit, Delivered }\r\nenum ParticipantType { Transporter, Warehouse }\r\nenum DetailedTransportStatus { NotStarted, InTransit, Paused, Delivered }\r\n\r\n    struct Batch {\r\n        uint256 batchId;\r\n        string name;  // Thm trng tn l hng\r\n        string sscc;\r\n        uint256 producerId;\r\n        string quantity;\r\n        uint256 productionDate;\r\n        uint256 startDate;\r\n        uint256 endDate;\r\n        BatchStatus status;\r\n        string[] productImageUrls;\r\n        string certificateImageUrl;\r\n        string farmPlotNumber;\r\n        bytes32 dataHash;\r\n        uint256 productId;\r\n        TransportStatus transportStatus;\r\n        DetailedTransportStatus detailedTransportStatus;\r\n        uint256 lastTransporterId;\r\n        bool warehouseConfirmed;  // Thm trng ny\r\n\r\n    }\r\n\r\n     struct BatchParams {\r\n        string name;\r\n        string sscc;\r\n        uint256 producerId;\r\n        string quantity;\r\n        string[] productImageUrls;\r\n        string certificateImageUrl;\r\n        string farmPlotNumber;\r\n        uint256 productId;\r\n        uint256 startDate;\r\n        uint256 endDate;\r\n    }\r\n    \r\n    struct Participation {\r\n        uint256 participantId;\r\n        string participantType;\r\n        uint256 timestamp;\r\n        string action;\r\n    }\r\n\r\n    struct TransportEvent {\r\n    uint256 participantId;\r\n    uint256 timestamp;\r\n    string action;\r\n    string participantType;\r\n}\r\n\r\nmapping(uint256 => TransportEvent[]) private _batchTransportEvents;\r\n\r\n\r\n    mapping(uint256 => Batch) private _batches;\r\n    mapping(string => uint256) private _ssccToBatchId;\r\n   \r\n    mapping(uint256 => bool) private _approvedBatches;\r\n    mapping(uint256 => Participation[]) private _batchParticipations;\r\n    \r\n    event BatchApproved(uint256 indexed batchId, uint256 indexed producerId, string sscc);\r\n    event BatchApprovedForQR(uint256 indexed batchId, uint256 indexed producerId, string sscc);\r\n    event ParticipationRecorded(uint256 indexed batchId, uint256 participantId, string participantType, string action);\r\n    event BatchCreated(uint256 indexed batchId, string sscc, uint256 producerId);\r\n    event ActivityLogAdded(\r\n        uint256 indexed uid,\r\n        string activityName,\r\n        string description,\r\n        bool isSystemGenerated,\r\n        string[] imageUrls,\r\n        uint256[] relatedProductIds\r\n    );\r\nevent TransportStatusUpdated(\r\n    uint256 indexed batchId, \r\n    DetailedTransportStatus newStatus, \r\n    string action, \r\n    uint256 participantId, \r\n    string participantType\r\n);\r\n\r\n\r\n\r\n\r\n    function addSystemActivityLog(\r\n        uint256 _uid,\r\n        string memory _activityName,\r\n        string memory _description,\r\n        uint256[] memory _relatedProductIds\r\n    ) internal {\r\n        activityLogContract.addActivityLog(\r\n            _uid,\r\n            _activityName,\r\n            _description,\r\n            true,\r\n            new string[](0),\r\n            _relatedProductIds\r\n        );\r\n    }\r\n\r\n\r\n    function createBatch(\r\n        string memory _name,  // Thm tham s tn l hng\r\n        uint256 _producerId,\r\n        string memory _quantity,\r\n        string[] memory _productImageUrls,\r\n        string memory _certificateImageUrl,\r\n        string memory _farmPlotNumber,\r\n        uint256 _productId,\r\n        uint256 _startDate,\r\n        uint256 _endDate\r\n    ) public returns (uint256) {\r\n        string memory sscc = generateSSCC(_producerId);\r\n        BatchParams memory params = BatchParams({\r\n            name: _name,  // Thm tn l hng\r\n            sscc: sscc,\r\n            producerId: _producerId,\r\n            quantity: _quantity,\r\n            productImageUrls: _productImageUrls,\r\n            certificateImageUrl: _certificateImageUrl,\r\n            farmPlotNumber: _farmPlotNumber,\r\n            productId: _productId,\r\n            startDate: _startDate,\r\n            endDate: _endDate\r\n        });\r\n        uint256 newBatchId = _createBatch(params);\r\n\r\n        //Ghi li thng tin l hng vo nht k hot ng\r\n    uint256[] memory relatedProductIds = new uint256[](1);\r\n        relatedProductIds[0] = _productId;\r\n        addSystemActivityLog(_producerId, \"Batch Created\", \"A new batch has been created\", relatedProductIds);\r\n\r\n\r\n        return newBatchId;\r\n    }\r\n\r\n    function generateSSCC(uint256 _producerId) private view returns (string memory) {\r\n        string memory prefix = \"00\";\r\n        string memory companyPrefix = uint2str(_producerId);\r\n        uint256 serialNumber = uint256(keccak256(abi.encodePacked(block.timestamp, _producerId)));\r\n        string memory serialReference = uint2str(serialNumber);\r\n        \r\n        string memory ssccWithoutCheck = string(abi.encodePacked(prefix, companyPrefix, serialReference));\r\n        uint8 checkDigit = calculateCheckDigit(ssccWithoutCheck);\r\n        \r\n        string memory sscc = string(abi.encodePacked(ssccWithoutCheck, uint2str(uint256(checkDigit))));\r\n        \r\n        return sscc;\r\n    }\r\n\r\n    function calculateCheckDigit(string memory _code) private pure returns (uint8) {\r\n        bytes memory codeBytes = bytes(_code);\r\n        uint256 sum = 0;\r\n        for (uint256 i = 0; i < codeBytes.length; i++) {\r\n            uint8 digit = uint8(codeBytes[i]) - 48;\r\n            sum += (i % 2 == 0) ? digit * 3 : digit;\r\n        }\r\n        uint8 checkDigit = uint8((10 - (sum % 10)) % 10);\r\n        return checkDigit;\r\n    }\r\n\r\n    function uint2str(uint256 _i) private pure returns (string memory) {\r\n        if (_i == 0) {\r\n            return \"0\";\r\n        }\r\n        uint256 j = _i;\r\n        uint256 length;\r\n        while (j != 0) {\r\n            length++;\r\n            j /= 10;\r\n        }\r\n        bytes memory bstr = new bytes(length);\r\n        uint256 k = length;\r\n        while (_i != 0) {\r\n            k = k-1;\r\n            uint8 temp = (48 + uint8(_i - _i / 10 * 10));\r\n            bytes1 b1 = bytes1(temp);\r\n            bstr[k] = b1;\r\n            _i /= 10;\r\n        }\r\n        return string(bstr);\r\n    }\r\n\r\n    function _createBatch(BatchParams memory params) private returns (uint256) {\r\n        require(_ssccToBatchId[params.sscc] == 0, \"SSCC already exists\");\r\n        require(bytes(params.quantity).length > 0, \"Quantity must not be empty\");\r\n        require(params.productImageUrls.length > 0, \"At least one product image URL is required\");\r\n        require(bytes(params.certificateImageUrl).length > 0, \"Certificate image URL is required\");\r\n        require(bytes(params.farmPlotNumber).length > 0, \"Farm plot number is required\");\r\n        require(params.productId > 0, \"Product ID must be valid\");\r\n        require(params.startDate > 0, \"Start date is required\");\r\n        require(params.endDate > 0, \"End date is required\");\r\n        require(params.startDate < params.endDate, \"Start date must be before end date\");\r\n        require(bytes(params.name).length > 0, \"Batch name must not be empty\");\r\n\r\n        _batchIdCounter++;\r\n        uint256 newBatchId = _batchIdCounter;\r\n\r\n        uint256 productionDate = block.timestamp;\r\n\r\n        bytes32 dataHash = _calculateDataHash(\r\n            params.sscc,\r\n            params.producerId,\r\n            params.quantity,\r\n            productionDate,\r\n            params.farmPlotNumber,\r\n            params.productId,\r\n            params.name  // Thm tn l hng vo hm bm\r\n        );\r\n\r\n        Batch memory newBatch = Batch({\r\n            batchId: newBatchId,\r\n            name: params.name,  // Thm tn l hng\r\n            sscc: params.sscc,\r\n            producerId: params.producerId,\r\n            quantity: params.quantity,\r\n            productionDate: productionDate,\r\n            startDate: params.startDate,\r\n            endDate: params.endDate,\r\n            status: BatchStatus.PendingApproval,\r\n            productImageUrls: params.productImageUrls,\r\n            certificateImageUrl: params.certificateImageUrl,\r\n            farmPlotNumber: params.farmPlotNumber,\r\n            dataHash: dataHash,\r\n            productId: params.productId,\r\n            transportStatus: TransportStatus.NotTransported,\r\n            detailedTransportStatus: DetailedTransportStatus.NotStarted,\r\n            lastTransporterId: 0,\r\n            warehouseConfirmed: false  // Thm trng mi ny\r\n        });\r\n\r\n        _batches[newBatchId] = newBatch;\r\n        _ssccToBatchId[params.sscc] = newBatchId;\r\n\r\n        emit BatchCreated(newBatchId, params.sscc, params.producerId);\r\n        return newBatchId;\r\n    }\r\n    \r\n\r\n // Hm  ly nht k hot ng ca mt nh sn xut\r\n\r\n    \r\n    function _calculateDataHash(\r\n        string memory _sscc,\r\n        uint256 _producerId,\r\n        string memory _quantity,\r\n        uint256 _productionDate,\r\n        string memory _farmPlotNumber,\r\n        uint256 _productId,\r\n        string memory _name  // Thm tn l hng\r\n    ) private pure returns (bytes32) {\r\n        return keccak256(abi.encodePacked(_sscc, _producerId, _quantity, _productionDate, _farmPlotNumber, _productId, _name));\r\n    }\r\n    // hm kim tra sscc  tn ti hay cha \r\n    function ssccExists(string memory sscc) public view returns (bool) {\r\n        return _ssccToBatchId[sscc] != 0;\r\n    }\r\n\r\n    // Hm mi  ly danh sch cc l hng da trn producerId\r\n    function getBatchesByProducer(uint256 producerId) public view returns (Batch[] memory) {\r\n        uint256 count = 0;\r\n        for (uint256 i = 1; i <= _batchIdCounter; i++) {\r\n            if (_batches[i].producerId == producerId) {\r\n                count++;\r\n            }\r\n        }\r\n\r\n        Batch[] memory batches = new Batch[](count);\r\n        uint256 index = 0;\r\n        for (uint256 i = 1; i <= _batchIdCounter; i++) {\r\n            if (_batches[i].producerId == producerId) {\r\n                batches[index] = _batches[i];\r\n                index++;\r\n            }\r\n        }\r\n\r\n        return batches;\r\n    }\r\n\r\n    // hm cp nht trng thi l hng\r\nfunction updateBatchStatus(uint256 _batchId, BatchStatus _newStatus) public {\r\n    require(_batches[_batchId].batchId != 0, \"Batch does not exist\");\r\n    // Thm kim tra quyn nu cn\r\n    _batches[_batchId].status = _newStatus;\r\n    emit BatchStatusUpdated(_batchId, _newStatus);\r\n\r\n    // Ghi li nht k hot ng khi cp nht trng thi l hng\r\n    uint256[] memory relatedProductIds = new uint256[](1);\r\n    relatedProductIds[0] = _batches[_batchId].productId;\r\n    addSystemActivityLog(_batchId, \"Batch Status Updated\", \"The batch status has been updated\", relatedProductIds);\r\n\r\n}\r\nfunction getPendingBatchesByProducer(uint256 _producerId) public view returns (Batch[] memory) {\r\n    uint256 pendingCount = 0;\r\n    for (uint256 i = 1; i <= _batchIdCounter; i++) {\r\n        if (_batches[i].producerId == _producerId && _batches[i].status == BatchStatus.PendingApproval) {\r\n            pendingCount++;\r\n        }\r\n    }\r\n    Batch[] memory pendingBatches = new Batch[](pendingCount);\r\n    uint256 index = 0;\r\n    for (uint256 i = 1; i <= _batchIdCounter; i++) {\r\n        if (_batches[i].producerId == _producerId && _batches[i].status == BatchStatus.PendingApproval) {\r\n            pendingBatches[index] = _batches[i];\r\n            index++;\r\n        }\r\n    }\r\n\r\n    return pendingBatches;\r\n}\r\n\r\nfunction getRejectedBatchesByProducer(uint256 _producerId) public view returns (Batch[] memory) {\r\n    uint256 rejectedCount = 0;\r\n    for (uint256 i = 1; i <= _batchIdCounter; i++) {\r\n        if (_batches[i].producerId == _producerId && _batches[i].status == BatchStatus.Rejected) {\r\n            rejectedCount++;\r\n        }\r\n    }\r\n\r\n    Batch[] memory rejectedBatches = new Batch[](rejectedCount);\r\n    uint256 index = 0;\r\n    for (uint256 i = 1; i <= _batchIdCounter; i++) {\r\n        if (_batches[i].producerId == _producerId && _batches[i].status == BatchStatus.Rejected) {\r\n            rejectedBatches[index] = _batches[i];\r\n            index++;\r\n        }\r\n    }\r\n\r\n    return rejectedBatches;\r\n}\r\nfunction getAllPendingBatches() public view returns (Batch[] memory) {\r\n        uint256 pendingCount = 0;\r\n        for (uint256 i = 1; i <= _batchIdCounter; i++) {\r\n            if (_batches[i].status == BatchStatus.PendingApproval) {\r\n                pendingCount++;\r\n            }\r\n        }\r\n\r\n        Batch[] memory pendingBatches = new Batch[](pendingCount);\r\n        uint256 index = 0;\r\n        for (uint256 i = 1; i <= _batchIdCounter; i++) {\r\n            if (_batches[i].status == BatchStatus.PendingApproval) {\r\n                pendingBatches[index] = _batches[i];\r\n                index++;\r\n            }\r\n        }\r\n\r\n        return pendingBatches;\r\n    }\r\n\r\nevent BatchStatusUpdated(uint256 indexed batchId, BatchStatus newStatus);\r\n\r\n// hm ly thng tin l hng\r\nfunction getBatchDetails(uint256 _batchId) public view returns (Batch memory) {\r\n    require(_batches[_batchId].batchId != 0, \"Batch does not exist\");\r\n    return _batches[_batchId];\r\n}\r\n\r\n\r\nfunction getTotalBatches() public view returns (uint256) {\r\n    return _batchIdCounter;\r\n}\r\n\r\nfunction isProducerOfBatch(uint256 _batchId, uint256 _producerId) public view returns (bool) {\r\n    return _batches[_batchId].producerId == _producerId;\r\n}\r\n\r\n// Thm hm ny vo smart contract\r\n\r\n\r\n\r\nmodifier onlyApprover() {\r\n    // Implement logic to check if msg.sender is an approver\r\n    _;\r\n}\r\nfunction approveBatch(uint256 _batchId) public onlyApprover {\r\n    require(_batches[_batchId].batchId != 0, \"Batch does not exist\");\r\n    require(_batches[_batchId].status == BatchStatus.PendingApproval, \"Batch is not pending approval\");\r\n\r\n    _batches[_batchId].status = BatchStatus.Approved;\r\n    _approvedBatches[_batchId] = true;\r\n\r\n    emit BatchApproved(_batchId, _batches[_batchId].producerId, _batches[_batchId].sscc);\r\n    emit BatchApprovedForQR(_batchId, _batches[_batchId].producerId, _batches[_batchId].sscc);\r\n    \r\n    // Add system activity log\r\n    uint256[] memory relatedProductIds = new uint256[](1);\r\n        relatedProductIds[0] = _batches[_batchId].productId;\r\n        addSystemActivityLog(_batchId, \"Batch Approved\", \"Batch has been approved by the approver\", relatedProductIds);\r\n    }\r\n\r\nfunction rejectBatch(uint256 _batchId) public onlyApprover {\r\n    require(_batches[_batchId].batchId != 0, \"Batch does not exist\");\r\n    require(_batches[_batchId].status == BatchStatus.PendingApproval, \"Batch is not pending approval\");\r\n\r\n    _batches[_batchId].status = BatchStatus.Rejected;\r\n\r\n    emit BatchRejected(_batchId, _batches[_batchId].producerId, _batches[_batchId].sscc);\r\n    \r\n    // Add system activity log\r\n  uint256[] memory relatedProductIds = new uint256[](1);\r\n        relatedProductIds[0] = _batches[_batchId].productId;\r\n        addSystemActivityLog(_batchId, \"Batch Rejected\", \"Batch has been rejected by the approver\", relatedProductIds);\r\n}\r\nfunction getActivityLogs(uint256 _uid) public view returns (ActivityLog.ActivityLogEntry[] memory) {\r\n    return activityLogContract.getActivityLogs(_uid);\r\n}\r\n\r\nevent BatchRejected(uint256 indexed batchId, uint256 producerId, string sscc);\r\n\r\n\r\nfunction getApprovedBatchesByProducer(uint256 _producerId) public view returns (Batch[] memory) {\r\n    uint256 approvedCount = 0;\r\n    for (uint256 i = 1; i <= _batchIdCounter; i++) {\r\n        if (_batches[i].producerId == _producerId && _batches[i].status == BatchStatus.Approved) {\r\n            approvedCount++;\r\n        }\r\n    }\r\n\r\n    Batch[] memory approvedBatches = new Batch[](approvedCount);\r\n    uint256 index = 0;\r\n    for (uint256 i = 1; i <= _batchIdCounter; i++) {\r\n        if (_batches[i].producerId == _producerId && _batches[i].status == BatchStatus.Approved) {\r\n            approvedBatches[index] = _batches[i];\r\n            index++;\r\n        }\r\n    }\r\n\r\n    return approvedBatches;\r\n}\r\n\r\nfunction getBatchBySSCC(string memory _sscc) public view returns (Batch memory) {\r\n    uint256 batchId = _ssccToBatchId[_sscc];\r\n    require(batchId != 0, \"Batch does not exist with this SSCC\");\r\n    return _batches[batchId];\r\n}\r\n\r\nfunction isValidSSCC(string memory _sscc) public view returns (bool) {\r\n    return _ssccToBatchId[_sscc] != 0;\r\n}\r\n\r\nfunction isBatchApproved(uint256 _batchId) public view returns (bool) {\r\n    return _approvedBatches[_batchId];\r\n}\r\n\r\nfunction recordParticipation(uint256 _batchId, uint256 _participantId, string memory _participantType, string memory _action) public {\r\n    require(_batches[_batchId].batchId != 0, \"Batch does not exist\");\r\n    _batchParticipations[_batchId].push(Participation(_participantId, _participantType, block.timestamp, _action));\r\n    \r\n    emit ParticipationRecorded(_batchId, _participantId, _participantType, _action);\r\n}\r\nevent LogParticipantType(uint256 indexed batchId, string participantType);\r\n\r\nfunction updateTransportStatus(\r\n    uint256 _batchId, \r\n    uint256 _participantId, \r\n    string memory _action, \r\n    string memory _participantType\r\n) public {\r\n    require(\r\n        keccak256(abi.encodePacked(_participantType)) == keccak256(abi.encodePacked(\"Transporter\")) ||\r\n        keccak256(abi.encodePacked(_participantType)) == keccak256(abi.encodePacked(\"Warehouse\")),\r\n        \"Invalid participant type\"\r\n    );\r\n    \r\n    require(_batches[_batchId].batchId != 0, \"Batch does not exist\");\r\n    require(_batches[_batchId].status == BatchStatus.Approved, \"Batch must be approved\");\r\n\r\n    TransportEvent memory newEvent = TransportEvent({\r\n        participantId: _participantId,\r\n        timestamp: block.timestamp,\r\n        action: _action,\r\n        participantType: _participantType\r\n    });\r\n    \r\n    _batchTransportEvents[_batchId].push(newEvent);\r\n    \r\n    if (keccak256(abi.encodePacked(_action)) == keccak256(abi.encodePacked(\"Bat dau van chuyen\"))) {\r\n        _batches[_batchId].detailedTransportStatus = DetailedTransportStatus.InTransit;\r\n        _batches[_batchId].transportStatus = TransportStatus.InTransit;\r\n        _batches[_batchId].lastTransporterId = _participantId;\r\n    } else if (keccak256(abi.encodePacked(_action)) == keccak256(abi.encodePacked(\"Tam dung van chuyen\"))) {\r\n        _batches[_batchId].detailedTransportStatus = DetailedTransportStatus.Paused;\r\n    } else if (keccak256(abi.encodePacked(_action)) == keccak256(abi.encodePacked(\"Tiep tuc van chuyen\"))) {\r\n        _batches[_batchId].detailedTransportStatus = DetailedTransportStatus.InTransit;\r\n    } else if (keccak256(abi.encodePacked(_action)) == keccak256(abi.encodePacked(\"Hoan thanh van chuyen\"))) {\r\n        _batches[_batchId].detailedTransportStatus = DetailedTransportStatus.Delivered;\r\n        _batches[_batchId].transportStatus = TransportStatus.Delivered;\r\n    }\r\n    \r\n    emit TransportStatusUpdated(_batchId, _batches[_batchId].detailedTransportStatus, _action, _participantId, _participantType);\r\n    uint256[] memory relatedProductIds = new uint256[](1);\r\n    relatedProductIds[0] = _batches[_batchId].productId;\r\n    addSystemActivityLog(_batchId, \"Transport Status Updated\", _action, relatedProductIds);\r\n\r\n\r\n}\r\nfunction updateTransportStatusBySSCC(\r\n    string memory _sscc, \r\n    uint256 _participantId, \r\n    string memory _action, \r\n    string memory _participantType\r\n) public {\r\n    uint256 batchId = _ssccToBatchId[_sscc];\r\n    require(batchId != 0, \"Batch does not exist with this SSCC\");\r\n    updateTransportStatus(batchId, _participantId, _action, _participantType);\r\n}\r\n\r\n// i tn s kin\r\n// Thm mapping  theo di xc nhn ca cc nh kho\r\n\r\nmapping(uint256 => mapping(uint256 => bool)) private _warehouseConfirmations;\r\n\r\n// Thm s kin  theo di xc nhn ca cc nh kho\r\nevent WarehouseConfirmed(uint256 indexed batchId, uint256 indexed warehouseId);\r\nfunction warehouseConfirmation(uint256 _batchId, uint256 _warehouseId) public {\r\n    require(_batches[_batchId].batchId != 0, \"Batch does not exist\");\r\n    require(_batches[_batchId].transportStatus == TransportStatus.Delivered, \"Batch must be delivered before warehouse confirmation\");\r\n    require(_batches[_batchId].detailedTransportStatus == DetailedTransportStatus.Delivered, \"Batch must be in Delivered status\");\r\n    //Nu nh kho  xc nhn l hng th khng th xc nhn li\r\n    require(!_warehouseConfirmations[_batchId][_warehouseId], \"This warehouse has already confirmed this batch\");\r\n    \r\n    // nh du nh kho ny  xc nhn\r\n    _warehouseConfirmations[_batchId][_warehouseId] = true;\r\n    \r\n    // Ghi nhn s tham gia ca nh kho\r\n    Participation memory newParticipation = Participation({\r\n        participantId: _warehouseId,\r\n        participantType: \"Warehouse\",\r\n        timestamp: block.timestamp,\r\n        action: \"Confirmed receipt at warehouse\"\r\n    });\r\n    _batchParticipations[_batchId].push(newParticipation);\r\n    \r\n    // Pht ra s kin\r\n    emit WarehouseConfirmed(_batchId, _warehouseId);\r\n   uint256[] memory relatedProductIds = new uint256[](1);\r\n        relatedProductIds[0] = _batches[_batchId].productId;\r\n        addSystemActivityLog(_batchId, \"Warehouse Confirmation\", \"Warehouse has confirmed receipt of the batch\", relatedProductIds);\r\n    }\r\n\r\n\r\n\r\n\r\n// Hm  kim tra xem mt nh kho c th  xc nhn l hng cha\r\nfunction isWarehouseConfirmed(uint256 _batchId, uint256 _warehouseId) public view returns (bool) {\r\n    return _warehouseConfirmations[_batchId][_warehouseId];\r\n}\r\n\r\n// Hm  ly danh sch cc nh kho  xc nhn mt l hng\r\nfunction getConfirmedWarehouses(uint256 _batchId) public view returns (uint256[] memory) {\r\n    uint256 confirmedCount = 0;\r\n    for (uint256 i = 1; i <= _warehouseIdCounter; i++) {\r\n        if (_warehouseConfirmations[_batchId][i]) {\r\n            confirmedCount++;\r\n        }\r\n    }\r\n    \r\n    uint256[] memory confirmedWarehouses = new uint256[](confirmedCount);\r\n    uint256 index = 0;\r\n    for (uint256 i = 1; i <= _warehouseIdCounter; i++) {\r\n        if (_warehouseConfirmations[_batchId][i]) {\r\n            confirmedWarehouses[index] = i;\r\n            index++;\r\n        }\r\n    }\r\n    \r\n    return confirmedWarehouses;\r\n}\r\nfunction getBatchIdBySSCC(string memory _sscc) public view returns (uint256) {\r\n    return _ssccToBatchId[_sscc];\r\n}\r\n\r\nfunction getDetailedTransportStatus(uint256 _batchId) public view returns (DetailedTransportStatus) {\r\n    require(_batches[_batchId].batchId != 0, \"Batch does not exist\");\r\n    return _batches[_batchId].detailedTransportStatus;\r\n}\r\n// hm kim tra trng thi vn chuyn\r\nfunction canStartTransport(uint256 _batchId, uint256 _transporterId) public view returns (bool) {\r\n    return _batches[_batchId].detailedTransportStatus == DetailedTransportStatus.NotStarted ||\r\n           (_batches[_batchId].detailedTransportStatus == DetailedTransportStatus.Delivered && _batches[_batchId].lastTransporterId != _transporterId);\r\n}\r\nfunction getTransportHistoryBySSCC(string memory _sscc) public view returns (TransportEvent[] memory) {\r\n    uint256 batchId = _ssccToBatchId[_sscc];\r\n    require(batchId != 0, \"Batch does not exist with this SSCC\");\r\n    return _batchTransportEvents[batchId];\r\n}\r\n// Thm hm  kim tra trng thi vn chuyn\r\nfunction getBatchTransportStatus(uint256 _batchId) public view returns (TransportStatus) {\r\n    require(_batches[_batchId].batchId != 0, \"Batch does not exist\");\r\n    return _batches[_batchId].transportStatus;\r\n}\r\n\r\n\r\n  function getBatchActivityLogs(uint256 _batchId) public view returns (ActivityLog.ActivityLogEntry[] memory) {\r\n        return activityLogContract.getActivityLogs(_batchId);\r\n    }\r\n    \r\n    function getBatchActivityLogsBySSCC(string memory _sscc) public view returns (ActivityLog.ActivityLogEntry[] memory) {\r\n        uint256 batchId = _ssccToBatchId[_sscc];\r\n        require(batchId != 0, \"Batch does not exist with this SSCC\");\r\n        return getBatchActivityLogs(batchId);\r\n    }\r\n\r\n}",
  "sourcePath": "D:\\projects\\nckh-be\\blockchain\\contracts\\supplychain.sol",
  "compiler": {
    "name": "solc",
    "version": "0.8.20+commit.a1b79de6.Emscripten.clang"
  },
  "schemaVersion": "3.4.16",
  "updatedAt": "2024-09-23T07:38:02.018Z",
  "networkType": "ethereum",
  "devdoc": {
    "kind": "dev",
    "methods": {},
    "version": 1
  },
  "userdoc": {
    "kind": "user",
    "methods": {},
    "version": 1
  }
}