{
  "contractName": "TraceabilityContract",
  "abi": [
    {
      "anonymous": false,
      "inputs": [
        {
          "indexed": true,
          "internalType": "uint256",
          "name": "batchId",
          "type": "uint256"
        },
        {
          "indexed": false,
          "internalType": "string",
          "name": "sscc",
          "type": "string"
        },
        {
          "indexed": false,
          "internalType": "uint256",
          "name": "producerId",
          "type": "uint256"
        }
      ],
      "name": "BatchCreated",
      "type": "event"
    },
    {
      "inputs": [
        {
          "internalType": "string",
          "name": "_sscc",
          "type": "string"
        },
        {
          "internalType": "uint256",
          "name": "_producerId",
          "type": "uint256"
        },
        {
          "internalType": "string",
          "name": "_quantity",
          "type": "string"
        },
        {
          "internalType": "string",
          "name": "_productImageUrl",
          "type": "string"
        },
        {
          "internalType": "string",
          "name": "_certificateImageUrl",
          "type": "string"
        },
        {
          "internalType": "string",
          "name": "_farmPlotNumber",
          "type": "string"
        },
        {
          "internalType": "uint256",
          "name": "_productId",
          "type": "uint256"
        },
        {
          "internalType": "uint256",
          "name": "_startDate",
          "type": "uint256"
        },
        {
          "internalType": "uint256",
          "name": "_endDate",
          "type": "uint256"
        }
      ],
      "name": "createBatch",
      "outputs": [
        {
          "internalType": "uint256",
          "name": "",
          "type": "uint256"
        }
      ],
      "stateMutability": "nonpayable",
      "type": "function"
    },
    {
      "inputs": [
        {
          "internalType": "uint256",
          "name": "producerId",
          "type": "uint256"
        }
      ],
      "name": "getBatchesByProducer",
      "outputs": [
        {
          "components": [
            {
              "internalType": "uint256",
              "name": "batchId",
              "type": "uint256"
            },
            {
              "internalType": "string",
              "name": "sscc",
              "type": "string"
            },
            {
              "internalType": "uint256",
              "name": "producerId",
              "type": "uint256"
            },
            {
              "internalType": "string",
              "name": "quantity",
              "type": "string"
            },
            {
              "internalType": "uint256",
              "name": "productionDate",
              "type": "uint256"
            },
            {
              "internalType": "uint256",
              "name": "expiryDate",
              "type": "uint256"
            },
            {
              "internalType": "uint256",
              "name": "startDate",
              "type": "uint256"
            },
            {
              "internalType": "uint256",
              "name": "endDate",
              "type": "uint256"
            },
            {
              "internalType": "enum TraceabilityContract.BatchStatus",
              "name": "status",
              "type": "uint8"
            },
            {
              "internalType": "string",
              "name": "productImageUrl",
              "type": "string"
            },
            {
              "internalType": "string",
              "name": "certificateImageUrl",
              "type": "string"
            },
            {
              "internalType": "string",
              "name": "farmPlotNumber",
              "type": "string"
            },
            {
              "internalType": "bytes32",
              "name": "dataHash",
              "type": "bytes32"
            },
            {
              "internalType": "uint256",
              "name": "productId",
              "type": "uint256"
            }
          ],
          "internalType": "struct TraceabilityContract.Batch[]",
          "name": "",
          "type": "tuple[]"
        }
      ],
      "stateMutability": "view",
      "type": "function",
      "constant": true
    }
  ],
  "bytecode": "0x608060405234801561001057600080fd5b50611c2e806100206000396000f3fe608060405234801561001057600080fd5b50600436106100365760003560e01c806310fbb9f01461003b57806380e32d451461006b575b600080fd5b61005560048036038101906100509190610d60565b61009b565b6040516100629190610ec5565b60405180910390f35b61008560048036038101906100809190610ee0565b6100f9565b6040516100929190611237565b60405180910390f35b6000806040518061012001604052808c81526020018b81526020018a81526020018981526020018881526020018781526020018681526020018581526020018481525090506100e9816105a2565b9150509998505050505050505050565b6060600080600190505b600054811161014b578360016000838152602001908152602001600020600201540361013857818061013490611288565b9250505b808061014390611288565b915050610103565b5060008167ffffffffffffffff81111561016857610167610bff565b5b6040519080825280602002602001820160405280156101a157816020015b61018e610b4c565b8152602001906001900390816101865790505b509050600080600190505b600054811161059657856001600083815260200190815260200160002060020154036105835760016000828152602001908152602001600020604051806101c00160405290816000820154815260200160018201805461020b906112ff565b80601f0160208091040260200160405190810160405280929190818152602001828054610237906112ff565b80156102845780601f1061025957610100808354040283529160200191610284565b820191906000526020600020905b81548152906001019060200180831161026757829003601f168201915b50505050508152602001600282015481526020016003820180546102a7906112ff565b80601f01602080910402602001604051908101604052809291908181526020018280546102d3906112ff565b80156103205780601f106102f557610100808354040283529160200191610320565b820191906000526020600020905b81548152906001019060200180831161030357829003601f168201915b50505050508152602001600482015481526020016005820154815260200160068201548152602001600782015481526020016008820160009054906101000a900460ff16600381111561037657610375610fc7565b5b600381111561038857610387610fc7565b5b815260200160098201805461039c906112ff565b80601f01602080910402602001604051908101604052809291908181526020018280546103c8906112ff565b80156104155780601f106103ea57610100808354040283529160200191610415565b820191906000526020600020905b8154815290600101906020018083116103f857829003601f168201915b50505050508152602001600a8201805461042e906112ff565b80601f016020809104026020016040519081016040528092919081815260200182805461045a906112ff565b80156104a75780601f1061047c576101008083540402835291602001916104a7565b820191906000526020600020905b81548152906001019060200180831161048a57829003601f168201915b50505050508152602001600b820180546104c0906112ff565b80601f01602080910402602001604051908101604052809291908181526020018280546104ec906112ff565b80156105395780601f1061050e57610100808354040283529160200191610539565b820191906000526020600020905b81548152906001019060200180831161051c57829003601f168201915b50505050508152602001600c8201548152602001600d8201548152505083838151811061056957610568611330565b5b6020026020010181905250818061057f90611288565b9250505b808061058e90611288565b9150506101ac565b50819350505050919050565b60006012826000015151146105ec576040517f08c379a00000000000000000000000000000000000000000000000000000000081526004016105e3906113bc565b60405180910390fd5b6000600283600001516040516106029190611418565b90815260200160405180910390205414610651576040517f08c379a00000000000000000000000000000000000000000000000000000000081526004016106489061147b565b60405180910390fd5b600082604001515111610699576040517f08c379a0000000000000000000000000000000000000000000000000000000008152600401610690906114e7565b60405180910390fd5b6000826060015151116106e1576040517f08c379a00000000000000000000000000000000000000000000000000000000081526004016106d890611553565b60405180910390fd5b600082608001515111610729576040517f08c379a0000000000000000000000000000000000000000000000000000000008152600401610720906115e5565b60405180910390fd5b60008260a001515111610771576040517f08c379a000000000000000000000000000000000000000000000000000000000815260040161076890611651565b60405180910390fd5b60008260c00151116107b8576040517f08c379a00000000000000000000000000000000000000000000000000000000081526004016107af906116bd565b60405180910390fd5b60008260e00151116107ff576040517f08c379a00000000000000000000000000000000000000000000000000000000081526004016107f690611729565b60405180910390fd5b600082610100015111610847576040517f08c379a000000000000000000000000000000000000000000000000000000000815260040161083e90611795565b60405180910390fd5b8161010001518260e0015110610892576040517f08c379a000000000000000000000000000000000000000000000000000000000815260040161088990611827565b60405180910390fd5b6000808154809291906108a490611288565b9190505550600080549050600042905060006301e13380826108c69190611847565b905060006108ed86600001518760200151886040015186868b60a001518c60c00151610b0a565b90506000604051806101c001604052808681526020018860000151815260200188602001518152602001886040015181526020018581526020018481526020018860e00151815260200188610100015181526020016001600381111561095657610955610fc7565b5b815260200188606001518152602001886080015181526020018860a0015181526020018381526020018860c00151815250905080600160008781526020019081526020016000206000820151816000015560208201518160010190816109bc9190611a27565b506040820151816002015560608201518160030190816109dc9190611a27565b506080820151816004015560a0820151816005015560c0820151816006015560e082015181600701556101008201518160080160006101000a81548160ff02191690836003811115610a3157610a30610fc7565b5b0217905550610120820151816009019081610a4c9190611a27565b5061014082015181600a019081610a639190611a27565b5061016082015181600b019081610a7a9190611a27565b5061018082015181600c01556101a082015181600d01559050508460028860000151604051610aa99190611418565b908152602001604051809103902081905550847f58c168780de5fc719a1e7a85c7eca394e664c0e74b7c9ebc621f0b093112d04b88600001518960200151604051610af5929190611b32565b60405180910390a28495505050505050919050565b600087878787878787604051602001610b299796959493929190611b83565b604051602081830303815290604052805190602001209050979650505050505050565b604051806101c00160405280600081526020016060815260200160008152602001606081526020016000815260200160008152602001600081526020016000815260200160006003811115610ba457610ba3610fc7565b5b815260200160608152602001606081526020016060815260200160008019168152602001600081525090565b6000604051905090565b600080fd5b600080fd5b600080fd5b600080fd5b6000601f19601f8301169050919050565b7f4e487b7100000000000000000000000000000000000000000000000000000000600052604160045260246000fd5b610c3782610bee565b810181811067ffffffffffffffff82111715610c5657610c55610bff565b5b80604052505050565b6000610c69610bd0565b9050610c758282610c2e565b919050565b600067ffffffffffffffff821115610c9557610c94610bff565b5b610c9e82610bee565b9050602081019050919050565b82818337600083830152505050565b6000610ccd610cc884610c7a565b610c5f565b905082815260208101848484011115610ce957610ce8610be9565b5b610cf4848285610cab565b509392505050565b600082601f830112610d1157610d10610be4565b5b8135610d21848260208601610cba565b91505092915050565b6000819050919050565b610d3d81610d2a565b8114610d4857600080fd5b50565b600081359050610d5a81610d34565b92915050565b60008060008060008060008060006101208a8c031215610d8357610d82610bda565b5b60008a013567ffffffffffffffff811115610da157610da0610bdf565b5b610dad8c828d01610cfc565b9950506020610dbe8c828d01610d4b565b98505060408a013567ffffffffffffffff811115610ddf57610dde610bdf565b5b610deb8c828d01610cfc565b97505060608a013567ffffffffffffffff811115610e0c57610e0b610bdf565b5b610e188c828d01610cfc565b96505060808a013567ffffffffffffffff811115610e3957610e38610bdf565b5b610e458c828d01610cfc565b95505060a08a013567ffffffffffffffff811115610e6657610e65610bdf565b5b610e728c828d01610cfc565b94505060c0610e838c828d01610d4b565b93505060e0610e948c828d01610d4b565b925050610100610ea68c828d01610d4b565b9150509295985092959850929598565b610ebf81610d2a565b82525050565b6000602082019050610eda6000830184610eb6565b92915050565b600060208284031215610ef657610ef5610bda565b5b6000610f0484828501610d4b565b91505092915050565b600081519050919050565b600082825260208201905092915050565b6000819050602082019050919050565b610f4281610d2a565b82525050565b600081519050919050565b600082825260208201905092915050565b60005b83811015610f82578082015181840152602081019050610f67565b60008484015250505050565b6000610f9982610f48565b610fa38185610f53565b9350610fb3818560208601610f64565b610fbc81610bee565b840191505092915050565b7f4e487b7100000000000000000000000000000000000000000000000000000000600052602160045260246000fd5b6004811061100757611006610fc7565b5b50565b600081905061101882610ff6565b919050565b60006110288261100a565b9050919050565b6110388161101d565b82525050565b6000819050919050565b6110518161103e565b82525050565b60006101c0830160008301516110706000860182610f39565b50602083015184820360208601526110888282610f8e565b915050604083015161109d6040860182610f39565b50606083015184820360608601526110b58282610f8e565b91505060808301516110ca6080860182610f39565b5060a08301516110dd60a0860182610f39565b5060c08301516110f060c0860182610f39565b5060e083015161110360e0860182610f39565b5061010083015161111861010086018261102f565b506101208301518482036101208601526111328282610f8e565b91505061014083015184820361014086015261114e8282610f8e565b91505061016083015184820361016086015261116a8282610f8e565b915050610180830151611181610180860182611048565b506101a08301516111966101a0860182610f39565b508091505092915050565b60006111ad8383611057565b905092915050565b6000602082019050919050565b60006111cd82610f0d565b6111d78185610f18565b9350836020820285016111e985610f29565b8060005b85811015611225578484038952815161120685826111a1565b9450611211836111b5565b925060208a019950506001810190506111ed565b50829750879550505050505092915050565b6000602082019050818103600083015261125181846111c2565b905092915050565b7f4e487b7100000000000000000000000000000000000000000000000000000000600052601160045260246000fd5b600061129382610d2a565b91507fffffffffffffffffffffffffffffffffffffffffffffffffffffffffffffffff82036112c5576112c4611259565b5b600182019050919050565b7f4e487b7100000000000000000000000000000000000000000000000000000000600052602260045260246000fd5b6000600282049050600182168061131757607f821691505b60208210810361132a576113296112d0565b5b50919050565b7f4e487b7100000000000000000000000000000000000000000000000000000000600052603260045260246000fd5b600082825260208201905092915050565b7f53534343206d7573742062652031382063686172616374657273206c6f6e6700600082015250565b60006113a6601f8361135f565b91506113b182611370565b602082019050919050565b600060208201905081810360008301526113d581611399565b9050919050565b600081905092915050565b60006113f282610f48565b6113fc81856113dc565b935061140c818560208601610f64565b80840191505092915050565b600061142482846113e7565b915081905092915050565b7f5353434320616c72656164792065786973747300000000000000000000000000600082015250565b600061146560138361135f565b91506114708261142f565b602082019050919050565b6000602082019050818103600083015261149481611458565b9050919050565b7f5175616e74697479206d757374206e6f7420626520656d707479000000000000600082015250565b60006114d1601a8361135f565b91506114dc8261149b565b602082019050919050565b60006020820190508181036000830152611500816114c4565b9050919050565b7f50726f6475637420696d6167652055524c206973207265717569726564000000600082015250565b600061153d601d8361135f565b915061154882611507565b602082019050919050565b6000602082019050818103600083015261156c81611530565b9050919050565b7f436572746966696361746520696d6167652055524c206973207265717569726560008201527f6400000000000000000000000000000000000000000000000000000000000000602082015250565b60006115cf60218361135f565b91506115da82611573565b604082019050919050565b600060208201905081810360008301526115fe816115c2565b9050919050565b7f4661726d20706c6f74206e756d62657220697320726571756972656400000000600082015250565b600061163b601c8361135f565b915061164682611605565b602082019050919050565b6000602082019050818103600083015261166a8161162e565b9050919050565b7f50726f64756374204944206d7573742062652076616c69640000000000000000600082015250565b60006116a760188361135f565b91506116b282611671565b602082019050919050565b600060208201905081810360008301526116d68161169a565b9050919050565b7f5374617274206461746520697320726571756972656400000000000000000000600082015250565b600061171360168361135f565b915061171e826116dd565b602082019050919050565b6000602082019050818103600083015261174281611706565b9050919050565b7f456e642064617465206973207265717569726564000000000000000000000000600082015250565b600061177f60148361135f565b915061178a82611749565b602082019050919050565b600060208201905081810360008301526117ae81611772565b9050919050565b7f53746172742064617465206d757374206265206265666f726520656e6420646160008201527f7465000000000000000000000000000000000000000000000000000000000000602082015250565b600061181160228361135f565b915061181c826117b5565b604082019050919050565b6000602082019050818103600083015261184081611804565b9050919050565b600061185282610d2a565b915061185d83610d2a565b925082820190508082111561187557611874611259565b5b92915050565b60008190508160005260206000209050919050565b60006020601f8301049050919050565b600082821b905092915050565b6000600883026118dd7fffffffffffffffffffffffffffffffffffffffffffffffffffffffffffffffff826118a0565b6118e786836118a0565b95508019841693508086168417925050509392505050565b6000819050919050565b600061192461191f61191a84610d2a565b6118ff565b610d2a565b9050919050565b6000819050919050565b61193e83611909565b61195261194a8261192b565b8484546118ad565b825550505050565b600090565b61196761195a565b611972818484611935565b505050565b5b818110156119965761198b60008261195f565b600181019050611978565b5050565b601f8211156119db576119ac8161187b565b6119b584611890565b810160208510156119c4578190505b6119d86119d085611890565b830182611977565b50505b505050565b600082821c905092915050565b60006119fe600019846008026119e0565b1980831691505092915050565b6000611a1783836119ed565b9150826002028217905092915050565b611a3082610f48565b67ffffffffffffffff811115611a4957611a48610bff565b5b611a5382546112ff565b611a5e82828561199a565b600060209050601f831160018114611a915760008415611a7f578287015190505b611a898582611a0b565b865550611af1565b601f198416611a9f8661187b565b60005b82811015611ac757848901518255600182019150602085019450602081019050611aa2565b86831015611ae45784890151611ae0601f8916826119ed565b8355505b6001600288020188555050505b505050505050565b6000611b0482610f48565b611b0e818561135f565b9350611b1e818560208601610f64565b611b2781610bee565b840191505092915050565b60006040820190508181036000830152611b4c8185611af9565b9050611b5b6020830184610eb6565b9392505050565b6000819050919050565b611b7d611b7882610d2a565b611b62565b82525050565b6000611b8f828a6113e7565b9150611b9b8289611b6c565b602082019150611bab82886113e7565b9150611bb78287611b6c565b602082019150611bc78286611b6c565b602082019150611bd782856113e7565b9150611be38284611b6c565b6020820191508190509897505050505050505056fea2646970667358221220d03939cc4f39cfef5550805ae10f263332f00312e5b6e63c3a985f1512f55fb464736f6c63430008140033",
  "immutableReferences": {},
  "source": "// SPDX-License-Identifier: MIT\r\npragma solidity ^0.8.0;\r\n\r\ncontract TraceabilityContract {\r\n    uint256 private _batchIdCounter;\r\n\r\n    struct Batch {\r\n        uint256 batchId;\r\n        string sscc;\r\n        uint256 producerId;\r\n        string quantity;\r\n        uint256 productionDate;\r\n        uint256 expiryDate;\r\n        uint256 startDate;\r\n        uint256 endDate;\r\n        BatchStatus status;\r\n        string productImageUrl;\r\n        string certificateImageUrl;\r\n        string farmPlotNumber;\r\n        bytes32 dataHash;\r\n        uint256 productId;\r\n    }\r\n\r\n    enum BatchStatus { Created, PendingApproval, Approved, Rejected }\r\n\r\n    mapping(uint256 => Batch) private _batches;\r\n    mapping(string => uint256) private _ssccToBatchId;\r\n\r\n    event BatchCreated(uint256 indexed batchId, string sscc, uint256 producerId);\r\n\r\n    struct BatchParams {\r\n        string sscc;\r\n        uint256 producerId;\r\n        string quantity;\r\n        string productImageUrl;\r\n        string certificateImageUrl;\r\n        string farmPlotNumber;\r\n        uint256 productId;\r\n        uint256 startDate;\r\n        uint256 endDate;\r\n    }\r\n\r\n    function createBatch(\r\n        string memory _sscc,\r\n        uint256 _producerId,\r\n        string memory _quantity,\r\n        string memory _productImageUrl,\r\n        string memory _certificateImageUrl,\r\n        string memory _farmPlotNumber,\r\n        uint256 _productId,\r\n        uint256 _startDate,\r\n        uint256 _endDate\r\n    ) public returns (uint256) {\r\n        BatchParams memory params = BatchParams({\r\n            sscc: _sscc,\r\n            producerId: _producerId,\r\n            quantity: _quantity,\r\n            productImageUrl: _productImageUrl,\r\n            certificateImageUrl: _certificateImageUrl,\r\n            farmPlotNumber: _farmPlotNumber,\r\n            productId: _productId,\r\n            startDate: _startDate,\r\n            endDate: _endDate\r\n        });\r\n\r\n        return _createBatch(params);\r\n    }\r\n\r\n    function _createBatch(BatchParams memory params) private returns (uint256) {\r\n        require(bytes(params.sscc).length == 18, \"SSCC must be 18 characters long\");\r\n        require(_ssccToBatchId[params.sscc] == 0, \"SSCC already exists\");\r\n        require(bytes(params.quantity).length > 0, \"Quantity must not be empty\");\r\n        require(bytes(params.productImageUrl).length > 0, \"Product image URL is required\");\r\n        require(bytes(params.certificateImageUrl).length > 0, \"Certificate image URL is required\");\r\n        require(bytes(params.farmPlotNumber).length > 0, \"Farm plot number is required\");\r\n        require(params.productId > 0, \"Product ID must be valid\");\r\n        require(params.startDate > 0, \"Start date is required\");\r\n        require(params.endDate > 0, \"End date is required\");\r\n        require(params.startDate < params.endDate, \"Start date must be before end date\");\r\n\r\n        _batchIdCounter++;\r\n        uint256 newBatchId = _batchIdCounter;\r\n\r\n        uint256 productionDate = block.timestamp;\r\n        uint256 expiryDate = productionDate + 365 days;\r\n\r\n        bytes32 dataHash = _calculateDataHash(\r\n            params.sscc,\r\n            params.producerId,\r\n            // Remove the approverId parameter\r\n            params.quantity,\r\n            productionDate,\r\n            expiryDate,\r\n            params.farmPlotNumber,\r\n            params.productId\r\n        );\r\n\r\n        Batch memory newBatch = Batch({\r\n            batchId: newBatchId,\r\n            sscc: params.sscc,\r\n            producerId: params.producerId,\r\n            // Remove the approverId field\r\n            quantity: params.quantity,\r\n            productionDate: productionDate,\r\n            expiryDate: expiryDate,\r\n            startDate: params.startDate,\r\n            endDate: params.endDate,\r\n            status: BatchStatus.PendingApproval,\r\n            productImageUrl: params.productImageUrl,\r\n            certificateImageUrl: params.certificateImageUrl,\r\n            farmPlotNumber: params.farmPlotNumber,\r\n            dataHash: dataHash,\r\n            productId: params.productId\r\n        });\r\n\r\n        _batches[newBatchId] = newBatch;\r\n        _ssccToBatchId[params.sscc] = newBatchId;\r\n\r\n        emit BatchCreated(newBatchId, params.sscc, params.producerId);\r\n        return newBatchId;\r\n    }\r\n\r\n    function _calculateDataHash(\r\n        string memory _sscc,\r\n        uint256 _producerId,\r\n        // Remove the approverId parameter\r\n        string memory _quantity,\r\n        uint256 _productionDate,\r\n        uint256 _expiryDate,\r\n        string memory _farmPlotNumber,\r\n        uint256 _productId\r\n    ) private pure returns (bytes32) {\r\n        return keccak256(abi.encodePacked(_sscc, _producerId, _quantity, _productionDate, _expiryDate, _farmPlotNumber, _productId));\r\n    }\r\n\r\n    // Hm mi  ly danh sch cc l hng da trn producerId\r\n    function getBatchesByProducer(uint256 producerId) public view returns (Batch[] memory) {\r\n        uint256 count = 0;\r\n        for (uint256 i = 1; i <= _batchIdCounter; i++) {\r\n            if (_batches[i].producerId == producerId) {\r\n                count++;\r\n            }\r\n        }\r\n\r\n        Batch[] memory batches = new Batch[](count);\r\n        uint256 index = 0;\r\n        for (uint256 i = 1; i <= _batchIdCounter; i++) {\r\n            if (_batches[i].producerId == producerId) {\r\n                batches[index] = _batches[i];\r\n                index++;\r\n            }\r\n        }\r\n\r\n        return batches;\r\n    }\r\n}",
  "sourcePath": "D:\\projects\\nckh-be\\blockchain\\contracts\\supplychain.sol",
  "compiler": {
    "name": "solc",
    "version": "0.8.20+commit.a1b79de6.Emscripten.clang"
  },
  "schemaVersion": "3.4.16",
  "updatedAt": "2024-09-02T10:25:51.051Z",
  "networkType": "ethereum",
  "devdoc": {
    "kind": "dev",
    "methods": {},
    "version": 1
  },
  "userdoc": {
    "kind": "user",
    "methods": {},
    "version": 1
  }
}