{
  "contractName": "TraceabilityContract",
  "abi": [
    {
      "anonymous": false,
      "inputs": [
        {
          "indexed": true,
          "internalType": "uint256",
          "name": "uid",
          "type": "uint256"
        },
        {
          "indexed": false,
          "internalType": "string",
          "name": "activityName",
          "type": "string"
        },
        {
          "indexed": false,
          "internalType": "string",
          "name": "description",
          "type": "string"
        },
        {
          "indexed": false,
          "internalType": "bool",
          "name": "isSystemGenerated",
          "type": "bool"
        },
        {
          "indexed": false,
          "internalType": "string[]",
          "name": "imageUrls",
          "type": "string[]"
        },
        {
          "indexed": false,
          "internalType": "uint256[]",
          "name": "relatedProductIds",
          "type": "uint256[]"
        }
      ],
      "name": "ActivityLogAdded",
      "type": "event"
    },
    {
      "anonymous": false,
      "inputs": [
        {
          "indexed": true,
          "internalType": "uint256",
          "name": "batchId",
          "type": "uint256"
        },
        {
          "indexed": true,
          "internalType": "uint256",
          "name": "producerId",
          "type": "uint256"
        },
        {
          "indexed": false,
          "internalType": "string",
          "name": "sscc",
          "type": "string"
        }
      ],
      "name": "BatchApproved",
      "type": "event"
    },
    {
      "anonymous": false,
      "inputs": [
        {
          "indexed": true,
          "internalType": "uint256",
          "name": "batchId",
          "type": "uint256"
        },
        {
          "indexed": true,
          "internalType": "uint256",
          "name": "producerId",
          "type": "uint256"
        },
        {
          "indexed": false,
          "internalType": "string",
          "name": "sscc",
          "type": "string"
        }
      ],
      "name": "BatchApprovedForQR",
      "type": "event"
    },
    {
      "anonymous": false,
      "inputs": [
        {
          "indexed": true,
          "internalType": "uint256",
          "name": "batchId",
          "type": "uint256"
        },
        {
          "indexed": false,
          "internalType": "string",
          "name": "sscc",
          "type": "string"
        },
        {
          "indexed": false,
          "internalType": "uint256",
          "name": "producerId",
          "type": "uint256"
        }
      ],
      "name": "BatchCreated",
      "type": "event"
    },
    {
      "anonymous": false,
      "inputs": [
        {
          "indexed": true,
          "internalType": "uint256",
          "name": "batchId",
          "type": "uint256"
        },
        {
          "indexed": false,
          "internalType": "uint256",
          "name": "producerId",
          "type": "uint256"
        },
        {
          "indexed": false,
          "internalType": "string",
          "name": "sscc",
          "type": "string"
        }
      ],
      "name": "BatchRejected",
      "type": "event"
    },
    {
      "anonymous": false,
      "inputs": [
        {
          "indexed": true,
          "internalType": "uint256",
          "name": "batchId",
          "type": "uint256"
        },
        {
          "indexed": false,
          "internalType": "enum TraceabilityContract.BatchStatus",
          "name": "newStatus",
          "type": "uint8"
        }
      ],
      "name": "BatchStatusUpdated",
      "type": "event"
    },
    {
      "anonymous": false,
      "inputs": [
        {
          "indexed": true,
          "internalType": "uint256",
          "name": "batchId",
          "type": "uint256"
        },
        {
          "indexed": false,
          "internalType": "uint256",
          "name": "participantId",
          "type": "uint256"
        },
        {
          "indexed": false,
          "internalType": "string",
          "name": "participantType",
          "type": "string"
        },
        {
          "indexed": false,
          "internalType": "string",
          "name": "action",
          "type": "string"
        }
      ],
      "name": "ParticipationRecorded",
      "type": "event"
    },
    {
      "anonymous": false,
      "inputs": [
        {
          "indexed": true,
          "internalType": "uint256",
          "name": "batchId",
          "type": "uint256"
        },
        {
          "indexed": false,
          "internalType": "enum TraceabilityContract.DetailedTransportStatus",
          "name": "newStatus",
          "type": "uint8"
        },
        {
          "indexed": false,
          "internalType": "string",
          "name": "action",
          "type": "string"
        },
        {
          "indexed": false,
          "internalType": "uint256",
          "name": "participantId",
          "type": "uint256"
        },
        {
          "indexed": false,
          "internalType": "string",
          "name": "participantType",
          "type": "string"
        }
      ],
      "name": "TransportStatusUpdated",
      "type": "event"
    },
    {
      "inputs": [
        {
          "internalType": "string",
          "name": "_name",
          "type": "string"
        },
        {
          "internalType": "uint256",
          "name": "_producerId",
          "type": "uint256"
        },
        {
          "internalType": "string",
          "name": "_quantity",
          "type": "string"
        },
        {
          "internalType": "string[]",
          "name": "_productImageUrls",
          "type": "string[]"
        },
        {
          "internalType": "string",
          "name": "_certificateImageUrl",
          "type": "string"
        },
        {
          "internalType": "string",
          "name": "_farmPlotNumber",
          "type": "string"
        },
        {
          "internalType": "uint256",
          "name": "_productId",
          "type": "uint256"
        },
        {
          "internalType": "uint256",
          "name": "_startDate",
          "type": "uint256"
        },
        {
          "internalType": "uint256",
          "name": "_endDate",
          "type": "uint256"
        }
      ],
      "name": "createBatch",
      "outputs": [
        {
          "internalType": "uint256",
          "name": "",
          "type": "uint256"
        }
      ],
      "stateMutability": "nonpayable",
      "type": "function"
    },
    {
      "inputs": [
        {
          "internalType": "uint256",
          "name": "_uid",
          "type": "uint256"
        },
        {
          "internalType": "string",
          "name": "_activityName",
          "type": "string"
        },
        {
          "internalType": "string",
          "name": "_description",
          "type": "string"
        },
        {
          "internalType": "string[]",
          "name": "_imageUrls",
          "type": "string[]"
        },
        {
          "internalType": "uint256[]",
          "name": "_relatedProductIds",
          "type": "uint256[]"
        }
      ],
      "name": "addActivityLog",
      "outputs": [],
      "stateMutability": "nonpayable",
      "type": "function"
    },
    {
      "inputs": [
        {
          "internalType": "uint256",
          "name": "_uid",
          "type": "uint256"
        }
      ],
      "name": "getProducerActivityLogs",
      "outputs": [
        {
          "components": [
            {
              "internalType": "uint256",
              "name": "timestamp",
              "type": "uint256"
            },
            {
              "internalType": "uint256",
              "name": "uid",
              "type": "uint256"
            },
            {
              "internalType": "string",
              "name": "activityName",
              "type": "string"
            },
            {
              "internalType": "string",
              "name": "description",
              "type": "string"
            },
            {
              "internalType": "bool",
              "name": "isSystemGenerated",
              "type": "bool"
            },
            {
              "internalType": "string[]",
              "name": "imageUrls",
              "type": "string[]"
            },
            {
              "internalType": "uint256[]",
              "name": "relatedProductIds",
              "type": "uint256[]"
            }
          ],
          "internalType": "struct TraceabilityContract.ActivityLog[]",
          "name": "",
          "type": "tuple[]"
        }
      ],
      "stateMutability": "view",
      "type": "function",
      "constant": true
    },
    {
      "inputs": [
        {
          "internalType": "string",
          "name": "sscc",
          "type": "string"
        }
      ],
      "name": "ssccExists",
      "outputs": [
        {
          "internalType": "bool",
          "name": "",
          "type": "bool"
        }
      ],
      "stateMutability": "view",
      "type": "function",
      "constant": true
    },
    {
      "inputs": [
        {
          "internalType": "uint256",
          "name": "producerId",
          "type": "uint256"
        }
      ],
      "name": "getBatchesByProducer",
      "outputs": [
        {
          "components": [
            {
              "internalType": "uint256",
              "name": "batchId",
              "type": "uint256"
            },
            {
              "internalType": "string",
              "name": "name",
              "type": "string"
            },
            {
              "internalType": "string",
              "name": "sscc",
              "type": "string"
            },
            {
              "internalType": "uint256",
              "name": "producerId",
              "type": "uint256"
            },
            {
              "internalType": "string",
              "name": "quantity",
              "type": "string"
            },
            {
              "internalType": "uint256",
              "name": "productionDate",
              "type": "uint256"
            },
            {
              "internalType": "uint256",
              "name": "startDate",
              "type": "uint256"
            },
            {
              "internalType": "uint256",
              "name": "endDate",
              "type": "uint256"
            },
            {
              "internalType": "enum TraceabilityContract.BatchStatus",
              "name": "status",
              "type": "uint8"
            },
            {
              "internalType": "string[]",
              "name": "productImageUrls",
              "type": "string[]"
            },
            {
              "internalType": "string",
              "name": "certificateImageUrl",
              "type": "string"
            },
            {
              "internalType": "string",
              "name": "farmPlotNumber",
              "type": "string"
            },
            {
              "internalType": "bytes32",
              "name": "dataHash",
              "type": "bytes32"
            },
            {
              "internalType": "uint256",
              "name": "productId",
              "type": "uint256"
            },
            {
              "internalType": "enum TraceabilityContract.TransportStatus",
              "name": "transportStatus",
              "type": "uint8"
            },
            {
              "internalType": "enum TraceabilityContract.DetailedTransportStatus",
              "name": "detailedTransportStatus",
              "type": "uint8"
            },
            {
              "internalType": "uint256",
              "name": "lastTransporterId",
              "type": "uint256"
            }
          ],
          "internalType": "struct TraceabilityContract.Batch[]",
          "name": "",
          "type": "tuple[]"
        }
      ],
      "stateMutability": "view",
      "type": "function",
      "constant": true
    },
    {
      "inputs": [
        {
          "internalType": "uint256",
          "name": "_batchId",
          "type": "uint256"
        },
        {
          "internalType": "enum TraceabilityContract.BatchStatus",
          "name": "_newStatus",
          "type": "uint8"
        }
      ],
      "name": "updateBatchStatus",
      "outputs": [],
      "stateMutability": "nonpayable",
      "type": "function"
    },
    {
      "inputs": [
        {
          "internalType": "uint256",
          "name": "_producerId",
          "type": "uint256"
        }
      ],
      "name": "getPendingBatchesByProducer",
      "outputs": [
        {
          "components": [
            {
              "internalType": "uint256",
              "name": "batchId",
              "type": "uint256"
            },
            {
              "internalType": "string",
              "name": "name",
              "type": "string"
            },
            {
              "internalType": "string",
              "name": "sscc",
              "type": "string"
            },
            {
              "internalType": "uint256",
              "name": "producerId",
              "type": "uint256"
            },
            {
              "internalType": "string",
              "name": "quantity",
              "type": "string"
            },
            {
              "internalType": "uint256",
              "name": "productionDate",
              "type": "uint256"
            },
            {
              "internalType": "uint256",
              "name": "startDate",
              "type": "uint256"
            },
            {
              "internalType": "uint256",
              "name": "endDate",
              "type": "uint256"
            },
            {
              "internalType": "enum TraceabilityContract.BatchStatus",
              "name": "status",
              "type": "uint8"
            },
            {
              "internalType": "string[]",
              "name": "productImageUrls",
              "type": "string[]"
            },
            {
              "internalType": "string",
              "name": "certificateImageUrl",
              "type": "string"
            },
            {
              "internalType": "string",
              "name": "farmPlotNumber",
              "type": "string"
            },
            {
              "internalType": "bytes32",
              "name": "dataHash",
              "type": "bytes32"
            },
            {
              "internalType": "uint256",
              "name": "productId",
              "type": "uint256"
            },
            {
              "internalType": "enum TraceabilityContract.TransportStatus",
              "name": "transportStatus",
              "type": "uint8"
            },
            {
              "internalType": "enum TraceabilityContract.DetailedTransportStatus",
              "name": "detailedTransportStatus",
              "type": "uint8"
            },
            {
              "internalType": "uint256",
              "name": "lastTransporterId",
              "type": "uint256"
            }
          ],
          "internalType": "struct TraceabilityContract.Batch[]",
          "name": "",
          "type": "tuple[]"
        }
      ],
      "stateMutability": "view",
      "type": "function",
      "constant": true
    },
    {
      "inputs": [
        {
          "internalType": "uint256",
          "name": "_producerId",
          "type": "uint256"
        }
      ],
      "name": "getRejectedBatchesByProducer",
      "outputs": [
        {
          "components": [
            {
              "internalType": "uint256",
              "name": "batchId",
              "type": "uint256"
            },
            {
              "internalType": "string",
              "name": "name",
              "type": "string"
            },
            {
              "internalType": "string",
              "name": "sscc",
              "type": "string"
            },
            {
              "internalType": "uint256",
              "name": "producerId",
              "type": "uint256"
            },
            {
              "internalType": "string",
              "name": "quantity",
              "type": "string"
            },
            {
              "internalType": "uint256",
              "name": "productionDate",
              "type": "uint256"
            },
            {
              "internalType": "uint256",
              "name": "startDate",
              "type": "uint256"
            },
            {
              "internalType": "uint256",
              "name": "endDate",
              "type": "uint256"
            },
            {
              "internalType": "enum TraceabilityContract.BatchStatus",
              "name": "status",
              "type": "uint8"
            },
            {
              "internalType": "string[]",
              "name": "productImageUrls",
              "type": "string[]"
            },
            {
              "internalType": "string",
              "name": "certificateImageUrl",
              "type": "string"
            },
            {
              "internalType": "string",
              "name": "farmPlotNumber",
              "type": "string"
            },
            {
              "internalType": "bytes32",
              "name": "dataHash",
              "type": "bytes32"
            },
            {
              "internalType": "uint256",
              "name": "productId",
              "type": "uint256"
            },
            {
              "internalType": "enum TraceabilityContract.TransportStatus",
              "name": "transportStatus",
              "type": "uint8"
            },
            {
              "internalType": "enum TraceabilityContract.DetailedTransportStatus",
              "name": "detailedTransportStatus",
              "type": "uint8"
            },
            {
              "internalType": "uint256",
              "name": "lastTransporterId",
              "type": "uint256"
            }
          ],
          "internalType": "struct TraceabilityContract.Batch[]",
          "name": "",
          "type": "tuple[]"
        }
      ],
      "stateMutability": "view",
      "type": "function",
      "constant": true
    },
    {
      "inputs": [],
      "name": "getAllPendingBatches",
      "outputs": [
        {
          "components": [
            {
              "internalType": "uint256",
              "name": "batchId",
              "type": "uint256"
            },
            {
              "internalType": "string",
              "name": "name",
              "type": "string"
            },
            {
              "internalType": "string",
              "name": "sscc",
              "type": "string"
            },
            {
              "internalType": "uint256",
              "name": "producerId",
              "type": "uint256"
            },
            {
              "internalType": "string",
              "name": "quantity",
              "type": "string"
            },
            {
              "internalType": "uint256",
              "name": "productionDate",
              "type": "uint256"
            },
            {
              "internalType": "uint256",
              "name": "startDate",
              "type": "uint256"
            },
            {
              "internalType": "uint256",
              "name": "endDate",
              "type": "uint256"
            },
            {
              "internalType": "enum TraceabilityContract.BatchStatus",
              "name": "status",
              "type": "uint8"
            },
            {
              "internalType": "string[]",
              "name": "productImageUrls",
              "type": "string[]"
            },
            {
              "internalType": "string",
              "name": "certificateImageUrl",
              "type": "string"
            },
            {
              "internalType": "string",
              "name": "farmPlotNumber",
              "type": "string"
            },
            {
              "internalType": "bytes32",
              "name": "dataHash",
              "type": "bytes32"
            },
            {
              "internalType": "uint256",
              "name": "productId",
              "type": "uint256"
            },
            {
              "internalType": "enum TraceabilityContract.TransportStatus",
              "name": "transportStatus",
              "type": "uint8"
            },
            {
              "internalType": "enum TraceabilityContract.DetailedTransportStatus",
              "name": "detailedTransportStatus",
              "type": "uint8"
            },
            {
              "internalType": "uint256",
              "name": "lastTransporterId",
              "type": "uint256"
            }
          ],
          "internalType": "struct TraceabilityContract.Batch[]",
          "name": "",
          "type": "tuple[]"
        }
      ],
      "stateMutability": "view",
      "type": "function",
      "constant": true
    },
    {
      "inputs": [
        {
          "internalType": "uint256",
          "name": "_batchId",
          "type": "uint256"
        }
      ],
      "name": "getBatchDetails",
      "outputs": [
        {
          "components": [
            {
              "internalType": "uint256",
              "name": "batchId",
              "type": "uint256"
            },
            {
              "internalType": "string",
              "name": "name",
              "type": "string"
            },
            {
              "internalType": "string",
              "name": "sscc",
              "type": "string"
            },
            {
              "internalType": "uint256",
              "name": "producerId",
              "type": "uint256"
            },
            {
              "internalType": "string",
              "name": "quantity",
              "type": "string"
            },
            {
              "internalType": "uint256",
              "name": "productionDate",
              "type": "uint256"
            },
            {
              "internalType": "uint256",
              "name": "startDate",
              "type": "uint256"
            },
            {
              "internalType": "uint256",
              "name": "endDate",
              "type": "uint256"
            },
            {
              "internalType": "enum TraceabilityContract.BatchStatus",
              "name": "status",
              "type": "uint8"
            },
            {
              "internalType": "string[]",
              "name": "productImageUrls",
              "type": "string[]"
            },
            {
              "internalType": "string",
              "name": "certificateImageUrl",
              "type": "string"
            },
            {
              "internalType": "string",
              "name": "farmPlotNumber",
              "type": "string"
            },
            {
              "internalType": "bytes32",
              "name": "dataHash",
              "type": "bytes32"
            },
            {
              "internalType": "uint256",
              "name": "productId",
              "type": "uint256"
            },
            {
              "internalType": "enum TraceabilityContract.TransportStatus",
              "name": "transportStatus",
              "type": "uint8"
            },
            {
              "internalType": "enum TraceabilityContract.DetailedTransportStatus",
              "name": "detailedTransportStatus",
              "type": "uint8"
            },
            {
              "internalType": "uint256",
              "name": "lastTransporterId",
              "type": "uint256"
            }
          ],
          "internalType": "struct TraceabilityContract.Batch",
          "name": "",
          "type": "tuple"
        }
      ],
      "stateMutability": "view",
      "type": "function",
      "constant": true
    },
    {
      "inputs": [],
      "name": "getTotalBatches",
      "outputs": [
        {
          "internalType": "uint256",
          "name": "",
          "type": "uint256"
        }
      ],
      "stateMutability": "view",
      "type": "function",
      "constant": true
    },
    {
      "inputs": [
        {
          "internalType": "uint256",
          "name": "_batchId",
          "type": "uint256"
        },
        {
          "internalType": "uint256",
          "name": "_producerId",
          "type": "uint256"
        }
      ],
      "name": "isProducerOfBatch",
      "outputs": [
        {
          "internalType": "bool",
          "name": "",
          "type": "bool"
        }
      ],
      "stateMutability": "view",
      "type": "function",
      "constant": true
    },
    {
      "inputs": [
        {
          "internalType": "uint256",
          "name": "_uid",
          "type": "uint256"
        }
      ],
      "name": "getActivityLogs",
      "outputs": [
        {
          "components": [
            {
              "internalType": "uint256",
              "name": "timestamp",
              "type": "uint256"
            },
            {
              "internalType": "uint256",
              "name": "uid",
              "type": "uint256"
            },
            {
              "internalType": "string",
              "name": "activityName",
              "type": "string"
            },
            {
              "internalType": "string",
              "name": "description",
              "type": "string"
            },
            {
              "internalType": "bool",
              "name": "isSystemGenerated",
              "type": "bool"
            },
            {
              "internalType": "string[]",
              "name": "imageUrls",
              "type": "string[]"
            },
            {
              "internalType": "uint256[]",
              "name": "relatedProductIds",
              "type": "uint256[]"
            }
          ],
          "internalType": "struct TraceabilityContract.ActivityLog[]",
          "name": "",
          "type": "tuple[]"
        }
      ],
      "stateMutability": "view",
      "type": "function",
      "constant": true
    },
    {
      "inputs": [
        {
          "internalType": "uint256",
          "name": "_uid",
          "type": "uint256"
        }
      ],
      "name": "getActivityLogCount",
      "outputs": [
        {
          "internalType": "uint256",
          "name": "",
          "type": "uint256"
        }
      ],
      "stateMutability": "view",
      "type": "function",
      "constant": true
    },
    {
      "inputs": [
        {
          "internalType": "uint256",
          "name": "_batchId",
          "type": "uint256"
        }
      ],
      "name": "approveBatch",
      "outputs": [],
      "stateMutability": "nonpayable",
      "type": "function"
    },
    {
      "inputs": [
        {
          "internalType": "uint256",
          "name": "_batchId",
          "type": "uint256"
        }
      ],
      "name": "rejectBatch",
      "outputs": [],
      "stateMutability": "nonpayable",
      "type": "function"
    },
    {
      "inputs": [
        {
          "internalType": "uint256",
          "name": "_producerId",
          "type": "uint256"
        }
      ],
      "name": "getApprovedBatchesByProducer",
      "outputs": [
        {
          "components": [
            {
              "internalType": "uint256",
              "name": "batchId",
              "type": "uint256"
            },
            {
              "internalType": "string",
              "name": "name",
              "type": "string"
            },
            {
              "internalType": "string",
              "name": "sscc",
              "type": "string"
            },
            {
              "internalType": "uint256",
              "name": "producerId",
              "type": "uint256"
            },
            {
              "internalType": "string",
              "name": "quantity",
              "type": "string"
            },
            {
              "internalType": "uint256",
              "name": "productionDate",
              "type": "uint256"
            },
            {
              "internalType": "uint256",
              "name": "startDate",
              "type": "uint256"
            },
            {
              "internalType": "uint256",
              "name": "endDate",
              "type": "uint256"
            },
            {
              "internalType": "enum TraceabilityContract.BatchStatus",
              "name": "status",
              "type": "uint8"
            },
            {
              "internalType": "string[]",
              "name": "productImageUrls",
              "type": "string[]"
            },
            {
              "internalType": "string",
              "name": "certificateImageUrl",
              "type": "string"
            },
            {
              "internalType": "string",
              "name": "farmPlotNumber",
              "type": "string"
            },
            {
              "internalType": "bytes32",
              "name": "dataHash",
              "type": "bytes32"
            },
            {
              "internalType": "uint256",
              "name": "productId",
              "type": "uint256"
            },
            {
              "internalType": "enum TraceabilityContract.TransportStatus",
              "name": "transportStatus",
              "type": "uint8"
            },
            {
              "internalType": "enum TraceabilityContract.DetailedTransportStatus",
              "name": "detailedTransportStatus",
              "type": "uint8"
            },
            {
              "internalType": "uint256",
              "name": "lastTransporterId",
              "type": "uint256"
            }
          ],
          "internalType": "struct TraceabilityContract.Batch[]",
          "name": "",
          "type": "tuple[]"
        }
      ],
      "stateMutability": "view",
      "type": "function",
      "constant": true
    },
    {
      "inputs": [
        {
          "internalType": "string",
          "name": "_sscc",
          "type": "string"
        }
      ],
      "name": "getBatchBySSCC",
      "outputs": [
        {
          "components": [
            {
              "internalType": "uint256",
              "name": "batchId",
              "type": "uint256"
            },
            {
              "internalType": "string",
              "name": "name",
              "type": "string"
            },
            {
              "internalType": "string",
              "name": "sscc",
              "type": "string"
            },
            {
              "internalType": "uint256",
              "name": "producerId",
              "type": "uint256"
            },
            {
              "internalType": "string",
              "name": "quantity",
              "type": "string"
            },
            {
              "internalType": "uint256",
              "name": "productionDate",
              "type": "uint256"
            },
            {
              "internalType": "uint256",
              "name": "startDate",
              "type": "uint256"
            },
            {
              "internalType": "uint256",
              "name": "endDate",
              "type": "uint256"
            },
            {
              "internalType": "enum TraceabilityContract.BatchStatus",
              "name": "status",
              "type": "uint8"
            },
            {
              "internalType": "string[]",
              "name": "productImageUrls",
              "type": "string[]"
            },
            {
              "internalType": "string",
              "name": "certificateImageUrl",
              "type": "string"
            },
            {
              "internalType": "string",
              "name": "farmPlotNumber",
              "type": "string"
            },
            {
              "internalType": "bytes32",
              "name": "dataHash",
              "type": "bytes32"
            },
            {
              "internalType": "uint256",
              "name": "productId",
              "type": "uint256"
            },
            {
              "internalType": "enum TraceabilityContract.TransportStatus",
              "name": "transportStatus",
              "type": "uint8"
            },
            {
              "internalType": "enum TraceabilityContract.DetailedTransportStatus",
              "name": "detailedTransportStatus",
              "type": "uint8"
            },
            {
              "internalType": "uint256",
              "name": "lastTransporterId",
              "type": "uint256"
            }
          ],
          "internalType": "struct TraceabilityContract.Batch",
          "name": "",
          "type": "tuple"
        }
      ],
      "stateMutability": "view",
      "type": "function",
      "constant": true
    },
    {
      "inputs": [
        {
          "internalType": "string",
          "name": "_sscc",
          "type": "string"
        }
      ],
      "name": "isValidSSCC",
      "outputs": [
        {
          "internalType": "bool",
          "name": "",
          "type": "bool"
        }
      ],
      "stateMutability": "view",
      "type": "function",
      "constant": true
    },
    {
      "inputs": [
        {
          "internalType": "uint256",
          "name": "_batchId",
          "type": "uint256"
        }
      ],
      "name": "isBatchApproved",
      "outputs": [
        {
          "internalType": "bool",
          "name": "",
          "type": "bool"
        }
      ],
      "stateMutability": "view",
      "type": "function",
      "constant": true
    },
    {
      "inputs": [
        {
          "internalType": "uint256",
          "name": "_batchId",
          "type": "uint256"
        },
        {
          "internalType": "uint256",
          "name": "_participantId",
          "type": "uint256"
        },
        {
          "internalType": "string",
          "name": "_participantType",
          "type": "string"
        },
        {
          "internalType": "string",
          "name": "_action",
          "type": "string"
        }
      ],
      "name": "recordParticipation",
      "outputs": [],
      "stateMutability": "nonpayable",
      "type": "function"
    },
    {
      "inputs": [
        {
          "internalType": "uint256",
          "name": "_batchId",
          "type": "uint256"
        },
        {
          "internalType": "uint256",
          "name": "_participantId",
          "type": "uint256"
        },
        {
          "internalType": "string",
          "name": "_action",
          "type": "string"
        },
        {
          "internalType": "string",
          "name": "_participantType",
          "type": "string"
        }
      ],
      "name": "updateTransportStatus",
      "outputs": [],
      "stateMutability": "nonpayable",
      "type": "function"
    },
    {
      "inputs": [
        {
          "internalType": "string",
          "name": "_sscc",
          "type": "string"
        }
      ],
      "name": "getBatchIdBySSCC",
      "outputs": [
        {
          "internalType": "uint256",
          "name": "",
          "type": "uint256"
        }
      ],
      "stateMutability": "view",
      "type": "function",
      "constant": true
    },
    {
      "inputs": [
        {
          "internalType": "uint256",
          "name": "_batchId",
          "type": "uint256"
        }
      ],
      "name": "getDetailedTransportStatus",
      "outputs": [
        {
          "internalType": "enum TraceabilityContract.DetailedTransportStatus",
          "name": "",
          "type": "uint8"
        }
      ],
      "stateMutability": "view",
      "type": "function",
      "constant": true
    },
    {
      "inputs": [
        {
          "internalType": "uint256",
          "name": "_batchId",
          "type": "uint256"
        },
        {
          "internalType": "uint256",
          "name": "_transporterId",
          "type": "uint256"
        }
      ],
      "name": "canStartTransport",
      "outputs": [
        {
          "internalType": "bool",
          "name": "",
          "type": "bool"
        }
      ],
      "stateMutability": "view",
      "type": "function",
      "constant": true
    },
    {
      "inputs": [
        {
          "internalType": "uint256",
          "name": "_batchId",
          "type": "uint256"
        }
      ],
      "name": "getTransportHistory",
      "outputs": [
        {
          "components": [
            {
              "internalType": "uint256",
              "name": "participantId",
              "type": "uint256"
            },
            {
              "internalType": "uint256",
              "name": "timestamp",
              "type": "uint256"
            },
            {
              "internalType": "string",
              "name": "action",
              "type": "string"
            },
            {
              "internalType": "string",
              "name": "participantType",
              "type": "string"
            }
          ],
          "internalType": "struct TraceabilityContract.TransportEvent[]",
          "name": "",
          "type": "tuple[]"
        }
      ],
      "stateMutability": "view",
      "type": "function",
      "constant": true
    },
    {
      "inputs": [
        {
          "internalType": "uint256",
          "name": "_batchId",
          "type": "uint256"
        }
      ],
      "name": "getBatchTransportStatus",
      "outputs": [
        {
          "internalType": "enum TraceabilityContract.TransportStatus",
          "name": "",
          "type": "uint8"
        }
      ],
      "stateMutability": "view",
      "type": "function",
      "constant": true
    }
  ],
  "bytecode": "0x608060405234801561001057600080fd5b50615a2280620000216000396000f3fe608060405234801561001057600080fd5b50600436106101a95760003560e01c806397ae6a0e116100f9578063d040e18c11610097578063dd235d9d11610071578063dd235d9d146103c8578063e561dddc146103db578063f7f097f4146103e3578063f9b8da0e146103f657600080fd5b8063d040e18c146101ae578063d043b843146103a2578063d9860bfc146103b557600080fd5b8063a7934786116100d3578063a793478614610349578063a847e4d71461035c578063b82adf3b1461037c578063bf193ffa1461038f57600080fd5b806397ae6a0e146102f65780639d47dcc014610316578063a7732c961461033657600080fd5b806347e2f863116101665780635aa825aa116101405780635aa825aa146102a857806380e32d45146102b0578063838b1da3146102c357806385bdd03f146102d657600080fd5b806347e2f8631461026d578063510664ed1461028057806352c88f361461029557600080fd5b806304008078146101ae5780630d82dcf4146101d65780630e6e369c146101f957806319d6ed3c146102195780632db53c9d1461023a57806336c701e11461025a575b600080fd5b6101c16101bc366004614c05565b61041b565b60405190151581526020015b60405180910390f35b6101c16101e4366004614c41565b60009081526005602052604090205460ff1690565b61020c610207366004614c41565b610445565b6040516101cd9190614d3d565b61022c610227366004614c05565b61072d565b6040519081526020016101cd565b61024d610248366004614c41565b610755565b6040516101cd9190614f9b565b61022c6102683660046150af565b610d87565b61024d61027b366004614c41565b610df8565b61029361028e3660046151a7565b61141e565b005b6102936102a336600461521d565b6116b5565b61024d611756565b61024d6102be366004614c41565b611d4b565b6102936102d1366004614c41565b612311565b61022c6102e4366004614c41565b60009081526004602052604090205490565b610309610304366004614c41565b6124c9565b6040516101cd9190615251565b610329610324366004614c41565b612514565b6040516101cd9190615264565b610309610344366004614c41565b612a11565b6101c1610357366004615277565b612a57565b61036f61036a366004614c41565b612ae4565b6040516101cd9190615299565b61029361038a3660046151a7565b612c83565b61029361039d366004615327565b612d70565b61024d6103b0366004614c41565b612e9d565b6103296103c3366004614c05565b6134c9565b6102936103d6366004614c41565b613a19565b60005461022c565b61020c6103f1366004614c41565b613c38565b6101c1610404366004615277565b600091825260026020526040909120600301541490565b600060038260405161042d9190615433565b90815260405190819003602001902054151592915050565b606060046000838152602001908152602001600020805480602002602001604051908101604052809291908181526020016000905b8282101561072257838290600052602060002090600702016040518060e001604052908160008201548152602001600182015481526020016002820180546104c19061544f565b80601f01602080910402602001604051908101604052809291908181526020018280546104ed9061544f565b801561053a5780601f1061050f5761010080835404028352916020019161053a565b820191906000526020600020905b81548152906001019060200180831161051d57829003601f168201915b505050505081526020016003820180546105539061544f565b80601f016020809104026020016040519081016040528092919081815260200182805461057f9061544f565b80156105cc5780601f106105a1576101008083540402835291602001916105cc565b820191906000526020600020905b8154815290600101906020018083116105af57829003601f168201915b5050509183525050600482015460ff161515602080830191909152600583018054604080518285028101850182528281529401939260009084015b828210156106b35783829060005260206000200180546106269061544f565b80601f01602080910402602001604051908101604052809291908181526020018280546106529061544f565b801561069f5780601f106106745761010080835404028352916020019161069f565b820191906000526020600020905b81548152906001019060200180831161068257829003601f168201915b505050505081526020019060010190610607565b5050505081526020016006820180548060200260200160405190810160405280929190818152602001828054801561070a57602002820191906000526020600020905b8154815260200190600101908083116106f6575b5050505050815250508152602001906001019061047a565b505050509050919050565b600060038260405161073f9190615433565b9081526020016040518091039020549050919050565b6060600060015b60005481116107cf57600081815260026020526040902060030154841480156107aa575060008181526002602081905260409091206008015460ff16818111156107a8576107a8614e1c565b145b156107bd57816107b98161549f565b9250505b806107c78161549f565b91505061075c565b506000816001600160401b038111156107ea576107ea614b50565b60405190808252806020026020018201604052801561082357816020015b61081061499b565b8152602001906001900390816108085790505b509050600060015b6000548111610d7d5760008181526002602052604090206003015486148015610879575060008181526002602081905260409091206008015460ff168181111561087757610877614e1c565b145b15610d6b576002600082815260200190815260200160002060405180610220016040529081600082015481526020016001820180546108b79061544f565b80601f01602080910402602001604051908101604052809291908181526020018280546108e39061544f565b80156109305780601f1061090557610100808354040283529160200191610930565b820191906000526020600020905b81548152906001019060200180831161091357829003601f168201915b505050505081526020016002820180546109499061544f565b80601f01602080910402602001604051908101604052809291908181526020018280546109759061544f565b80156109c25780601f10610997576101008083540402835291602001916109c2565b820191906000526020600020905b8154815290600101906020018083116109a557829003601f168201915b50505050508152602001600382015481526020016004820180546109e59061544f565b80601f0160208091040260200160405190810160405280929190818152602001828054610a119061544f565b8015610a5e5780601f10610a3357610100808354040283529160200191610a5e565b820191906000526020600020905b815481529060010190602001808311610a4157829003601f168201915b5050509183525050600582015460208201526006820154604082015260078201546060820152600882015460809091019060ff166002811115610aa357610aa3614e1c565b6002811115610ab457610ab4614e1c565b815260200160098201805480602002602001604051908101604052809291908181526020016000905b82821015610b89578382906000526020600020018054610afc9061544f565b80601f0160208091040260200160405190810160405280929190818152602001828054610b289061544f565b8015610b755780601f10610b4a57610100808354040283529160200191610b75565b820191906000526020600020905b815481529060010190602001808311610b5857829003601f168201915b505050505081526020019060010190610add565b505050508152602001600a82018054610ba19061544f565b80601f0160208091040260200160405190810160405280929190818152602001828054610bcd9061544f565b8015610c1a5780601f10610bef57610100808354040283529160200191610c1a565b820191906000526020600020905b815481529060010190602001808311610bfd57829003601f168201915b50505050508152602001600b82018054610c339061544f565b80601f0160208091040260200160405190810160405280929190818152602001828054610c5f9061544f565b8015610cac5780601f10610c8157610100808354040283529160200191610cac565b820191906000526020600020905b815481529060010190602001808311610c8f57829003601f168201915b5050509183525050600c8201546020820152600d8201546040820152600e82015460609091019060ff166002811115610ce757610ce7614e1c565b6002811115610cf857610cf8614e1c565b8152602001600e820160019054906101000a900460ff166002811115610d2057610d20614e1c565b6002811115610d3157610d31614e1c565b8152602001600f82015481525050838381518110610d5157610d516154b8565b60200260200101819052508180610d679061549f565b9250505b80610d758161549f565b91505061082b565b5090949350505050565b600080610d938a613f15565b905060006040518061014001604052808d81526020018381526020018c81526020018b81526020018a8152602001898152602001888152602001878152602001868152602001858152509050610de881613fe8565b9c9b505050505050505050505050565b6060600060015b6000548111610e715760008181526002602052604090206003015484148015610e4c5750600081815260026020819052604082206008015460ff1690811115610e4a57610e4a614e1c565b145b15610e5f5781610e5b8161549f565b9250505b80610e698161549f565b915050610dff565b506000816001600160401b03811115610e8c57610e8c614b50565b604051908082528060200260200182016040528015610ec557816020015b610eb261499b565b815260200190600190039081610eaa5790505b509050600060015b6000548111610d7d5760008181526002602052604090206003015486148015610f1a5750600081815260026020819052604082206008015460ff1690811115610f1857610f18614e1c565b145b1561140c57600260008281526020019081526020016000206040518061022001604052908160008201548152602001600182018054610f589061544f565b80601f0160208091040260200160405190810160405280929190818152602001828054610f849061544f565b8015610fd15780601f10610fa657610100808354040283529160200191610fd1565b820191906000526020600020905b815481529060010190602001808311610fb457829003601f168201915b50505050508152602001600282018054610fea9061544f565b80601f01602080910402602001604051908101604052809291908181526020018280546110169061544f565b80156110635780601f1061103857610100808354040283529160200191611063565b820191906000526020600020905b81548152906001019060200180831161104657829003601f168201915b50505050508152602001600382015481526020016004820180546110869061544f565b80601f01602080910402602001604051908101604052809291908181526020018280546110b29061544f565b80156110ff5780601f106110d4576101008083540402835291602001916110ff565b820191906000526020600020905b8154815290600101906020018083116110e257829003601f168201915b5050509183525050600582015460208201526006820154604082015260078201546060820152600882015460809091019060ff16600281111561114457611144614e1c565b600281111561115557611155614e1c565b815260200160098201805480602002602001604051908101604052809291908181526020016000905b8282101561122a57838290600052602060002001805461119d9061544f565b80601f01602080910402602001604051908101604052809291908181526020018280546111c99061544f565b80156112165780601f106111eb57610100808354040283529160200191611216565b820191906000526020600020905b8154815290600101906020018083116111f957829003601f168201915b50505050508152602001906001019061117e565b505050508152602001600a820180546112429061544f565b80601f016020809104026020016040519081016040528092919081815260200182805461126e9061544f565b80156112bb5780601f10611290576101008083540402835291602001916112bb565b820191906000526020600020905b81548152906001019060200180831161129e57829003601f168201915b50505050508152602001600b820180546112d49061544f565b80601f01602080910402602001604051908101604052809291908181526020018280546113009061544f565b801561134d5780601f106113225761010080835404028352916020019161134d565b820191906000526020600020905b81548152906001019060200180831161133057829003601f168201915b5050509183525050600c8201546020820152600d8201546040820152600e82015460609091019060ff16600281111561138857611388614e1c565b600281111561139957611399614e1c565b8152602001600e820160019054906101000a900460ff1660028111156113c1576113c1614e1c565b60028111156113d2576113d2614e1c565b8152602001600f820154815250508383815181106113f2576113f26154b8565b602002602001018190525081806114089061549f565b9250505b806114168161549f565b915050610ecd565b60008481526002602052604081205490036114545760405162461bcd60e51b815260040161144b906154ce565b60405180910390fd5b600160008581526002602081905260409091206008015460ff169081111561147e5761147e614e1c565b146114c45760405162461bcd60e51b815260206004820152601660248201527510985d18da081b5d5cdd08189948185c1c1c9bdd995960521b604482015260640161144b565b60408051608081018252848152426020808301918252828401868152606084018690526000898152600180845295812080548088018255908252929020845160049093020191825591519381019390935551909182916002820190611529908261554b565b506060820151600382019061153e908261554b565b5050604051712130ba103230ba903b30b71031b43abcb2b760711b60208201526032019050604051602081830303815290604052805190602001208360405160200161158a9190615433565b60405160208183030381529060405280519060200120036115cf576000858152600260205260409020600e8101805461ffff1916610101179055600f01849055611654565b604051742437b0b7103a3430b734103b30b71031b43abcb2b760591b6020820152603501604051602081830303815290604052805190602001208360405160200161161a9190615433565b6040516020818303038152906040528051906020012003611654576000858152600260205260409020600e01805461ffff19166102021790555b60008581526002602052604090819020600e0154905186917f946c8fa0a82d640c200413cf1c62f9401d34b0f1435a263a281ff0fd09030ae8916116a691610100900460ff169087908990889061560a565b60405180910390a25050505050565b60008281526002602052604081205490036116e25760405162461bcd60e51b815260040161144b906154ce565b60008281526002602081905260409091206008018054839260ff1990911690600190849081111561171557611715614e1c565b0217905550817fcf4d4f3dcd5294f4d19269f489155c2187699f4a9fb9004b6a303752b00b282f8260405161174a9190615251565b60405180910390a25050565b6060600060015b60005481116117b257600081815260026020819052604082206008015460ff169081111561178d5761178d614e1c565b036117a0578161179c8161549f565b9250505b806117aa8161549f565b91505061175d565b506000816001600160401b038111156117cd576117cd614b50565b60405190808252806020026020018201604052801561180657816020015b6117f361499b565b8152602001906001900390816117eb5790505b509050600060015b6000548111611d4257600081815260026020819052604082206008015460ff169081111561183e5761183e614e1c565b03611d305760026000828152602001908152602001600020604051806102200160405290816000820154815260200160018201805461187c9061544f565b80601f01602080910402602001604051908101604052809291908181526020018280546118a89061544f565b80156118f55780601f106118ca576101008083540402835291602001916118f5565b820191906000526020600020905b8154815290600101906020018083116118d857829003601f168201915b5050505050815260200160028201805461190e9061544f565b80601f016020809104026020016040519081016040528092919081815260200182805461193a9061544f565b80156119875780601f1061195c57610100808354040283529160200191611987565b820191906000526020600020905b81548152906001019060200180831161196a57829003601f168201915b50505050508152602001600382015481526020016004820180546119aa9061544f565b80601f01602080910402602001604051908101604052809291908181526020018280546119d69061544f565b8015611a235780601f106119f857610100808354040283529160200191611a23565b820191906000526020600020905b815481529060010190602001808311611a0657829003601f168201915b5050509183525050600582015460208201526006820154604082015260078201546060820152600882015460809091019060ff166002811115611a6857611a68614e1c565b6002811115611a7957611a79614e1c565b815260200160098201805480602002602001604051908101604052809291908181526020016000905b82821015611b4e578382906000526020600020018054611ac19061544f565b80601f0160208091040260200160405190810160405280929190818152602001828054611aed9061544f565b8015611b3a5780601f10611b0f57610100808354040283529160200191611b3a565b820191906000526020600020905b815481529060010190602001808311611b1d57829003601f168201915b505050505081526020019060010190611aa2565b505050508152602001600a82018054611b669061544f565b80601f0160208091040260200160405190810160405280929190818152602001828054611b929061544f565b8015611bdf5780601f10611bb457610100808354040283529160200191611bdf565b820191906000526020600020905b815481529060010190602001808311611bc257829003601f168201915b50505050508152602001600b82018054611bf89061544f565b80601f0160208091040260200160405190810160405280929190818152602001828054611c249061544f565b8015611c715780601f10611c4657610100808354040283529160200191611c71565b820191906000526020600020905b815481529060010190602001808311611c5457829003601f168201915b5050509183525050600c8201546020820152600d8201546040820152600e82015460609091019060ff166002811115611cac57611cac614e1c565b6002811115611cbd57611cbd614e1c565b8152602001600e820160019054906101000a900460ff166002811115611ce557611ce5614e1c565b6002811115611cf657611cf6614e1c565b8152602001600f82015481525050838381518110611d1657611d166154b8565b60200260200101819052508180611d2c9061549f565b9250505b80611d3a8161549f565b91505061180e565b50909392505050565b6060600060015b6000548111611d9457600081815260026020526040902060030154849003611d825781611d7e8161549f565b9250505b80611d8c8161549f565b915050611d52565b506000816001600160401b03811115611daf57611daf614b50565b604051908082528060200260200182016040528015611de857816020015b611dd561499b565b815260200190600190039081611dcd5790505b509050600060015b6000548111610d7d576000818152600260205260409020600301548690036122ff57600260008281526020019081526020016000206040518061022001604052908160008201548152602001600182018054611e4b9061544f565b80601f0160208091040260200160405190810160405280929190818152602001828054611e779061544f565b8015611ec45780601f10611e9957610100808354040283529160200191611ec4565b820191906000526020600020905b815481529060010190602001808311611ea757829003601f168201915b50505050508152602001600282018054611edd9061544f565b80601f0160208091040260200160405190810160405280929190818152602001828054611f099061544f565b8015611f565780601f10611f2b57610100808354040283529160200191611f56565b820191906000526020600020905b815481529060010190602001808311611f3957829003601f168201915b5050505050815260200160038201548152602001600482018054611f799061544f565b80601f0160208091040260200160405190810160405280929190818152602001828054611fa59061544f565b8015611ff25780601f10611fc757610100808354040283529160200191611ff2565b820191906000526020600020905b815481529060010190602001808311611fd557829003601f168201915b5050509183525050600582015460208201526006820154604082015260078201546060820152600882015460809091019060ff16600281111561203757612037614e1c565b600281111561204857612048614e1c565b815260200160098201805480602002602001604051908101604052809291908181526020016000905b8282101561211d5783829060005260206000200180546120909061544f565b80601f01602080910402602001604051908101604052809291908181526020018280546120bc9061544f565b80156121095780601f106120de57610100808354040283529160200191612109565b820191906000526020600020905b8154815290600101906020018083116120ec57829003601f168201915b505050505081526020019060010190612071565b505050508152602001600a820180546121359061544f565b80601f01602080910402602001604051908101604052809291908181526020018280546121619061544f565b80156121ae5780601f10612183576101008083540402835291602001916121ae565b820191906000526020600020905b81548152906001019060200180831161219157829003601f168201915b50505050508152602001600b820180546121c79061544f565b80601f01602080910402602001604051908101604052809291908181526020018280546121f39061544f565b80156122405780601f1061221557610100808354040283529160200191612240565b820191906000526020600020905b81548152906001019060200180831161222357829003601f168201915b5050509183525050600c8201546020820152600d8201546040820152600e82015460609091019060ff16600281111561227b5761227b614e1c565b600281111561228c5761228c614e1c565b8152602001600e820160019054906101000a900460ff1660028111156122b4576122b4614e1c565b60028111156122c5576122c5614e1c565b8152602001600f820154815250508383815181106122e5576122e56154b8565b602002602001018190525081806122fb9061549f565b9250505b806123098161549f565b915050611df0565b600081815260026020526040812054900361233e5760405162461bcd60e51b815260040161144b906154ce565b600081815260026020819052604082206008015460ff169081111561236557612365614e1c565b146123b25760405162461bcd60e51b815260206004820152601d60248201527f4261746368206973206e6f742070656e64696e6720617070726f76616c000000604482015260640161144b565b60008181526002602081905260409182902060088101805460ff1916831790556003810154925184937ffd30c1d70626cdbca41a738198079b1d57c2a7d36d52b79ae4b4bcc980506f769361240b9391929101906156cc565b60405180910390a2604080516001808252818301909252600091602080830190803683375050506000838152600260205260408120600d0154825192935091839190612459576124596154b8565b6020026020010181815250506124c560026000848152602001908152602001600020600301546040518060400160405280600e81526020016d10985d18da0814995a9958dd195960921b81525060405180606001604052806027815260200161599f6027913984614638565b5050565b60008181526002602052604081205481036124f65760405162461bcd60e51b815260040161144b906154ce565b506000908152600260205260409020600e0154610100900460ff1690565b61251c61499b565b60008281526002602052604081205490036125495760405162461bcd60e51b815260040161144b906154ce565b6002600083815260200190815260200160002060405180610220016040529081600082015481526020016001820180546125829061544f565b80601f01602080910402602001604051908101604052809291908181526020018280546125ae9061544f565b80156125fb5780601f106125d0576101008083540402835291602001916125fb565b820191906000526020600020905b8154815290600101906020018083116125de57829003601f168201915b505050505081526020016002820180546126149061544f565b80601f01602080910402602001604051908101604052809291908181526020018280546126409061544f565b801561268d5780601f106126625761010080835404028352916020019161268d565b820191906000526020600020905b81548152906001019060200180831161267057829003601f168201915b50505050508152602001600382015481526020016004820180546126b09061544f565b80601f01602080910402602001604051908101604052809291908181526020018280546126dc9061544f565b80156127295780601f106126fe57610100808354040283529160200191612729565b820191906000526020600020905b81548152906001019060200180831161270c57829003601f168201915b5050509183525050600582015460208201526006820154604082015260078201546060820152600882015460809091019060ff16600281111561276e5761276e614e1c565b600281111561277f5761277f614e1c565b815260200160098201805480602002602001604051908101604052809291908181526020016000905b828210156128545783829060005260206000200180546127c79061544f565b80601f01602080910402602001604051908101604052809291908181526020018280546127f39061544f565b80156128405780601f1061281557610100808354040283529160200191612840565b820191906000526020600020905b81548152906001019060200180831161282357829003601f168201915b5050505050815260200190600101906127a8565b505050508152602001600a8201805461286c9061544f565b80601f01602080910402602001604051908101604052809291908181526020018280546128989061544f565b80156128e55780601f106128ba576101008083540402835291602001916128e5565b820191906000526020600020905b8154815290600101906020018083116128c857829003601f168201915b50505050508152602001600b820180546128fe9061544f565b80601f016020809104026020016040519081016040528092919081815260200182805461292a9061544f565b80156129775780601f1061294c57610100808354040283529160200191612977565b820191906000526020600020905b81548152906001019060200180831161295a57829003601f168201915b5050509183525050600c8201546020820152600d8201546040820152600e82015460609091019060ff1660028111156129b2576129b2614e1c565b60028111156129c3576129c3614e1c565b8152602001600e820160019054906101000a900460ff1660028111156129eb576129eb614e1c565b60028111156129fc576129fc614e1c565b8152602001600f820154815250509050919050565b6000818152600260205260408120548103612a3e5760405162461bcd60e51b815260040161144b906154ce565b506000908152600260205260409020600e015460ff1690565b6000806000848152600260208190526040909120600e0154610100900460ff1690811115612a8757612a87614e1c565b1480612adb575060026000848152600260208190526040909120600e0154610100900460ff1690811115612abd57612abd614e1c565b148015612adb57506000838152600260205260409020600f01548214155b90505b92915050565b606060016000838152602001908152602001600020805480602002602001604051908101604052809291908181526020016000905b8282101561072257838290600052602060002090600402016040518060800160405290816000820154815260200160018201548152602001600282018054612b609061544f565b80601f0160208091040260200160405190810160405280929190818152602001828054612b8c9061544f565b8015612bd95780601f10612bae57610100808354040283529160200191612bd9565b820191906000526020600020905b815481529060010190602001808311612bbc57829003601f168201915b50505050508152602001600382018054612bf29061544f565b80601f0160208091040260200160405190810160405280929190818152602001828054612c1e9061544f565b8015612c6b5780601f10612c4057610100808354040283529160200191612c6b565b820191906000526020600020905b815481529060010190602001808311612c4e57829003601f168201915b50505050508152505081526020019060010190612b19565b6000848152600260205260408120549003612cb05760405162461bcd60e51b815260040161144b906154ce565b60008481526006602090815260408083208151608081018352878152808401878152429382019390935260608101869052815460018181018455928652939094208451600490940201928355905190820190612d0c908261554b565b506040820151600282015560608201516003820190612d2b908261554b565b505050837fe5fd3732b00b2878e55e64cdde6c59b6566f044952fe6b2f36658364da9b561c848484604051612d62939291906156e5565b60405180910390a250505050565b6040805160e08101825242815260208082018881528284018881526060840188905260006080850181905260a0850188905260c085018790528a8152600484529485208054600181810183559187529390952084516007909402019283559051938201939093559151909182916002820190612dec908261554b565b5060608201516003820190612e01908261554b565b50608082015160048201805460ff191691151591909117905560a08201518051612e35916005840191602090910190614a44565b5060c08201518051612e51916006840191602090910190614a9a565b505050857f0fb336061951903d147e6b93ba30f6d47839e02426fcd5ee1876873afe47bab3868660008787604051612e8d95949392919061571a565b60405180910390a2505050505050565b6060600060015b6000548111612f195760008181526002602052604090206003015484148015612ef45750600160008281526002602081905260409091206008015460ff1690811115612ef257612ef2614e1c565b145b15612f075781612f038161549f565b9250505b80612f118161549f565b915050612ea4565b506000816001600160401b03811115612f3457612f34614b50565b604051908082528060200260200182016040528015612f6d57816020015b612f5a61499b565b815260200190600190039081612f525790505b509050600060015b6000548111610d7d5760008181526002602052604090206003015486148015612fc55750600160008281526002602081905260409091206008015460ff1690811115612fc357612fc3614e1c565b145b156134b7576002600082815260200190815260200160002060405180610220016040529081600082015481526020016001820180546130039061544f565b80601f016020809104026020016040519081016040528092919081815260200182805461302f9061544f565b801561307c5780601f106130515761010080835404028352916020019161307c565b820191906000526020600020905b81548152906001019060200180831161305f57829003601f168201915b505050505081526020016002820180546130959061544f565b80601f01602080910402602001604051908101604052809291908181526020018280546130c19061544f565b801561310e5780601f106130e35761010080835404028352916020019161310e565b820191906000526020600020905b8154815290600101906020018083116130f157829003601f168201915b50505050508152602001600382015481526020016004820180546131319061544f565b80601f016020809104026020016040519081016040528092919081815260200182805461315d9061544f565b80156131aa5780601f1061317f576101008083540402835291602001916131aa565b820191906000526020600020905b81548152906001019060200180831161318d57829003601f168201915b5050509183525050600582015460208201526006820154604082015260078201546060820152600882015460809091019060ff1660028111156131ef576131ef614e1c565b600281111561320057613200614e1c565b815260200160098201805480602002602001604051908101604052809291908181526020016000905b828210156132d55783829060005260206000200180546132489061544f565b80601f01602080910402602001604051908101604052809291908181526020018280546132749061544f565b80156132c15780601f10613296576101008083540402835291602001916132c1565b820191906000526020600020905b8154815290600101906020018083116132a457829003601f168201915b505050505081526020019060010190613229565b505050508152602001600a820180546132ed9061544f565b80601f01602080910402602001604051908101604052809291908181526020018280546133199061544f565b80156133665780601f1061333b57610100808354040283529160200191613366565b820191906000526020600020905b81548152906001019060200180831161334957829003601f168201915b50505050508152602001600b8201805461337f9061544f565b80601f01602080910402602001604051908101604052809291908181526020018280546133ab9061544f565b80156133f85780601f106133cd576101008083540402835291602001916133f8565b820191906000526020600020905b8154815290600101906020018083116133db57829003601f168201915b5050509183525050600c8201546020820152600d8201546040820152600e82015460609091019060ff16600281111561343357613433614e1c565b600281111561344457613444614e1c565b8152602001600e820160019054906101000a900460ff16600281111561346c5761346c614e1c565b600281111561347d5761347d614e1c565b8152602001600f8201548152505083838151811061349d5761349d6154b8565b602002602001018190525081806134b39061549f565b9250505b806134c18161549f565b915050612f75565b6134d161499b565b60006003836040516134e39190615433565b9081526020016040518091039020549050806000036135505760405162461bcd60e51b815260206004820152602360248201527f426174636820646f6573206e6f7420657869737420776974682074686973205360448201526253434360e81b606482015260840161144b565b6002600082815260200190815260200160002060405180610220016040529081600082015481526020016001820180546135899061544f565b80601f01602080910402602001604051908101604052809291908181526020018280546135b59061544f565b80156136025780601f106135d757610100808354040283529160200191613602565b820191906000526020600020905b8154815290600101906020018083116135e557829003601f168201915b5050505050815260200160028201805461361b9061544f565b80601f01602080910402602001604051908101604052809291908181526020018280546136479061544f565b80156136945780601f1061366957610100808354040283529160200191613694565b820191906000526020600020905b81548152906001019060200180831161367757829003601f168201915b50505050508152602001600382015481526020016004820180546136b79061544f565b80601f01602080910402602001604051908101604052809291908181526020018280546136e39061544f565b80156137305780601f1061370557610100808354040283529160200191613730565b820191906000526020600020905b81548152906001019060200180831161371357829003601f168201915b5050509183525050600582015460208201526006820154604082015260078201546060820152600882015460809091019060ff16600281111561377557613775614e1c565b600281111561378657613786614e1c565b815260200160098201805480602002602001604051908101604052809291908181526020016000905b8282101561385b5783829060005260206000200180546137ce9061544f565b80601f01602080910402602001604051908101604052809291908181526020018280546137fa9061544f565b80156138475780601f1061381c57610100808354040283529160200191613847565b820191906000526020600020905b81548152906001019060200180831161382a57829003601f168201915b5050505050815260200190600101906137af565b505050508152602001600a820180546138739061544f565b80601f016020809104026020016040519081016040528092919081815260200182805461389f9061544f565b80156138ec5780601f106138c1576101008083540402835291602001916138ec565b820191906000526020600020905b8154815290600101906020018083116138cf57829003601f168201915b50505050508152602001600b820180546139059061544f565b80601f01602080910402602001604051908101604052809291908181526020018280546139319061544f565b801561397e5780601f106139535761010080835404028352916020019161397e565b820191906000526020600020905b81548152906001019060200180831161396157829003601f168201915b5050509183525050600c8201546020820152600d8201546040820152600e82015460609091019060ff1660028111156139b9576139b9614e1c565b60028111156139ca576139ca614e1c565b8152602001600e820160019054906101000a900460ff1660028111156139f2576139f2614e1c565b6002811115613a0357613a03614e1c565b8152602001600f82015481525050915050919050565b6000818152600260205260408120549003613a465760405162461bcd60e51b815260040161144b906154ce565b600081815260026020819052604082206008015460ff1690811115613a6d57613a6d614e1c565b14613aba5760405162461bcd60e51b815260206004820152601d60248201527f4261746368206973206e6f742070656e64696e6720617070726f76616c000000604482015260640161144b565b6000818152600260208181526040808420600881018054600160ff19918216811790925560058552958390208054909616179094559082905260038301549051909284927f1a621270a25ae67b5e557b98be27914cd1de793b7ca49110be85cb5aaa169c9b92613b2d92909101906157ad565b60405180910390a36000818152600260208190526040918290206003810154925184927f309958f3629dbb8b1c3fb39cc2ffd4759c619a8c6c7927159d9e608c99ae463292613b7e929101906157ad565b60405180910390a3604080516001808252818301909252600091602080830190803683375050506000838152600260205260408120600d0154825192935091839190613bcc57613bcc6154b8565b6020026020010181815250506124c560026000848152602001908152602001600020600301546040518060400160405280600e81526020016d10985d18da08105c1c1c9bdd995960921b8152506040518060600160405280602781526020016159c66027913984614638565b606060046000838152602001908152602001600020805480602002602001604051908101604052809291908181526020016000905b8282101561072257838290600052602060002090600702016040518060e00160405290816000820154815260200160018201548152602001600282018054613cb49061544f565b80601f0160208091040260200160405190810160405280929190818152602001828054613ce09061544f565b8015613d2d5780601f10613d0257610100808354040283529160200191613d2d565b820191906000526020600020905b815481529060010190602001808311613d1057829003601f168201915b50505050508152602001600382018054613d469061544f565b80601f0160208091040260200160405190810160405280929190818152602001828054613d729061544f565b8015613dbf5780601f10613d9457610100808354040283529160200191613dbf565b820191906000526020600020905b815481529060010190602001808311613da257829003601f168201915b5050509183525050600482015460ff161515602080830191909152600583018054604080518285028101850182528281529401939260009084015b82821015613ea6578382906000526020600020018054613e199061544f565b80601f0160208091040260200160405190810160405280929190818152602001828054613e459061544f565b8015613e925780601f10613e6757610100808354040283529160200191613e92565b820191906000526020600020905b815481529060010190602001808311613e7557829003601f168201915b505050505081526020019060010190613dfa565b50505050815260200160068201805480602002602001604051908101604052809291908181526020018280548015613efd57602002820191906000526020600020905b815481526020019060010190808311613ee9575b50505050508152505081526020019060010190613c6d565b604080518082019091526002815261030360f41b60208201526060906000613f3c84614784565b6040805142602080830191909152818301889052825180830384018152606090920190925280519101209091506000613f7482614784565b90506000848483604051602001613f8d939291906157c0565b60405160208183030381529060405290506000613fa9826148af565b9050600082613fba8360ff16614784565b604051602001613fcb929190615803565b60408051601f198184030181529190529998505050505050505050565b600060038260200151604051613ffe9190615433565b9081526020016040518091039020546000146140525760405162461bcd60e51b81526020600482015260136024820152725353434320616c72656164792065786973747360681b604482015260640161144b565b6000826060015151116140a75760405162461bcd60e51b815260206004820152601a60248201527f5175616e74697479206d757374206e6f7420626520656d707479000000000000604482015260640161144b565b60008260800151511161410f5760405162461bcd60e51b815260206004820152602a60248201527f4174206c65617374206f6e652070726f6475637420696d6167652055524c20696044820152691cc81c995c5d5a5c995960b21b606482015260840161144b565b60008260a00151511161416e5760405162461bcd60e51b815260206004820152602160248201527f436572746966696361746520696d6167652055524c20697320726571756972656044820152601960fa1b606482015260840161144b565b60008260c0015151116141c35760405162461bcd60e51b815260206004820152601c60248201527f4661726d20706c6f74206e756d62657220697320726571756972656400000000604482015260640161144b565b60008260e00151116142175760405162461bcd60e51b815260206004820152601860248201527f50726f64756374204944206d7573742062652076616c69640000000000000000604482015260640161144b565b6000826101000151116142655760405162461bcd60e51b815260206004820152601660248201527514dd185c9d0819185d19481a5cc81c995c5d5a5c995960521b604482015260640161144b565b6000826101200151116142b15760405162461bcd60e51b8152602060048201526014602482015273115b990819185d19481a5cc81c995c5d5a5c995960621b604482015260640161144b565b816101200151826101000151106143155760405162461bcd60e51b815260206004820152602260248201527f53746172742064617465206d757374206265206265666f726520656e64206461604482015261746560f01b606482015260840161144b565b8151516143645760405162461bcd60e51b815260206004820152601c60248201527f4261746368206e616d65206d757374206e6f7420626520656d70747900000000604482015260640161144b565b6000805490806143738361549f565b9190505550600080549050600042905060006143ac856020015186604001518760600151858960c001518a60e001518b60000151614959565b9050600060405180610220016040528085815260200187600001518152602001876020015181526020018760400151815260200187606001518152602001848152602001876101000151815260200187610120015181526020016000600281111561441957614419614e1c565b8152608080890151602083015260a0808a0151604084015260c0808b0151606085015291830186905260e08a015190830152016000815260200160008152600060209182018190528681526002825260409020825181559082015191925082916001820190614488908261554b565b506040820151600282019061449d908261554b565b5060608201516003820155608082015160048201906144bc908261554b565b5060a0820151600582015560c0820151600682015560e0820151600782015561010082015160088201805460ff191660018360028111156144ff576144ff614e1c565b02179055506101208201518051614520916009840191602090910190614a44565b50610140820151600a820190614536908261554b565b50610160820151600b82019061454c908261554b565b50610180820151600c8201556101a0820151600d8201556101c0820151600e8201805460ff1916600183600281111561458757614587614e1c565b02179055506101e0820151600e8201805461ff0019166101008360028111156145b2576145b2614e1c565b021790555061020082015181600f015590505083600387602001516040516145da9190615433565b908152602001604051809103902081905550837f58c168780de5fc719a1e7a85c7eca394e664c0e74b7c9ebc621f0b093112d04b87602001518860400151604051614626929190615832565b60405180910390a25091949350505050565b6040805160008082526020820190925281614663565b606081526020019060019003908161464e5790505b506040805160e08101825242815260208082018981528284018981526060840189905260016080850181905260a0850187905260c0850189905260008c8152600485529586208054808301825590875293909520845160079094020192835590519382019390935591519293509182919060028201906146e3908261554b565b50606082015160038201906146f8908261554b565b50608082015160048201805460ff191691151591909117905560a0820151805161472c916005840191602090910190614a44565b5060c08201518051614748916006840191602090910190614a9a565b505050857f0fb336061951903d147e6b93ba30f6d47839e02426fcd5ee1876873afe47bab3868660018688604051612e8d95949392919061571a565b6060816000036147ab5750506040805180820190915260018152600360fc1b602082015290565b8160005b81156147d557806147bf8161549f565b91506147ce9050600a8361586a565b91506147af565b6000816001600160401b038111156147ef576147ef614b50565b6040519080825280601f01601f191660200182016040528015614819576020820181803683370190505b509050815b85156148a65761482f60018261587e565b9050600061483e600a8861586a565b61484990600a615891565b614853908861587e565b61485e9060306158a8565b905060008160f81b90508084848151811061487b5761487b6154b8565b60200101906001600160f81b031916908160001a90535061489d600a8961586a565b9750505061481e565b50949350505050565b60008181805b825181101561492c57600060308483815181106148d4576148d46154b8565b01602001516148e6919060f81c6158c1565b90506148f36002836158da565b156148fe5780614909565b6149098160036158ee565b6149169060ff1684615911565b92505080806149249061549f565b9150506148b5565b506000600a61493b81846158da565b61494690600a61587e565b61495091906158da565b95945050505050565b6000878787878787876040516020016149789796959493929190615924565b604051602081830303815290604052805190602001209050979650505050505050565b6040518061022001604052806000815260200160608152602001606081526020016000815260200160608152602001600081526020016000815260200160008152602001600060028111156149f2576149f2614e1c565b8152602001606081526020016060815260200160608152602001600080191681526020016000815260200160006002811115614a3057614a30614e1c565b815260200160008152602001600081525090565b828054828255906000526020600020908101928215614a8a579160200282015b82811115614a8a5782518290614a7a908261554b565b5091602001919060010190614a64565b50614a96929150614ae1565b5090565b828054828255906000526020600020908101928215614ad5579160200282015b82811115614ad5578251825591602001919060010190614aba565b50614a96929150614afe565b80821115614a96576000614af58282614b13565b50600101614ae1565b5b80821115614a965760008155600101614aff565b508054614b1f9061544f565b6000825580601f10614b2f575050565b601f016020900490600052602060002090810190614b4d9190614afe565b50565b634e487b7160e01b600052604160045260246000fd5b604051601f8201601f191681016001600160401b0381118282101715614b8e57614b8e614b50565b604052919050565b600082601f830112614ba757600080fd5b81356001600160401b03811115614bc057614bc0614b50565b614bd3601f8201601f1916602001614b66565b818152846020838601011115614be857600080fd5b816020850160208301376000918101602001919091529392505050565b600060208284031215614c1757600080fd5b81356001600160401b03811115614c2d57600080fd5b614c3984828501614b96565b949350505050565b600060208284031215614c5357600080fd5b5035919050565b60005b83811015614c75578181015183820152602001614c5d565b50506000910152565b60008151808452614c96816020860160208601614c5a565b601f01601f19169290920160200192915050565b600082825180855260208086019550808260051b84010181860160005b84811015614cf557601f19868403018952614ce3838351614c7e565b98840198925090830190600101614cc7565b5090979650505050505050565b600081518084526020808501945080840160005b83811015614d3257815187529582019590820190600101614d16565b509495945050505050565b60006020808301818452808551808352604092508286019150828160051b87010184880160005b83811015614e0e57603f19898403018552815160e0815185528882015189860152878201518189870152614d9a82870182614c7e565b91505060608083015186830382880152614db48382614c7e565b925050506080808301511515818701525060a08083015186830382880152614ddc8382614caa565b9250505060c08083015192508582038187015250614dfa8183614d02565b968901969450505090860190600101614d64565b509098975050505050505050565b634e487b7160e01b600052602160045260246000fd5b60038110614b4d57634e487b7160e01b600052602160045260246000fd5b614e5981614e32565b9052565b6000610220825184526020830151816020860152614e7d82860182614c7e565b91505060408301518482036040860152614e978282614c7e565b9150506060830151606085015260808301518482036080860152614ebb8282614c7e565b91505060a083015160a085015260c083015160c085015260e083015160e085015261010080840151614eef82870182614e50565b50506101208084015185830382870152614f098382614caa565b925050506101408084015185830382870152614f258382614c7e565b925050506101608084015185830382870152614f418382614c7e565b925050506101808084015181860152506101a08084015181860152506101c080840151614f7082870182614e50565b50506101e080840151614f8582870182614e50565b5050610200928301519390920192909252919050565b6000602080830181845280855180835260408601915060408160051b870101925083870160005b82811015614ff057603f19888603018452614fde858351614e5d565b94509285019290850190600101614fc2565b5092979650505050505050565b60006001600160401b0382111561501657615016614b50565b5060051b60200190565b600082601f83011261503157600080fd5b8135602061504661504183614ffd565b614b66565b82815260059290921b8401810191818101908684111561506557600080fd5b8286015b848110156150a45780356001600160401b038111156150885760008081fd5b6150968986838b0101614b96565b845250918301918301615069565b509695505050505050565b60008060008060008060008060006101208a8c0312156150ce57600080fd5b89356001600160401b03808211156150e557600080fd5b6150f18d838e01614b96565b9a5060208c0135995060408c013591508082111561510e57600080fd5b61511a8d838e01614b96565b985060608c013591508082111561513057600080fd5b61513c8d838e01615020565b975060808c013591508082111561515257600080fd5b61515e8d838e01614b96565b965060a08c013591508082111561517457600080fd5b506151818c828d01614b96565b94505060c08a0135925060e08a013591506101008a013590509295985092959850929598565b600080600080608085870312156151bd57600080fd5b843593506020850135925060408501356001600160401b03808211156151e257600080fd5b6151ee88838901614b96565b9350606087013591508082111561520457600080fd5b5061521187828801614b96565b91505092959194509250565b6000806040838503121561523057600080fd5b8235915060208301356003811061524657600080fd5b809150509250929050565b6020810161525e83614e32565b91905290565b602081526000612adb6020830184614e5d565b6000806040838503121561528a57600080fd5b50508035926020909101359150565b60006020808301818452808551808352604092508286019150828160051b87010184880160005b83811015614e0e57603f19898403018552815160808151855288820151898601528782015181898701526152f682870182614c7e565b915050606080830151925085820381870152506153138183614c7e565b9689019694505050908601906001016152c0565b600080600080600060a0868803121561533f57600080fd5b853594506020808701356001600160401b038082111561535e57600080fd5b61536a8a838b01614b96565b9650604089013591508082111561538057600080fd5b61538c8a838b01614b96565b955060608901359150808211156153a257600080fd5b6153ae8a838b01615020565b945060808901359150808211156153c457600080fd5b508701601f810189136153d657600080fd5b80356153e461504182614ffd565b81815260059190911b8201830190838101908b83111561540357600080fd5b928401925b8284101561542157833582529284019290840190615408565b80955050505050509295509295909350565b60008251615445818460208701614c5a565b9190910192915050565b600181811c9082168061546357607f821691505b60208210810361548357634e487b7160e01b600052602260045260246000fd5b50919050565b634e487b7160e01b600052601160045260246000fd5b6000600182016154b1576154b1615489565b5060010190565b634e487b7160e01b600052603260045260246000fd5b60208082526014908201527310985d18da08191bd95cc81b9bdd08195e1a5cdd60621b604082015260600190565b601f82111561554657600081815260208120601f850160051c810160208610156155235750805b601f850160051c820191505b818110156155425782815560010161552f565b5050505b505050565b81516001600160401b0381111561556457615564614b50565b61557881615572845461544f565b846154fc565b602080601f8311600181146155ad57600084156155955750858301515b600019600386901b1c1916600185901b178555615542565b600085815260208120601f198616915b828110156155dc578886015182559484019460019091019084016155bd565b50858210156155fa5787850151600019600388901b60f8161c191681555b5050505050600190811b01905550565b61561385614e32565b84815260806020820152600061562c6080830186614c7e565b84604084015282810360608401526156448185614c7e565b979650505050505050565b6000815461565c8161544f565b8085526020600183811680156156795760018114615693576156c1565b60ff1985168884015283151560051b8801830195506156c1565b866000528260002060005b858110156156b95781548a820186015290830190840161569e565b890184019650505b505050505092915050565b828152604060208201526000614c39604083018461564f565b8381526060602082015260006156fe6060830185614c7e565b82810360408401526157108185614c7e565b9695505050505050565b60a08152600061572d60a0830188614c7e565b6020838203818501526157408289614c7e565b9150861515604085015283820360608501528186518084528284019150828160051b85010183890160005b8381101561579957601f19878403018552615787838351614c7e565b9486019492509085019060010161576b565b50508681036080880152610de88189614d02565b602081526000612adb602083018461564f565b600084516157d2818460208901614c5a565b8451908301906157e6818360208901614c5a565b84519101906157f9818360208801614c5a565b0195945050505050565b60008351615815818460208801614c5a565b835190830190615829818360208801614c5a565b01949350505050565b6040815260006158456040830185614c7e565b90508260208301529392505050565b634e487b7160e01b600052601260045260246000fd5b60008261587957615879615854565b500490565b81810381811115612ade57612ade615489565b8082028115828204841417612ade57612ade615489565b60ff8181168382160190811115612ade57612ade615489565b60ff8281168282160390811115612ade57612ade615489565b6000826158e9576158e9615854565b500690565b60ff818116838216029081169081811461590a5761590a615489565b5092915050565b80820180821115612ade57612ade615489565b6000885160206159378285838e01614c5a565b8184019150898252885161595081838501848d01614c5a565b8083019250508781830152865161596d8160408501848b01614c5a565b6040920191820186905284516159898160608501848901614c5a565b919091016060019a995050505050505050505056fe426174636820686173206265656e2072656a65637465642062792074686520617070726f766572426174636820686173206265656e20617070726f7665642062792074686520617070726f766572a26469706673582212206188b569b6ae354053c6f0ca31898c0ee63fb71c15428cf06e249a47e8fda26064736f6c63430008140033",
  "immutableReferences": {},
  "source": "// SPDX-License-Identifier: MIT\r\npragma solidity ^0.8.0;\r\n\r\ncontract TraceabilityContract {\r\n    uint256 private _batchIdCounter;\r\n\r\nenum BatchStatus { PendingApproval, Approved, Rejected }\r\nenum TransportStatus { NotTransported, InTransit, Delivered }\r\nenum ParticipantType { Producer, Transporter, Warehouse, Consumer }\r\nenum DetailedTransportStatus { NotStarted, InTransit, Delivered }\r\n\r\n    struct Batch {\r\n        uint256 batchId;\r\n        string name;  // Thm trng tn l hng\r\n        string sscc;\r\n        uint256 producerId;\r\n        string quantity;\r\n        uint256 productionDate;\r\n        uint256 startDate;\r\n        uint256 endDate;\r\n        BatchStatus status;\r\n        string[] productImageUrls;\r\n        string certificateImageUrl;\r\n        string farmPlotNumber;\r\n        bytes32 dataHash;\r\n        uint256 productId;\r\n        TransportStatus transportStatus;\r\n        DetailedTransportStatus detailedTransportStatus;\r\n      uint256 lastTransporterId;\r\n    }\r\n    \r\n    struct Participation {\r\n        uint256 participantId;\r\n        string participantType;\r\n        uint256 timestamp;\r\n        string action;\r\n    }\r\n      struct ActivityLog {\r\n        uint256 timestamp;\r\n        uint256 uid;\r\n        string activityName;\r\n        string description;\r\n        bool isSystemGenerated;\r\n        string[] imageUrls;\r\n        uint256[] relatedProductIds;\r\n    }\r\n    struct TransportEvent {\r\n    uint256 participantId;\r\n    uint256 timestamp;\r\n    string action;\r\n    string participantType;\r\n}\r\n\r\nmapping(uint256 => TransportEvent[]) private _batchTransportEvents;\r\n\r\n\r\n    mapping(uint256 => Batch) private _batches;\r\n    mapping(string => uint256) private _ssccToBatchId;\r\n    mapping(uint256 => ActivityLog[]) private _producerActivityLogs;\r\n    mapping(uint256 => bool) private _approvedBatches;\r\n    mapping(uint256 => Participation[]) private _batchParticipations;\r\n    \r\n    event BatchApproved(uint256 indexed batchId, uint256 indexed producerId, string sscc);\r\n    event BatchApprovedForQR(uint256 indexed batchId, uint256 indexed producerId, string sscc);\r\n    event ParticipationRecorded(uint256 indexed batchId, uint256 participantId, string participantType, string action);\r\n    event BatchCreated(uint256 indexed batchId, string sscc, uint256 producerId);\r\n    event ActivityLogAdded(\r\n        uint256 indexed uid,\r\n        string activityName,\r\n        string description,\r\n        bool isSystemGenerated,\r\n        string[] imageUrls,\r\n        uint256[] relatedProductIds\r\n    );\r\nevent TransportStatusUpdated(uint256 indexed batchId, DetailedTransportStatus newStatus, string action, uint256 participantId, string participantType);    struct BatchParams {\r\n        string name;  // Thm trng tn l hng\r\n        string sscc;\r\n        uint256 producerId;\r\n        string quantity;\r\n        string[] productImageUrls;\r\n        string certificateImageUrl;\r\n        string farmPlotNumber;\r\n        uint256 productId;\r\n        uint256 startDate;\r\n        uint256 endDate;\r\n    }\r\n\r\n    function createBatch(\r\n        string memory _name,  // Thm tham s tn l hng\r\n        uint256 _producerId,\r\n        string memory _quantity,\r\n        string[] memory _productImageUrls,\r\n        string memory _certificateImageUrl,\r\n        string memory _farmPlotNumber,\r\n        uint256 _productId,\r\n        uint256 _startDate,\r\n        uint256 _endDate\r\n    ) public returns (uint256) {\r\n        string memory sscc = generateSSCC(_producerId);\r\n        BatchParams memory params = BatchParams({\r\n            name: _name,  // Thm tn l hng\r\n            sscc: sscc,\r\n            producerId: _producerId,\r\n            quantity: _quantity,\r\n            productImageUrls: _productImageUrls,\r\n            certificateImageUrl: _certificateImageUrl,\r\n            farmPlotNumber: _farmPlotNumber,\r\n            productId: _productId,\r\n            startDate: _startDate,\r\n            endDate: _endDate\r\n        });\r\n\r\n        return _createBatch(params);\r\n    }\r\n\r\n    function generateSSCC(uint256 _producerId) private view returns (string memory) {\r\n        string memory prefix = \"00\";\r\n        string memory companyPrefix = uint2str(_producerId);\r\n        uint256 serialNumber = uint256(keccak256(abi.encodePacked(block.timestamp, _producerId)));\r\n        string memory serialReference = uint2str(serialNumber);\r\n        \r\n        string memory ssccWithoutCheck = string(abi.encodePacked(prefix, companyPrefix, serialReference));\r\n        uint8 checkDigit = calculateCheckDigit(ssccWithoutCheck);\r\n        \r\n        string memory sscc = string(abi.encodePacked(ssccWithoutCheck, uint2str(uint256(checkDigit))));\r\n        \r\n        return sscc;\r\n    }\r\n\r\n    function calculateCheckDigit(string memory _code) private pure returns (uint8) {\r\n        bytes memory codeBytes = bytes(_code);\r\n        uint256 sum = 0;\r\n        for (uint256 i = 0; i < codeBytes.length; i++) {\r\n            uint8 digit = uint8(codeBytes[i]) - 48;\r\n            sum += (i % 2 == 0) ? digit * 3 : digit;\r\n        }\r\n        uint8 checkDigit = uint8((10 - (sum % 10)) % 10);\r\n        return checkDigit;\r\n    }\r\n\r\n    function uint2str(uint256 _i) private pure returns (string memory) {\r\n        if (_i == 0) {\r\n            return \"0\";\r\n        }\r\n        uint256 j = _i;\r\n        uint256 length;\r\n        while (j != 0) {\r\n            length++;\r\n            j /= 10;\r\n        }\r\n        bytes memory bstr = new bytes(length);\r\n        uint256 k = length;\r\n        while (_i != 0) {\r\n            k = k-1;\r\n            uint8 temp = (48 + uint8(_i - _i / 10 * 10));\r\n            bytes1 b1 = bytes1(temp);\r\n            bstr[k] = b1;\r\n            _i /= 10;\r\n        }\r\n        return string(bstr);\r\n    }\r\n\r\n    function _createBatch(BatchParams memory params) private returns (uint256) {\r\n        require(_ssccToBatchId[params.sscc] == 0, \"SSCC already exists\");\r\n        require(bytes(params.quantity).length > 0, \"Quantity must not be empty\");\r\n        require(params.productImageUrls.length > 0, \"At least one product image URL is required\");\r\n        require(bytes(params.certificateImageUrl).length > 0, \"Certificate image URL is required\");\r\n        require(bytes(params.farmPlotNumber).length > 0, \"Farm plot number is required\");\r\n        require(params.productId > 0, \"Product ID must be valid\");\r\n        require(params.startDate > 0, \"Start date is required\");\r\n        require(params.endDate > 0, \"End date is required\");\r\n        require(params.startDate < params.endDate, \"Start date must be before end date\");\r\n        require(bytes(params.name).length > 0, \"Batch name must not be empty\");\r\n\r\n        _batchIdCounter++;\r\n        uint256 newBatchId = _batchIdCounter;\r\n\r\n        uint256 productionDate = block.timestamp;\r\n\r\n        bytes32 dataHash = _calculateDataHash(\r\n            params.sscc,\r\n            params.producerId,\r\n            params.quantity,\r\n            productionDate,\r\n            params.farmPlotNumber,\r\n            params.productId,\r\n            params.name  // Thm tn l hng vo hm bm\r\n        );\r\n\r\n        Batch memory newBatch = Batch({\r\n            batchId: newBatchId,\r\n            name: params.name,  // Thm tn l hng\r\n            sscc: params.sscc,\r\n            producerId: params.producerId,\r\n            quantity: params.quantity,\r\n            productionDate: productionDate,\r\n            startDate: params.startDate,\r\n            endDate: params.endDate,\r\n            status: BatchStatus.PendingApproval,\r\n            productImageUrls: params.productImageUrls,\r\n            certificateImageUrl: params.certificateImageUrl,\r\n            farmPlotNumber: params.farmPlotNumber,\r\n            dataHash: dataHash,\r\n            productId: params.productId,\r\n            transportStatus: TransportStatus.NotTransported,\r\n            detailedTransportStatus: DetailedTransportStatus.NotStarted,\r\n            lastTransporterId: 0\r\n        });\r\n\r\n        _batches[newBatchId] = newBatch;\r\n        _ssccToBatchId[params.sscc] = newBatchId;\r\n\r\n        emit BatchCreated(newBatchId, params.sscc, params.producerId);\r\n        return newBatchId;\r\n    }\r\n    \r\n\r\n    function addActivityLog(\r\n        uint256 _uid,\r\n        string memory _activityName,\r\n        string memory _description,\r\n        string[] memory _imageUrls,\r\n        uint256[] memory _relatedProductIds\r\n    ) public {\r\n        ActivityLog memory newLog = ActivityLog({\r\n            timestamp: block.timestamp,\r\n            uid: _uid,\r\n            activityName: _activityName,\r\n            description: _description,\r\n            isSystemGenerated: false,\r\n            imageUrls: _imageUrls,\r\n            relatedProductIds: _relatedProductIds\r\n        });\r\n\r\n        _producerActivityLogs[_uid].push(newLog);\r\n        emit ActivityLogAdded(_uid, _activityName, _description, false, _imageUrls, _relatedProductIds);\r\n    }\r\n // Hm  ly nht k hot ng ca mt nh sn xut\r\n    function getProducerActivityLogs(uint256 _uid) public view returns (ActivityLog[] memory) {\r\n        return _producerActivityLogs[_uid];\r\n    }\r\n\r\n    \r\n    // Hm ni b  h thng t ng thm nht k\r\n    function _addSystemActivityLog(\r\n        uint256 _uid,\r\n        string memory _activityName,\r\n        string memory _description,\r\n        uint256[] memory _relatedProductIds\r\n    ) internal {\r\n        string[] memory emptyImageUrls = new string[](0);\r\n        ActivityLog memory newLog = ActivityLog({\r\n            timestamp: block.timestamp,\r\n            uid: _uid,\r\n            activityName: _activityName,\r\n            description: _description,\r\n            isSystemGenerated: true,\r\n            imageUrls: emptyImageUrls,\r\n            relatedProductIds: _relatedProductIds\r\n        });\r\n\r\n        _producerActivityLogs[_uid].push(newLog);\r\n        emit ActivityLogAdded(_uid, _activityName, _description, true, emptyImageUrls, _relatedProductIds);\r\n    }\r\n    \r\n    function _calculateDataHash(\r\n        string memory _sscc,\r\n        uint256 _producerId,\r\n        string memory _quantity,\r\n        uint256 _productionDate,\r\n        string memory _farmPlotNumber,\r\n        uint256 _productId,\r\n        string memory _name  // Thm tn l hng\r\n    ) private pure returns (bytes32) {\r\n        return keccak256(abi.encodePacked(_sscc, _producerId, _quantity, _productionDate, _farmPlotNumber, _productId, _name));\r\n    }\r\n    // hm kim tra sscc  tn ti hay cha \r\n    function ssccExists(string memory sscc) public view returns (bool) {\r\n        return _ssccToBatchId[sscc] != 0;\r\n    }\r\n\r\n    // Hm mi  ly danh sch cc l hng da trn producerId\r\n    function getBatchesByProducer(uint256 producerId) public view returns (Batch[] memory) {\r\n        uint256 count = 0;\r\n        for (uint256 i = 1; i <= _batchIdCounter; i++) {\r\n            if (_batches[i].producerId == producerId) {\r\n                count++;\r\n            }\r\n        }\r\n\r\n        Batch[] memory batches = new Batch[](count);\r\n        uint256 index = 0;\r\n        for (uint256 i = 1; i <= _batchIdCounter; i++) {\r\n            if (_batches[i].producerId == producerId) {\r\n                batches[index] = _batches[i];\r\n                index++;\r\n            }\r\n        }\r\n\r\n        return batches;\r\n    }\r\n\r\n    // hm cp nht trng thi l hng\r\nfunction updateBatchStatus(uint256 _batchId, BatchStatus _newStatus) public {\r\n    require(_batches[_batchId].batchId != 0, \"Batch does not exist\");\r\n    // Thm kim tra quyn nu cn\r\n    _batches[_batchId].status = _newStatus;\r\n    emit BatchStatusUpdated(_batchId, _newStatus);\r\n}\r\nfunction getPendingBatchesByProducer(uint256 _producerId) public view returns (Batch[] memory) {\r\n    uint256 pendingCount = 0;\r\n    for (uint256 i = 1; i <= _batchIdCounter; i++) {\r\n        if (_batches[i].producerId == _producerId && _batches[i].status == BatchStatus.PendingApproval) {\r\n            pendingCount++;\r\n        }\r\n    }\r\n    Batch[] memory pendingBatches = new Batch[](pendingCount);\r\n    uint256 index = 0;\r\n    for (uint256 i = 1; i <= _batchIdCounter; i++) {\r\n        if (_batches[i].producerId == _producerId && _batches[i].status == BatchStatus.PendingApproval) {\r\n            pendingBatches[index] = _batches[i];\r\n            index++;\r\n        }\r\n    }\r\n\r\n    return pendingBatches;\r\n}\r\n\r\nfunction getRejectedBatchesByProducer(uint256 _producerId) public view returns (Batch[] memory) {\r\n    uint256 rejectedCount = 0;\r\n    for (uint256 i = 1; i <= _batchIdCounter; i++) {\r\n        if (_batches[i].producerId == _producerId && _batches[i].status == BatchStatus.Rejected) {\r\n            rejectedCount++;\r\n        }\r\n    }\r\n\r\n    Batch[] memory rejectedBatches = new Batch[](rejectedCount);\r\n    uint256 index = 0;\r\n    for (uint256 i = 1; i <= _batchIdCounter; i++) {\r\n        if (_batches[i].producerId == _producerId && _batches[i].status == BatchStatus.Rejected) {\r\n            rejectedBatches[index] = _batches[i];\r\n            index++;\r\n        }\r\n    }\r\n\r\n    return rejectedBatches;\r\n}\r\nfunction getAllPendingBatches() public view returns (Batch[] memory) {\r\n        uint256 pendingCount = 0;\r\n        for (uint256 i = 1; i <= _batchIdCounter; i++) {\r\n            if (_batches[i].status == BatchStatus.PendingApproval) {\r\n                pendingCount++;\r\n            }\r\n        }\r\n\r\n        Batch[] memory pendingBatches = new Batch[](pendingCount);\r\n        uint256 index = 0;\r\n        for (uint256 i = 1; i <= _batchIdCounter; i++) {\r\n            if (_batches[i].status == BatchStatus.PendingApproval) {\r\n                pendingBatches[index] = _batches[i];\r\n                index++;\r\n            }\r\n        }\r\n\r\n        return pendingBatches;\r\n    }\r\n\r\nevent BatchStatusUpdated(uint256 indexed batchId, BatchStatus newStatus);\r\n\r\n// hm ly thng tin l hng\r\nfunction getBatchDetails(uint256 _batchId) public view returns (Batch memory) {\r\n    require(_batches[_batchId].batchId != 0, \"Batch does not exist\");\r\n    return _batches[_batchId];\r\n}\r\n\r\n\r\nfunction getTotalBatches() public view returns (uint256) {\r\n    return _batchIdCounter;\r\n}\r\n\r\nfunction isProducerOfBatch(uint256 _batchId, uint256 _producerId) public view returns (bool) {\r\n    return _batches[_batchId].producerId == _producerId;\r\n}\r\n\r\n// Thm hm ny vo smart contract\r\nfunction getActivityLogs(uint256 _uid) public view returns (ActivityLog[] memory) {\r\n    return _producerActivityLogs[_uid];\r\n}\r\nfunction getActivityLogCount(uint256 _uid) public view returns (uint256) {\r\n    return _producerActivityLogs[_uid].length;\r\n}\r\n\r\nmodifier onlyApprover() {\r\n    // Implement logic to check if msg.sender is an approver\r\n    _;\r\n}\r\n\r\nfunction approveBatch(uint256 _batchId) public onlyApprover {\r\n    require(_batches[_batchId].batchId != 0, \"Batch does not exist\");\r\n    require(_batches[_batchId].status == BatchStatus.PendingApproval, \"Batch is not pending approval\");\r\n\r\n    _batches[_batchId].status = BatchStatus.Approved;\r\n    _approvedBatches[_batchId] = true;\r\n\r\n    emit BatchApproved(_batchId, _batches[_batchId].producerId, _batches[_batchId].sscc);\r\n    emit BatchApprovedForQR(_batchId, _batches[_batchId].producerId, _batches[_batchId].sscc);\r\n    \r\n    // Add system activity log\r\n    uint256[] memory relatedProductIds = new uint256[](1);\r\n    relatedProductIds[0] = _batches[_batchId].productId;\r\n    _addSystemActivityLog(_batches[_batchId].producerId, \"Batch Approved\", \"Batch has been approved by the approver\", relatedProductIds);\r\n}\r\n\r\nfunction rejectBatch(uint256 _batchId) public onlyApprover {\r\n    require(_batches[_batchId].batchId != 0, \"Batch does not exist\");\r\n    require(_batches[_batchId].status == BatchStatus.PendingApproval, \"Batch is not pending approval\");\r\n\r\n    _batches[_batchId].status = BatchStatus.Rejected;\r\n\r\n    emit BatchRejected(_batchId, _batches[_batchId].producerId, _batches[_batchId].sscc);\r\n    \r\n    // Add system activity log\r\n    uint256[] memory relatedProductIds = new uint256[](1);\r\n    relatedProductIds[0] = _batches[_batchId].productId;\r\n    _addSystemActivityLog(_batches[_batchId].producerId, \"Batch Rejected\", \"Batch has been rejected by the approver\", relatedProductIds);\r\n}\r\n\r\nevent BatchRejected(uint256 indexed batchId, uint256 producerId, string sscc);\r\n\r\nfunction getApprovedBatchesByProducer(uint256 _producerId) public view returns (Batch[] memory) {\r\n    uint256 approvedCount = 0;\r\n    for (uint256 i = 1; i <= _batchIdCounter; i++) {\r\n        if (_batches[i].producerId == _producerId && _batches[i].status == BatchStatus.Approved) {\r\n            approvedCount++;\r\n        }\r\n    }\r\n\r\n    Batch[] memory approvedBatches = new Batch[](approvedCount);\r\n    uint256 index = 0;\r\n    for (uint256 i = 1; i <= _batchIdCounter; i++) {\r\n        if (_batches[i].producerId == _producerId && _batches[i].status == BatchStatus.Approved) {\r\n            approvedBatches[index] = _batches[i];\r\n            index++;\r\n        }\r\n    }\r\n\r\n    return approvedBatches;\r\n}\r\n\r\nfunction getBatchBySSCC(string memory _sscc) public view returns (Batch memory) {\r\n    uint256 batchId = _ssccToBatchId[_sscc];\r\n    require(batchId != 0, \"Batch does not exist with this SSCC\");\r\n    return _batches[batchId];\r\n}\r\n\r\nfunction isValidSSCC(string memory _sscc) public view returns (bool) {\r\n    return _ssccToBatchId[_sscc] != 0;\r\n}\r\n\r\nfunction isBatchApproved(uint256 _batchId) public view returns (bool) {\r\n    return _approvedBatches[_batchId];\r\n}\r\n\r\nfunction recordParticipation(uint256 _batchId, uint256 _participantId, string memory _participantType, string memory _action) public {\r\n    require(_batches[_batchId].batchId != 0, \"Batch does not exist\");\r\n    _batchParticipations[_batchId].push(Participation(_participantId, _participantType, block.timestamp, _action));\r\n    \r\n    emit ParticipationRecorded(_batchId, _participantId, _participantType, _action);\r\n}\r\nfunction updateTransportStatus(uint256 _batchId, uint256 _participantId, string memory _action, string memory _participantType) public {\r\n    require(_batches[_batchId].batchId != 0, \"Batch does not exist\");\r\n    require(_batches[_batchId].status == BatchStatus.Approved, \"Batch must be approved\");\r\n    \r\n    TransportEvent memory newEvent = TransportEvent({\r\n        participantId: _participantId,\r\n        timestamp: block.timestamp,\r\n        action: _action,\r\n        participantType: _participantType\r\n    });\r\n    \r\n    _batchTransportEvents[_batchId].push(newEvent);\r\n    \r\n    if (keccak256(abi.encodePacked(_action)) == keccak256(abi.encodePacked(\"Bat dau van chuyen\"))) {\r\n        _batches[_batchId].detailedTransportStatus = DetailedTransportStatus.InTransit;\r\n        _batches[_batchId].transportStatus = TransportStatus.InTransit;\r\n        _batches[_batchId].lastTransporterId = _participantId;\r\n    } else if (keccak256(abi.encodePacked(_action)) == keccak256(abi.encodePacked(\"Hoan thanh van chuyen\"))) {\r\n        _batches[_batchId].detailedTransportStatus = DetailedTransportStatus.Delivered;\r\n        _batches[_batchId].transportStatus = TransportStatus.Delivered;\r\n    }\r\n    \r\n    emit TransportStatusUpdated(_batchId, _batches[_batchId].detailedTransportStatus, _action, _participantId, _participantType);\r\n}\r\nfunction getBatchIdBySSCC(string memory _sscc) public view returns (uint256) {\r\n    return _ssccToBatchId[_sscc];\r\n}\r\n\r\nfunction getDetailedTransportStatus(uint256 _batchId) public view returns (DetailedTransportStatus) {\r\n    require(_batches[_batchId].batchId != 0, \"Batch does not exist\");\r\n    return _batches[_batchId].detailedTransportStatus;\r\n}\r\nfunction canStartTransport(uint256 _batchId, uint256 _transporterId) public view returns (bool) {\r\n    return _batches[_batchId].detailedTransportStatus == DetailedTransportStatus.NotStarted ||\r\n           (_batches[_batchId].detailedTransportStatus == DetailedTransportStatus.Delivered && _batches[_batchId].lastTransporterId != _transporterId);\r\n}\r\nfunction getTransportHistory(uint256 _batchId) public view returns (TransportEvent[] memory) {\r\n    return _batchTransportEvents[_batchId];\r\n}\r\n// Thm hm  kim tra trng thi vn chuyn\r\nfunction getBatchTransportStatus(uint256 _batchId) public view returns (TransportStatus) {\r\n    require(_batches[_batchId].batchId != 0, \"Batch does not exist\");\r\n    return _batches[_batchId].transportStatus;\r\n}\r\n\r\n}\r\n",
  "sourcePath": "D:\\projects\\nckh-be\\blockchain\\contracts\\supplychain.sol",
  "compiler": {
    "name": "solc",
    "version": "0.8.20+commit.a1b79de6.Emscripten.clang"
  },
  "schemaVersion": "3.4.16",
  "updatedAt": "2024-09-19T12:29:23.221Z",
  "networkType": "ethereum",
  "devdoc": {
    "kind": "dev",
    "methods": {},
    "version": 1
  },
  "userdoc": {
    "kind": "user",
    "methods": {},
    "version": 1
  }
}