{
  "contractName": "TraceabilityContract",
  "abi": [
    {
      "anonymous": false,
      "inputs": [
        {
          "indexed": true,
          "internalType": "uint256",
          "name": "uid",
          "type": "uint256"
        },
        {
          "indexed": false,
          "internalType": "string",
          "name": "activityName",
          "type": "string"
        },
        {
          "indexed": false,
          "internalType": "string",
          "name": "description",
          "type": "string"
        },
        {
          "indexed": false,
          "internalType": "bool",
          "name": "isSystemGenerated",
          "type": "bool"
        },
        {
          "indexed": false,
          "internalType": "string[]",
          "name": "imageUrls",
          "type": "string[]"
        },
        {
          "indexed": false,
          "internalType": "uint256[]",
          "name": "relatedProductIds",
          "type": "uint256[]"
        }
      ],
      "name": "ActivityLogAdded",
      "type": "event"
    },
    {
      "anonymous": false,
      "inputs": [
        {
          "indexed": true,
          "internalType": "uint256",
          "name": "batchId",
          "type": "uint256"
        },
        {
          "indexed": true,
          "internalType": "uint256",
          "name": "producerId",
          "type": "uint256"
        },
        {
          "indexed": false,
          "internalType": "string",
          "name": "sscc",
          "type": "string"
        }
      ],
      "name": "BatchApproved",
      "type": "event"
    },
    {
      "anonymous": false,
      "inputs": [
        {
          "indexed": true,
          "internalType": "uint256",
          "name": "batchId",
          "type": "uint256"
        },
        {
          "indexed": true,
          "internalType": "uint256",
          "name": "producerId",
          "type": "uint256"
        },
        {
          "indexed": false,
          "internalType": "string",
          "name": "sscc",
          "type": "string"
        }
      ],
      "name": "BatchApprovedForQR",
      "type": "event"
    },
    {
      "anonymous": false,
      "inputs": [
        {
          "indexed": true,
          "internalType": "uint256",
          "name": "batchId",
          "type": "uint256"
        },
        {
          "indexed": false,
          "internalType": "string",
          "name": "sscc",
          "type": "string"
        },
        {
          "indexed": false,
          "internalType": "uint256",
          "name": "producerId",
          "type": "uint256"
        }
      ],
      "name": "BatchCreated",
      "type": "event"
    },
    {
      "anonymous": false,
      "inputs": [
        {
          "indexed": true,
          "internalType": "uint256",
          "name": "batchId",
          "type": "uint256"
        },
        {
          "indexed": false,
          "internalType": "uint256",
          "name": "producerId",
          "type": "uint256"
        },
        {
          "indexed": false,
          "internalType": "string",
          "name": "sscc",
          "type": "string"
        }
      ],
      "name": "BatchRejected",
      "type": "event"
    },
    {
      "anonymous": false,
      "inputs": [
        {
          "indexed": true,
          "internalType": "uint256",
          "name": "batchId",
          "type": "uint256"
        },
        {
          "indexed": false,
          "internalType": "enum TraceabilityContract.BatchStatus",
          "name": "newStatus",
          "type": "uint8"
        }
      ],
      "name": "BatchStatusUpdated",
      "type": "event"
    },
    {
      "anonymous": false,
      "inputs": [
        {
          "indexed": true,
          "internalType": "uint256",
          "name": "batchId",
          "type": "uint256"
        },
        {
          "indexed": false,
          "internalType": "uint256",
          "name": "participantId",
          "type": "uint256"
        },
        {
          "indexed": false,
          "internalType": "string",
          "name": "participantType",
          "type": "string"
        },
        {
          "indexed": false,
          "internalType": "string",
          "name": "action",
          "type": "string"
        }
      ],
      "name": "ParticipationRecorded",
      "type": "event"
    },
    {
      "anonymous": false,
      "inputs": [
        {
          "indexed": true,
          "internalType": "uint256",
          "name": "batchId",
          "type": "uint256"
        },
        {
          "indexed": false,
          "internalType": "enum TraceabilityContract.TransportStatus",
          "name": "newStatus",
          "type": "uint8"
        }
      ],
      "name": "TransportStatusUpdated",
      "type": "event"
    },
    {
      "inputs": [
        {
          "internalType": "string",
          "name": "_name",
          "type": "string"
        },
        {
          "internalType": "uint256",
          "name": "_producerId",
          "type": "uint256"
        },
        {
          "internalType": "string",
          "name": "_quantity",
          "type": "string"
        },
        {
          "internalType": "string[]",
          "name": "_productImageUrls",
          "type": "string[]"
        },
        {
          "internalType": "string",
          "name": "_certificateImageUrl",
          "type": "string"
        },
        {
          "internalType": "string",
          "name": "_farmPlotNumber",
          "type": "string"
        },
        {
          "internalType": "uint256",
          "name": "_productId",
          "type": "uint256"
        },
        {
          "internalType": "uint256",
          "name": "_startDate",
          "type": "uint256"
        },
        {
          "internalType": "uint256",
          "name": "_endDate",
          "type": "uint256"
        }
      ],
      "name": "createBatch",
      "outputs": [
        {
          "internalType": "uint256",
          "name": "",
          "type": "uint256"
        }
      ],
      "stateMutability": "nonpayable",
      "type": "function"
    },
    {
      "inputs": [
        {
          "internalType": "uint256",
          "name": "_uid",
          "type": "uint256"
        },
        {
          "internalType": "string",
          "name": "_activityName",
          "type": "string"
        },
        {
          "internalType": "string",
          "name": "_description",
          "type": "string"
        },
        {
          "internalType": "string[]",
          "name": "_imageUrls",
          "type": "string[]"
        },
        {
          "internalType": "uint256[]",
          "name": "_relatedProductIds",
          "type": "uint256[]"
        }
      ],
      "name": "addActivityLog",
      "outputs": [],
      "stateMutability": "nonpayable",
      "type": "function"
    },
    {
      "inputs": [
        {
          "internalType": "uint256",
          "name": "_uid",
          "type": "uint256"
        }
      ],
      "name": "getProducerActivityLogs",
      "outputs": [
        {
          "components": [
            {
              "internalType": "uint256",
              "name": "timestamp",
              "type": "uint256"
            },
            {
              "internalType": "uint256",
              "name": "uid",
              "type": "uint256"
            },
            {
              "internalType": "string",
              "name": "activityName",
              "type": "string"
            },
            {
              "internalType": "string",
              "name": "description",
              "type": "string"
            },
            {
              "internalType": "bool",
              "name": "isSystemGenerated",
              "type": "bool"
            },
            {
              "internalType": "string[]",
              "name": "imageUrls",
              "type": "string[]"
            },
            {
              "internalType": "uint256[]",
              "name": "relatedProductIds",
              "type": "uint256[]"
            }
          ],
          "internalType": "struct TraceabilityContract.ActivityLog[]",
          "name": "",
          "type": "tuple[]"
        }
      ],
      "stateMutability": "view",
      "type": "function",
      "constant": true
    },
    {
      "inputs": [
        {
          "internalType": "string",
          "name": "sscc",
          "type": "string"
        }
      ],
      "name": "ssccExists",
      "outputs": [
        {
          "internalType": "bool",
          "name": "",
          "type": "bool"
        }
      ],
      "stateMutability": "view",
      "type": "function",
      "constant": true
    },
    {
      "inputs": [
        {
          "internalType": "uint256",
          "name": "producerId",
          "type": "uint256"
        }
      ],
      "name": "getBatchesByProducer",
      "outputs": [
        {
          "components": [
            {
              "internalType": "uint256",
              "name": "batchId",
              "type": "uint256"
            },
            {
              "internalType": "string",
              "name": "name",
              "type": "string"
            },
            {
              "internalType": "string",
              "name": "sscc",
              "type": "string"
            },
            {
              "internalType": "uint256",
              "name": "producerId",
              "type": "uint256"
            },
            {
              "internalType": "string",
              "name": "quantity",
              "type": "string"
            },
            {
              "internalType": "uint256",
              "name": "productionDate",
              "type": "uint256"
            },
            {
              "internalType": "uint256",
              "name": "startDate",
              "type": "uint256"
            },
            {
              "internalType": "uint256",
              "name": "endDate",
              "type": "uint256"
            },
            {
              "internalType": "enum TraceabilityContract.BatchStatus",
              "name": "status",
              "type": "uint8"
            },
            {
              "internalType": "string[]",
              "name": "productImageUrls",
              "type": "string[]"
            },
            {
              "internalType": "string",
              "name": "certificateImageUrl",
              "type": "string"
            },
            {
              "internalType": "string",
              "name": "farmPlotNumber",
              "type": "string"
            },
            {
              "internalType": "bytes32",
              "name": "dataHash",
              "type": "bytes32"
            },
            {
              "internalType": "uint256",
              "name": "productId",
              "type": "uint256"
            },
            {
              "internalType": "enum TraceabilityContract.TransportStatus",
              "name": "transportStatus",
              "type": "uint8"
            }
          ],
          "internalType": "struct TraceabilityContract.Batch[]",
          "name": "",
          "type": "tuple[]"
        }
      ],
      "stateMutability": "view",
      "type": "function",
      "constant": true
    },
    {
      "inputs": [
        {
          "internalType": "uint256",
          "name": "_batchId",
          "type": "uint256"
        },
        {
          "internalType": "enum TraceabilityContract.BatchStatus",
          "name": "_newStatus",
          "type": "uint8"
        }
      ],
      "name": "updateBatchStatus",
      "outputs": [],
      "stateMutability": "nonpayable",
      "type": "function"
    },
    {
      "inputs": [
        {
          "internalType": "uint256",
          "name": "_producerId",
          "type": "uint256"
        }
      ],
      "name": "getPendingBatchesByProducer",
      "outputs": [
        {
          "components": [
            {
              "internalType": "uint256",
              "name": "batchId",
              "type": "uint256"
            },
            {
              "internalType": "string",
              "name": "name",
              "type": "string"
            },
            {
              "internalType": "string",
              "name": "sscc",
              "type": "string"
            },
            {
              "internalType": "uint256",
              "name": "producerId",
              "type": "uint256"
            },
            {
              "internalType": "string",
              "name": "quantity",
              "type": "string"
            },
            {
              "internalType": "uint256",
              "name": "productionDate",
              "type": "uint256"
            },
            {
              "internalType": "uint256",
              "name": "startDate",
              "type": "uint256"
            },
            {
              "internalType": "uint256",
              "name": "endDate",
              "type": "uint256"
            },
            {
              "internalType": "enum TraceabilityContract.BatchStatus",
              "name": "status",
              "type": "uint8"
            },
            {
              "internalType": "string[]",
              "name": "productImageUrls",
              "type": "string[]"
            },
            {
              "internalType": "string",
              "name": "certificateImageUrl",
              "type": "string"
            },
            {
              "internalType": "string",
              "name": "farmPlotNumber",
              "type": "string"
            },
            {
              "internalType": "bytes32",
              "name": "dataHash",
              "type": "bytes32"
            },
            {
              "internalType": "uint256",
              "name": "productId",
              "type": "uint256"
            },
            {
              "internalType": "enum TraceabilityContract.TransportStatus",
              "name": "transportStatus",
              "type": "uint8"
            }
          ],
          "internalType": "struct TraceabilityContract.Batch[]",
          "name": "",
          "type": "tuple[]"
        }
      ],
      "stateMutability": "view",
      "type": "function",
      "constant": true
    },
    {
      "inputs": [
        {
          "internalType": "uint256",
          "name": "_producerId",
          "type": "uint256"
        }
      ],
      "name": "getRejectedBatchesByProducer",
      "outputs": [
        {
          "components": [
            {
              "internalType": "uint256",
              "name": "batchId",
              "type": "uint256"
            },
            {
              "internalType": "string",
              "name": "name",
              "type": "string"
            },
            {
              "internalType": "string",
              "name": "sscc",
              "type": "string"
            },
            {
              "internalType": "uint256",
              "name": "producerId",
              "type": "uint256"
            },
            {
              "internalType": "string",
              "name": "quantity",
              "type": "string"
            },
            {
              "internalType": "uint256",
              "name": "productionDate",
              "type": "uint256"
            },
            {
              "internalType": "uint256",
              "name": "startDate",
              "type": "uint256"
            },
            {
              "internalType": "uint256",
              "name": "endDate",
              "type": "uint256"
            },
            {
              "internalType": "enum TraceabilityContract.BatchStatus",
              "name": "status",
              "type": "uint8"
            },
            {
              "internalType": "string[]",
              "name": "productImageUrls",
              "type": "string[]"
            },
            {
              "internalType": "string",
              "name": "certificateImageUrl",
              "type": "string"
            },
            {
              "internalType": "string",
              "name": "farmPlotNumber",
              "type": "string"
            },
            {
              "internalType": "bytes32",
              "name": "dataHash",
              "type": "bytes32"
            },
            {
              "internalType": "uint256",
              "name": "productId",
              "type": "uint256"
            },
            {
              "internalType": "enum TraceabilityContract.TransportStatus",
              "name": "transportStatus",
              "type": "uint8"
            }
          ],
          "internalType": "struct TraceabilityContract.Batch[]",
          "name": "",
          "type": "tuple[]"
        }
      ],
      "stateMutability": "view",
      "type": "function",
      "constant": true
    },
    {
      "inputs": [],
      "name": "getAllPendingBatches",
      "outputs": [
        {
          "components": [
            {
              "internalType": "uint256",
              "name": "batchId",
              "type": "uint256"
            },
            {
              "internalType": "string",
              "name": "name",
              "type": "string"
            },
            {
              "internalType": "string",
              "name": "sscc",
              "type": "string"
            },
            {
              "internalType": "uint256",
              "name": "producerId",
              "type": "uint256"
            },
            {
              "internalType": "string",
              "name": "quantity",
              "type": "string"
            },
            {
              "internalType": "uint256",
              "name": "productionDate",
              "type": "uint256"
            },
            {
              "internalType": "uint256",
              "name": "startDate",
              "type": "uint256"
            },
            {
              "internalType": "uint256",
              "name": "endDate",
              "type": "uint256"
            },
            {
              "internalType": "enum TraceabilityContract.BatchStatus",
              "name": "status",
              "type": "uint8"
            },
            {
              "internalType": "string[]",
              "name": "productImageUrls",
              "type": "string[]"
            },
            {
              "internalType": "string",
              "name": "certificateImageUrl",
              "type": "string"
            },
            {
              "internalType": "string",
              "name": "farmPlotNumber",
              "type": "string"
            },
            {
              "internalType": "bytes32",
              "name": "dataHash",
              "type": "bytes32"
            },
            {
              "internalType": "uint256",
              "name": "productId",
              "type": "uint256"
            },
            {
              "internalType": "enum TraceabilityContract.TransportStatus",
              "name": "transportStatus",
              "type": "uint8"
            }
          ],
          "internalType": "struct TraceabilityContract.Batch[]",
          "name": "",
          "type": "tuple[]"
        }
      ],
      "stateMutability": "view",
      "type": "function",
      "constant": true
    },
    {
      "inputs": [
        {
          "internalType": "uint256",
          "name": "_batchId",
          "type": "uint256"
        }
      ],
      "name": "getBatchDetails",
      "outputs": [
        {
          "components": [
            {
              "internalType": "uint256",
              "name": "batchId",
              "type": "uint256"
            },
            {
              "internalType": "string",
              "name": "name",
              "type": "string"
            },
            {
              "internalType": "string",
              "name": "sscc",
              "type": "string"
            },
            {
              "internalType": "uint256",
              "name": "producerId",
              "type": "uint256"
            },
            {
              "internalType": "string",
              "name": "quantity",
              "type": "string"
            },
            {
              "internalType": "uint256",
              "name": "productionDate",
              "type": "uint256"
            },
            {
              "internalType": "uint256",
              "name": "startDate",
              "type": "uint256"
            },
            {
              "internalType": "uint256",
              "name": "endDate",
              "type": "uint256"
            },
            {
              "internalType": "enum TraceabilityContract.BatchStatus",
              "name": "status",
              "type": "uint8"
            },
            {
              "internalType": "string[]",
              "name": "productImageUrls",
              "type": "string[]"
            },
            {
              "internalType": "string",
              "name": "certificateImageUrl",
              "type": "string"
            },
            {
              "internalType": "string",
              "name": "farmPlotNumber",
              "type": "string"
            },
            {
              "internalType": "bytes32",
              "name": "dataHash",
              "type": "bytes32"
            },
            {
              "internalType": "uint256",
              "name": "productId",
              "type": "uint256"
            },
            {
              "internalType": "enum TraceabilityContract.TransportStatus",
              "name": "transportStatus",
              "type": "uint8"
            }
          ],
          "internalType": "struct TraceabilityContract.Batch",
          "name": "",
          "type": "tuple"
        }
      ],
      "stateMutability": "view",
      "type": "function",
      "constant": true
    },
    {
      "inputs": [],
      "name": "getTotalBatches",
      "outputs": [
        {
          "internalType": "uint256",
          "name": "",
          "type": "uint256"
        }
      ],
      "stateMutability": "view",
      "type": "function",
      "constant": true
    },
    {
      "inputs": [
        {
          "internalType": "uint256",
          "name": "_batchId",
          "type": "uint256"
        },
        {
          "internalType": "uint256",
          "name": "_producerId",
          "type": "uint256"
        }
      ],
      "name": "isProducerOfBatch",
      "outputs": [
        {
          "internalType": "bool",
          "name": "",
          "type": "bool"
        }
      ],
      "stateMutability": "view",
      "type": "function",
      "constant": true
    },
    {
      "inputs": [
        {
          "internalType": "uint256",
          "name": "_uid",
          "type": "uint256"
        }
      ],
      "name": "getActivityLogs",
      "outputs": [
        {
          "components": [
            {
              "internalType": "uint256",
              "name": "timestamp",
              "type": "uint256"
            },
            {
              "internalType": "uint256",
              "name": "uid",
              "type": "uint256"
            },
            {
              "internalType": "string",
              "name": "activityName",
              "type": "string"
            },
            {
              "internalType": "string",
              "name": "description",
              "type": "string"
            },
            {
              "internalType": "bool",
              "name": "isSystemGenerated",
              "type": "bool"
            },
            {
              "internalType": "string[]",
              "name": "imageUrls",
              "type": "string[]"
            },
            {
              "internalType": "uint256[]",
              "name": "relatedProductIds",
              "type": "uint256[]"
            }
          ],
          "internalType": "struct TraceabilityContract.ActivityLog[]",
          "name": "",
          "type": "tuple[]"
        }
      ],
      "stateMutability": "view",
      "type": "function",
      "constant": true
    },
    {
      "inputs": [
        {
          "internalType": "uint256",
          "name": "_uid",
          "type": "uint256"
        }
      ],
      "name": "getActivityLogCount",
      "outputs": [
        {
          "internalType": "uint256",
          "name": "",
          "type": "uint256"
        }
      ],
      "stateMutability": "view",
      "type": "function",
      "constant": true
    },
    {
      "inputs": [
        {
          "internalType": "uint256",
          "name": "_batchId",
          "type": "uint256"
        }
      ],
      "name": "approveBatch",
      "outputs": [],
      "stateMutability": "nonpayable",
      "type": "function"
    },
    {
      "inputs": [
        {
          "internalType": "uint256",
          "name": "_batchId",
          "type": "uint256"
        }
      ],
      "name": "rejectBatch",
      "outputs": [],
      "stateMutability": "nonpayable",
      "type": "function"
    },
    {
      "inputs": [
        {
          "internalType": "uint256",
          "name": "_producerId",
          "type": "uint256"
        }
      ],
      "name": "getApprovedBatchesByProducer",
      "outputs": [
        {
          "components": [
            {
              "internalType": "uint256",
              "name": "batchId",
              "type": "uint256"
            },
            {
              "internalType": "string",
              "name": "name",
              "type": "string"
            },
            {
              "internalType": "string",
              "name": "sscc",
              "type": "string"
            },
            {
              "internalType": "uint256",
              "name": "producerId",
              "type": "uint256"
            },
            {
              "internalType": "string",
              "name": "quantity",
              "type": "string"
            },
            {
              "internalType": "uint256",
              "name": "productionDate",
              "type": "uint256"
            },
            {
              "internalType": "uint256",
              "name": "startDate",
              "type": "uint256"
            },
            {
              "internalType": "uint256",
              "name": "endDate",
              "type": "uint256"
            },
            {
              "internalType": "enum TraceabilityContract.BatchStatus",
              "name": "status",
              "type": "uint8"
            },
            {
              "internalType": "string[]",
              "name": "productImageUrls",
              "type": "string[]"
            },
            {
              "internalType": "string",
              "name": "certificateImageUrl",
              "type": "string"
            },
            {
              "internalType": "string",
              "name": "farmPlotNumber",
              "type": "string"
            },
            {
              "internalType": "bytes32",
              "name": "dataHash",
              "type": "bytes32"
            },
            {
              "internalType": "uint256",
              "name": "productId",
              "type": "uint256"
            },
            {
              "internalType": "enum TraceabilityContract.TransportStatus",
              "name": "transportStatus",
              "type": "uint8"
            }
          ],
          "internalType": "struct TraceabilityContract.Batch[]",
          "name": "",
          "type": "tuple[]"
        }
      ],
      "stateMutability": "view",
      "type": "function",
      "constant": true
    },
    {
      "inputs": [
        {
          "internalType": "string",
          "name": "_sscc",
          "type": "string"
        }
      ],
      "name": "getBatchBySSCC",
      "outputs": [
        {
          "components": [
            {
              "internalType": "uint256",
              "name": "batchId",
              "type": "uint256"
            },
            {
              "internalType": "string",
              "name": "name",
              "type": "string"
            },
            {
              "internalType": "string",
              "name": "sscc",
              "type": "string"
            },
            {
              "internalType": "uint256",
              "name": "producerId",
              "type": "uint256"
            },
            {
              "internalType": "string",
              "name": "quantity",
              "type": "string"
            },
            {
              "internalType": "uint256",
              "name": "productionDate",
              "type": "uint256"
            },
            {
              "internalType": "uint256",
              "name": "startDate",
              "type": "uint256"
            },
            {
              "internalType": "uint256",
              "name": "endDate",
              "type": "uint256"
            },
            {
              "internalType": "enum TraceabilityContract.BatchStatus",
              "name": "status",
              "type": "uint8"
            },
            {
              "internalType": "string[]",
              "name": "productImageUrls",
              "type": "string[]"
            },
            {
              "internalType": "string",
              "name": "certificateImageUrl",
              "type": "string"
            },
            {
              "internalType": "string",
              "name": "farmPlotNumber",
              "type": "string"
            },
            {
              "internalType": "bytes32",
              "name": "dataHash",
              "type": "bytes32"
            },
            {
              "internalType": "uint256",
              "name": "productId",
              "type": "uint256"
            },
            {
              "internalType": "enum TraceabilityContract.TransportStatus",
              "name": "transportStatus",
              "type": "uint8"
            }
          ],
          "internalType": "struct TraceabilityContract.Batch",
          "name": "",
          "type": "tuple"
        }
      ],
      "stateMutability": "view",
      "type": "function",
      "constant": true
    },
    {
      "inputs": [
        {
          "internalType": "uint256",
          "name": "_batchId",
          "type": "uint256"
        }
      ],
      "name": "isBatchApproved",
      "outputs": [
        {
          "internalType": "bool",
          "name": "",
          "type": "bool"
        }
      ],
      "stateMutability": "view",
      "type": "function",
      "constant": true
    },
    {
      "inputs": [
        {
          "internalType": "uint256",
          "name": "_batchId",
          "type": "uint256"
        },
        {
          "internalType": "address",
          "name": "_participantAddress",
          "type": "address"
        },
        {
          "internalType": "string",
          "name": "_participantType",
          "type": "string"
        },
        {
          "internalType": "string",
          "name": "_action",
          "type": "string"
        }
      ],
      "name": "recordParticipation",
      "outputs": [],
      "stateMutability": "nonpayable",
      "type": "function"
    },
    {
      "inputs": [
        {
          "internalType": "uint256",
          "name": "_batchId",
          "type": "uint256"
        }
      ],
      "name": "updateTransportStatus",
      "outputs": [],
      "stateMutability": "nonpayable",
      "type": "function"
    },
    {
      "inputs": [
        {
          "internalType": "uint256",
          "name": "_batchId",
          "type": "uint256"
        }
      ],
      "name": "getBatchTransportStatus",
      "outputs": [
        {
          "internalType": "enum TraceabilityContract.TransportStatus",
          "name": "",
          "type": "uint8"
        }
      ],
      "stateMutability": "view",
      "type": "function",
      "constant": true
    }
  ],
  "bytecode": "0x608060405234801561001057600080fd5b50615448806100206000396000f3fe608060405234801561001057600080fd5b50600436106101425760003560e01c806385bdd03f116100b8578063d82a51151161007c578063d82a5115146102e2578063d9860bfc146102f5578063dd235d9d14610308578063e561dddc1461031b578063f7f097f414610323578063f9b8da0e1461033657600080fd5b806385bdd03f1461025c5780639d47dcc01461027c578063a7732c961461029c578063bf193ffa146102bc578063d043b843146102cf57600080fd5b806347e2f8631161010a57806347e2f863146101f357806352c88f36146102065780635aa825aa1461021b5780637e9b0d751461022357806380e32d4514610236578063838b1da31461024957600080fd5b806304008078146101475780630d82dcf41461016f5780630e6e369c146101925780632db53c9d146101b257806336c701e1146101d2575b600080fd5b61015a61015536600461470b565b610349565b60405190151581526020015b60405180910390f35b61015a61017d366004614747565b60009081526004602052604090205460ff1690565b6101a56101a0366004614747565b610373565b6040516101669190614843565b6101c56101c0366004614747565b61065b565b6040516101669190614a6f565b6101e56101e0366004614b83565b610c43565b604051908152602001610166565b6101c5610201366004614747565b610cb4565b610219610214366004614c7b565b61128e565b005b6101c5611336565b610219610231366004614747565b6118df565b6101c5610244366004614747565b611a9b565b610219610257366004614747565b612017565b6101e561026a366004614747565b60009081526003602052604090205490565b61028f61028a366004614747565b6121d0565b6040516101669190614caf565b6102af6102aa366004614747565b612681565b6040516101669190614cc9565b6102196102ca366004614cd7565b6126c7565b6101c56102dd366004614747565b6127f4565b6102196102f0366004614de3565b612dd2565b61028f61030336600461470b565b613054565b610219610316366004614747565b613558565b6000546101e5565b6101a5610331366004614747565b613775565b61015a610344366004614e6e565b613a52565b600060028260405161035b9190614e90565b90815260405190819003602001902054151592915050565b606060036000838152602001908152602001600020805480602002602001604051908101604052809291908181526020016000905b8282101561065057838290600052602060002090600702016040518060e001604052908160008201548152602001600182015481526020016002820180546103ef90614eac565b80601f016020809104026020016040519081016040528092919081815260200182805461041b90614eac565b80156104685780601f1061043d57610100808354040283529160200191610468565b820191906000526020600020905b81548152906001019060200180831161044b57829003601f168201915b5050505050815260200160038201805461048190614eac565b80601f01602080910402602001604051908101604052809291908181526020018280546104ad90614eac565b80156104fa5780601f106104cf576101008083540402835291602001916104fa565b820191906000526020600020905b8154815290600101906020018083116104dd57829003601f168201915b5050509183525050600482015460ff161515602080830191909152600583018054604080518285028101850182528281529401939260009084015b828210156105e157838290600052602060002001805461055490614eac565b80601f016020809104026020016040519081016040528092919081815260200182805461058090614eac565b80156105cd5780601f106105a2576101008083540402835291602001916105cd565b820191906000526020600020905b8154815290600101906020018083116105b057829003601f168201915b505050505081526020019060010190610535565b5050505081526020016006820180548060200260200160405190810160405280929190818152602001828054801561063857602002820191906000526020600020905b815481526020019060010190808311610624575b505050505081525050815260200190600101906103a8565b505050509050919050565b6060600060015b60005481116106d557600081815260016020526040902060030154841480156106b05750600260008281526001602052604090206008015460ff1660028111156106ae576106ae614922565b145b156106c357816106bf81614efc565b9250505b806106cd81614efc565b915050610662565b506000816001600160401b038111156106f0576106f0614656565b60405190808252806020026020018201604052801561072957816020015b6107166144b0565b81526020019060019003908161070e5790505b509050600060015b6000548111610c39576000818152600160205260409020600301548614801561077f5750600260008281526001602052604090206008015460ff16600281111561077d5761077d614922565b145b15610c275760008181526001602081815260409283902083516101e08101909452805484529182018054918401916107b690614eac565b80601f01602080910402602001604051908101604052809291908181526020018280546107e290614eac565b801561082f5780601f106108045761010080835404028352916020019161082f565b820191906000526020600020905b81548152906001019060200180831161081257829003601f168201915b5050505050815260200160028201805461084890614eac565b80601f016020809104026020016040519081016040528092919081815260200182805461087490614eac565b80156108c15780601f10610896576101008083540402835291602001916108c1565b820191906000526020600020905b8154815290600101906020018083116108a457829003601f168201915b50505050508152602001600382015481526020016004820180546108e490614eac565b80601f016020809104026020016040519081016040528092919081815260200182805461091090614eac565b801561095d5780601f106109325761010080835404028352916020019161095d565b820191906000526020600020905b81548152906001019060200180831161094057829003601f168201915b5050509183525050600582015460208201526006820154604082015260078201546060820152600882015460809091019060ff1660028111156109a2576109a2614922565b60028111156109b3576109b3614922565b815260200160098201805480602002602001604051908101604052809291908181526020016000905b82821015610a885783829060005260206000200180546109fb90614eac565b80601f0160208091040260200160405190810160405280929190818152602001828054610a2790614eac565b8015610a745780601f10610a4957610100808354040283529160200191610a74565b820191906000526020600020905b815481529060010190602001808311610a5757829003601f168201915b5050505050815260200190600101906109dc565b505050508152602001600a82018054610aa090614eac565b80601f0160208091040260200160405190810160405280929190818152602001828054610acc90614eac565b8015610b195780601f10610aee57610100808354040283529160200191610b19565b820191906000526020600020905b815481529060010190602001808311610afc57829003601f168201915b50505050508152602001600b82018054610b3290614eac565b80601f0160208091040260200160405190810160405280929190818152602001828054610b5e90614eac565b8015610bab5780601f10610b8057610100808354040283529160200191610bab565b820191906000526020600020905b815481529060010190602001808311610b8e57829003601f168201915b5050509183525050600c8201546020820152600d8201546040820152600e82015460609091019060ff166001811115610be657610be6614922565b6001811115610bf757610bf7614922565b81525050838381518110610c0d57610c0d614f15565b60200260200101819052508180610c2390614efc565b9250505b80610c3181614efc565b915050610731565b5090949350505050565b600080610c4f8a613a6d565b905060006040518061014001604052808d81526020018381526020018c81526020018b81526020018a8152602001898152602001888152602001878152602001868152602001858152509050610ca481613b40565b9c9b505050505050505050505050565b6060600060015b6000548111610d2c5760008181526001602052604090206003015484148015610d07575060008181526001602052604081206008015460ff166002811115610d0557610d05614922565b145b15610d1a5781610d1681614efc565b9250505b80610d2481614efc565b915050610cbb565b506000816001600160401b03811115610d4757610d47614656565b604051908082528060200260200182016040528015610d8057816020015b610d6d6144b0565b815260200190600190039081610d655790505b509050600060015b6000548111610c395760008181526001602052604090206003015486148015610dd4575060008181526001602052604081206008015460ff166002811115610dd257610dd2614922565b145b1561127c5760008181526001602081815260409283902083516101e0810190945280548452918201805491840191610e0b90614eac565b80601f0160208091040260200160405190810160405280929190818152602001828054610e3790614eac565b8015610e845780601f10610e5957610100808354040283529160200191610e84565b820191906000526020600020905b815481529060010190602001808311610e6757829003601f168201915b50505050508152602001600282018054610e9d90614eac565b80601f0160208091040260200160405190810160405280929190818152602001828054610ec990614eac565b8015610f165780601f10610eeb57610100808354040283529160200191610f16565b820191906000526020600020905b815481529060010190602001808311610ef957829003601f168201915b5050505050815260200160038201548152602001600482018054610f3990614eac565b80601f0160208091040260200160405190810160405280929190818152602001828054610f6590614eac565b8015610fb25780601f10610f8757610100808354040283529160200191610fb2565b820191906000526020600020905b815481529060010190602001808311610f9557829003601f168201915b5050509183525050600582015460208201526006820154604082015260078201546060820152600882015460809091019060ff166002811115610ff757610ff7614922565b600281111561100857611008614922565b815260200160098201805480602002602001604051908101604052809291908181526020016000905b828210156110dd57838290600052602060002001805461105090614eac565b80601f016020809104026020016040519081016040528092919081815260200182805461107c90614eac565b80156110c95780601f1061109e576101008083540402835291602001916110c9565b820191906000526020600020905b8154815290600101906020018083116110ac57829003601f168201915b505050505081526020019060010190611031565b505050508152602001600a820180546110f590614eac565b80601f016020809104026020016040519081016040528092919081815260200182805461112190614eac565b801561116e5780601f106111435761010080835404028352916020019161116e565b820191906000526020600020905b81548152906001019060200180831161115157829003601f168201915b50505050508152602001600b8201805461118790614eac565b80601f01602080910402602001604051908101604052809291908181526020018280546111b390614eac565b80156112005780601f106111d557610100808354040283529160200191611200565b820191906000526020600020905b8154815290600101906020018083116111e357829003601f168201915b5050509183525050600c8201546020820152600d8201546040820152600e82015460609091019060ff16600181111561123b5761123b614922565b600181111561124c5761124c614922565b8152505083838151811061126257611262614f15565b6020026020010181905250818061127890614efc565b9250505b8061128681614efc565b915050610d88565b60008281526001602052604081205490036112c45760405162461bcd60e51b81526004016112bb90614f2b565b60405180910390fd5b60008281526001602081905260409091206008018054839260ff19909116908360028111156112f5576112f5614922565b0217905550817fcf4d4f3dcd5294f4d19269f489155c2187699f4a9fb9004b6a303752b00b282f8260405161132a9190614f59565b60405180910390a25050565b6060600060015b60005481116113915760008181526001602052604081206008015460ff16600281111561136c5761136c614922565b0361137f578161137b81614efc565b9250505b8061138981614efc565b91505061133d565b506000816001600160401b038111156113ac576113ac614656565b6040519080825280602002602001820160405280156113e557816020015b6113d26144b0565b8152602001906001900390816113ca5790505b509050600060015b60005481116118d65760008181526001602052604081206008015460ff16600281111561141c5761141c614922565b036118c45760008181526001602081815260409283902083516101e081019094528054845291820180549184019161145390614eac565b80601f016020809104026020016040519081016040528092919081815260200182805461147f90614eac565b80156114cc5780601f106114a1576101008083540402835291602001916114cc565b820191906000526020600020905b8154815290600101906020018083116114af57829003601f168201915b505050505081526020016002820180546114e590614eac565b80601f016020809104026020016040519081016040528092919081815260200182805461151190614eac565b801561155e5780601f106115335761010080835404028352916020019161155e565b820191906000526020600020905b81548152906001019060200180831161154157829003601f168201915b505050505081526020016003820154815260200160048201805461158190614eac565b80601f01602080910402602001604051908101604052809291908181526020018280546115ad90614eac565b80156115fa5780601f106115cf576101008083540402835291602001916115fa565b820191906000526020600020905b8154815290600101906020018083116115dd57829003601f168201915b5050509183525050600582015460208201526006820154604082015260078201546060820152600882015460809091019060ff16600281111561163f5761163f614922565b600281111561165057611650614922565b815260200160098201805480602002602001604051908101604052809291908181526020016000905b8282101561172557838290600052602060002001805461169890614eac565b80601f01602080910402602001604051908101604052809291908181526020018280546116c490614eac565b80156117115780601f106116e657610100808354040283529160200191611711565b820191906000526020600020905b8154815290600101906020018083116116f457829003601f168201915b505050505081526020019060010190611679565b505050508152602001600a8201805461173d90614eac565b80601f016020809104026020016040519081016040528092919081815260200182805461176990614eac565b80156117b65780601f1061178b576101008083540402835291602001916117b6565b820191906000526020600020905b81548152906001019060200180831161179957829003601f168201915b50505050508152602001600b820180546117cf90614eac565b80601f01602080910402602001604051908101604052809291908181526020018280546117fb90614eac565b80156118485780601f1061181d57610100808354040283529160200191611848565b820191906000526020600020905b81548152906001019060200180831161182b57829003601f168201915b5050509183525050600c8201546020820152600d8201546040820152600e82015460609091019060ff16600181111561188357611883614922565b600181111561189457611894614922565b815250508383815181106118aa576118aa614f15565b602002602001018190525081806118c090614efc565b9250505b806118ce81614efc565b9150506113ed565b50909392505050565b600081815260016020526040812054900361190c5760405162461bcd60e51b81526004016112bb90614f2b565b600160008281526001602052604090206008015460ff16600281111561193457611934614922565b1461197a5760405162461bcd60e51b815260206004820152601660248201527510985d18da081b5d5cdd08189948185c1c1c9bdd995960521b60448201526064016112bb565b60008181526001602081905260408220600e015460ff16908111156119a1576119a1614922565b146119ea5760405162461bcd60e51b815260206004820152601960248201527810985d18da08185b1c9958591e481d1c985b9cdc1bdc9d1959603a1b60448201526064016112bb565b6000818152600160208190526040909120600e01805460ff191682800217905550611a5f81336040518060400160405280600b81526020016a2a3930b739b837b93a32b960a91b8152506040518060400160405280600d81526020016c2230903b30b71031b43abcb2b760991b815250612dd2565b807fb2c95713cf3fc45aa518a70b5ad2d609ae7f01d8fce27b71306cd685a0b11c636001604051611a909190614cc9565b60405180910390a250565b6060600060015b6000548111611ae457600081815260016020526040902060030154849003611ad25781611ace81614efc565b9250505b80611adc81614efc565b915050611aa2565b506000816001600160401b03811115611aff57611aff614656565b604051908082528060200260200182016040528015611b3857816020015b611b256144b0565b815260200190600190039081611b1d5790505b509050600060015b6000548111610c39576000818152600160205260409020600301548690036120055760008181526001602081815260409283902083516101e0810190945280548452918201805491840191611b9490614eac565b80601f0160208091040260200160405190810160405280929190818152602001828054611bc090614eac565b8015611c0d5780601f10611be257610100808354040283529160200191611c0d565b820191906000526020600020905b815481529060010190602001808311611bf057829003601f168201915b50505050508152602001600282018054611c2690614eac565b80601f0160208091040260200160405190810160405280929190818152602001828054611c5290614eac565b8015611c9f5780601f10611c7457610100808354040283529160200191611c9f565b820191906000526020600020905b815481529060010190602001808311611c8257829003601f168201915b5050505050815260200160038201548152602001600482018054611cc290614eac565b80601f0160208091040260200160405190810160405280929190818152602001828054611cee90614eac565b8015611d3b5780601f10611d1057610100808354040283529160200191611d3b565b820191906000526020600020905b815481529060010190602001808311611d1e57829003601f168201915b5050509183525050600582015460208201526006820154604082015260078201546060820152600882015460809091019060ff166002811115611d8057611d80614922565b6002811115611d9157611d91614922565b815260200160098201805480602002602001604051908101604052809291908181526020016000905b82821015611e66578382906000526020600020018054611dd990614eac565b80601f0160208091040260200160405190810160405280929190818152602001828054611e0590614eac565b8015611e525780601f10611e2757610100808354040283529160200191611e52565b820191906000526020600020905b815481529060010190602001808311611e3557829003601f168201915b505050505081526020019060010190611dba565b505050508152602001600a82018054611e7e90614eac565b80601f0160208091040260200160405190810160405280929190818152602001828054611eaa90614eac565b8015611ef75780601f10611ecc57610100808354040283529160200191611ef7565b820191906000526020600020905b815481529060010190602001808311611eda57829003601f168201915b50505050508152602001600b82018054611f1090614eac565b80601f0160208091040260200160405190810160405280929190818152602001828054611f3c90614eac565b8015611f895780601f10611f5e57610100808354040283529160200191611f89565b820191906000526020600020905b815481529060010190602001808311611f6c57829003601f168201915b5050509183525050600c8201546020820152600d8201546040820152600e82015460609091019060ff166001811115611fc457611fc4614922565b6001811115611fd557611fd5614922565b81525050838381518110611feb57611feb614f15565b6020026020010181905250818061200190614efc565b9250505b8061200f81614efc565b915050611b40565b60008181526001602052604081205490036120445760405162461bcd60e51b81526004016112bb90614f2b565b60008181526001602052604081206008015460ff16600281111561206a5761206a614922565b146120b75760405162461bcd60e51b815260206004820152601d60248201527f4261746368206973206e6f742070656e64696e6720617070726f76616c00000060448201526064016112bb565b6000818152600160205260409081902060088101805460ff191660029081179091556003820154925184937ffd30c1d70626cdbca41a738198079b1d57c2a7d36d52b79ae4b4bcc980506f7693612112939192910190614fe4565b60405180910390a2604080516001808252818301909252600091602080830190803683375050506000838152600160205260408120600d015482519293509183919061216057612160614f15565b6020026020010181815250506121cc60016000848152602001908152602001600020600301546040518060400160405280600e81526020016d10985d18da0814995a9958dd195960921b8152506040518060600160405280602781526020016153c5602791398461414d565b5050565b6121d86144b0565b60008281526001602052604081205490036122055760405162461bcd60e51b81526004016112bb90614f2b565b60008281526001602081815260409283902083516101e081019094528054845291820180549184019161223790614eac565b80601f016020809104026020016040519081016040528092919081815260200182805461226390614eac565b80156122b05780601f10612285576101008083540402835291602001916122b0565b820191906000526020600020905b81548152906001019060200180831161229357829003601f168201915b505050505081526020016002820180546122c990614eac565b80601f01602080910402602001604051908101604052809291908181526020018280546122f590614eac565b80156123425780601f1061231757610100808354040283529160200191612342565b820191906000526020600020905b81548152906001019060200180831161232557829003601f168201915b505050505081526020016003820154815260200160048201805461236590614eac565b80601f016020809104026020016040519081016040528092919081815260200182805461239190614eac565b80156123de5780601f106123b3576101008083540402835291602001916123de565b820191906000526020600020905b8154815290600101906020018083116123c157829003601f168201915b5050509183525050600582015460208201526006820154604082015260078201546060820152600882015460809091019060ff16600281111561242357612423614922565b600281111561243457612434614922565b815260200160098201805480602002602001604051908101604052809291908181526020016000905b8282101561250957838290600052602060002001805461247c90614eac565b80601f01602080910402602001604051908101604052809291908181526020018280546124a890614eac565b80156124f55780601f106124ca576101008083540402835291602001916124f5565b820191906000526020600020905b8154815290600101906020018083116124d857829003601f168201915b50505050508152602001906001019061245d565b505050508152602001600a8201805461252190614eac565b80601f016020809104026020016040519081016040528092919081815260200182805461254d90614eac565b801561259a5780601f1061256f5761010080835404028352916020019161259a565b820191906000526020600020905b81548152906001019060200180831161257d57829003601f168201915b50505050508152602001600b820180546125b390614eac565b80601f01602080910402602001604051908101604052809291908181526020018280546125df90614eac565b801561262c5780601f106126015761010080835404028352916020019161262c565b820191906000526020600020905b81548152906001019060200180831161260f57829003601f168201915b5050509183525050600c8201546020820152600d8201546040820152600e82015460609091019060ff16600181111561266757612667614922565b600181111561267857612678614922565b90525092915050565b60008181526001602052604081205481036126ae5760405162461bcd60e51b81526004016112bb90614f2b565b506000908152600160205260409020600e015460ff1690565b6040805160e08101825242815260208082018881528284018881526060840188905260006080850181905260a0850188905260c085018790528a8152600384529485208054600181810183559187529390952084516007909402019283559051938201939093559151909182916002820190612743908261504c565b5060608201516003820190612758908261504c565b50608082015160048201805460ff191691151591909117905560a0820151805161278c91600584019160209091019061454a565b5060c082015180516127a89160068401916020909101906145a0565b505050857f0fb336061951903d147e6b93ba30f6d47839e02426fcd5ee1876873afe47bab38686600087876040516127e495949392919061510b565b60405180910390a2505050505050565b6060600060015b600054811161286e57600081815260016020526040902060030154841480156128495750600160008281526001602052604090206008015460ff16600281111561284757612847614922565b145b1561285c578161285881614efc565b9250505b8061286681614efc565b9150506127fb565b506000816001600160401b0381111561288957612889614656565b6040519080825280602002602001820160405280156128c257816020015b6128af6144b0565b8152602001906001900390816128a75790505b509050600060015b6000548111610c3957600081815260016020526040902060030154861480156129185750600160008281526001602052604090206008015460ff16600281111561291657612916614922565b145b15612dc05760008181526001602081815260409283902083516101e081019094528054845291820180549184019161294f90614eac565b80601f016020809104026020016040519081016040528092919081815260200182805461297b90614eac565b80156129c85780601f1061299d576101008083540402835291602001916129c8565b820191906000526020600020905b8154815290600101906020018083116129ab57829003601f168201915b505050505081526020016002820180546129e190614eac565b80601f0160208091040260200160405190810160405280929190818152602001828054612a0d90614eac565b8015612a5a5780601f10612a2f57610100808354040283529160200191612a5a565b820191906000526020600020905b815481529060010190602001808311612a3d57829003601f168201915b5050505050815260200160038201548152602001600482018054612a7d90614eac565b80601f0160208091040260200160405190810160405280929190818152602001828054612aa990614eac565b8015612af65780601f10612acb57610100808354040283529160200191612af6565b820191906000526020600020905b815481529060010190602001808311612ad957829003601f168201915b5050509183525050600582015460208201526006820154604082015260078201546060820152600882015460809091019060ff166002811115612b3b57612b3b614922565b6002811115612b4c57612b4c614922565b815260200160098201805480602002602001604051908101604052809291908181526020016000905b82821015612c21578382906000526020600020018054612b9490614eac565b80601f0160208091040260200160405190810160405280929190818152602001828054612bc090614eac565b8015612c0d5780601f10612be257610100808354040283529160200191612c0d565b820191906000526020600020905b815481529060010190602001808311612bf057829003601f168201915b505050505081526020019060010190612b75565b505050508152602001600a82018054612c3990614eac565b80601f0160208091040260200160405190810160405280929190818152602001828054612c6590614eac565b8015612cb25780601f10612c8757610100808354040283529160200191612cb2565b820191906000526020600020905b815481529060010190602001808311612c9557829003601f168201915b50505050508152602001600b82018054612ccb90614eac565b80601f0160208091040260200160405190810160405280929190818152602001828054612cf790614eac565b8015612d445780601f10612d1957610100808354040283529160200191612d44565b820191906000526020600020905b815481529060010190602001808311612d2757829003601f168201915b5050509183525050600c8201546020820152600d8201546040820152600e82015460609091019060ff166001811115612d7f57612d7f614922565b6001811115612d9057612d90614922565b81525050838381518110612da657612da6614f15565b60200260200101819052508180612dbc90614efc565b9250505b80612dca81614efc565b9150506128ca565b6000848152600160205260408120549003612dff5760405162461bcd60e51b81526004016112bb90614f2b565b600084815260056020908152604080832081516080810183526001600160a01b0388168152808401878152429382019390935260608101869052815460018181018455928652939094208451600490940201928355905190820190612e64908261504c565b506040820151600282015560608201516003820190612e83908261504c565b50506040516a2a3930b739b837b93a32b960a91b6020820152602b0190506040516020818303038152906040528051906020012082604051602001612ec89190614e90565b6040516020818303038152906040528051906020012003613009576040516c2230903b30b71031b43abcb2b760991b6020820152602d016040516020818303038152906040528051906020012081604051602001612f269190614e90565b60405160208183030381529060405280519060200120036130095760008481526001602081905260408220600e015460ff1690811115612f6857612f68614922565b14612fb15760405162461bcd60e51b815260206004820152601960248201527810985d18da08185b1c9958591e481d1c985b9cdc1bdc9d1959603a1b60448201526064016112bb565b600084815260016020819052604091829020600e01805460ff191682179055905185917fb2c95713cf3fc45aa518a70b5ad2d609ae7f01d8fce27b71306cd685a0b11c63916130009190614cc9565b60405180910390a25b837fe5fd3732b00b2878e55e64cdde6c59b6566f044952fe6b2f36658364da9b561c846001600160a01b031684846040516130469392919061519e565b60405180910390a250505050565b61305c6144b0565b600060028360405161306e9190614e90565b9081526020016040518091039020549050806000036130db5760405162461bcd60e51b815260206004820152602360248201527f426174636820646f6573206e6f7420657869737420776974682074686973205360448201526253434360e81b60648201526084016112bb565b60008181526001602081815260409283902083516101e081019094528054845291820180549184019161310d90614eac565b80601f016020809104026020016040519081016040528092919081815260200182805461313990614eac565b80156131865780601f1061315b57610100808354040283529160200191613186565b820191906000526020600020905b81548152906001019060200180831161316957829003601f168201915b5050505050815260200160028201805461319f90614eac565b80601f01602080910402602001604051908101604052809291908181526020018280546131cb90614eac565b80156132185780601f106131ed57610100808354040283529160200191613218565b820191906000526020600020905b8154815290600101906020018083116131fb57829003601f168201915b505050505081526020016003820154815260200160048201805461323b90614eac565b80601f016020809104026020016040519081016040528092919081815260200182805461326790614eac565b80156132b45780601f10613289576101008083540402835291602001916132b4565b820191906000526020600020905b81548152906001019060200180831161329757829003601f168201915b5050509183525050600582015460208201526006820154604082015260078201546060820152600882015460809091019060ff1660028111156132f9576132f9614922565b600281111561330a5761330a614922565b815260200160098201805480602002602001604051908101604052809291908181526020016000905b828210156133df57838290600052602060002001805461335290614eac565b80601f016020809104026020016040519081016040528092919081815260200182805461337e90614eac565b80156133cb5780601f106133a0576101008083540402835291602001916133cb565b820191906000526020600020905b8154815290600101906020018083116133ae57829003601f168201915b505050505081526020019060010190613333565b505050508152602001600a820180546133f790614eac565b80601f016020809104026020016040519081016040528092919081815260200182805461342390614eac565b80156134705780601f1061344557610100808354040283529160200191613470565b820191906000526020600020905b81548152906001019060200180831161345357829003601f168201915b50505050508152602001600b8201805461348990614eac565b80601f01602080910402602001604051908101604052809291908181526020018280546134b590614eac565b80156135025780601f106134d757610100808354040283529160200191613502565b820191906000526020600020905b8154815290600101906020018083116134e557829003601f168201915b5050509183525050600c8201546020820152600d8201546040820152600e82015460609091019060ff16600181111561353d5761353d614922565b600181111561354e5761354e614922565b9052509392505050565b60008181526001602052604081205490036135855760405162461bcd60e51b81526004016112bb90614f2b565b60008181526001602052604081206008015460ff1660028111156135ab576135ab614922565b146135f85760405162461bcd60e51b815260206004820152601d60248201527f4261746368206973206e6f742070656e64696e6720617070726f76616c00000060448201526064016112bb565b600081815260016020818152604080842060088101805460ff19908116861790915560048452948290208054909516841790945591905260038201549051909183917f1a621270a25ae67b5e557b98be27914cd1de793b7ca49110be85cb5aaa169c9b9161366b916002909101906151d3565b60405180910390a3600081815260016020526040908190206003810154915183917f309958f3629dbb8b1c3fb39cc2ffd4759c619a8c6c7927159d9e608c99ae4632916136bb91600201906151d3565b60405180910390a3604080516001808252818301909252600091602080830190803683375050506000838152600160205260408120600d015482519293509183919061370957613709614f15565b6020026020010181815250506121cc60016000848152602001908152602001600020600301546040518060400160405280600e81526020016d10985d18da08105c1c1c9bdd995960921b8152506040518060600160405280602781526020016153ec602791398461414d565b606060036000838152602001908152602001600020805480602002602001604051908101604052809291908181526020016000905b8282101561065057838290600052602060002090600702016040518060e001604052908160008201548152602001600182015481526020016002820180546137f190614eac565b80601f016020809104026020016040519081016040528092919081815260200182805461381d90614eac565b801561386a5780601f1061383f5761010080835404028352916020019161386a565b820191906000526020600020905b81548152906001019060200180831161384d57829003601f168201915b5050505050815260200160038201805461388390614eac565b80601f01602080910402602001604051908101604052809291908181526020018280546138af90614eac565b80156138fc5780601f106138d1576101008083540402835291602001916138fc565b820191906000526020600020905b8154815290600101906020018083116138df57829003601f168201915b5050509183525050600482015460ff161515602080830191909152600583018054604080518285028101850182528281529401939260009084015b828210156139e357838290600052602060002001805461395690614eac565b80601f016020809104026020016040519081016040528092919081815260200182805461398290614eac565b80156139cf5780601f106139a4576101008083540402835291602001916139cf565b820191906000526020600020905b8154815290600101906020018083116139b257829003601f168201915b505050505081526020019060010190613937565b50505050815260200160068201805480602002602001604051908101604052809291908181526020018280548015613a3a57602002820191906000526020600020905b815481526020019060010190808311613a26575b505050505081525050815260200190600101906137aa565b60008281526001602052604090206003015481145b92915050565b604080518082019091526002815261030360f41b60208201526060906000613a9484614299565b6040805142602080830191909152818301889052825180830384018152606090920190925280519101209091506000613acc82614299565b90506000848483604051602001613ae5939291906151e6565b60405160208183030381529060405290506000613b01826143c4565b9050600082613b128360ff16614299565b604051602001613b23929190615229565b60408051601f198184030181529190529998505050505050505050565b600060028260200151604051613b569190614e90565b908152602001604051809103902054600014613baa5760405162461bcd60e51b81526020600482015260136024820152725353434320616c72656164792065786973747360681b60448201526064016112bb565b600082606001515111613bff5760405162461bcd60e51b815260206004820152601a60248201527f5175616e74697479206d757374206e6f7420626520656d70747900000000000060448201526064016112bb565b600082608001515111613c675760405162461bcd60e51b815260206004820152602a60248201527f4174206c65617374206f6e652070726f6475637420696d6167652055524c20696044820152691cc81c995c5d5a5c995960b21b60648201526084016112bb565b60008260a001515111613cc65760405162461bcd60e51b815260206004820152602160248201527f436572746966696361746520696d6167652055524c20697320726571756972656044820152601960fa1b60648201526084016112bb565b60008260c001515111613d1b5760405162461bcd60e51b815260206004820152601c60248201527f4661726d20706c6f74206e756d6265722069732072657175697265640000000060448201526064016112bb565b60008260e0015111613d6f5760405162461bcd60e51b815260206004820152601860248201527f50726f64756374204944206d7573742062652076616c6964000000000000000060448201526064016112bb565b600082610100015111613dbd5760405162461bcd60e51b815260206004820152601660248201527514dd185c9d0819185d19481a5cc81c995c5d5a5c995960521b60448201526064016112bb565b600082610120015111613e095760405162461bcd60e51b8152602060048201526014602482015273115b990819185d19481a5cc81c995c5d5a5c995960621b60448201526064016112bb565b81610120015182610100015110613e6d5760405162461bcd60e51b815260206004820152602260248201527f53746172742064617465206d757374206265206265666f726520656e64206461604482015261746560f01b60648201526084016112bb565b815151613ebc5760405162461bcd60e51b815260206004820152601c60248201527f4261746368206e616d65206d757374206e6f7420626520656d7074790000000060448201526064016112bb565b600080549080613ecb83614efc565b919050555060008054905060004290506000613f04856020015186604001518760600151858960c001518a60e001518b6000015161446e565b90506000604051806101e00160405280858152602001876000015181526020018760200151815260200187604001518152602001876060015181526020018481526020018761010001518152602001876101200151815260200160006002811115613f7157613f71614922565b8152608080890151602083015260a0808a0151604084015260c0808b0151606085015291830186905260e08a015190830152016000905260008581526001602081815260409092208351815591830151929350839290820190613fd4908261504c565b5060408201516002820190613fe9908261504c565b506060820151600382015560808201516004820190614008908261504c565b5060a0820151600582015560c0820151600682015560e0820151600782015561010082015160088201805460ff1916600183600281111561404b5761404b614922565b0217905550610120820151805161406c91600984019160209091019061454a565b50610140820151600a820190614082908261504c565b50610160820151600b820190614098908261504c565b50610180820151600c8201556101a0820151600d8201556101c0820151600e8201805460ff1916600183818111156140d2576140d2614922565b021790555090505083600287602001516040516140ef9190614e90565b908152602001604051809103902081905550837f58c168780de5fc719a1e7a85c7eca394e664c0e74b7c9ebc621f0b093112d04b8760200151886040015160405161413b929190615258565b60405180910390a25091949350505050565b6040805160008082526020820190925281614178565b60608152602001906001900390816141635790505b506040805160e08101825242815260208082018981528284018981526060840189905260016080850181905260a0850187905260c0850189905260008c8152600385529586208054808301825590875293909520845160079094020192835590519382019390935591519293509182919060028201906141f8908261504c565b506060820151600382019061420d908261504c565b50608082015160048201805460ff191691151591909117905560a0820151805161424191600584019160209091019061454a565b5060c0820151805161425d9160068401916020909101906145a0565b505050857f0fb336061951903d147e6b93ba30f6d47839e02426fcd5ee1876873afe47bab38686600186886040516127e495949392919061510b565b6060816000036142c05750506040805180820190915260018152600360fc1b602082015290565b8160005b81156142ea57806142d481614efc565b91506142e39050600a83615290565b91506142c4565b6000816001600160401b0381111561430457614304614656565b6040519080825280601f01601f19166020018201604052801561432e576020820181803683370190505b509050815b85156143bb576143446001826152a4565b90506000614353600a88615290565b61435e90600a6152b7565b61436890886152a4565b6143739060306152ce565b905060008160f81b90508084848151811061439057614390614f15565b60200101906001600160f81b031916908160001a9053506143b2600a89615290565b97505050614333565b50949350505050565b60008181805b825181101561444157600060308483815181106143e9576143e9614f15565b01602001516143fb919060f81c6152e7565b9050614408600283615300565b15614413578061441e565b61441e816003615314565b61442b9060ff1684615337565b925050808061443990614efc565b9150506143ca565b506000600a6144508184615300565b61445b90600a6152a4565b6144659190615300565b95945050505050565b60008787878787878760405160200161448d979695949392919061534a565b604051602081830303815290604052805190602001209050979650505050505050565b604051806101e0016040528060008152602001606081526020016060815260200160008152602001606081526020016000815260200160008152602001600081526020016000600281111561450757614507614922565b815260200160608152602001606081526020016060815260200160008019168152602001600081526020016000600181111561454557614545614922565b905290565b828054828255906000526020600020908101928215614590579160200282015b828111156145905782518290614580908261504c565b509160200191906001019061456a565b5061459c9291506145e7565b5090565b8280548282559060005260206000209081019282156145db579160200282015b828111156145db5782518255916020019190600101906145c0565b5061459c929150614604565b8082111561459c5760006145fb8282614619565b506001016145e7565b5b8082111561459c5760008155600101614605565b50805461462590614eac565b6000825580601f10614635575050565b601f0160209004906000526020600020908101906146539190614604565b50565b634e487b7160e01b600052604160045260246000fd5b604051601f8201601f191681016001600160401b038111828210171561469457614694614656565b604052919050565b600082601f8301126146ad57600080fd5b81356001600160401b038111156146c6576146c6614656565b6146d9601f8201601f191660200161466c565b8181528460208386010111156146ee57600080fd5b816020850160208301376000918101602001919091529392505050565b60006020828403121561471d57600080fd5b81356001600160401b0381111561473357600080fd5b61473f8482850161469c565b949350505050565b60006020828403121561475957600080fd5b5035919050565b60005b8381101561477b578181015183820152602001614763565b50506000910152565b6000815180845261479c816020860160208601614760565b601f01601f19169290920160200192915050565b600082825180855260208086019550808260051b84010181860160005b848110156147fb57601f198684030189526147e9838351614784565b988401989250908301906001016147cd565b5090979650505050505050565b600081518084526020808501945080840160005b838110156148385781518752958201959082019060010161481c565b509495945050505050565b60006020808301818452808551808352604092508286019150828160051b87010184880160005b8381101561491457603f19898403018552815160e08151855288820151898601528782015181898701526148a082870182614784565b915050606080830151868303828801526148ba8382614784565b925050506080808301511515818701525060a080830151868303828801526148e283826147b0565b9250505060c080830151925085820381870152506149008183614808565b96890196945050509086019060010161486a565b509098975050505050505050565b634e487b7160e01b600052602160045260246000fd5b6003811061494857614948614922565b9052565b6002811061494857614948614922565b60006101e082518452602083015181602086015261497c82860182614784565b915050604083015184820360408601526149968282614784565b91505060608301516060850152608083015184820360808601526149ba8282614784565b91505060a083015160a085015260c083015160c085015260e083015160e0850152610100808401516149ee82870182614938565b50506101208084015185830382870152614a0883826147b0565b925050506101408084015185830382870152614a248382614784565b925050506101608084015185830382870152614a408382614784565b925050506101808084015181860152506101a08084015181860152506101c080840151610c398287018261494c565b6000602080830181845280855180835260408601915060408160051b870101925083870160005b82811015614ac457603f19888603018452614ab285835161495c565b94509285019290850190600101614a96565b5092979650505050505050565b60006001600160401b03821115614aea57614aea614656565b5060051b60200190565b600082601f830112614b0557600080fd5b81356020614b1a614b1583614ad1565b61466c565b82815260059290921b84018101918181019086841115614b3957600080fd5b8286015b84811015614b785780356001600160401b03811115614b5c5760008081fd5b614b6a8986838b010161469c565b845250918301918301614b3d565b509695505050505050565b60008060008060008060008060006101208a8c031215614ba257600080fd5b89356001600160401b0380821115614bb957600080fd5b614bc58d838e0161469c565b9a5060208c0135995060408c0135915080821115614be257600080fd5b614bee8d838e0161469c565b985060608c0135915080821115614c0457600080fd5b614c108d838e01614af4565b975060808c0135915080821115614c2657600080fd5b614c328d838e0161469c565b965060a08c0135915080821115614c4857600080fd5b50614c558c828d0161469c565b94505060c08a0135925060e08a013591506101008a013590509295985092959850929598565b60008060408385031215614c8e57600080fd5b82359150602083013560038110614ca457600080fd5b809150509250929050565b602081526000614cc2602083018461495c565b9392505050565b60208101613a67828461494c565b600080600080600060a08688031215614cef57600080fd5b853594506020808701356001600160401b0380821115614d0e57600080fd5b614d1a8a838b0161469c565b96506040890135915080821115614d3057600080fd5b614d3c8a838b0161469c565b95506060890135915080821115614d5257600080fd5b614d5e8a838b01614af4565b94506080890135915080821115614d7457600080fd5b508701601f81018913614d8657600080fd5b8035614d94614b1582614ad1565b81815260059190911b8201830190838101908b831115614db357600080fd5b928401925b82841015614dd157833582529284019290840190614db8565b80955050505050509295509295909350565b60008060008060808587031215614df957600080fd5b8435935060208501356001600160a01b0381168114614e1757600080fd5b925060408501356001600160401b0380821115614e3357600080fd5b614e3f8883890161469c565b93506060870135915080821115614e5557600080fd5b50614e628782880161469c565b91505092959194509250565b60008060408385031215614e8157600080fd5b50508035926020909101359150565b60008251614ea2818460208701614760565b9190910192915050565b600181811c90821680614ec057607f821691505b602082108103614ee057634e487b7160e01b600052602260045260246000fd5b50919050565b634e487b7160e01b600052601160045260246000fd5b600060018201614f0e57614f0e614ee6565b5060010190565b634e487b7160e01b600052603260045260246000fd5b60208082526014908201527310985d18da08191bd95cc81b9bdd08195e1a5cdd60621b604082015260600190565b60208101613a678284614938565b60008154614f7481614eac565b808552602060018381168015614f915760018114614fab57614fd9565b60ff1985168884015283151560051b880183019550614fd9565b866000528260002060005b85811015614fd15781548a8201860152908301908401614fb6565b890184019650505b505050505092915050565b82815260406020820152600061473f6040830184614f67565b601f82111561504757600081815260208120601f850160051c810160208610156150245750805b601f850160051c820191505b8181101561504357828155600101615030565b5050505b505050565b81516001600160401b0381111561506557615065614656565b615079816150738454614eac565b84614ffd565b602080601f8311600181146150ae57600084156150965750858301515b600019600386901b1c1916600185901b178555615043565b600085815260208120601f198616915b828110156150dd578886015182559484019460019091019084016150be565b50858210156150fb5787850151600019600388901b60f8161c191681555b5050505050600190811b01905550565b60a08152600061511e60a0830188614784565b6020838203818501526151318289614784565b9150861515604085015283820360608501528186518084528284019150828160051b85010183890160005b8381101561518a57601f19878403018552615178838351614784565b9486019492509085019060010161515c565b50508681036080880152610ca48189614808565b8381526060602082015260006151b76060830185614784565b82810360408401526151c98185614784565b9695505050505050565b602081526000614cc26020830184614f67565b600084516151f8818460208901614760565b84519083019061520c818360208901614760565b845191019061521f818360208801614760565b0195945050505050565b6000835161523b818460208801614760565b83519083019061524f818360208801614760565b01949350505050565b60408152600061526b6040830185614784565b90508260208301529392505050565b634e487b7160e01b600052601260045260246000fd5b60008261529f5761529f61527a565b500490565b81810381811115613a6757613a67614ee6565b8082028115828204841417613a6757613a67614ee6565b60ff8181168382160190811115613a6757613a67614ee6565b60ff8281168282160390811115613a6757613a67614ee6565b60008261530f5761530f61527a565b500690565b60ff818116838216029081169081811461533057615330614ee6565b5092915050565b80820180821115613a6757613a67614ee6565b60008851602061535d8285838e01614760565b8184019150898252885161537681838501848d01614760565b808301925050878183015286516153938160408501848b01614760565b6040920191820186905284516153af8160608501848901614760565b919091016060019a995050505050505050505056fe426174636820686173206265656e2072656a65637465642062792074686520617070726f766572426174636820686173206265656e20617070726f7665642062792074686520617070726f766572a2646970667358221220d891ccc6e38e60b6fcb27d7c21f5bb40e98dcc4545aefe809767c4ef1fd744e164736f6c63430008140033",
  "immutableReferences": {},
  "source": "// SPDX-License-Identifier: MIT\r\npragma solidity ^0.8.0;\r\n\r\ncontract TraceabilityContract {\r\n    uint256 private _batchIdCounter;\r\n\r\nenum BatchStatus { PendingApproval, Approved, Rejected }\r\nenum TransportStatus { NotTransported, Transported }\r\nenum ParticipantType { Producer, Transporter, Warehouse, Consumer }\r\n\r\n    struct Batch {\r\n        uint256 batchId;\r\n        string name;  // Thm trng tn l hng\r\n        string sscc;\r\n        uint256 producerId;\r\n        string quantity;\r\n        uint256 productionDate;\r\n        uint256 startDate;\r\n        uint256 endDate;\r\n        BatchStatus status;\r\n        string[] productImageUrls;\r\n        string certificateImageUrl;\r\n        string farmPlotNumber;\r\n        bytes32 dataHash;\r\n        uint256 productId;\r\n        TransportStatus transportStatus;\r\n    }\r\n    \r\n    struct Participation {\r\n        uint256 participantId;\r\n        string participantType;\r\n        uint256 timestamp;\r\n        string action;\r\n    }\r\n      struct ActivityLog {\r\n        uint256 timestamp;\r\n        uint256 uid;\r\n        string activityName;\r\n        string description;\r\n        bool isSystemGenerated;\r\n        string[] imageUrls;\r\n        uint256[] relatedProductIds;\r\n    }\r\n\r\n\r\n    mapping(uint256 => Batch) private _batches;\r\n    mapping(string => uint256) private _ssccToBatchId;\r\n    mapping(uint256 => ActivityLog[]) private _producerActivityLogs;\r\n    mapping(uint256 => bool) private _approvedBatches;\r\n    mapping(uint256 => Participation[]) private _batchParticipations;\r\n    \r\n    event BatchApproved(uint256 indexed batchId, uint256 indexed producerId, string sscc);\r\n    event BatchApprovedForQR(uint256 indexed batchId, uint256 indexed producerId, string sscc);\r\nevent ParticipationRecorded(uint256 indexed batchId, uint256 participantId, string participantType, string action);\r\n    event BatchCreated(uint256 indexed batchId, string sscc, uint256 producerId);\r\n    event ActivityLogAdded(\r\n        uint256 indexed uid,\r\n        string activityName,\r\n        string description,\r\n        bool isSystemGenerated,\r\n        string[] imageUrls,\r\n        uint256[] relatedProductIds\r\n    );\r\n\r\n    struct BatchParams {\r\n        string name;  // Thm trng tn l hng\r\n        string sscc;\r\n        uint256 producerId;\r\n        string quantity;\r\n        string[] productImageUrls;\r\n        string certificateImageUrl;\r\n        string farmPlotNumber;\r\n        uint256 productId;\r\n        uint256 startDate;\r\n        uint256 endDate;\r\n    }\r\n\r\n    function createBatch(\r\n        string memory _name,  // Thm tham s tn l hng\r\n        uint256 _producerId,\r\n        string memory _quantity,\r\n        string[] memory _productImageUrls,\r\n        string memory _certificateImageUrl,\r\n        string memory _farmPlotNumber,\r\n        uint256 _productId,\r\n        uint256 _startDate,\r\n        uint256 _endDate\r\n    ) public returns (uint256) {\r\n        string memory sscc = generateSSCC(_producerId);\r\n        BatchParams memory params = BatchParams({\r\n            name: _name,  // Thm tn l hng\r\n            sscc: sscc,\r\n            producerId: _producerId,\r\n            quantity: _quantity,\r\n            productImageUrls: _productImageUrls,\r\n            certificateImageUrl: _certificateImageUrl,\r\n            farmPlotNumber: _farmPlotNumber,\r\n            productId: _productId,\r\n            startDate: _startDate,\r\n            endDate: _endDate\r\n        });\r\n\r\n        return _createBatch(params);\r\n    }\r\n\r\n    function generateSSCC(uint256 _producerId) private view returns (string memory) {\r\n        string memory prefix = \"00\";\r\n        string memory companyPrefix = uint2str(_producerId);\r\n        uint256 serialNumber = uint256(keccak256(abi.encodePacked(block.timestamp, _producerId)));\r\n        string memory serialReference = uint2str(serialNumber);\r\n        \r\n        string memory ssccWithoutCheck = string(abi.encodePacked(prefix, companyPrefix, serialReference));\r\n        uint8 checkDigit = calculateCheckDigit(ssccWithoutCheck);\r\n        \r\n        string memory sscc = string(abi.encodePacked(ssccWithoutCheck, uint2str(uint256(checkDigit))));\r\n        \r\n        return sscc;\r\n    }\r\n\r\n    function calculateCheckDigit(string memory _code) private pure returns (uint8) {\r\n        bytes memory codeBytes = bytes(_code);\r\n        uint256 sum = 0;\r\n        for (uint256 i = 0; i < codeBytes.length; i++) {\r\n            uint8 digit = uint8(codeBytes[i]) - 48;\r\n            sum += (i % 2 == 0) ? digit * 3 : digit;\r\n        }\r\n        uint8 checkDigit = uint8((10 - (sum % 10)) % 10);\r\n        return checkDigit;\r\n    }\r\n\r\n    function uint2str(uint256 _i) private pure returns (string memory) {\r\n        if (_i == 0) {\r\n            return \"0\";\r\n        }\r\n        uint256 j = _i;\r\n        uint256 length;\r\n        while (j != 0) {\r\n            length++;\r\n            j /= 10;\r\n        }\r\n        bytes memory bstr = new bytes(length);\r\n        uint256 k = length;\r\n        while (_i != 0) {\r\n            k = k-1;\r\n            uint8 temp = (48 + uint8(_i - _i / 10 * 10));\r\n            bytes1 b1 = bytes1(temp);\r\n            bstr[k] = b1;\r\n            _i /= 10;\r\n        }\r\n        return string(bstr);\r\n    }\r\n\r\n    function _createBatch(BatchParams memory params) private returns (uint256) {\r\n        require(_ssccToBatchId[params.sscc] == 0, \"SSCC already exists\");\r\n        require(bytes(params.quantity).length > 0, \"Quantity must not be empty\");\r\n        require(params.productImageUrls.length > 0, \"At least one product image URL is required\");\r\n        require(bytes(params.certificateImageUrl).length > 0, \"Certificate image URL is required\");\r\n        require(bytes(params.farmPlotNumber).length > 0, \"Farm plot number is required\");\r\n        require(params.productId > 0, \"Product ID must be valid\");\r\n        require(params.startDate > 0, \"Start date is required\");\r\n        require(params.endDate > 0, \"End date is required\");\r\n        require(params.startDate < params.endDate, \"Start date must be before end date\");\r\n        require(bytes(params.name).length > 0, \"Batch name must not be empty\");\r\n\r\n        _batchIdCounter++;\r\n        uint256 newBatchId = _batchIdCounter;\r\n\r\n        uint256 productionDate = block.timestamp;\r\n\r\n        bytes32 dataHash = _calculateDataHash(\r\n            params.sscc,\r\n            params.producerId,\r\n            params.quantity,\r\n            productionDate,\r\n            params.farmPlotNumber,\r\n            params.productId,\r\n            params.name  // Thm tn l hng vo hm bm\r\n        );\r\n\r\n        Batch memory newBatch = Batch({\r\n            batchId: newBatchId,\r\n            name: params.name,  // Thm tn l hng\r\n            sscc: params.sscc,\r\n            producerId: params.producerId,\r\n            quantity: params.quantity,\r\n            productionDate: productionDate,\r\n            startDate: params.startDate,\r\n            endDate: params.endDate,\r\n            status: BatchStatus.PendingApproval,\r\n            productImageUrls: params.productImageUrls,\r\n            certificateImageUrl: params.certificateImageUrl,\r\n            farmPlotNumber: params.farmPlotNumber,\r\n            dataHash: dataHash,\r\n            productId: params.productId,\r\n            transportStatus: TransportStatus.NotTransported\r\n        });\r\n\r\n        _batches[newBatchId] = newBatch;\r\n        _ssccToBatchId[params.sscc] = newBatchId;\r\n\r\n        emit BatchCreated(newBatchId, params.sscc, params.producerId);\r\n        return newBatchId;\r\n    }\r\n    \r\n\r\n    function addActivityLog(\r\n        uint256 _uid,\r\n        string memory _activityName,\r\n        string memory _description,\r\n        string[] memory _imageUrls,\r\n        uint256[] memory _relatedProductIds\r\n    ) public {\r\n        ActivityLog memory newLog = ActivityLog({\r\n            timestamp: block.timestamp,\r\n            uid: _uid,\r\n            activityName: _activityName,\r\n            description: _description,\r\n            isSystemGenerated: false,\r\n            imageUrls: _imageUrls,\r\n            relatedProductIds: _relatedProductIds\r\n        });\r\n\r\n        _producerActivityLogs[_uid].push(newLog);\r\n        emit ActivityLogAdded(_uid, _activityName, _description, false, _imageUrls, _relatedProductIds);\r\n    }\r\n // Hm  ly nht k hot ng ca mt nh sn xut\r\n    function getProducerActivityLogs(uint256 _uid) public view returns (ActivityLog[] memory) {\r\n        return _producerActivityLogs[_uid];\r\n    }\r\n\r\n    \r\n    // Hm ni b  h thng t ng thm nht k\r\n    function _addSystemActivityLog(\r\n        uint256 _uid,\r\n        string memory _activityName,\r\n        string memory _description,\r\n        uint256[] memory _relatedProductIds\r\n    ) internal {\r\n        string[] memory emptyImageUrls = new string[](0);\r\n        ActivityLog memory newLog = ActivityLog({\r\n            timestamp: block.timestamp,\r\n            uid: _uid,\r\n            activityName: _activityName,\r\n            description: _description,\r\n            isSystemGenerated: true,\r\n            imageUrls: emptyImageUrls,\r\n            relatedProductIds: _relatedProductIds\r\n        });\r\n\r\n        _producerActivityLogs[_uid].push(newLog);\r\n        emit ActivityLogAdded(_uid, _activityName, _description, true, emptyImageUrls, _relatedProductIds);\r\n    }\r\n    \r\n    function _calculateDataHash(\r\n        string memory _sscc,\r\n        uint256 _producerId,\r\n        string memory _quantity,\r\n        uint256 _productionDate,\r\n        string memory _farmPlotNumber,\r\n        uint256 _productId,\r\n        string memory _name  // Thm tn l hng\r\n    ) private pure returns (bytes32) {\r\n        return keccak256(abi.encodePacked(_sscc, _producerId, _quantity, _productionDate, _farmPlotNumber, _productId, _name));\r\n    }\r\n    // hm kim tra sscc  tn ti hay cha \r\n    function ssccExists(string memory sscc) public view returns (bool) {\r\n        return _ssccToBatchId[sscc] != 0;\r\n    }\r\n\r\n    // Hm mi  ly danh sch cc l hng da trn producerId\r\n    function getBatchesByProducer(uint256 producerId) public view returns (Batch[] memory) {\r\n        uint256 count = 0;\r\n        for (uint256 i = 1; i <= _batchIdCounter; i++) {\r\n            if (_batches[i].producerId == producerId) {\r\n                count++;\r\n            }\r\n        }\r\n\r\n        Batch[] memory batches = new Batch[](count);\r\n        uint256 index = 0;\r\n        for (uint256 i = 1; i <= _batchIdCounter; i++) {\r\n            if (_batches[i].producerId == producerId) {\r\n                batches[index] = _batches[i];\r\n                index++;\r\n            }\r\n        }\r\n\r\n        return batches;\r\n    }\r\n\r\n    // hm cp nht trng thi l hng\r\nfunction updateBatchStatus(uint256 _batchId, BatchStatus _newStatus) public {\r\n    require(_batches[_batchId].batchId != 0, \"Batch does not exist\");\r\n    // Thm kim tra quyn nu cn\r\n    _batches[_batchId].status = _newStatus;\r\n    emit BatchStatusUpdated(_batchId, _newStatus);\r\n}\r\nfunction getPendingBatchesByProducer(uint256 _producerId) public view returns (Batch[] memory) {\r\n    uint256 pendingCount = 0;\r\n    for (uint256 i = 1; i <= _batchIdCounter; i++) {\r\n        if (_batches[i].producerId == _producerId && _batches[i].status == BatchStatus.PendingApproval) {\r\n            pendingCount++;\r\n        }\r\n    }\r\n\r\n    Batch[] memory pendingBatches = new Batch[](pendingCount);\r\n    uint256 index = 0;\r\n    for (uint256 i = 1; i <= _batchIdCounter; i++) {\r\n        if (_batches[i].producerId == _producerId && _batches[i].status == BatchStatus.PendingApproval) {\r\n            pendingBatches[index] = _batches[i];\r\n            index++;\r\n        }\r\n    }\r\n\r\n    return pendingBatches;\r\n}\r\n\r\nfunction getRejectedBatchesByProducer(uint256 _producerId) public view returns (Batch[] memory) {\r\n    uint256 rejectedCount = 0;\r\n    for (uint256 i = 1; i <= _batchIdCounter; i++) {\r\n        if (_batches[i].producerId == _producerId && _batches[i].status == BatchStatus.Rejected) {\r\n            rejectedCount++;\r\n        }\r\n    }\r\n\r\n    Batch[] memory rejectedBatches = new Batch[](rejectedCount);\r\n    uint256 index = 0;\r\n    for (uint256 i = 1; i <= _batchIdCounter; i++) {\r\n        if (_batches[i].producerId == _producerId && _batches[i].status == BatchStatus.Rejected) {\r\n            rejectedBatches[index] = _batches[i];\r\n            index++;\r\n        }\r\n    }\r\n\r\n    return rejectedBatches;\r\n}\r\nfunction getAllPendingBatches() public view returns (Batch[] memory) {\r\n        uint256 pendingCount = 0;\r\n        for (uint256 i = 1; i <= _batchIdCounter; i++) {\r\n            if (_batches[i].status == BatchStatus.PendingApproval) {\r\n                pendingCount++;\r\n            }\r\n        }\r\n\r\n        Batch[] memory pendingBatches = new Batch[](pendingCount);\r\n        uint256 index = 0;\r\n        for (uint256 i = 1; i <= _batchIdCounter; i++) {\r\n            if (_batches[i].status == BatchStatus.PendingApproval) {\r\n                pendingBatches[index] = _batches[i];\r\n                index++;\r\n            }\r\n        }\r\n\r\n        return pendingBatches;\r\n    }\r\n\r\nevent BatchStatusUpdated(uint256 indexed batchId, BatchStatus newStatus);\r\n\r\n// hm ly thng tin l hng\r\nfunction getBatchDetails(uint256 _batchId) public view returns (Batch memory) {\r\n    require(_batches[_batchId].batchId != 0, \"Batch does not exist\");\r\n    return _batches[_batchId];\r\n}\r\n\r\n\r\nfunction getTotalBatches() public view returns (uint256) {\r\n    return _batchIdCounter;\r\n}\r\n\r\nfunction isProducerOfBatch(uint256 _batchId, uint256 _producerId) public view returns (bool) {\r\n    return _batches[_batchId].producerId == _producerId;\r\n}\r\n\r\n// Thm hm ny vo smart contract\r\nfunction getActivityLogs(uint256 _uid) public view returns (ActivityLog[] memory) {\r\n    return _producerActivityLogs[_uid];\r\n}\r\nfunction getActivityLogCount(uint256 _uid) public view returns (uint256) {\r\n    return _producerActivityLogs[_uid].length;\r\n}\r\n\r\nmodifier onlyApprover() {\r\n    // Implement logic to check if msg.sender is an approver\r\n    _;\r\n}\r\n\r\nfunction approveBatch(uint256 _batchId) public onlyApprover {\r\n    require(_batches[_batchId].batchId != 0, \"Batch does not exist\");\r\n    require(_batches[_batchId].status == BatchStatus.PendingApproval, \"Batch is not pending approval\");\r\n\r\n    _batches[_batchId].status = BatchStatus.Approved;\r\n    _approvedBatches[_batchId] = true;\r\n\r\n    emit BatchApproved(_batchId, _batches[_batchId].producerId, _batches[_batchId].sscc);\r\n    emit BatchApprovedForQR(_batchId, _batches[_batchId].producerId, _batches[_batchId].sscc);\r\n    \r\n    // Add system activity log\r\n    uint256[] memory relatedProductIds = new uint256[](1);\r\n    relatedProductIds[0] = _batches[_batchId].productId;\r\n    _addSystemActivityLog(_batches[_batchId].producerId, \"Batch Approved\", \"Batch has been approved by the approver\", relatedProductIds);\r\n}\r\n\r\nfunction rejectBatch(uint256 _batchId) public onlyApprover {\r\n    require(_batches[_batchId].batchId != 0, \"Batch does not exist\");\r\n    require(_batches[_batchId].status == BatchStatus.PendingApproval, \"Batch is not pending approval\");\r\n\r\n    _batches[_batchId].status = BatchStatus.Rejected;\r\n\r\n    emit BatchRejected(_batchId, _batches[_batchId].producerId, _batches[_batchId].sscc);\r\n    \r\n    // Add system activity log\r\n    uint256[] memory relatedProductIds = new uint256[](1);\r\n    relatedProductIds[0] = _batches[_batchId].productId;\r\n    _addSystemActivityLog(_batches[_batchId].producerId, \"Batch Rejected\", \"Batch has been rejected by the approver\", relatedProductIds);\r\n}\r\n\r\nevent BatchRejected(uint256 indexed batchId, uint256 producerId, string sscc);\r\n\r\nfunction getApprovedBatchesByProducer(uint256 _producerId) public view returns (Batch[] memory) {\r\n    uint256 approvedCount = 0;\r\n    for (uint256 i = 1; i <= _batchIdCounter; i++) {\r\n        if (_batches[i].producerId == _producerId && _batches[i].status == BatchStatus.Approved) {\r\n            approvedCount++;\r\n        }\r\n    }\r\n\r\n    Batch[] memory approvedBatches = new Batch[](approvedCount);\r\n    uint256 index = 0;\r\n    for (uint256 i = 1; i <= _batchIdCounter; i++) {\r\n        if (_batches[i].producerId == _producerId && _batches[i].status == BatchStatus.Approved) {\r\n            approvedBatches[index] = _batches[i];\r\n            index++;\r\n        }\r\n    }\r\n\r\n    return approvedBatches;\r\n}\r\n\r\nfunction getBatchBySSCC(string memory _sscc) public view returns (Batch memory) {\r\n    uint256 batchId = _ssccToBatchId[_sscc];\r\n    require(batchId != 0, \"Batch does not exist with this SSCC\");\r\n    return _batches[batchId];\r\n}\r\n\r\nfunction isBatchApproved(uint256 _batchId) public view returns (bool) {\r\n    return _approvedBatches[_batchId];\r\n}\r\n\r\nfunction recordParticipation(uint256 _batchId, address _participantAddress, string memory _participantType, string memory _action) public {\r\n    require(_batches[_batchId].batchId != 0, \"Batch does not exist\");\r\n    _batchParticipations[_batchId].push(Participation(uint256(uint160(_participantAddress)), _participantType, block.timestamp, _action));\r\n    \r\n    if (keccak256(abi.encodePacked(_participantType)) == keccak256(abi.encodePacked(\"Transporter\"))) {\r\n        if (keccak256(abi.encodePacked(_action)) == keccak256(abi.encodePacked(\"Da van chuyen\"))) {\r\n            require(_batches[_batchId].transportStatus == TransportStatus.NotTransported, \"Batch already transported\");\r\n            _batches[_batchId].transportStatus = TransportStatus.Transported;\r\n            emit TransportStatusUpdated(_batchId, TransportStatus.Transported);\r\n        }\r\n    }\r\n    \r\n    emit ParticipationRecorded(_batchId, uint256(uint160(_participantAddress)), _participantType, _action);\r\n}\r\n\r\nfunction updateTransportStatus(uint256 _batchId) public {\r\n    require(_batches[_batchId].batchId != 0, \"Batch does not exist\");\r\n    require(_batches[_batchId].status == BatchStatus.Approved, \"Batch must be approved\");\r\n    require(_batches[_batchId].transportStatus == TransportStatus.NotTransported, \"Batch already transported\");\r\n    _batches[_batchId].transportStatus = TransportStatus.Transported;\r\n    \r\n    // Ghi nhn s tham gia ca ngi vn chuyn\r\n    recordParticipation(_batchId, msg.sender, \"Transporter\", \"Da van chuyen\");\r\n    \r\n    emit TransportStatusUpdated(_batchId, TransportStatus.Transported);\r\n}\r\n// Thm hm  kim tra trng thi vn chuyn\r\nfunction getBatchTransportStatus(uint256 _batchId) public view returns (TransportStatus) {\r\n    require(_batches[_batchId].batchId != 0, \"Batch does not exist\");\r\n    return _batches[_batchId].transportStatus;\r\n}\r\n\r\nevent TransportStatusUpdated(uint256 indexed batchId, TransportStatus newStatus);\r\n}\r\n",
  "sourcePath": "D:\\projects\\nckh-be\\blockchain\\contracts\\supplychain.sol",
  "compiler": {
    "name": "solc",
    "version": "0.8.20+commit.a1b79de6.Emscripten.clang"
  },
  "schemaVersion": "3.4.16",
  "updatedAt": "2024-09-18T08:45:28.293Z",
  "networkType": "ethereum",
  "devdoc": {
    "kind": "dev",
    "methods": {},
    "version": 1
  },
  "userdoc": {
    "kind": "user",
    "methods": {},
    "version": 1
  }
}