{
  "contractName": "TraceabilityContract",
  "abi": [
    {
      "anonymous": false,
      "inputs": [
        {
          "indexed": true,
          "internalType": "uint256",
          "name": "uid",
          "type": "uint256"
        },
        {
          "indexed": false,
          "internalType": "string",
          "name": "activityName",
          "type": "string"
        },
        {
          "indexed": false,
          "internalType": "string",
          "name": "description",
          "type": "string"
        },
        {
          "indexed": false,
          "internalType": "bool",
          "name": "isSystemGenerated",
          "type": "bool"
        },
        {
          "indexed": false,
          "internalType": "string[]",
          "name": "imageUrls",
          "type": "string[]"
        },
        {
          "indexed": false,
          "internalType": "uint256[]",
          "name": "relatedProductIds",
          "type": "uint256[]"
        }
      ],
      "name": "ActivityLogAdded",
      "type": "event"
    },
    {
      "anonymous": false,
      "inputs": [
        {
          "indexed": true,
          "internalType": "uint256",
          "name": "batchId",
          "type": "uint256"
        },
        {
          "indexed": true,
          "internalType": "uint256",
          "name": "producerId",
          "type": "uint256"
        },
        {
          "indexed": false,
          "internalType": "string",
          "name": "sscc",
          "type": "string"
        }
      ],
      "name": "BatchApproved",
      "type": "event"
    },
    {
      "anonymous": false,
      "inputs": [
        {
          "indexed": true,
          "internalType": "uint256",
          "name": "batchId",
          "type": "uint256"
        },
        {
          "indexed": true,
          "internalType": "uint256",
          "name": "producerId",
          "type": "uint256"
        },
        {
          "indexed": false,
          "internalType": "string",
          "name": "sscc",
          "type": "string"
        }
      ],
      "name": "BatchApprovedForQR",
      "type": "event"
    },
    {
      "anonymous": false,
      "inputs": [
        {
          "indexed": true,
          "internalType": "uint256",
          "name": "batchId",
          "type": "uint256"
        },
        {
          "indexed": false,
          "internalType": "string",
          "name": "sscc",
          "type": "string"
        },
        {
          "indexed": false,
          "internalType": "uint256",
          "name": "producerId",
          "type": "uint256"
        }
      ],
      "name": "BatchCreated",
      "type": "event"
    },
    {
      "anonymous": false,
      "inputs": [
        {
          "indexed": true,
          "internalType": "uint256",
          "name": "batchId",
          "type": "uint256"
        },
        {
          "indexed": false,
          "internalType": "uint256",
          "name": "producerId",
          "type": "uint256"
        },
        {
          "indexed": false,
          "internalType": "string",
          "name": "sscc",
          "type": "string"
        }
      ],
      "name": "BatchRejected",
      "type": "event"
    },
    {
      "anonymous": false,
      "inputs": [
        {
          "indexed": true,
          "internalType": "uint256",
          "name": "batchId",
          "type": "uint256"
        },
        {
          "indexed": false,
          "internalType": "enum TraceabilityContract.BatchStatus",
          "name": "newStatus",
          "type": "uint8"
        }
      ],
      "name": "BatchStatusUpdated",
      "type": "event"
    },
    {
      "inputs": [
        {
          "internalType": "string",
          "name": "_name",
          "type": "string"
        },
        {
          "internalType": "uint256",
          "name": "_producerId",
          "type": "uint256"
        },
        {
          "internalType": "string",
          "name": "_quantity",
          "type": "string"
        },
        {
          "internalType": "string[]",
          "name": "_productImageUrls",
          "type": "string[]"
        },
        {
          "internalType": "string",
          "name": "_certificateImageUrl",
          "type": "string"
        },
        {
          "internalType": "string",
          "name": "_farmPlotNumber",
          "type": "string"
        },
        {
          "internalType": "uint256",
          "name": "_productId",
          "type": "uint256"
        },
        {
          "internalType": "uint256",
          "name": "_startDate",
          "type": "uint256"
        },
        {
          "internalType": "uint256",
          "name": "_endDate",
          "type": "uint256"
        }
      ],
      "name": "createBatch",
      "outputs": [
        {
          "internalType": "uint256",
          "name": "",
          "type": "uint256"
        }
      ],
      "stateMutability": "nonpayable",
      "type": "function"
    },
    {
      "inputs": [
        {
          "internalType": "uint256",
          "name": "_uid",
          "type": "uint256"
        },
        {
          "internalType": "string",
          "name": "_activityName",
          "type": "string"
        },
        {
          "internalType": "string",
          "name": "_description",
          "type": "string"
        },
        {
          "internalType": "string[]",
          "name": "_imageUrls",
          "type": "string[]"
        },
        {
          "internalType": "uint256[]",
          "name": "_relatedProductIds",
          "type": "uint256[]"
        }
      ],
      "name": "addActivityLog",
      "outputs": [],
      "stateMutability": "nonpayable",
      "type": "function"
    },
    {
      "inputs": [
        {
          "internalType": "uint256",
          "name": "_uid",
          "type": "uint256"
        }
      ],
      "name": "getProducerActivityLogs",
      "outputs": [
        {
          "components": [
            {
              "internalType": "uint256",
              "name": "timestamp",
              "type": "uint256"
            },
            {
              "internalType": "uint256",
              "name": "uid",
              "type": "uint256"
            },
            {
              "internalType": "string",
              "name": "activityName",
              "type": "string"
            },
            {
              "internalType": "string",
              "name": "description",
              "type": "string"
            },
            {
              "internalType": "bool",
              "name": "isSystemGenerated",
              "type": "bool"
            },
            {
              "internalType": "string[]",
              "name": "imageUrls",
              "type": "string[]"
            },
            {
              "internalType": "uint256[]",
              "name": "relatedProductIds",
              "type": "uint256[]"
            }
          ],
          "internalType": "struct TraceabilityContract.ActivityLog[]",
          "name": "",
          "type": "tuple[]"
        }
      ],
      "stateMutability": "view",
      "type": "function",
      "constant": true
    },
    {
      "inputs": [
        {
          "internalType": "string",
          "name": "sscc",
          "type": "string"
        }
      ],
      "name": "ssccExists",
      "outputs": [
        {
          "internalType": "bool",
          "name": "",
          "type": "bool"
        }
      ],
      "stateMutability": "view",
      "type": "function",
      "constant": true
    },
    {
      "inputs": [
        {
          "internalType": "uint256",
          "name": "producerId",
          "type": "uint256"
        }
      ],
      "name": "getBatchesByProducer",
      "outputs": [
        {
          "components": [
            {
              "internalType": "uint256",
              "name": "batchId",
              "type": "uint256"
            },
            {
              "internalType": "string",
              "name": "name",
              "type": "string"
            },
            {
              "internalType": "string",
              "name": "sscc",
              "type": "string"
            },
            {
              "internalType": "uint256",
              "name": "producerId",
              "type": "uint256"
            },
            {
              "internalType": "string",
              "name": "quantity",
              "type": "string"
            },
            {
              "internalType": "uint256",
              "name": "productionDate",
              "type": "uint256"
            },
            {
              "internalType": "uint256",
              "name": "startDate",
              "type": "uint256"
            },
            {
              "internalType": "uint256",
              "name": "endDate",
              "type": "uint256"
            },
            {
              "internalType": "enum TraceabilityContract.BatchStatus",
              "name": "status",
              "type": "uint8"
            },
            {
              "internalType": "string[]",
              "name": "productImageUrls",
              "type": "string[]"
            },
            {
              "internalType": "string",
              "name": "certificateImageUrl",
              "type": "string"
            },
            {
              "internalType": "string",
              "name": "farmPlotNumber",
              "type": "string"
            },
            {
              "internalType": "bytes32",
              "name": "dataHash",
              "type": "bytes32"
            },
            {
              "internalType": "uint256",
              "name": "productId",
              "type": "uint256"
            }
          ],
          "internalType": "struct TraceabilityContract.Batch[]",
          "name": "",
          "type": "tuple[]"
        }
      ],
      "stateMutability": "view",
      "type": "function",
      "constant": true
    },
    {
      "inputs": [
        {
          "internalType": "uint256",
          "name": "_batchId",
          "type": "uint256"
        },
        {
          "internalType": "enum TraceabilityContract.BatchStatus",
          "name": "_newStatus",
          "type": "uint8"
        }
      ],
      "name": "updateBatchStatus",
      "outputs": [],
      "stateMutability": "nonpayable",
      "type": "function"
    },
    {
      "inputs": [
        {
          "internalType": "uint256",
          "name": "_producerId",
          "type": "uint256"
        }
      ],
      "name": "getPendingBatchesByProducer",
      "outputs": [
        {
          "components": [
            {
              "internalType": "uint256",
              "name": "batchId",
              "type": "uint256"
            },
            {
              "internalType": "string",
              "name": "name",
              "type": "string"
            },
            {
              "internalType": "string",
              "name": "sscc",
              "type": "string"
            },
            {
              "internalType": "uint256",
              "name": "producerId",
              "type": "uint256"
            },
            {
              "internalType": "string",
              "name": "quantity",
              "type": "string"
            },
            {
              "internalType": "uint256",
              "name": "productionDate",
              "type": "uint256"
            },
            {
              "internalType": "uint256",
              "name": "startDate",
              "type": "uint256"
            },
            {
              "internalType": "uint256",
              "name": "endDate",
              "type": "uint256"
            },
            {
              "internalType": "enum TraceabilityContract.BatchStatus",
              "name": "status",
              "type": "uint8"
            },
            {
              "internalType": "string[]",
              "name": "productImageUrls",
              "type": "string[]"
            },
            {
              "internalType": "string",
              "name": "certificateImageUrl",
              "type": "string"
            },
            {
              "internalType": "string",
              "name": "farmPlotNumber",
              "type": "string"
            },
            {
              "internalType": "bytes32",
              "name": "dataHash",
              "type": "bytes32"
            },
            {
              "internalType": "uint256",
              "name": "productId",
              "type": "uint256"
            }
          ],
          "internalType": "struct TraceabilityContract.Batch[]",
          "name": "",
          "type": "tuple[]"
        }
      ],
      "stateMutability": "view",
      "type": "function",
      "constant": true
    },
    {
      "inputs": [
        {
          "internalType": "uint256",
          "name": "_producerId",
          "type": "uint256"
        }
      ],
      "name": "getRejectedBatchesByProducer",
      "outputs": [
        {
          "components": [
            {
              "internalType": "uint256",
              "name": "batchId",
              "type": "uint256"
            },
            {
              "internalType": "string",
              "name": "name",
              "type": "string"
            },
            {
              "internalType": "string",
              "name": "sscc",
              "type": "string"
            },
            {
              "internalType": "uint256",
              "name": "producerId",
              "type": "uint256"
            },
            {
              "internalType": "string",
              "name": "quantity",
              "type": "string"
            },
            {
              "internalType": "uint256",
              "name": "productionDate",
              "type": "uint256"
            },
            {
              "internalType": "uint256",
              "name": "startDate",
              "type": "uint256"
            },
            {
              "internalType": "uint256",
              "name": "endDate",
              "type": "uint256"
            },
            {
              "internalType": "enum TraceabilityContract.BatchStatus",
              "name": "status",
              "type": "uint8"
            },
            {
              "internalType": "string[]",
              "name": "productImageUrls",
              "type": "string[]"
            },
            {
              "internalType": "string",
              "name": "certificateImageUrl",
              "type": "string"
            },
            {
              "internalType": "string",
              "name": "farmPlotNumber",
              "type": "string"
            },
            {
              "internalType": "bytes32",
              "name": "dataHash",
              "type": "bytes32"
            },
            {
              "internalType": "uint256",
              "name": "productId",
              "type": "uint256"
            }
          ],
          "internalType": "struct TraceabilityContract.Batch[]",
          "name": "",
          "type": "tuple[]"
        }
      ],
      "stateMutability": "view",
      "type": "function",
      "constant": true
    },
    {
      "inputs": [],
      "name": "getAllPendingBatches",
      "outputs": [
        {
          "components": [
            {
              "internalType": "uint256",
              "name": "batchId",
              "type": "uint256"
            },
            {
              "internalType": "string",
              "name": "name",
              "type": "string"
            },
            {
              "internalType": "string",
              "name": "sscc",
              "type": "string"
            },
            {
              "internalType": "uint256",
              "name": "producerId",
              "type": "uint256"
            },
            {
              "internalType": "string",
              "name": "quantity",
              "type": "string"
            },
            {
              "internalType": "uint256",
              "name": "productionDate",
              "type": "uint256"
            },
            {
              "internalType": "uint256",
              "name": "startDate",
              "type": "uint256"
            },
            {
              "internalType": "uint256",
              "name": "endDate",
              "type": "uint256"
            },
            {
              "internalType": "enum TraceabilityContract.BatchStatus",
              "name": "status",
              "type": "uint8"
            },
            {
              "internalType": "string[]",
              "name": "productImageUrls",
              "type": "string[]"
            },
            {
              "internalType": "string",
              "name": "certificateImageUrl",
              "type": "string"
            },
            {
              "internalType": "string",
              "name": "farmPlotNumber",
              "type": "string"
            },
            {
              "internalType": "bytes32",
              "name": "dataHash",
              "type": "bytes32"
            },
            {
              "internalType": "uint256",
              "name": "productId",
              "type": "uint256"
            }
          ],
          "internalType": "struct TraceabilityContract.Batch[]",
          "name": "",
          "type": "tuple[]"
        }
      ],
      "stateMutability": "view",
      "type": "function",
      "constant": true
    },
    {
      "inputs": [
        {
          "internalType": "uint256",
          "name": "_batchId",
          "type": "uint256"
        }
      ],
      "name": "getBatchDetails",
      "outputs": [
        {
          "components": [
            {
              "internalType": "uint256",
              "name": "batchId",
              "type": "uint256"
            },
            {
              "internalType": "string",
              "name": "name",
              "type": "string"
            },
            {
              "internalType": "string",
              "name": "sscc",
              "type": "string"
            },
            {
              "internalType": "uint256",
              "name": "producerId",
              "type": "uint256"
            },
            {
              "internalType": "string",
              "name": "quantity",
              "type": "string"
            },
            {
              "internalType": "uint256",
              "name": "productionDate",
              "type": "uint256"
            },
            {
              "internalType": "uint256",
              "name": "startDate",
              "type": "uint256"
            },
            {
              "internalType": "uint256",
              "name": "endDate",
              "type": "uint256"
            },
            {
              "internalType": "enum TraceabilityContract.BatchStatus",
              "name": "status",
              "type": "uint8"
            },
            {
              "internalType": "string[]",
              "name": "productImageUrls",
              "type": "string[]"
            },
            {
              "internalType": "string",
              "name": "certificateImageUrl",
              "type": "string"
            },
            {
              "internalType": "string",
              "name": "farmPlotNumber",
              "type": "string"
            },
            {
              "internalType": "bytes32",
              "name": "dataHash",
              "type": "bytes32"
            },
            {
              "internalType": "uint256",
              "name": "productId",
              "type": "uint256"
            }
          ],
          "internalType": "struct TraceabilityContract.Batch",
          "name": "",
          "type": "tuple"
        }
      ],
      "stateMutability": "view",
      "type": "function",
      "constant": true
    },
    {
      "inputs": [
        {
          "internalType": "string",
          "name": "_sscc",
          "type": "string"
        }
      ],
      "name": "getBatchBySSCC",
      "outputs": [
        {
          "components": [
            {
              "internalType": "uint256",
              "name": "batchId",
              "type": "uint256"
            },
            {
              "internalType": "string",
              "name": "name",
              "type": "string"
            },
            {
              "internalType": "string",
              "name": "sscc",
              "type": "string"
            },
            {
              "internalType": "uint256",
              "name": "producerId",
              "type": "uint256"
            },
            {
              "internalType": "string",
              "name": "quantity",
              "type": "string"
            },
            {
              "internalType": "uint256",
              "name": "productionDate",
              "type": "uint256"
            },
            {
              "internalType": "uint256",
              "name": "startDate",
              "type": "uint256"
            },
            {
              "internalType": "uint256",
              "name": "endDate",
              "type": "uint256"
            },
            {
              "internalType": "enum TraceabilityContract.BatchStatus",
              "name": "status",
              "type": "uint8"
            },
            {
              "internalType": "string[]",
              "name": "productImageUrls",
              "type": "string[]"
            },
            {
              "internalType": "string",
              "name": "certificateImageUrl",
              "type": "string"
            },
            {
              "internalType": "string",
              "name": "farmPlotNumber",
              "type": "string"
            },
            {
              "internalType": "bytes32",
              "name": "dataHash",
              "type": "bytes32"
            },
            {
              "internalType": "uint256",
              "name": "productId",
              "type": "uint256"
            }
          ],
          "internalType": "struct TraceabilityContract.Batch",
          "name": "",
          "type": "tuple"
        }
      ],
      "stateMutability": "view",
      "type": "function",
      "constant": true
    },
    {
      "inputs": [],
      "name": "getTotalBatches",
      "outputs": [
        {
          "internalType": "uint256",
          "name": "",
          "type": "uint256"
        }
      ],
      "stateMutability": "view",
      "type": "function",
      "constant": true
    },
    {
      "inputs": [
        {
          "internalType": "uint256",
          "name": "_batchId",
          "type": "uint256"
        },
        {
          "internalType": "uint256",
          "name": "_producerId",
          "type": "uint256"
        }
      ],
      "name": "isProducerOfBatch",
      "outputs": [
        {
          "internalType": "bool",
          "name": "",
          "type": "bool"
        }
      ],
      "stateMutability": "view",
      "type": "function",
      "constant": true
    },
    {
      "inputs": [
        {
          "internalType": "uint256",
          "name": "_uid",
          "type": "uint256"
        }
      ],
      "name": "getActivityLogs",
      "outputs": [
        {
          "components": [
            {
              "internalType": "uint256",
              "name": "timestamp",
              "type": "uint256"
            },
            {
              "internalType": "uint256",
              "name": "uid",
              "type": "uint256"
            },
            {
              "internalType": "string",
              "name": "activityName",
              "type": "string"
            },
            {
              "internalType": "string",
              "name": "description",
              "type": "string"
            },
            {
              "internalType": "bool",
              "name": "isSystemGenerated",
              "type": "bool"
            },
            {
              "internalType": "string[]",
              "name": "imageUrls",
              "type": "string[]"
            },
            {
              "internalType": "uint256[]",
              "name": "relatedProductIds",
              "type": "uint256[]"
            }
          ],
          "internalType": "struct TraceabilityContract.ActivityLog[]",
          "name": "",
          "type": "tuple[]"
        }
      ],
      "stateMutability": "view",
      "type": "function",
      "constant": true
    },
    {
      "inputs": [
        {
          "internalType": "uint256",
          "name": "_uid",
          "type": "uint256"
        }
      ],
      "name": "getActivityLogCount",
      "outputs": [
        {
          "internalType": "uint256",
          "name": "",
          "type": "uint256"
        }
      ],
      "stateMutability": "view",
      "type": "function",
      "constant": true
    },
    {
      "inputs": [
        {
          "internalType": "uint256",
          "name": "_batchId",
          "type": "uint256"
        }
      ],
      "name": "approveBatch",
      "outputs": [],
      "stateMutability": "nonpayable",
      "type": "function"
    },
    {
      "inputs": [
        {
          "internalType": "uint256",
          "name": "_batchId",
          "type": "uint256"
        }
      ],
      "name": "rejectBatch",
      "outputs": [],
      "stateMutability": "nonpayable",
      "type": "function"
    },
    {
      "inputs": [
        {
          "internalType": "uint256",
          "name": "_producerId",
          "type": "uint256"
        }
      ],
      "name": "getApprovedBatchesByProducer",
      "outputs": [
        {
          "components": [
            {
              "internalType": "uint256",
              "name": "batchId",
              "type": "uint256"
            },
            {
              "internalType": "string",
              "name": "name",
              "type": "string"
            },
            {
              "internalType": "string",
              "name": "sscc",
              "type": "string"
            },
            {
              "internalType": "uint256",
              "name": "producerId",
              "type": "uint256"
            },
            {
              "internalType": "string",
              "name": "quantity",
              "type": "string"
            },
            {
              "internalType": "uint256",
              "name": "productionDate",
              "type": "uint256"
            },
            {
              "internalType": "uint256",
              "name": "startDate",
              "type": "uint256"
            },
            {
              "internalType": "uint256",
              "name": "endDate",
              "type": "uint256"
            },
            {
              "internalType": "enum TraceabilityContract.BatchStatus",
              "name": "status",
              "type": "uint8"
            },
            {
              "internalType": "string[]",
              "name": "productImageUrls",
              "type": "string[]"
            },
            {
              "internalType": "string",
              "name": "certificateImageUrl",
              "type": "string"
            },
            {
              "internalType": "string",
              "name": "farmPlotNumber",
              "type": "string"
            },
            {
              "internalType": "bytes32",
              "name": "dataHash",
              "type": "bytes32"
            },
            {
              "internalType": "uint256",
              "name": "productId",
              "type": "uint256"
            }
          ],
          "internalType": "struct TraceabilityContract.Batch[]",
          "name": "",
          "type": "tuple[]"
        }
      ],
      "stateMutability": "view",
      "type": "function",
      "constant": true
    },
    {
      "inputs": [
        {
          "internalType": "uint256",
          "name": "_batchId",
          "type": "uint256"
        }
      ],
      "name": "isBatchApproved",
      "outputs": [
        {
          "internalType": "bool",
          "name": "",
          "type": "bool"
        }
      ],
      "stateMutability": "view",
      "type": "function",
      "constant": true
    }
  ],
  "bytecode": "0x608060405234801561001057600080fd5b50614ce4806100206000396000f3fe608060405234801561001057600080fd5b50600436106101215760003560e01c8063838b1da3116100ad578063d9860bfc11610071578063d9860bfc1461028e578063dd235d9d146102a1578063e561dddc146102b4578063f7f097f4146102bc578063f9b8da0e146102cf57600080fd5b8063838b1da31461021557806385bdd03f146102285780639d47dcc014610248578063bf193ffa14610268578063d043b8431461027b57600080fd5b806336c701e1116100f457806336c701e1146101b157806347e2f863146101d257806352c88f36146101e55780635aa825aa146101fa57806380e32d451461020257600080fd5b806304008078146101265780630d82dcf41461014e5780630e6e369c146101715780632db53c9d14610191575b600080fd5b610139610134366004614083565b6102e2565b60405190151581526020015b60405180910390f35b61013961015c3660046140bf565b60009081526004602052604090205460ff1690565b61018461017f3660046140bf565b61030c565b60405161014591906141bb565b6101a461019f3660046140bf565b6105f4565b60405161014591906143d9565b6101c46101bf3660046144ed565b610ba9565b604051908152602001610145565b6101a46101e03660046140bf565b610c1a565b6101f86101f33660046145e5565b6111c1565b005b6101a4611269565b6101a46102103660046140bf565b6117df565b6101f86102233660046140bf565b611d28565b6101c46102363660046140bf565b60009081526003602052604090205490565b61025b6102563660046140bf565b611ee1565b6040516101459190614619565b6101f8610276366004614633565b612361565b6101a46102893660046140bf565b61248e565b61025b61029c366004614083565b612a39565b6101f86102af3660046140bf565b612f0c565b6000546101c4565b6101846102ca3660046140bf565b613129565b6101396102dd36600461473f565b613406565b60006002826040516102f49190614761565b90815260405190819003602001902054151592915050565b606060036000838152602001908152602001600020805480602002602001604051908101604052809291908181526020016000905b828210156105e957838290600052602060002090600702016040518060e001604052908160008201548152602001600182015481526020016002820180546103889061477d565b80601f01602080910402602001604051908101604052809291908181526020018280546103b49061477d565b80156104015780601f106103d657610100808354040283529160200191610401565b820191906000526020600020905b8154815290600101906020018083116103e457829003601f168201915b5050505050815260200160038201805461041a9061477d565b80601f01602080910402602001604051908101604052809291908181526020018280546104469061477d565b80156104935780601f1061046857610100808354040283529160200191610493565b820191906000526020600020905b81548152906001019060200180831161047657829003601f168201915b5050509183525050600482015460ff161515602080830191909152600583018054604080518285028101850182528281529401939260009084015b8282101561057a5783829060005260206000200180546104ed9061477d565b80601f01602080910402602001604051908101604052809291908181526020018280546105199061477d565b80156105665780601f1061053b57610100808354040283529160200191610566565b820191906000526020600020905b81548152906001019060200180831161054957829003601f168201915b5050505050815260200190600101906104ce565b505050508152602001600682018054806020026020016040519081016040528092919081815260200182805480156105d157602002820191906000526020600020905b8154815260200190600101908083116105bd575b50505050508152505081526020019060010190610341565b505050509050919050565b6060600060015b600054811161066e57600081815260016020526040902060030154841480156106495750600260008281526001602052604090206008015460ff1660028111156106475761064761429a565b145b1561065c5781610658816147cd565b9250505b80610666816147cd565b9150506105fb565b506000816001600160401b0381111561068957610689613fce565b6040519080825280602002602001820160405280156106c257816020015b6106af613e3f565b8152602001906001900390816106a75790505b509050600060015b6000548111610b9f57600081815260016020526040902060030154861480156107185750600260008281526001602052604090206008015460ff1660028111156107165761071661429a565b145b15610b8d5760008181526001602081815260409283902083516101c081019094528054845291820180549184019161074f9061477d565b80601f016020809104026020016040519081016040528092919081815260200182805461077b9061477d565b80156107c85780601f1061079d576101008083540402835291602001916107c8565b820191906000526020600020905b8154815290600101906020018083116107ab57829003601f168201915b505050505081526020016002820180546107e19061477d565b80601f016020809104026020016040519081016040528092919081815260200182805461080d9061477d565b801561085a5780601f1061082f5761010080835404028352916020019161085a565b820191906000526020600020905b81548152906001019060200180831161083d57829003601f168201915b505050505081526020016003820154815260200160048201805461087d9061477d565b80601f01602080910402602001604051908101604052809291908181526020018280546108a99061477d565b80156108f65780601f106108cb576101008083540402835291602001916108f6565b820191906000526020600020905b8154815290600101906020018083116108d957829003601f168201915b5050509183525050600582015460208201526006820154604082015260078201546060820152600882015460809091019060ff16600281111561093b5761093b61429a565b600281111561094c5761094c61429a565b815260200160098201805480602002602001604051908101604052809291908181526020016000905b82821015610a215783829060005260206000200180546109949061477d565b80601f01602080910402602001604051908101604052809291908181526020018280546109c09061477d565b8015610a0d5780601f106109e257610100808354040283529160200191610a0d565b820191906000526020600020905b8154815290600101906020018083116109f057829003601f168201915b505050505081526020019060010190610975565b505050508152602001600a82018054610a399061477d565b80601f0160208091040260200160405190810160405280929190818152602001828054610a659061477d565b8015610ab25780601f10610a8757610100808354040283529160200191610ab2565b820191906000526020600020905b815481529060010190602001808311610a9557829003601f168201915b50505050508152602001600b82018054610acb9061477d565b80601f0160208091040260200160405190810160405280929190818152602001828054610af79061477d565b8015610b445780601f10610b1957610100808354040283529160200191610b44565b820191906000526020600020905b815481529060010190602001808311610b2757829003601f168201915b50505050508152602001600c8201548152602001600d82015481525050838381518110610b7357610b736147e6565b60200260200101819052508180610b89906147cd565b9250505b80610b97816147cd565b9150506106ca565b5090949350505050565b600080610bb58a613421565b905060006040518061014001604052808d81526020018381526020018c81526020018b81526020018a8152602001898152602001888152602001878152602001868152602001858152509050610c0a816134f4565b9c9b505050505050505050505050565b6060600060015b6000548111610c925760008181526001602052604090206003015484148015610c6d575060008181526001602052604081206008015460ff166002811115610c6b57610c6b61429a565b145b15610c805781610c7c816147cd565b9250505b80610c8a816147cd565b915050610c21565b506000816001600160401b03811115610cad57610cad613fce565b604051908082528060200260200182016040528015610ce657816020015b610cd3613e3f565b815260200190600190039081610ccb5790505b509050600060015b6000548111610b9f5760008181526001602052604090206003015486148015610d3a575060008181526001602052604081206008015460ff166002811115610d3857610d3861429a565b145b156111af5760008181526001602081815260409283902083516101c0810190945280548452918201805491840191610d719061477d565b80601f0160208091040260200160405190810160405280929190818152602001828054610d9d9061477d565b8015610dea5780601f10610dbf57610100808354040283529160200191610dea565b820191906000526020600020905b815481529060010190602001808311610dcd57829003601f168201915b50505050508152602001600282018054610e039061477d565b80601f0160208091040260200160405190810160405280929190818152602001828054610e2f9061477d565b8015610e7c5780601f10610e5157610100808354040283529160200191610e7c565b820191906000526020600020905b815481529060010190602001808311610e5f57829003601f168201915b5050505050815260200160038201548152602001600482018054610e9f9061477d565b80601f0160208091040260200160405190810160405280929190818152602001828054610ecb9061477d565b8015610f185780601f10610eed57610100808354040283529160200191610f18565b820191906000526020600020905b815481529060010190602001808311610efb57829003601f168201915b5050509183525050600582015460208201526006820154604082015260078201546060820152600882015460809091019060ff166002811115610f5d57610f5d61429a565b6002811115610f6e57610f6e61429a565b815260200160098201805480602002602001604051908101604052809291908181526020016000905b82821015611043578382906000526020600020018054610fb69061477d565b80601f0160208091040260200160405190810160405280929190818152602001828054610fe29061477d565b801561102f5780601f106110045761010080835404028352916020019161102f565b820191906000526020600020905b81548152906001019060200180831161101257829003601f168201915b505050505081526020019060010190610f97565b505050508152602001600a8201805461105b9061477d565b80601f01602080910402602001604051908101604052809291908181526020018280546110879061477d565b80156110d45780601f106110a9576101008083540402835291602001916110d4565b820191906000526020600020905b8154815290600101906020018083116110b757829003601f168201915b50505050508152602001600b820180546110ed9061477d565b80601f01602080910402602001604051908101604052809291908181526020018280546111199061477d565b80156111665780601f1061113b57610100808354040283529160200191611166565b820191906000526020600020905b81548152906001019060200180831161114957829003601f168201915b50505050508152602001600c8201548152602001600d82015481525050838381518110611195576111956147e6565b602002602001018190525081806111ab906147cd565b9250505b806111b9816147cd565b915050610cee565b60008281526001602052604081205490036111f75760405162461bcd60e51b81526004016111ee906147fc565b60405180910390fd5b60008281526001602081905260409091206008018054839260ff19909116908360028111156112285761122861429a565b0217905550817fcf4d4f3dcd5294f4d19269f489155c2187699f4a9fb9004b6a303752b00b282f8260405161125d919061482a565b60405180910390a25050565b6060600060015b60005481116112c45760008181526001602052604081206008015460ff16600281111561129f5761129f61429a565b036112b257816112ae816147cd565b9250505b806112bc816147cd565b915050611270565b506000816001600160401b038111156112df576112df613fce565b60405190808252806020026020018201604052801561131857816020015b611305613e3f565b8152602001906001900390816112fd5790505b509050600060015b60005481116117d65760008181526001602052604081206008015460ff16600281111561134f5761134f61429a565b036117c45760008181526001602081815260409283902083516101c08101909452805484529182018054918401916113869061477d565b80601f01602080910402602001604051908101604052809291908181526020018280546113b29061477d565b80156113ff5780601f106113d4576101008083540402835291602001916113ff565b820191906000526020600020905b8154815290600101906020018083116113e257829003601f168201915b505050505081526020016002820180546114189061477d565b80601f01602080910402602001604051908101604052809291908181526020018280546114449061477d565b80156114915780601f1061146657610100808354040283529160200191611491565b820191906000526020600020905b81548152906001019060200180831161147457829003601f168201915b50505050508152602001600382015481526020016004820180546114b49061477d565b80601f01602080910402602001604051908101604052809291908181526020018280546114e09061477d565b801561152d5780601f106115025761010080835404028352916020019161152d565b820191906000526020600020905b81548152906001019060200180831161151057829003601f168201915b5050509183525050600582015460208201526006820154604082015260078201546060820152600882015460809091019060ff1660028111156115725761157261429a565b60028111156115835761158361429a565b815260200160098201805480602002602001604051908101604052809291908181526020016000905b828210156116585783829060005260206000200180546115cb9061477d565b80601f01602080910402602001604051908101604052809291908181526020018280546115f79061477d565b80156116445780601f1061161957610100808354040283529160200191611644565b820191906000526020600020905b81548152906001019060200180831161162757829003601f168201915b5050505050815260200190600101906115ac565b505050508152602001600a820180546116709061477d565b80601f016020809104026020016040519081016040528092919081815260200182805461169c9061477d565b80156116e95780601f106116be576101008083540402835291602001916116e9565b820191906000526020600020905b8154815290600101906020018083116116cc57829003601f168201915b50505050508152602001600b820180546117029061477d565b80601f016020809104026020016040519081016040528092919081815260200182805461172e9061477d565b801561177b5780601f106117505761010080835404028352916020019161177b565b820191906000526020600020905b81548152906001019060200180831161175e57829003601f168201915b50505050508152602001600c8201548152602001600d820154815250508383815181106117aa576117aa6147e6565b602002602001018190525081806117c0906147cd565b9250505b806117ce816147cd565b915050611320565b50909392505050565b6060600060015b6000548111611828576000818152600160205260409020600301548490036118165781611812816147cd565b9250505b80611820816147cd565b9150506117e6565b506000816001600160401b0381111561184357611843613fce565b60405190808252806020026020018201604052801561187c57816020015b611869613e3f565b8152602001906001900390816118615790505b509050600060015b6000548111610b9f57600081815260016020526040902060030154869003611d165760008181526001602081815260409283902083516101c08101909452805484529182018054918401916118d89061477d565b80601f01602080910402602001604051908101604052809291908181526020018280546119049061477d565b80156119515780601f1061192657610100808354040283529160200191611951565b820191906000526020600020905b81548152906001019060200180831161193457829003601f168201915b5050505050815260200160028201805461196a9061477d565b80601f01602080910402602001604051908101604052809291908181526020018280546119969061477d565b80156119e35780601f106119b8576101008083540402835291602001916119e3565b820191906000526020600020905b8154815290600101906020018083116119c657829003601f168201915b5050505050815260200160038201548152602001600482018054611a069061477d565b80601f0160208091040260200160405190810160405280929190818152602001828054611a329061477d565b8015611a7f5780601f10611a5457610100808354040283529160200191611a7f565b820191906000526020600020905b815481529060010190602001808311611a6257829003601f168201915b5050509183525050600582015460208201526006820154604082015260078201546060820152600882015460809091019060ff166002811115611ac457611ac461429a565b6002811115611ad557611ad561429a565b815260200160098201805480602002602001604051908101604052809291908181526020016000905b82821015611baa578382906000526020600020018054611b1d9061477d565b80601f0160208091040260200160405190810160405280929190818152602001828054611b499061477d565b8015611b965780601f10611b6b57610100808354040283529160200191611b96565b820191906000526020600020905b815481529060010190602001808311611b7957829003601f168201915b505050505081526020019060010190611afe565b505050508152602001600a82018054611bc29061477d565b80601f0160208091040260200160405190810160405280929190818152602001828054611bee9061477d565b8015611c3b5780601f10611c1057610100808354040283529160200191611c3b565b820191906000526020600020905b815481529060010190602001808311611c1e57829003601f168201915b50505050508152602001600b82018054611c549061477d565b80601f0160208091040260200160405190810160405280929190818152602001828054611c809061477d565b8015611ccd5780601f10611ca257610100808354040283529160200191611ccd565b820191906000526020600020905b815481529060010190602001808311611cb057829003601f168201915b50505050508152602001600c8201548152602001600d82015481525050838381518110611cfc57611cfc6147e6565b60200260200101819052508180611d12906147cd565b9250505b80611d20816147cd565b915050611884565b6000818152600160205260408120549003611d555760405162461bcd60e51b81526004016111ee906147fc565b60008181526001602052604081206008015460ff166002811115611d7b57611d7b61429a565b14611dc85760405162461bcd60e51b815260206004820152601d60248201527f4261746368206973206e6f742070656e64696e6720617070726f76616c00000060448201526064016111ee565b6000818152600160205260409081902060088101805460ff191660029081179091556003820154925184937ffd30c1d70626cdbca41a738198079b1d57c2a7d36d52b79ae4b4bcc980506f7693611e239391929101906148b5565b60405180910390a2604080516001808252818301909252600091602080830190803683375050506000838152600160205260408120600d0154825192935091839190611e7157611e716147e6565b602002602001018181525050611edd60016000848152602001908152602001600020600301546040518060400160405280600e81526020016d10985d18da0814995a9958dd195960921b815250604051806060016040528060278152602001614c616027913984613adc565b5050565b611ee9613e3f565b6000828152600160205260408120549003611f165760405162461bcd60e51b81526004016111ee906147fc565b60008281526001602081815260409283902083516101c0810190945280548452918201805491840191611f489061477d565b80601f0160208091040260200160405190810160405280929190818152602001828054611f749061477d565b8015611fc15780601f10611f9657610100808354040283529160200191611fc1565b820191906000526020600020905b815481529060010190602001808311611fa457829003601f168201915b50505050508152602001600282018054611fda9061477d565b80601f01602080910402602001604051908101604052809291908181526020018280546120069061477d565b80156120535780601f1061202857610100808354040283529160200191612053565b820191906000526020600020905b81548152906001019060200180831161203657829003601f168201915b50505050508152602001600382015481526020016004820180546120769061477d565b80601f01602080910402602001604051908101604052809291908181526020018280546120a29061477d565b80156120ef5780601f106120c4576101008083540402835291602001916120ef565b820191906000526020600020905b8154815290600101906020018083116120d257829003601f168201915b5050509183525050600582015460208201526006820154604082015260078201546060820152600882015460809091019060ff1660028111156121345761213461429a565b60028111156121455761214561429a565b815260200160098201805480602002602001604051908101604052809291908181526020016000905b8282101561221a57838290600052602060002001805461218d9061477d565b80601f01602080910402602001604051908101604052809291908181526020018280546121b99061477d565b80156122065780601f106121db57610100808354040283529160200191612206565b820191906000526020600020905b8154815290600101906020018083116121e957829003601f168201915b50505050508152602001906001019061216e565b505050508152602001600a820180546122329061477d565b80601f016020809104026020016040519081016040528092919081815260200182805461225e9061477d565b80156122ab5780601f10612280576101008083540402835291602001916122ab565b820191906000526020600020905b81548152906001019060200180831161228e57829003601f168201915b50505050508152602001600b820180546122c49061477d565b80601f01602080910402602001604051908101604052809291908181526020018280546122f09061477d565b801561233d5780601f106123125761010080835404028352916020019161233d565b820191906000526020600020905b81548152906001019060200180831161232057829003601f168201915b50505050508152602001600c8201548152602001600d820154815250509050919050565b6040805160e08101825242815260208082018881528284018881526060840188905260006080850181905260a0850188905260c085018790528a81526003845294852080546001818101835591875293909520845160079094020192835590519382019390935591519091829160028201906123dd908261491d565b50606082015160038201906123f2908261491d565b50608082015160048201805460ff191691151591909117905560a08201518051612426916005840191602090910190613ec2565b5060c08201518051612442916006840191602090910190613f18565b505050857f0fb336061951903d147e6b93ba30f6d47839e02426fcd5ee1876873afe47bab386866000878760405161247e9594939291906149dc565b60405180910390a2505050505050565b6060600060015b600054811161250857600081815260016020526040902060030154841480156124e35750600160008281526001602052604090206008015460ff1660028111156124e1576124e161429a565b145b156124f657816124f2816147cd565b9250505b80612500816147cd565b915050612495565b506000816001600160401b0381111561252357612523613fce565b60405190808252806020026020018201604052801561255c57816020015b612549613e3f565b8152602001906001900390816125415790505b509050600060015b6000548111610b9f57600081815260016020526040902060030154861480156125b25750600160008281526001602052604090206008015460ff1660028111156125b0576125b061429a565b145b15612a275760008181526001602081815260409283902083516101c08101909452805484529182018054918401916125e99061477d565b80601f01602080910402602001604051908101604052809291908181526020018280546126159061477d565b80156126625780601f1061263757610100808354040283529160200191612662565b820191906000526020600020905b81548152906001019060200180831161264557829003601f168201915b5050505050815260200160028201805461267b9061477d565b80601f01602080910402602001604051908101604052809291908181526020018280546126a79061477d565b80156126f45780601f106126c9576101008083540402835291602001916126f4565b820191906000526020600020905b8154815290600101906020018083116126d757829003601f168201915b50505050508152602001600382015481526020016004820180546127179061477d565b80601f01602080910402602001604051908101604052809291908181526020018280546127439061477d565b80156127905780601f1061276557610100808354040283529160200191612790565b820191906000526020600020905b81548152906001019060200180831161277357829003601f168201915b5050509183525050600582015460208201526006820154604082015260078201546060820152600882015460809091019060ff1660028111156127d5576127d561429a565b60028111156127e6576127e661429a565b815260200160098201805480602002602001604051908101604052809291908181526020016000905b828210156128bb57838290600052602060002001805461282e9061477d565b80601f016020809104026020016040519081016040528092919081815260200182805461285a9061477d565b80156128a75780601f1061287c576101008083540402835291602001916128a7565b820191906000526020600020905b81548152906001019060200180831161288a57829003601f168201915b50505050508152602001906001019061280f565b505050508152602001600a820180546128d39061477d565b80601f01602080910402602001604051908101604052809291908181526020018280546128ff9061477d565b801561294c5780601f106129215761010080835404028352916020019161294c565b820191906000526020600020905b81548152906001019060200180831161292f57829003601f168201915b50505050508152602001600b820180546129659061477d565b80601f01602080910402602001604051908101604052809291908181526020018280546129919061477d565b80156129de5780601f106129b3576101008083540402835291602001916129de565b820191906000526020600020905b8154815290600101906020018083116129c157829003601f168201915b50505050508152602001600c8201548152602001600d82015481525050838381518110612a0d57612a0d6147e6565b60200260200101819052508180612a23906147cd565b9250505b80612a31816147cd565b915050612564565b612a41613e3f565b6000600283604051612a539190614761565b908152602001604051809103902054905080600003612ac05760405162461bcd60e51b815260206004820152602360248201527f426174636820776974682074686973205353434320646f6573206e6f742065786044820152621a5cdd60ea1b60648201526084016111ee565b60008181526001602081815260409283902083516101c0810190945280548452918201805491840191612af29061477d565b80601f0160208091040260200160405190810160405280929190818152602001828054612b1e9061477d565b8015612b6b5780601f10612b4057610100808354040283529160200191612b6b565b820191906000526020600020905b815481529060010190602001808311612b4e57829003601f168201915b50505050508152602001600282018054612b849061477d565b80601f0160208091040260200160405190810160405280929190818152602001828054612bb09061477d565b8015612bfd5780601f10612bd257610100808354040283529160200191612bfd565b820191906000526020600020905b815481529060010190602001808311612be057829003601f168201915b5050505050815260200160038201548152602001600482018054612c209061477d565b80601f0160208091040260200160405190810160405280929190818152602001828054612c4c9061477d565b8015612c995780601f10612c6e57610100808354040283529160200191612c99565b820191906000526020600020905b815481529060010190602001808311612c7c57829003601f168201915b5050509183525050600582015460208201526006820154604082015260078201546060820152600882015460809091019060ff166002811115612cde57612cde61429a565b6002811115612cef57612cef61429a565b815260200160098201805480602002602001604051908101604052809291908181526020016000905b82821015612dc4578382906000526020600020018054612d379061477d565b80601f0160208091040260200160405190810160405280929190818152602001828054612d639061477d565b8015612db05780601f10612d8557610100808354040283529160200191612db0565b820191906000526020600020905b815481529060010190602001808311612d9357829003601f168201915b505050505081526020019060010190612d18565b505050508152602001600a82018054612ddc9061477d565b80601f0160208091040260200160405190810160405280929190818152602001828054612e089061477d565b8015612e555780601f10612e2a57610100808354040283529160200191612e55565b820191906000526020600020905b815481529060010190602001808311612e3857829003601f168201915b50505050508152602001600b82018054612e6e9061477d565b80601f0160208091040260200160405190810160405280929190818152602001828054612e9a9061477d565b8015612ee75780601f10612ebc57610100808354040283529160200191612ee7565b820191906000526020600020905b815481529060010190602001808311612eca57829003601f168201915b50505050508152602001600c8201548152602001600d82015481525050915050919050565b6000818152600160205260408120549003612f395760405162461bcd60e51b81526004016111ee906147fc565b60008181526001602052604081206008015460ff166002811115612f5f57612f5f61429a565b14612fac5760405162461bcd60e51b815260206004820152601d60248201527f4261746368206973206e6f742070656e64696e6720617070726f76616c00000060448201526064016111ee565b600081815260016020818152604080842060088101805460ff19908116861790915560048452948290208054909516841790945591905260038201549051909183917f1a621270a25ae67b5e557b98be27914cd1de793b7ca49110be85cb5aaa169c9b9161301f91600290910190614a6f565b60405180910390a3600081815260016020526040908190206003810154915183917f309958f3629dbb8b1c3fb39cc2ffd4759c619a8c6c7927159d9e608c99ae46329161306f9160020190614a6f565b60405180910390a3604080516001808252818301909252600091602080830190803683375050506000838152600160205260408120600d01548251929350918391906130bd576130bd6147e6565b602002602001018181525050611edd60016000848152602001908152602001600020600301546040518060400160405280600e81526020016d10985d18da08105c1c1c9bdd995960921b815250604051806060016040528060278152602001614c886027913984613adc565b606060036000838152602001908152602001600020805480602002602001604051908101604052809291908181526020016000905b828210156105e957838290600052602060002090600702016040518060e001604052908160008201548152602001600182015481526020016002820180546131a59061477d565b80601f01602080910402602001604051908101604052809291908181526020018280546131d19061477d565b801561321e5780601f106131f35761010080835404028352916020019161321e565b820191906000526020600020905b81548152906001019060200180831161320157829003601f168201915b505050505081526020016003820180546132379061477d565b80601f01602080910402602001604051908101604052809291908181526020018280546132639061477d565b80156132b05780601f10613285576101008083540402835291602001916132b0565b820191906000526020600020905b81548152906001019060200180831161329357829003601f168201915b5050509183525050600482015460ff161515602080830191909152600583018054604080518285028101850182528281529401939260009084015b8282101561339757838290600052602060002001805461330a9061477d565b80601f01602080910402602001604051908101604052809291908181526020018280546133369061477d565b80156133835780601f1061335857610100808354040283529160200191613383565b820191906000526020600020905b81548152906001019060200180831161336657829003601f168201915b5050505050815260200190600101906132eb565b505050508152602001600682018054806020026020016040519081016040528092919081815260200182805480156133ee57602002820191906000526020600020905b8154815260200190600101908083116133da575b5050505050815250508152602001906001019061315e565b60008281526001602052604090206003015481145b92915050565b604080518082019091526002815261030360f41b6020820152606090600061344884613c28565b604080514260208083019190915281830188905282518083038401815260609092019092528051910120909150600061348082613c28565b9050600084848360405160200161349993929190614a82565b604051602081830303815290604052905060006134b582613d53565b90506000826134c68360ff16613c28565b6040516020016134d7929190614ac5565b60408051601f198184030181529190529998505050505050505050565b60006002826020015160405161350a9190614761565b90815260200160405180910390205460001461355e5760405162461bcd60e51b81526020600482015260136024820152725353434320616c72656164792065786973747360681b60448201526064016111ee565b6000826060015151116135b35760405162461bcd60e51b815260206004820152601a60248201527f5175616e74697479206d757374206e6f7420626520656d70747900000000000060448201526064016111ee565b60008260800151511161361b5760405162461bcd60e51b815260206004820152602a60248201527f4174206c65617374206f6e652070726f6475637420696d6167652055524c20696044820152691cc81c995c5d5a5c995960b21b60648201526084016111ee565b60008260a00151511161367a5760405162461bcd60e51b815260206004820152602160248201527f436572746966696361746520696d6167652055524c20697320726571756972656044820152601960fa1b60648201526084016111ee565b60008260c0015151116136cf5760405162461bcd60e51b815260206004820152601c60248201527f4661726d20706c6f74206e756d6265722069732072657175697265640000000060448201526064016111ee565b60008260e00151116137235760405162461bcd60e51b815260206004820152601860248201527f50726f64756374204944206d7573742062652076616c6964000000000000000060448201526064016111ee565b6000826101000151116137715760405162461bcd60e51b815260206004820152601660248201527514dd185c9d0819185d19481a5cc81c995c5d5a5c995960521b60448201526064016111ee565b6000826101200151116137bd5760405162461bcd60e51b8152602060048201526014602482015273115b990819185d19481a5cc81c995c5d5a5c995960621b60448201526064016111ee565b816101200151826101000151106138215760405162461bcd60e51b815260206004820152602260248201527f53746172742064617465206d757374206265206265666f726520656e64206461604482015261746560f01b60648201526084016111ee565b8151516138705760405162461bcd60e51b815260206004820152601c60248201527f4261746368206e616d65206d757374206e6f7420626520656d7074790000000060448201526064016111ee565b60008054908061387f836147cd565b9190505550600080549050600042905060006138b8856020015186604001518760600151858960c001518a60e001518b60000151613dfd565b90506000604051806101c001604052808581526020018760000151815260200187602001518152602001876040015181526020018760600151815260200184815260200187610100015181526020018761012001518152602001600060028111156139255761392561429a565b8152602001876080015181526020018760a0015181526020018760c0015181526020018381526020018760e001518152509050806001600086815260200190815260200160002060008201518160000155602082015181600101908161398b919061491d565b50604082015160028201906139a0908261491d565b5060608201516003820155608082015160048201906139bf908261491d565b5060a0820151600582015560c0820151600682015560e0820151600782015561010082015160088201805460ff19166001836002811115613a0257613a0261429a565b02179055506101208201518051613a23916009840191602090910190613ec2565b50610140820151600a820190613a39908261491d565b50610160820151600b820190613a4f908261491d565b5061018082015181600c01556101a082015181600d01559050508360028760200151604051613a7e9190614761565b908152602001604051809103902081905550837f58c168780de5fc719a1e7a85c7eca394e664c0e74b7c9ebc621f0b093112d04b87602001518860400151604051613aca929190614af4565b60405180910390a25091949350505050565b6040805160008082526020820190925281613b07565b6060815260200190600190039081613af25790505b506040805160e08101825242815260208082018981528284018981526060840189905260016080850181905260a0850187905260c0850189905260008c815260038552958620805480830182559087529390952084516007909402019283559051938201939093559151929350918291906002820190613b87908261491d565b5060608201516003820190613b9c908261491d565b50608082015160048201805460ff191691151591909117905560a08201518051613bd0916005840191602090910190613ec2565b5060c08201518051613bec916006840191602090910190613f18565b505050857f0fb336061951903d147e6b93ba30f6d47839e02426fcd5ee1876873afe47bab386866001868860405161247e9594939291906149dc565b606081600003613c4f5750506040805180820190915260018152600360fc1b602082015290565b8160005b8115613c795780613c63816147cd565b9150613c729050600a83614b2c565b9150613c53565b6000816001600160401b03811115613c9357613c93613fce565b6040519080825280601f01601f191660200182016040528015613cbd576020820181803683370190505b509050815b8515613d4a57613cd3600182614b40565b90506000613ce2600a88614b2c565b613ced90600a614b53565b613cf79088614b40565b613d02906030614b6a565b905060008160f81b905080848481518110613d1f57613d1f6147e6565b60200101906001600160f81b031916908160001a905350613d41600a89614b2c565b97505050613cc2565b50949350505050565b60008181805b8251811015613dd05760006030848381518110613d7857613d786147e6565b0160200151613d8a919060f81c614b83565b9050613d97600283614b9c565b15613da25780613dad565b613dad816003614bb0565b613dba9060ff1684614bd3565b9250508080613dc8906147cd565b915050613d59565b506000600a613ddf8184614b9c565b613dea90600a614b40565b613df49190614b9c565b95945050505050565b600087878787878787604051602001613e1c9796959493929190614be6565b604051602081830303815290604052805190602001209050979650505050505050565b604051806101c00160405280600081526020016060815260200160608152602001600081526020016060815260200160008152602001600081526020016000815260200160006002811115613e9657613e9661429a565b815260200160608152602001606081526020016060815260200160008019168152602001600081525090565b828054828255906000526020600020908101928215613f08579160200282015b82811115613f085782518290613ef8908261491d565b5091602001919060010190613ee2565b50613f14929150613f5f565b5090565b828054828255906000526020600020908101928215613f53579160200282015b82811115613f53578251825591602001919060010190613f38565b50613f14929150613f7c565b80821115613f14576000613f738282613f91565b50600101613f5f565b5b80821115613f145760008155600101613f7d565b508054613f9d9061477d565b6000825580601f10613fad575050565b601f016020900490600052602060002090810190613fcb9190613f7c565b50565b634e487b7160e01b600052604160045260246000fd5b604051601f8201601f191681016001600160401b038111828210171561400c5761400c613fce565b604052919050565b600082601f83011261402557600080fd5b81356001600160401b0381111561403e5761403e613fce565b614051601f8201601f1916602001613fe4565b81815284602083860101111561406657600080fd5b816020850160208301376000918101602001919091529392505050565b60006020828403121561409557600080fd5b81356001600160401b038111156140ab57600080fd5b6140b784828501614014565b949350505050565b6000602082840312156140d157600080fd5b5035919050565b60005b838110156140f35781810151838201526020016140db565b50506000910152565b600081518084526141148160208601602086016140d8565b601f01601f19169290920160200192915050565b600082825180855260208086019550808260051b84010181860160005b8481101561417357601f198684030189526141618383516140fc565b98840198925090830190600101614145565b5090979650505050505050565b600081518084526020808501945080840160005b838110156141b057815187529582019590820190600101614194565b509495945050505050565b60006020808301818452808551808352604092508286019150828160051b87010184880160005b8381101561428c57603f19898403018552815160e0815185528882015189860152878201518189870152614218828701826140fc565b9150506060808301518683038288015261423283826140fc565b925050506080808301511515818701525060a0808301518683038288015261425a8382614128565b9250505060c080830151925085820381870152506142788183614180565b9689019694505050908601906001016141e2565b509098975050505050505050565b634e487b7160e01b600052602160045260246000fd5b600381106142ce57634e487b7160e01b600052602160045260246000fd5b9052565b60006101c08251845260208301518160208601526142f2828601826140fc565b9150506040830151848203604086015261430c82826140fc565b915050606083015160608501526080830151848203608086015261433082826140fc565b91505060a083015160a085015260c083015160c085015260e083015160e085015261010080840151614364828701826142b0565b5050610120808401518583038287015261437e8382614128565b92505050610140808401518583038287015261439a83826140fc565b9250505061016080840151858303828701526143b683826140fc565b61018086810151908801526101a095860151959096019490945250929392505050565b6000602080830181845280855180835260408601915060408160051b870101925083870160005b8281101561442e57603f1988860301845261441c8583516142d2565b94509285019290850190600101614400565b5092979650505050505050565b60006001600160401b0382111561445457614454613fce565b5060051b60200190565b600082601f83011261446f57600080fd5b8135602061448461447f8361443b565b613fe4565b82815260059290921b840181019181810190868411156144a357600080fd5b8286015b848110156144e25780356001600160401b038111156144c65760008081fd5b6144d48986838b0101614014565b8452509183019183016144a7565b509695505050505050565b60008060008060008060008060006101208a8c03121561450c57600080fd5b89356001600160401b038082111561452357600080fd5b61452f8d838e01614014565b9a5060208c0135995060408c013591508082111561454c57600080fd5b6145588d838e01614014565b985060608c013591508082111561456e57600080fd5b61457a8d838e0161445e565b975060808c013591508082111561459057600080fd5b61459c8d838e01614014565b965060a08c01359150808211156145b257600080fd5b506145bf8c828d01614014565b94505060c08a0135925060e08a013591506101008a013590509295985092959850929598565b600080604083850312156145f857600080fd5b8235915060208301356003811061460e57600080fd5b809150509250929050565b60208152600061462c60208301846142d2565b9392505050565b600080600080600060a0868803121561464b57600080fd5b853594506020808701356001600160401b038082111561466a57600080fd5b6146768a838b01614014565b9650604089013591508082111561468c57600080fd5b6146988a838b01614014565b955060608901359150808211156146ae57600080fd5b6146ba8a838b0161445e565b945060808901359150808211156146d057600080fd5b508701601f810189136146e257600080fd5b80356146f061447f8261443b565b81815260059190911b8201830190838101908b83111561470f57600080fd5b928401925b8284101561472d57833582529284019290840190614714565b80955050505050509295509295909350565b6000806040838503121561475257600080fd5b50508035926020909101359150565b600082516147738184602087016140d8565b9190910192915050565b600181811c9082168061479157607f821691505b6020821081036147b157634e487b7160e01b600052602260045260246000fd5b50919050565b634e487b7160e01b600052601160045260246000fd5b6000600182016147df576147df6147b7565b5060010190565b634e487b7160e01b600052603260045260246000fd5b60208082526014908201527310985d18da08191bd95cc81b9bdd08195e1a5cdd60621b604082015260600190565b6020810161341b82846142b0565b600081546148458161477d565b808552602060018381168015614862576001811461487c576148aa565b60ff1985168884015283151560051b8801830195506148aa565b866000528260002060005b858110156148a25781548a8201860152908301908401614887565b890184019650505b505050505092915050565b8281526040602082015260006140b76040830184614838565b601f82111561491857600081815260208120601f850160051c810160208610156148f55750805b601f850160051c820191505b8181101561491457828155600101614901565b5050505b505050565b81516001600160401b0381111561493657614936613fce565b61494a81614944845461477d565b846148ce565b602080601f83116001811461497f57600084156149675750858301515b600019600386901b1c1916600185901b178555614914565b600085815260208120601f198616915b828110156149ae5788860151825594840194600190910190840161498f565b50858210156149cc5787850151600019600388901b60f8161c191681555b5050505050600190811b01905550565b60a0815260006149ef60a08301886140fc565b602083820381850152614a0282896140fc565b9150861515604085015283820360608501528186518084528284019150828160051b85010183890160005b83811015614a5b57601f19878403018552614a498383516140fc565b94860194925090850190600101614a2d565b50508681036080880152610c0a8189614180565b60208152600061462c6020830184614838565b60008451614a948184602089016140d8565b845190830190614aa88183602089016140d8565b8451910190614abb8183602088016140d8565b0195945050505050565b60008351614ad78184602088016140d8565b835190830190614aeb8183602088016140d8565b01949350505050565b604081526000614b0760408301856140fc565b90508260208301529392505050565b634e487b7160e01b600052601260045260246000fd5b600082614b3b57614b3b614b16565b500490565b8181038181111561341b5761341b6147b7565b808202811582820484141761341b5761341b6147b7565b60ff818116838216019081111561341b5761341b6147b7565b60ff828116828216039081111561341b5761341b6147b7565b600082614bab57614bab614b16565b500690565b60ff8181168382160290811690818114614bcc57614bcc6147b7565b5092915050565b8082018082111561341b5761341b6147b7565b600088516020614bf98285838e016140d8565b81840191508982528851614c1281838501848d016140d8565b80830192505087818301528651614c2f8160408501848b016140d8565b604092019182018690528451614c4b81606085018489016140d8565b919091016060019a995050505050505050505056fe426174636820686173206265656e2072656a65637465642062792074686520617070726f766572426174636820686173206265656e20617070726f7665642062792074686520617070726f766572a264697066735822122051e7e65e779dc3154da11b918f39da429a68bfd02b4fc8d60d557c9d9c8f5c9f64736f6c63430008140033",
  "immutableReferences": {},
  "source": "// SPDX-License-Identifier: MIT\r\npragma solidity ^0.8.0;\r\n\r\ncontract TraceabilityContract {\r\n    uint256 private _batchIdCounter;\r\n\r\nenum BatchStatus { PendingApproval, Approved, Rejected }\r\n\r\n    struct Batch {\r\n        uint256 batchId;\r\n        string name;  // Thm trng tn l hng\r\n        string sscc;\r\n        uint256 producerId;\r\n        string quantity;\r\n        uint256 productionDate;\r\n        uint256 startDate;\r\n        uint256 endDate;\r\n        BatchStatus status;\r\n        string[] productImageUrls;\r\n        string certificateImageUrl;\r\n        string farmPlotNumber;\r\n        bytes32 dataHash;\r\n        uint256 productId;\r\n    }\r\n      struct ActivityLog {\r\n        uint256 timestamp;\r\n        uint256 uid;\r\n        string activityName;\r\n        string description;\r\n        bool isSystemGenerated;\r\n        string[] imageUrls;\r\n        uint256[] relatedProductIds;\r\n    }\r\n\r\n\r\n    mapping(uint256 => Batch) private _batches;\r\n    mapping(string => uint256) private _ssccToBatchId;\r\n        mapping(uint256 => ActivityLog[]) private _producerActivityLogs;\r\n    mapping(uint256 => bool) private _approvedBatches;\r\n    \r\n    event BatchApproved(uint256 indexed batchId, uint256 indexed producerId, string sscc);\r\n    event BatchApprovedForQR(uint256 indexed batchId, uint256 indexed producerId, string sscc);\r\n\r\n    event BatchCreated(uint256 indexed batchId, string sscc, uint256 producerId);\r\n    event ActivityLogAdded(\r\n        uint256 indexed uid,\r\n        string activityName,\r\n        string description,\r\n        bool isSystemGenerated,\r\n        string[] imageUrls,\r\n        uint256[] relatedProductIds\r\n    );\r\n\r\n    struct BatchParams {\r\n        string name;  // Thm trng tn l hng\r\n        string sscc;\r\n        uint256 producerId;\r\n        string quantity;\r\n        string[] productImageUrls;\r\n        string certificateImageUrl;\r\n        string farmPlotNumber;\r\n        uint256 productId;\r\n        uint256 startDate;\r\n        uint256 endDate;\r\n    }\r\n\r\n    function createBatch(\r\n        string memory _name,  // Thm tham s tn l hng\r\n        uint256 _producerId,\r\n        string memory _quantity,\r\n        string[] memory _productImageUrls,\r\n        string memory _certificateImageUrl,\r\n        string memory _farmPlotNumber,\r\n        uint256 _productId,\r\n        uint256 _startDate,\r\n        uint256 _endDate\r\n    ) public returns (uint256) {\r\n        string memory sscc = generateSSCC(_producerId);\r\n        BatchParams memory params = BatchParams({\r\n            name: _name,  // Thm tn l hng\r\n            sscc: sscc,\r\n            producerId: _producerId,\r\n            quantity: _quantity,\r\n            productImageUrls: _productImageUrls,\r\n            certificateImageUrl: _certificateImageUrl,\r\n            farmPlotNumber: _farmPlotNumber,\r\n            productId: _productId,\r\n            startDate: _startDate,\r\n            endDate: _endDate\r\n        });\r\n\r\n        return _createBatch(params);\r\n    }\r\n\r\n    function generateSSCC(uint256 _producerId) private view returns (string memory) {\r\n        string memory prefix = \"00\";\r\n        string memory companyPrefix = uint2str(_producerId);\r\n        uint256 serialNumber = uint256(keccak256(abi.encodePacked(block.timestamp, _producerId)));\r\n        string memory serialReference = uint2str(serialNumber);\r\n        \r\n        string memory ssccWithoutCheck = string(abi.encodePacked(prefix, companyPrefix, serialReference));\r\n        uint8 checkDigit = calculateCheckDigit(ssccWithoutCheck);\r\n        \r\n        string memory sscc = string(abi.encodePacked(ssccWithoutCheck, uint2str(uint256(checkDigit))));\r\n        \r\n        return sscc;\r\n    }\r\n\r\n    function calculateCheckDigit(string memory _code) private pure returns (uint8) {\r\n        bytes memory codeBytes = bytes(_code);\r\n        uint256 sum = 0;\r\n        for (uint256 i = 0; i < codeBytes.length; i++) {\r\n            uint8 digit = uint8(codeBytes[i]) - 48;\r\n            sum += (i % 2 == 0) ? digit * 3 : digit;\r\n        }\r\n        uint8 checkDigit = uint8((10 - (sum % 10)) % 10);\r\n        return checkDigit;\r\n    }\r\n\r\n    function uint2str(uint256 _i) private pure returns (string memory) {\r\n        if (_i == 0) {\r\n            return \"0\";\r\n        }\r\n        uint256 j = _i;\r\n        uint256 length;\r\n        while (j != 0) {\r\n            length++;\r\n            j /= 10;\r\n        }\r\n        bytes memory bstr = new bytes(length);\r\n        uint256 k = length;\r\n        while (_i != 0) {\r\n            k = k-1;\r\n            uint8 temp = (48 + uint8(_i - _i / 10 * 10));\r\n            bytes1 b1 = bytes1(temp);\r\n            bstr[k] = b1;\r\n            _i /= 10;\r\n        }\r\n        return string(bstr);\r\n    }\r\n\r\n    function _createBatch(BatchParams memory params) private returns (uint256) {\r\n        require(_ssccToBatchId[params.sscc] == 0, \"SSCC already exists\");\r\n        require(bytes(params.quantity).length > 0, \"Quantity must not be empty\");\r\n        require(params.productImageUrls.length > 0, \"At least one product image URL is required\");\r\n        require(bytes(params.certificateImageUrl).length > 0, \"Certificate image URL is required\");\r\n        require(bytes(params.farmPlotNumber).length > 0, \"Farm plot number is required\");\r\n        require(params.productId > 0, \"Product ID must be valid\");\r\n        require(params.startDate > 0, \"Start date is required\");\r\n        require(params.endDate > 0, \"End date is required\");\r\n        require(params.startDate < params.endDate, \"Start date must be before end date\");\r\n        require(bytes(params.name).length > 0, \"Batch name must not be empty\");\r\n\r\n        _batchIdCounter++;\r\n        uint256 newBatchId = _batchIdCounter;\r\n\r\n        uint256 productionDate = block.timestamp;\r\n\r\n        bytes32 dataHash = _calculateDataHash(\r\n            params.sscc,\r\n            params.producerId,\r\n            params.quantity,\r\n            productionDate,\r\n            params.farmPlotNumber,\r\n            params.productId,\r\n            params.name  // Thm tn l hng vo hm bm\r\n        );\r\n\r\n        Batch memory newBatch = Batch({\r\n            batchId: newBatchId,\r\n            name: params.name,  // Thm tn l hng\r\n            sscc: params.sscc,\r\n            producerId: params.producerId,\r\n            quantity: params.quantity,\r\n            productionDate: productionDate,\r\n            startDate: params.startDate,\r\n            endDate: params.endDate,\r\n            status: BatchStatus.PendingApproval,\r\n            productImageUrls: params.productImageUrls,\r\n            certificateImageUrl: params.certificateImageUrl,\r\n            farmPlotNumber: params.farmPlotNumber,\r\n            dataHash: dataHash,\r\n            productId: params.productId\r\n        });\r\n\r\n        _batches[newBatchId] = newBatch;\r\n        _ssccToBatchId[params.sscc] = newBatchId;\r\n\r\n        emit BatchCreated(newBatchId, params.sscc, params.producerId);\r\n        return newBatchId;\r\n    }\r\n    \r\n\r\n    function addActivityLog(\r\n        uint256 _uid,\r\n        string memory _activityName,\r\n        string memory _description,\r\n        string[] memory _imageUrls,\r\n        uint256[] memory _relatedProductIds\r\n    ) public {\r\n        ActivityLog memory newLog = ActivityLog({\r\n            timestamp: block.timestamp,\r\n            uid: _uid,\r\n            activityName: _activityName,\r\n            description: _description,\r\n            isSystemGenerated: false,\r\n            imageUrls: _imageUrls,\r\n            relatedProductIds: _relatedProductIds\r\n        });\r\n\r\n        _producerActivityLogs[_uid].push(newLog);\r\n        emit ActivityLogAdded(_uid, _activityName, _description, false, _imageUrls, _relatedProductIds);\r\n    }\r\n // Hm  ly nht k hot ng ca mt nh sn xut\r\n    function getProducerActivityLogs(uint256 _uid) public view returns (ActivityLog[] memory) {\r\n        return _producerActivityLogs[_uid];\r\n    }\r\n\r\n    \r\n    // Hm ni b  h thng t ng thm nht k\r\n    function _addSystemActivityLog(\r\n        uint256 _uid,\r\n        string memory _activityName,\r\n        string memory _description,\r\n        uint256[] memory _relatedProductIds\r\n    ) internal {\r\n        string[] memory emptyImageUrls = new string[](0);\r\n        ActivityLog memory newLog = ActivityLog({\r\n            timestamp: block.timestamp,\r\n            uid: _uid,\r\n            activityName: _activityName,\r\n            description: _description,\r\n            isSystemGenerated: true,\r\n            imageUrls: emptyImageUrls,\r\n            relatedProductIds: _relatedProductIds\r\n        });\r\n\r\n        _producerActivityLogs[_uid].push(newLog);\r\n        emit ActivityLogAdded(_uid, _activityName, _description, true, emptyImageUrls, _relatedProductIds);\r\n    }\r\n    \r\n    function _calculateDataHash(\r\n        string memory _sscc,\r\n        uint256 _producerId,\r\n        string memory _quantity,\r\n        uint256 _productionDate,\r\n        string memory _farmPlotNumber,\r\n        uint256 _productId,\r\n        string memory _name  // Thm tn l hng\r\n    ) private pure returns (bytes32) {\r\n        return keccak256(abi.encodePacked(_sscc, _producerId, _quantity, _productionDate, _farmPlotNumber, _productId, _name));\r\n    }\r\n    // hm kim tra sscc  tn ti hay cha \r\n    function ssccExists(string memory sscc) public view returns (bool) {\r\n        return _ssccToBatchId[sscc] != 0;\r\n    }\r\n\r\n    // Hm mi  ly danh sch cc l hng da trn producerId\r\n    function getBatchesByProducer(uint256 producerId) public view returns (Batch[] memory) {\r\n        uint256 count = 0;\r\n        for (uint256 i = 1; i <= _batchIdCounter; i++) {\r\n            if (_batches[i].producerId == producerId) {\r\n                count++;\r\n            }\r\n        }\r\n\r\n        Batch[] memory batches = new Batch[](count);\r\n        uint256 index = 0;\r\n        for (uint256 i = 1; i <= _batchIdCounter; i++) {\r\n            if (_batches[i].producerId == producerId) {\r\n                batches[index] = _batches[i];\r\n                index++;\r\n            }\r\n        }\r\n\r\n        return batches;\r\n    }\r\n\r\n    // hm cp nht trng thi l hng\r\nfunction updateBatchStatus(uint256 _batchId, BatchStatus _newStatus) public {\r\n    require(_batches[_batchId].batchId != 0, \"Batch does not exist\");\r\n    // Thm kim tra quyn nu cn\r\n    _batches[_batchId].status = _newStatus;\r\n    emit BatchStatusUpdated(_batchId, _newStatus);\r\n}\r\nfunction getPendingBatchesByProducer(uint256 _producerId) public view returns (Batch[] memory) {\r\n    uint256 pendingCount = 0;\r\n    for (uint256 i = 1; i <= _batchIdCounter; i++) {\r\n        if (_batches[i].producerId == _producerId && _batches[i].status == BatchStatus.PendingApproval) {\r\n            pendingCount++;\r\n        }\r\n    }\r\n\r\n    Batch[] memory pendingBatches = new Batch[](pendingCount);\r\n    uint256 index = 0;\r\n    for (uint256 i = 1; i <= _batchIdCounter; i++) {\r\n        if (_batches[i].producerId == _producerId && _batches[i].status == BatchStatus.PendingApproval) {\r\n            pendingBatches[index] = _batches[i];\r\n            index++;\r\n        }\r\n    }\r\n\r\n    return pendingBatches;\r\n}\r\n\r\nfunction getRejectedBatchesByProducer(uint256 _producerId) public view returns (Batch[] memory) {\r\n    uint256 rejectedCount = 0;\r\n    for (uint256 i = 1; i <= _batchIdCounter; i++) {\r\n        if (_batches[i].producerId == _producerId && _batches[i].status == BatchStatus.Rejected) {\r\n            rejectedCount++;\r\n        }\r\n    }\r\n\r\n    Batch[] memory rejectedBatches = new Batch[](rejectedCount);\r\n    uint256 index = 0;\r\n    for (uint256 i = 1; i <= _batchIdCounter; i++) {\r\n        if (_batches[i].producerId == _producerId && _batches[i].status == BatchStatus.Rejected) {\r\n            rejectedBatches[index] = _batches[i];\r\n            index++;\r\n        }\r\n    }\r\n\r\n    return rejectedBatches;\r\n}\r\nfunction getAllPendingBatches() public view returns (Batch[] memory) {\r\n        uint256 pendingCount = 0;\r\n        for (uint256 i = 1; i <= _batchIdCounter; i++) {\r\n            if (_batches[i].status == BatchStatus.PendingApproval) {\r\n                pendingCount++;\r\n            }\r\n        }\r\n\r\n        Batch[] memory pendingBatches = new Batch[](pendingCount);\r\n        uint256 index = 0;\r\n        for (uint256 i = 1; i <= _batchIdCounter; i++) {\r\n            if (_batches[i].status == BatchStatus.PendingApproval) {\r\n                pendingBatches[index] = _batches[i];\r\n                index++;\r\n            }\r\n        }\r\n\r\n        return pendingBatches;\r\n    }\r\n\r\nevent BatchStatusUpdated(uint256 indexed batchId, BatchStatus newStatus);\r\n\r\n// hm ly thng tin l hng\r\nfunction getBatchDetails(uint256 _batchId) public view returns (Batch memory) {\r\n    require(_batches[_batchId].batchId != 0, \"Batch does not exist\");\r\n    return _batches[_batchId];\r\n}\r\nfunction getBatchBySSCC(string memory _sscc) public view returns (Batch memory) {\r\n    uint256 batchId = _ssccToBatchId[_sscc];\r\n    require(batchId != 0, \"Batch with this SSCC does not exist\");\r\n    return _batches[batchId];\r\n}\r\n\r\nfunction getTotalBatches() public view returns (uint256) {\r\n    return _batchIdCounter;\r\n}\r\n\r\nfunction isProducerOfBatch(uint256 _batchId, uint256 _producerId) public view returns (bool) {\r\n    return _batches[_batchId].producerId == _producerId;\r\n}\r\n\r\n// Thm hm ny vo smart contract\r\nfunction getActivityLogs(uint256 _uid) public view returns (ActivityLog[] memory) {\r\n    return _producerActivityLogs[_uid];\r\n}\r\nfunction getActivityLogCount(uint256 _uid) public view returns (uint256) {\r\n    return _producerActivityLogs[_uid].length;\r\n}\r\n\r\nmodifier onlyApprover() {\r\n    // Implement logic to check if msg.sender is an approver\r\n    _;\r\n}\r\n\r\nfunction approveBatch(uint256 _batchId) public onlyApprover {\r\n    require(_batches[_batchId].batchId != 0, \"Batch does not exist\");\r\n    require(_batches[_batchId].status == BatchStatus.PendingApproval, \"Batch is not pending approval\");\r\n\r\n    _batches[_batchId].status = BatchStatus.Approved;\r\n    _approvedBatches[_batchId] = true;\r\n\r\n    emit BatchApproved(_batchId, _batches[_batchId].producerId, _batches[_batchId].sscc);\r\n    emit BatchApprovedForQR(_batchId, _batches[_batchId].producerId, _batches[_batchId].sscc);\r\n    \r\n    // Add system activity log\r\n    uint256[] memory relatedProductIds = new uint256[](1);\r\n    relatedProductIds[0] = _batches[_batchId].productId;\r\n    _addSystemActivityLog(_batches[_batchId].producerId, \"Batch Approved\", \"Batch has been approved by the approver\", relatedProductIds);\r\n}\r\n\r\nfunction rejectBatch(uint256 _batchId) public onlyApprover {\r\n    require(_batches[_batchId].batchId != 0, \"Batch does not exist\");\r\n    require(_batches[_batchId].status == BatchStatus.PendingApproval, \"Batch is not pending approval\");\r\n\r\n    _batches[_batchId].status = BatchStatus.Rejected;\r\n\r\n    emit BatchRejected(_batchId, _batches[_batchId].producerId, _batches[_batchId].sscc);\r\n    \r\n    // Add system activity log\r\n    uint256[] memory relatedProductIds = new uint256[](1);\r\n    relatedProductIds[0] = _batches[_batchId].productId;\r\n    _addSystemActivityLog(_batches[_batchId].producerId, \"Batch Rejected\", \"Batch has been rejected by the approver\", relatedProductIds);\r\n}\r\n\r\nevent BatchRejected(uint256 indexed batchId, uint256 producerId, string sscc);\r\n\r\nfunction getApprovedBatchesByProducer(uint256 _producerId) public view returns (Batch[] memory) {\r\n    uint256 approvedCount = 0;\r\n    for (uint256 i = 1; i <= _batchIdCounter; i++) {\r\n        if (_batches[i].producerId == _producerId && _batches[i].status == BatchStatus.Approved) {\r\n            approvedCount++;\r\n        }\r\n    }\r\n\r\n    Batch[] memory approvedBatches = new Batch[](approvedCount);\r\n    uint256 index = 0;\r\n    for (uint256 i = 1; i <= _batchIdCounter; i++) {\r\n        if (_batches[i].producerId == _producerId && _batches[i].status == BatchStatus.Approved) {\r\n            approvedBatches[index] = _batches[i];\r\n            index++;\r\n        }\r\n    }\r\n\r\n    return approvedBatches;\r\n}\r\n\r\nfunction isBatchApproved(uint256 _batchId) public view returns (bool) {\r\n    return _approvedBatches[_batchId];\r\n}\r\n\r\n}",
  "sourcePath": "D:\\projects\\nckh-be\\blockchain\\contracts\\supplychain.sol",
  "compiler": {
    "name": "solc",
    "version": "0.8.20+commit.a1b79de6.Emscripten.clang"
  },
  "schemaVersion": "3.4.16",
  "updatedAt": "2024-09-14T14:16:31.025Z",
  "networkType": "ethereum",
  "devdoc": {
    "kind": "dev",
    "methods": {},
    "version": 1
  },
  "userdoc": {
    "kind": "user",
    "methods": {},
    "version": 1
  }
}