{
  "contractName": "TraceabilityContract",
  "abi": [
    {
      "anonymous": false,
      "inputs": [
        {
          "indexed": true,
          "internalType": "uint256",
          "name": "batchId",
          "type": "uint256"
        },
        {
          "indexed": false,
          "internalType": "string",
          "name": "sscc",
          "type": "string"
        },
        {
          "indexed": false,
          "internalType": "uint256",
          "name": "producerId",
          "type": "uint256"
        }
      ],
      "name": "BatchCreated",
      "type": "event"
    },
    {
      "inputs": [
        {
          "internalType": "string",
          "name": "_sscc",
          "type": "string"
        },
        {
          "internalType": "uint256",
          "name": "_producerId",
          "type": "uint256"
        },
        {
          "internalType": "string",
          "name": "_quantity",
          "type": "string"
        },
        {
          "internalType": "string[]",
          "name": "_productImageUrls",
          "type": "string[]"
        },
        {
          "internalType": "string",
          "name": "_certificateImageUrl",
          "type": "string"
        },
        {
          "internalType": "string",
          "name": "_farmPlotNumber",
          "type": "string"
        },
        {
          "internalType": "uint256",
          "name": "_productId",
          "type": "uint256"
        },
        {
          "internalType": "uint256",
          "name": "_startDate",
          "type": "uint256"
        },
        {
          "internalType": "uint256",
          "name": "_endDate",
          "type": "uint256"
        }
      ],
      "name": "createBatch",
      "outputs": [
        {
          "internalType": "uint256",
          "name": "",
          "type": "uint256"
        }
      ],
      "stateMutability": "nonpayable",
      "type": "function"
    },
    {
      "inputs": [
        {
          "internalType": "string",
          "name": "sscc",
          "type": "string"
        }
      ],
      "name": "ssccExists",
      "outputs": [
        {
          "internalType": "bool",
          "name": "",
          "type": "bool"
        }
      ],
      "stateMutability": "view",
      "type": "function",
      "constant": true
    },
    {
      "inputs": [
        {
          "internalType": "uint256",
          "name": "producerId",
          "type": "uint256"
        }
      ],
      "name": "getBatchesByProducer",
      "outputs": [
        {
          "components": [
            {
              "internalType": "uint256",
              "name": "batchId",
              "type": "uint256"
            },
            {
              "internalType": "string",
              "name": "sscc",
              "type": "string"
            },
            {
              "internalType": "uint256",
              "name": "producerId",
              "type": "uint256"
            },
            {
              "internalType": "string",
              "name": "quantity",
              "type": "string"
            },
            {
              "internalType": "uint256",
              "name": "productionDate",
              "type": "uint256"
            },
            {
              "internalType": "uint256",
              "name": "expiryDate",
              "type": "uint256"
            },
            {
              "internalType": "uint256",
              "name": "startDate",
              "type": "uint256"
            },
            {
              "internalType": "uint256",
              "name": "endDate",
              "type": "uint256"
            },
            {
              "internalType": "enum TraceabilityContract.BatchStatus",
              "name": "status",
              "type": "uint8"
            },
            {
              "internalType": "string[]",
              "name": "productImageUrls",
              "type": "string[]"
            },
            {
              "internalType": "string",
              "name": "certificateImageUrl",
              "type": "string"
            },
            {
              "internalType": "string",
              "name": "farmPlotNumber",
              "type": "string"
            },
            {
              "internalType": "bytes32",
              "name": "dataHash",
              "type": "bytes32"
            },
            {
              "internalType": "uint256",
              "name": "productId",
              "type": "uint256"
            }
          ],
          "internalType": "struct TraceabilityContract.Batch[]",
          "name": "",
          "type": "tuple[]"
        }
      ],
      "stateMutability": "view",
      "type": "function",
      "constant": true
    }
  ],
  "bytecode": "0x608060405234801561001057600080fd5b50612009806100206000396000f3fe608060405234801561001057600080fd5b50600436106100415760003560e01c8063040080781461004657806336c701e11461007657806380e32d45146100a6575b600080fd5b610060600480360381019061005b9190610eb8565b6100d6565b60405161006d9190610f1c565b60405180910390f35b610090600480360381019061008b9190611053565b610101565b60405161009d91906111b8565b60405180910390f35b6100c060048036038101906100bb91906111d3565b61015f565b6040516100cd91906115ec565b60405180910390f35b6000806002836040516100e9919061164a565b90815260200160405180910390205414159050919050565b6000806040518061012001604052808c81526020018b81526020018a815260200189815260200188815260200187815260200186815260200185815260200184815250905061014f8161064f565b9150509998505050505050505050565b6060600080600190505b60005481116101b1578360016000838152602001908152602001600020600201540361019e57818061019a90611690565b9250505b80806101a990611690565b915050610169565b5060008167ffffffffffffffff8111156101ce576101cd610d8d565b5b60405190808252806020026020018201604052801561020757816020015b6101f4610c00565b8152602001906001900390816101ec5790505b509050600080600190505b600054811161064357856001600083815260200190815260200160002060020154036106305760016000828152602001908152602001600020604051806101c00160405290816000820154815260200160018201805461027190611707565b80601f016020809104026020016040519081016040528092919081815260200182805461029d90611707565b80156102ea5780601f106102bf576101008083540402835291602001916102ea565b820191906000526020600020905b8154815290600101906020018083116102cd57829003601f168201915b505050505081526020016002820154815260200160038201805461030d90611707565b80601f016020809104026020016040519081016040528092919081815260200182805461033990611707565b80156103865780601f1061035b57610100808354040283529160200191610386565b820191906000526020600020905b81548152906001019060200180831161036957829003601f168201915b50505050508152602001600482015481526020016005820154815260200160068201548152602001600782015481526020016008820160009054906101000a900460ff1660038111156103dc576103db6112ba565b5b60038111156103ee576103ed6112ba565b5b815260200160098201805480602002602001604051908101604052809291908181526020016000905b828210156104c357838290600052602060002001805461043690611707565b80601f016020809104026020016040519081016040528092919081815260200182805461046290611707565b80156104af5780601f10610484576101008083540402835291602001916104af565b820191906000526020600020905b81548152906001019060200180831161049257829003601f168201915b505050505081526020019060010190610417565b505050508152602001600a820180546104db90611707565b80601f016020809104026020016040519081016040528092919081815260200182805461050790611707565b80156105545780601f1061052957610100808354040283529160200191610554565b820191906000526020600020905b81548152906001019060200180831161053757829003601f168201915b50505050508152602001600b8201805461056d90611707565b80601f016020809104026020016040519081016040528092919081815260200182805461059990611707565b80156105e65780601f106105bb576101008083540402835291602001916105e6565b820191906000526020600020905b8154815290600101906020018083116105c957829003601f168201915b50505050508152602001600c8201548152602001600d8201548152505083838151811061061657610615611738565b5b6020026020010181905250818061062c90611690565b9250505b808061063b90611690565b915050610212565b50819350505050919050565b6000601282600001515114610699576040517f08c379a0000000000000000000000000000000000000000000000000000000008152600401610690906117c4565b60405180910390fd5b6000600283600001516040516106af919061164a565b908152602001604051809103902054146106fe576040517f08c379a00000000000000000000000000000000000000000000000000000000081526004016106f590611830565b60405180910390fd5b600082604001515111610746576040517f08c379a000000000000000000000000000000000000000000000000000000000815260040161073d9061189c565b60405180910390fd5b60008260600151511161078e576040517f08c379a00000000000000000000000000000000000000000000000000000000081526004016107859061192e565b60405180910390fd5b6000826080015151116107d6576040517f08c379a00000000000000000000000000000000000000000000000000000000081526004016107cd906119c0565b60405180910390fd5b60008260a00151511161081e576040517f08c379a000000000000000000000000000000000000000000000000000000000815260040161081590611a2c565b60405180910390fd5b60008260c0015111610865576040517f08c379a000000000000000000000000000000000000000000000000000000000815260040161085c90611a98565b60405180910390fd5b60008260e00151116108ac576040517f08c379a00000000000000000000000000000000000000000000000000000000081526004016108a390611b04565b60405180910390fd5b6000826101000151116108f4576040517f08c379a00000000000000000000000000000000000000000000000000000000081526004016108eb90611b70565b60405180910390fd5b8161010001518260e001511061093f576040517f08c379a000000000000000000000000000000000000000000000000000000000815260040161093690611c02565b60405180910390fd5b60008081548092919061095190611690565b9190505550600080549050600042905060006301e13380826109739190611c22565b9050600061099a86600001518760200151886040015186868b60a001518c60c00151610bbe565b90506000604051806101c001604052808681526020018860000151815260200188602001518152602001886040015181526020018581526020018481526020018860e001518152602001886101000151815260200160016003811115610a0357610a026112ba565b5b815260200188606001518152602001886080015181526020018860a0015181526020018381526020018860c0015181525090508060016000878152602001908152602001600020600082015181600001556020820151816001019081610a699190611e02565b50604082015181600201556060820151816003019081610a899190611e02565b506080820151816004015560a0820151816005015560c0820151816006015560e082015181600701556101008201518160080160006101000a81548160ff02191690836003811115610ade57610add6112ba565b5b0217905550610120820151816009019080519060200190610b00929190610c84565b5061014082015181600a019081610b179190611e02565b5061016082015181600b019081610b2e9190611e02565b5061018082015181600c01556101a082015181600d01559050508460028860000151604051610b5d919061164a565b908152602001604051809103902081905550847f58c168780de5fc719a1e7a85c7eca394e664c0e74b7c9ebc621f0b093112d04b88600001518960200151604051610ba9929190611f0d565b60405180910390a28495505050505050919050565b600087878787878787604051602001610bdd9796959493929190611f5e565b604051602081830303815290604052805190602001209050979650505050505050565b604051806101c00160405280600081526020016060815260200160008152602001606081526020016000815260200160008152602001600081526020016000815260200160006003811115610c5857610c576112ba565b5b815260200160608152602001606081526020016060815260200160008019168152602001600081525090565b828054828255906000526020600020908101928215610ccc579160200282015b82811115610ccb578251829081610cbb9190611e02565b5091602001919060010190610ca4565b5b509050610cd99190610cdd565b5090565b5b80821115610cfd5760008181610cf49190610d01565b50600101610cde565b5090565b508054610d0d90611707565b6000825580601f10610d1f5750610d3e565b601f016020900490600052602060002090810190610d3d9190610d41565b5b50565b5b80821115610d5a576000816000905550600101610d42565b5090565b6000604051905090565b600080fd5b600080fd5b600080fd5b600080fd5b6000601f19601f8301169050919050565b7f4e487b7100000000000000000000000000000000000000000000000000000000600052604160045260246000fd5b610dc582610d7c565b810181811067ffffffffffffffff82111715610de457610de3610d8d565b5b80604052505050565b6000610df7610d5e565b9050610e038282610dbc565b919050565b600067ffffffffffffffff821115610e2357610e22610d8d565b5b610e2c82610d7c565b9050602081019050919050565b82818337600083830152505050565b6000610e5b610e5684610e08565b610ded565b905082815260208101848484011115610e7757610e76610d77565b5b610e82848285610e39565b509392505050565b600082601f830112610e9f57610e9e610d72565b5b8135610eaf848260208601610e48565b91505092915050565b600060208284031215610ece57610ecd610d68565b5b600082013567ffffffffffffffff811115610eec57610eeb610d6d565b5b610ef884828501610e8a565b91505092915050565b60008115159050919050565b610f1681610f01565b82525050565b6000602082019050610f316000830184610f0d565b92915050565b6000819050919050565b610f4a81610f37565b8114610f5557600080fd5b50565b600081359050610f6781610f41565b92915050565b600067ffffffffffffffff821115610f8857610f87610d8d565b5b602082029050602081019050919050565b600080fd5b6000610fb1610fac84610f6d565b610ded565b90508083825260208201905060208402830185811115610fd457610fd3610f99565b5b835b8181101561101b57803567ffffffffffffffff811115610ff957610ff8610d72565b5b8086016110068982610e8a565b85526020850194505050602081019050610fd6565b5050509392505050565b600082601f83011261103a57611039610d72565b5b813561104a848260208601610f9e565b91505092915050565b60008060008060008060008060006101208a8c03121561107657611075610d68565b5b60008a013567ffffffffffffffff81111561109457611093610d6d565b5b6110a08c828d01610e8a565b99505060206110b18c828d01610f58565b98505060408a013567ffffffffffffffff8111156110d2576110d1610d6d565b5b6110de8c828d01610e8a565b97505060608a013567ffffffffffffffff8111156110ff576110fe610d6d565b5b61110b8c828d01611025565b96505060808a013567ffffffffffffffff81111561112c5761112b610d6d565b5b6111388c828d01610e8a565b95505060a08a013567ffffffffffffffff81111561115957611158610d6d565b5b6111658c828d01610e8a565b94505060c06111768c828d01610f58565b93505060e06111878c828d01610f58565b9250506101006111998c828d01610f58565b9150509295985092959850929598565b6111b281610f37565b82525050565b60006020820190506111cd60008301846111a9565b92915050565b6000602082840312156111e9576111e8610d68565b5b60006111f784828501610f58565b91505092915050565b600081519050919050565b600082825260208201905092915050565b6000819050602082019050919050565b61123581610f37565b82525050565b600081519050919050565b600082825260208201905092915050565b60005b8381101561127557808201518184015260208101905061125a565b60008484015250505050565b600061128c8261123b565b6112968185611246565b93506112a6818560208601611257565b6112af81610d7c565b840191505092915050565b7f4e487b7100000000000000000000000000000000000000000000000000000000600052602160045260246000fd5b600481106112fa576112f96112ba565b5b50565b600081905061130b826112e9565b919050565b600061131b826112fd565b9050919050565b61132b81611310565b82525050565b600081519050919050565b600082825260208201905092915050565b6000819050602082019050919050565b60006113698383611281565b905092915050565b6000602082019050919050565b600061138982611331565b611393818561133c565b9350836020820285016113a58561134d565b8060005b858110156113e157848403895281516113c2858261135d565b94506113cd83611371565b925060208a019950506001810190506113a9565b50829750879550505050505092915050565b6000819050919050565b611406816113f3565b82525050565b60006101c083016000830151611425600086018261122c565b506020830151848203602086015261143d8282611281565b9150506040830151611452604086018261122c565b506060830151848203606086015261146a8282611281565b915050608083015161147f608086018261122c565b5060a083015161149260a086018261122c565b5060c08301516114a560c086018261122c565b5060e08301516114b860e086018261122c565b506101008301516114cd610100860182611322565b506101208301518482036101208601526114e7828261137e565b9150506101408301518482036101408601526115038282611281565b91505061016083015184820361016086015261151f8282611281565b9150506101808301516115366101808601826113fd565b506101a083015161154b6101a086018261122c565b508091505092915050565b6000611562838361140c565b905092915050565b6000602082019050919050565b600061158282611200565b61158c818561120b565b93508360208202850161159e8561121c565b8060005b858110156115da57848403895281516115bb8582611556565b94506115c68361156a565b925060208a019950506001810190506115a2565b50829750879550505050505092915050565b600060208201905081810360008301526116068184611577565b905092915050565b600081905092915050565b60006116248261123b565b61162e818561160e565b935061163e818560208601611257565b80840191505092915050565b60006116568284611619565b915081905092915050565b7f4e487b7100000000000000000000000000000000000000000000000000000000600052601160045260246000fd5b600061169b82610f37565b91507fffffffffffffffffffffffffffffffffffffffffffffffffffffffffffffffff82036116cd576116cc611661565b5b600182019050919050565b7f4e487b7100000000000000000000000000000000000000000000000000000000600052602260045260246000fd5b6000600282049050600182168061171f57607f821691505b602082108103611732576117316116d8565b5b50919050565b7f4e487b7100000000000000000000000000000000000000000000000000000000600052603260045260246000fd5b600082825260208201905092915050565b7f53534343206d7573742062652031382063686172616374657273206c6f6e6700600082015250565b60006117ae601f83611767565b91506117b982611778565b602082019050919050565b600060208201905081810360008301526117dd816117a1565b9050919050565b7f5353434320616c72656164792065786973747300000000000000000000000000600082015250565b600061181a601383611767565b9150611825826117e4565b602082019050919050565b600060208201905081810360008301526118498161180d565b9050919050565b7f5175616e74697479206d757374206e6f7420626520656d707479000000000000600082015250565b6000611886601a83611767565b915061189182611850565b602082019050919050565b600060208201905081810360008301526118b581611879565b9050919050565b7f4174206c65617374206f6e652070726f6475637420696d6167652055524c206960008201527f7320726571756972656400000000000000000000000000000000000000000000602082015250565b6000611918602a83611767565b9150611923826118bc565b604082019050919050565b600060208201905081810360008301526119478161190b565b9050919050565b7f436572746966696361746520696d6167652055524c206973207265717569726560008201527f6400000000000000000000000000000000000000000000000000000000000000602082015250565b60006119aa602183611767565b91506119b58261194e565b604082019050919050565b600060208201905081810360008301526119d98161199d565b9050919050565b7f4661726d20706c6f74206e756d62657220697320726571756972656400000000600082015250565b6000611a16601c83611767565b9150611a21826119e0565b602082019050919050565b60006020820190508181036000830152611a4581611a09565b9050919050565b7f50726f64756374204944206d7573742062652076616c69640000000000000000600082015250565b6000611a82601883611767565b9150611a8d82611a4c565b602082019050919050565b60006020820190508181036000830152611ab181611a75565b9050919050565b7f5374617274206461746520697320726571756972656400000000000000000000600082015250565b6000611aee601683611767565b9150611af982611ab8565b602082019050919050565b60006020820190508181036000830152611b1d81611ae1565b9050919050565b7f456e642064617465206973207265717569726564000000000000000000000000600082015250565b6000611b5a601483611767565b9150611b6582611b24565b602082019050919050565b60006020820190508181036000830152611b8981611b4d565b9050919050565b7f53746172742064617465206d757374206265206265666f726520656e6420646160008201527f7465000000000000000000000000000000000000000000000000000000000000602082015250565b6000611bec602283611767565b9150611bf782611b90565b604082019050919050565b60006020820190508181036000830152611c1b81611bdf565b9050919050565b6000611c2d82610f37565b9150611c3883610f37565b9250828201905080821115611c5057611c4f611661565b5b92915050565b60008190508160005260206000209050919050565b60006020601f8301049050919050565b600082821b905092915050565b600060088302611cb87fffffffffffffffffffffffffffffffffffffffffffffffffffffffffffffffff82611c7b565b611cc28683611c7b565b95508019841693508086168417925050509392505050565b6000819050919050565b6000611cff611cfa611cf584610f37565b611cda565b610f37565b9050919050565b6000819050919050565b611d1983611ce4565b611d2d611d2582611d06565b848454611c88565b825550505050565b600090565b611d42611d35565b611d4d818484611d10565b505050565b5b81811015611d7157611d66600082611d3a565b600181019050611d53565b5050565b601f821115611db657611d8781611c56565b611d9084611c6b565b81016020851015611d9f578190505b611db3611dab85611c6b565b830182611d52565b50505b505050565b600082821c905092915050565b6000611dd960001984600802611dbb565b1980831691505092915050565b6000611df28383611dc8565b9150826002028217905092915050565b611e0b8261123b565b67ffffffffffffffff811115611e2457611e23610d8d565b5b611e2e8254611707565b611e39828285611d75565b600060209050601f831160018114611e6c5760008415611e5a578287015190505b611e648582611de6565b865550611ecc565b601f198416611e7a86611c56565b60005b82811015611ea257848901518255600182019150602085019450602081019050611e7d565b86831015611ebf5784890151611ebb601f891682611dc8565b8355505b6001600288020188555050505b505050505050565b6000611edf8261123b565b611ee98185611767565b9350611ef9818560208601611257565b611f0281610d7c565b840191505092915050565b60006040820190508181036000830152611f278185611ed4565b9050611f3660208301846111a9565b9392505050565b6000819050919050565b611f58611f5382610f37565b611f3d565b82525050565b6000611f6a828a611619565b9150611f768289611f47565b602082019150611f868288611619565b9150611f928287611f47565b602082019150611fa28286611f47565b602082019150611fb28285611619565b9150611fbe8284611f47565b6020820191508190509897505050505050505056fea264697066735822122030ceac0e56fd611d747d10d660d4af2fc74d38a453034d5927b51682e7fc417e64736f6c63430008140033",
  "immutableReferences": {},
  "source": "\r\n// SPDX-License-Identifier: MIT\r\npragma solidity ^0.8.0;\r\n\r\ncontract TraceabilityContract {\r\n    uint256 private _batchIdCounter;\r\n\r\n    struct Batch {\r\n        uint256 batchId;\r\n        string sscc;\r\n        uint256 producerId;\r\n        string quantity;\r\n        uint256 productionDate;\r\n        uint256 expiryDate;\r\n        uint256 startDate;\r\n        uint256 endDate;\r\n        BatchStatus status;\r\n        string[] productImageUrls; // Change to array\r\n        string certificateImageUrl;\r\n        string farmPlotNumber;\r\n        bytes32 dataHash;\r\n        uint256 productId;\r\n    }\r\n\r\n    enum BatchStatus { Created, PendingApproval, Approved, Rejected }\r\n\r\n    mapping(uint256 => Batch) private _batches;\r\n    mapping(string => uint256) private _ssccToBatchId;\r\n\r\n    event BatchCreated(uint256 indexed batchId, string sscc, uint256 producerId);\r\n\r\n    struct BatchParams {\r\n        string sscc;\r\n        uint256 producerId;\r\n        string quantity;\r\n        string[] productImageUrls; // Change to array\r\n        string certificateImageUrl;\r\n        string farmPlotNumber;\r\n        uint256 productId;\r\n        uint256 startDate;\r\n        uint256 endDate;\r\n    }\r\n\r\n    function createBatch(\r\n        string memory _sscc,\r\n        uint256 _producerId,\r\n        string memory _quantity,\r\n        string[] memory _productImageUrls, //  thay i thnh mng\r\n        string memory _certificateImageUrl,\r\n        string memory _farmPlotNumber,\r\n        uint256 _productId,\r\n        uint256 _startDate,\r\n        uint256 _endDate\r\n    ) public returns (uint256) {\r\n        BatchParams memory params = BatchParams({\r\n            sscc: _sscc,\r\n            producerId: _producerId,\r\n            quantity: _quantity,\r\n            productImageUrls: _productImageUrls, //  sa\r\n            certificateImageUrl: _certificateImageUrl,\r\n            farmPlotNumber: _farmPlotNumber,\r\n            productId: _productId,\r\n            startDate: _startDate,\r\n            endDate: _endDate\r\n        });\r\n\r\n        return _createBatch(params);\r\n    }\r\n\r\n    \r\n    function _createBatch(BatchParams memory params) private returns (uint256) {\r\n        require(bytes(params.sscc).length == 18, \"SSCC must be 18 characters long\");\r\n        require(_ssccToBatchId[params.sscc] == 0, \"SSCC already exists\");\r\n        require(bytes(params.quantity).length > 0, \"Quantity must not be empty\");\r\n        require(params.productImageUrls.length > 0, \"At least one product image URL is required\");\r\n        require(bytes(params.certificateImageUrl).length > 0, \"Certificate image URL is required\");\r\n        require(bytes(params.farmPlotNumber).length > 0, \"Farm plot number is required\");\r\n        require(params.productId > 0, \"Product ID must be valid\");\r\n        require(params.startDate > 0, \"Start date is required\");\r\n        require(params.endDate > 0, \"End date is required\");\r\n        require(params.startDate < params.endDate, \"Start date must be before end date\");\r\n\r\n        _batchIdCounter++;\r\n        uint256 newBatchId = _batchIdCounter;\r\n\r\n        uint256 productionDate = block.timestamp;\r\n        uint256 expiryDate = productionDate + 365 days;\r\n\r\n        bytes32 dataHash = _calculateDataHash(\r\n            params.sscc,\r\n            params.producerId,\r\n            params.quantity,\r\n            productionDate,\r\n            expiryDate,\r\n            params.farmPlotNumber,\r\n            params.productId\r\n        );\r\n\r\n        Batch memory newBatch = Batch({\r\n            batchId: newBatchId,\r\n            sscc: params.sscc,\r\n            producerId: params.producerId,\r\n            quantity: params.quantity,\r\n            productionDate: productionDate,\r\n            expiryDate: expiryDate,\r\n            startDate: params.startDate,\r\n            endDate: params.endDate,\r\n            status: BatchStatus.PendingApproval,\r\n            productImageUrls: params.productImageUrls, //  sa\r\n            certificateImageUrl: params.certificateImageUrl,\r\n            farmPlotNumber: params.farmPlotNumber,\r\n            dataHash: dataHash,\r\n            productId: params.productId\r\n        });\r\n\r\n        _batches[newBatchId] = newBatch;\r\n        _ssccToBatchId[params.sscc] = newBatchId;\r\n\r\n        emit BatchCreated(newBatchId, params.sscc, params.producerId);\r\n        return newBatchId;\r\n    }\r\n    function _calculateDataHash(\r\n        string memory _sscc,\r\n        uint256 _producerId,\r\n        // Remove the approverId parameter\r\n        string memory _quantity,\r\n        uint256 _productionDate,\r\n        uint256 _expiryDate,\r\n        string memory _farmPlotNumber,\r\n        uint256 _productId\r\n    ) private pure returns (bytes32) {\r\n        return keccak256(abi.encodePacked(_sscc, _producerId, _quantity, _productionDate, _expiryDate, _farmPlotNumber, _productId));\r\n    }\r\n    // hm kim tra sscc  tn ti hay cha \r\n    function ssccExists(string memory sscc) public view returns (bool) {\r\n        return _ssccToBatchId[sscc] != 0;\r\n    }\r\n\r\n    // Hm mi  ly danh sch cc l hng da trn producerId\r\n    function getBatchesByProducer(uint256 producerId) public view returns (Batch[] memory) {\r\n        uint256 count = 0;\r\n        for (uint256 i = 1; i <= _batchIdCounter; i++) {\r\n            if (_batches[i].producerId == producerId) {\r\n                count++;\r\n            }\r\n        }\r\n\r\n        Batch[] memory batches = new Batch[](count);\r\n        uint256 index = 0;\r\n        for (uint256 i = 1; i <= _batchIdCounter; i++) {\r\n            if (_batches[i].producerId == producerId) {\r\n                batches[index] = _batches[i];\r\n                index++;\r\n            }\r\n        }\r\n\r\n        return batches;\r\n    }\r\n}",
  "sourcePath": "D:\\projects\\nckh-be\\blockchain\\contracts\\supplychain.sol",
  "compiler": {
    "name": "solc",
    "version": "0.8.20+commit.a1b79de6.Emscripten.clang"
  },
  "schemaVersion": "3.4.16",
  "updatedAt": "2024-09-05T14:16:42.066Z",
  "networkType": "ethereum",
  "devdoc": {
    "kind": "dev",
    "methods": {},
    "version": 1
  },
  "userdoc": {
    "kind": "user",
    "methods": {},
    "version": 1
  }
}