{
  "contractName": "TraceabilityContract",
  "abi": [
    {
      "inputs": [],
      "stateMutability": "nonpayable",
      "type": "constructor"
    },
    {
      "anonymous": false,
      "inputs": [
        {
          "indexed": true,
          "internalType": "uint256",
          "name": "batchId",
          "type": "uint256"
        },
        {
          "indexed": false,
          "internalType": "string",
          "name": "sscc",
          "type": "string"
        },
        {
          "indexed": false,
          "internalType": "uint256",
          "name": "producerId",
          "type": "uint256"
        },
        {
          "indexed": false,
          "internalType": "uint256",
          "name": "approverId",
          "type": "uint256"
        }
      ],
      "name": "BatchCreated",
      "type": "event"
    },
    {
      "anonymous": false,
      "inputs": [
        {
          "indexed": true,
          "internalType": "uint256",
          "name": "userId",
          "type": "uint256"
        },
        {
          "indexed": false,
          "internalType": "string",
          "name": "action",
          "type": "string"
        },
        {
          "indexed": false,
          "internalType": "uint256",
          "name": "batchId",
          "type": "uint256"
        }
      ],
      "name": "NewSystemActivity",
      "type": "event"
    },
    {
      "anonymous": false,
      "inputs": [
        {
          "indexed": true,
          "internalType": "uint256",
          "name": "userId",
          "type": "uint256"
        },
        {
          "indexed": false,
          "internalType": "string",
          "name": "action",
          "type": "string"
        },
        {
          "indexed": false,
          "internalType": "uint256",
          "name": "batchId",
          "type": "uint256"
        },
        {
          "indexed": false,
          "internalType": "string",
          "name": "details",
          "type": "string"
        },
        {
          "indexed": false,
          "internalType": "string",
          "name": "imageHash",
          "type": "string"
        }
      ],
      "name": "NewUserActivity",
      "type": "event"
    },
    {
      "inputs": [
        {
          "internalType": "string",
          "name": "_sscc",
          "type": "string"
        },
        {
          "internalType": "uint256",
          "name": "_producerId",
          "type": "uint256"
        },
        {
          "internalType": "string",
          "name": "_quantity",
          "type": "string"
        },
        {
          "internalType": "string",
          "name": "_productImageUrl",
          "type": "string"
        },
        {
          "internalType": "string",
          "name": "_certificateImageUrl",
          "type": "string"
        },
        {
          "internalType": "string",
          "name": "_farmPlotNumber",
          "type": "string"
        },
        {
          "internalType": "uint256",
          "name": "_productId",
          "type": "uint256"
        }
      ],
      "name": "createBatch",
      "outputs": [
        {
          "internalType": "uint256",
          "name": "",
          "type": "uint256"
        }
      ],
      "stateMutability": "nonpayable",
      "type": "function"
    },
    {
      "inputs": [
        {
          "internalType": "uint256",
          "name": "_batchId",
          "type": "uint256"
        },
        {
          "internalType": "bool",
          "name": "_isApproved",
          "type": "bool"
        }
      ],
      "name": "approveBatch",
      "outputs": [],
      "stateMutability": "nonpayable",
      "type": "function"
    },
    {
      "inputs": [
        {
          "internalType": "uint256",
          "name": "_batchId",
          "type": "uint256"
        },
        {
          "internalType": "enum TraceabilityContract.BatchStatus",
          "name": "_newStatus",
          "type": "uint8"
        }
      ],
      "name": "updateBatchStatus",
      "outputs": [],
      "stateMutability": "nonpayable",
      "type": "function"
    },
    {
      "inputs": [
        {
          "internalType": "uint256",
          "name": "_batchId",
          "type": "uint256"
        },
        {
          "internalType": "string",
          "name": "_newProductImageUrl",
          "type": "string"
        },
        {
          "internalType": "string",
          "name": "_newCertificateImageUrl",
          "type": "string"
        },
        {
          "internalType": "uint256",
          "name": "_producerId",
          "type": "uint256"
        }
      ],
      "name": "updateBatchImages",
      "outputs": [],
      "stateMutability": "nonpayable",
      "type": "function"
    },
    {
      "inputs": [
        {
          "internalType": "uint256",
          "name": "_batchId",
          "type": "uint256"
        }
      ],
      "name": "getBatchInfo",
      "outputs": [
        {
          "components": [
            {
              "internalType": "uint256",
              "name": "batchId",
              "type": "uint256"
            },
            {
              "internalType": "string",
              "name": "sscc",
              "type": "string"
            },
            {
              "internalType": "uint256",
              "name": "producerId",
              "type": "uint256"
            },
            {
              "internalType": "uint256",
              "name": "approverId",
              "type": "uint256"
            },
            {
              "internalType": "string",
              "name": "quantity",
              "type": "string"
            },
            {
              "internalType": "uint256",
              "name": "productionDate",
              "type": "uint256"
            },
            {
              "internalType": "uint256",
              "name": "expiryDate",
              "type": "uint256"
            },
            {
              "internalType": "enum TraceabilityContract.BatchStatus",
              "name": "status",
              "type": "uint8"
            },
            {
              "internalType": "string",
              "name": "productImageUrl",
              "type": "string"
            },
            {
              "internalType": "string",
              "name": "certificateImageUrl",
              "type": "string"
            },
            {
              "internalType": "string",
              "name": "farmPlotNumber",
              "type": "string"
            },
            {
              "internalType": "bytes32",
              "name": "dataHash",
              "type": "bytes32"
            },
            {
              "internalType": "uint256",
              "name": "productId",
              "type": "uint256"
            }
          ],
          "internalType": "struct TraceabilityContract.Batch",
          "name": "",
          "type": "tuple"
        }
      ],
      "stateMutability": "view",
      "type": "function",
      "constant": true
    },
    {
      "inputs": [
        {
          "internalType": "string",
          "name": "_sscc",
          "type": "string"
        }
      ],
      "name": "getBatchIdBySSCC",
      "outputs": [
        {
          "internalType": "uint256",
          "name": "",
          "type": "uint256"
        }
      ],
      "stateMutability": "view",
      "type": "function",
      "constant": true
    },
    {
      "inputs": [
        {
          "internalType": "uint256",
          "name": "producer",
          "type": "uint256"
        }
      ],
      "name": "addProducer",
      "outputs": [],
      "stateMutability": "nonpayable",
      "type": "function"
    },
    {
      "inputs": [
        {
          "internalType": "uint256",
          "name": "approver",
          "type": "uint256"
        }
      ],
      "name": "addApprover",
      "outputs": [],
      "stateMutability": "nonpayable",
      "type": "function"
    },
    {
      "inputs": [],
      "name": "pause",
      "outputs": [],
      "stateMutability": "nonpayable",
      "type": "function"
    },
    {
      "inputs": [],
      "name": "unpause",
      "outputs": [],
      "stateMutability": "nonpayable",
      "type": "function"
    },
    {
      "inputs": [
        {
          "internalType": "uint256",
          "name": "userId",
          "type": "uint256"
        }
      ],
      "name": "getSystemActivities",
      "outputs": [
        {
          "components": [
            {
              "internalType": "uint256",
              "name": "timestamp",
              "type": "uint256"
            },
            {
              "internalType": "string",
              "name": "action",
              "type": "string"
            },
            {
              "internalType": "uint256",
              "name": "batchId",
              "type": "uint256"
            },
            {
              "internalType": "uint256",
              "name": "userId",
              "type": "uint256"
            }
          ],
          "internalType": "struct TraceabilityContract.SystemActivity[]",
          "name": "",
          "type": "tuple[]"
        }
      ],
      "stateMutability": "view",
      "type": "function",
      "constant": true
    },
    {
      "inputs": [
        {
          "internalType": "uint256",
          "name": "userId",
          "type": "uint256"
        }
      ],
      "name": "getUserActivities",
      "outputs": [
        {
          "components": [
            {
              "internalType": "uint256",
              "name": "timestamp",
              "type": "uint256"
            },
            {
              "internalType": "string",
              "name": "action",
              "type": "string"
            },
            {
              "internalType": "uint256",
              "name": "batchId",
              "type": "uint256"
            },
            {
              "internalType": "string",
              "name": "details",
              "type": "string"
            },
            {
              "internalType": "string",
              "name": "imageHash",
              "type": "string"
            },
            {
              "internalType": "uint256",
              "name": "userId",
              "type": "uint256"
            }
          ],
          "internalType": "struct TraceabilityContract.UserActivity[]",
          "name": "",
          "type": "tuple[]"
        }
      ],
      "stateMutability": "view",
      "type": "function",
      "constant": true
    },
    {
      "inputs": [
        {
          "internalType": "uint256",
          "name": "_batchId",
          "type": "uint256"
        },
        {
          "internalType": "string",
          "name": "_action",
          "type": "string"
        },
        {
          "internalType": "string",
          "name": "_details",
          "type": "string"
        },
        {
          "internalType": "string",
          "name": "_imageHash",
          "type": "string"
        }
      ],
      "name": "addProducerActivity",
      "outputs": [],
      "stateMutability": "nonpayable",
      "type": "function"
    },
    {
      "inputs": [],
      "name": "getAdmin",
      "outputs": [
        {
          "internalType": "uint256",
          "name": "",
          "type": "uint256"
        }
      ],
      "stateMutability": "view",
      "type": "function",
      "constant": true
    },
    {
      "inputs": [],
      "name": "getPendingBatches",
      "outputs": [
        {
          "internalType": "uint256[]",
          "name": "",
          "type": "uint256[]"
        }
      ],
      "stateMutability": "view",
      "type": "function",
      "constant": true
    },
    {
      "inputs": [
        {
          "internalType": "uint256",
          "name": "userId",
          "type": "uint256"
        },
        {
          "internalType": "uint256",
          "name": "regionId",
          "type": "uint256"
        }
      ],
      "name": "setUserRegion",
      "outputs": [],
      "stateMutability": "nonpayable",
      "type": "function"
    },
    {
      "inputs": [
        {
          "internalType": "uint256",
          "name": "approverId",
          "type": "uint256"
        },
        {
          "internalType": "uint256",
          "name": "regionId",
          "type": "uint256"
        }
      ],
      "name": "addApproverToRegion",
      "outputs": [],
      "stateMutability": "nonpayable",
      "type": "function"
    },
    {
      "inputs": [
        {
          "internalType": "uint256",
          "name": "regionId",
          "type": "uint256"
        }
      ],
      "name": "getRegionApprovers",
      "outputs": [
        {
          "internalType": "uint256[]",
          "name": "",
          "type": "uint256[]"
        }
      ],
      "stateMutability": "view",
      "type": "function",
      "constant": true
    }
  ],
  "bytecode": "0x608060405234801561001057600080fd5b503373ffffffffffffffffffffffffffffffffffffffff16600281905550613edb8061003d6000396000f3fe608060405234801561001057600080fd5b50600436106101165760003560e01c80636e9960c3116100a2578063909aacbc11610071578063909aacbc146102b5578063a899c1f1146102d1578063ade1d30414610301578063cc7c981e14610331578063d59317d61461034d57610116565b80636e9960c3146102555780636f0568231461027357806379227a251461028f5780638456cb59146102ab57610116565b806334c505c6116100e957806334c505c6146101c75780633d18cf57146101f75780633f4ba83a1461021357806352c88f361461021d578063650871fe1461023957610116565b806306f38e161461011b578063110bc0921461013757806319d6ed3c146101675780631a0058f514610197575b600080fd5b610135600480360381019061013091906129ae565b61036b565b005b610151600480360381019061014c91906126b9565b6103e1565b60405161015e9190613ab3565b60405180910390f35b610181600480360381019061017c9190612678565b6109f3565b60405161018e9190613ab3565b60405180910390f35b6101b160048036038101906101ac91906127cf565b610a1b565b6040516101be9190613a91565b60405180910390f35b6101e160048036038101906101dc91906127cf565b610e35565b6040516101ee919061367b565b60405180910390f35b610211600480360381019061020c91906127f8565b61107b565b005b61021b6114c7565b005b61023760048036038101906102329190612834565b61153e565b005b610253600480360381019061024e91906129ae565b6117d5565b005b61025d6118e5565b60405161026a9190613ab3565b60405180910390f35b61028d6004803603810190610288919061291b565b6118ef565b005b6102a960048036038101906102a491906127cf565b611b86565b005b6102b3611c0e565b005b6102cf60048036038101906102ca91906127cf565b611c85565b005b6102eb60048036038101906102e691906127cf565b611d0d565b6040516102f89190613659565b60405180910390f35b61031b600480360381019061031691906127cf565b611e2f565b604051610328919061369d565b60405180910390f35b61034b60048036038101906103469190612870565b611e9a565b005b610355611fcb565b604051610362919061369d565b60405180910390f35b6002543373ffffffffffffffffffffffffffffffffffffffff16146103c5576040517f08c379a00000000000000000000000000000000000000000000000000000000081526004016103bc90613903565b60405180910390fd5b8060096000848152602001908152602001600020819055505050565b6000600360009054906101000a900460ff1615610433576040517f08c379a000000000000000000000000000000000000000000000000000000000815260040161042a90613a03565b60405180910390fd5b6012885114610477576040517f08c379a000000000000000000000000000000000000000000000000000000000815260040161046e906138e3565b60405180910390fd5b600060068960405161048991906135bc565b908152602001604051809103902054146104d8576040517f08c379a00000000000000000000000000000000000000000000000000000000081526004016104cf90613863565b60405180910390fd5b600086511161051c576040517f08c379a0000000000000000000000000000000000000000000000000000000008152600401610513906138a3565b60405180910390fd5b6000855111610560576040517f08c379a0000000000000000000000000000000000000000000000000000000008152600401610557906139c3565b60405180910390fd5b60008451116105a4576040517f08c379a000000000000000000000000000000000000000000000000000000000815260040161059b90613a43565b60405180910390fd5b60008351116105e8576040517f08c379a00000000000000000000000000000000000000000000000000000000081526004016105df906138c3565b60405180910390fd5b6000821161062b576040517f08c379a000000000000000000000000000000000000000000000000000000000815260040161062290613843565b60405180910390fd5b60008088815260200190815260200160002060009054906101000a900460ff1661068a576040517f08c379a000000000000000000000000000000000000000000000000000000000815260040161068190613883565b60405180910390fd5b3373ffffffffffffffffffffffffffffffffffffffff1687146106e2576040517f08c379a00000000000000000000000000000000000000000000000000000000081526004016106d990613983565b60405180910390fd5b600460008154809291906106f590613d33565b919050555060006004549050600042905060006301e13380826107189190613c12565b90506000604051806101a001604052808581526020018d81526020018c8152602001600081526020018b81526020018481526020018381526020016001600381111561078d577f4e487b7100000000000000000000000000000000000000000000000000000000600052602160045260246000fd5b81526020018a81526020018981526020018881526020016107b58e8e60008f89898f8f61223c565b815260200187815250905080600560008681526020019081526020016000206000820151816000015560208201518160010190805190602001906107fa92919061248b565b506040820151816002015560608201518160030155608082015181600401908051906020019061082b92919061248b565b5060a0820151816005015560c0820151816006015560e08201518160070160006101000a81548160ff02191690836003811115610891577f4e487b7100000000000000000000000000000000000000000000000000000000600052602160045260246000fd5b02179055506101008201518160080190805190602001906108b392919061248b565b506101208201518160090190805190602001906108d192919061248b565b5061014082015181600a0190805190602001906108ef92919061248b565b5061016082015181600b015561018082015181600c01559050508360068d60405161091a91906135bc565b90815260200160405180910390208190555061096c8b6040518060400160405280600d81526020017f437265617465642042617463680000000000000000000000000000000000000081525086612281565b8a7fdeefa9005c0b2a4c87816a4cfd8dd628befdc3610f42b4a21f338c62f4b119aa8560405161099c9190613a63565b60405180910390a2837fcfc3a8401549578cdc3a4450882d09189a820561ebadb683b484bc6bd62dd4ef8d8d60006040516109d9939291906136ef565b60405180910390a283945050505050979650505050505050565b6000600682604051610a0591906135bc565b9081526020016040518091039020549050919050565b610a23612511565b600454821115610a68576040517f08c379a0000000000000000000000000000000000000000000000000000000008152600401610a5f90613823565b60405180910390fd5b60056000838152602001908152602001600020604051806101a001604052908160008201548152602001600182018054610aa190613d01565b80601f0160208091040260200160405190810160405280929190818152602001828054610acd90613d01565b8015610b1a5780601f10610aef57610100808354040283529160200191610b1a565b820191906000526020600020905b815481529060010190602001808311610afd57829003601f168201915b505050505081526020016002820154815260200160038201548152602001600482018054610b4790613d01565b80601f0160208091040260200160405190810160405280929190818152602001828054610b7390613d01565b8015610bc05780601f10610b9557610100808354040283529160200191610bc0565b820191906000526020600020905b815481529060010190602001808311610ba357829003601f168201915b5050505050815260200160058201548152602001600682015481526020016007820160009054906101000a900460ff166003811115610c28577f4e487b7100000000000000000000000000000000000000000000000000000000600052602160045260246000fd5b6003811115610c60577f4e487b7100000000000000000000000000000000000000000000000000000000600052602160045260246000fd5b8152602001600882018054610c7490613d01565b80601f0160208091040260200160405190810160405280929190818152602001828054610ca090613d01565b8015610ced5780601f10610cc257610100808354040283529160200191610ced565b820191906000526020600020905b815481529060010190602001808311610cd057829003601f168201915b50505050508152602001600982018054610d0690613d01565b80601f0160208091040260200160405190810160405280929190818152602001828054610d3290613d01565b8015610d7f5780601f10610d5457610100808354040283529160200191610d7f565b820191906000526020600020905b815481529060010190602001808311610d6257829003601f168201915b50505050508152602001600a82018054610d9890613d01565b80601f0160208091040260200160405190810160405280929190818152602001828054610dc490613d01565b8015610e115780601f10610de657610100808354040283529160200191610e11565b820191906000526020600020905b815481529060010190602001808311610df457829003601f168201915b50505050508152602001600b8201548152602001600c820154815250509050919050565b606060086000838152602001908152602001600020805480602002602001604051908101604052809291908181526020016000905b8282101561107057838290600052602060002090600602016040518060c001604052908160008201548152602001600182018054610ea790613d01565b80601f0160208091040260200160405190810160405280929190818152602001828054610ed390613d01565b8015610f205780601f10610ef557610100808354040283529160200191610f20565b820191906000526020600020905b815481529060010190602001808311610f0357829003601f168201915b5050505050815260200160028201548152602001600382018054610f4390613d01565b80601f0160208091040260200160405190810160405280929190818152602001828054610f6f90613d01565b8015610fbc5780601f10610f9157610100808354040283529160200191610fbc565b820191906000526020600020905b815481529060010190602001808311610f9f57829003601f168201915b50505050508152602001600482018054610fd590613d01565b80601f016020809104026020016040519081016040528092919081815260200182805461100190613d01565b801561104e5780601f106110235761010080835404028352916020019161104e565b820191906000526020600020905b81548152906001019060200180831161103157829003601f168201915b5050505050815260200160058201548152505081526020019060010190610e6a565b505050509050919050565b600360009054906101000a900460ff16156110cb576040517f08c379a00000000000000000000000000000000000000000000000000000000081526004016110c290613a03565b60405180910390fd5b600160003373ffffffffffffffffffffffffffffffffffffffff16815260200190815260200160002060009054906101000a900460ff16611141576040517f08c379a0000000000000000000000000000000000000000000000000000000008152600401611138906139a3565b60405180910390fd5b60006005600084815260200190815260200160002060000154141561119b576040517f08c379a000000000000000000000000000000000000000000000000000000000815260040161119290613823565b60405180910390fd5b600160038111156111d5577f4e487b7100000000000000000000000000000000000000000000000000000000600052602160045260246000fd5b6005600084815260200190815260200160002060070160009054906101000a900460ff166003811115611231577f4e487b7100000000000000000000000000000000000000000000000000000000600052602160045260246000fd5b14611271576040517f08c379a000000000000000000000000000000000000000000000000000000000815260040161126890613943565b60405180910390fd5b60003373ffffffffffffffffffffffffffffffffffffffff169050600060056000858152602001908152602001600020600201549050600960008281526020019081526020016000205460096000848152602001908152602001600020541461130f576040517f08c379a000000000000000000000000000000000000000000000000000000000815260040161130690613963565b60405180910390fd5b816005600086815260200190815260200160002060030181905550821561139a5760026005600086815260200190815260200160002060070160006101000a81548160ff02191690836003811115611390577f4e487b7100000000000000000000000000000000000000000000000000000000600052602160045260246000fd5b0217905550611400565b60036005600086815260200190815260200160002060070160006101000a81548160ff021916908360038111156113fa577f4e487b7100000000000000000000000000000000000000000000000000000000600052602160045260246000fd5b02179055505b600083611442576040518060400160405280600e81526020017f52656a6563746564204261746368000000000000000000000000000000000000815250611479565b6040518060400160405280600e81526020017f417070726f7665642042617463680000000000000000000000000000000000008152505b9050611486838287612281565b827fdeefa9005c0b2a4c87816a4cfd8dd628befdc3610f42b4a21f338c62f4b119aa82876040516114b89291906136bf565b60405180910390a25050505050565b6002543373ffffffffffffffffffffffffffffffffffffffff1614611521576040517f08c379a000000000000000000000000000000000000000000000000000000000815260040161151890613903565b60405180910390fd5b6000600360006101000a81548160ff021916908315150217905550565b600360009054906101000a900460ff161561158e576040517f08c379a000000000000000000000000000000000000000000000000000000000815260040161158590613a03565b60405180910390fd5b600160003373ffffffffffffffffffffffffffffffffffffffff16815260200190815260200160002060009054906101000a900460ff16611604576040517f08c379a00000000000000000000000000000000000000000000000000000000081526004016115fb906139a3565b60405180910390fd5b600454821115611649576040517f08c379a000000000000000000000000000000000000000000000000000000000815260040161164090613823565b60405180910390fd5b60016003811115611683577f4e487b7100000000000000000000000000000000000000000000000000000000600052602160045260246000fd5b6005600084815260200190815260200160002060070160009054906101000a900460ff1660038111156116df577f4e487b7100000000000000000000000000000000000000000000000000000000600052602160045260246000fd5b1461171f576040517f08c379a0000000000000000000000000000000000000000000000000000000008152600401611716906137a7565b60405180910390fd5b806005600084815260200190815260200160002060070160006101000a81548160ff0219169083600381111561177e577f4e487b7100000000000000000000000000000000000000000000000000000000600052602160045260246000fd5b02179055503373ffffffffffffffffffffffffffffffffffffffff167fdeefa9005c0b2a4c87816a4cfd8dd628befdc3610f42b4a21f338c62f4b119aa836040516117c991906137c7565b60405180910390a25050565b6002543373ffffffffffffffffffffffffffffffffffffffff161461182f576040517f08c379a000000000000000000000000000000000000000000000000000000000815260040161182690613903565b60405180910390fd5b6001600083815260200190815260200160002060009054906101000a900460ff1661188f576040517f08c379a000000000000000000000000000000000000000000000000000000000815260040161188690613a23565b60405180910390fd5b806009600084815260200190815260200160002081905550600a60008281526020019081526020016000208290806001815401808255809150506001900390600052602060002001600090919091909150555050565b6000600254905090565b600360009054906101000a900460ff161561193f576040517f08c379a000000000000000000000000000000000000000000000000000000000815260040161193690613a03565b60405180910390fd5b600454841115611984576040517f08c379a000000000000000000000000000000000000000000000000000000000815260040161197b90613823565b60405180910390fd5b600160038111156119be577f4e487b7100000000000000000000000000000000000000000000000000000000600052602160045260246000fd5b6005600086815260200190815260200160002060070160009054906101000a900460ff166003811115611a1a577f4e487b7100000000000000000000000000000000000000000000000000000000600052602160045260246000fd5b14611a5a576040517f08c379a0000000000000000000000000000000000000000000000000000000008152600401611a51906139e3565b60405180910390fd5b80600560008681526020019081526020016000206002015414611ab2576040517f08c379a0000000000000000000000000000000000000000000000000000000008152600401611aa990613923565b60405180910390fd5b82600560008681526020019081526020016000206008019080519060200190611adc92919061248b565b5081600560008681526020019081526020016000206009019080519060200190611b0792919061248b565b50611b48816040518060400160405280601481526020017f5570646174656420426174636820496d6167657300000000000000000000000081525086612281565b807fdeefa9005c0b2a4c87816a4cfd8dd628befdc3610f42b4a21f338c62f4b119aa85604051611b7891906137f5565b60405180910390a250505050565b6002543373ffffffffffffffffffffffffffffffffffffffff1614611be0576040517f08c379a0000000000000000000000000000000000000000000000000000000008152600401611bd790613903565b60405180910390fd5b600180600083815260200190815260200160002060006101000a81548160ff02191690831515021790555050565b6002543373ffffffffffffffffffffffffffffffffffffffff1614611c68576040517f08c379a0000000000000000000000000000000000000000000000000000000008152600401611c5f90613903565b60405180910390fd5b6001600360006101000a81548160ff021916908315150217905550565b6002543373ffffffffffffffffffffffffffffffffffffffff1614611cdf576040517f08c379a0000000000000000000000000000000000000000000000000000000008152600401611cd690613903565b60405180910390fd5b600160008083815260200190815260200160002060006101000a81548160ff02191690831515021790555050565b606060076000838152602001908152602001600020805480602002602001604051908101604052809291908181526020016000905b82821015611e24578382906000526020600020906004020160405180608001604052908160008201548152602001600182018054611d7f90613d01565b80601f0160208091040260200160405190810160405280929190818152602001828054611dab90613d01565b8015611df85780601f10611dcd57610100808354040283529160200191611df8565b820191906000526020600020905b815481529060010190602001808311611ddb57829003601f168201915b505050505081526020016002820154815260200160038201548152505081526020019060010190611d42565b505050509050919050565b6060600a6000838152602001908152602001600020805480602002602001604051908101604052809291908181526020018280548015611e8e57602002820191906000526020600020905b815481526020019060010190808311611e7a575b50505050509050919050565b600360009054906101000a900460ff1615611eea576040517f08c379a0000000000000000000000000000000000000000000000000000000008152600401611ee190613a03565b60405180910390fd5b600060056000868152602001908152602001600020600001541415611f44576040517f08c379a0000000000000000000000000000000000000000000000000000000008152600401611f3b90613823565b60405180910390fd5b6000600560008681526020019081526020016000206002015490503373ffffffffffffffffffffffffffffffffffffffff168114611fb7576040517f08c379a0000000000000000000000000000000000000000000000000000000008152600401611fae90613787565b60405180910390fd5b611fc48185878686612360565b5050505050565b6060600160003373ffffffffffffffffffffffffffffffffffffffff16815260200190815260200160002060009054906101000a900460ff16612043576040517f08c379a000000000000000000000000000000000000000000000000000000000815260040161203a906139a3565b60405180910390fd5b600060045467ffffffffffffffff811115612087577f4e487b7100000000000000000000000000000000000000000000000000000000600052604160045260246000fd5b6040519080825280602002602001820160405280156120b55781602001602082028036833780820191505090505b509050600080600960003373ffffffffffffffffffffffffffffffffffffffff1681526020019081526020016000205490506000600190505b600454811161222f5760016003811115612131577f4e487b7100000000000000000000000000000000000000000000000000000000600052602160045260246000fd5b6005600083815260200190815260200160002060070160009054906101000a900460ff16600381111561218d577f4e487b7100000000000000000000000000000000000000000000000000000000600052602160045260246000fd5b1480156121c2575081600960006005600085815260200190815260200160002060020154815260200190815260200160002054145b1561221c5780848481518110612201577f4e487b7100000000000000000000000000000000000000000000000000000000600052603260045260246000fd5b602002602001018181525050828061221890613d33565b9350505b808061222790613d33565b9150506120ee565b5081835282935050505090565b6000888888888888888860405160200161225d9897969594939291906135d3565b60405160208183030381529060405280519060200120905098975050505050505050565b600060405180608001604052804281526020018481526020018381526020018581525090506007600085815260200190815260200160002081908060018154018082558091505060019003906000526020600020906004020160009091909190915060008201518160000155602082015181600101908051906020019061230992919061248b565b5060408201518160020155606082015181600301555050837fdeefa9005c0b2a4c87816a4cfd8dd628befdc3610f42b4a21f338c62f4b119aa84846040516123529291906136bf565b60405180910390a250505050565b60006040518060c00160405280428152602001868152602001858152602001848152602001838152602001878152509050600860008781526020019081526020016000208190806001815401808255809150506001900390600052602060002090600602016000909190919091506000820151816000015560208201518160010190805190602001906123f492919061248b565b5060408201518160020155606082015181600301908051906020019061241b92919061248b565b50608082015181600401908051906020019061243892919061248b565b5060a082015181600501555050857f4db5e5735849a4ba3ae1b6c777186c74c21cc43151df42daac36b50a7cac5e9d8686868660405161247b949392919061372d565b60405180910390a2505050505050565b82805461249790613d01565b90600052602060002090601f0160209004810192826124b95760008555612500565b82601f106124d257805160ff1916838001178555612500565b82800160010185558215612500579182015b828111156124ff5782518255916020019190600101906124e4565b5b50905061250d91906125b4565b5090565b604051806101a001604052806000815260200160608152602001600081526020016000815260200160608152602001600081526020016000815260200160006003811115612588577f4e487b7100000000000000000000000000000000000000000000000000000000600052602160045260246000fd5b815260200160608152602001606081526020016060815260200160008019168152602001600081525090565b5b808211156125cd5760008160009055506001016125b5565b5090565b60006125e46125df84613aff565b613ace565b9050828152602081018484840111156125fc57600080fd5b612607848285613cbf565b509392505050565b60008135905061261e81613e67565b92915050565b60008135905061263381613e7e565b92915050565b600082601f83011261264a57600080fd5b813561265a8482602086016125d1565b91505092915050565b60008135905061267281613e8e565b92915050565b60006020828403121561268a57600080fd5b600082013567ffffffffffffffff8111156126a457600080fd5b6126b084828501612639565b91505092915050565b600080600080600080600060e0888a0312156126d457600080fd5b600088013567ffffffffffffffff8111156126ee57600080fd5b6126fa8a828b01612639565b975050602061270b8a828b01612663565b965050604088013567ffffffffffffffff81111561272857600080fd5b6127348a828b01612639565b955050606088013567ffffffffffffffff81111561275157600080fd5b61275d8a828b01612639565b945050608088013567ffffffffffffffff81111561277a57600080fd5b6127868a828b01612639565b93505060a088013567ffffffffffffffff8111156127a357600080fd5b6127af8a828b01612639565b92505060c06127c08a828b01612663565b91505092959891949750929550565b6000602082840312156127e157600080fd5b60006127ef84828501612663565b91505092915050565b6000806040838503121561280b57600080fd5b600061281985828601612663565b925050602061282a8582860161260f565b9150509250929050565b6000806040838503121561284757600080fd5b600061285585828601612663565b925050602061286685828601612624565b9150509250929050565b6000806000806080858703121561288657600080fd5b600061289487828801612663565b945050602085013567ffffffffffffffff8111156128b157600080fd5b6128bd87828801612639565b935050604085013567ffffffffffffffff8111156128da57600080fd5b6128e687828801612639565b925050606085013567ffffffffffffffff81111561290357600080fd5b61290f87828801612639565b91505092959194509250565b6000806000806080858703121561293157600080fd5b600061293f87828801612663565b945050602085013567ffffffffffffffff81111561295c57600080fd5b61296887828801612639565b935050604085013567ffffffffffffffff81111561298557600080fd5b61299187828801612639565b92505060606129a287828801612663565b91505092959194509250565b600080604083850312156129c157600080fd5b60006129cf85828601612663565b92505060206129e085828601612663565b9150509250929050565b60006129f6838361348d565b905092915050565b6000612a0a83836134f0565b905092915050565b6000612a1e8383613587565b60208301905092915050565b6000612a3582613b5f565b612a3f8185613bb2565b935083602082028501612a5185613b2f565b8060005b85811015612a8d5784840389528151612a6e85826129ea565b9450612a7983613b8b565b925060208a01995050600181019050612a55565b50829750879550505050505092915050565b6000612aaa82613b6a565b612ab48185613bc3565b935083602082028501612ac685613b3f565b8060005b85811015612b025784840389528151612ae385826129fe565b9450612aee83613b98565b925060208a01995050600181019050612aca565b50829750879550505050505092915050565b6000612b1f82613b75565b612b298185613bd4565b9350612b3483613b4f565b8060005b83811015612b65578151612b4c8882612a12565b9750612b5783613ba5565b925050600181019050612b38565b5085935050505092915050565b612b7b81613c74565b82525050565b612b8a81613c9b565b82525050565b612b9981613cad565b82525050565b6000612baa82613b80565b612bb48185613be5565b9350612bc4818560208601613cce565b612bcd81613e42565b840191505092915050565b6000612be382613b80565b612bed8185613bf6565b9350612bfd818560208601613cce565b612c0681613e42565b840191505092915050565b6000612c1c82613b80565b612c268185613c07565b9350612c36818560208601613cce565b80840191505092915050565b6000612c4f602d83613bf6565b91507f4e6f7420617574686f72697a656420746f20616464206163746976697479206660008301527f6f722074686973206261746368000000000000000000000000000000000000006020830152604082019050919050565b6000612cb5602983613bf6565b91507f43616e206f6e6c792075706461746520737461747573206f662070656e64696e60008301527f67206261746368657300000000000000000000000000000000000000000000006020830152604082019050919050565b6000612d1b601483613bf6565b91507f55706461746564204261746368205374617475730000000000000000000000006000830152602082019050919050565b6000612d5b601483613bf6565b91507f5570646174656420426174636820496d616765730000000000000000000000006000830152602082019050919050565b6000612d9b601483613bf6565b91507f426174636820646f6573206e6f742065786973740000000000000000000000006000830152602082019050919050565b6000612ddb601883613bf6565b91507f50726f64756374204944206d7573742062652076616c696400000000000000006000830152602082019050919050565b6000612e1b601383613bf6565b91507f5353434320616c726561647920657869737473000000000000000000000000006000830152602082019050919050565b6000612e5b602583613bf6565b91507f4f6e6c792070726f64756365722063616e20706572666f726d2074686973206160008301527f6374696f6e0000000000000000000000000000000000000000000000000000006020830152604082019050919050565b6000612ec1601a83613bf6565b91507f5175616e74697479206d757374206e6f7420626520656d7074790000000000006000830152602082019050919050565b6000612f01601c83613bf6565b91507f4661726d20706c6f74206e756d626572206973207265717569726564000000006000830152602082019050919050565b6000612f41601f83613bf6565b91507f53534343206d7573742062652031382063686172616374657273206c6f6e67006000830152602082019050919050565b6000612f81602283613bf6565b91507f4f6e6c792061646d696e2063616e20706572666f726d2074686973206163746960008301527f6f6e0000000000000000000000000000000000000000000000000000000000006020830152604082019050919050565b6000612fe7602383613bf6565b91507f4e6f7420617574686f72697a656420746f20757064617465207468697320626160008301527f74636800000000000000000000000000000000000000000000000000000000006020830152604082019050919050565b600061304d601d83613bf6565b91507f4261746368206973206e6f742070656e64696e6720617070726f76616c0000006000830152602082019050919050565b600061308d603383613bf6565b91507f417070726f766572206d75737420626520696e207468652073616d652072656760008301527f696f6e206173207468652070726f6475636572000000000000000000000000006020830152604082019050919050565b60006130f3602083613bf6565b91507f50726f64756365724964206d757374206d61746368207468652063616c6c65726000830152602082019050919050565b6000613133602583613bf6565b91507f4f6e6c7920617070726f7665722063616e20706572666f726d2074686973206160008301527f6374696f6e0000000000000000000000000000000000000000000000000000006020830152604082019050919050565b6000613199601d83613bf6565b91507f50726f6475637420696d6167652055524c2069732072657175697265640000006000830152602082019050919050565b60006131d9602983613bf6565b91507f43616e206f6e6c792075706461746520696d61676573206f662070656e64696e60008301527f67206261746368657300000000000000000000000000000000000000000000006020830152604082019050919050565b600061323f601283613bf6565b91507f436f6e74726163742069732070617573656400000000000000000000000000006000830152602082019050919050565b600061327f601783613bf6565b91507f55736572206973206e6f7420616e20617070726f7665720000000000000000006000830152602082019050919050565b60006132bf602183613bf6565b91507f436572746966696361746520696d6167652055524c206973207265717569726560008301527f64000000000000000000000000000000000000000000000000000000000000006020830152604082019050919050565b6000613325600d83613bf6565b91507f43726561746564204261746368000000000000000000000000000000000000006000830152602082019050919050565b60006101a0830160008301516133716000860182613587565b50602083015184820360208601526133898282612b9f565b915050604083015161339e6040860182613587565b5060608301516133b16060860182613587565b50608083015184820360808601526133c98282612b9f565b91505060a08301516133de60a0860182613587565b5060c08301516133f160c0860182613587565b5060e083015161340460e0860182612b81565b5061010083015184820361010086015261341e8282612b9f565b91505061012083015184820361012086015261343a8282612b9f565b9150506101408301518482036101408601526134568282612b9f565b91505061016083015161346d610160860182612b72565b50610180830151613482610180860182613587565b508091505092915050565b60006080830160008301516134a56000860182613587565b50602083015184820360208601526134bd8282612b9f565b91505060408301516134d26040860182613587565b5060608301516134e56060860182613587565b508091505092915050565b600060c0830160008301516135086000860182613587565b50602083015184820360208601526135208282612b9f565b91505060408301516135356040860182613587565b506060830151848203606086015261354d8282612b9f565b915050608083015184820360808601526135678282612b9f565b91505060a083015161357c60a0860182613587565b508091505092915050565b61359081613c91565b82525050565b61359f81613c91565b82525050565b6135b66135b182613c91565b613d7c565b82525050565b60006135c88284612c11565b915081905092915050565b60006135df828b612c11565b91506135eb828a6135a5565b6020820191506135fb82896135a5565b60208201915061360b8288612c11565b915061361782876135a5565b60208201915061362782866135a5565b6020820191506136378285612c11565b915061364382846135a5565b6020820191508190509998505050505050505050565b600060208201905081810360008301526136738184612a2a565b905092915050565b600060208201905081810360008301526136958184612a9f565b905092915050565b600060208201905081810360008301526136b78184612b14565b905092915050565b600060408201905081810360008301526136d98185612bd8565b90506136e86020830184613596565b9392505050565b600060608201905081810360008301526137098186612bd8565b90506137186020830185613596565b6137256040830184612b90565b949350505050565b600060808201905081810360008301526137478187612bd8565b90506137566020830186613596565b81810360408301526137688185612bd8565b9050818103606083015261377c8184612bd8565b905095945050505050565b600060208201905081810360008301526137a081612c42565b9050919050565b600060208201905081810360008301526137c081612ca8565b9050919050565b600060408201905081810360008301526137e081612d0e565b90506137ef6020830184613596565b92915050565b6000604082019050818103600083015261380e81612d4e565b905061381d6020830184613596565b92915050565b6000602082019050818103600083015261383c81612d8e565b9050919050565b6000602082019050818103600083015261385c81612dce565b9050919050565b6000602082019050818103600083015261387c81612e0e565b9050919050565b6000602082019050818103600083015261389c81612e4e565b9050919050565b600060208201905081810360008301526138bc81612eb4565b9050919050565b600060208201905081810360008301526138dc81612ef4565b9050919050565b600060208201905081810360008301526138fc81612f34565b9050919050565b6000602082019050818103600083015261391c81612f74565b9050919050565b6000602082019050818103600083015261393c81612fda565b9050919050565b6000602082019050818103600083015261395c81613040565b9050919050565b6000602082019050818103600083015261397c81613080565b9050919050565b6000602082019050818103600083015261399c816130e6565b9050919050565b600060208201905081810360008301526139bc81613126565b9050919050565b600060208201905081810360008301526139dc8161318c565b9050919050565b600060208201905081810360008301526139fc816131cc565b9050919050565b60006020820190508181036000830152613a1c81613232565b9050919050565b60006020820190508181036000830152613a3c81613272565b9050919050565b60006020820190508181036000830152613a5c816132b2565b9050919050565b60006040820190508181036000830152613a7c81613318565b9050613a8b6020830184613596565b92915050565b60006020820190508181036000830152613aab8184613358565b905092915050565b6000602082019050613ac86000830184613596565b92915050565b6000604051905081810181811067ffffffffffffffff82111715613af557613af4613e13565b5b8060405250919050565b600067ffffffffffffffff821115613b1a57613b19613e13565b5b601f19601f8301169050602081019050919050565b6000819050602082019050919050565b6000819050602082019050919050565b6000819050602082019050919050565b600081519050919050565b600081519050919050565b600081519050919050565b600081519050919050565b6000602082019050919050565b6000602082019050919050565b6000602082019050919050565b600082825260208201905092915050565b600082825260208201905092915050565b600082825260208201905092915050565b600082825260208201905092915050565b600082825260208201905092915050565b600081905092915050565b6000613c1d82613c91565b9150613c2883613c91565b9250827fffffffffffffffffffffffffffffffffffffffffffffffffffffffffffffffff03821115613c5d57613c5c613d86565b5b828201905092915050565b60008115159050919050565b6000819050919050565b6000819050613c8c82613e53565b919050565b6000819050919050565b6000613ca682613c7e565b9050919050565b6000613cb882613c91565b9050919050565b82818337600083830152505050565b60005b83811015613cec578082015181840152602081019050613cd1565b83811115613cfb576000848401525b50505050565b60006002820490506001821680613d1957607f821691505b60208210811415613d2d57613d2c613de4565b5b50919050565b6000613d3e82613c91565b91507fffffffffffffffffffffffffffffffffffffffffffffffffffffffffffffffff821415613d7157613d70613d86565b5b600182019050919050565b6000819050919050565b7f4e487b7100000000000000000000000000000000000000000000000000000000600052601160045260246000fd5b7f4e487b7100000000000000000000000000000000000000000000000000000000600052602160045260246000fd5b7f4e487b7100000000000000000000000000000000000000000000000000000000600052602260045260246000fd5b7f4e487b7100000000000000000000000000000000000000000000000000000000600052604160045260246000fd5b6000601f19601f8301169050919050565b60048110613e6457613e63613db5565b5b50565b613e7081613c68565b8114613e7b57600080fd5b50565b60048110613e8b57600080fd5b50565b613e9781613c91565b8114613ea257600080fd5b5056fea26469706673582212202a8f724914f774ca30339dec37b77dace247019d6dd9418e98dc7547798c575c64736f6c63430008000033",
  "immutableReferences": {},
  "source": "// SPDX-License-Identifier: MIT\r\npragma solidity ^0.8.0;\r\n\r\ncontract TraceabilityContract {\r\n    mapping(uint256 => bool) private _producers;\r\n    mapping(uint256 => bool) private _approvers;\r\n        // admin l a ch ca ngi dng c cp quyn qun l h thng\r\n    uint256 private _admin;\r\n\r\n    bool private _paused;\r\n    // Bin m cho mi l sn phm \r\n    uint256 private _batchIdCounter;\r\n    \r\n    // Cu trc d liu cho mi l sn phm\r\n    struct Batch {\r\n        uint256 batchId;\r\n        string sscc;\r\n        uint256 producerId;\r\n        uint256 approverId;\r\n        string quantity; // Thay i t uint256 sang string\r\n        uint256 productionDate;\r\n        uint256 expiryDate;\r\n        BatchStatus status;\r\n        string productImageUrl;\r\n        string certificateImageUrl;\r\n        string farmPlotNumber;\r\n        bytes32 dataHash;\r\n        uint256 productId;\r\n    }\r\n    // trng thi \r\n    enum BatchStatus { Created, PendingApproval, Approved, Rejected }\r\n\r\n    mapping(uint256 => Batch) private _batches;\r\n    mapping(string => uint256) private _ssccToBatchId;\r\n\r\n    // Tch ring cc loi hot ng\r\n    enum ActivityType { SystemGenerated, UserGenerated }\r\n\r\n    struct SystemActivity {\r\n        uint256 timestamp;\r\n        string action;\r\n        uint256 batchId;\r\n        uint256 userId;\r\n    }\r\n\r\n    struct UserActivity {\r\n        uint256 timestamp;\r\n        string action;\r\n        uint256 batchId;\r\n        string details;\r\n        string imageHash;\r\n        uint256 userId;\r\n    }\r\n\r\n    // Tch ring storage cho tng loi hot ng\r\n    mapping(uint256 => SystemActivity[]) private _systemActivities;\r\n    mapping(uint256 => UserActivity[]) private _userActivities;\r\n\r\n    // S dng cc event ring bit\r\n    event NewSystemActivity(uint256 indexed userId, string action, uint256 batchId);\r\n    event NewUserActivity(uint256 indexed userId, string action, uint256 batchId, string details, string imageHash);\r\n    event BatchCreated(uint256 indexed batchId, string sscc, uint256 producerId, uint256 approverId);\r\n\r\n    constructor() {\r\n        _admin = uint256(uint160(msg.sender));\r\n    }\r\n\r\n    modifier onlyAdmin() {\r\n        require(uint256(uint160(msg.sender)) == _admin, \"Only admin can perform this action\");\r\n        _;\r\n    }\r\n\r\n    modifier onlyProducer() {\r\n        require(_producers[uint256(uint160(msg.sender))], \"Only producer can perform this action\");\r\n        _;\r\n    }\r\n\r\n    modifier onlyApprover() {\r\n        require(_approvers[uint256(uint160(msg.sender))], \"Only approver can perform this action\");\r\n        _;\r\n    }\r\n\r\n    modifier whenNotPaused() {\r\n        require(!_paused, \"Contract is paused\");\r\n        _;\r\n    }\r\n\r\n    function createBatch(\r\n        string memory _sscc,\r\n        uint256 _producerId,\r\n        string memory _quantity,\r\n        string memory _productImageUrl,\r\n        string memory _certificateImageUrl,\r\n        string memory _farmPlotNumber,\r\n        uint256 _productId\r\n    ) public whenNotPaused returns (uint256) {\r\n        require(bytes(_sscc).length == 18, \"SSCC must be 18 characters long\");\r\n        require(_ssccToBatchId[_sscc] == 0, \"SSCC already exists\");\r\n        require(bytes(_quantity).length > 0, \"Quantity must not be empty\");\r\n        require(bytes(_productImageUrl).length > 0, \"Product image URL is required\");\r\n        require(bytes(_certificateImageUrl).length > 0, \"Certificate image URL is required\");\r\n        require(bytes(_farmPlotNumber).length > 0, \"Farm plot number is required\");\r\n        require(_productId > 0, \"Product ID must be valid\");\r\n\r\n        require(_producers[_producerId], \"Only producer can perform this action\");\r\n        require(_producerId == uint256(uint160(msg.sender)), \"ProducerId must match the caller\");\r\n\r\n        _batchIdCounter++;\r\n        uint256 newBatchId = _batchIdCounter;\r\n\r\n        uint256 productionDate = block.timestamp;\r\n        uint256 expiryDate = productionDate + 365 days;\r\n\r\n        Batch memory newBatch = Batch({\r\n            batchId: newBatchId,\r\n            sscc: _sscc,\r\n            producerId: _producerId,\r\n            approverId: 0, //  trng, s c cp nht khi c ph duyt\r\n            quantity: _quantity,\r\n            productionDate: productionDate,\r\n            expiryDate: expiryDate,\r\n            status: BatchStatus.PendingApproval,\r\n            productImageUrl: _productImageUrl,\r\n            certificateImageUrl: _certificateImageUrl,\r\n            farmPlotNumber: _farmPlotNumber,\r\n            dataHash: calculateDataHash(_sscc, _producerId, 0, _quantity, productionDate, expiryDate, _farmPlotNumber, _productId),\r\n            productId: _productId\r\n        });\r\n\r\n        _batches[newBatchId] = newBatch;\r\n        _ssccToBatchId[_sscc] = newBatchId;\r\n\r\n        _logSystemActivity(_producerId, \"Created Batch\", newBatchId);\r\n\r\n        emit NewSystemActivity(_producerId, \"Created Batch\", newBatchId);\r\n        emit BatchCreated(newBatchId, _sscc, _producerId, 0);\r\n        return newBatchId;\r\n    }\r\n\r\n    function approveBatch(uint256 _batchId, bool _isApproved) public whenNotPaused onlyApprover {\r\n        require(_batches[_batchId].batchId != 0, \"Batch does not exist\");\r\n        require(_batches[_batchId].status == BatchStatus.PendingApproval, \"Batch is not pending approval\");\r\n\r\n        uint256 approverId = uint256(uint160(msg.sender));\r\n        uint256 producerId = _batches[_batchId].producerId;\r\n        \r\n        require(_userRegion[approverId] == _userRegion[producerId], \"Approver must be in the same region as the producer\");\r\n\r\n        _batches[_batchId].approverId = approverId;\r\n\r\n        if (_isApproved) {\r\n            _batches[_batchId].status = BatchStatus.Approved;\r\n        } else {\r\n            _batches[_batchId].status = BatchStatus.Rejected;\r\n        }\r\n\r\n        string memory action = _isApproved ? \"Approved Batch\" : \"Rejected Batch\";\r\n        _logSystemActivity(approverId, action, _batchId);\r\n\r\n        emit NewSystemActivity(approverId, action, _batchId);\r\n    }\r\n\r\n    function updateBatchStatus(uint256 _batchId, BatchStatus _newStatus) \r\n        public \r\n        whenNotPaused \r\n        onlyApprover\r\n    {\r\n        require(_batchId <= _batchIdCounter, \"Batch does not exist\");\r\n        require(_batches[_batchId].status == BatchStatus.PendingApproval, \"Can only update status of pending batches\");\r\n\r\n        _batches[_batchId].status = _newStatus;\r\n        emit NewSystemActivity(uint256(uint160(msg.sender)), \"Updated Batch Status\", _batchId);\r\n    }\r\n\r\n    function updateBatchImages(\r\n        uint256 _batchId, \r\n        string memory _newProductImageUrl, \r\n        string memory _newCertificateImageUrl,\r\n        uint256 _producerId\r\n    ) \r\n        public \r\n        whenNotPaused \r\n    {\r\n        require(_batchId <= _batchIdCounter, \"Batch does not exist\");\r\n        require(_batches[_batchId].status == BatchStatus.PendingApproval, \"Can only update images of pending batches\");\r\n        require(_batches[_batchId].producerId == _producerId, \"Not authorized to update this batch\");\r\n\r\n        _batches[_batchId].productImageUrl = _newProductImageUrl;\r\n        _batches[_batchId].certificateImageUrl = _newCertificateImageUrl;\r\n\r\n        _logSystemActivity(_producerId, \"Updated Batch Images\", _batchId);\r\n\r\n        emit NewSystemActivity(_producerId, \"Updated Batch Images\", _batchId);\r\n    }\r\n\r\n    function getBatchInfo(uint256 _batchId) public view returns (Batch memory) {\r\n        require(_batchId <= _batchIdCounter, \"Batch does not exist\");\r\n        return _batches[_batchId];\r\n    }\r\n\r\n    function getBatchIdBySSCC(string memory _sscc) public view returns (uint256) {\r\n        return _ssccToBatchId[_sscc];\r\n    }\r\n\r\n    function addProducer(uint256 producer) public onlyAdmin {\r\n        _producers[producer] = true;\r\n    }\r\n\r\n    function addApprover(uint256 approver) public onlyAdmin {\r\n        _approvers[approver] = true;\r\n    }\r\n\r\n    function pause() public onlyAdmin {\r\n        _paused = true;\r\n    }\r\n\r\n    function unpause() public onlyAdmin {\r\n        _paused = false;\r\n    }\r\n\r\n    function _generateDataHash(\r\n        uint256 _batchId,\r\n        string memory _sscc,\r\n        uint256 _producerId,\r\n        uint256 _approverId,\r\n        uint256 _quantity,\r\n        uint256 _productionDate,\r\n        uint256 _expiryDate,\r\n        string memory _productImageHash,\r\n        string memory _certificateImageHash\r\n    ) private pure returns (bytes32) {\r\n        return keccak256(abi.encodePacked(_batchId, _sscc, _producerId, _approverId, _quantity, _productionDate, _expiryDate, _productImageHash, _certificateImageHash));\r\n    }\r\n\r\n    function calculateDataHash(\r\n        string memory _sscc,\r\n        uint256 _producerId,\r\n        uint256 _approverId, // Gi li tham s ny  tng thch vi cc l hng  tn ti\r\n        string memory _quantity,\r\n        uint256 _productionDate,\r\n        uint256 _expiryDate,\r\n        string memory _farmPlotNumber,\r\n        uint256 _productId\r\n    ) private pure returns (bytes32) {\r\n        return keccak256(abi.encodePacked(_sscc, _producerId, _approverId, _quantity, _productionDate, _expiryDate, _farmPlotNumber, _productId));\r\n    }\r\n\r\n    // Hm log cho hot ng h thng\r\n    function _logSystemActivity(uint256 userId, string memory action, uint256 batchId) private {\r\n        SystemActivity memory newActivity = SystemActivity({\r\n            timestamp: block.timestamp,\r\n            action: action,\r\n            batchId: batchId,\r\n            userId: userId\r\n        });\r\n        _systemActivities[userId].push(newActivity);\r\n        emit NewSystemActivity(userId, action, batchId);\r\n    }\r\n\r\n    // Hm log cho hot ng ngi dng\r\n    function _logUserActivity(uint256 userId, string memory action, uint256 batchId, string memory details, string memory imageHash) private {\r\n        UserActivity memory newActivity = UserActivity({\r\n            timestamp: block.timestamp,\r\n            action: action,\r\n            batchId: batchId,\r\n            details: details,\r\n            imageHash: imageHash,\r\n            userId: userId\r\n        });\r\n        _userActivities[userId].push(newActivity);\r\n        emit NewUserActivity(userId, action, batchId, details, imageHash);\r\n    }\r\n\r\n    function getSystemActivities(uint256 userId) public view returns (SystemActivity[] memory) {\r\n        return _systemActivities[userId];\r\n    }\r\n\r\n    function getUserActivities(uint256 userId) public view returns (UserActivity[] memory) {\r\n        return _userActivities[userId];\r\n    }\r\n\r\n    // Thm hm mi  ngi sn xut t thm nht k\r\n    function addProducerActivity(uint256 _batchId, string memory _action, string memory _details, string memory _imageHash) public whenNotPaused {\r\n        require(_batches[_batchId].batchId != 0, \"Batch does not exist\");\r\n        uint256 producerId = _batches[_batchId].producerId;\r\n        require(producerId == uint256(uint160(msg.sender)), \"Not authorized to add activity for this batch\");\r\n        \r\n        _logUserActivity(producerId, _action, _batchId, _details, _imageHash);\r\n    }\r\n\r\n    // Thm hm ny vo contract TraceabilityContract\r\n    function getAdmin() public view returns (uint256) {\r\n        return _admin;\r\n    }\r\n\r\n    function getPendingBatches() public view onlyApprover returns (uint256[] memory) {\r\n        uint256[] memory pendingBatches = new uint256[](_batchIdCounter);\r\n        uint256 count = 0;\r\n        uint256 approverRegion = _userRegion[uint256(uint160(msg.sender))];\r\n        \r\n        for (uint256 i = 1; i <= _batchIdCounter; i++) {\r\n            if (_batches[i].status == BatchStatus.PendingApproval && \r\n                _userRegion[_batches[i].producerId] == approverRegion) {\r\n                pendingBatches[count] = i;\r\n                count++;\r\n            }\r\n        }\r\n        \r\n        // Resize the array to remove unused slots\r\n        assembly {\r\n            mstore(pendingBatches, count)\r\n        }\r\n        \r\n        return pendingBatches;\r\n    }\r\n\r\n    mapping(uint256 => uint256) private _userRegion;\r\n    mapping(uint256 => uint256[]) private _regionApprovers;\r\n\r\n    function setUserRegion(uint256 userId, uint256 regionId) public onlyAdmin {\r\n        _userRegion[userId] = regionId;\r\n    }\r\n\r\n    function addApproverToRegion(uint256 approverId, uint256 regionId) public onlyAdmin {\r\n        require(_approvers[approverId], \"User is not an approver\");\r\n        _userRegion[approverId] = regionId;\r\n        _regionApprovers[regionId].push(approverId);\r\n    }\r\n\r\n    function getRegionApprovers(uint256 regionId) public view returns (uint256[] memory) {\r\n        return _regionApprovers[regionId];\r\n    }\r\n}",
  "sourcePath": "D:\\projects\\nckh-be\\blockchain\\contracts\\supplychain.sol",
  "compiler": {
    "name": "solc",
    "version": "0.8.0+commit.c7dfd78e.Emscripten.clang"
  },
  "schemaVersion": "3.4.16",
  "updatedAt": "2024-08-31T00:37:12.721Z",
  "networkType": "ethereum",
  "devdoc": {
    "kind": "dev",
    "methods": {},
    "version": 1
  },
  "userdoc": {
    "kind": "user",
    "methods": {},
    "version": 1
  }
}