{
  "contractName": "TraceabilityContract",
  "abi": [
    {
      "anonymous": false,
      "inputs": [
        {
          "indexed": true,
          "internalType": "uint256",
          "name": "uid",
          "type": "uint256"
        },
        {
          "indexed": false,
          "internalType": "string",
          "name": "activityName",
          "type": "string"
        },
        {
          "indexed": false,
          "internalType": "string",
          "name": "description",
          "type": "string"
        },
        {
          "indexed": false,
          "internalType": "bool",
          "name": "isSystemGenerated",
          "type": "bool"
        },
        {
          "indexed": false,
          "internalType": "string[]",
          "name": "imageUrls",
          "type": "string[]"
        },
        {
          "indexed": false,
          "internalType": "uint256[]",
          "name": "relatedProductIds",
          "type": "uint256[]"
        }
      ],
      "name": "ActivityLogAdded",
      "type": "event"
    },
    {
      "anonymous": false,
      "inputs": [
        {
          "indexed": true,
          "internalType": "uint256",
          "name": "batchId",
          "type": "uint256"
        },
        {
          "indexed": true,
          "internalType": "uint256",
          "name": "producerId",
          "type": "uint256"
        },
        {
          "indexed": false,
          "internalType": "string",
          "name": "sscc",
          "type": "string"
        }
      ],
      "name": "BatchApproved",
      "type": "event"
    },
    {
      "anonymous": false,
      "inputs": [
        {
          "indexed": true,
          "internalType": "uint256",
          "name": "batchId",
          "type": "uint256"
        },
        {
          "indexed": true,
          "internalType": "uint256",
          "name": "producerId",
          "type": "uint256"
        },
        {
          "indexed": false,
          "internalType": "string",
          "name": "sscc",
          "type": "string"
        }
      ],
      "name": "BatchApprovedForQR",
      "type": "event"
    },
    {
      "anonymous": false,
      "inputs": [
        {
          "indexed": true,
          "internalType": "uint256",
          "name": "batchId",
          "type": "uint256"
        },
        {
          "indexed": false,
          "internalType": "string",
          "name": "sscc",
          "type": "string"
        },
        {
          "indexed": false,
          "internalType": "uint256",
          "name": "producerId",
          "type": "uint256"
        }
      ],
      "name": "BatchCreated",
      "type": "event"
    },
    {
      "anonymous": false,
      "inputs": [
        {
          "indexed": true,
          "internalType": "uint256",
          "name": "batchId",
          "type": "uint256"
        },
        {
          "indexed": false,
          "internalType": "enum TraceabilityContract.BatchStatus",
          "name": "newStatus",
          "type": "uint8"
        }
      ],
      "name": "BatchStatusUpdated",
      "type": "event"
    },
    {
      "inputs": [
        {
          "internalType": "string",
          "name": "_name",
          "type": "string"
        },
        {
          "internalType": "uint256",
          "name": "_producerId",
          "type": "uint256"
        },
        {
          "internalType": "string",
          "name": "_quantity",
          "type": "string"
        },
        {
          "internalType": "string[]",
          "name": "_productImageUrls",
          "type": "string[]"
        },
        {
          "internalType": "string",
          "name": "_certificateImageUrl",
          "type": "string"
        },
        {
          "internalType": "string",
          "name": "_farmPlotNumber",
          "type": "string"
        },
        {
          "internalType": "uint256",
          "name": "_productId",
          "type": "uint256"
        },
        {
          "internalType": "uint256",
          "name": "_startDate",
          "type": "uint256"
        },
        {
          "internalType": "uint256",
          "name": "_endDate",
          "type": "uint256"
        }
      ],
      "name": "createBatch",
      "outputs": [
        {
          "internalType": "uint256",
          "name": "",
          "type": "uint256"
        }
      ],
      "stateMutability": "nonpayable",
      "type": "function"
    },
    {
      "inputs": [
        {
          "internalType": "uint256",
          "name": "_uid",
          "type": "uint256"
        },
        {
          "internalType": "string",
          "name": "_activityName",
          "type": "string"
        },
        {
          "internalType": "string",
          "name": "_description",
          "type": "string"
        },
        {
          "internalType": "string[]",
          "name": "_imageUrls",
          "type": "string[]"
        },
        {
          "internalType": "uint256[]",
          "name": "_relatedProductIds",
          "type": "uint256[]"
        }
      ],
      "name": "addActivityLog",
      "outputs": [],
      "stateMutability": "nonpayable",
      "type": "function"
    },
    {
      "inputs": [
        {
          "internalType": "uint256",
          "name": "_uid",
          "type": "uint256"
        }
      ],
      "name": "getProducerActivityLogs",
      "outputs": [
        {
          "components": [
            {
              "internalType": "uint256",
              "name": "timestamp",
              "type": "uint256"
            },
            {
              "internalType": "uint256",
              "name": "uid",
              "type": "uint256"
            },
            {
              "internalType": "string",
              "name": "activityName",
              "type": "string"
            },
            {
              "internalType": "string",
              "name": "description",
              "type": "string"
            },
            {
              "internalType": "bool",
              "name": "isSystemGenerated",
              "type": "bool"
            },
            {
              "internalType": "string[]",
              "name": "imageUrls",
              "type": "string[]"
            },
            {
              "internalType": "uint256[]",
              "name": "relatedProductIds",
              "type": "uint256[]"
            }
          ],
          "internalType": "struct TraceabilityContract.ActivityLog[]",
          "name": "",
          "type": "tuple[]"
        }
      ],
      "stateMutability": "view",
      "type": "function",
      "constant": true
    },
    {
      "inputs": [
        {
          "internalType": "string",
          "name": "sscc",
          "type": "string"
        }
      ],
      "name": "ssccExists",
      "outputs": [
        {
          "internalType": "bool",
          "name": "",
          "type": "bool"
        }
      ],
      "stateMutability": "view",
      "type": "function",
      "constant": true
    },
    {
      "inputs": [
        {
          "internalType": "uint256",
          "name": "producerId",
          "type": "uint256"
        }
      ],
      "name": "getBatchesByProducer",
      "outputs": [
        {
          "components": [
            {
              "internalType": "uint256",
              "name": "batchId",
              "type": "uint256"
            },
            {
              "internalType": "string",
              "name": "name",
              "type": "string"
            },
            {
              "internalType": "string",
              "name": "sscc",
              "type": "string"
            },
            {
              "internalType": "uint256",
              "name": "producerId",
              "type": "uint256"
            },
            {
              "internalType": "string",
              "name": "quantity",
              "type": "string"
            },
            {
              "internalType": "uint256",
              "name": "productionDate",
              "type": "uint256"
            },
            {
              "internalType": "uint256",
              "name": "startDate",
              "type": "uint256"
            },
            {
              "internalType": "uint256",
              "name": "endDate",
              "type": "uint256"
            },
            {
              "internalType": "enum TraceabilityContract.BatchStatus",
              "name": "status",
              "type": "uint8"
            },
            {
              "internalType": "string[]",
              "name": "productImageUrls",
              "type": "string[]"
            },
            {
              "internalType": "string",
              "name": "certificateImageUrl",
              "type": "string"
            },
            {
              "internalType": "string",
              "name": "farmPlotNumber",
              "type": "string"
            },
            {
              "internalType": "bytes32",
              "name": "dataHash",
              "type": "bytes32"
            },
            {
              "internalType": "uint256",
              "name": "productId",
              "type": "uint256"
            }
          ],
          "internalType": "struct TraceabilityContract.Batch[]",
          "name": "",
          "type": "tuple[]"
        }
      ],
      "stateMutability": "view",
      "type": "function",
      "constant": true
    },
    {
      "inputs": [
        {
          "internalType": "uint256",
          "name": "_batchId",
          "type": "uint256"
        },
        {
          "internalType": "enum TraceabilityContract.BatchStatus",
          "name": "_newStatus",
          "type": "uint8"
        }
      ],
      "name": "updateBatchStatus",
      "outputs": [],
      "stateMutability": "nonpayable",
      "type": "function"
    },
    {
      "inputs": [
        {
          "internalType": "uint256",
          "name": "_producerId",
          "type": "uint256"
        }
      ],
      "name": "getPendingBatchesByProducer",
      "outputs": [
        {
          "components": [
            {
              "internalType": "uint256",
              "name": "batchId",
              "type": "uint256"
            },
            {
              "internalType": "string",
              "name": "name",
              "type": "string"
            },
            {
              "internalType": "string",
              "name": "sscc",
              "type": "string"
            },
            {
              "internalType": "uint256",
              "name": "producerId",
              "type": "uint256"
            },
            {
              "internalType": "string",
              "name": "quantity",
              "type": "string"
            },
            {
              "internalType": "uint256",
              "name": "productionDate",
              "type": "uint256"
            },
            {
              "internalType": "uint256",
              "name": "startDate",
              "type": "uint256"
            },
            {
              "internalType": "uint256",
              "name": "endDate",
              "type": "uint256"
            },
            {
              "internalType": "enum TraceabilityContract.BatchStatus",
              "name": "status",
              "type": "uint8"
            },
            {
              "internalType": "string[]",
              "name": "productImageUrls",
              "type": "string[]"
            },
            {
              "internalType": "string",
              "name": "certificateImageUrl",
              "type": "string"
            },
            {
              "internalType": "string",
              "name": "farmPlotNumber",
              "type": "string"
            },
            {
              "internalType": "bytes32",
              "name": "dataHash",
              "type": "bytes32"
            },
            {
              "internalType": "uint256",
              "name": "productId",
              "type": "uint256"
            }
          ],
          "internalType": "struct TraceabilityContract.Batch[]",
          "name": "",
          "type": "tuple[]"
        }
      ],
      "stateMutability": "view",
      "type": "function",
      "constant": true
    },
    {
      "inputs": [],
      "name": "getAllPendingBatches",
      "outputs": [
        {
          "components": [
            {
              "internalType": "uint256",
              "name": "batchId",
              "type": "uint256"
            },
            {
              "internalType": "string",
              "name": "name",
              "type": "string"
            },
            {
              "internalType": "string",
              "name": "sscc",
              "type": "string"
            },
            {
              "internalType": "uint256",
              "name": "producerId",
              "type": "uint256"
            },
            {
              "internalType": "string",
              "name": "quantity",
              "type": "string"
            },
            {
              "internalType": "uint256",
              "name": "productionDate",
              "type": "uint256"
            },
            {
              "internalType": "uint256",
              "name": "startDate",
              "type": "uint256"
            },
            {
              "internalType": "uint256",
              "name": "endDate",
              "type": "uint256"
            },
            {
              "internalType": "enum TraceabilityContract.BatchStatus",
              "name": "status",
              "type": "uint8"
            },
            {
              "internalType": "string[]",
              "name": "productImageUrls",
              "type": "string[]"
            },
            {
              "internalType": "string",
              "name": "certificateImageUrl",
              "type": "string"
            },
            {
              "internalType": "string",
              "name": "farmPlotNumber",
              "type": "string"
            },
            {
              "internalType": "bytes32",
              "name": "dataHash",
              "type": "bytes32"
            },
            {
              "internalType": "uint256",
              "name": "productId",
              "type": "uint256"
            }
          ],
          "internalType": "struct TraceabilityContract.Batch[]",
          "name": "",
          "type": "tuple[]"
        }
      ],
      "stateMutability": "view",
      "type": "function",
      "constant": true
    },
    {
      "inputs": [
        {
          "internalType": "uint256",
          "name": "_batchId",
          "type": "uint256"
        }
      ],
      "name": "getBatchDetails",
      "outputs": [
        {
          "components": [
            {
              "internalType": "uint256",
              "name": "batchId",
              "type": "uint256"
            },
            {
              "internalType": "string",
              "name": "name",
              "type": "string"
            },
            {
              "internalType": "string",
              "name": "sscc",
              "type": "string"
            },
            {
              "internalType": "uint256",
              "name": "producerId",
              "type": "uint256"
            },
            {
              "internalType": "string",
              "name": "quantity",
              "type": "string"
            },
            {
              "internalType": "uint256",
              "name": "productionDate",
              "type": "uint256"
            },
            {
              "internalType": "uint256",
              "name": "startDate",
              "type": "uint256"
            },
            {
              "internalType": "uint256",
              "name": "endDate",
              "type": "uint256"
            },
            {
              "internalType": "enum TraceabilityContract.BatchStatus",
              "name": "status",
              "type": "uint8"
            },
            {
              "internalType": "string[]",
              "name": "productImageUrls",
              "type": "string[]"
            },
            {
              "internalType": "string",
              "name": "certificateImageUrl",
              "type": "string"
            },
            {
              "internalType": "string",
              "name": "farmPlotNumber",
              "type": "string"
            },
            {
              "internalType": "bytes32",
              "name": "dataHash",
              "type": "bytes32"
            },
            {
              "internalType": "uint256",
              "name": "productId",
              "type": "uint256"
            }
          ],
          "internalType": "struct TraceabilityContract.Batch",
          "name": "",
          "type": "tuple"
        }
      ],
      "stateMutability": "view",
      "type": "function",
      "constant": true
    },
    {
      "inputs": [
        {
          "internalType": "string",
          "name": "_sscc",
          "type": "string"
        }
      ],
      "name": "getBatchBySSCC",
      "outputs": [
        {
          "components": [
            {
              "internalType": "uint256",
              "name": "batchId",
              "type": "uint256"
            },
            {
              "internalType": "string",
              "name": "name",
              "type": "string"
            },
            {
              "internalType": "string",
              "name": "sscc",
              "type": "string"
            },
            {
              "internalType": "uint256",
              "name": "producerId",
              "type": "uint256"
            },
            {
              "internalType": "string",
              "name": "quantity",
              "type": "string"
            },
            {
              "internalType": "uint256",
              "name": "productionDate",
              "type": "uint256"
            },
            {
              "internalType": "uint256",
              "name": "startDate",
              "type": "uint256"
            },
            {
              "internalType": "uint256",
              "name": "endDate",
              "type": "uint256"
            },
            {
              "internalType": "enum TraceabilityContract.BatchStatus",
              "name": "status",
              "type": "uint8"
            },
            {
              "internalType": "string[]",
              "name": "productImageUrls",
              "type": "string[]"
            },
            {
              "internalType": "string",
              "name": "certificateImageUrl",
              "type": "string"
            },
            {
              "internalType": "string",
              "name": "farmPlotNumber",
              "type": "string"
            },
            {
              "internalType": "bytes32",
              "name": "dataHash",
              "type": "bytes32"
            },
            {
              "internalType": "uint256",
              "name": "productId",
              "type": "uint256"
            }
          ],
          "internalType": "struct TraceabilityContract.Batch",
          "name": "",
          "type": "tuple"
        }
      ],
      "stateMutability": "view",
      "type": "function",
      "constant": true
    },
    {
      "inputs": [],
      "name": "getTotalBatches",
      "outputs": [
        {
          "internalType": "uint256",
          "name": "",
          "type": "uint256"
        }
      ],
      "stateMutability": "view",
      "type": "function",
      "constant": true
    },
    {
      "inputs": [
        {
          "internalType": "uint256",
          "name": "_batchId",
          "type": "uint256"
        },
        {
          "internalType": "uint256",
          "name": "_producerId",
          "type": "uint256"
        }
      ],
      "name": "isProducerOfBatch",
      "outputs": [
        {
          "internalType": "bool",
          "name": "",
          "type": "bool"
        }
      ],
      "stateMutability": "view",
      "type": "function",
      "constant": true
    },
    {
      "inputs": [
        {
          "internalType": "uint256",
          "name": "_uid",
          "type": "uint256"
        }
      ],
      "name": "getActivityLogs",
      "outputs": [
        {
          "components": [
            {
              "internalType": "uint256",
              "name": "timestamp",
              "type": "uint256"
            },
            {
              "internalType": "uint256",
              "name": "uid",
              "type": "uint256"
            },
            {
              "internalType": "string",
              "name": "activityName",
              "type": "string"
            },
            {
              "internalType": "string",
              "name": "description",
              "type": "string"
            },
            {
              "internalType": "bool",
              "name": "isSystemGenerated",
              "type": "bool"
            },
            {
              "internalType": "string[]",
              "name": "imageUrls",
              "type": "string[]"
            },
            {
              "internalType": "uint256[]",
              "name": "relatedProductIds",
              "type": "uint256[]"
            }
          ],
          "internalType": "struct TraceabilityContract.ActivityLog[]",
          "name": "",
          "type": "tuple[]"
        }
      ],
      "stateMutability": "view",
      "type": "function",
      "constant": true
    },
    {
      "inputs": [
        {
          "internalType": "uint256",
          "name": "_uid",
          "type": "uint256"
        }
      ],
      "name": "getActivityLogCount",
      "outputs": [
        {
          "internalType": "uint256",
          "name": "",
          "type": "uint256"
        }
      ],
      "stateMutability": "view",
      "type": "function",
      "constant": true
    },
    {
      "inputs": [
        {
          "internalType": "uint256",
          "name": "_batchId",
          "type": "uint256"
        }
      ],
      "name": "approveBatch",
      "outputs": [],
      "stateMutability": "nonpayable",
      "type": "function"
    },
    {
      "inputs": [
        {
          "internalType": "uint256",
          "name": "_batchId",
          "type": "uint256"
        }
      ],
      "name": "isBatchApproved",
      "outputs": [
        {
          "internalType": "bool",
          "name": "",
          "type": "bool"
        }
      ],
      "stateMutability": "view",
      "type": "function",
      "constant": true
    }
  ],
  "bytecode": "0x608060405234801561001057600080fd5b506155f080620000216000396000f3fe608060405234801561001057600080fd5b50600436106101005760003560e01c806385bdd03f11610097578063dd235d9d11610066578063dd235d9d1461030b578063e561dddc14610327578063f7f097f414610345578063f9b8da0e1461037557610100565b806385bdd03f1461025f5780639d47dcc01461028f578063bf193ffa146102bf578063d9860bfc146102db57610100565b806347e2f863116100d357806347e2f863146101c557806352c88f36146101f55780635aa825aa1461021157806380e32d451461022f57610100565b806304008078146101055780630d82dcf4146101355780630e6e369c1461016557806336c701e114610195575b600080fd5b61011f600480360381019061011a9190613882565b6103a5565b60405161012c91906138e6565b60405180910390f35b61014f600480360381019061014a9190613937565b6103d0565b60405161015c91906138e6565b60405180910390f35b61017f600480360381019061017a9190613937565b6103fa565b60405161018c9190613ce5565b60405180910390f35b6101af60048036038101906101aa9190613ded565b6106f0565b6040516101bc9190613f52565b60405180910390f35b6101df60048036038101906101da9190613937565b610762565b6040516101ec9190614210565b60405180910390f35b61020f600480360381019061020a9190614257565b610d82565b005b610219610e55565b6040516102269190614210565b60405180910390f35b61024960048036038101906102449190613937565b61142f565b6040516102569190614210565b60405180910390f35b61027960048036038101906102749190613937565b6119a7565b6040516102869190613f52565b60405180910390f35b6102a960048036038101906102a49190613937565b6119c7565b6040516102b691906143e8565b60405180910390f35b6102d960048036038101906102d491906144cd565b611e82565b005b6102f560048036038101906102f09190613882565b611fde565b60405161030291906143e8565b60405180910390f35b61032560048036038101906103209190613937565b6124a7565b005b61032f6127b4565b60405161033c9190613f52565b60405180910390f35b61035f600480360381019061035a9190613937565b6127bd565b60405161036c9190613ce5565b60405180910390f35b61038f600480360381019061038a91906145b8565b612ab3565b60405161039c91906138e6565b60405180910390f35b6000806002836040516103b89190614634565b90815260200160405180910390205414159050919050565b60006004600083815260200190815260200160002060009054906101000a900460ff169050919050565b606060036000838152602001908152602001600020805480602002602001604051908101604052809291908181526020016000905b828210156106e557838290600052602060002090600702016040518060e001604052908160008201548152602001600182015481526020016002820180546104769061467a565b80601f01602080910402602001604051908101604052809291908181526020018280546104a29061467a565b80156104ef5780601f106104c4576101008083540402835291602001916104ef565b820191906000526020600020905b8154815290600101906020018083116104d257829003601f168201915b505050505081526020016003820180546105089061467a565b80601f01602080910402602001604051908101604052809291908181526020018280546105349061467a565b80156105815780601f1061055657610100808354040283529160200191610581565b820191906000526020600020905b81548152906001019060200180831161056457829003601f168201915b505050505081526020016004820160009054906101000a900460ff1615151515815260200160058201805480602002602001604051908101604052809291908181526020016000905b828210156106765783829060005260206000200180546105e99061467a565b80601f01602080910402602001604051908101604052809291908181526020018280546106159061467a565b80156106625780601f1061063757610100808354040283529160200191610662565b820191906000526020600020905b81548152906001019060200180831161064557829003601f168201915b5050505050815260200190600101906105ca565b505050508152602001600682018054806020026020016040519081016040528092919081815260200182805480156106cd57602002820191906000526020600020905b8154815260200190600101908083116106b9575b5050505050815250508152602001906001019061042f565b505050509050919050565b6000806106fc8a612ad6565b905060006040518061014001604052808d81526020018381526020018c81526020018b81526020018a815260200189815260200188815260200187815260200186815260200185815250905061075181612bd1565b925050509998505050505050505050565b6060600080600190505b6000548111610808578360016000838152602001908152602001600020600301541480156107e15750600060028111156107a9576107a8613f99565b5b6001600083815260200190815260200160002060080160009054906101000a900460ff1660028111156107df576107de613f99565b5b145b156107f55781806107f1906146da565b9250505b8080610800906146da565b91505061076c565b5060008167ffffffffffffffff81111561082557610824613757565b5b60405190808252806020026020018201604052801561085e57816020015b61084b61357d565b8152602001906001900390816108435790505b509050600080600190505b6000548111610d76578560016000838152602001908152602001600020600301541480156108de5750600060028111156108a6576108a5613f99565b5b6001600083815260200190815260200160002060080160009054906101000a900460ff1660028111156108dc576108db613f99565b5b145b15610d635760016000828152602001908152602001600020604051806101c00160405290816000820154815260200160018201805461091c9061467a565b80601f01602080910402602001604051908101604052809291908181526020018280546109489061467a565b80156109955780601f1061096a57610100808354040283529160200191610995565b820191906000526020600020905b81548152906001019060200180831161097857829003601f168201915b505050505081526020016002820180546109ae9061467a565b80601f01602080910402602001604051908101604052809291908181526020018280546109da9061467a565b8015610a275780601f106109fc57610100808354040283529160200191610a27565b820191906000526020600020905b815481529060010190602001808311610a0a57829003601f168201915b5050505050815260200160038201548152602001600482018054610a4a9061467a565b80601f0160208091040260200160405190810160405280929190818152602001828054610a769061467a565b8015610ac35780601f10610a9857610100808354040283529160200191610ac3565b820191906000526020600020905b815481529060010190602001808311610aa657829003601f168201915b505050505081526020016005820154815260200160068201548152602001600782015481526020016008820160009054906101000a900460ff166002811115610b0f57610b0e613f99565b5b6002811115610b2157610b20613f99565b5b815260200160098201805480602002602001604051908101604052809291908181526020016000905b82821015610bf6578382906000526020600020018054610b699061467a565b80601f0160208091040260200160405190810160405280929190818152602001828054610b959061467a565b8015610be25780601f10610bb757610100808354040283529160200191610be2565b820191906000526020600020905b815481529060010190602001808311610bc557829003601f168201915b505050505081526020019060010190610b4a565b505050508152602001600a82018054610c0e9061467a565b80601f0160208091040260200160405190810160405280929190818152602001828054610c3a9061467a565b8015610c875780601f10610c5c57610100808354040283529160200191610c87565b820191906000526020600020905b815481529060010190602001808311610c6a57829003601f168201915b50505050508152602001600b82018054610ca09061467a565b80601f0160208091040260200160405190810160405280929190818152602001828054610ccc9061467a565b8015610d195780601f10610cee57610100808354040283529160200191610d19565b820191906000526020600020905b815481529060010190602001808311610cfc57829003601f168201915b50505050508152602001600c8201548152602001600d82015481525050838381518110610d4957610d48614722565b5b60200260200101819052508180610d5f906146da565b9250505b8080610d6e906146da565b915050610869565b50819350505050919050565b6000600160008481526020019081526020016000206000015403610ddb576040517f08c379a0000000000000000000000000000000000000000000000000000000008152600401610dd2906147ae565b60405180910390fd5b806001600084815260200190815260200160002060080160006101000a81548160ff02191690836002811115610e1457610e13613f99565b5b0217905550817fcf4d4f3dcd5294f4d19269f489155c2187699f4a9fb9004b6a303752b00b282f82604051610e4991906147dd565b60405180910390a25050565b6060600080600190505b6000548111610ed95760006002811115610e7c57610e7b613f99565b5b6001600083815260200190815260200160002060080160009054906101000a900460ff166002811115610eb257610eb1613f99565b5b03610ec6578180610ec2906146da565b9250505b8080610ed1906146da565b915050610e5f565b5060008167ffffffffffffffff811115610ef657610ef5613757565b5b604051908082528060200260200182016040528015610f2f57816020015b610f1c61357d565b815260200190600190039081610f145790505b509050600080600190505b60005481116114255760006002811115610f5757610f56613f99565b5b6001600083815260200190815260200160002060080160009054906101000a900460ff166002811115610f8d57610f8c613f99565b5b036114125760016000828152602001908152602001600020604051806101c001604052908160008201548152602001600182018054610fcb9061467a565b80601f0160208091040260200160405190810160405280929190818152602001828054610ff79061467a565b80156110445780601f1061101957610100808354040283529160200191611044565b820191906000526020600020905b81548152906001019060200180831161102757829003601f168201915b5050505050815260200160028201805461105d9061467a565b80601f01602080910402602001604051908101604052809291908181526020018280546110899061467a565b80156110d65780601f106110ab576101008083540402835291602001916110d6565b820191906000526020600020905b8154815290600101906020018083116110b957829003601f168201915b50505050508152602001600382015481526020016004820180546110f99061467a565b80601f01602080910402602001604051908101604052809291908181526020018280546111259061467a565b80156111725780601f1061114757610100808354040283529160200191611172565b820191906000526020600020905b81548152906001019060200180831161115557829003601f168201915b505050505081526020016005820154815260200160068201548152602001600782015481526020016008820160009054906101000a900460ff1660028111156111be576111bd613f99565b5b60028111156111d0576111cf613f99565b5b815260200160098201805480602002602001604051908101604052809291908181526020016000905b828210156112a55783829060005260206000200180546112189061467a565b80601f01602080910402602001604051908101604052809291908181526020018280546112449061467a565b80156112915780601f1061126657610100808354040283529160200191611291565b820191906000526020600020905b81548152906001019060200180831161127457829003601f168201915b5050505050815260200190600101906111f9565b505050508152602001600a820180546112bd9061467a565b80601f01602080910402602001604051908101604052809291908181526020018280546112e99061467a565b80156113365780601f1061130b57610100808354040283529160200191611336565b820191906000526020600020905b81548152906001019060200180831161131957829003601f168201915b50505050508152602001600b8201805461134f9061467a565b80601f016020809104026020016040519081016040528092919081815260200182805461137b9061467a565b80156113c85780601f1061139d576101008083540402835291602001916113c8565b820191906000526020600020905b8154815290600101906020018083116113ab57829003601f168201915b50505050508152602001600c8201548152602001600d820154815250508383815181106113f8576113f7614722565b5b6020026020010181905250818061140e906146da565b9250505b808061141d906146da565b915050610f3a565b5081935050505090565b6060600080600190505b6000548111611481578360016000838152602001908152602001600020600301540361146e57818061146a906146da565b9250505b8080611479906146da565b915050611439565b5060008167ffffffffffffffff81111561149e5761149d613757565b5b6040519080825280602002602001820160405280156114d757816020015b6114c461357d565b8152602001906001900390816114bc5790505b509050600080600190505b600054811161199b57856001600083815260200190815260200160002060030154036119885760016000828152602001908152602001600020604051806101c0016040529081600082015481526020016001820180546115419061467a565b80601f016020809104026020016040519081016040528092919081815260200182805461156d9061467a565b80156115ba5780601f1061158f576101008083540402835291602001916115ba565b820191906000526020600020905b81548152906001019060200180831161159d57829003601f168201915b505050505081526020016002820180546115d39061467a565b80601f01602080910402602001604051908101604052809291908181526020018280546115ff9061467a565b801561164c5780601f106116215761010080835404028352916020019161164c565b820191906000526020600020905b81548152906001019060200180831161162f57829003601f168201915b505050505081526020016003820154815260200160048201805461166f9061467a565b80601f016020809104026020016040519081016040528092919081815260200182805461169b9061467a565b80156116e85780601f106116bd576101008083540402835291602001916116e8565b820191906000526020600020905b8154815290600101906020018083116116cb57829003601f168201915b505050505081526020016005820154815260200160068201548152602001600782015481526020016008820160009054906101000a900460ff16600281111561173457611733613f99565b5b600281111561174657611745613f99565b5b815260200160098201805480602002602001604051908101604052809291908181526020016000905b8282101561181b57838290600052602060002001805461178e9061467a565b80601f01602080910402602001604051908101604052809291908181526020018280546117ba9061467a565b80156118075780601f106117dc57610100808354040283529160200191611807565b820191906000526020600020905b8154815290600101906020018083116117ea57829003601f168201915b50505050508152602001906001019061176f565b505050508152602001600a820180546118339061467a565b80601f016020809104026020016040519081016040528092919081815260200182805461185f9061467a565b80156118ac5780601f10611881576101008083540402835291602001916118ac565b820191906000526020600020905b81548152906001019060200180831161188f57829003601f168201915b50505050508152602001600b820180546118c59061467a565b80601f01602080910402602001604051908101604052809291908181526020018280546118f19061467a565b801561193e5780601f106119135761010080835404028352916020019161193e565b820191906000526020600020905b81548152906001019060200180831161192157829003601f168201915b50505050508152602001600c8201548152602001600d8201548152505083838151811061196e5761196d614722565b5b60200260200101819052508180611984906146da565b9250505b8080611993906146da565b9150506114e2565b50819350505050919050565b600060036000838152602001908152602001600020805490509050919050565b6119cf61357d565b6000600160008481526020019081526020016000206000015403611a28576040517f08c379a0000000000000000000000000000000000000000000000000000000008152600401611a1f906147ae565b60405180910390fd5b60016000838152602001908152602001600020604051806101c001604052908160008201548152602001600182018054611a619061467a565b80601f0160208091040260200160405190810160405280929190818152602001828054611a8d9061467a565b8015611ada5780601f10611aaf57610100808354040283529160200191611ada565b820191906000526020600020905b815481529060010190602001808311611abd57829003601f168201915b50505050508152602001600282018054611af39061467a565b80601f0160208091040260200160405190810160405280929190818152602001828054611b1f9061467a565b8015611b6c5780601f10611b4157610100808354040283529160200191611b6c565b820191906000526020600020905b815481529060010190602001808311611b4f57829003601f168201915b5050505050815260200160038201548152602001600482018054611b8f9061467a565b80601f0160208091040260200160405190810160405280929190818152602001828054611bbb9061467a565b8015611c085780601f10611bdd57610100808354040283529160200191611c08565b820191906000526020600020905b815481529060010190602001808311611beb57829003601f168201915b505050505081526020016005820154815260200160068201548152602001600782015481526020016008820160009054906101000a900460ff166002811115611c5457611c53613f99565b5b6002811115611c6657611c65613f99565b5b815260200160098201805480602002602001604051908101604052809291908181526020016000905b82821015611d3b578382906000526020600020018054611cae9061467a565b80601f0160208091040260200160405190810160405280929190818152602001828054611cda9061467a565b8015611d275780601f10611cfc57610100808354040283529160200191611d27565b820191906000526020600020905b815481529060010190602001808311611d0a57829003601f168201915b505050505081526020019060010190611c8f565b505050508152602001600a82018054611d539061467a565b80601f0160208091040260200160405190810160405280929190818152602001828054611d7f9061467a565b8015611dcc5780601f10611da157610100808354040283529160200191611dcc565b820191906000526020600020905b815481529060010190602001808311611daf57829003601f168201915b50505050508152602001600b82018054611de59061467a565b80601f0160208091040260200160405190810160405280929190818152602001828054611e119061467a565b8015611e5e5780601f10611e3357610100808354040283529160200191611e5e565b820191906000526020600020905b815481529060010190602001808311611e4157829003601f168201915b50505050508152602001600c8201548152602001600d820154815250509050919050565b60006040518060e001604052804281526020018781526020018681526020018581526020016000151581526020018481526020018381525090506003600087815260200190815260200160002081908060018154018082558091505060019003906000526020600020906007020160009091909190915060008201518160000155602082015181600101556040820151816002019081611f2291906149a4565b506060820151816003019081611f3891906149a4565b5060808201518160040160006101000a81548160ff02191690831515021790555060a0820151816005019080519060200190611f75929190613601565b5060c0820151816006019080519060200190611f9292919061365a565b505050857f0fb336061951903d147e6b93ba30f6d47839e02426fcd5ee1876873afe47bab3868660008787604051611fce959493929190614ba4565b60405180910390a2505050505050565b611fe661357d565b6000600283604051611ff89190614634565b90815260200160405180910390205490506000810361204c576040517f08c379a000000000000000000000000000000000000000000000000000000000815260040161204390614c85565b60405180910390fd5b60016000828152602001908152602001600020604051806101c0016040529081600082015481526020016001820180546120859061467a565b80601f01602080910402602001604051908101604052809291908181526020018280546120b19061467a565b80156120fe5780601f106120d3576101008083540402835291602001916120fe565b820191906000526020600020905b8154815290600101906020018083116120e157829003601f168201915b505050505081526020016002820180546121179061467a565b80601f01602080910402602001604051908101604052809291908181526020018280546121439061467a565b80156121905780601f1061216557610100808354040283529160200191612190565b820191906000526020600020905b81548152906001019060200180831161217357829003601f168201915b50505050508152602001600382015481526020016004820180546121b39061467a565b80601f01602080910402602001604051908101604052809291908181526020018280546121df9061467a565b801561222c5780601f106122015761010080835404028352916020019161222c565b820191906000526020600020905b81548152906001019060200180831161220f57829003601f168201915b505050505081526020016005820154815260200160068201548152602001600782015481526020016008820160009054906101000a900460ff16600281111561227857612277613f99565b5b600281111561228a57612289613f99565b5b815260200160098201805480602002602001604051908101604052809291908181526020016000905b8282101561235f5783829060005260206000200180546122d29061467a565b80601f01602080910402602001604051908101604052809291908181526020018280546122fe9061467a565b801561234b5780601f106123205761010080835404028352916020019161234b565b820191906000526020600020905b81548152906001019060200180831161232e57829003601f168201915b5050505050815260200190600101906122b3565b505050508152602001600a820180546123779061467a565b80601f01602080910402602001604051908101604052809291908181526020018280546123a39061467a565b80156123f05780601f106123c5576101008083540402835291602001916123f0565b820191906000526020600020905b8154815290600101906020018083116123d357829003601f168201915b50505050508152602001600b820180546124099061467a565b80601f01602080910402602001604051908101604052809291908181526020018280546124359061467a565b80156124825780601f1061245757610100808354040283529160200191612482565b820191906000526020600020905b81548152906001019060200180831161246557829003601f168201915b50505050508152602001600c8201548152602001600d82015481525050915050919050565b6000600160008381526020019081526020016000206000015403612500576040517f08c379a00000000000000000000000000000000000000000000000000000000081526004016124f7906147ae565b60405180910390fd5b6000600281111561251457612513613f99565b5b6001600083815260200190815260200160002060080160009054906101000a900460ff16600281111561254a57612549613f99565b5b1461258a576040517f08c379a000000000000000000000000000000000000000000000000000000000815260040161258190614cf1565b60405180910390fd5b600180600083815260200190815260200160002060080160006101000a81548160ff021916908360028111156125c3576125c2613f99565b5b021790555060016004600083815260200190815260200160002060006101000a81548160ff0219169083151502179055506001600082815260200190815260200160002060030154817f1a621270a25ae67b5e557b98be27914cd1de793b7ca49110be85cb5aaa169c9b600160008581526020019081526020016000206002016040516126509190614d95565b60405180910390a36001600082815260200190815260200160002060030154817f309958f3629dbb8b1c3fb39cc2ffd4759c619a8c6c7927159d9e608c99ae4632600160008581526020019081526020016000206002016040516126b49190614d95565b60405180910390a36000600167ffffffffffffffff8111156126d9576126d8613757565b5b6040519080825280602002602001820160405280156127075781602001602082028036833780820191505090505b50905060016000838152602001908152602001600020600d01548160008151811061273557612734614722565b5b6020026020010181815250506127b060016000848152602001908152602001600020600301546040518060400160405280600e81526020017f426174636820417070726f7665640000000000000000000000000000000000008152506040518060600160405280602781526020016155946027913984613141565b5050565b60008054905090565b606060036000838152602001908152602001600020805480602002602001604051908101604052809291908181526020016000905b82821015612aa857838290600052602060002090600702016040518060e001604052908160008201548152602001600182015481526020016002820180546128399061467a565b80601f01602080910402602001604051908101604052809291908181526020018280546128659061467a565b80156128b25780601f10612887576101008083540402835291602001916128b2565b820191906000526020600020905b81548152906001019060200180831161289557829003601f168201915b505050505081526020016003820180546128cb9061467a565b80601f01602080910402602001604051908101604052809291908181526020018280546128f79061467a565b80156129445780601f1061291957610100808354040283529160200191612944565b820191906000526020600020905b81548152906001019060200180831161292757829003601f168201915b505050505081526020016004820160009054906101000a900460ff1615151515815260200160058201805480602002602001604051908101604052809291908181526020016000905b82821015612a395783829060005260206000200180546129ac9061467a565b80601f01602080910402602001604051908101604052809291908181526020018280546129d89061467a565b8015612a255780601f106129fa57610100808354040283529160200191612a25565b820191906000526020600020905b815481529060010190602001808311612a0857829003601f168201915b50505050508152602001906001019061298d565b50505050815260200160068201805480602002602001604051908101604052809291908181526020018280548015612a9057602002820191906000526020600020905b815481526020019060010190808311612a7c575b505050505081525050815260200190600101906127f2565b505050509050919050565b600081600160008581526020019081526020016000206003015414905092915050565b606060006040518060400160405280600281526020017f303000000000000000000000000000000000000000000000000000000000000081525090506000612b1d846132ef565b905060004285604051602001612b34929190614dd8565b6040516020818303038152906040528051906020012060001c90506000612b5a826132ef565b90506000848483604051602001612b7393929190614e04565b60405160208183030381529060405290506000612b8f82613477565b9050600082612ba08360ff166132ef565b604051602001612bb1929190614e35565b604051602081830303815290604052905080975050505050505050919050565b60008060028360200151604051612be89190614634565b90815260200160405180910390205414612c37576040517f08c379a0000000000000000000000000000000000000000000000000000000008152600401612c2e90614ea5565b60405180910390fd5b600082606001515111612c7f576040517f08c379a0000000000000000000000000000000000000000000000000000000008152600401612c7690614f11565b60405180910390fd5b600082608001515111612cc7576040517f08c379a0000000000000000000000000000000000000000000000000000000008152600401612cbe90614fa3565b60405180910390fd5b60008260a001515111612d0f576040517f08c379a0000000000000000000000000000000000000000000000000000000008152600401612d0690615035565b60405180910390fd5b60008260c001515111612d57576040517f08c379a0000000000000000000000000000000000000000000000000000000008152600401612d4e906150a1565b60405180910390fd5b60008260e0015111612d9e576040517f08c379a0000000000000000000000000000000000000000000000000000000008152600401612d959061510d565b60405180910390fd5b600082610100015111612de6576040517f08c379a0000000000000000000000000000000000000000000000000000000008152600401612ddd90615179565b60405180910390fd5b600082610120015111612e2e576040517f08c379a0000000000000000000000000000000000000000000000000000000008152600401612e25906151e5565b60405180910390fd5b81610120015182610100015110612e7a576040517f08c379a0000000000000000000000000000000000000000000000000000000008152600401612e7190615277565b60405180910390fd5b600082600001515111612ec2576040517f08c379a0000000000000000000000000000000000000000000000000000000008152600401612eb9906152e3565b60405180910390fd5b600080815480929190612ed4906146da565b919050555060008054905060004290506000612f0d856020015186604001518760600151858960c001518a60e001518b6000015161353b565b90506000604051806101c00160405280858152602001876000015181526020018760200151815260200187604001518152602001876060015181526020018481526020018761010001518152602001876101200151815260200160006002811115612f7b57612f7a613f99565b5b8152602001876080015181526020018760a0015181526020018760c0015181526020018381526020018760e0015181525090508060016000868152602001908152602001600020600082015181600001556020820151816001019081612fe191906149a4565b506040820151816002019081612ff791906149a4565b5060608201518160030155608082015181600401908161301791906149a4565b5060a0820151816005015560c0820151816006015560e082015181600701556101008201518160080160006101000a81548160ff0219169083600281111561306257613061613f99565b5b0217905550610120820151816009019080519060200190613084929190613601565b5061014082015181600a01908161309b91906149a4565b5061016082015181600b0190816130b291906149a4565b5061018082015181600c01556101a082015181600d015590505083600287602001516040516130e19190614634565b908152602001604051809103902081905550837f58c168780de5fc719a1e7a85c7eca394e664c0e74b7c9ebc621f0b093112d04b8760200151886040015160405161312d929190615303565b60405180910390a283945050505050919050565b60008067ffffffffffffffff81111561315d5761315c613757565b5b60405190808252806020026020018201604052801561319057816020015b606081526020019060019003908161317b5790505b50905060006040518060e00160405280428152602001878152602001868152602001858152602001600115158152602001838152602001848152509050600360008781526020019081526020016000208190806001815401808255809150506001900390600052602060002090600702016000909190919091506000820151816000015560208201518160010155604082015181600201908161323391906149a4565b50606082015181600301908161324991906149a4565b5060808201518160040160006101000a81548160ff02191690831515021790555060a0820151816005019080519060200190613286929190613601565b5060c08201518160060190805190602001906132a392919061365a565b505050857f0fb336061951903d147e6b93ba30f6d47839e02426fcd5ee1876873afe47bab38686600186886040516132df959493929190614ba4565b60405180910390a2505050505050565b606060008203613336576040518060400160405280600181526020017f30000000000000000000000000000000000000000000000000000000000000008152509050613472565b600082905060005b60008214613368578080613351906146da565b915050600a826133619190615362565b915061333e565b60008167ffffffffffffffff81111561338457613383613757565b5b6040519080825280601f01601f1916602001820160405280156133b65781602001600182028036833780820191505090505b50905060008290505b6000861461346a576001816133d49190615393565b90506000600a80886133e69190615362565b6133f091906153c7565b876133fb9190615393565b60306134079190615416565b905060008160f81b90508084848151811061342557613424614722565b5b60200101907effffffffffffffffffffffffffffffffffffffffffffffffffffffffffffff1916908160001a905350600a886134619190615362565b975050506133bf565b819450505050505b919050565b6000808290506000805b825181101561350757600060308483815181106134a1576134a0614722565b5b602001015160f81c60f81b60f81c6134b9919061544b565b905060006002836134ca9190615480565b146134d557806134e3565b6003816134e291906154b1565b5b60ff16836134f191906154ee565b92505080806134ff906146da565b915050613481565b506000600a80836135189190615480565b600a6135249190615393565b61352e9190615480565b9050809350505050919050565b60008787878787878760405160200161355a9796959493929190615522565b604051602081830303815290604052805190602001209050979650505050505050565b604051806101c001604052806000815260200160608152602001606081526020016000815260200160608152602001600081526020016000815260200160008152602001600060028111156135d5576135d4613f99565b5b815260200160608152602001606081526020016060815260200160008019168152602001600081525090565b828054828255906000526020600020908101928215613649579160200282015b8281111561364857825182908161363891906149a4565b5091602001919060010190613621565b5b50905061365691906136a7565b5090565b828054828255906000526020600020908101928215613696579160200282015b8281111561369557825182559160200191906001019061367a565b5b5090506136a391906136cb565b5090565b5b808211156136c757600081816136be91906136e8565b506001016136a8565b5090565b5b808211156136e45760008160009055506001016136cc565b5090565b5080546136f49061467a565b6000825580601f106137065750613725565b601f01602090049060005260206000209081019061372491906136cb565b5b50565b6000604051905090565b600080fd5b600080fd5b600080fd5b600080fd5b6000601f19601f8301169050919050565b7f4e487b7100000000000000000000000000000000000000000000000000000000600052604160045260246000fd5b61378f82613746565b810181811067ffffffffffffffff821117156137ae576137ad613757565b5b80604052505050565b60006137c1613728565b90506137cd8282613786565b919050565b600067ffffffffffffffff8211156137ed576137ec613757565b5b6137f682613746565b9050602081019050919050565b82818337600083830152505050565b6000613825613820846137d2565b6137b7565b90508281526020810184848401111561384157613840613741565b5b61384c848285613803565b509392505050565b600082601f8301126138695761386861373c565b5b8135613879848260208601613812565b91505092915050565b60006020828403121561389857613897613732565b5b600082013567ffffffffffffffff8111156138b6576138b5613737565b5b6138c284828501613854565b91505092915050565b60008115159050919050565b6138e0816138cb565b82525050565b60006020820190506138fb60008301846138d7565b92915050565b6000819050919050565b61391481613901565b811461391f57600080fd5b50565b6000813590506139318161390b565b92915050565b60006020828403121561394d5761394c613732565b5b600061395b84828501613922565b91505092915050565b600081519050919050565b600082825260208201905092915050565b6000819050602082019050919050565b61399981613901565b82525050565b600081519050919050565b600082825260208201905092915050565b60005b838110156139d95780820151818401526020810190506139be565b60008484015250505050565b60006139f08261399f565b6139fa81856139aa565b9350613a0a8185602086016139bb565b613a1381613746565b840191505092915050565b613a27816138cb565b82525050565b600081519050919050565b600082825260208201905092915050565b6000819050602082019050919050565b6000613a6583836139e5565b905092915050565b6000602082019050919050565b6000613a8582613a2d565b613a8f8185613a38565b935083602082028501613aa185613a49565b8060005b85811015613add5784840389528151613abe8582613a59565b9450613ac983613a6d565b925060208a01995050600181019050613aa5565b50829750879550505050505092915050565b600081519050919050565b600082825260208201905092915050565b6000819050602082019050919050565b6000613b278383613990565b60208301905092915050565b6000602082019050919050565b6000613b4b82613aef565b613b558185613afa565b9350613b6083613b0b565b8060005b83811015613b91578151613b788882613b1b565b9750613b8383613b33565b925050600181019050613b64565b5085935050505092915050565b600060e083016000830151613bb66000860182613990565b506020830151613bc96020860182613990565b5060408301518482036040860152613be182826139e5565b91505060608301518482036060860152613bfb82826139e5565b9150506080830151613c106080860182613a1e565b5060a083015184820360a0860152613c288282613a7a565b91505060c083015184820360c0860152613c428282613b40565b9150508091505092915050565b6000613c5b8383613b9e565b905092915050565b6000602082019050919050565b6000613c7b82613964565b613c85818561396f565b935083602082028501613c9785613980565b8060005b85811015613cd35784840389528151613cb48582613c4f565b9450613cbf83613c63565b925060208a01995050600181019050613c9b565b50829750879550505050505092915050565b60006020820190508181036000830152613cff8184613c70565b905092915050565b600067ffffffffffffffff821115613d2257613d21613757565b5b602082029050602081019050919050565b600080fd5b6000613d4b613d4684613d07565b6137b7565b90508083825260208201905060208402830185811115613d6e57613d6d613d33565b5b835b81811015613db557803567ffffffffffffffff811115613d9357613d9261373c565b5b808601613da08982613854565b85526020850194505050602081019050613d70565b5050509392505050565b600082601f830112613dd457613dd361373c565b5b8135613de4848260208601613d38565b91505092915050565b60008060008060008060008060006101208a8c031215613e1057613e0f613732565b5b60008a013567ffffffffffffffff811115613e2e57613e2d613737565b5b613e3a8c828d01613854565b9950506020613e4b8c828d01613922565b98505060408a013567ffffffffffffffff811115613e6c57613e6b613737565b5b613e788c828d01613854565b97505060608a013567ffffffffffffffff811115613e9957613e98613737565b5b613ea58c828d01613dbf565b96505060808a013567ffffffffffffffff811115613ec657613ec5613737565b5b613ed28c828d01613854565b95505060a08a013567ffffffffffffffff811115613ef357613ef2613737565b5b613eff8c828d01613854565b94505060c0613f108c828d01613922565b93505060e0613f218c828d01613922565b925050610100613f338c828d01613922565b9150509295985092959850929598565b613f4c81613901565b82525050565b6000602082019050613f676000830184613f43565b92915050565b600081519050919050565b600082825260208201905092915050565b6000819050602082019050919050565b7f4e487b7100000000000000000000000000000000000000000000000000000000600052602160045260246000fd5b60038110613fd957613fd8613f99565b5b50565b6000819050613fea82613fc8565b919050565b6000613ffa82613fdc565b9050919050565b61400a81613fef565b82525050565b6000819050919050565b61402381614010565b82525050565b60006101c0830160008301516140426000860182613990565b506020830151848203602086015261405a82826139e5565b9150506040830151848203604086015261407482826139e5565b91505060608301516140896060860182613990565b50608083015184820360808601526140a182826139e5565b91505060a08301516140b660a0860182613990565b5060c08301516140c960c0860182613990565b5060e08301516140dc60e0860182613990565b506101008301516140f1610100860182614001565b5061012083015184820361012086015261410b8282613a7a565b91505061014083015184820361014086015261412782826139e5565b91505061016083015184820361016086015261414382826139e5565b91505061018083015161415a61018086018261401a565b506101a083015161416f6101a0860182613990565b508091505092915050565b60006141868383614029565b905092915050565b6000602082019050919050565b60006141a682613f6d565b6141b08185613f78565b9350836020820285016141c285613f89565b8060005b858110156141fe57848403895281516141df858261417a565b94506141ea8361418e565b925060208a019950506001810190506141c6565b50829750879550505050505092915050565b6000602082019050818103600083015261422a818461419b565b905092915050565b6003811061423f57600080fd5b50565b60008135905061425181614232565b92915050565b6000806040838503121561426e5761426d613732565b5b600061427c85828601613922565b925050602061428d85828601614242565b9150509250929050565b60006101c0830160008301516142b06000860182613990565b50602083015184820360208601526142c882826139e5565b915050604083015184820360408601526142e282826139e5565b91505060608301516142f76060860182613990565b506080830151848203608086015261430f82826139e5565b91505060a083015161432460a0860182613990565b5060c083015161433760c0860182613990565b5060e083015161434a60e0860182613990565b5061010083015161435f610100860182614001565b506101208301518482036101208601526143798282613a7a565b91505061014083015184820361014086015261439582826139e5565b9150506101608301518482036101608601526143b182826139e5565b9150506101808301516143c861018086018261401a565b506101a08301516143dd6101a0860182613990565b508091505092915050565b600060208201905081810360008301526144028184614297565b905092915050565b600067ffffffffffffffff82111561442557614424613757565b5b602082029050602081019050919050565b60006144496144448461440a565b6137b7565b9050808382526020820190506020840283018581111561446c5761446b613d33565b5b835b8181101561449557806144818882613922565b84526020840193505060208101905061446e565b5050509392505050565b600082601f8301126144b4576144b361373c565b5b81356144c4848260208601614436565b91505092915050565b600080600080600060a086880312156144e9576144e8613732565b5b60006144f788828901613922565b955050602086013567ffffffffffffffff81111561451857614517613737565b5b61452488828901613854565b945050604086013567ffffffffffffffff81111561454557614544613737565b5b61455188828901613854565b935050606086013567ffffffffffffffff81111561457257614571613737565b5b61457e88828901613dbf565b925050608086013567ffffffffffffffff81111561459f5761459e613737565b5b6145ab8882890161449f565b9150509295509295909350565b600080604083850312156145cf576145ce613732565b5b60006145dd85828601613922565b92505060206145ee85828601613922565b9150509250929050565b600081905092915050565b600061460e8261399f565b61461881856145f8565b93506146288185602086016139bb565b80840191505092915050565b60006146408284614603565b915081905092915050565b7f4e487b7100000000000000000000000000000000000000000000000000000000600052602260045260246000fd5b6000600282049050600182168061469257607f821691505b6020821081036146a5576146a461464b565b5b50919050565b7f4e487b7100000000000000000000000000000000000000000000000000000000600052601160045260246000fd5b60006146e582613901565b91507fffffffffffffffffffffffffffffffffffffffffffffffffffffffffffffffff8203614717576147166146ab565b5b600182019050919050565b7f4e487b7100000000000000000000000000000000000000000000000000000000600052603260045260246000fd5b600082825260208201905092915050565b7f426174636820646f6573206e6f74206578697374000000000000000000000000600082015250565b6000614798601483614751565b91506147a382614762565b602082019050919050565b600060208201905081810360008301526147c78161478b565b9050919050565b6147d781613fef565b82525050565b60006020820190506147f260008301846147ce565b92915050565b60008190508160005260206000209050919050565b60006020601f8301049050919050565b600082821b905092915050565b60006008830261485a7fffffffffffffffffffffffffffffffffffffffffffffffffffffffffffffffff8261481d565b614864868361481d565b95508019841693508086168417925050509392505050565b6000819050919050565b60006148a161489c61489784613901565b61487c565b613901565b9050919050565b6000819050919050565b6148bb83614886565b6148cf6148c7826148a8565b84845461482a565b825550505050565b600090565b6148e46148d7565b6148ef8184846148b2565b505050565b5b81811015614913576149086000826148dc565b6001810190506148f5565b5050565b601f82111561495857614929816147f8565b6149328461480d565b81016020851015614941578190505b61495561494d8561480d565b8301826148f4565b50505b505050565b600082821c905092915050565b600061497b6000198460080261495d565b1980831691505092915050565b6000614994838361496a565b9150826002028217905092915050565b6149ad8261399f565b67ffffffffffffffff8111156149c6576149c5613757565b5b6149d0825461467a565b6149db828285614917565b600060209050601f831160018114614a0e57600084156149fc578287015190505b614a068582614988565b865550614a6e565b601f198416614a1c866147f8565b60005b82811015614a4457848901518255600182019150602085019450602081019050614a1f565b86831015614a615784890151614a5d601f89168261496a565b8355505b6001600288020188555050505b505050505050565b6000614a818261399f565b614a8b8185614751565b9350614a9b8185602086016139bb565b614aa481613746565b840191505092915050565b600082825260208201905092915050565b6000614acb82613a2d565b614ad58185614aaf565b935083602082028501614ae785613a49565b8060005b85811015614b235784840389528151614b048582613a59565b9450614b0f83613a6d565b925060208a01995050600181019050614aeb565b50829750879550505050505092915050565b600082825260208201905092915050565b6000614b5182613aef565b614b5b8185614b35565b9350614b6683613b0b565b8060005b83811015614b97578151614b7e8882613b1b565b9750614b8983613b33565b925050600181019050614b6a565b5085935050505092915050565b600060a0820190508181036000830152614bbe8188614a76565b90508181036020830152614bd28187614a76565b9050614be160408301866138d7565b8181036060830152614bf38185614ac0565b90508181036080830152614c078184614b46565b90509695505050505050565b7f426174636820776974682074686973205353434320646f6573206e6f7420657860008201527f6973740000000000000000000000000000000000000000000000000000000000602082015250565b6000614c6f602383614751565b9150614c7a82614c13565b604082019050919050565b60006020820190508181036000830152614c9e81614c62565b9050919050565b7f4261746368206973206e6f742070656e64696e6720617070726f76616c000000600082015250565b6000614cdb601d83614751565b9150614ce682614ca5565b602082019050919050565b60006020820190508181036000830152614d0a81614cce565b9050919050565b60008154614d1e8161467a565b614d288186614751565b94506001821660008114614d435760018114614d5957614d8c565b60ff198316865281151560200286019350614d8c565b614d62856147f8565b60005b83811015614d8457815481890152600182019150602081019050614d65565b808801955050505b50505092915050565b60006020820190508181036000830152614daf8184614d11565b905092915050565b6000819050919050565b614dd2614dcd82613901565b614db7565b82525050565b6000614de48285614dc1565b602082019150614df48284614dc1565b6020820191508190509392505050565b6000614e108286614603565b9150614e1c8285614603565b9150614e288284614603565b9150819050949350505050565b6000614e418285614603565b9150614e4d8284614603565b91508190509392505050565b7f5353434320616c72656164792065786973747300000000000000000000000000600082015250565b6000614e8f601383614751565b9150614e9a82614e59565b602082019050919050565b60006020820190508181036000830152614ebe81614e82565b9050919050565b7f5175616e74697479206d757374206e6f7420626520656d707479000000000000600082015250565b6000614efb601a83614751565b9150614f0682614ec5565b602082019050919050565b60006020820190508181036000830152614f2a81614eee565b9050919050565b7f4174206c65617374206f6e652070726f6475637420696d6167652055524c206960008201527f7320726571756972656400000000000000000000000000000000000000000000602082015250565b6000614f8d602a83614751565b9150614f9882614f31565b604082019050919050565b60006020820190508181036000830152614fbc81614f80565b9050919050565b7f436572746966696361746520696d6167652055524c206973207265717569726560008201527f6400000000000000000000000000000000000000000000000000000000000000602082015250565b600061501f602183614751565b915061502a82614fc3565b604082019050919050565b6000602082019050818103600083015261504e81615012565b9050919050565b7f4661726d20706c6f74206e756d62657220697320726571756972656400000000600082015250565b600061508b601c83614751565b915061509682615055565b602082019050919050565b600060208201905081810360008301526150ba8161507e565b9050919050565b7f50726f64756374204944206d7573742062652076616c69640000000000000000600082015250565b60006150f7601883614751565b9150615102826150c1565b602082019050919050565b60006020820190508181036000830152615126816150ea565b9050919050565b7f5374617274206461746520697320726571756972656400000000000000000000600082015250565b6000615163601683614751565b915061516e8261512d565b602082019050919050565b6000602082019050818103600083015261519281615156565b9050919050565b7f456e642064617465206973207265717569726564000000000000000000000000600082015250565b60006151cf601483614751565b91506151da82615199565b602082019050919050565b600060208201905081810360008301526151fe816151c2565b9050919050565b7f53746172742064617465206d757374206265206265666f726520656e6420646160008201527f7465000000000000000000000000000000000000000000000000000000000000602082015250565b6000615261602283614751565b915061526c82615205565b604082019050919050565b6000602082019050818103600083015261529081615254565b9050919050565b7f4261746368206e616d65206d757374206e6f7420626520656d70747900000000600082015250565b60006152cd601c83614751565b91506152d882615297565b602082019050919050565b600060208201905081810360008301526152fc816152c0565b9050919050565b6000604082019050818103600083015261531d8185614a76565b905061532c6020830184613f43565b9392505050565b7f4e487b7100000000000000000000000000000000000000000000000000000000600052601260045260246000fd5b600061536d82613901565b915061537883613901565b92508261538857615387615333565b5b828204905092915050565b600061539e82613901565b91506153a983613901565b92508282039050818111156153c1576153c06146ab565b5b92915050565b60006153d282613901565b91506153dd83613901565b92508282026153eb81613901565b91508282048414831517615402576154016146ab565b5b5092915050565b600060ff82169050919050565b600061542182615409565b915061542c83615409565b9250828201905060ff811115615445576154446146ab565b5b92915050565b600061545682615409565b915061546183615409565b9250828203905060ff81111561547a576154796146ab565b5b92915050565b600061548b82613901565b915061549683613901565b9250826154a6576154a5615333565b5b828206905092915050565b60006154bc82615409565b91506154c783615409565b92508282026154d581615409565b91508082146154e7576154e66146ab565b5b5092915050565b60006154f982613901565b915061550483613901565b925082820190508082111561551c5761551b6146ab565b5b92915050565b600061552e828a614603565b915061553a8289614dc1565b60208201915061554a8288614603565b91506155568287614dc1565b6020820191506155668286614603565b91506155728285614dc1565b6020820191506155828284614603565b91508190509897505050505050505056fe426174636820686173206265656e20617070726f7665642062792074686520617070726f766572a2646970667358221220a1d5efea4cd3d58a85770094c1959ad7ac201f2be6d7a0cfda24740bd81d509364736f6c63430008140033",
  "immutableReferences": {},
  "source": "// SPDX-License-Identifier: MIT\r\npragma solidity ^0.8.0;\r\n\r\ncontract TraceabilityContract {\r\n    uint256 private _batchIdCounter;\r\n\r\nenum BatchStatus { PendingApproval, Approved, Rejected }\r\n\r\n    struct Batch {\r\n        uint256 batchId;\r\n        string name;  // Thm trng tn l hng\r\n        string sscc;\r\n        uint256 producerId;\r\n        string quantity;\r\n        uint256 productionDate;\r\n        uint256 startDate;\r\n        uint256 endDate;\r\n        BatchStatus status;\r\n        string[] productImageUrls;\r\n        string certificateImageUrl;\r\n        string farmPlotNumber;\r\n        bytes32 dataHash;\r\n        uint256 productId;\r\n    }\r\n      struct ActivityLog {\r\n        uint256 timestamp;\r\n        uint256 uid;\r\n        string activityName;\r\n        string description;\r\n        bool isSystemGenerated;\r\n        string[] imageUrls;\r\n        uint256[] relatedProductIds;\r\n    }\r\n\r\n\r\n    mapping(uint256 => Batch) private _batches;\r\n    mapping(string => uint256) private _ssccToBatchId;\r\n        mapping(uint256 => ActivityLog[]) private _producerActivityLogs;\r\n    mapping(uint256 => bool) private _approvedBatches;\r\n    \r\n    event BatchApproved(uint256 indexed batchId, uint256 indexed producerId, string sscc);\r\n    event BatchApprovedForQR(uint256 indexed batchId, uint256 indexed producerId, string sscc);\r\n\r\n    event BatchCreated(uint256 indexed batchId, string sscc, uint256 producerId);\r\n    event ActivityLogAdded(\r\n        uint256 indexed uid,\r\n        string activityName,\r\n        string description,\r\n        bool isSystemGenerated,\r\n        string[] imageUrls,\r\n        uint256[] relatedProductIds\r\n    );\r\n\r\n    struct BatchParams {\r\n        string name;  // Thm trng tn l hng\r\n        string sscc;\r\n        uint256 producerId;\r\n        string quantity;\r\n        string[] productImageUrls;\r\n        string certificateImageUrl;\r\n        string farmPlotNumber;\r\n        uint256 productId;\r\n        uint256 startDate;\r\n        uint256 endDate;\r\n    }\r\n\r\n    function createBatch(\r\n        string memory _name,  // Thm tham s tn l hng\r\n        uint256 _producerId,\r\n        string memory _quantity,\r\n        string[] memory _productImageUrls,\r\n        string memory _certificateImageUrl,\r\n        string memory _farmPlotNumber,\r\n        uint256 _productId,\r\n        uint256 _startDate,\r\n        uint256 _endDate\r\n    ) public returns (uint256) {\r\n        string memory sscc = generateSSCC(_producerId);\r\n        BatchParams memory params = BatchParams({\r\n            name: _name,  // Thm tn l hng\r\n            sscc: sscc,\r\n            producerId: _producerId,\r\n            quantity: _quantity,\r\n            productImageUrls: _productImageUrls,\r\n            certificateImageUrl: _certificateImageUrl,\r\n            farmPlotNumber: _farmPlotNumber,\r\n            productId: _productId,\r\n            startDate: _startDate,\r\n            endDate: _endDate\r\n        });\r\n\r\n        return _createBatch(params);\r\n    }\r\n\r\n    function generateSSCC(uint256 _producerId) private view returns (string memory) {\r\n        string memory prefix = \"00\";\r\n        string memory companyPrefix = uint2str(_producerId);\r\n        uint256 serialNumber = uint256(keccak256(abi.encodePacked(block.timestamp, _producerId)));\r\n        string memory serialReference = uint2str(serialNumber);\r\n        \r\n        string memory ssccWithoutCheck = string(abi.encodePacked(prefix, companyPrefix, serialReference));\r\n        uint8 checkDigit = calculateCheckDigit(ssccWithoutCheck);\r\n        \r\n        string memory sscc = string(abi.encodePacked(ssccWithoutCheck, uint2str(uint256(checkDigit))));\r\n        \r\n        return sscc;\r\n    }\r\n\r\n    function calculateCheckDigit(string memory _code) private pure returns (uint8) {\r\n        bytes memory codeBytes = bytes(_code);\r\n        uint256 sum = 0;\r\n        for (uint256 i = 0; i < codeBytes.length; i++) {\r\n            uint8 digit = uint8(codeBytes[i]) - 48;\r\n            sum += (i % 2 == 0) ? digit * 3 : digit;\r\n        }\r\n        uint8 checkDigit = uint8((10 - (sum % 10)) % 10);\r\n        return checkDigit;\r\n    }\r\n\r\n    function uint2str(uint256 _i) private pure returns (string memory) {\r\n        if (_i == 0) {\r\n            return \"0\";\r\n        }\r\n        uint256 j = _i;\r\n        uint256 length;\r\n        while (j != 0) {\r\n            length++;\r\n            j /= 10;\r\n        }\r\n        bytes memory bstr = new bytes(length);\r\n        uint256 k = length;\r\n        while (_i != 0) {\r\n            k = k-1;\r\n            uint8 temp = (48 + uint8(_i - _i / 10 * 10));\r\n            bytes1 b1 = bytes1(temp);\r\n            bstr[k] = b1;\r\n            _i /= 10;\r\n        }\r\n        return string(bstr);\r\n    }\r\n\r\n    function _createBatch(BatchParams memory params) private returns (uint256) {\r\n        require(_ssccToBatchId[params.sscc] == 0, \"SSCC already exists\");\r\n        require(bytes(params.quantity).length > 0, \"Quantity must not be empty\");\r\n        require(params.productImageUrls.length > 0, \"At least one product image URL is required\");\r\n        require(bytes(params.certificateImageUrl).length > 0, \"Certificate image URL is required\");\r\n        require(bytes(params.farmPlotNumber).length > 0, \"Farm plot number is required\");\r\n        require(params.productId > 0, \"Product ID must be valid\");\r\n        require(params.startDate > 0, \"Start date is required\");\r\n        require(params.endDate > 0, \"End date is required\");\r\n        require(params.startDate < params.endDate, \"Start date must be before end date\");\r\n        require(bytes(params.name).length > 0, \"Batch name must not be empty\");\r\n\r\n        _batchIdCounter++;\r\n        uint256 newBatchId = _batchIdCounter;\r\n\r\n        uint256 productionDate = block.timestamp;\r\n\r\n        bytes32 dataHash = _calculateDataHash(\r\n            params.sscc,\r\n            params.producerId,\r\n            params.quantity,\r\n            productionDate,\r\n            params.farmPlotNumber,\r\n            params.productId,\r\n            params.name  // Thm tn l hng vo hm bm\r\n        );\r\n\r\n        Batch memory newBatch = Batch({\r\n            batchId: newBatchId,\r\n            name: params.name,  // Thm tn l hng\r\n            sscc: params.sscc,\r\n            producerId: params.producerId,\r\n            quantity: params.quantity,\r\n            productionDate: productionDate,\r\n            startDate: params.startDate,\r\n            endDate: params.endDate,\r\n            status: BatchStatus.PendingApproval,\r\n            productImageUrls: params.productImageUrls,\r\n            certificateImageUrl: params.certificateImageUrl,\r\n            farmPlotNumber: params.farmPlotNumber,\r\n            dataHash: dataHash,\r\n            productId: params.productId\r\n        });\r\n\r\n        _batches[newBatchId] = newBatch;\r\n        _ssccToBatchId[params.sscc] = newBatchId;\r\n\r\n        emit BatchCreated(newBatchId, params.sscc, params.producerId);\r\n        return newBatchId;\r\n    }\r\n    \r\n\r\n    function addActivityLog(\r\n        uint256 _uid,\r\n        string memory _activityName,\r\n        string memory _description,\r\n        string[] memory _imageUrls,\r\n        uint256[] memory _relatedProductIds\r\n    ) public {\r\n        ActivityLog memory newLog = ActivityLog({\r\n            timestamp: block.timestamp,\r\n            uid: _uid,\r\n            activityName: _activityName,\r\n            description: _description,\r\n            isSystemGenerated: false,\r\n            imageUrls: _imageUrls,\r\n            relatedProductIds: _relatedProductIds\r\n        });\r\n\r\n        _producerActivityLogs[_uid].push(newLog);\r\n        emit ActivityLogAdded(_uid, _activityName, _description, false, _imageUrls, _relatedProductIds);\r\n    }\r\n // Hm  ly nht k hot ng ca mt nh sn xut\r\n    function getProducerActivityLogs(uint256 _uid) public view returns (ActivityLog[] memory) {\r\n        return _producerActivityLogs[_uid];\r\n    }\r\n\r\n    \r\n    // Hm ni b  h thng t ng thm nht k\r\n    function _addSystemActivityLog(\r\n        uint256 _uid,\r\n        string memory _activityName,\r\n        string memory _description,\r\n        uint256[] memory _relatedProductIds\r\n    ) internal {\r\n        string[] memory emptyImageUrls = new string[](0);\r\n        ActivityLog memory newLog = ActivityLog({\r\n            timestamp: block.timestamp,\r\n            uid: _uid,\r\n            activityName: _activityName,\r\n            description: _description,\r\n            isSystemGenerated: true,\r\n            imageUrls: emptyImageUrls,\r\n            relatedProductIds: _relatedProductIds\r\n        });\r\n\r\n        _producerActivityLogs[_uid].push(newLog);\r\n        emit ActivityLogAdded(_uid, _activityName, _description, true, emptyImageUrls, _relatedProductIds);\r\n    }\r\n    \r\n    function _calculateDataHash(\r\n        string memory _sscc,\r\n        uint256 _producerId,\r\n        string memory _quantity,\r\n        uint256 _productionDate,\r\n        string memory _farmPlotNumber,\r\n        uint256 _productId,\r\n        string memory _name  // Thm tn l hng\r\n    ) private pure returns (bytes32) {\r\n        return keccak256(abi.encodePacked(_sscc, _producerId, _quantity, _productionDate, _farmPlotNumber, _productId, _name));\r\n    }\r\n    // hm kim tra sscc  tn ti hay cha \r\n    function ssccExists(string memory sscc) public view returns (bool) {\r\n        return _ssccToBatchId[sscc] != 0;\r\n    }\r\n\r\n    // Hm mi  ly danh sch cc l hng da trn producerId\r\n    function getBatchesByProducer(uint256 producerId) public view returns (Batch[] memory) {\r\n        uint256 count = 0;\r\n        for (uint256 i = 1; i <= _batchIdCounter; i++) {\r\n            if (_batches[i].producerId == producerId) {\r\n                count++;\r\n            }\r\n        }\r\n\r\n        Batch[] memory batches = new Batch[](count);\r\n        uint256 index = 0;\r\n        for (uint256 i = 1; i <= _batchIdCounter; i++) {\r\n            if (_batches[i].producerId == producerId) {\r\n                batches[index] = _batches[i];\r\n                index++;\r\n            }\r\n        }\r\n\r\n        return batches;\r\n    }\r\n\r\n    // hm cp nht trng thi l hng\r\nfunction updateBatchStatus(uint256 _batchId, BatchStatus _newStatus) public {\r\n    require(_batches[_batchId].batchId != 0, \"Batch does not exist\");\r\n    // Thm kim tra quyn nu cn\r\n    _batches[_batchId].status = _newStatus;\r\n    emit BatchStatusUpdated(_batchId, _newStatus);\r\n}\r\nfunction getPendingBatchesByProducer(uint256 _producerId) public view returns (Batch[] memory) {\r\n    uint256 pendingCount = 0;\r\n    for (uint256 i = 1; i <= _batchIdCounter; i++) {\r\n        if (_batches[i].producerId == _producerId && _batches[i].status == BatchStatus.PendingApproval) {\r\n            pendingCount++;\r\n        }\r\n    }\r\n\r\n    Batch[] memory pendingBatches = new Batch[](pendingCount);\r\n    uint256 index = 0;\r\n    for (uint256 i = 1; i <= _batchIdCounter; i++) {\r\n        if (_batches[i].producerId == _producerId && _batches[i].status == BatchStatus.PendingApproval) {\r\n            pendingBatches[index] = _batches[i];\r\n            index++;\r\n        }\r\n    }\r\n\r\n    return pendingBatches;\r\n}\r\n\r\nfunction getAllPendingBatches() public view returns (Batch[] memory) {\r\n        uint256 pendingCount = 0;\r\n        for (uint256 i = 1; i <= _batchIdCounter; i++) {\r\n            if (_batches[i].status == BatchStatus.PendingApproval) {\r\n                pendingCount++;\r\n            }\r\n        }\r\n\r\n        Batch[] memory pendingBatches = new Batch[](pendingCount);\r\n        uint256 index = 0;\r\n        for (uint256 i = 1; i <= _batchIdCounter; i++) {\r\n            if (_batches[i].status == BatchStatus.PendingApproval) {\r\n                pendingBatches[index] = _batches[i];\r\n                index++;\r\n            }\r\n        }\r\n\r\n        return pendingBatches;\r\n    }\r\n\r\nevent BatchStatusUpdated(uint256 indexed batchId, BatchStatus newStatus);\r\n\r\n// hm ly thng tin l hng\r\nfunction getBatchDetails(uint256 _batchId) public view returns (Batch memory) {\r\n    require(_batches[_batchId].batchId != 0, \"Batch does not exist\");\r\n    return _batches[_batchId];\r\n}\r\nfunction getBatchBySSCC(string memory _sscc) public view returns (Batch memory) {\r\n    uint256 batchId = _ssccToBatchId[_sscc];\r\n    require(batchId != 0, \"Batch with this SSCC does not exist\");\r\n    return _batches[batchId];\r\n}\r\n\r\nfunction getTotalBatches() public view returns (uint256) {\r\n    return _batchIdCounter;\r\n}\r\n\r\nfunction isProducerOfBatch(uint256 _batchId, uint256 _producerId) public view returns (bool) {\r\n    return _batches[_batchId].producerId == _producerId;\r\n}\r\n\r\n// Thm hm ny vo smart contract\r\nfunction getActivityLogs(uint256 _uid) public view returns (ActivityLog[] memory) {\r\n    return _producerActivityLogs[_uid];\r\n}\r\nfunction getActivityLogCount(uint256 _uid) public view returns (uint256) {\r\n    return _producerActivityLogs[_uid].length;\r\n}\r\n\r\nmodifier onlyApprover() {\r\n    // Implement logic to check if msg.sender is an approver\r\n    _;\r\n}\r\n\r\nfunction approveBatch(uint256 _batchId) public onlyApprover {\r\n    require(_batches[_batchId].batchId != 0, \"Batch does not exist\");\r\n    require(_batches[_batchId].status == BatchStatus.PendingApproval, \"Batch is not pending approval\");\r\n\r\n    _batches[_batchId].status = BatchStatus.Approved;\r\n    _approvedBatches[_batchId] = true;\r\n\r\n    emit BatchApproved(_batchId, _batches[_batchId].producerId, _batches[_batchId].sscc);\r\n    emit BatchApprovedForQR(_batchId, _batches[_batchId].producerId, _batches[_batchId].sscc);\r\n    \r\n    // Add system activity log\r\n    uint256[] memory relatedProductIds = new uint256[](1);\r\n    relatedProductIds[0] = _batches[_batchId].productId;\r\n    _addSystemActivityLog(_batches[_batchId].producerId, \"Batch Approved\", \"Batch has been approved by the approver\", relatedProductIds);\r\n}\r\n\r\nfunction isBatchApproved(uint256 _batchId) public view returns (bool) {\r\n    return _approvedBatches[_batchId];\r\n}\r\n\r\n}",
  "sourcePath": "D:\\projects\\nckh-be\\blockchain\\contracts\\supplychain.sol",
  "compiler": {
    "name": "solc",
    "version": "0.8.20+commit.a1b79de6.Emscripten.clang"
  },
  "schemaVersion": "3.4.16",
  "updatedAt": "2024-09-10T14:46:27.582Z",
  "networkType": "ethereum",
  "devdoc": {
    "kind": "dev",
    "methods": {},
    "version": 1
  },
  "userdoc": {
    "kind": "user",
    "methods": {},
    "version": 1
  }
}