{
  "contractName": "TraceabilityContract",
  "abi": [
    {
      "anonymous": false,
      "inputs": [
        {
          "indexed": true,
          "internalType": "uint256",
          "name": "uid",
          "type": "uint256"
        },
        {
          "indexed": false,
          "internalType": "string",
          "name": "activityName",
          "type": "string"
        },
        {
          "indexed": false,
          "internalType": "string",
          "name": "description",
          "type": "string"
        },
        {
          "indexed": false,
          "internalType": "bool",
          "name": "isSystemGenerated",
          "type": "bool"
        },
        {
          "indexed": false,
          "internalType": "string[]",
          "name": "imageUrls",
          "type": "string[]"
        },
        {
          "indexed": false,
          "internalType": "uint256[]",
          "name": "relatedProductIds",
          "type": "uint256[]"
        }
      ],
      "name": "ActivityLogAdded",
      "type": "event"
    },
    {
      "anonymous": false,
      "inputs": [
        {
          "indexed": true,
          "internalType": "uint256",
          "name": "batchId",
          "type": "uint256"
        },
        {
          "indexed": true,
          "internalType": "uint256",
          "name": "producerId",
          "type": "uint256"
        },
        {
          "indexed": false,
          "internalType": "string",
          "name": "sscc",
          "type": "string"
        }
      ],
      "name": "BatchApproved",
      "type": "event"
    },
    {
      "anonymous": false,
      "inputs": [
        {
          "indexed": true,
          "internalType": "uint256",
          "name": "batchId",
          "type": "uint256"
        },
        {
          "indexed": true,
          "internalType": "uint256",
          "name": "producerId",
          "type": "uint256"
        },
        {
          "indexed": false,
          "internalType": "string",
          "name": "sscc",
          "type": "string"
        }
      ],
      "name": "BatchApprovedForQR",
      "type": "event"
    },
    {
      "anonymous": false,
      "inputs": [
        {
          "indexed": true,
          "internalType": "uint256",
          "name": "batchId",
          "type": "uint256"
        },
        {
          "indexed": false,
          "internalType": "string",
          "name": "sscc",
          "type": "string"
        },
        {
          "indexed": false,
          "internalType": "uint256",
          "name": "producerId",
          "type": "uint256"
        }
      ],
      "name": "BatchCreated",
      "type": "event"
    },
    {
      "anonymous": false,
      "inputs": [
        {
          "indexed": true,
          "internalType": "uint256",
          "name": "batchId",
          "type": "uint256"
        },
        {
          "indexed": false,
          "internalType": "uint256",
          "name": "producerId",
          "type": "uint256"
        },
        {
          "indexed": false,
          "internalType": "string",
          "name": "sscc",
          "type": "string"
        }
      ],
      "name": "BatchRejected",
      "type": "event"
    },
    {
      "anonymous": false,
      "inputs": [
        {
          "indexed": true,
          "internalType": "uint256",
          "name": "batchId",
          "type": "uint256"
        },
        {
          "indexed": false,
          "internalType": "enum TraceabilityContract.BatchStatus",
          "name": "newStatus",
          "type": "uint8"
        }
      ],
      "name": "BatchStatusUpdated",
      "type": "event"
    },
    {
      "anonymous": false,
      "inputs": [
        {
          "indexed": true,
          "internalType": "uint256",
          "name": "batchId",
          "type": "uint256"
        },
        {
          "indexed": false,
          "internalType": "uint256",
          "name": "participantId",
          "type": "uint256"
        },
        {
          "indexed": false,
          "internalType": "string",
          "name": "participantType",
          "type": "string"
        },
        {
          "indexed": false,
          "internalType": "string",
          "name": "action",
          "type": "string"
        }
      ],
      "name": "ParticipationRecorded",
      "type": "event"
    },
    {
      "anonymous": false,
      "inputs": [
        {
          "indexed": true,
          "internalType": "uint256",
          "name": "batchId",
          "type": "uint256"
        },
        {
          "indexed": false,
          "internalType": "enum TraceabilityContract.TransportStatus",
          "name": "newStatus",
          "type": "uint8"
        },
        {
          "indexed": false,
          "internalType": "string",
          "name": "action",
          "type": "string"
        },
        {
          "indexed": false,
          "internalType": "uint256",
          "name": "participantId",
          "type": "uint256"
        },
        {
          "indexed": false,
          "internalType": "string",
          "name": "participantType",
          "type": "string"
        }
      ],
      "name": "TransportStatusUpdated",
      "type": "event"
    },
    {
      "inputs": [
        {
          "internalType": "string",
          "name": "_name",
          "type": "string"
        },
        {
          "internalType": "uint256",
          "name": "_producerId",
          "type": "uint256"
        },
        {
          "internalType": "string",
          "name": "_quantity",
          "type": "string"
        },
        {
          "internalType": "string[]",
          "name": "_productImageUrls",
          "type": "string[]"
        },
        {
          "internalType": "string",
          "name": "_certificateImageUrl",
          "type": "string"
        },
        {
          "internalType": "string",
          "name": "_farmPlotNumber",
          "type": "string"
        },
        {
          "internalType": "uint256",
          "name": "_productId",
          "type": "uint256"
        },
        {
          "internalType": "uint256",
          "name": "_startDate",
          "type": "uint256"
        },
        {
          "internalType": "uint256",
          "name": "_endDate",
          "type": "uint256"
        }
      ],
      "name": "createBatch",
      "outputs": [
        {
          "internalType": "uint256",
          "name": "",
          "type": "uint256"
        }
      ],
      "stateMutability": "nonpayable",
      "type": "function"
    },
    {
      "inputs": [
        {
          "internalType": "uint256",
          "name": "_uid",
          "type": "uint256"
        },
        {
          "internalType": "string",
          "name": "_activityName",
          "type": "string"
        },
        {
          "internalType": "string",
          "name": "_description",
          "type": "string"
        },
        {
          "internalType": "string[]",
          "name": "_imageUrls",
          "type": "string[]"
        },
        {
          "internalType": "uint256[]",
          "name": "_relatedProductIds",
          "type": "uint256[]"
        }
      ],
      "name": "addActivityLog",
      "outputs": [],
      "stateMutability": "nonpayable",
      "type": "function"
    },
    {
      "inputs": [
        {
          "internalType": "uint256",
          "name": "_uid",
          "type": "uint256"
        }
      ],
      "name": "getProducerActivityLogs",
      "outputs": [
        {
          "components": [
            {
              "internalType": "uint256",
              "name": "timestamp",
              "type": "uint256"
            },
            {
              "internalType": "uint256",
              "name": "uid",
              "type": "uint256"
            },
            {
              "internalType": "string",
              "name": "activityName",
              "type": "string"
            },
            {
              "internalType": "string",
              "name": "description",
              "type": "string"
            },
            {
              "internalType": "bool",
              "name": "isSystemGenerated",
              "type": "bool"
            },
            {
              "internalType": "string[]",
              "name": "imageUrls",
              "type": "string[]"
            },
            {
              "internalType": "uint256[]",
              "name": "relatedProductIds",
              "type": "uint256[]"
            }
          ],
          "internalType": "struct TraceabilityContract.ActivityLog[]",
          "name": "",
          "type": "tuple[]"
        }
      ],
      "stateMutability": "view",
      "type": "function",
      "constant": true
    },
    {
      "inputs": [
        {
          "internalType": "string",
          "name": "sscc",
          "type": "string"
        }
      ],
      "name": "ssccExists",
      "outputs": [
        {
          "internalType": "bool",
          "name": "",
          "type": "bool"
        }
      ],
      "stateMutability": "view",
      "type": "function",
      "constant": true
    },
    {
      "inputs": [
        {
          "internalType": "uint256",
          "name": "producerId",
          "type": "uint256"
        }
      ],
      "name": "getBatchesByProducer",
      "outputs": [
        {
          "components": [
            {
              "internalType": "uint256",
              "name": "batchId",
              "type": "uint256"
            },
            {
              "internalType": "string",
              "name": "name",
              "type": "string"
            },
            {
              "internalType": "string",
              "name": "sscc",
              "type": "string"
            },
            {
              "internalType": "uint256",
              "name": "producerId",
              "type": "uint256"
            },
            {
              "internalType": "string",
              "name": "quantity",
              "type": "string"
            },
            {
              "internalType": "uint256",
              "name": "productionDate",
              "type": "uint256"
            },
            {
              "internalType": "uint256",
              "name": "startDate",
              "type": "uint256"
            },
            {
              "internalType": "uint256",
              "name": "endDate",
              "type": "uint256"
            },
            {
              "internalType": "enum TraceabilityContract.BatchStatus",
              "name": "status",
              "type": "uint8"
            },
            {
              "internalType": "string[]",
              "name": "productImageUrls",
              "type": "string[]"
            },
            {
              "internalType": "string",
              "name": "certificateImageUrl",
              "type": "string"
            },
            {
              "internalType": "string",
              "name": "farmPlotNumber",
              "type": "string"
            },
            {
              "internalType": "bytes32",
              "name": "dataHash",
              "type": "bytes32"
            },
            {
              "internalType": "uint256",
              "name": "productId",
              "type": "uint256"
            },
            {
              "internalType": "enum TraceabilityContract.TransportStatus",
              "name": "transportStatus",
              "type": "uint8"
            }
          ],
          "internalType": "struct TraceabilityContract.Batch[]",
          "name": "",
          "type": "tuple[]"
        }
      ],
      "stateMutability": "view",
      "type": "function",
      "constant": true
    },
    {
      "inputs": [
        {
          "internalType": "uint256",
          "name": "_batchId",
          "type": "uint256"
        },
        {
          "internalType": "enum TraceabilityContract.BatchStatus",
          "name": "_newStatus",
          "type": "uint8"
        }
      ],
      "name": "updateBatchStatus",
      "outputs": [],
      "stateMutability": "nonpayable",
      "type": "function"
    },
    {
      "inputs": [
        {
          "internalType": "uint256",
          "name": "_producerId",
          "type": "uint256"
        }
      ],
      "name": "getPendingBatchesByProducer",
      "outputs": [
        {
          "components": [
            {
              "internalType": "uint256",
              "name": "batchId",
              "type": "uint256"
            },
            {
              "internalType": "string",
              "name": "name",
              "type": "string"
            },
            {
              "internalType": "string",
              "name": "sscc",
              "type": "string"
            },
            {
              "internalType": "uint256",
              "name": "producerId",
              "type": "uint256"
            },
            {
              "internalType": "string",
              "name": "quantity",
              "type": "string"
            },
            {
              "internalType": "uint256",
              "name": "productionDate",
              "type": "uint256"
            },
            {
              "internalType": "uint256",
              "name": "startDate",
              "type": "uint256"
            },
            {
              "internalType": "uint256",
              "name": "endDate",
              "type": "uint256"
            },
            {
              "internalType": "enum TraceabilityContract.BatchStatus",
              "name": "status",
              "type": "uint8"
            },
            {
              "internalType": "string[]",
              "name": "productImageUrls",
              "type": "string[]"
            },
            {
              "internalType": "string",
              "name": "certificateImageUrl",
              "type": "string"
            },
            {
              "internalType": "string",
              "name": "farmPlotNumber",
              "type": "string"
            },
            {
              "internalType": "bytes32",
              "name": "dataHash",
              "type": "bytes32"
            },
            {
              "internalType": "uint256",
              "name": "productId",
              "type": "uint256"
            },
            {
              "internalType": "enum TraceabilityContract.TransportStatus",
              "name": "transportStatus",
              "type": "uint8"
            }
          ],
          "internalType": "struct TraceabilityContract.Batch[]",
          "name": "",
          "type": "tuple[]"
        }
      ],
      "stateMutability": "view",
      "type": "function",
      "constant": true
    },
    {
      "inputs": [
        {
          "internalType": "uint256",
          "name": "_producerId",
          "type": "uint256"
        }
      ],
      "name": "getRejectedBatchesByProducer",
      "outputs": [
        {
          "components": [
            {
              "internalType": "uint256",
              "name": "batchId",
              "type": "uint256"
            },
            {
              "internalType": "string",
              "name": "name",
              "type": "string"
            },
            {
              "internalType": "string",
              "name": "sscc",
              "type": "string"
            },
            {
              "internalType": "uint256",
              "name": "producerId",
              "type": "uint256"
            },
            {
              "internalType": "string",
              "name": "quantity",
              "type": "string"
            },
            {
              "internalType": "uint256",
              "name": "productionDate",
              "type": "uint256"
            },
            {
              "internalType": "uint256",
              "name": "startDate",
              "type": "uint256"
            },
            {
              "internalType": "uint256",
              "name": "endDate",
              "type": "uint256"
            },
            {
              "internalType": "enum TraceabilityContract.BatchStatus",
              "name": "status",
              "type": "uint8"
            },
            {
              "internalType": "string[]",
              "name": "productImageUrls",
              "type": "string[]"
            },
            {
              "internalType": "string",
              "name": "certificateImageUrl",
              "type": "string"
            },
            {
              "internalType": "string",
              "name": "farmPlotNumber",
              "type": "string"
            },
            {
              "internalType": "bytes32",
              "name": "dataHash",
              "type": "bytes32"
            },
            {
              "internalType": "uint256",
              "name": "productId",
              "type": "uint256"
            },
            {
              "internalType": "enum TraceabilityContract.TransportStatus",
              "name": "transportStatus",
              "type": "uint8"
            }
          ],
          "internalType": "struct TraceabilityContract.Batch[]",
          "name": "",
          "type": "tuple[]"
        }
      ],
      "stateMutability": "view",
      "type": "function",
      "constant": true
    },
    {
      "inputs": [],
      "name": "getAllPendingBatches",
      "outputs": [
        {
          "components": [
            {
              "internalType": "uint256",
              "name": "batchId",
              "type": "uint256"
            },
            {
              "internalType": "string",
              "name": "name",
              "type": "string"
            },
            {
              "internalType": "string",
              "name": "sscc",
              "type": "string"
            },
            {
              "internalType": "uint256",
              "name": "producerId",
              "type": "uint256"
            },
            {
              "internalType": "string",
              "name": "quantity",
              "type": "string"
            },
            {
              "internalType": "uint256",
              "name": "productionDate",
              "type": "uint256"
            },
            {
              "internalType": "uint256",
              "name": "startDate",
              "type": "uint256"
            },
            {
              "internalType": "uint256",
              "name": "endDate",
              "type": "uint256"
            },
            {
              "internalType": "enum TraceabilityContract.BatchStatus",
              "name": "status",
              "type": "uint8"
            },
            {
              "internalType": "string[]",
              "name": "productImageUrls",
              "type": "string[]"
            },
            {
              "internalType": "string",
              "name": "certificateImageUrl",
              "type": "string"
            },
            {
              "internalType": "string",
              "name": "farmPlotNumber",
              "type": "string"
            },
            {
              "internalType": "bytes32",
              "name": "dataHash",
              "type": "bytes32"
            },
            {
              "internalType": "uint256",
              "name": "productId",
              "type": "uint256"
            },
            {
              "internalType": "enum TraceabilityContract.TransportStatus",
              "name": "transportStatus",
              "type": "uint8"
            }
          ],
          "internalType": "struct TraceabilityContract.Batch[]",
          "name": "",
          "type": "tuple[]"
        }
      ],
      "stateMutability": "view",
      "type": "function",
      "constant": true
    },
    {
      "inputs": [
        {
          "internalType": "uint256",
          "name": "_batchId",
          "type": "uint256"
        }
      ],
      "name": "getBatchDetails",
      "outputs": [
        {
          "components": [
            {
              "internalType": "uint256",
              "name": "batchId",
              "type": "uint256"
            },
            {
              "internalType": "string",
              "name": "name",
              "type": "string"
            },
            {
              "internalType": "string",
              "name": "sscc",
              "type": "string"
            },
            {
              "internalType": "uint256",
              "name": "producerId",
              "type": "uint256"
            },
            {
              "internalType": "string",
              "name": "quantity",
              "type": "string"
            },
            {
              "internalType": "uint256",
              "name": "productionDate",
              "type": "uint256"
            },
            {
              "internalType": "uint256",
              "name": "startDate",
              "type": "uint256"
            },
            {
              "internalType": "uint256",
              "name": "endDate",
              "type": "uint256"
            },
            {
              "internalType": "enum TraceabilityContract.BatchStatus",
              "name": "status",
              "type": "uint8"
            },
            {
              "internalType": "string[]",
              "name": "productImageUrls",
              "type": "string[]"
            },
            {
              "internalType": "string",
              "name": "certificateImageUrl",
              "type": "string"
            },
            {
              "internalType": "string",
              "name": "farmPlotNumber",
              "type": "string"
            },
            {
              "internalType": "bytes32",
              "name": "dataHash",
              "type": "bytes32"
            },
            {
              "internalType": "uint256",
              "name": "productId",
              "type": "uint256"
            },
            {
              "internalType": "enum TraceabilityContract.TransportStatus",
              "name": "transportStatus",
              "type": "uint8"
            }
          ],
          "internalType": "struct TraceabilityContract.Batch",
          "name": "",
          "type": "tuple"
        }
      ],
      "stateMutability": "view",
      "type": "function",
      "constant": true
    },
    {
      "inputs": [],
      "name": "getTotalBatches",
      "outputs": [
        {
          "internalType": "uint256",
          "name": "",
          "type": "uint256"
        }
      ],
      "stateMutability": "view",
      "type": "function",
      "constant": true
    },
    {
      "inputs": [
        {
          "internalType": "uint256",
          "name": "_batchId",
          "type": "uint256"
        },
        {
          "internalType": "uint256",
          "name": "_producerId",
          "type": "uint256"
        }
      ],
      "name": "isProducerOfBatch",
      "outputs": [
        {
          "internalType": "bool",
          "name": "",
          "type": "bool"
        }
      ],
      "stateMutability": "view",
      "type": "function",
      "constant": true
    },
    {
      "inputs": [
        {
          "internalType": "uint256",
          "name": "_uid",
          "type": "uint256"
        }
      ],
      "name": "getActivityLogs",
      "outputs": [
        {
          "components": [
            {
              "internalType": "uint256",
              "name": "timestamp",
              "type": "uint256"
            },
            {
              "internalType": "uint256",
              "name": "uid",
              "type": "uint256"
            },
            {
              "internalType": "string",
              "name": "activityName",
              "type": "string"
            },
            {
              "internalType": "string",
              "name": "description",
              "type": "string"
            },
            {
              "internalType": "bool",
              "name": "isSystemGenerated",
              "type": "bool"
            },
            {
              "internalType": "string[]",
              "name": "imageUrls",
              "type": "string[]"
            },
            {
              "internalType": "uint256[]",
              "name": "relatedProductIds",
              "type": "uint256[]"
            }
          ],
          "internalType": "struct TraceabilityContract.ActivityLog[]",
          "name": "",
          "type": "tuple[]"
        }
      ],
      "stateMutability": "view",
      "type": "function",
      "constant": true
    },
    {
      "inputs": [
        {
          "internalType": "uint256",
          "name": "_uid",
          "type": "uint256"
        }
      ],
      "name": "getActivityLogCount",
      "outputs": [
        {
          "internalType": "uint256",
          "name": "",
          "type": "uint256"
        }
      ],
      "stateMutability": "view",
      "type": "function",
      "constant": true
    },
    {
      "inputs": [
        {
          "internalType": "uint256",
          "name": "_batchId",
          "type": "uint256"
        }
      ],
      "name": "approveBatch",
      "outputs": [],
      "stateMutability": "nonpayable",
      "type": "function"
    },
    {
      "inputs": [
        {
          "internalType": "uint256",
          "name": "_batchId",
          "type": "uint256"
        }
      ],
      "name": "rejectBatch",
      "outputs": [],
      "stateMutability": "nonpayable",
      "type": "function"
    },
    {
      "inputs": [
        {
          "internalType": "uint256",
          "name": "_producerId",
          "type": "uint256"
        }
      ],
      "name": "getApprovedBatchesByProducer",
      "outputs": [
        {
          "components": [
            {
              "internalType": "uint256",
              "name": "batchId",
              "type": "uint256"
            },
            {
              "internalType": "string",
              "name": "name",
              "type": "string"
            },
            {
              "internalType": "string",
              "name": "sscc",
              "type": "string"
            },
            {
              "internalType": "uint256",
              "name": "producerId",
              "type": "uint256"
            },
            {
              "internalType": "string",
              "name": "quantity",
              "type": "string"
            },
            {
              "internalType": "uint256",
              "name": "productionDate",
              "type": "uint256"
            },
            {
              "internalType": "uint256",
              "name": "startDate",
              "type": "uint256"
            },
            {
              "internalType": "uint256",
              "name": "endDate",
              "type": "uint256"
            },
            {
              "internalType": "enum TraceabilityContract.BatchStatus",
              "name": "status",
              "type": "uint8"
            },
            {
              "internalType": "string[]",
              "name": "productImageUrls",
              "type": "string[]"
            },
            {
              "internalType": "string",
              "name": "certificateImageUrl",
              "type": "string"
            },
            {
              "internalType": "string",
              "name": "farmPlotNumber",
              "type": "string"
            },
            {
              "internalType": "bytes32",
              "name": "dataHash",
              "type": "bytes32"
            },
            {
              "internalType": "uint256",
              "name": "productId",
              "type": "uint256"
            },
            {
              "internalType": "enum TraceabilityContract.TransportStatus",
              "name": "transportStatus",
              "type": "uint8"
            }
          ],
          "internalType": "struct TraceabilityContract.Batch[]",
          "name": "",
          "type": "tuple[]"
        }
      ],
      "stateMutability": "view",
      "type": "function",
      "constant": true
    },
    {
      "inputs": [
        {
          "internalType": "string",
          "name": "_sscc",
          "type": "string"
        }
      ],
      "name": "getBatchBySSCC",
      "outputs": [
        {
          "components": [
            {
              "internalType": "uint256",
              "name": "batchId",
              "type": "uint256"
            },
            {
              "internalType": "string",
              "name": "name",
              "type": "string"
            },
            {
              "internalType": "string",
              "name": "sscc",
              "type": "string"
            },
            {
              "internalType": "uint256",
              "name": "producerId",
              "type": "uint256"
            },
            {
              "internalType": "string",
              "name": "quantity",
              "type": "string"
            },
            {
              "internalType": "uint256",
              "name": "productionDate",
              "type": "uint256"
            },
            {
              "internalType": "uint256",
              "name": "startDate",
              "type": "uint256"
            },
            {
              "internalType": "uint256",
              "name": "endDate",
              "type": "uint256"
            },
            {
              "internalType": "enum TraceabilityContract.BatchStatus",
              "name": "status",
              "type": "uint8"
            },
            {
              "internalType": "string[]",
              "name": "productImageUrls",
              "type": "string[]"
            },
            {
              "internalType": "string",
              "name": "certificateImageUrl",
              "type": "string"
            },
            {
              "internalType": "string",
              "name": "farmPlotNumber",
              "type": "string"
            },
            {
              "internalType": "bytes32",
              "name": "dataHash",
              "type": "bytes32"
            },
            {
              "internalType": "uint256",
              "name": "productId",
              "type": "uint256"
            },
            {
              "internalType": "enum TraceabilityContract.TransportStatus",
              "name": "transportStatus",
              "type": "uint8"
            }
          ],
          "internalType": "struct TraceabilityContract.Batch",
          "name": "",
          "type": "tuple"
        }
      ],
      "stateMutability": "view",
      "type": "function",
      "constant": true
    },
    {
      "inputs": [
        {
          "internalType": "string",
          "name": "_sscc",
          "type": "string"
        }
      ],
      "name": "isValidSSCC",
      "outputs": [
        {
          "internalType": "bool",
          "name": "",
          "type": "bool"
        }
      ],
      "stateMutability": "view",
      "type": "function",
      "constant": true
    },
    {
      "inputs": [
        {
          "internalType": "uint256",
          "name": "_batchId",
          "type": "uint256"
        }
      ],
      "name": "isBatchApproved",
      "outputs": [
        {
          "internalType": "bool",
          "name": "",
          "type": "bool"
        }
      ],
      "stateMutability": "view",
      "type": "function",
      "constant": true
    },
    {
      "inputs": [
        {
          "internalType": "uint256",
          "name": "_batchId",
          "type": "uint256"
        },
        {
          "internalType": "uint256",
          "name": "_participantId",
          "type": "uint256"
        },
        {
          "internalType": "string",
          "name": "_participantType",
          "type": "string"
        },
        {
          "internalType": "string",
          "name": "_action",
          "type": "string"
        }
      ],
      "name": "recordParticipation",
      "outputs": [],
      "stateMutability": "nonpayable",
      "type": "function"
    },
    {
      "inputs": [
        {
          "internalType": "uint256",
          "name": "_batchId",
          "type": "uint256"
        },
        {
          "internalType": "uint256",
          "name": "_participantId",
          "type": "uint256"
        },
        {
          "internalType": "string",
          "name": "_action",
          "type": "string"
        },
        {
          "internalType": "string",
          "name": "_participantType",
          "type": "string"
        }
      ],
      "name": "updateTransportStatus",
      "outputs": [],
      "stateMutability": "nonpayable",
      "type": "function"
    },
    {
      "inputs": [
        {
          "internalType": "uint256",
          "name": "_batchId",
          "type": "uint256"
        }
      ],
      "name": "getTransportHistory",
      "outputs": [
        {
          "components": [
            {
              "internalType": "uint256",
              "name": "participantId",
              "type": "uint256"
            },
            {
              "internalType": "uint256",
              "name": "timestamp",
              "type": "uint256"
            },
            {
              "internalType": "string",
              "name": "action",
              "type": "string"
            },
            {
              "internalType": "string",
              "name": "participantType",
              "type": "string"
            }
          ],
          "internalType": "struct TraceabilityContract.TransportEvent[]",
          "name": "",
          "type": "tuple[]"
        }
      ],
      "stateMutability": "view",
      "type": "function",
      "constant": true
    },
    {
      "inputs": [
        {
          "internalType": "uint256",
          "name": "_batchId",
          "type": "uint256"
        }
      ],
      "name": "getBatchTransportStatus",
      "outputs": [
        {
          "internalType": "enum TraceabilityContract.TransportStatus",
          "name": "",
          "type": "uint8"
        }
      ],
      "stateMutability": "view",
      "type": "function",
      "constant": true
    }
  ],
  "bytecode": "0x608060405234801561001057600080fd5b506155aa806100206000396000f3fe608060405234801561001057600080fd5b50600436106101585760003560e01c80639d47dcc0116100c3578063d043b8431161007c578063d043b84314610318578063d9860bfc1461032b578063dd235d9d1461033e578063e561dddc14610351578063f7f097f414610359578063f9b8da0e1461036c57600080fd5b80639d47dcc014610292578063a7732c96146102b2578063a847e4d7146102d2578063b82adf3b146102f2578063bf193ffa14610305578063d040e18c1461015d57600080fd5b8063510664ed11610115578063510664ed1461021c57806352c88f36146102315780635aa825aa1461024457806380e32d451461024c578063838b1da31461025f57806385bdd03f1461027257600080fd5b8063040080781461015d5780630d82dcf4146101855780630e6e369c146101a85780632db53c9d146101c857806336c701e1146101e857806347e2f86314610209575b600080fd5b61017061016b3660046147f9565b61037f565b60405190151581526020015b60405180910390f35b610170610193366004614835565b60009081526005602052604090205460ff1690565b6101bb6101b6366004614835565b6103a9565b60405161017c919061492e565b6101db6101d6366004614835565b610691565b60405161017c9190614b61565b6101fb6101f6366004614c75565b610c80565b60405190815260200161017c565b6101db610217366004614835565b610cf1565b61022f61022a366004614d6d565b6112d4565b005b61022f61023f366004614de3565b611509565b6101db6115aa565b6101db61025a366004614835565b611b5c565b61022f61026d366004614835565b6120df565b6101fb610280366004614835565b60009081526004602052604090205490565b6102a56102a0366004614835565b612297565b60405161017c9190614e17565b6102c56102c0366004614835565b61274f565b60405161017c9190614e31565b6102e56102e0366004614835565b612795565b60405161017c9190614e44565b61022f610300366004614d6d565b612934565b61022f610313366004614ed2565b612a21565b6101db610326366004614835565b612b4e565b6102a56103393660046147f9565b613137565b61022f61034c366004614835565b613642565b6000546101fb565b6101bb610367366004614835565b613861565b61017061037a366004614fde565b613b3e565b60006003826040516103919190615000565b90815260405190819003602001902054151592915050565b606060046000838152602001908152602001600020805480602002602001604051908101604052809291908181526020016000905b8282101561068657838290600052602060002090600702016040518060e001604052908160008201548152602001600182015481526020016002820180546104259061501c565b80601f01602080910402602001604051908101604052809291908181526020018280546104519061501c565b801561049e5780601f106104735761010080835404028352916020019161049e565b820191906000526020600020905b81548152906001019060200180831161048157829003601f168201915b505050505081526020016003820180546104b79061501c565b80601f01602080910402602001604051908101604052809291908181526020018280546104e39061501c565b80156105305780601f1061050557610100808354040283529160200191610530565b820191906000526020600020905b81548152906001019060200180831161051357829003601f168201915b5050509183525050600482015460ff161515602080830191909152600583018054604080518285028101850182528281529401939260009084015b8282101561061757838290600052602060002001805461058a9061501c565b80601f01602080910402602001604051908101604052809291908181526020018280546105b69061501c565b80156106035780601f106105d857610100808354040283529160200191610603565b820191906000526020600020905b8154815290600101906020018083116105e657829003601f168201915b50505050508152602001906001019061056b565b5050505081526020016006820180548060200260200160405190810160405280929190818152602001828054801561066e57602002820191906000526020600020905b81548152602001906001019080831161065a575b505050505081525050815260200190600101906103de565b505050509050919050565b6060600060015b600054811161070b57600081815260026020526040902060030154841480156106e6575060008181526002602081905260409091206008015460ff16818111156106e4576106e4614a0d565b145b156106f957816106f58161506c565b9250505b806107038161506c565b915050610698565b506000816001600160401b0381111561072657610726614744565b60405190808252806020026020018201604052801561075f57816020015b61074c61459e565b8152602001906001900390816107445790505b509050600060015b6000548111610c7657600081815260026020526040902060030154861480156107b5575060008181526002602081905260409091206008015460ff16818111156107b3576107b3614a0d565b145b15610c645760026000828152602001908152602001600020604051806101e0016040529081600082015481526020016001820180546107f39061501c565b80601f016020809104026020016040519081016040528092919081815260200182805461081f9061501c565b801561086c5780601f106108415761010080835404028352916020019161086c565b820191906000526020600020905b81548152906001019060200180831161084f57829003601f168201915b505050505081526020016002820180546108859061501c565b80601f01602080910402602001604051908101604052809291908181526020018280546108b19061501c565b80156108fe5780601f106108d3576101008083540402835291602001916108fe565b820191906000526020600020905b8154815290600101906020018083116108e157829003601f168201915b50505050508152602001600382015481526020016004820180546109219061501c565b80601f016020809104026020016040519081016040528092919081815260200182805461094d9061501c565b801561099a5780601f1061096f5761010080835404028352916020019161099a565b820191906000526020600020905b81548152906001019060200180831161097d57829003601f168201915b5050509183525050600582015460208201526006820154604082015260078201546060820152600882015460809091019060ff1660028111156109df576109df614a0d565b60028111156109f0576109f0614a0d565b815260200160098201805480602002602001604051908101604052809291908181526020016000905b82821015610ac5578382906000526020600020018054610a389061501c565b80601f0160208091040260200160405190810160405280929190818152602001828054610a649061501c565b8015610ab15780601f10610a8657610100808354040283529160200191610ab1565b820191906000526020600020905b815481529060010190602001808311610a9457829003601f168201915b505050505081526020019060010190610a19565b505050508152602001600a82018054610add9061501c565b80601f0160208091040260200160405190810160405280929190818152602001828054610b099061501c565b8015610b565780601f10610b2b57610100808354040283529160200191610b56565b820191906000526020600020905b815481529060010190602001808311610b3957829003601f168201915b50505050508152602001600b82018054610b6f9061501c565b80601f0160208091040260200160405190810160405280929190818152602001828054610b9b9061501c565b8015610be85780601f10610bbd57610100808354040283529160200191610be8565b820191906000526020600020905b815481529060010190602001808311610bcb57829003601f168201915b5050509183525050600c8201546020820152600d8201546040820152600e82015460609091019060ff166002811115610c2357610c23614a0d565b6002811115610c3457610c34614a0d565b81525050838381518110610c4a57610c4a615085565b60200260200101819052508180610c609061506c565b9250505b80610c6e8161506c565b915050610767565b5090949350505050565b600080610c8c8a613b59565b905060006040518061014001604052808d81526020018381526020018c81526020018b81526020018a8152602001898152602001888152602001878152602001868152602001858152509050610ce181613c2c565b9c9b505050505050505050505050565b6060600060015b6000548111610d6a5760008181526002602052604090206003015484148015610d455750600081815260026020819052604082206008015460ff1690811115610d4357610d43614a0d565b145b15610d585781610d548161506c565b9250505b80610d628161506c565b915050610cf8565b506000816001600160401b03811115610d8557610d85614744565b604051908082528060200260200182016040528015610dbe57816020015b610dab61459e565b815260200190600190039081610da35790505b509050600060015b6000548111610c765760008181526002602052604090206003015486148015610e135750600081815260026020819052604082206008015460ff1690811115610e1157610e11614a0d565b145b156112c25760026000828152602001908152602001600020604051806101e001604052908160008201548152602001600182018054610e519061501c565b80601f0160208091040260200160405190810160405280929190818152602001828054610e7d9061501c565b8015610eca5780601f10610e9f57610100808354040283529160200191610eca565b820191906000526020600020905b815481529060010190602001808311610ead57829003601f168201915b50505050508152602001600282018054610ee39061501c565b80601f0160208091040260200160405190810160405280929190818152602001828054610f0f9061501c565b8015610f5c5780601f10610f3157610100808354040283529160200191610f5c565b820191906000526020600020905b815481529060010190602001808311610f3f57829003601f168201915b5050505050815260200160038201548152602001600482018054610f7f9061501c565b80601f0160208091040260200160405190810160405280929190818152602001828054610fab9061501c565b8015610ff85780601f10610fcd57610100808354040283529160200191610ff8565b820191906000526020600020905b815481529060010190602001808311610fdb57829003601f168201915b5050509183525050600582015460208201526006820154604082015260078201546060820152600882015460809091019060ff16600281111561103d5761103d614a0d565b600281111561104e5761104e614a0d565b815260200160098201805480602002602001604051908101604052809291908181526020016000905b828210156111235783829060005260206000200180546110969061501c565b80601f01602080910402602001604051908101604052809291908181526020018280546110c29061501c565b801561110f5780601f106110e45761010080835404028352916020019161110f565b820191906000526020600020905b8154815290600101906020018083116110f257829003601f168201915b505050505081526020019060010190611077565b505050508152602001600a8201805461113b9061501c565b80601f01602080910402602001604051908101604052809291908181526020018280546111679061501c565b80156111b45780601f10611189576101008083540402835291602001916111b4565b820191906000526020600020905b81548152906001019060200180831161119757829003601f168201915b50505050508152602001600b820180546111cd9061501c565b80601f01602080910402602001604051908101604052809291908181526020018280546111f99061501c565b80156112465780601f1061121b57610100808354040283529160200191611246565b820191906000526020600020905b81548152906001019060200180831161122957829003601f168201915b5050509183525050600c8201546020820152600d8201546040820152600e82015460609091019060ff16600281111561128157611281614a0d565b600281111561129257611292614a0d565b815250508383815181106112a8576112a8615085565b602002602001018190525081806112be9061506c565b9250505b806112cc8161506c565b915050610dc6565b600084815260026020526040812054900361130a5760405162461bcd60e51b81526004016113019061509b565b60405180910390fd5b600160008581526002602081905260409091206008015460ff169081111561133457611334614a0d565b1461137a5760405162461bcd60e51b815260206004820152601660248201527510985d18da081b5d5cdd08189948185c1c1c9bdd995960521b6044820152606401611301565b604080516080810182528481524260208083019182528284018681526060840186905260008981526001808452958120805480880182559082529290208451600490930201918255915193810193909355519091829160028201906113df9082615118565b50606082015160038201906113f49082615118565b5050604051712130ba103230ba903b30b71031b43abcb2b760711b6020820152603201905060405160208183030381529060405280519060200120836040516020016114409190615000565b604051602081830303815290604052805190602001200361147c576000858152600260205260409020600e01805460ff19166001179055611502565b604051742437b0b7103a3430b734103b30b71031b43abcb2b760591b602082015260350160405160208183030381529060405280519060200120836040516020016114c79190615000565b6040516020818303038152906040528051906020012003611502576000858152600260208190526040909120600e01805460ff191690911790555b5050505050565b60008281526002602052604081205490036115365760405162461bcd60e51b81526004016113019061509b565b60008281526002602081905260409091206008018054839260ff1990911690600190849081111561156957611569614a0d565b0217905550817fcf4d4f3dcd5294f4d19269f489155c2187699f4a9fb9004b6a303752b00b282f8260405161159e9190614e31565b60405180910390a25050565b6060600060015b600054811161160657600081815260026020819052604082206008015460ff16908111156115e1576115e1614a0d565b036115f457816115f08161506c565b9250505b806115fe8161506c565b9150506115b1565b506000816001600160401b0381111561162157611621614744565b60405190808252806020026020018201604052801561165a57816020015b61164761459e565b81526020019060019003908161163f5790505b509050600060015b6000548111611b5357600081815260026020819052604082206008015460ff169081111561169257611692614a0d565b03611b415760026000828152602001908152602001600020604051806101e0016040529081600082015481526020016001820180546116d09061501c565b80601f01602080910402602001604051908101604052809291908181526020018280546116fc9061501c565b80156117495780601f1061171e57610100808354040283529160200191611749565b820191906000526020600020905b81548152906001019060200180831161172c57829003601f168201915b505050505081526020016002820180546117629061501c565b80601f016020809104026020016040519081016040528092919081815260200182805461178e9061501c565b80156117db5780601f106117b0576101008083540402835291602001916117db565b820191906000526020600020905b8154815290600101906020018083116117be57829003601f168201915b50505050508152602001600382015481526020016004820180546117fe9061501c565b80601f016020809104026020016040519081016040528092919081815260200182805461182a9061501c565b80156118775780601f1061184c57610100808354040283529160200191611877565b820191906000526020600020905b81548152906001019060200180831161185a57829003601f168201915b5050509183525050600582015460208201526006820154604082015260078201546060820152600882015460809091019060ff1660028111156118bc576118bc614a0d565b60028111156118cd576118cd614a0d565b815260200160098201805480602002602001604051908101604052809291908181526020016000905b828210156119a25783829060005260206000200180546119159061501c565b80601f01602080910402602001604051908101604052809291908181526020018280546119419061501c565b801561198e5780601f106119635761010080835404028352916020019161198e565b820191906000526020600020905b81548152906001019060200180831161197157829003601f168201915b5050505050815260200190600101906118f6565b505050508152602001600a820180546119ba9061501c565b80601f01602080910402602001604051908101604052809291908181526020018280546119e69061501c565b8015611a335780601f10611a0857610100808354040283529160200191611a33565b820191906000526020600020905b815481529060010190602001808311611a1657829003601f168201915b50505050508152602001600b82018054611a4c9061501c565b80601f0160208091040260200160405190810160405280929190818152602001828054611a789061501c565b8015611ac55780601f10611a9a57610100808354040283529160200191611ac5565b820191906000526020600020905b815481529060010190602001808311611aa857829003601f168201915b5050509183525050600c8201546020820152600d8201546040820152600e82015460609091019060ff166002811115611b0057611b00614a0d565b6002811115611b1157611b11614a0d565b81525050838381518110611b2757611b27615085565b60200260200101819052508180611b3d9061506c565b9250505b80611b4b8161506c565b915050611662565b50909392505050565b6060600060015b6000548111611ba557600081815260026020526040902060030154849003611b935781611b8f8161506c565b9250505b80611b9d8161506c565b915050611b63565b506000816001600160401b03811115611bc057611bc0614744565b604051908082528060200260200182016040528015611bf957816020015b611be661459e565b815260200190600190039081611bde5790505b509050600060015b6000548111610c76576000818152600260205260409020600301548690036120cd5760026000828152602001908152602001600020604051806101e001604052908160008201548152602001600182018054611c5c9061501c565b80601f0160208091040260200160405190810160405280929190818152602001828054611c889061501c565b8015611cd55780601f10611caa57610100808354040283529160200191611cd5565b820191906000526020600020905b815481529060010190602001808311611cb857829003601f168201915b50505050508152602001600282018054611cee9061501c565b80601f0160208091040260200160405190810160405280929190818152602001828054611d1a9061501c565b8015611d675780601f10611d3c57610100808354040283529160200191611d67565b820191906000526020600020905b815481529060010190602001808311611d4a57829003601f168201915b5050505050815260200160038201548152602001600482018054611d8a9061501c565b80601f0160208091040260200160405190810160405280929190818152602001828054611db69061501c565b8015611e035780601f10611dd857610100808354040283529160200191611e03565b820191906000526020600020905b815481529060010190602001808311611de657829003601f168201915b5050509183525050600582015460208201526006820154604082015260078201546060820152600882015460809091019060ff166002811115611e4857611e48614a0d565b6002811115611e5957611e59614a0d565b815260200160098201805480602002602001604051908101604052809291908181526020016000905b82821015611f2e578382906000526020600020018054611ea19061501c565b80601f0160208091040260200160405190810160405280929190818152602001828054611ecd9061501c565b8015611f1a5780601f10611eef57610100808354040283529160200191611f1a565b820191906000526020600020905b815481529060010190602001808311611efd57829003601f168201915b505050505081526020019060010190611e82565b505050508152602001600a82018054611f469061501c565b80601f0160208091040260200160405190810160405280929190818152602001828054611f729061501c565b8015611fbf5780601f10611f9457610100808354040283529160200191611fbf565b820191906000526020600020905b815481529060010190602001808311611fa257829003601f168201915b50505050508152602001600b82018054611fd89061501c565b80601f01602080910402602001604051908101604052809291908181526020018280546120049061501c565b80156120515780601f1061202657610100808354040283529160200191612051565b820191906000526020600020905b81548152906001019060200180831161203457829003601f168201915b5050509183525050600c8201546020820152600d8201546040820152600e82015460609091019060ff16600281111561208c5761208c614a0d565b600281111561209d5761209d614a0d565b815250508383815181106120b3576120b3615085565b602002602001018190525081806120c99061506c565b9250505b806120d78161506c565b915050611c01565b600081815260026020526040812054900361210c5760405162461bcd60e51b81526004016113019061509b565b600081815260026020819052604082206008015460ff169081111561213357612133614a0d565b146121805760405162461bcd60e51b815260206004820152601d60248201527f4261746368206973206e6f742070656e64696e6720617070726f76616c0000006044820152606401611301565b60008181526002602081905260409182902060088101805460ff1916831790556003810154925184937ffd30c1d70626cdbca41a738198079b1d57c2a7d36d52b79ae4b4bcc980506f76936121d9939192910190615254565b60405180910390a2604080516001808252818301909252600091602080830190803683375050506000838152600260205260408120600d015482519293509183919061222757612227615085565b60200260200101818152505061229360026000848152602001908152602001600020600301546040518060400160405280600e81526020016d10985d18da0814995a9958dd195960921b815250604051806060016040528060278152602001615527602791398461423b565b5050565b61229f61459e565b60008281526002602052604081205490036122cc5760405162461bcd60e51b81526004016113019061509b565b60026000838152602001908152602001600020604051806101e0016040529081600082015481526020016001820180546123059061501c565b80601f01602080910402602001604051908101604052809291908181526020018280546123319061501c565b801561237e5780601f106123535761010080835404028352916020019161237e565b820191906000526020600020905b81548152906001019060200180831161236157829003601f168201915b505050505081526020016002820180546123979061501c565b80601f01602080910402602001604051908101604052809291908181526020018280546123c39061501c565b80156124105780601f106123e557610100808354040283529160200191612410565b820191906000526020600020905b8154815290600101906020018083116123f357829003601f168201915b50505050508152602001600382015481526020016004820180546124339061501c565b80601f016020809104026020016040519081016040528092919081815260200182805461245f9061501c565b80156124ac5780601f10612481576101008083540402835291602001916124ac565b820191906000526020600020905b81548152906001019060200180831161248f57829003601f168201915b5050509183525050600582015460208201526006820154604082015260078201546060820152600882015460809091019060ff1660028111156124f1576124f1614a0d565b600281111561250257612502614a0d565b815260200160098201805480602002602001604051908101604052809291908181526020016000905b828210156125d757838290600052602060002001805461254a9061501c565b80601f01602080910402602001604051908101604052809291908181526020018280546125769061501c565b80156125c35780601f10612598576101008083540402835291602001916125c3565b820191906000526020600020905b8154815290600101906020018083116125a657829003601f168201915b50505050508152602001906001019061252b565b505050508152602001600a820180546125ef9061501c565b80601f016020809104026020016040519081016040528092919081815260200182805461261b9061501c565b80156126685780601f1061263d57610100808354040283529160200191612668565b820191906000526020600020905b81548152906001019060200180831161264b57829003601f168201915b50505050508152602001600b820180546126819061501c565b80601f01602080910402602001604051908101604052809291908181526020018280546126ad9061501c565b80156126fa5780601f106126cf576101008083540402835291602001916126fa565b820191906000526020600020905b8154815290600101906020018083116126dd57829003601f168201915b5050509183525050600c8201546020820152600d8201546040820152600e82015460609091019060ff16600281111561273557612735614a0d565b600281111561274657612746614a0d565b90525092915050565b600081815260026020526040812054810361277c5760405162461bcd60e51b81526004016113019061509b565b506000908152600260205260409020600e015460ff1690565b606060016000838152602001908152602001600020805480602002602001604051908101604052809291908181526020016000905b82821015610686578382906000526020600020906004020160405180608001604052908160008201548152602001600182015481526020016002820180546128119061501c565b80601f016020809104026020016040519081016040528092919081815260200182805461283d9061501c565b801561288a5780601f1061285f5761010080835404028352916020019161288a565b820191906000526020600020905b81548152906001019060200180831161286d57829003601f168201915b505050505081526020016003820180546128a39061501c565b80601f01602080910402602001604051908101604052809291908181526020018280546128cf9061501c565b801561291c5780601f106128f15761010080835404028352916020019161291c565b820191906000526020600020905b8154815290600101906020018083116128ff57829003601f168201915b505050505081525050815260200190600101906127ca565b60008481526002602052604081205490036129615760405162461bcd60e51b81526004016113019061509b565b600084815260066020908152604080832081516080810183528781528084018781524293820193909352606081018690528154600181810184559286529390942084516004909402019283559051908201906129bd9082615118565b5060408201516002820155606082015160038201906129dc9082615118565b505050837fe5fd3732b00b2878e55e64cdde6c59b6566f044952fe6b2f36658364da9b561c848484604051612a139392919061526d565b60405180910390a250505050565b6040805160e08101825242815260208082018881528284018881526060840188905260006080850181905260a0850188905260c085018790528a8152600484529485208054600181810183559187529390952084516007909402019283559051938201939093559151909182916002820190612a9d9082615118565b5060608201516003820190612ab29082615118565b50608082015160048201805460ff191691151591909117905560a08201518051612ae6916005840191602090910190614638565b5060c08201518051612b0291600684019160209091019061468e565b505050857f0fb336061951903d147e6b93ba30f6d47839e02426fcd5ee1876873afe47bab3868660008787604051612b3e9594939291906152a2565b60405180910390a2505050505050565b6060600060015b6000548111612bca5760008181526002602052604090206003015484148015612ba55750600160008281526002602081905260409091206008015460ff1690811115612ba357612ba3614a0d565b145b15612bb85781612bb48161506c565b9250505b80612bc28161506c565b915050612b55565b506000816001600160401b03811115612be557612be5614744565b604051908082528060200260200182016040528015612c1e57816020015b612c0b61459e565b815260200190600190039081612c035790505b509050600060015b6000548111610c765760008181526002602052604090206003015486148015612c765750600160008281526002602081905260409091206008015460ff1690811115612c7457612c74614a0d565b145b156131255760026000828152602001908152602001600020604051806101e001604052908160008201548152602001600182018054612cb49061501c565b80601f0160208091040260200160405190810160405280929190818152602001828054612ce09061501c565b8015612d2d5780601f10612d0257610100808354040283529160200191612d2d565b820191906000526020600020905b815481529060010190602001808311612d1057829003601f168201915b50505050508152602001600282018054612d469061501c565b80601f0160208091040260200160405190810160405280929190818152602001828054612d729061501c565b8015612dbf5780601f10612d9457610100808354040283529160200191612dbf565b820191906000526020600020905b815481529060010190602001808311612da257829003601f168201915b5050505050815260200160038201548152602001600482018054612de29061501c565b80601f0160208091040260200160405190810160405280929190818152602001828054612e0e9061501c565b8015612e5b5780601f10612e3057610100808354040283529160200191612e5b565b820191906000526020600020905b815481529060010190602001808311612e3e57829003601f168201915b5050509183525050600582015460208201526006820154604082015260078201546060820152600882015460809091019060ff166002811115612ea057612ea0614a0d565b6002811115612eb157612eb1614a0d565b815260200160098201805480602002602001604051908101604052809291908181526020016000905b82821015612f86578382906000526020600020018054612ef99061501c565b80601f0160208091040260200160405190810160405280929190818152602001828054612f259061501c565b8015612f725780601f10612f4757610100808354040283529160200191612f72565b820191906000526020600020905b815481529060010190602001808311612f5557829003601f168201915b505050505081526020019060010190612eda565b505050508152602001600a82018054612f9e9061501c565b80601f0160208091040260200160405190810160405280929190818152602001828054612fca9061501c565b80156130175780601f10612fec57610100808354040283529160200191613017565b820191906000526020600020905b815481529060010190602001808311612ffa57829003601f168201915b50505050508152602001600b820180546130309061501c565b80601f016020809104026020016040519081016040528092919081815260200182805461305c9061501c565b80156130a95780601f1061307e576101008083540402835291602001916130a9565b820191906000526020600020905b81548152906001019060200180831161308c57829003601f168201915b5050509183525050600c8201546020820152600d8201546040820152600e82015460609091019060ff1660028111156130e4576130e4614a0d565b60028111156130f5576130f5614a0d565b8152505083838151811061310b5761310b615085565b602002602001018190525081806131219061506c565b9250505b8061312f8161506c565b915050612c26565b61313f61459e565b60006003836040516131519190615000565b9081526020016040518091039020549050806000036131be5760405162461bcd60e51b815260206004820152602360248201527f426174636820646f6573206e6f7420657869737420776974682074686973205360448201526253434360e81b6064820152608401611301565b60026000828152602001908152602001600020604051806101e0016040529081600082015481526020016001820180546131f79061501c565b80601f01602080910402602001604051908101604052809291908181526020018280546132239061501c565b80156132705780601f1061324557610100808354040283529160200191613270565b820191906000526020600020905b81548152906001019060200180831161325357829003601f168201915b505050505081526020016002820180546132899061501c565b80601f01602080910402602001604051908101604052809291908181526020018280546132b59061501c565b80156133025780601f106132d757610100808354040283529160200191613302565b820191906000526020600020905b8154815290600101906020018083116132e557829003601f168201915b50505050508152602001600382015481526020016004820180546133259061501c565b80601f01602080910402602001604051908101604052809291908181526020018280546133519061501c565b801561339e5780601f106133735761010080835404028352916020019161339e565b820191906000526020600020905b81548152906001019060200180831161338157829003601f168201915b5050509183525050600582015460208201526006820154604082015260078201546060820152600882015460809091019060ff1660028111156133e3576133e3614a0d565b60028111156133f4576133f4614a0d565b815260200160098201805480602002602001604051908101604052809291908181526020016000905b828210156134c957838290600052602060002001805461343c9061501c565b80601f01602080910402602001604051908101604052809291908181526020018280546134689061501c565b80156134b55780601f1061348a576101008083540402835291602001916134b5565b820191906000526020600020905b81548152906001019060200180831161349857829003601f168201915b50505050508152602001906001019061341d565b505050508152602001600a820180546134e19061501c565b80601f016020809104026020016040519081016040528092919081815260200182805461350d9061501c565b801561355a5780601f1061352f5761010080835404028352916020019161355a565b820191906000526020600020905b81548152906001019060200180831161353d57829003601f168201915b50505050508152602001600b820180546135739061501c565b80601f016020809104026020016040519081016040528092919081815260200182805461359f9061501c565b80156135ec5780601f106135c1576101008083540402835291602001916135ec565b820191906000526020600020905b8154815290600101906020018083116135cf57829003601f168201915b5050509183525050600c8201546020820152600d8201546040820152600e82015460609091019060ff16600281111561362757613627614a0d565b600281111561363857613638614a0d565b9052509392505050565b600081815260026020526040812054900361366f5760405162461bcd60e51b81526004016113019061509b565b600081815260026020819052604082206008015460ff169081111561369657613696614a0d565b146136e35760405162461bcd60e51b815260206004820152601d60248201527f4261746368206973206e6f742070656e64696e6720617070726f76616c0000006044820152606401611301565b6000818152600260208181526040808420600881018054600160ff19918216811790925560058552958390208054909616179094559082905260038301549051909284927f1a621270a25ae67b5e557b98be27914cd1de793b7ca49110be85cb5aaa169c9b926137569290910190615335565b60405180910390a36000818152600260208190526040918290206003810154925184927f309958f3629dbb8b1c3fb39cc2ffd4759c619a8c6c7927159d9e608c99ae4632926137a792910190615335565b60405180910390a3604080516001808252818301909252600091602080830190803683375050506000838152600260205260408120600d01548251929350918391906137f5576137f5615085565b60200260200101818152505061229360026000848152602001908152602001600020600301546040518060400160405280600e81526020016d10985d18da08105c1c1c9bdd995960921b81525060405180606001604052806027815260200161554e602791398461423b565b606060046000838152602001908152602001600020805480602002602001604051908101604052809291908181526020016000905b8282101561068657838290600052602060002090600702016040518060e001604052908160008201548152602001600182015481526020016002820180546138dd9061501c565b80601f01602080910402602001604051908101604052809291908181526020018280546139099061501c565b80156139565780601f1061392b57610100808354040283529160200191613956565b820191906000526020600020905b81548152906001019060200180831161393957829003601f168201915b5050505050815260200160038201805461396f9061501c565b80601f016020809104026020016040519081016040528092919081815260200182805461399b9061501c565b80156139e85780601f106139bd576101008083540402835291602001916139e8565b820191906000526020600020905b8154815290600101906020018083116139cb57829003601f168201915b5050509183525050600482015460ff161515602080830191909152600583018054604080518285028101850182528281529401939260009084015b82821015613acf578382906000526020600020018054613a429061501c565b80601f0160208091040260200160405190810160405280929190818152602001828054613a6e9061501c565b8015613abb5780601f10613a9057610100808354040283529160200191613abb565b820191906000526020600020905b815481529060010190602001808311613a9e57829003601f168201915b505050505081526020019060010190613a23565b50505050815260200160068201805480602002602001604051908101604052809291908181526020018280548015613b2657602002820191906000526020600020905b815481526020019060010190808311613b12575b50505050508152505081526020019060010190613896565b60008281526002602052604090206003015481145b92915050565b604080518082019091526002815261030360f41b60208201526060906000613b8084614387565b6040805142602080830191909152818301889052825180830384018152606090920190925280519101209091506000613bb882614387565b90506000848483604051602001613bd193929190615348565b60405160208183030381529060405290506000613bed826144b2565b9050600082613bfe8360ff16614387565b604051602001613c0f92919061538b565b60408051601f198184030181529190529998505050505050505050565b600060038260200151604051613c429190615000565b908152602001604051809103902054600014613c965760405162461bcd60e51b81526020600482015260136024820152725353434320616c72656164792065786973747360681b6044820152606401611301565b600082606001515111613ceb5760405162461bcd60e51b815260206004820152601a60248201527f5175616e74697479206d757374206e6f7420626520656d7074790000000000006044820152606401611301565b600082608001515111613d535760405162461bcd60e51b815260206004820152602a60248201527f4174206c65617374206f6e652070726f6475637420696d6167652055524c20696044820152691cc81c995c5d5a5c995960b21b6064820152608401611301565b60008260a001515111613db25760405162461bcd60e51b815260206004820152602160248201527f436572746966696361746520696d6167652055524c20697320726571756972656044820152601960fa1b6064820152608401611301565b60008260c001515111613e075760405162461bcd60e51b815260206004820152601c60248201527f4661726d20706c6f74206e756d626572206973207265717569726564000000006044820152606401611301565b60008260e0015111613e5b5760405162461bcd60e51b815260206004820152601860248201527f50726f64756374204944206d7573742062652076616c696400000000000000006044820152606401611301565b600082610100015111613ea95760405162461bcd60e51b815260206004820152601660248201527514dd185c9d0819185d19481a5cc81c995c5d5a5c995960521b6044820152606401611301565b600082610120015111613ef55760405162461bcd60e51b8152602060048201526014602482015273115b990819185d19481a5cc81c995c5d5a5c995960621b6044820152606401611301565b81610120015182610100015110613f595760405162461bcd60e51b815260206004820152602260248201527f53746172742064617465206d757374206265206265666f726520656e64206461604482015261746560f01b6064820152608401611301565b815151613fa85760405162461bcd60e51b815260206004820152601c60248201527f4261746368206e616d65206d757374206e6f7420626520656d707479000000006044820152606401611301565b600080549080613fb78361506c565b919050555060008054905060004290506000613ff0856020015186604001518760600151858960c001518a60e001518b6000015161455c565b90506000604051806101e0016040528085815260200187600001518152602001876020015181526020018760400151815260200187606001518152602001848152602001876101000151815260200187610120015181526020016000600281111561405d5761405d614a0d565b8152608080890151602083015260a0808a0151604084015260c0808b0151606085015291830186905260e08a015190830152016000905260008581526002602090815260409091208251815590820151919250829160018201906140c19082615118565b50604082015160028201906140d69082615118565b5060608201516003820155608082015160048201906140f59082615118565b5060a0820151600582015560c0820151600682015560e0820151600782015561010082015160088201805460ff1916600183600281111561413857614138614a0d565b02179055506101208201518051614159916009840191602090910190614638565b50610140820151600a82019061416f9082615118565b50610160820151600b8201906141859082615118565b50610180820151600c8201556101a0820151600d8201556101c0820151600e8201805460ff191660018360028111156141c0576141c0614a0d565b021790555090505083600387602001516040516141dd9190615000565b908152602001604051809103902081905550837f58c168780de5fc719a1e7a85c7eca394e664c0e74b7c9ebc621f0b093112d04b876020015188604001516040516142299291906153ba565b60405180910390a25091949350505050565b6040805160008082526020820190925281614266565b60608152602001906001900390816142515790505b506040805160e08101825242815260208082018981528284018981526060840189905260016080850181905260a0850187905260c0850189905260008c8152600485529586208054808301825590875293909520845160079094020192835590519382019390935591519293509182919060028201906142e69082615118565b50606082015160038201906142fb9082615118565b50608082015160048201805460ff191691151591909117905560a0820151805161432f916005840191602090910190614638565b5060c0820151805161434b91600684019160209091019061468e565b505050857f0fb336061951903d147e6b93ba30f6d47839e02426fcd5ee1876873afe47bab3868660018688604051612b3e9594939291906152a2565b6060816000036143ae5750506040805180820190915260018152600360fc1b602082015290565b8160005b81156143d857806143c28161506c565b91506143d19050600a836153f2565b91506143b2565b6000816001600160401b038111156143f2576143f2614744565b6040519080825280601f01601f19166020018201604052801561441c576020820181803683370190505b509050815b85156144a957614432600182615406565b90506000614441600a886153f2565b61444c90600a615419565b6144569088615406565b614461906030615430565b905060008160f81b90508084848151811061447e5761447e615085565b60200101906001600160f81b031916908160001a9053506144a0600a896153f2565b97505050614421565b50949350505050565b60008181805b825181101561452f57600060308483815181106144d7576144d7615085565b01602001516144e9919060f81c615449565b90506144f6600283615462565b15614501578061450c565b61450c816003615476565b6145199060ff1684615499565b92505080806145279061506c565b9150506144b8565b506000600a61453e8184615462565b61454990600a615406565b6145539190615462565b95945050505050565b60008787878787878760405160200161457b97969594939291906154ac565b604051602081830303815290604052805190602001209050979650505050505050565b604051806101e001604052806000815260200160608152602001606081526020016000815260200160608152602001600081526020016000815260200160008152602001600060028111156145f5576145f5614a0d565b815260200160608152602001606081526020016060815260200160008019168152602001600081526020016000600281111561463357614633614a0d565b905290565b82805482825590600052602060002090810192821561467e579160200282015b8281111561467e578251829061466e9082615118565b5091602001919060010190614658565b5061468a9291506146d5565b5090565b8280548282559060005260206000209081019282156146c9579160200282015b828111156146c95782518255916020019190600101906146ae565b5061468a9291506146f2565b8082111561468a5760006146e98282614707565b506001016146d5565b5b8082111561468a57600081556001016146f3565b5080546147139061501c565b6000825580601f10614723575050565b601f01602090049060005260206000209081019061474191906146f2565b50565b634e487b7160e01b600052604160045260246000fd5b604051601f8201601f191681016001600160401b038111828210171561478257614782614744565b604052919050565b600082601f83011261479b57600080fd5b81356001600160401b038111156147b4576147b4614744565b6147c7601f8201601f191660200161475a565b8181528460208386010111156147dc57600080fd5b816020850160208301376000918101602001919091529392505050565b60006020828403121561480b57600080fd5b81356001600160401b0381111561482157600080fd5b61482d8482850161478a565b949350505050565b60006020828403121561484757600080fd5b5035919050565b60005b83811015614869578181015183820152602001614851565b50506000910152565b6000815180845261488a81602086016020860161484e565b601f01601f19169290920160200192915050565b600081518084526020808501808196508360051b8101915082860160005b858110156148e65782840389526148d4848351614872565b988501989350908401906001016148bc565b5091979650505050505050565b600081518084526020808501945080840160005b8381101561492357815187529582019590820190600101614907565b509495945050505050565b60006020808301818452808551808352604092508286019150828160051b87010184880160005b838110156149ff57603f19898403018552815160e081518552888201518986015287820151818987015261498b82870182614872565b915050606080830151868303828801526149a58382614872565b925050506080808301511515818701525060a080830151868303828801526149cd838261489e565b9250505060c080830151925085820381870152506149eb81836148f3565b968901969450505090860190600101614955565b509098975050505050505050565b634e487b7160e01b600052602160045260246000fd5b6003811061474157634e487b7160e01b600052602160045260246000fd5b614a4a81614a23565b9052565b60006101e0825184526020830151816020860152614a6e82860182614872565b91505060408301518482036040860152614a888282614872565b9150506060830151606085015260808301518482036080860152614aac8282614872565b91505060a083015160a085015260c083015160c085015260e083015160e085015261010080840151614ae082870182614a41565b50506101208084015185830382870152614afa838261489e565b925050506101408084015185830382870152614b168382614872565b925050506101608084015185830382870152614b328382614872565b925050506101808084015181860152506101a08084015181860152506101c080840151610c7682870182614a41565b6000602080830181845280855180835260408601915060408160051b870101925083870160005b82811015614bb657603f19888603018452614ba4858351614a4e565b94509285019290850190600101614b88565b5092979650505050505050565b60006001600160401b03821115614bdc57614bdc614744565b5060051b60200190565b600082601f830112614bf757600080fd5b81356020614c0c614c0783614bc3565b61475a565b82815260059290921b84018101918181019086841115614c2b57600080fd5b8286015b84811015614c6a5780356001600160401b03811115614c4e5760008081fd5b614c5c8986838b010161478a565b845250918301918301614c2f565b509695505050505050565b60008060008060008060008060006101208a8c031215614c9457600080fd5b89356001600160401b0380821115614cab57600080fd5b614cb78d838e0161478a565b9a5060208c0135995060408c0135915080821115614cd457600080fd5b614ce08d838e0161478a565b985060608c0135915080821115614cf657600080fd5b614d028d838e01614be6565b975060808c0135915080821115614d1857600080fd5b614d248d838e0161478a565b965060a08c0135915080821115614d3a57600080fd5b50614d478c828d0161478a565b94505060c08a0135925060e08a013591506101008a013590509295985092959850929598565b60008060008060808587031215614d8357600080fd5b843593506020850135925060408501356001600160401b0380821115614da857600080fd5b614db48883890161478a565b93506060870135915080821115614dca57600080fd5b50614dd78782880161478a565b91505092959194509250565b60008060408385031215614df657600080fd5b82359150602083013560038110614e0c57600080fd5b809150509250929050565b602081526000614e2a6020830184614a4e565b9392505050565b60208101614e3e83614a23565b91905290565b60006020808301818452808551808352604092508286019150828160051b87010184880160005b838110156149ff57603f1989840301855281516080815185528882015189860152878201518189870152614ea182870182614872565b91505060608083015192508582038187015250614ebe8183614872565b968901969450505090860190600101614e6b565b600080600080600060a08688031215614eea57600080fd5b853594506020808701356001600160401b0380821115614f0957600080fd5b614f158a838b0161478a565b96506040890135915080821115614f2b57600080fd5b614f378a838b0161478a565b95506060890135915080821115614f4d57600080fd5b614f598a838b01614be6565b94506080890135915080821115614f6f57600080fd5b508701601f81018913614f8157600080fd5b8035614f8f614c0782614bc3565b81815260059190911b8201830190838101908b831115614fae57600080fd5b928401925b82841015614fcc57833582529284019290840190614fb3565b80955050505050509295509295909350565b60008060408385031215614ff157600080fd5b50508035926020909101359150565b6000825161501281846020870161484e565b9190910192915050565b600181811c9082168061503057607f821691505b60208210810361505057634e487b7160e01b600052602260045260246000fd5b50919050565b634e487b7160e01b600052601160045260246000fd5b60006001820161507e5761507e615056565b5060010190565b634e487b7160e01b600052603260045260246000fd5b60208082526014908201527310985d18da08191bd95cc81b9bdd08195e1a5cdd60621b604082015260600190565b601f82111561511357600081815260208120601f850160051c810160208610156150f05750805b601f850160051c820191505b8181101561510f578281556001016150fc565b5050505b505050565b81516001600160401b0381111561513157615131614744565b6151458161513f845461501c565b846150c9565b602080601f83116001811461517a57600084156151625750858301515b600019600386901b1c1916600185901b17855561510f565b600085815260208120601f198616915b828110156151a95788860151825594840194600190910190840161518a565b50858210156151c75787850151600019600388901b60f8161c191681555b5050505050600190811b01905550565b600081546151e48161501c565b808552602060018381168015615201576001811461521b57615249565b60ff1985168884015283151560051b880183019550615249565b866000528260002060005b858110156152415781548a8201860152908301908401615226565b890184019650505b505050505092915050565b82815260406020820152600061482d60408301846151d7565b8381526060602082015260006152866060830185614872565b82810360408401526152988185614872565b9695505050505050565b60a0815260006152b560a0830188614872565b6020838203818501526152c88289614872565b9150861515604085015283820360608501528186518084528284019150828160051b85010183890160005b8381101561532157601f1987840301855261530f838351614872565b948601949250908501906001016152f3565b50508681036080880152610ce181896148f3565b602081526000614e2a60208301846151d7565b6000845161535a81846020890161484e565b84519083019061536e81836020890161484e565b845191019061538181836020880161484e565b0195945050505050565b6000835161539d81846020880161484e565b8351908301906153b181836020880161484e565b01949350505050565b6040815260006153cd6040830185614872565b90508260208301529392505050565b634e487b7160e01b600052601260045260246000fd5b600082615401576154016153dc565b500490565b81810381811115613b5357613b53615056565b8082028115828204841417613b5357613b53615056565b60ff8181168382160190811115613b5357613b53615056565b60ff8281168282160390811115613b5357613b53615056565b600082615471576154716153dc565b500690565b60ff818116838216029081169081811461549257615492615056565b5092915050565b80820180821115613b5357613b53615056565b6000885160206154bf8285838e0161484e565b818401915089825288516154d881838501848d0161484e565b808301925050878183015286516154f58160408501848b0161484e565b604092019182018690528451615511816060850184890161484e565b919091016060019a995050505050505050505056fe426174636820686173206265656e2072656a65637465642062792074686520617070726f766572426174636820686173206265656e20617070726f7665642062792074686520617070726f766572a26469706673582212203c9a7eeb6c0c4921fc78d1fe509ad70040fa784c8125ec73000f0d2b8b07f45d64736f6c63430008140033",
  "immutableReferences": {},
  "source": "// SPDX-License-Identifier: MIT\r\npragma solidity ^0.8.0;\r\n\r\ncontract TraceabilityContract {\r\n    uint256 private _batchIdCounter;\r\n\r\nenum BatchStatus { PendingApproval, Approved, Rejected }\r\nenum TransportStatus { NotTransported, InTransit, Delivered }\r\nenum ParticipantType { Producer, Transporter, Warehouse, Consumer }\r\n\r\n    struct Batch {\r\n        uint256 batchId;\r\n        string name;  // Thm trng tn l hng\r\n        string sscc;\r\n        uint256 producerId;\r\n        string quantity;\r\n        uint256 productionDate;\r\n        uint256 startDate;\r\n        uint256 endDate;\r\n        BatchStatus status;\r\n        string[] productImageUrls;\r\n        string certificateImageUrl;\r\n        string farmPlotNumber;\r\n        bytes32 dataHash;\r\n        uint256 productId;\r\n        TransportStatus transportStatus;\r\n    }\r\n    \r\n    struct Participation {\r\n        uint256 participantId;\r\n        string participantType;\r\n        uint256 timestamp;\r\n        string action;\r\n    }\r\n      struct ActivityLog {\r\n        uint256 timestamp;\r\n        uint256 uid;\r\n        string activityName;\r\n        string description;\r\n        bool isSystemGenerated;\r\n        string[] imageUrls;\r\n        uint256[] relatedProductIds;\r\n    }\r\n    struct TransportEvent {\r\n    uint256 participantId;\r\n    uint256 timestamp;\r\n    string action;\r\n    string participantType;\r\n}\r\n\r\nmapping(uint256 => TransportEvent[]) private _batchTransportEvents;\r\n\r\n\r\n    mapping(uint256 => Batch) private _batches;\r\n    mapping(string => uint256) private _ssccToBatchId;\r\n    mapping(uint256 => ActivityLog[]) private _producerActivityLogs;\r\n    mapping(uint256 => bool) private _approvedBatches;\r\n    mapping(uint256 => Participation[]) private _batchParticipations;\r\n    \r\n    event BatchApproved(uint256 indexed batchId, uint256 indexed producerId, string sscc);\r\n    event BatchApprovedForQR(uint256 indexed batchId, uint256 indexed producerId, string sscc);\r\n    event ParticipationRecorded(uint256 indexed batchId, uint256 participantId, string participantType, string action);\r\n    event BatchCreated(uint256 indexed batchId, string sscc, uint256 producerId);\r\n    event ActivityLogAdded(\r\n        uint256 indexed uid,\r\n        string activityName,\r\n        string description,\r\n        bool isSystemGenerated,\r\n        string[] imageUrls,\r\n        uint256[] relatedProductIds\r\n    );\r\nevent TransportStatusUpdated(uint256 indexed batchId, TransportStatus newStatus, string action, uint256 participantId, string participantType);\r\n    struct BatchParams {\r\n        string name;  // Thm trng tn l hng\r\n        string sscc;\r\n        uint256 producerId;\r\n        string quantity;\r\n        string[] productImageUrls;\r\n        string certificateImageUrl;\r\n        string farmPlotNumber;\r\n        uint256 productId;\r\n        uint256 startDate;\r\n        uint256 endDate;\r\n    }\r\n\r\n    function createBatch(\r\n        string memory _name,  // Thm tham s tn l hng\r\n        uint256 _producerId,\r\n        string memory _quantity,\r\n        string[] memory _productImageUrls,\r\n        string memory _certificateImageUrl,\r\n        string memory _farmPlotNumber,\r\n        uint256 _productId,\r\n        uint256 _startDate,\r\n        uint256 _endDate\r\n    ) public returns (uint256) {\r\n        string memory sscc = generateSSCC(_producerId);\r\n        BatchParams memory params = BatchParams({\r\n            name: _name,  // Thm tn l hng\r\n            sscc: sscc,\r\n            producerId: _producerId,\r\n            quantity: _quantity,\r\n            productImageUrls: _productImageUrls,\r\n            certificateImageUrl: _certificateImageUrl,\r\n            farmPlotNumber: _farmPlotNumber,\r\n            productId: _productId,\r\n            startDate: _startDate,\r\n            endDate: _endDate\r\n        });\r\n\r\n        return _createBatch(params);\r\n    }\r\n\r\n    function generateSSCC(uint256 _producerId) private view returns (string memory) {\r\n        string memory prefix = \"00\";\r\n        string memory companyPrefix = uint2str(_producerId);\r\n        uint256 serialNumber = uint256(keccak256(abi.encodePacked(block.timestamp, _producerId)));\r\n        string memory serialReference = uint2str(serialNumber);\r\n        \r\n        string memory ssccWithoutCheck = string(abi.encodePacked(prefix, companyPrefix, serialReference));\r\n        uint8 checkDigit = calculateCheckDigit(ssccWithoutCheck);\r\n        \r\n        string memory sscc = string(abi.encodePacked(ssccWithoutCheck, uint2str(uint256(checkDigit))));\r\n        \r\n        return sscc;\r\n    }\r\n\r\n    function calculateCheckDigit(string memory _code) private pure returns (uint8) {\r\n        bytes memory codeBytes = bytes(_code);\r\n        uint256 sum = 0;\r\n        for (uint256 i = 0; i < codeBytes.length; i++) {\r\n            uint8 digit = uint8(codeBytes[i]) - 48;\r\n            sum += (i % 2 == 0) ? digit * 3 : digit;\r\n        }\r\n        uint8 checkDigit = uint8((10 - (sum % 10)) % 10);\r\n        return checkDigit;\r\n    }\r\n\r\n    function uint2str(uint256 _i) private pure returns (string memory) {\r\n        if (_i == 0) {\r\n            return \"0\";\r\n        }\r\n        uint256 j = _i;\r\n        uint256 length;\r\n        while (j != 0) {\r\n            length++;\r\n            j /= 10;\r\n        }\r\n        bytes memory bstr = new bytes(length);\r\n        uint256 k = length;\r\n        while (_i != 0) {\r\n            k = k-1;\r\n            uint8 temp = (48 + uint8(_i - _i / 10 * 10));\r\n            bytes1 b1 = bytes1(temp);\r\n            bstr[k] = b1;\r\n            _i /= 10;\r\n        }\r\n        return string(bstr);\r\n    }\r\n\r\n    function _createBatch(BatchParams memory params) private returns (uint256) {\r\n        require(_ssccToBatchId[params.sscc] == 0, \"SSCC already exists\");\r\n        require(bytes(params.quantity).length > 0, \"Quantity must not be empty\");\r\n        require(params.productImageUrls.length > 0, \"At least one product image URL is required\");\r\n        require(bytes(params.certificateImageUrl).length > 0, \"Certificate image URL is required\");\r\n        require(bytes(params.farmPlotNumber).length > 0, \"Farm plot number is required\");\r\n        require(params.productId > 0, \"Product ID must be valid\");\r\n        require(params.startDate > 0, \"Start date is required\");\r\n        require(params.endDate > 0, \"End date is required\");\r\n        require(params.startDate < params.endDate, \"Start date must be before end date\");\r\n        require(bytes(params.name).length > 0, \"Batch name must not be empty\");\r\n\r\n        _batchIdCounter++;\r\n        uint256 newBatchId = _batchIdCounter;\r\n\r\n        uint256 productionDate = block.timestamp;\r\n\r\n        bytes32 dataHash = _calculateDataHash(\r\n            params.sscc,\r\n            params.producerId,\r\n            params.quantity,\r\n            productionDate,\r\n            params.farmPlotNumber,\r\n            params.productId,\r\n            params.name  // Thm tn l hng vo hm bm\r\n        );\r\n\r\n        Batch memory newBatch = Batch({\r\n            batchId: newBatchId,\r\n            name: params.name,  // Thm tn l hng\r\n            sscc: params.sscc,\r\n            producerId: params.producerId,\r\n            quantity: params.quantity,\r\n            productionDate: productionDate,\r\n            startDate: params.startDate,\r\n            endDate: params.endDate,\r\n            status: BatchStatus.PendingApproval,\r\n            productImageUrls: params.productImageUrls,\r\n            certificateImageUrl: params.certificateImageUrl,\r\n            farmPlotNumber: params.farmPlotNumber,\r\n            dataHash: dataHash,\r\n            productId: params.productId,\r\n            transportStatus: TransportStatus.NotTransported\r\n        });\r\n\r\n        _batches[newBatchId] = newBatch;\r\n        _ssccToBatchId[params.sscc] = newBatchId;\r\n\r\n        emit BatchCreated(newBatchId, params.sscc, params.producerId);\r\n        return newBatchId;\r\n    }\r\n    \r\n\r\n    function addActivityLog(\r\n        uint256 _uid,\r\n        string memory _activityName,\r\n        string memory _description,\r\n        string[] memory _imageUrls,\r\n        uint256[] memory _relatedProductIds\r\n    ) public {\r\n        ActivityLog memory newLog = ActivityLog({\r\n            timestamp: block.timestamp,\r\n            uid: _uid,\r\n            activityName: _activityName,\r\n            description: _description,\r\n            isSystemGenerated: false,\r\n            imageUrls: _imageUrls,\r\n            relatedProductIds: _relatedProductIds\r\n        });\r\n\r\n        _producerActivityLogs[_uid].push(newLog);\r\n        emit ActivityLogAdded(_uid, _activityName, _description, false, _imageUrls, _relatedProductIds);\r\n    }\r\n // Hm  ly nht k hot ng ca mt nh sn xut\r\n    function getProducerActivityLogs(uint256 _uid) public view returns (ActivityLog[] memory) {\r\n        return _producerActivityLogs[_uid];\r\n    }\r\n\r\n    \r\n    // Hm ni b  h thng t ng thm nht k\r\n    function _addSystemActivityLog(\r\n        uint256 _uid,\r\n        string memory _activityName,\r\n        string memory _description,\r\n        uint256[] memory _relatedProductIds\r\n    ) internal {\r\n        string[] memory emptyImageUrls = new string[](0);\r\n        ActivityLog memory newLog = ActivityLog({\r\n            timestamp: block.timestamp,\r\n            uid: _uid,\r\n            activityName: _activityName,\r\n            description: _description,\r\n            isSystemGenerated: true,\r\n            imageUrls: emptyImageUrls,\r\n            relatedProductIds: _relatedProductIds\r\n        });\r\n\r\n        _producerActivityLogs[_uid].push(newLog);\r\n        emit ActivityLogAdded(_uid, _activityName, _description, true, emptyImageUrls, _relatedProductIds);\r\n    }\r\n    \r\n    function _calculateDataHash(\r\n        string memory _sscc,\r\n        uint256 _producerId,\r\n        string memory _quantity,\r\n        uint256 _productionDate,\r\n        string memory _farmPlotNumber,\r\n        uint256 _productId,\r\n        string memory _name  // Thm tn l hng\r\n    ) private pure returns (bytes32) {\r\n        return keccak256(abi.encodePacked(_sscc, _producerId, _quantity, _productionDate, _farmPlotNumber, _productId, _name));\r\n    }\r\n    // hm kim tra sscc  tn ti hay cha \r\n    function ssccExists(string memory sscc) public view returns (bool) {\r\n        return _ssccToBatchId[sscc] != 0;\r\n    }\r\n\r\n    // Hm mi  ly danh sch cc l hng da trn producerId\r\n    function getBatchesByProducer(uint256 producerId) public view returns (Batch[] memory) {\r\n        uint256 count = 0;\r\n        for (uint256 i = 1; i <= _batchIdCounter; i++) {\r\n            if (_batches[i].producerId == producerId) {\r\n                count++;\r\n            }\r\n        }\r\n\r\n        Batch[] memory batches = new Batch[](count);\r\n        uint256 index = 0;\r\n        for (uint256 i = 1; i <= _batchIdCounter; i++) {\r\n            if (_batches[i].producerId == producerId) {\r\n                batches[index] = _batches[i];\r\n                index++;\r\n            }\r\n        }\r\n\r\n        return batches;\r\n    }\r\n\r\n    // hm cp nht trng thi l hng\r\nfunction updateBatchStatus(uint256 _batchId, BatchStatus _newStatus) public {\r\n    require(_batches[_batchId].batchId != 0, \"Batch does not exist\");\r\n    // Thm kim tra quyn nu cn\r\n    _batches[_batchId].status = _newStatus;\r\n    emit BatchStatusUpdated(_batchId, _newStatus);\r\n}\r\nfunction getPendingBatchesByProducer(uint256 _producerId) public view returns (Batch[] memory) {\r\n    uint256 pendingCount = 0;\r\n    for (uint256 i = 1; i <= _batchIdCounter; i++) {\r\n        if (_batches[i].producerId == _producerId && _batches[i].status == BatchStatus.PendingApproval) {\r\n            pendingCount++;\r\n        }\r\n    }\r\n    Batch[] memory pendingBatches = new Batch[](pendingCount);\r\n    uint256 index = 0;\r\n    for (uint256 i = 1; i <= _batchIdCounter; i++) {\r\n        if (_batches[i].producerId == _producerId && _batches[i].status == BatchStatus.PendingApproval) {\r\n            pendingBatches[index] = _batches[i];\r\n            index++;\r\n        }\r\n    }\r\n\r\n    return pendingBatches;\r\n}\r\n\r\nfunction getRejectedBatchesByProducer(uint256 _producerId) public view returns (Batch[] memory) {\r\n    uint256 rejectedCount = 0;\r\n    for (uint256 i = 1; i <= _batchIdCounter; i++) {\r\n        if (_batches[i].producerId == _producerId && _batches[i].status == BatchStatus.Rejected) {\r\n            rejectedCount++;\r\n        }\r\n    }\r\n\r\n    Batch[] memory rejectedBatches = new Batch[](rejectedCount);\r\n    uint256 index = 0;\r\n    for (uint256 i = 1; i <= _batchIdCounter; i++) {\r\n        if (_batches[i].producerId == _producerId && _batches[i].status == BatchStatus.Rejected) {\r\n            rejectedBatches[index] = _batches[i];\r\n            index++;\r\n        }\r\n    }\r\n\r\n    return rejectedBatches;\r\n}\r\nfunction getAllPendingBatches() public view returns (Batch[] memory) {\r\n        uint256 pendingCount = 0;\r\n        for (uint256 i = 1; i <= _batchIdCounter; i++) {\r\n            if (_batches[i].status == BatchStatus.PendingApproval) {\r\n                pendingCount++;\r\n            }\r\n        }\r\n\r\n        Batch[] memory pendingBatches = new Batch[](pendingCount);\r\n        uint256 index = 0;\r\n        for (uint256 i = 1; i <= _batchIdCounter; i++) {\r\n            if (_batches[i].status == BatchStatus.PendingApproval) {\r\n                pendingBatches[index] = _batches[i];\r\n                index++;\r\n            }\r\n        }\r\n\r\n        return pendingBatches;\r\n    }\r\n\r\nevent BatchStatusUpdated(uint256 indexed batchId, BatchStatus newStatus);\r\n\r\n// hm ly thng tin l hng\r\nfunction getBatchDetails(uint256 _batchId) public view returns (Batch memory) {\r\n    require(_batches[_batchId].batchId != 0, \"Batch does not exist\");\r\n    return _batches[_batchId];\r\n}\r\n\r\n\r\nfunction getTotalBatches() public view returns (uint256) {\r\n    return _batchIdCounter;\r\n}\r\n\r\nfunction isProducerOfBatch(uint256 _batchId, uint256 _producerId) public view returns (bool) {\r\n    return _batches[_batchId].producerId == _producerId;\r\n}\r\n\r\n// Thm hm ny vo smart contract\r\nfunction getActivityLogs(uint256 _uid) public view returns (ActivityLog[] memory) {\r\n    return _producerActivityLogs[_uid];\r\n}\r\nfunction getActivityLogCount(uint256 _uid) public view returns (uint256) {\r\n    return _producerActivityLogs[_uid].length;\r\n}\r\n\r\nmodifier onlyApprover() {\r\n    // Implement logic to check if msg.sender is an approver\r\n    _;\r\n}\r\n\r\nfunction approveBatch(uint256 _batchId) public onlyApprover {\r\n    require(_batches[_batchId].batchId != 0, \"Batch does not exist\");\r\n    require(_batches[_batchId].status == BatchStatus.PendingApproval, \"Batch is not pending approval\");\r\n\r\n    _batches[_batchId].status = BatchStatus.Approved;\r\n    _approvedBatches[_batchId] = true;\r\n\r\n    emit BatchApproved(_batchId, _batches[_batchId].producerId, _batches[_batchId].sscc);\r\n    emit BatchApprovedForQR(_batchId, _batches[_batchId].producerId, _batches[_batchId].sscc);\r\n    \r\n    // Add system activity log\r\n    uint256[] memory relatedProductIds = new uint256[](1);\r\n    relatedProductIds[0] = _batches[_batchId].productId;\r\n    _addSystemActivityLog(_batches[_batchId].producerId, \"Batch Approved\", \"Batch has been approved by the approver\", relatedProductIds);\r\n}\r\n\r\nfunction rejectBatch(uint256 _batchId) public onlyApprover {\r\n    require(_batches[_batchId].batchId != 0, \"Batch does not exist\");\r\n    require(_batches[_batchId].status == BatchStatus.PendingApproval, \"Batch is not pending approval\");\r\n\r\n    _batches[_batchId].status = BatchStatus.Rejected;\r\n\r\n    emit BatchRejected(_batchId, _batches[_batchId].producerId, _batches[_batchId].sscc);\r\n    \r\n    // Add system activity log\r\n    uint256[] memory relatedProductIds = new uint256[](1);\r\n    relatedProductIds[0] = _batches[_batchId].productId;\r\n    _addSystemActivityLog(_batches[_batchId].producerId, \"Batch Rejected\", \"Batch has been rejected by the approver\", relatedProductIds);\r\n}\r\n\r\nevent BatchRejected(uint256 indexed batchId, uint256 producerId, string sscc);\r\n\r\nfunction getApprovedBatchesByProducer(uint256 _producerId) public view returns (Batch[] memory) {\r\n    uint256 approvedCount = 0;\r\n    for (uint256 i = 1; i <= _batchIdCounter; i++) {\r\n        if (_batches[i].producerId == _producerId && _batches[i].status == BatchStatus.Approved) {\r\n            approvedCount++;\r\n        }\r\n    }\r\n\r\n    Batch[] memory approvedBatches = new Batch[](approvedCount);\r\n    uint256 index = 0;\r\n    for (uint256 i = 1; i <= _batchIdCounter; i++) {\r\n        if (_batches[i].producerId == _producerId && _batches[i].status == BatchStatus.Approved) {\r\n            approvedBatches[index] = _batches[i];\r\n            index++;\r\n        }\r\n    }\r\n\r\n    return approvedBatches;\r\n}\r\n\r\nfunction getBatchBySSCC(string memory _sscc) public view returns (Batch memory) {\r\n    uint256 batchId = _ssccToBatchId[_sscc];\r\n    require(batchId != 0, \"Batch does not exist with this SSCC\");\r\n    return _batches[batchId];\r\n}\r\n\r\nfunction isValidSSCC(string memory _sscc) public view returns (bool) {\r\n    return _ssccToBatchId[_sscc] != 0;\r\n}\r\n\r\nfunction isBatchApproved(uint256 _batchId) public view returns (bool) {\r\n    return _approvedBatches[_batchId];\r\n}\r\n\r\nfunction recordParticipation(uint256 _batchId, uint256 _participantId, string memory _participantType, string memory _action) public {\r\n    require(_batches[_batchId].batchId != 0, \"Batch does not exist\");\r\n    _batchParticipations[_batchId].push(Participation(_participantId, _participantType, block.timestamp, _action));\r\n    \r\n    emit ParticipationRecorded(_batchId, _participantId, _participantType, _action);\r\n}\r\n\r\nfunction updateTransportStatus(uint256 _batchId, uint256 _participantId, string memory _action, string memory _participantType) public {\r\n    require(_batches[_batchId].batchId != 0, \"Batch does not exist\");\r\n    require(_batches[_batchId].status == BatchStatus.Approved, \"Batch must be approved\");\r\n    \r\n    TransportEvent memory newEvent = TransportEvent({\r\n        participantId: _participantId,\r\n        timestamp: block.timestamp,\r\n        action: _action,\r\n        participantType: _participantType\r\n    });\r\n    \r\n    _batchTransportEvents[_batchId].push(newEvent);\r\n    \r\n    if (keccak256(abi.encodePacked(_action)) == keccak256(abi.encodePacked(\"Bat dau van chuyen\"))) {\r\n        _batches[_batchId].transportStatus = TransportStatus.InTransit;\r\n    } else if (keccak256(abi.encodePacked(_action)) == keccak256(abi.encodePacked(\"Hoan thanh van chuyen\"))) {\r\n        _batches[_batchId].transportStatus = TransportStatus.Delivered;\r\n    }\r\n    \r\n}\r\n\r\nfunction getTransportHistory(uint256 _batchId) public view returns (TransportEvent[] memory) {\r\n    return _batchTransportEvents[_batchId];\r\n}\r\n// Thm hm  kim tra trng thi vn chuyn\r\nfunction getBatchTransportStatus(uint256 _batchId) public view returns (TransportStatus) {\r\n    require(_batches[_batchId].batchId != 0, \"Batch does not exist\");\r\n    return _batches[_batchId].transportStatus;\r\n}\r\n\r\n}\r\n",
  "sourcePath": "D:\\projects\\nckh-be\\blockchain\\contracts\\supplychain.sol",
  "compiler": {
    "name": "solc",
    "version": "0.8.20+commit.a1b79de6.Emscripten.clang"
  },
  "schemaVersion": "3.4.16",
  "updatedAt": "2024-09-19T09:52:24.124Z",
  "networkType": "ethereum",
  "devdoc": {
    "kind": "dev",
    "methods": {},
    "version": 1
  },
  "userdoc": {
    "kind": "user",
    "methods": {},
    "version": 1
  }
}