{
  "contractName": "TraceabilityContract",
  "abi": [
    {
      "anonymous": false,
      "inputs": [
        {
          "indexed": true,
          "internalType": "uint256",
          "name": "batchId",
          "type": "uint256"
        },
        {
          "indexed": false,
          "internalType": "string",
          "name": "sscc",
          "type": "string"
        },
        {
          "indexed": false,
          "internalType": "uint256",
          "name": "producerId",
          "type": "uint256"
        }
      ],
      "name": "BatchCreated",
      "type": "event"
    },
    {
      "inputs": [
        {
          "internalType": "string",
          "name": "_sscc",
          "type": "string"
        },
        {
          "internalType": "uint256",
          "name": "_producerId",
          "type": "uint256"
        },
        {
          "internalType": "string",
          "name": "_quantity",
          "type": "string"
        },
        {
          "internalType": "string",
          "name": "_productImageUrl",
          "type": "string"
        },
        {
          "internalType": "string",
          "name": "_certificateImageUrl",
          "type": "string"
        },
        {
          "internalType": "string",
          "name": "_farmPlotNumber",
          "type": "string"
        },
        {
          "internalType": "uint256",
          "name": "_productId",
          "type": "uint256"
        },
        {
          "internalType": "uint256",
          "name": "_startDate",
          "type": "uint256"
        },
        {
          "internalType": "uint256",
          "name": "_endDate",
          "type": "uint256"
        }
      ],
      "name": "createBatch",
      "outputs": [
        {
          "internalType": "uint256",
          "name": "",
          "type": "uint256"
        }
      ],
      "stateMutability": "nonpayable",
      "type": "function"
    },
    {
      "inputs": [
        {
          "internalType": "string",
          "name": "sscc",
          "type": "string"
        }
      ],
      "name": "ssccExists",
      "outputs": [
        {
          "internalType": "bool",
          "name": "",
          "type": "bool"
        }
      ],
      "stateMutability": "view",
      "type": "function",
      "constant": true
    },
    {
      "inputs": [
        {
          "internalType": "uint256",
          "name": "producerId",
          "type": "uint256"
        }
      ],
      "name": "getBatchesByProducer",
      "outputs": [
        {
          "components": [
            {
              "internalType": "uint256",
              "name": "batchId",
              "type": "uint256"
            },
            {
              "internalType": "string",
              "name": "sscc",
              "type": "string"
            },
            {
              "internalType": "uint256",
              "name": "producerId",
              "type": "uint256"
            },
            {
              "internalType": "string",
              "name": "quantity",
              "type": "string"
            },
            {
              "internalType": "uint256",
              "name": "productionDate",
              "type": "uint256"
            },
            {
              "internalType": "uint256",
              "name": "expiryDate",
              "type": "uint256"
            },
            {
              "internalType": "uint256",
              "name": "startDate",
              "type": "uint256"
            },
            {
              "internalType": "uint256",
              "name": "endDate",
              "type": "uint256"
            },
            {
              "internalType": "enum TraceabilityContract.BatchStatus",
              "name": "status",
              "type": "uint8"
            },
            {
              "internalType": "string",
              "name": "productImageUrl",
              "type": "string"
            },
            {
              "internalType": "string",
              "name": "certificateImageUrl",
              "type": "string"
            },
            {
              "internalType": "string",
              "name": "farmPlotNumber",
              "type": "string"
            },
            {
              "internalType": "bytes32",
              "name": "dataHash",
              "type": "bytes32"
            },
            {
              "internalType": "uint256",
              "name": "productId",
              "type": "uint256"
            }
          ],
          "internalType": "struct TraceabilityContract.Batch[]",
          "name": "",
          "type": "tuple[]"
        }
      ],
      "stateMutability": "view",
      "type": "function",
      "constant": true
    }
  ],
  "bytecode": "0x608060405234801561001057600080fd5b50611b87806100206000396000f3fe608060405234801561001057600080fd5b50600436106100415760003560e01c8063040080781461004657806310fbb9f01461007657806380e32d45146100a6575b600080fd5b610060600480360381019061005b9190610e85565b6100d6565b60405161006d919061167f565b60405180910390f35b610090600480360381019061008b9190610ec6565b610101565b60405161009d919061180a565b60405180910390f35b6100c060048036038101906100bb9190611004565b61015f565b6040516100cd919061165d565b60405180910390f35b6000806002836040516100e991906115d1565b90815260200160405180910390205414159050919050565b6000806040518061012001604052808c81526020018b81526020018a815260200189815260200188815260200187815260200186815260200185815260200184815250905061014f816106a2565b9150509998505050505050505050565b6060600080600190505b60005481116101b257836001600083815260200190815260200160002060020154141561019f57818061019b90611a06565b9250505b80806101aa90611a06565b915050610169565b5060008167ffffffffffffffff8111156101f5577f4e487b7100000000000000000000000000000000000000000000000000000000600052604160045260246000fd5b60405190808252806020026020018201604052801561022e57816020015b61021b610cbb565b8152602001906001900390816102135790505b509050600080600190505b60005481116106965785600160008381526020019081526020016000206002015414156106835760016000828152602001908152602001600020604051806101c001604052908160008201548152602001600182018054610299906119d4565b80601f01602080910402602001604051908101604052809291908181526020018280546102c5906119d4565b80156103125780601f106102e757610100808354040283529160200191610312565b820191906000526020600020905b8154815290600101906020018083116102f557829003601f168201915b5050505050815260200160028201548152602001600382018054610335906119d4565b80601f0160208091040260200160405190810160405280929190818152602001828054610361906119d4565b80156103ae5780601f10610383576101008083540402835291602001916103ae565b820191906000526020600020905b81548152906001019060200180831161039157829003601f168201915b50505050508152602001600482015481526020016005820154815260200160068201548152602001600782015481526020016008820160009054906101000a900460ff16600381111561042a577f4e487b7100000000000000000000000000000000000000000000000000000000600052602160045260246000fd5b6003811115610462577f4e487b7100000000000000000000000000000000000000000000000000000000600052602160045260246000fd5b8152602001600982018054610476906119d4565b80601f01602080910402602001604051908101604052809291908181526020018280546104a2906119d4565b80156104ef5780601f106104c4576101008083540402835291602001916104ef565b820191906000526020600020905b8154815290600101906020018083116104d257829003601f168201915b50505050508152602001600a82018054610508906119d4565b80601f0160208091040260200160405190810160405280929190818152602001828054610534906119d4565b80156105815780601f1061055657610100808354040283529160200191610581565b820191906000526020600020905b81548152906001019060200180831161056457829003601f168201915b50505050508152602001600b8201805461059a906119d4565b80601f01602080910402602001604051908101604052809291908181526020018280546105c6906119d4565b80156106135780601f106105e857610100808354040283529160200191610613565b820191906000526020600020905b8154815290600101906020018083116105f657829003601f168201915b50505050508152602001600c8201548152602001600d82015481525050838381518110610669577f4e487b7100000000000000000000000000000000000000000000000000000000600052603260045260246000fd5b6020026020010181905250818061067f90611a06565b9250505b808061068e90611a06565b915050610239565b50819350505050919050565b60006012826000015151146106ec576040517f08c379a00000000000000000000000000000000000000000000000000000000081526004016106e39061178a565b60405180910390fd5b60006002836000015160405161070291906115d1565b90815260200160405180910390205414610751576040517f08c379a00000000000000000000000000000000000000000000000000000000081526004016107489061172a565b60405180910390fd5b600082604001515111610799576040517f08c379a00000000000000000000000000000000000000000000000000000000081526004016107909061174a565b60405180910390fd5b6000826060015151116107e1576040517f08c379a00000000000000000000000000000000000000000000000000000000081526004016107d8906117aa565b60405180910390fd5b600082608001515111610829576040517f08c379a0000000000000000000000000000000000000000000000000000000008152600401610820906117ea565b60405180910390fd5b60008260a001515111610871576040517f08c379a00000000000000000000000000000000000000000000000000000000081526004016108689061176a565b60405180910390fd5b60008260c00151116108b8576040517f08c379a00000000000000000000000000000000000000000000000000000000081526004016108af9061170a565b60405180910390fd5b60008260e00151116108ff576040517f08c379a00000000000000000000000000000000000000000000000000000000081526004016108f6906116ea565b60405180910390fd5b600082610100015111610947576040517f08c379a000000000000000000000000000000000000000000000000000000000815260040161093e906117ca565b60405180910390fd5b8161010001518260e0015110610992576040517f08c379a0000000000000000000000000000000000000000000000000000000008152600401610989906116ca565b60405180910390fd5b6000808154809291906109a490611a06565b9190505550600080549050600042905060006301e13380826109c691906118f7565b905060006109ed86600001518760200151886040015186868b60a001518c60c00151610c79565b90506000604051806101c001604052808681526020018860000151815260200188602001518152602001886040015181526020018581526020018481526020018860e001518152602001886101000151815260200160016003811115610a7c577f4e487b7100000000000000000000000000000000000000000000000000000000600052602160045260246000fd5b815260200188606001518152602001886080015181526020018860a0015181526020018381526020018860c0015181525090508060016000878152602001908152602001600020600082015181600001556020820151816001019080519060200190610ae9929190610d65565b50604082015181600201556060820151816003019080519060200190610b10929190610d65565b506080820151816004015560a0820151816005015560c0820151816006015560e082015181600701556101008201518160080160006101000a81548160ff02191690836003811115610b8b577f4e487b7100000000000000000000000000000000000000000000000000000000600052602160045260246000fd5b0217905550610120820151816009019080519060200190610bad929190610d65565b5061014082015181600a019080519060200190610bcb929190610d65565b5061016082015181600b019080519060200190610be9929190610d65565b5061018082015181600c01556101a082015181600d01559050508460028860000151604051610c1891906115d1565b908152602001604051809103902081905550847f58c168780de5fc719a1e7a85c7eca394e664c0e74b7c9ebc621f0b093112d04b88600001518960200151604051610c6492919061169a565b60405180910390a28495505050505050919050565b600087878787878787604051602001610c9897969594939291906115e8565b604051602081830303815290604052805190602001209050979650505050505050565b604051806101c00160405280600081526020016060815260200160008152602001606081526020016000815260200160008152602001600081526020016000815260200160006003811115610d39577f4e487b7100000000000000000000000000000000000000000000000000000000600052602160045260246000fd5b815260200160608152602001606081526020016060815260200160008019168152602001600081525090565b828054610d71906119d4565b90600052602060002090601f016020900481019282610d935760008555610dda565b82601f10610dac57805160ff1916838001178555610dda565b82800160010185558215610dda579182015b82811115610dd9578251825591602001919060010190610dbe565b5b509050610de79190610deb565b5090565b5b80821115610e04576000816000905550600101610dec565b5090565b6000610e1b610e1684611856565b611825565b905082815260208101848484011115610e3357600080fd5b610e3e848285611992565b509392505050565b600082601f830112610e5757600080fd5b8135610e67848260208601610e08565b91505092915050565b600081359050610e7f81611b3a565b92915050565b600060208284031215610e9757600080fd5b600082013567ffffffffffffffff811115610eb157600080fd5b610ebd84828501610e46565b91505092915050565b60008060008060008060008060006101208a8c031215610ee557600080fd5b60008a013567ffffffffffffffff811115610eff57600080fd5b610f0b8c828d01610e46565b9950506020610f1c8c828d01610e70565b98505060408a013567ffffffffffffffff811115610f3957600080fd5b610f458c828d01610e46565b97505060608a013567ffffffffffffffff811115610f6257600080fd5b610f6e8c828d01610e46565b96505060808a013567ffffffffffffffff811115610f8b57600080fd5b610f978c828d01610e46565b95505060a08a013567ffffffffffffffff811115610fb457600080fd5b610fc08c828d01610e46565b94505060c0610fd18c828d01610e70565b93505060e0610fe28c828d01610e70565b925050610100610ff48c828d01610e70565b9150509295985092959850929598565b60006020828403121561101657600080fd5b600061102484828501610e70565b91505092915050565b60006110398383611452565b905092915050565b600061104c82611896565b61105681856118b9565b93508360208202850161106885611886565b8060005b858110156110a45784840389528151611085858261102d565b9450611090836118ac565b925060208a0199505060018101905061106c565b50829750879550505050505092915050565b6110bf8161194d565b82525050565b6110ce81611959565b82525050565b6110dd81611980565b82525050565b60006110ee826118a1565b6110f881856118ca565b93506111088185602086016119a1565b61111181611b15565b840191505092915050565b6000611127826118a1565b61113181856118db565b93506111418185602086016119a1565b61114a81611b15565b840191505092915050565b6000611160826118a1565b61116a81856118ec565b935061117a8185602086016119a1565b80840191505092915050565b60006111936022836118db565b91507f53746172742064617465206d757374206265206265666f726520656e6420646160008301527f74650000000000000000000000000000000000000000000000000000000000006020830152604082019050919050565b60006111f96016836118db565b91507f53746172742064617465206973207265717569726564000000000000000000006000830152602082019050919050565b60006112396018836118db565b91507f50726f64756374204944206d7573742062652076616c696400000000000000006000830152602082019050919050565b60006112796013836118db565b91507f5353434320616c726561647920657869737473000000000000000000000000006000830152602082019050919050565b60006112b9601a836118db565b91507f5175616e74697479206d757374206e6f7420626520656d7074790000000000006000830152602082019050919050565b60006112f9601c836118db565b91507f4661726d20706c6f74206e756d626572206973207265717569726564000000006000830152602082019050919050565b6000611339601f836118db565b91507f53534343206d7573742062652031382063686172616374657273206c6f6e67006000830152602082019050919050565b6000611379601d836118db565b91507f50726f6475637420696d6167652055524c2069732072657175697265640000006000830152602082019050919050565b60006113b96014836118db565b91507f456e6420646174652069732072657175697265640000000000000000000000006000830152602082019050919050565b60006113f96021836118db565b91507f436572746966696361746520696d6167652055524c206973207265717569726560008301527f64000000000000000000000000000000000000000000000000000000000000006020830152604082019050919050565b60006101c08301600083015161146b600086018261159c565b506020830151848203602086015261148382826110e3565b9150506040830151611498604086018261159c565b50606083015184820360608601526114b082826110e3565b91505060808301516114c5608086018261159c565b5060a08301516114d860a086018261159c565b5060c08301516114eb60c086018261159c565b5060e08301516114fe60e086018261159c565b506101008301516115136101008601826110d4565b5061012083015184820361012086015261152d82826110e3565b91505061014083015184820361014086015261154982826110e3565b91505061016083015184820361016086015261156582826110e3565b91505061018083015161157c6101808601826110c5565b506101a08301516115916101a086018261159c565b508091505092915050565b6115a581611976565b82525050565b6115b481611976565b82525050565b6115cb6115c682611976565b611a4f565b82525050565b60006115dd8284611155565b915081905092915050565b60006115f4828a611155565b915061160082896115ba565b6020820191506116108288611155565b915061161c82876115ba565b60208201915061162c82866115ba565b60208201915061163c8285611155565b915061164882846115ba565b60208201915081905098975050505050505050565b600060208201905081810360008301526116778184611041565b905092915050565b600060208201905061169460008301846110b6565b92915050565b600060408201905081810360008301526116b4818561111c565b90506116c360208301846115ab565b9392505050565b600060208201905081810360008301526116e381611186565b9050919050565b60006020820190508181036000830152611703816111ec565b9050919050565b600060208201905081810360008301526117238161122c565b9050919050565b600060208201905081810360008301526117438161126c565b9050919050565b60006020820190508181036000830152611763816112ac565b9050919050565b60006020820190508181036000830152611783816112ec565b9050919050565b600060208201905081810360008301526117a38161132c565b9050919050565b600060208201905081810360008301526117c38161136c565b9050919050565b600060208201905081810360008301526117e3816113ac565b9050919050565b60006020820190508181036000830152611803816113ec565b9050919050565b600060208201905061181f60008301846115ab565b92915050565b6000604051905081810181811067ffffffffffffffff8211171561184c5761184b611ae6565b5b8060405250919050565b600067ffffffffffffffff82111561187157611870611ae6565b5b601f19601f8301169050602081019050919050565b6000819050602082019050919050565b600081519050919050565b600081519050919050565b6000602082019050919050565b600082825260208201905092915050565b600082825260208201905092915050565b600082825260208201905092915050565b600081905092915050565b600061190282611976565b915061190d83611976565b9250827fffffffffffffffffffffffffffffffffffffffffffffffffffffffffffffffff0382111561194257611941611a59565b5b828201905092915050565b60008115159050919050565b6000819050919050565b600081905061197182611b26565b919050565b6000819050919050565b600061198b82611963565b9050919050565b82818337600083830152505050565b60005b838110156119bf5780820151818401526020810190506119a4565b838111156119ce576000848401525b50505050565b600060028204905060018216806119ec57607f821691505b60208210811415611a00576119ff611ab7565b5b50919050565b6000611a1182611976565b91507fffffffffffffffffffffffffffffffffffffffffffffffffffffffffffffffff821415611a4457611a43611a59565b5b600182019050919050565b6000819050919050565b7f4e487b7100000000000000000000000000000000000000000000000000000000600052601160045260246000fd5b7f4e487b7100000000000000000000000000000000000000000000000000000000600052602160045260246000fd5b7f4e487b7100000000000000000000000000000000000000000000000000000000600052602260045260246000fd5b7f4e487b7100000000000000000000000000000000000000000000000000000000600052604160045260246000fd5b6000601f19601f8301169050919050565b60048110611b3757611b36611a88565b5b50565b611b4381611976565b8114611b4e57600080fd5b5056fea2646970667358221220310332429f8a059d29aea2946bfbcba5782517a815bc5d3bc8d04fd28570585964736f6c63430008000033",
  "immutableReferences": {},
  "source": "\r\n// SPDX-License-Identifier: MIT\r\npragma solidity ^0.8.0;\r\n\r\ncontract TraceabilityContract {\r\n    uint256 private _batchIdCounter;\r\n\r\n    struct Batch {\r\n        uint256 batchId;\r\n        string sscc;\r\n        uint256 producerId;\r\n        string quantity;\r\n        uint256 productionDate;\r\n        uint256 expiryDate;\r\n        uint256 startDate;\r\n        uint256 endDate;\r\n        BatchStatus status;\r\n        string productImageUrl;\r\n        string certificateImageUrl;\r\n        string farmPlotNumber;\r\n        bytes32 dataHash;\r\n        uint256 productId;\r\n    }\r\n\r\n    enum BatchStatus { Created, PendingApproval, Approved, Rejected }\r\n\r\n    mapping(uint256 => Batch) private _batches;\r\n    mapping(string => uint256) private _ssccToBatchId;\r\n\r\n    event BatchCreated(uint256 indexed batchId, string sscc, uint256 producerId);\r\n\r\n    struct BatchParams {\r\n        string sscc;\r\n        uint256 producerId;\r\n        string quantity;\r\n        string productImageUrl;\r\n        string certificateImageUrl;\r\n        string farmPlotNumber;\r\n        uint256 productId;\r\n        uint256 startDate;\r\n        uint256 endDate;\r\n    }\r\n\r\n    function createBatch(\r\n        string memory _sscc,\r\n        uint256 _producerId,\r\n        string memory _quantity,\r\n        string memory _productImageUrl,\r\n        string memory _certificateImageUrl,\r\n        string memory _farmPlotNumber,\r\n        uint256 _productId,\r\n        uint256 _startDate,\r\n        uint256 _endDate\r\n    ) public returns (uint256) {\r\n        BatchParams memory params = BatchParams({\r\n            sscc: _sscc,\r\n            producerId: _producerId,\r\n            quantity: _quantity,\r\n            productImageUrl: _productImageUrl,\r\n            certificateImageUrl: _certificateImageUrl,\r\n            farmPlotNumber: _farmPlotNumber,\r\n            productId: _productId,\r\n            startDate: _startDate,\r\n            endDate: _endDate\r\n        });\r\n\r\n        return _createBatch(params);\r\n    }\r\n\r\n    function _createBatch(BatchParams memory params) private returns (uint256) {\r\n        require(bytes(params.sscc).length == 18, \"SSCC must be 18 characters long\");\r\n        require(_ssccToBatchId[params.sscc] == 0, \"SSCC already exists\");\r\n        require(bytes(params.quantity).length > 0, \"Quantity must not be empty\");\r\n        require(bytes(params.productImageUrl).length > 0, \"Product image URL is required\");\r\n        require(bytes(params.certificateImageUrl).length > 0, \"Certificate image URL is required\");\r\n        require(bytes(params.farmPlotNumber).length > 0, \"Farm plot number is required\");\r\n        require(params.productId > 0, \"Product ID must be valid\");\r\n        require(params.startDate > 0, \"Start date is required\");\r\n        require(params.endDate > 0, \"End date is required\");\r\n        require(params.startDate < params.endDate, \"Start date must be before end date\");\r\n\r\n        _batchIdCounter++;\r\n        uint256 newBatchId = _batchIdCounter;\r\n\r\n        uint256 productionDate = block.timestamp;\r\n        uint256 expiryDate = productionDate + 365 days;\r\n\r\n        bytes32 dataHash = _calculateDataHash(\r\n            params.sscc,\r\n            params.producerId,\r\n            params.quantity,\r\n            productionDate,\r\n            expiryDate,\r\n            params.farmPlotNumber,\r\n            params.productId\r\n        );\r\n\r\n        Batch memory newBatch = Batch({\r\n            batchId: newBatchId,\r\n            sscc: params.sscc,\r\n            producerId: params.producerId,\r\n            // Remove the approverId field\r\n            quantity: params.quantity,\r\n            productionDate: productionDate,\r\n            expiryDate: expiryDate,\r\n            startDate: params.startDate,\r\n            endDate: params.endDate,\r\n            status: BatchStatus.PendingApproval,\r\n            productImageUrl: params.productImageUrl,\r\n            certificateImageUrl: params.certificateImageUrl,\r\n            farmPlotNumber: params.farmPlotNumber,\r\n            dataHash: dataHash,\r\n            productId: params.productId\r\n        });\r\n\r\n        _batches[newBatchId] = newBatch;\r\n        _ssccToBatchId[params.sscc] = newBatchId;\r\n\r\n        emit BatchCreated(newBatchId, params.sscc, params.producerId);\r\n        return newBatchId;\r\n    }\r\n\r\n    function _calculateDataHash(\r\n        string memory _sscc,\r\n        uint256 _producerId,\r\n        // Remove the approverId parameter\r\n        string memory _quantity,\r\n        uint256 _productionDate,\r\n        uint256 _expiryDate,\r\n        string memory _farmPlotNumber,\r\n        uint256 _productId\r\n    ) private pure returns (bytes32) {\r\n        return keccak256(abi.encodePacked(_sscc, _producerId, _quantity, _productionDate, _expiryDate, _farmPlotNumber, _productId));\r\n    }\r\n    // hm kim tra sscc  tn ti hay cha \r\n    function ssccExists(string memory sscc) public view returns (bool) {\r\n        return _ssccToBatchId[sscc] != 0;\r\n    }\r\n\r\n    // Hm mi  ly danh sch cc l hng da trn producerId\r\n    function getBatchesByProducer(uint256 producerId) public view returns (Batch[] memory) {\r\n        uint256 count = 0;\r\n        for (uint256 i = 1; i <= _batchIdCounter; i++) {\r\n            if (_batches[i].producerId == producerId) {\r\n                count++;\r\n            }\r\n        }\r\n\r\n        Batch[] memory batches = new Batch[](count);\r\n        uint256 index = 0;\r\n        for (uint256 i = 1; i <= _batchIdCounter; i++) {\r\n            if (_batches[i].producerId == producerId) {\r\n                batches[index] = _batches[i];\r\n                index++;\r\n            }\r\n        }\r\n\r\n        return batches;\r\n    }\r\n}\r\n",
  "sourcePath": "D:\\projects\\nckh-be\\blockchain\\contracts\\supplychain.sol",
  "compiler": {
    "name": "solc",
    "version": "0.8.0+commit.c7dfd78e.Emscripten.clang"
  },
  "schemaVersion": "3.4.16",
  "updatedAt": "2024-09-04T10:04:14.987Z",
  "networkType": "ethereum",
  "devdoc": {
    "kind": "dev",
    "methods": {},
    "version": 1
  },
  "userdoc": {
    "kind": "user",
    "methods": {},
    "version": 1
  }
}