{
  "contractName": "TraceabilityContract",
  "abi": [
    {
      "inputs": [],
      "stateMutability": "nonpayable",
      "type": "constructor"
    },
    {
      "anonymous": false,
      "inputs": [
        {
          "indexed": true,
          "internalType": "uint256",
          "name": "batchId",
          "type": "uint256"
        },
        {
          "indexed": false,
          "internalType": "string",
          "name": "sscc",
          "type": "string"
        },
        {
          "indexed": false,
          "internalType": "uint256",
          "name": "producerId",
          "type": "uint256"
        },
        {
          "indexed": false,
          "internalType": "uint256",
          "name": "approverId",
          "type": "uint256"
        }
      ],
      "name": "BatchCreated",
      "type": "event"
    },
    {
      "anonymous": false,
      "inputs": [
        {
          "indexed": true,
          "internalType": "uint256",
          "name": "userId",
          "type": "uint256"
        },
        {
          "indexed": false,
          "internalType": "string",
          "name": "action",
          "type": "string"
        },
        {
          "indexed": false,
          "internalType": "uint256",
          "name": "batchId",
          "type": "uint256"
        }
      ],
      "name": "NewSystemActivity",
      "type": "event"
    },
    {
      "anonymous": false,
      "inputs": [
        {
          "indexed": true,
          "internalType": "uint256",
          "name": "userId",
          "type": "uint256"
        },
        {
          "indexed": false,
          "internalType": "string",
          "name": "action",
          "type": "string"
        },
        {
          "indexed": false,
          "internalType": "uint256",
          "name": "batchId",
          "type": "uint256"
        },
        {
          "indexed": false,
          "internalType": "string",
          "name": "details",
          "type": "string"
        },
        {
          "indexed": false,
          "internalType": "string",
          "name": "imageHash",
          "type": "string"
        }
      ],
      "name": "NewUserActivity",
      "type": "event"
    },
    {
      "inputs": [
        {
          "internalType": "string",
          "name": "_sscc",
          "type": "string"
        },
        {
          "internalType": "uint256",
          "name": "_producerId",
          "type": "uint256"
        },
        {
          "internalType": "string",
          "name": "_quantity",
          "type": "string"
        },
        {
          "internalType": "string",
          "name": "_productImageUrl",
          "type": "string"
        },
        {
          "internalType": "string",
          "name": "_certificateImageUrl",
          "type": "string"
        },
        {
          "internalType": "string",
          "name": "_farmPlotNumber",
          "type": "string"
        },
        {
          "internalType": "uint256",
          "name": "_productId",
          "type": "uint256"
        },
        {
          "internalType": "uint256",
          "name": "_startDate",
          "type": "uint256"
        },
        {
          "internalType": "uint256",
          "name": "_endDate",
          "type": "uint256"
        }
      ],
      "name": "createBatch",
      "outputs": [
        {
          "internalType": "uint256",
          "name": "",
          "type": "uint256"
        }
      ],
      "stateMutability": "nonpayable",
      "type": "function"
    },
    {
      "inputs": [
        {
          "internalType": "uint256",
          "name": "_batchId",
          "type": "uint256"
        },
        {
          "internalType": "bool",
          "name": "_isApproved",
          "type": "bool"
        }
      ],
      "name": "approveBatch",
      "outputs": [],
      "stateMutability": "nonpayable",
      "type": "function"
    },
    {
      "inputs": [
        {
          "internalType": "uint256",
          "name": "_batchId",
          "type": "uint256"
        },
        {
          "internalType": "enum TraceabilityContract.BatchStatus",
          "name": "_newStatus",
          "type": "uint8"
        }
      ],
      "name": "updateBatchStatus",
      "outputs": [],
      "stateMutability": "nonpayable",
      "type": "function"
    },
    {
      "inputs": [
        {
          "internalType": "uint256",
          "name": "_batchId",
          "type": "uint256"
        },
        {
          "internalType": "string",
          "name": "_newProductImageUrl",
          "type": "string"
        },
        {
          "internalType": "string",
          "name": "_newCertificateImageUrl",
          "type": "string"
        },
        {
          "internalType": "uint256",
          "name": "_producerId",
          "type": "uint256"
        }
      ],
      "name": "updateBatchImages",
      "outputs": [],
      "stateMutability": "nonpayable",
      "type": "function"
    },
    {
      "inputs": [
        {
          "internalType": "uint256",
          "name": "_batchId",
          "type": "uint256"
        }
      ],
      "name": "getBatchInfo",
      "outputs": [
        {
          "components": [
            {
              "internalType": "uint256",
              "name": "batchId",
              "type": "uint256"
            },
            {
              "internalType": "string",
              "name": "sscc",
              "type": "string"
            },
            {
              "internalType": "uint256",
              "name": "producerId",
              "type": "uint256"
            },
            {
              "internalType": "uint256",
              "name": "approverId",
              "type": "uint256"
            },
            {
              "internalType": "string",
              "name": "quantity",
              "type": "string"
            },
            {
              "internalType": "uint256",
              "name": "productionDate",
              "type": "uint256"
            },
            {
              "internalType": "uint256",
              "name": "expiryDate",
              "type": "uint256"
            },
            {
              "internalType": "uint256",
              "name": "startDate",
              "type": "uint256"
            },
            {
              "internalType": "uint256",
              "name": "endDate",
              "type": "uint256"
            },
            {
              "internalType": "enum TraceabilityContract.BatchStatus",
              "name": "status",
              "type": "uint8"
            },
            {
              "internalType": "string",
              "name": "productImageUrl",
              "type": "string"
            },
            {
              "internalType": "string",
              "name": "certificateImageUrl",
              "type": "string"
            },
            {
              "internalType": "string",
              "name": "farmPlotNumber",
              "type": "string"
            },
            {
              "internalType": "bytes32",
              "name": "dataHash",
              "type": "bytes32"
            },
            {
              "internalType": "uint256",
              "name": "productId",
              "type": "uint256"
            }
          ],
          "internalType": "struct TraceabilityContract.Batch",
          "name": "",
          "type": "tuple"
        }
      ],
      "stateMutability": "view",
      "type": "function",
      "constant": true
    },
    {
      "inputs": [
        {
          "internalType": "string",
          "name": "_sscc",
          "type": "string"
        }
      ],
      "name": "getBatchIdBySSCC",
      "outputs": [
        {
          "internalType": "uint256",
          "name": "",
          "type": "uint256"
        }
      ],
      "stateMutability": "view",
      "type": "function",
      "constant": true
    },
    {
      "inputs": [
        {
          "internalType": "uint256",
          "name": "producer",
          "type": "uint256"
        }
      ],
      "name": "addProducer",
      "outputs": [],
      "stateMutability": "nonpayable",
      "type": "function"
    },
    {
      "inputs": [
        {
          "internalType": "uint256",
          "name": "approver",
          "type": "uint256"
        }
      ],
      "name": "addApprover",
      "outputs": [],
      "stateMutability": "nonpayable",
      "type": "function"
    },
    {
      "inputs": [],
      "name": "pause",
      "outputs": [],
      "stateMutability": "nonpayable",
      "type": "function"
    },
    {
      "inputs": [],
      "name": "unpause",
      "outputs": [],
      "stateMutability": "nonpayable",
      "type": "function"
    },
    {
      "inputs": [
        {
          "internalType": "uint256",
          "name": "userId",
          "type": "uint256"
        }
      ],
      "name": "getSystemActivities",
      "outputs": [
        {
          "components": [
            {
              "internalType": "uint256",
              "name": "timestamp",
              "type": "uint256"
            },
            {
              "internalType": "string",
              "name": "action",
              "type": "string"
            },
            {
              "internalType": "uint256",
              "name": "batchId",
              "type": "uint256"
            },
            {
              "internalType": "uint256",
              "name": "userId",
              "type": "uint256"
            }
          ],
          "internalType": "struct TraceabilityContract.SystemActivity[]",
          "name": "",
          "type": "tuple[]"
        }
      ],
      "stateMutability": "view",
      "type": "function",
      "constant": true
    },
    {
      "inputs": [
        {
          "internalType": "uint256",
          "name": "userId",
          "type": "uint256"
        }
      ],
      "name": "getUserActivities",
      "outputs": [
        {
          "components": [
            {
              "internalType": "uint256",
              "name": "timestamp",
              "type": "uint256"
            },
            {
              "internalType": "string",
              "name": "action",
              "type": "string"
            },
            {
              "internalType": "uint256",
              "name": "batchId",
              "type": "uint256"
            },
            {
              "internalType": "string",
              "name": "details",
              "type": "string"
            },
            {
              "internalType": "string",
              "name": "imageHash",
              "type": "string"
            },
            {
              "internalType": "uint256",
              "name": "userId",
              "type": "uint256"
            }
          ],
          "internalType": "struct TraceabilityContract.UserActivity[]",
          "name": "",
          "type": "tuple[]"
        }
      ],
      "stateMutability": "view",
      "type": "function",
      "constant": true
    },
    {
      "inputs": [
        {
          "internalType": "uint256",
          "name": "_batchId",
          "type": "uint256"
        },
        {
          "internalType": "string",
          "name": "_action",
          "type": "string"
        },
        {
          "internalType": "string",
          "name": "_details",
          "type": "string"
        },
        {
          "internalType": "string",
          "name": "_imageHash",
          "type": "string"
        }
      ],
      "name": "addProducerActivity",
      "outputs": [],
      "stateMutability": "nonpayable",
      "type": "function"
    },
    {
      "inputs": [],
      "name": "getAdmin",
      "outputs": [
        {
          "internalType": "uint256",
          "name": "",
          "type": "uint256"
        }
      ],
      "stateMutability": "view",
      "type": "function",
      "constant": true
    },
    {
      "inputs": [],
      "name": "getPendingBatches",
      "outputs": [
        {
          "internalType": "uint256[]",
          "name": "",
          "type": "uint256[]"
        }
      ],
      "stateMutability": "view",
      "type": "function",
      "constant": true
    },
    {
      "inputs": [
        {
          "internalType": "uint256",
          "name": "userId",
          "type": "uint256"
        },
        {
          "internalType": "uint256",
          "name": "regionId",
          "type": "uint256"
        }
      ],
      "name": "setUserRegion",
      "outputs": [],
      "stateMutability": "nonpayable",
      "type": "function"
    },
    {
      "inputs": [
        {
          "internalType": "uint256",
          "name": "approverId",
          "type": "uint256"
        },
        {
          "internalType": "uint256",
          "name": "regionId",
          "type": "uint256"
        }
      ],
      "name": "addApproverToRegion",
      "outputs": [],
      "stateMutability": "nonpayable",
      "type": "function"
    },
    {
      "inputs": [
        {
          "internalType": "uint256",
          "name": "regionId",
          "type": "uint256"
        }
      ],
      "name": "getRegionApprovers",
      "outputs": [
        {
          "internalType": "uint256[]",
          "name": "",
          "type": "uint256[]"
        }
      ],
      "stateMutability": "view",
      "type": "function",
      "constant": true
    },
    {
      "inputs": [
        {
          "internalType": "uint256",
          "name": "_batchId",
          "type": "uint256"
        },
        {
          "internalType": "uint256",
          "name": "_newStartDate",
          "type": "uint256"
        },
        {
          "internalType": "uint256",
          "name": "_newEndDate",
          "type": "uint256"
        },
        {
          "internalType": "uint256",
          "name": "_producerId",
          "type": "uint256"
        }
      ],
      "name": "updateBatchDates",
      "outputs": [],
      "stateMutability": "nonpayable",
      "type": "function"
    }
  ],
  "bytecode": "0x608060405234801561001057600080fd5b503373ffffffffffffffffffffffffffffffffffffffff1660028190555061471e8061003d6000396000f3fe608060405234801561001057600080fd5b50600436106101215760003560e01c8063650871fe116100ad578063909aacbc11610071578063909aacbc146102dc578063a899c1f1146102f8578063ade1d30414610328578063cc7c981e14610358578063d59317d61461037457610121565b8063650871fe146102605780636e9960c31461027c5780636f0568231461029a57806379227a25146102b65780638456cb59146102d257610121565b806334c505c6116100f457806334c505c6146101d25780633d18cf57146102025780633f4ba83a1461021e57806352c88f3614610228578063577654bd1461024457610121565b806306f38e161461012657806310fbb9f01461014257806319d6ed3c146101725780631a0058f5146101a2575b600080fd5b610140600480360381019061013b9190612f2a565b610392565b005b61015c60048036038101906101579190612c0d565b610408565b60405161016991906142f6565b60405180910390f35b61018c60048036038101906101879190612bcc565b6104b7565b60405161019991906142f6565b60405180910390f35b6101bc60048036038101906101b79190612d4b565b6104df565b6040516101c991906142d4565b60405180910390f35b6101ec60048036038101906101e79190612d4b565b61090d565b6040516101f99190613e10565b60405180910390f35b61021c60048036038101906102179190612d74565b610b53565b005b610226610f9f565b005b610242600480360381019061023d9190612db0565b611016565b005b61025e60048036038101906102599190612f66565b6112ad565b005b61027a60048036038101906102759190612f2a565b6115ec565b005b6102846116fc565b60405161029191906142f6565b60405180910390f35b6102b460048036038101906102af9190612e97565b611706565b005b6102d060048036038101906102cb9190612d4b565b61199d565b005b6102da611a25565b005b6102f660048036038101906102f19190612d4b565b611a9c565b005b610312600480360381019061030d9190612d4b565b611b24565b60405161031f9190613dee565b60405180910390f35b610342600480360381019061033d9190612d4b565b611c46565b60405161034f9190613e32565b60405180910390f35b610372600480360381019061036d9190612dec565b611cb1565b005b61037c611de2565b6040516103899190613e32565b60405180910390f35b6002543373ffffffffffffffffffffffffffffffffffffffff16146103ec576040517f08c379a00000000000000000000000000000000000000000000000000000000081526004016103e390614126565b60405180910390fd5b8060096000848152602001908152602001600020819055505050565b6000600360009054906101000a900460ff161561045a576040517f08c379a000000000000000000000000000000000000000000000000000000000815260040161045190614246565b60405180910390fd5b60006040518061012001604052808c81526020018b81526020018a81526020018981526020018881526020018781526020018681526020018581526020018481525090506104a781612053565b9150509998505050505050505050565b60006006826040516104c99190613d51565b9081526020016040518091039020549050919050565b6104e76129d1565b60045482111561052c576040517f08c379a000000000000000000000000000000000000000000000000000000000815260040161052390613fb8565b60405180910390fd5b60056000838152602001908152602001600020604051806101e00160405290816000820154815260200160018201805461056590614544565b80601f016020809104026020016040519081016040528092919081815260200182805461059190614544565b80156105de5780601f106105b3576101008083540402835291602001916105de565b820191906000526020600020905b8154815290600101906020018083116105c157829003601f168201915b50505050508152602001600282015481526020016003820154815260200160048201805461060b90614544565b80601f016020809104026020016040519081016040528092919081815260200182805461063790614544565b80156106845780601f1061065957610100808354040283529160200191610684565b820191906000526020600020905b81548152906001019060200180831161066757829003601f168201915b50505050508152602001600582015481526020016006820154815260200160078201548152602001600882015481526020016009820160009054906101000a900460ff166003811115610700577f4e487b7100000000000000000000000000000000000000000000000000000000600052602160045260246000fd5b6003811115610738577f4e487b7100000000000000000000000000000000000000000000000000000000600052602160045260246000fd5b8152602001600a8201805461074c90614544565b80601f016020809104026020016040519081016040528092919081815260200182805461077890614544565b80156107c55780601f1061079a576101008083540402835291602001916107c5565b820191906000526020600020905b8154815290600101906020018083116107a857829003601f168201915b50505050508152602001600b820180546107de90614544565b80601f016020809104026020016040519081016040528092919081815260200182805461080a90614544565b80156108575780601f1061082c57610100808354040283529160200191610857565b820191906000526020600020905b81548152906001019060200180831161083a57829003601f168201915b50505050508152602001600c8201805461087090614544565b80601f016020809104026020016040519081016040528092919081815260200182805461089c90614544565b80156108e95780601f106108be576101008083540402835291602001916108e9565b820191906000526020600020905b8154815290600101906020018083116108cc57829003601f168201915b50505050508152602001600d8201548152602001600e820154815250509050919050565b606060086000838152602001908152602001600020805480602002602001604051908101604052809291908181526020016000905b82821015610b4857838290600052602060002090600602016040518060c00160405290816000820154815260200160018201805461097f90614544565b80601f01602080910402602001604051908101604052809291908181526020018280546109ab90614544565b80156109f85780601f106109cd576101008083540402835291602001916109f8565b820191906000526020600020905b8154815290600101906020018083116109db57829003601f168201915b5050505050815260200160028201548152602001600382018054610a1b90614544565b80601f0160208091040260200160405190810160405280929190818152602001828054610a4790614544565b8015610a945780601f10610a6957610100808354040283529160200191610a94565b820191906000526020600020905b815481529060010190602001808311610a7757829003601f168201915b50505050508152602001600482018054610aad90614544565b80601f0160208091040260200160405190810160405280929190818152602001828054610ad990614544565b8015610b265780601f10610afb57610100808354040283529160200191610b26565b820191906000526020600020905b815481529060010190602001808311610b0957829003601f168201915b5050505050815260200160058201548152505081526020019060010190610942565b505050509050919050565b600360009054906101000a900460ff1615610ba3576040517f08c379a0000000000000000000000000000000000000000000000000000000008152600401610b9a90614246565b60405180910390fd5b600160003373ffffffffffffffffffffffffffffffffffffffff16815260200190815260200160002060009054906101000a900460ff16610c19576040517f08c379a0000000000000000000000000000000000000000000000000000000008152600401610c10906141c6565b60405180910390fd5b600060056000848152602001908152602001600020600001541415610c73576040517f08c379a0000000000000000000000000000000000000000000000000000000008152600401610c6a90613fb8565b60405180910390fd5b60016003811115610cad577f4e487b7100000000000000000000000000000000000000000000000000000000600052602160045260246000fd5b6005600084815260200190815260200160002060090160009054906101000a900460ff166003811115610d09577f4e487b7100000000000000000000000000000000000000000000000000000000600052602160045260246000fd5b14610d49576040517f08c379a0000000000000000000000000000000000000000000000000000000008152600401610d4090614166565b60405180910390fd5b60003373ffffffffffffffffffffffffffffffffffffffff1690506000600560008581526020019081526020016000206002015490506009600082815260200190815260200160002054600960008481526020019081526020016000205414610de7576040517f08c379a0000000000000000000000000000000000000000000000000000000008152600401610dde90614186565b60405180910390fd5b8160056000868152602001908152602001600020600301819055508215610e725760026005600086815260200190815260200160002060090160006101000a81548160ff02191690836003811115610e68577f4e487b7100000000000000000000000000000000000000000000000000000000600052602160045260246000fd5b0217905550610ed8565b60036005600086815260200190815260200160002060090160006101000a81548160ff02191690836003811115610ed2577f4e487b7100000000000000000000000000000000000000000000000000000000600052602160045260246000fd5b02179055505b600083610f1a576040518060400160405280600e81526020017f52656a6563746564204261746368000000000000000000000000000000000000815250610f51565b6040518060400160405280600e81526020017f417070726f7665642042617463680000000000000000000000000000000000008152505b9050610f5e838287612782565b827fdeefa9005c0b2a4c87816a4cfd8dd628befdc3610f42b4a21f338c62f4b119aa8287604051610f90929190613e54565b60405180910390a25050505050565b6002543373ffffffffffffffffffffffffffffffffffffffff1614610ff9576040517f08c379a0000000000000000000000000000000000000000000000000000000008152600401610ff090614126565b60405180910390fd5b6000600360006101000a81548160ff021916908315150217905550565b600360009054906101000a900460ff1615611066576040517f08c379a000000000000000000000000000000000000000000000000000000000815260040161105d90614246565b60405180910390fd5b600160003373ffffffffffffffffffffffffffffffffffffffff16815260200190815260200160002060009054906101000a900460ff166110dc576040517f08c379a00000000000000000000000000000000000000000000000000000000081526004016110d3906141c6565b60405180910390fd5b600454821115611121576040517f08c379a000000000000000000000000000000000000000000000000000000000815260040161111890613fb8565b60405180910390fd5b6001600381111561115b577f4e487b7100000000000000000000000000000000000000000000000000000000600052602160045260246000fd5b6005600084815260200190815260200160002060090160009054906101000a900460ff1660038111156111b7577f4e487b7100000000000000000000000000000000000000000000000000000000600052602160045260246000fd5b146111f7576040517f08c379a00000000000000000000000000000000000000000000000000000000081526004016111ee90613f3c565b60405180910390fd5b806005600084815260200190815260200160002060090160006101000a81548160ff02191690836003811115611256577f4e487b7100000000000000000000000000000000000000000000000000000000600052602160045260246000fd5b02179055503373ffffffffffffffffffffffffffffffffffffffff167fdeefa9005c0b2a4c87816a4cfd8dd628befdc3610f42b4a21f338c62f4b119aa836040516112a19190613f5c565b60405180910390a25050565b600360009054906101000a900460ff16156112fd576040517f08c379a00000000000000000000000000000000000000000000000000000000081526004016112f490614246565b60405180910390fd5b600454841115611342576040517f08c379a000000000000000000000000000000000000000000000000000000000815260040161133990613fb8565b60405180910390fd5b6001600381111561137c577f4e487b7100000000000000000000000000000000000000000000000000000000600052602160045260246000fd5b6005600086815260200190815260200160002060090160009054906101000a900460ff1660038111156113d8577f4e487b7100000000000000000000000000000000000000000000000000000000600052602160045260246000fd5b14611418576040517f08c379a000000000000000000000000000000000000000000000000000000000815260040161140f90614106565b60405180910390fd5b80600560008681526020019081526020016000206002015414611470576040517f08c379a000000000000000000000000000000000000000000000000000000000815260040161146790614146565b60405180910390fd5b600083116114b3576040517f08c379a00000000000000000000000000000000000000000000000000000000081526004016114aa90613ff8565b60405180910390fd5b600082116114f6576040517f08c379a00000000000000000000000000000000000000000000000000000000081526004016114ed90614226565b60405180910390fd5b818310611538576040517f08c379a000000000000000000000000000000000000000000000000000000000815260040161152f90613fd8565b60405180910390fd5b8260056000868152602001908152602001600020600701819055508160056000868152602001908152602001600020600801819055506115ae816040518060400160405280601381526020017f557064617465642042617463682044617465730000000000000000000000000081525086612782565b807fdeefa9005c0b2a4c87816a4cfd8dd628befdc3610f42b4a21f338c62f4b119aa856040516115de9190614038565b60405180910390a250505050565b6002543373ffffffffffffffffffffffffffffffffffffffff1614611646576040517f08c379a000000000000000000000000000000000000000000000000000000000815260040161163d90614126565b60405180910390fd5b6001600083815260200190815260200160002060009054906101000a900460ff166116a6576040517f08c379a000000000000000000000000000000000000000000000000000000000815260040161169d90614266565b60405180910390fd5b806009600084815260200190815260200160002081905550600a60008281526020019081526020016000208290806001815401808255809150506001900390600052602060002001600090919091909150555050565b6000600254905090565b600360009054906101000a900460ff1615611756576040517f08c379a000000000000000000000000000000000000000000000000000000000815260040161174d90614246565b60405180910390fd5b60045484111561179b576040517f08c379a000000000000000000000000000000000000000000000000000000000815260040161179290613fb8565b60405180910390fd5b600160038111156117d5577f4e487b7100000000000000000000000000000000000000000000000000000000600052602160045260246000fd5b6005600086815260200190815260200160002060090160009054906101000a900460ff166003811115611831577f4e487b7100000000000000000000000000000000000000000000000000000000600052602160045260246000fd5b14611871576040517f08c379a000000000000000000000000000000000000000000000000000000000815260040161186890614206565b60405180910390fd5b806005600086815260200190815260200160002060020154146118c9576040517f08c379a00000000000000000000000000000000000000000000000000000000081526004016118c090614146565b60405180910390fd5b8260056000868152602001908152602001600020600a0190805190602001906118f3929190612a82565b508160056000868152602001908152602001600020600b01908051906020019061191e929190612a82565b5061195f816040518060400160405280601481526020017f5570646174656420426174636820496d6167657300000000000000000000000081525086612782565b807fdeefa9005c0b2a4c87816a4cfd8dd628befdc3610f42b4a21f338c62f4b119aa8560405161198f9190613f8a565b60405180910390a250505050565b6002543373ffffffffffffffffffffffffffffffffffffffff16146119f7576040517f08c379a00000000000000000000000000000000000000000000000000000000081526004016119ee90614126565b60405180910390fd5b600180600083815260200190815260200160002060006101000a81548160ff02191690831515021790555050565b6002543373ffffffffffffffffffffffffffffffffffffffff1614611a7f576040517f08c379a0000000000000000000000000000000000000000000000000000000008152600401611a7690614126565b60405180910390fd5b6001600360006101000a81548160ff021916908315150217905550565b6002543373ffffffffffffffffffffffffffffffffffffffff1614611af6576040517f08c379a0000000000000000000000000000000000000000000000000000000008152600401611aed90614126565b60405180910390fd5b600160008083815260200190815260200160002060006101000a81548160ff02191690831515021790555050565b606060076000838152602001908152602001600020805480602002602001604051908101604052809291908181526020016000905b82821015611c3b578382906000526020600020906004020160405180608001604052908160008201548152602001600182018054611b9690614544565b80601f0160208091040260200160405190810160405280929190818152602001828054611bc290614544565b8015611c0f5780601f10611be457610100808354040283529160200191611c0f565b820191906000526020600020905b815481529060010190602001808311611bf257829003601f168201915b505050505081526020016002820154815260200160038201548152505081526020019060010190611b59565b505050509050919050565b6060600a6000838152602001908152602001600020805480602002602001604051908101604052809291908181526020018280548015611ca557602002820191906000526020600020905b815481526020019060010190808311611c91575b50505050509050919050565b600360009054906101000a900460ff1615611d01576040517f08c379a0000000000000000000000000000000000000000000000000000000008152600401611cf890614246565b60405180910390fd5b600060056000868152602001908152602001600020600001541415611d5b576040517f08c379a0000000000000000000000000000000000000000000000000000000008152600401611d5290613fb8565b60405180910390fd5b6000600560008681526020019081526020016000206002015490503373ffffffffffffffffffffffffffffffffffffffff168114611dce576040517f08c379a0000000000000000000000000000000000000000000000000000000008152600401611dc590613f1c565b60405180910390fd5b611ddb8185878686612861565b5050505050565b6060600160003373ffffffffffffffffffffffffffffffffffffffff16815260200190815260200160002060009054906101000a900460ff16611e5a576040517f08c379a0000000000000000000000000000000000000000000000000000000008152600401611e51906141c6565b60405180910390fd5b600060045467ffffffffffffffff811115611e9e577f4e487b7100000000000000000000000000000000000000000000000000000000600052604160045260246000fd5b604051908082528060200260200182016040528015611ecc5781602001602082028036833780820191505090505b509050600080600960003373ffffffffffffffffffffffffffffffffffffffff1681526020019081526020016000205490506000600190505b60045481116120465760016003811115611f48577f4e487b7100000000000000000000000000000000000000000000000000000000600052602160045260246000fd5b6005600083815260200190815260200160002060090160009054906101000a900460ff166003811115611fa4577f4e487b7100000000000000000000000000000000000000000000000000000000600052602160045260246000fd5b148015611fd9575081600960006005600085815260200190815260200160002060020154815260200190815260200160002054145b156120335780848481518110612018577f4e487b7100000000000000000000000000000000000000000000000000000000600052603260045260246000fd5b602002602001018181525050828061202f90614576565b9350505b808061203e90614576565b915050611f05565b5081835282935050505090565b600060128260000151511461209d576040517f08c379a0000000000000000000000000000000000000000000000000000000008152600401612094906140e6565b60405180910390fd5b6000600683600001516040516120b39190613d51565b90815260200160405180910390205414612102576040517f08c379a00000000000000000000000000000000000000000000000000000000081526004016120f990614066565b60405180910390fd5b60008260400151511161214a576040517f08c379a0000000000000000000000000000000000000000000000000000000008152600401612141906140a6565b60405180910390fd5b600082606001515111612192576040517f08c379a0000000000000000000000000000000000000000000000000000000008152600401612189906141e6565b60405180910390fd5b6000826080015151116121da576040517f08c379a00000000000000000000000000000000000000000000000000000000081526004016121d190614286565b60405180910390fd5b60008260a001515111612222576040517f08c379a0000000000000000000000000000000000000000000000000000000008152600401612219906140c6565b60405180910390fd5b60008260c0015111612269576040517f08c379a000000000000000000000000000000000000000000000000000000000815260040161226090614018565b60405180910390fd5b60008260e00151116122b0576040517f08c379a00000000000000000000000000000000000000000000000000000000081526004016122a790613ff8565b60405180910390fd5b6000826101000151116122f8576040517f08c379a00000000000000000000000000000000000000000000000000000000081526004016122ef90614226565b60405180910390fd5b8161010001518260e0015110612343576040517f08c379a000000000000000000000000000000000000000000000000000000000815260040161233a90613fd8565b60405180910390fd5b6000808360200151815260200190815260200160002060009054906101000a900460ff166123a6576040517f08c379a000000000000000000000000000000000000000000000000000000000815260040161239d90614086565b60405180910390fd5b3373ffffffffffffffffffffffffffffffffffffffff16826020015114612402576040517f08c379a00000000000000000000000000000000000000000000000000000000081526004016123f9906141a6565b60405180910390fd5b6004600081548092919061241590614576565b919050555060006004549050600042905060006301e13380826124389190614455565b90506000612461866000015187602001516000896040015187878c60a001518d60c0015161298c565b90506000604051806101e00160405280868152602001886000015181526020018860200151815260200160008152602001886040015181526020018581526020018481526020018860e0015181526020018861010001518152602001600160038111156124f7577f4e487b7100000000000000000000000000000000000000000000000000000000600052602160045260246000fd5b815260200188606001518152602001886080015181526020018860a0015181526020018381526020018860c0015181525090508060056000878152602001908152602001600020600082015181600001556020820151816001019080519060200190612564929190612a82565b5060408201518160020155606082015181600301556080820151816004019080519060200190612595929190612a82565b5060a0820151816005015560c0820151816006015560e0820151816007015561010082015181600801556101208201518160090160006101000a81548160ff02191690836003811115612611577f4e487b7100000000000000000000000000000000000000000000000000000000600052602160045260246000fd5b021790555061014082015181600a019080519060200190612633929190612a82565b5061016082015181600b019080519060200190612651929190612a82565b5061018082015181600c01908051906020019061266f929190612a82565b506101a082015181600d01556101c082015181600e0155905050846006886000015160405161269e9190613d51565b9081526020016040518091039020819055506126f487602001516040518060400160405280600d81526020017f437265617465642042617463680000000000000000000000000000000000000081525087612782565b86602001517fdeefa9005c0b2a4c87816a4cfd8dd628befdc3610f42b4a21f338c62f4b119aa8660405161272891906142a6565b60405180910390a2847fcfc3a8401549578cdc3a4450882d09189a820561ebadb683b484bc6bd62dd4ef88600001518960200151600060405161276d93929190613e84565b60405180910390a28495505050505050919050565b600060405180608001604052804281526020018481526020018381526020018581525090506007600085815260200190815260200160002081908060018154018082558091505060019003906000526020600020906004020160009091909190915060008201518160000155602082015181600101908051906020019061280a929190612a82565b5060408201518160020155606082015181600301555050837fdeefa9005c0b2a4c87816a4cfd8dd628befdc3610f42b4a21f338c62f4b119aa8484604051612853929190613e54565b60405180910390a250505050565b60006040518060c00160405280428152602001868152602001858152602001848152602001838152602001878152509050600860008781526020019081526020016000208190806001815401808255809150506001900390600052602060002090600602016000909190919091506000820151816000015560208201518160010190805190602001906128f5929190612a82565b5060408201518160020155606082015181600301908051906020019061291c929190612a82565b506080820151816004019080519060200190612939929190612a82565b5060a082015181600501555050857f4db5e5735849a4ba3ae1b6c777186c74c21cc43151df42daac36b50a7cac5e9d8686868660405161297c9493929190613ec2565b60405180910390a2505050505050565b600088888888888888886040516020016129ad989796959493929190613d68565b60405160208183030381529060405280519060200120905098975050505050505050565b604051806101e0016040528060008152602001606081526020016000815260200160008152602001606081526020016000815260200160008152602001600081526020016000815260200160006003811115612a56577f4e487b7100000000000000000000000000000000000000000000000000000000600052602160045260246000fd5b815260200160608152602001606081526020016060815260200160008019168152602001600081525090565b828054612a8e90614544565b90600052602060002090601f016020900481019282612ab05760008555612af7565b82601f10612ac957805160ff1916838001178555612af7565b82800160010185558215612af7579182015b82811115612af6578251825591602001919060010190612adb565b5b509050612b049190612b08565b5090565b5b80821115612b21576000816000905550600101612b09565b5090565b6000612b38612b3384614342565b614311565b905082815260208101848484011115612b5057600080fd5b612b5b848285614502565b509392505050565b600081359050612b72816146aa565b92915050565b600081359050612b87816146c1565b92915050565b600082601f830112612b9e57600080fd5b8135612bae848260208601612b25565b91505092915050565b600081359050612bc6816146d1565b92915050565b600060208284031215612bde57600080fd5b600082013567ffffffffffffffff811115612bf857600080fd5b612c0484828501612b8d565b91505092915050565b60008060008060008060008060006101208a8c031215612c2c57600080fd5b60008a013567ffffffffffffffff811115612c4657600080fd5b612c528c828d01612b8d565b9950506020612c638c828d01612bb7565b98505060408a013567ffffffffffffffff811115612c8057600080fd5b612c8c8c828d01612b8d565b97505060608a013567ffffffffffffffff811115612ca957600080fd5b612cb58c828d01612b8d565b96505060808a013567ffffffffffffffff811115612cd257600080fd5b612cde8c828d01612b8d565b95505060a08a013567ffffffffffffffff811115612cfb57600080fd5b612d078c828d01612b8d565b94505060c0612d188c828d01612bb7565b93505060e0612d298c828d01612bb7565b925050610100612d3b8c828d01612bb7565b9150509295985092959850929598565b600060208284031215612d5d57600080fd5b6000612d6b84828501612bb7565b91505092915050565b60008060408385031215612d8757600080fd5b6000612d9585828601612bb7565b9250506020612da685828601612b63565b9150509250929050565b60008060408385031215612dc357600080fd5b6000612dd185828601612bb7565b9250506020612de285828601612b78565b9150509250929050565b60008060008060808587031215612e0257600080fd5b6000612e1087828801612bb7565b945050602085013567ffffffffffffffff811115612e2d57600080fd5b612e3987828801612b8d565b935050604085013567ffffffffffffffff811115612e5657600080fd5b612e6287828801612b8d565b925050606085013567ffffffffffffffff811115612e7f57600080fd5b612e8b87828801612b8d565b91505092959194509250565b60008060008060808587031215612ead57600080fd5b6000612ebb87828801612bb7565b945050602085013567ffffffffffffffff811115612ed857600080fd5b612ee487828801612b8d565b935050604085013567ffffffffffffffff811115612f0157600080fd5b612f0d87828801612b8d565b9250506060612f1e87828801612bb7565b91505092959194509250565b60008060408385031215612f3d57600080fd5b6000612f4b85828601612bb7565b9250506020612f5c85828601612bb7565b9150509250929050565b60008060008060808587031215612f7c57600080fd5b6000612f8a87828801612bb7565b9450506020612f9b87828801612bb7565b9350506040612fac87828801612bb7565b9250506060612fbd87828801612bb7565b91505092959194509250565b6000612fd58383613c22565b905092915050565b6000612fe98383613c85565b905092915050565b6000612ffd8383613d1c565b60208301905092915050565b6000613014826143a2565b61301e81856143f5565b93508360208202850161303085614372565b8060005b8581101561306c578484038952815161304d8582612fc9565b9450613058836143ce565b925060208a01995050600181019050613034565b50829750879550505050505092915050565b6000613089826143ad565b6130938185614406565b9350836020820285016130a585614382565b8060005b858110156130e157848403895281516130c28582612fdd565b94506130cd836143db565b925060208a019950506001810190506130a9565b50829750879550505050505092915050565b60006130fe826143b8565b6131088185614417565b935061311383614392565b8060005b8381101561314457815161312b8882612ff1565b9750613136836143e8565b925050600181019050613117565b5085935050505092915050565b61315a816144b7565b82525050565b613169816144de565b82525050565b613178816144f0565b82525050565b6000613189826143c3565b6131938185614428565b93506131a3818560208601614511565b6131ac81614685565b840191505092915050565b60006131c2826143c3565b6131cc8185614439565b93506131dc818560208601614511565b6131e581614685565b840191505092915050565b60006131fb826143c3565b613205818561444a565b9350613215818560208601614511565b80840191505092915050565b600061322e602d83614439565b91507f4e6f7420617574686f72697a656420746f20616464206163746976697479206660008301527f6f722074686973206261746368000000000000000000000000000000000000006020830152604082019050919050565b6000613294602983614439565b91507f43616e206f6e6c792075706461746520737461747573206f662070656e64696e60008301527f67206261746368657300000000000000000000000000000000000000000000006020830152604082019050919050565b60006132fa601483614439565b91507f55706461746564204261746368205374617475730000000000000000000000006000830152602082019050919050565b600061333a601483614439565b91507f5570646174656420426174636820496d616765730000000000000000000000006000830152602082019050919050565b600061337a601483614439565b91507f426174636820646f6573206e6f742065786973740000000000000000000000006000830152602082019050919050565b60006133ba602283614439565b91507f53746172742064617465206d757374206265206265666f726520656e6420646160008301527f74650000000000000000000000000000000000000000000000000000000000006020830152604082019050919050565b6000613420601683614439565b91507f53746172742064617465206973207265717569726564000000000000000000006000830152602082019050919050565b6000613460601883614439565b91507f50726f64756374204944206d7573742062652076616c696400000000000000006000830152602082019050919050565b60006134a0601383614439565b91507f55706461746564204261746368204461746573000000000000000000000000006000830152602082019050919050565b60006134e0601383614439565b91507f5353434320616c726561647920657869737473000000000000000000000000006000830152602082019050919050565b6000613520602583614439565b91507f4f6e6c792070726f64756365722063616e20706572666f726d2074686973206160008301527f6374696f6e0000000000000000000000000000000000000000000000000000006020830152604082019050919050565b6000613586601a83614439565b91507f5175616e74697479206d757374206e6f7420626520656d7074790000000000006000830152602082019050919050565b60006135c6601c83614439565b91507f4661726d20706c6f74206e756d626572206973207265717569726564000000006000830152602082019050919050565b6000613606601f83614439565b91507f53534343206d7573742062652031382063686172616374657273206c6f6e67006000830152602082019050919050565b6000613646602883614439565b91507f43616e206f6e6c7920757064617465206461746573206f662070656e64696e6760008301527f20626174636865730000000000000000000000000000000000000000000000006020830152604082019050919050565b60006136ac602283614439565b91507f4f6e6c792061646d696e2063616e20706572666f726d2074686973206163746960008301527f6f6e0000000000000000000000000000000000000000000000000000000000006020830152604082019050919050565b6000613712602383614439565b91507f4e6f7420617574686f72697a656420746f20757064617465207468697320626160008301527f74636800000000000000000000000000000000000000000000000000000000006020830152604082019050919050565b6000613778601d83614439565b91507f4261746368206973206e6f742070656e64696e6720617070726f76616c0000006000830152602082019050919050565b60006137b8603383614439565b91507f417070726f766572206d75737420626520696e207468652073616d652072656760008301527f696f6e206173207468652070726f6475636572000000000000000000000000006020830152604082019050919050565b600061381e602083614439565b91507f50726f64756365724964206d757374206d61746368207468652063616c6c65726000830152602082019050919050565b600061385e602583614439565b91507f4f6e6c7920617070726f7665722063616e20706572666f726d2074686973206160008301527f6374696f6e0000000000000000000000000000000000000000000000000000006020830152604082019050919050565b60006138c4601d83614439565b91507f50726f6475637420696d6167652055524c2069732072657175697265640000006000830152602082019050919050565b6000613904602983614439565b91507f43616e206f6e6c792075706461746520696d61676573206f662070656e64696e60008301527f67206261746368657300000000000000000000000000000000000000000000006020830152604082019050919050565b600061396a601483614439565b91507f456e6420646174652069732072657175697265640000000000000000000000006000830152602082019050919050565b60006139aa601283614439565b91507f436f6e74726163742069732070617573656400000000000000000000000000006000830152602082019050919050565b60006139ea601783614439565b91507f55736572206973206e6f7420616e20617070726f7665720000000000000000006000830152602082019050919050565b6000613a2a602183614439565b91507f436572746966696361746520696d6167652055524c206973207265717569726560008301527f64000000000000000000000000000000000000000000000000000000000000006020830152604082019050919050565b6000613a90600d83614439565b91507f43726561746564204261746368000000000000000000000000000000000000006000830152602082019050919050565b60006101e083016000830151613adc6000860182613d1c565b5060208301518482036020860152613af4828261317e565b9150506040830151613b096040860182613d1c565b506060830151613b1c6060860182613d1c565b5060808301518482036080860152613b34828261317e565b91505060a0830151613b4960a0860182613d1c565b5060c0830151613b5c60c0860182613d1c565b5060e0830151613b6f60e0860182613d1c565b50610100830151613b84610100860182613d1c565b50610120830151613b99610120860182613160565b50610140830151848203610140860152613bb3828261317e565b915050610160830151848203610160860152613bcf828261317e565b915050610180830151848203610180860152613beb828261317e565b9150506101a0830151613c026101a0860182613151565b506101c0830151613c176101c0860182613d1c565b508091505092915050565b6000608083016000830151613c3a6000860182613d1c565b5060208301518482036020860152613c52828261317e565b9150506040830151613c676040860182613d1c565b506060830151613c7a6060860182613d1c565b508091505092915050565b600060c083016000830151613c9d6000860182613d1c565b5060208301518482036020860152613cb5828261317e565b9150506040830151613cca6040860182613d1c565b5060608301518482036060860152613ce2828261317e565b91505060808301518482036080860152613cfc828261317e565b91505060a0830151613d1160a0860182613d1c565b508091505092915050565b613d25816144d4565b82525050565b613d34816144d4565b82525050565b613d4b613d46826144d4565b6145bf565b82525050565b6000613d5d82846131f0565b915081905092915050565b6000613d74828b6131f0565b9150613d80828a613d3a565b602082019150613d908289613d3a565b602082019150613da082886131f0565b9150613dac8287613d3a565b602082019150613dbc8286613d3a565b602082019150613dcc82856131f0565b9150613dd88284613d3a565b6020820191508190509998505050505050505050565b60006020820190508181036000830152613e088184613009565b905092915050565b60006020820190508181036000830152613e2a818461307e565b905092915050565b60006020820190508181036000830152613e4c81846130f3565b905092915050565b60006040820190508181036000830152613e6e81856131b7565b9050613e7d6020830184613d2b565b9392505050565b60006060820190508181036000830152613e9e81866131b7565b9050613ead6020830185613d2b565b613eba604083018461316f565b949350505050565b60006080820190508181036000830152613edc81876131b7565b9050613eeb6020830186613d2b565b8181036040830152613efd81856131b7565b90508181036060830152613f1181846131b7565b905095945050505050565b60006020820190508181036000830152613f3581613221565b9050919050565b60006020820190508181036000830152613f5581613287565b9050919050565b60006040820190508181036000830152613f75816132ed565b9050613f846020830184613d2b565b92915050565b60006040820190508181036000830152613fa38161332d565b9050613fb26020830184613d2b565b92915050565b60006020820190508181036000830152613fd18161336d565b9050919050565b60006020820190508181036000830152613ff1816133ad565b9050919050565b6000602082019050818103600083015261401181613413565b9050919050565b6000602082019050818103600083015261403181613453565b9050919050565b6000604082019050818103600083015261405181613493565b90506140606020830184613d2b565b92915050565b6000602082019050818103600083015261407f816134d3565b9050919050565b6000602082019050818103600083015261409f81613513565b9050919050565b600060208201905081810360008301526140bf81613579565b9050919050565b600060208201905081810360008301526140df816135b9565b9050919050565b600060208201905081810360008301526140ff816135f9565b9050919050565b6000602082019050818103600083015261411f81613639565b9050919050565b6000602082019050818103600083015261413f8161369f565b9050919050565b6000602082019050818103600083015261415f81613705565b9050919050565b6000602082019050818103600083015261417f8161376b565b9050919050565b6000602082019050818103600083015261419f816137ab565b9050919050565b600060208201905081810360008301526141bf81613811565b9050919050565b600060208201905081810360008301526141df81613851565b9050919050565b600060208201905081810360008301526141ff816138b7565b9050919050565b6000602082019050818103600083015261421f816138f7565b9050919050565b6000602082019050818103600083015261423f8161395d565b9050919050565b6000602082019050818103600083015261425f8161399d565b9050919050565b6000602082019050818103600083015261427f816139dd565b9050919050565b6000602082019050818103600083015261429f81613a1d565b9050919050565b600060408201905081810360008301526142bf81613a83565b90506142ce6020830184613d2b565b92915050565b600060208201905081810360008301526142ee8184613ac3565b905092915050565b600060208201905061430b6000830184613d2b565b92915050565b6000604051905081810181811067ffffffffffffffff8211171561433857614337614656565b5b8060405250919050565b600067ffffffffffffffff82111561435d5761435c614656565b5b601f19601f8301169050602081019050919050565b6000819050602082019050919050565b6000819050602082019050919050565b6000819050602082019050919050565b600081519050919050565b600081519050919050565b600081519050919050565b600081519050919050565b6000602082019050919050565b6000602082019050919050565b6000602082019050919050565b600082825260208201905092915050565b600082825260208201905092915050565b600082825260208201905092915050565b600082825260208201905092915050565b600082825260208201905092915050565b600081905092915050565b6000614460826144d4565b915061446b836144d4565b9250827fffffffffffffffffffffffffffffffffffffffffffffffffffffffffffffffff038211156144a05761449f6145c9565b5b828201905092915050565b60008115159050919050565b6000819050919050565b60008190506144cf82614696565b919050565b6000819050919050565b60006144e9826144c1565b9050919050565b60006144fb826144d4565b9050919050565b82818337600083830152505050565b60005b8381101561452f578082015181840152602081019050614514565b8381111561453e576000848401525b50505050565b6000600282049050600182168061455c57607f821691505b602082108114156145705761456f614627565b5b50919050565b6000614581826144d4565b91507fffffffffffffffffffffffffffffffffffffffffffffffffffffffffffffffff8214156145b4576145b36145c9565b5b600182019050919050565b6000819050919050565b7f4e487b7100000000000000000000000000000000000000000000000000000000600052601160045260246000fd5b7f4e487b7100000000000000000000000000000000000000000000000000000000600052602160045260246000fd5b7f4e487b7100000000000000000000000000000000000000000000000000000000600052602260045260246000fd5b7f4e487b7100000000000000000000000000000000000000000000000000000000600052604160045260246000fd5b6000601f19601f8301169050919050565b600481106146a7576146a66145f8565b5b50565b6146b3816144ab565b81146146be57600080fd5b50565b600481106146ce57600080fd5b50565b6146da816144d4565b81146146e557600080fd5b5056fea2646970667358221220bfe988e405d5abe46951c5583bcd309fab29e63e18a7ff13a4d0cf429287d3d264736f6c63430008000033",
  "immutableReferences": {},
  "source": "// SPDX-License-Identifier: MIT\r\npragma solidity ^0.8.0;\r\n\r\ncontract TraceabilityContract {\r\n    mapping(uint256 => bool) private _producers;\r\n    mapping(uint256 => bool) private _approvers;\r\n    uint256 private _admin;\r\n\r\n    bool private _paused;\r\n    uint256 private _batchIdCounter;\r\n\r\n    struct Batch {\r\n        uint256 batchId;\r\n        string sscc;\r\n        uint256 producerId;\r\n        uint256 approverId;\r\n        string quantity;\r\n        uint256 productionDate;\r\n        uint256 expiryDate;\r\n        uint256 startDate;\r\n        uint256 endDate;\r\n        BatchStatus status;\r\n        string productImageUrl;\r\n        string certificateImageUrl;\r\n        string farmPlotNumber;\r\n        bytes32 dataHash;\r\n        uint256 productId;\r\n    }\r\n\r\n    struct BatchParams {\r\n        string sscc;\r\n        uint256 producerId;\r\n        string quantity;\r\n        string productImageUrl;\r\n        string certificateImageUrl;\r\n        string farmPlotNumber;\r\n        uint256 productId;\r\n        uint256 startDate;\r\n        uint256 endDate;\r\n    }\r\n\r\n    enum BatchStatus { Created, PendingApproval, Approved, Rejected }\r\n\r\n    mapping(uint256 => Batch) private _batches;\r\n    mapping(string => uint256) private _ssccToBatchId;\r\n\r\n    enum ActivityType { SystemGenerated, UserGenerated }\r\n\r\n    struct SystemActivity {\r\n        uint256 timestamp;\r\n        string action;\r\n        uint256 batchId;\r\n        uint256 userId;\r\n    }\r\n\r\n    struct UserActivity {\r\n        uint256 timestamp;\r\n        string action;\r\n        uint256 batchId;\r\n        string details;\r\n        string imageHash;\r\n        uint256 userId;\r\n    }\r\n\r\n    mapping(uint256 => SystemActivity[]) private _systemActivities;\r\n    mapping(uint256 => UserActivity[]) private _userActivities;\r\n\r\n    event NewSystemActivity(uint256 indexed userId, string action, uint256 batchId);\r\n    event NewUserActivity(uint256 indexed userId, string action, uint256 batchId, string details, string imageHash);\r\n    event BatchCreated(uint256 indexed batchId, string sscc, uint256 producerId, uint256 approverId);\r\n\r\n    constructor() {\r\n        _admin = uint256(uint160(msg.sender));\r\n    }\r\n\r\n    modifier onlyAdmin() {\r\n        require(uint256(uint160(msg.sender)) == _admin, \"Only admin can perform this action\");\r\n        _;\r\n    }\r\n\r\n    modifier onlyProducer() {\r\n        require(_producers[uint256(uint160(msg.sender))], \"Only producer can perform this action\");\r\n        _;\r\n    }\r\n\r\n    modifier onlyApprover() {\r\n        require(_approvers[uint256(uint160(msg.sender))], \"Only approver can perform this action\");\r\n        _;\r\n    }\r\n\r\n    modifier whenNotPaused() {\r\n        require(!_paused, \"Contract is paused\");\r\n        _;\r\n    }\r\n\r\n    function createBatch(\r\n        string memory _sscc,\r\n        uint256 _producerId,\r\n        string memory _quantity,\r\n        string memory _productImageUrl,\r\n        string memory _certificateImageUrl,\r\n        string memory _farmPlotNumber,\r\n        uint256 _productId,\r\n        uint256 _startDate,\r\n        uint256 _endDate\r\n    ) public whenNotPaused returns (uint256) {\r\n        BatchParams memory params = BatchParams({\r\n            sscc: _sscc,\r\n            producerId: _producerId,\r\n            quantity: _quantity,\r\n            productImageUrl: _productImageUrl,\r\n            certificateImageUrl: _certificateImageUrl,\r\n            farmPlotNumber: _farmPlotNumber,\r\n            productId: _productId,\r\n            startDate: _startDate,\r\n            endDate: _endDate\r\n        });\r\n\r\n        return _createBatch(params);\r\n    }\r\n\r\n    function _createBatch(BatchParams memory params) private returns (uint256) {\r\n        require(bytes(params.sscc).length == 18, \"SSCC must be 18 characters long\");\r\n        require(_ssccToBatchId[params.sscc] == 0, \"SSCC already exists\");\r\n        require(bytes(params.quantity).length > 0, \"Quantity must not be empty\");\r\n        require(bytes(params.productImageUrl).length > 0, \"Product image URL is required\");\r\n        require(bytes(params.certificateImageUrl).length > 0, \"Certificate image URL is required\");\r\n        require(bytes(params.farmPlotNumber).length > 0, \"Farm plot number is required\");\r\n        require(params.productId > 0, \"Product ID must be valid\");\r\n        require(params.startDate > 0, \"Start date is required\");\r\n        require(params.endDate > 0, \"End date is required\");\r\n        require(params.startDate < params.endDate, \"Start date must be before end date\");\r\n\r\n        require(_producers[params.producerId], \"Only producer can perform this action\");\r\n        require(params.producerId == uint256(uint160(msg.sender)), \"ProducerId must match the caller\");\r\n\r\n        _batchIdCounter++;\r\n        uint256 newBatchId = _batchIdCounter;\r\n\r\n        uint256 productionDate = block.timestamp;\r\n        uint256 expiryDate = productionDate + 365 days;\r\n\r\n        bytes32 dataHash = _calculateDataHash(\r\n            params.sscc,\r\n            params.producerId,\r\n            0,\r\n            params.quantity,\r\n            productionDate,\r\n            expiryDate,\r\n            params.farmPlotNumber,\r\n            params.productId\r\n        );\r\n\r\n        Batch memory newBatch = Batch({\r\n            batchId: newBatchId,\r\n            sscc: params.sscc,\r\n            producerId: params.producerId,\r\n            approverId: 0,\r\n            quantity: params.quantity,\r\n            productionDate: productionDate,\r\n            expiryDate: expiryDate,\r\n            startDate: params.startDate,\r\n            endDate: params.endDate,\r\n            status: BatchStatus.PendingApproval,\r\n            productImageUrl: params.productImageUrl,\r\n            certificateImageUrl: params.certificateImageUrl,\r\n            farmPlotNumber: params.farmPlotNumber,\r\n            dataHash: dataHash,\r\n            productId: params.productId\r\n        });\r\n\r\n        _batches[newBatchId] = newBatch;\r\n        _ssccToBatchId[params.sscc] = newBatchId;\r\n\r\n        _logSystemActivity(params.producerId, \"Created Batch\", newBatchId);\r\n\r\n        emit NewSystemActivity(params.producerId, \"Created Batch\", newBatchId);\r\n        emit BatchCreated(newBatchId, params.sscc, params.producerId, 0);\r\n        return newBatchId;\r\n    }\r\n\r\n    function approveBatch(uint256 _batchId, bool _isApproved) public whenNotPaused onlyApprover {\r\n        require(_batches[_batchId].batchId != 0, \"Batch does not exist\");\r\n        require(_batches[_batchId].status == BatchStatus.PendingApproval, \"Batch is not pending approval\");\r\n\r\n        uint256 approverId = uint256(uint160(msg.sender));\r\n        uint256 producerId = _batches[_batchId].producerId;\r\n        \r\n        require(_userRegion[approverId] == _userRegion[producerId], \"Approver must be in the same region as the producer\");\r\n\r\n        _batches[_batchId].approverId = approverId;\r\n\r\n        if (_isApproved) {\r\n            _batches[_batchId].status = BatchStatus.Approved;\r\n        } else {\r\n            _batches[_batchId].status = BatchStatus.Rejected;\r\n        }\r\n\r\n        string memory action = _isApproved ? \"Approved Batch\" : \"Rejected Batch\";\r\n        _logSystemActivity(approverId, action, _batchId);\r\n\r\n        emit NewSystemActivity(approverId, action, _batchId);\r\n    }\r\n\r\n    function updateBatchStatus(uint256 _batchId, BatchStatus _newStatus) \r\n        public \r\n        whenNotPaused \r\n        onlyApprover\r\n    {\r\n        require(_batchId <= _batchIdCounter, \"Batch does not exist\");\r\n        require(_batches[_batchId].status == BatchStatus.PendingApproval, \"Can only update status of pending batches\");\r\n\r\n        _batches[_batchId].status = _newStatus;\r\n        emit NewSystemActivity(uint256(uint160(msg.sender)), \"Updated Batch Status\", _batchId);\r\n    }\r\n\r\n    function updateBatchImages(\r\n        uint256 _batchId, \r\n        string memory _newProductImageUrl, \r\n        string memory _newCertificateImageUrl,\r\n        uint256 _producerId\r\n    ) \r\n        public \r\n        whenNotPaused \r\n    {\r\n        require(_batchId <= _batchIdCounter, \"Batch does not exist\");\r\n        require(_batches[_batchId].status == BatchStatus.PendingApproval, \"Can only update images of pending batches\");\r\n        require(_batches[_batchId].producerId == _producerId, \"Not authorized to update this batch\");\r\n\r\n        _batches[_batchId].productImageUrl = _newProductImageUrl;\r\n        _batches[_batchId].certificateImageUrl = _newCertificateImageUrl;\r\n\r\n        _logSystemActivity(_producerId, \"Updated Batch Images\", _batchId);\r\n\r\n        emit NewSystemActivity(_producerId, \"Updated Batch Images\", _batchId);\r\n    }\r\n\r\n    function getBatchInfo(uint256 _batchId) public view returns (Batch memory) {\r\n        require(_batchId <= _batchIdCounter, \"Batch does not exist\");\r\n        return _batches[_batchId];\r\n    }\r\n\r\n    function getBatchIdBySSCC(string memory _sscc) public view returns (uint256) {\r\n        return _ssccToBatchId[_sscc];\r\n    }\r\n\r\n    function addProducer(uint256 producer) public onlyAdmin {\r\n        _producers[producer] = true;\r\n    }\r\n\r\n    function addApprover(uint256 approver) public onlyAdmin {\r\n        _approvers[approver] = true;\r\n    }\r\n\r\n    function pause() public onlyAdmin {\r\n        _paused = true;\r\n    }\r\n\r\n    function unpause() public onlyAdmin {\r\n        _paused = false;\r\n    }\r\n\r\n    function _calculateDataHash(\r\n        string memory _sscc,\r\n        uint256 _producerId,\r\n        uint256 _approverId,\r\n        string memory _quantity,\r\n        uint256 _productionDate,\r\n        uint256 _expiryDate,\r\n        string memory _farmPlotNumber,\r\n        uint256 _productId\r\n    ) private pure returns (bytes32) {\r\n        return keccak256(abi.encodePacked(_sscc, _producerId, _approverId, _quantity, _productionDate, _expiryDate, _farmPlotNumber, _productId));\r\n    }\r\n\r\n    function calculateDataHash(\r\n        string memory _sscc,\r\n        uint256 _producerId,\r\n        uint256 _approverId,\r\n        string memory _quantity,\r\n        uint256 _productionDate,\r\n        uint256 _expiryDate,\r\n        string memory _farmPlotNumber,\r\n        uint256 _productId\r\n    ) private pure returns (bytes32) {\r\n        return _calculateDataHash(_sscc, _producerId, _approverId, _quantity, _productionDate, _expiryDate, _farmPlotNumber, _productId);\r\n    }\r\n\r\n    function _logSystemActivity(uint256 userId, string memory action, uint256 batchId) private {\r\n        SystemActivity memory newActivity = SystemActivity({\r\n            timestamp: block.timestamp,\r\n            action: action,\r\n            batchId: batchId,\r\n            userId: userId\r\n        });\r\n        _systemActivities[userId].push(newActivity);\r\n        emit NewSystemActivity(userId, action, batchId);\r\n    }\r\n\r\n    function _logUserActivity(uint256 userId, string memory action, uint256 batchId, string memory details, string memory imageHash) private {\r\n        UserActivity memory newActivity = UserActivity({\r\n            timestamp: block.timestamp,\r\n            action: action,\r\n            batchId: batchId,\r\n            details: details,\r\n            imageHash: imageHash,\r\n            userId: userId\r\n        });\r\n        _userActivities[userId].push(newActivity);\r\n        emit NewUserActivity(userId, action, batchId, details, imageHash);\r\n    }\r\n\r\n    function getSystemActivities(uint256 userId) public view returns (SystemActivity[] memory) {\r\n        return _systemActivities[userId];\r\n    }\r\n\r\n    function getUserActivities(uint256 userId) public view returns (UserActivity[] memory) {\r\n        return _userActivities[userId];\r\n    }\r\n\r\n    function addProducerActivity(uint256 _batchId, string memory _action, string memory _details, string memory _imageHash) public whenNotPaused {\r\n        require(_batches[_batchId].batchId != 0, \"Batch does not exist\");\r\n        uint256 producerId = _batches[_batchId].producerId;\r\n        require(producerId == uint256(uint160(msg.sender)), \"Not authorized to add activity for this batch\");\r\n        \r\n        _logUserActivity(producerId, _action, _batchId, _details, _imageHash);\r\n    }\r\n\r\n    function getAdmin() public view returns (uint256) {\r\n        return _admin;\r\n    }\r\n\r\n    function getPendingBatches() public view onlyApprover returns (uint256[] memory) {\r\n        uint256[] memory pendingBatches = new uint256[](_batchIdCounter);\r\n        uint256 count = 0;\r\n        uint256 approverRegion = _userRegion[uint256(uint160(msg.sender))];\r\n        \r\n        for (uint256 i = 1; i <= _batchIdCounter; i++) {\r\n            if (_batches[i].status == BatchStatus.PendingApproval && \r\n                _userRegion[_batches[i].producerId] == approverRegion) {\r\n                pendingBatches[count] = i;\r\n                count++;\r\n            }\r\n        }\r\n        \r\n        assembly {\r\n            mstore(pendingBatches, count)\r\n        }\r\n        \r\n        return pendingBatches;\r\n    }\r\n\r\n    mapping(uint256 => uint256) private _userRegion;\r\n    mapping(uint256 => uint256[]) private _regionApprovers;\r\n\r\n    function setUserRegion(uint256 userId, uint256 regionId) public onlyAdmin {\r\n        _userRegion[userId] = regionId;\r\n    }\r\n\r\n    function addApproverToRegion(uint256 approverId, uint256 regionId) public onlyAdmin {\r\n        require(_approvers[approverId], \"User is not an approver\");\r\n        _userRegion[approverId] = regionId;\r\n        _regionApprovers[regionId].push(approverId);\r\n    }\r\n\r\n    function getRegionApprovers(uint256 regionId) public view returns (uint256[] memory) {\r\n        return _regionApprovers[regionId];\r\n    }\r\n\r\n    function updateBatchDates(\r\n        uint256 _batchId, \r\n        uint256 _newStartDate, \r\n        uint256 _newEndDate,\r\n        uint256 _producerId\r\n    ) public whenNotPaused {\r\n        require(_batchId <= _batchIdCounter, \"Batch does not exist\");\r\n        require(_batches[_batchId].status == BatchStatus.PendingApproval, \"Can only update dates of pending batches\");\r\n        require(_batches[_batchId].producerId == _producerId, \"Not authorized to update this batch\");\r\n        require(_newStartDate > 0, \"Start date is required\");\r\n        require(_newEndDate > 0, \"End date is required\");\r\n        require(_newStartDate < _newEndDate, \"Start date must be before end date\");\r\n\r\n        _batches[_batchId].startDate = _newStartDate;\r\n        _batches[_batchId].endDate = _newEndDate;\r\n\r\n        _logSystemActivity(_producerId, \"Updated Batch Dates\", _batchId);\r\n\r\n        emit NewSystemActivity(_producerId, \"Updated Batch Dates\", _batchId);\r\n    }\r\n}",
  "sourcePath": "D:\\projects\\nckh-be\\blockchain\\contracts\\supplychain.sol",
  "compiler": {
    "name": "solc",
    "version": "0.8.0+commit.c7dfd78e.Emscripten.clang"
  },
  "schemaVersion": "3.4.16",
  "updatedAt": "2024-09-01T14:08:05.876Z",
  "networkType": "ethereum",
  "devdoc": {
    "kind": "dev",
    "methods": {},
    "version": 1
  },
  "userdoc": {
    "kind": "user",
    "methods": {},
    "version": 1
  }
}