{
  "contractName": "TraceabilityContract",
  "abi": [
    {
      "anonymous": false,
      "inputs": [
        {
          "indexed": true,
          "internalType": "uint256",
          "name": "uid",
          "type": "uint256"
        },
        {
          "indexed": false,
          "internalType": "string",
          "name": "activityName",
          "type": "string"
        },
        {
          "indexed": false,
          "internalType": "string",
          "name": "description",
          "type": "string"
        },
        {
          "indexed": false,
          "internalType": "bool",
          "name": "isSystemGenerated",
          "type": "bool"
        },
        {
          "indexed": false,
          "internalType": "string[]",
          "name": "imageUrls",
          "type": "string[]"
        },
        {
          "indexed": false,
          "internalType": "uint256[]",
          "name": "relatedProductIds",
          "type": "uint256[]"
        }
      ],
      "name": "ActivityLogAdded",
      "type": "event"
    },
    {
      "anonymous": false,
      "inputs": [
        {
          "indexed": true,
          "internalType": "uint256",
          "name": "batchId",
          "type": "uint256"
        },
        {
          "indexed": true,
          "internalType": "uint256",
          "name": "producerId",
          "type": "uint256"
        },
        {
          "indexed": false,
          "internalType": "string",
          "name": "sscc",
          "type": "string"
        }
      ],
      "name": "BatchApproved",
      "type": "event"
    },
    {
      "anonymous": false,
      "inputs": [
        {
          "indexed": true,
          "internalType": "uint256",
          "name": "batchId",
          "type": "uint256"
        },
        {
          "indexed": true,
          "internalType": "uint256",
          "name": "producerId",
          "type": "uint256"
        },
        {
          "indexed": false,
          "internalType": "string",
          "name": "sscc",
          "type": "string"
        }
      ],
      "name": "BatchApprovedForQR",
      "type": "event"
    },
    {
      "anonymous": false,
      "inputs": [
        {
          "indexed": true,
          "internalType": "uint256",
          "name": "batchId",
          "type": "uint256"
        },
        {
          "indexed": false,
          "internalType": "string",
          "name": "sscc",
          "type": "string"
        },
        {
          "indexed": false,
          "internalType": "uint256",
          "name": "producerId",
          "type": "uint256"
        }
      ],
      "name": "BatchCreated",
      "type": "event"
    },
    {
      "anonymous": false,
      "inputs": [
        {
          "indexed": true,
          "internalType": "uint256",
          "name": "batchId",
          "type": "uint256"
        },
        {
          "indexed": false,
          "internalType": "enum TraceabilityContract.BatchStatus",
          "name": "newStatus",
          "type": "uint8"
        }
      ],
      "name": "BatchStatusUpdated",
      "type": "event"
    },
    {
      "inputs": [
        {
          "internalType": "string",
          "name": "_name",
          "type": "string"
        },
        {
          "internalType": "uint256",
          "name": "_producerId",
          "type": "uint256"
        },
        {
          "internalType": "string",
          "name": "_quantity",
          "type": "string"
        },
        {
          "internalType": "string[]",
          "name": "_productImageUrls",
          "type": "string[]"
        },
        {
          "internalType": "string",
          "name": "_certificateImageUrl",
          "type": "string"
        },
        {
          "internalType": "string",
          "name": "_farmPlotNumber",
          "type": "string"
        },
        {
          "internalType": "uint256",
          "name": "_productId",
          "type": "uint256"
        },
        {
          "internalType": "uint256",
          "name": "_startDate",
          "type": "uint256"
        },
        {
          "internalType": "uint256",
          "name": "_endDate",
          "type": "uint256"
        }
      ],
      "name": "createBatch",
      "outputs": [
        {
          "internalType": "uint256",
          "name": "",
          "type": "uint256"
        }
      ],
      "stateMutability": "nonpayable",
      "type": "function"
    },
    {
      "inputs": [
        {
          "internalType": "uint256",
          "name": "_uid",
          "type": "uint256"
        },
        {
          "internalType": "string",
          "name": "_activityName",
          "type": "string"
        },
        {
          "internalType": "string",
          "name": "_description",
          "type": "string"
        },
        {
          "internalType": "string[]",
          "name": "_imageUrls",
          "type": "string[]"
        },
        {
          "internalType": "uint256[]",
          "name": "_relatedProductIds",
          "type": "uint256[]"
        }
      ],
      "name": "addActivityLog",
      "outputs": [],
      "stateMutability": "nonpayable",
      "type": "function"
    },
    {
      "inputs": [
        {
          "internalType": "uint256",
          "name": "_uid",
          "type": "uint256"
        }
      ],
      "name": "getProducerActivityLogs",
      "outputs": [
        {
          "components": [
            {
              "internalType": "uint256",
              "name": "timestamp",
              "type": "uint256"
            },
            {
              "internalType": "uint256",
              "name": "uid",
              "type": "uint256"
            },
            {
              "internalType": "string",
              "name": "activityName",
              "type": "string"
            },
            {
              "internalType": "string",
              "name": "description",
              "type": "string"
            },
            {
              "internalType": "bool",
              "name": "isSystemGenerated",
              "type": "bool"
            },
            {
              "internalType": "string[]",
              "name": "imageUrls",
              "type": "string[]"
            },
            {
              "internalType": "uint256[]",
              "name": "relatedProductIds",
              "type": "uint256[]"
            }
          ],
          "internalType": "struct TraceabilityContract.ActivityLog[]",
          "name": "",
          "type": "tuple[]"
        }
      ],
      "stateMutability": "view",
      "type": "function",
      "constant": true
    },
    {
      "inputs": [
        {
          "internalType": "string",
          "name": "sscc",
          "type": "string"
        }
      ],
      "name": "ssccExists",
      "outputs": [
        {
          "internalType": "bool",
          "name": "",
          "type": "bool"
        }
      ],
      "stateMutability": "view",
      "type": "function",
      "constant": true
    },
    {
      "inputs": [
        {
          "internalType": "uint256",
          "name": "producerId",
          "type": "uint256"
        }
      ],
      "name": "getBatchesByProducer",
      "outputs": [
        {
          "components": [
            {
              "internalType": "uint256",
              "name": "batchId",
              "type": "uint256"
            },
            {
              "internalType": "string",
              "name": "name",
              "type": "string"
            },
            {
              "internalType": "string",
              "name": "sscc",
              "type": "string"
            },
            {
              "internalType": "uint256",
              "name": "producerId",
              "type": "uint256"
            },
            {
              "internalType": "string",
              "name": "quantity",
              "type": "string"
            },
            {
              "internalType": "uint256",
              "name": "productionDate",
              "type": "uint256"
            },
            {
              "internalType": "uint256",
              "name": "startDate",
              "type": "uint256"
            },
            {
              "internalType": "uint256",
              "name": "endDate",
              "type": "uint256"
            },
            {
              "internalType": "enum TraceabilityContract.BatchStatus",
              "name": "status",
              "type": "uint8"
            },
            {
              "internalType": "string[]",
              "name": "productImageUrls",
              "type": "string[]"
            },
            {
              "internalType": "string",
              "name": "certificateImageUrl",
              "type": "string"
            },
            {
              "internalType": "string",
              "name": "farmPlotNumber",
              "type": "string"
            },
            {
              "internalType": "bytes32",
              "name": "dataHash",
              "type": "bytes32"
            },
            {
              "internalType": "uint256",
              "name": "productId",
              "type": "uint256"
            }
          ],
          "internalType": "struct TraceabilityContract.Batch[]",
          "name": "",
          "type": "tuple[]"
        }
      ],
      "stateMutability": "view",
      "type": "function",
      "constant": true
    },
    {
      "inputs": [
        {
          "internalType": "uint256",
          "name": "_batchId",
          "type": "uint256"
        },
        {
          "internalType": "enum TraceabilityContract.BatchStatus",
          "name": "_newStatus",
          "type": "uint8"
        }
      ],
      "name": "updateBatchStatus",
      "outputs": [],
      "stateMutability": "nonpayable",
      "type": "function"
    },
    {
      "inputs": [
        {
          "internalType": "uint256",
          "name": "_producerId",
          "type": "uint256"
        }
      ],
      "name": "getPendingBatchesByProducer",
      "outputs": [
        {
          "components": [
            {
              "internalType": "uint256",
              "name": "batchId",
              "type": "uint256"
            },
            {
              "internalType": "string",
              "name": "name",
              "type": "string"
            },
            {
              "internalType": "string",
              "name": "sscc",
              "type": "string"
            },
            {
              "internalType": "uint256",
              "name": "producerId",
              "type": "uint256"
            },
            {
              "internalType": "string",
              "name": "quantity",
              "type": "string"
            },
            {
              "internalType": "uint256",
              "name": "productionDate",
              "type": "uint256"
            },
            {
              "internalType": "uint256",
              "name": "startDate",
              "type": "uint256"
            },
            {
              "internalType": "uint256",
              "name": "endDate",
              "type": "uint256"
            },
            {
              "internalType": "enum TraceabilityContract.BatchStatus",
              "name": "status",
              "type": "uint8"
            },
            {
              "internalType": "string[]",
              "name": "productImageUrls",
              "type": "string[]"
            },
            {
              "internalType": "string",
              "name": "certificateImageUrl",
              "type": "string"
            },
            {
              "internalType": "string",
              "name": "farmPlotNumber",
              "type": "string"
            },
            {
              "internalType": "bytes32",
              "name": "dataHash",
              "type": "bytes32"
            },
            {
              "internalType": "uint256",
              "name": "productId",
              "type": "uint256"
            }
          ],
          "internalType": "struct TraceabilityContract.Batch[]",
          "name": "",
          "type": "tuple[]"
        }
      ],
      "stateMutability": "view",
      "type": "function",
      "constant": true
    },
    {
      "inputs": [
        {
          "internalType": "uint256",
          "name": "_batchId",
          "type": "uint256"
        }
      ],
      "name": "getBatchDetails",
      "outputs": [
        {
          "components": [
            {
              "internalType": "uint256",
              "name": "batchId",
              "type": "uint256"
            },
            {
              "internalType": "string",
              "name": "name",
              "type": "string"
            },
            {
              "internalType": "string",
              "name": "sscc",
              "type": "string"
            },
            {
              "internalType": "uint256",
              "name": "producerId",
              "type": "uint256"
            },
            {
              "internalType": "string",
              "name": "quantity",
              "type": "string"
            },
            {
              "internalType": "uint256",
              "name": "productionDate",
              "type": "uint256"
            },
            {
              "internalType": "uint256",
              "name": "startDate",
              "type": "uint256"
            },
            {
              "internalType": "uint256",
              "name": "endDate",
              "type": "uint256"
            },
            {
              "internalType": "enum TraceabilityContract.BatchStatus",
              "name": "status",
              "type": "uint8"
            },
            {
              "internalType": "string[]",
              "name": "productImageUrls",
              "type": "string[]"
            },
            {
              "internalType": "string",
              "name": "certificateImageUrl",
              "type": "string"
            },
            {
              "internalType": "string",
              "name": "farmPlotNumber",
              "type": "string"
            },
            {
              "internalType": "bytes32",
              "name": "dataHash",
              "type": "bytes32"
            },
            {
              "internalType": "uint256",
              "name": "productId",
              "type": "uint256"
            }
          ],
          "internalType": "struct TraceabilityContract.Batch",
          "name": "",
          "type": "tuple"
        }
      ],
      "stateMutability": "view",
      "type": "function",
      "constant": true
    },
    {
      "inputs": [
        {
          "internalType": "string",
          "name": "_sscc",
          "type": "string"
        }
      ],
      "name": "getBatchBySSCC",
      "outputs": [
        {
          "components": [
            {
              "internalType": "uint256",
              "name": "batchId",
              "type": "uint256"
            },
            {
              "internalType": "string",
              "name": "name",
              "type": "string"
            },
            {
              "internalType": "string",
              "name": "sscc",
              "type": "string"
            },
            {
              "internalType": "uint256",
              "name": "producerId",
              "type": "uint256"
            },
            {
              "internalType": "string",
              "name": "quantity",
              "type": "string"
            },
            {
              "internalType": "uint256",
              "name": "productionDate",
              "type": "uint256"
            },
            {
              "internalType": "uint256",
              "name": "startDate",
              "type": "uint256"
            },
            {
              "internalType": "uint256",
              "name": "endDate",
              "type": "uint256"
            },
            {
              "internalType": "enum TraceabilityContract.BatchStatus",
              "name": "status",
              "type": "uint8"
            },
            {
              "internalType": "string[]",
              "name": "productImageUrls",
              "type": "string[]"
            },
            {
              "internalType": "string",
              "name": "certificateImageUrl",
              "type": "string"
            },
            {
              "internalType": "string",
              "name": "farmPlotNumber",
              "type": "string"
            },
            {
              "internalType": "bytes32",
              "name": "dataHash",
              "type": "bytes32"
            },
            {
              "internalType": "uint256",
              "name": "productId",
              "type": "uint256"
            }
          ],
          "internalType": "struct TraceabilityContract.Batch",
          "name": "",
          "type": "tuple"
        }
      ],
      "stateMutability": "view",
      "type": "function",
      "constant": true
    },
    {
      "inputs": [],
      "name": "getTotalBatches",
      "outputs": [
        {
          "internalType": "uint256",
          "name": "",
          "type": "uint256"
        }
      ],
      "stateMutability": "view",
      "type": "function",
      "constant": true
    },
    {
      "inputs": [
        {
          "internalType": "uint256",
          "name": "_batchId",
          "type": "uint256"
        },
        {
          "internalType": "uint256",
          "name": "_producerId",
          "type": "uint256"
        }
      ],
      "name": "isProducerOfBatch",
      "outputs": [
        {
          "internalType": "bool",
          "name": "",
          "type": "bool"
        }
      ],
      "stateMutability": "view",
      "type": "function",
      "constant": true
    },
    {
      "inputs": [
        {
          "internalType": "uint256",
          "name": "_uid",
          "type": "uint256"
        }
      ],
      "name": "getActivityLogs",
      "outputs": [
        {
          "components": [
            {
              "internalType": "uint256",
              "name": "timestamp",
              "type": "uint256"
            },
            {
              "internalType": "uint256",
              "name": "uid",
              "type": "uint256"
            },
            {
              "internalType": "string",
              "name": "activityName",
              "type": "string"
            },
            {
              "internalType": "string",
              "name": "description",
              "type": "string"
            },
            {
              "internalType": "bool",
              "name": "isSystemGenerated",
              "type": "bool"
            },
            {
              "internalType": "string[]",
              "name": "imageUrls",
              "type": "string[]"
            },
            {
              "internalType": "uint256[]",
              "name": "relatedProductIds",
              "type": "uint256[]"
            }
          ],
          "internalType": "struct TraceabilityContract.ActivityLog[]",
          "name": "",
          "type": "tuple[]"
        }
      ],
      "stateMutability": "view",
      "type": "function",
      "constant": true
    },
    {
      "inputs": [
        {
          "internalType": "uint256",
          "name": "_uid",
          "type": "uint256"
        }
      ],
      "name": "getActivityLogCount",
      "outputs": [
        {
          "internalType": "uint256",
          "name": "",
          "type": "uint256"
        }
      ],
      "stateMutability": "view",
      "type": "function",
      "constant": true
    },
    {
      "inputs": [
        {
          "internalType": "uint256",
          "name": "_batchId",
          "type": "uint256"
        }
      ],
      "name": "approveBatch",
      "outputs": [],
      "stateMutability": "nonpayable",
      "type": "function"
    },
    {
      "inputs": [
        {
          "internalType": "uint256",
          "name": "_batchId",
          "type": "uint256"
        }
      ],
      "name": "isBatchApproved",
      "outputs": [
        {
          "internalType": "bool",
          "name": "",
          "type": "bool"
        }
      ],
      "stateMutability": "view",
      "type": "function",
      "constant": true
    }
  ],
  "bytecode": "0x608060405234801561001057600080fd5b50614fed806100206000396000f3fe608060405234801561001057600080fd5b50600436106100f55760003560e01c806385bdd03f11610097578063dd235d9d11610066578063dd235d9d146102e2578063e561dddc146102fe578063f7f097f41461031c578063f9b8da0e1461034c576100f5565b806385bdd03f146102365780639d47dcc014610266578063bf193ffa14610296578063d9860bfc146102b2576100f5565b806336c701e1116100d357806336c701e11461018a57806347e2f863146101ba57806352c88f36146101ea57806380e32d4514610206576100f5565b806304008078146100fa5780630d82dcf41461012a5780630e6e369c1461015a575b600080fd5b610114600480360381019061010f919061327f565b61037c565b60405161012191906132e3565b60405180910390f35b610144600480360381019061013f9190613334565b6103a7565b60405161015191906132e3565b60405180910390f35b610174600480360381019061016f9190613334565b6103d1565b60405161018191906136e2565b60405180910390f35b6101a4600480360381019061019f91906137ea565b6106c7565b6040516101b1919061394f565b60405180910390f35b6101d460048036038101906101cf9190613334565b610739565b6040516101e19190613c0d565b60405180910390f35b61020460048036038101906101ff9190613c54565b610d59565b005b610220600480360381019061021b9190613334565b610e2c565b60405161022d9190613c0d565b60405180910390f35b610250600480360381019061024b9190613334565b6113a4565b60405161025d919061394f565b60405180910390f35b610280600480360381019061027b9190613334565b6113c4565b60405161028d9190613de5565b60405180910390f35b6102b060048036038101906102ab9190613eca565b61187f565b005b6102cc60048036038101906102c7919061327f565b6119db565b6040516102d99190613de5565b60405180910390f35b6102fc60048036038101906102f79190613334565b611ea4565b005b6103066121b1565b604051610313919061394f565b60405180910390f35b61033660048036038101906103319190613334565b6121ba565b60405161034391906136e2565b60405180910390f35b61036660048036038101906103619190613fb5565b6124b0565b60405161037391906132e3565b60405180910390f35b60008060028360405161038f9190614031565b90815260200160405180910390205414159050919050565b60006004600083815260200190815260200160002060009054906101000a900460ff169050919050565b606060036000838152602001908152602001600020805480602002602001604051908101604052809291908181526020016000905b828210156106bc57838290600052602060002090600702016040518060e0016040529081600082015481526020016001820154815260200160028201805461044d90614077565b80601f016020809104026020016040519081016040528092919081815260200182805461047990614077565b80156104c65780601f1061049b576101008083540402835291602001916104c6565b820191906000526020600020905b8154815290600101906020018083116104a957829003601f168201915b505050505081526020016003820180546104df90614077565b80601f016020809104026020016040519081016040528092919081815260200182805461050b90614077565b80156105585780601f1061052d57610100808354040283529160200191610558565b820191906000526020600020905b81548152906001019060200180831161053b57829003601f168201915b505050505081526020016004820160009054906101000a900460ff1615151515815260200160058201805480602002602001604051908101604052809291908181526020016000905b8282101561064d5783829060005260206000200180546105c090614077565b80601f01602080910402602001604051908101604052809291908181526020018280546105ec90614077565b80156106395780601f1061060e57610100808354040283529160200191610639565b820191906000526020600020905b81548152906001019060200180831161061c57829003601f168201915b5050505050815260200190600101906105a1565b505050508152602001600682018054806020026020016040519081016040528092919081815260200182805480156106a457602002820191906000526020600020905b815481526020019060010190808311610690575b50505050508152505081526020019060010190610406565b505050509050919050565b6000806106d38a6124d3565b905060006040518061014001604052808d81526020018381526020018c81526020018b81526020018a8152602001898152602001888152602001878152602001868152602001858152509050610728816125ce565b925050509998505050505050505050565b6060600080600190505b60005481116107df578360016000838152602001908152602001600020600301541480156107b85750600060028111156107805761077f613996565b5b6001600083815260200190815260200160002060080160009054906101000a900460ff1660028111156107b6576107b5613996565b5b145b156107cc5781806107c8906140d7565b9250505b80806107d7906140d7565b915050610743565b5060008167ffffffffffffffff8111156107fc576107fb613154565b5b60405190808252806020026020018201604052801561083557816020015b610822612f7a565b81526020019060019003908161081a5790505b509050600080600190505b6000548111610d4d578560016000838152602001908152602001600020600301541480156108b557506000600281111561087d5761087c613996565b5b6001600083815260200190815260200160002060080160009054906101000a900460ff1660028111156108b3576108b2613996565b5b145b15610d3a5760016000828152602001908152602001600020604051806101c0016040529081600082015481526020016001820180546108f390614077565b80601f016020809104026020016040519081016040528092919081815260200182805461091f90614077565b801561096c5780601f106109415761010080835404028352916020019161096c565b820191906000526020600020905b81548152906001019060200180831161094f57829003601f168201915b5050505050815260200160028201805461098590614077565b80601f01602080910402602001604051908101604052809291908181526020018280546109b190614077565b80156109fe5780601f106109d3576101008083540402835291602001916109fe565b820191906000526020600020905b8154815290600101906020018083116109e157829003601f168201915b5050505050815260200160038201548152602001600482018054610a2190614077565b80601f0160208091040260200160405190810160405280929190818152602001828054610a4d90614077565b8015610a9a5780601f10610a6f57610100808354040283529160200191610a9a565b820191906000526020600020905b815481529060010190602001808311610a7d57829003601f168201915b505050505081526020016005820154815260200160068201548152602001600782015481526020016008820160009054906101000a900460ff166002811115610ae657610ae5613996565b5b6002811115610af857610af7613996565b5b815260200160098201805480602002602001604051908101604052809291908181526020016000905b82821015610bcd578382906000526020600020018054610b4090614077565b80601f0160208091040260200160405190810160405280929190818152602001828054610b6c90614077565b8015610bb95780601f10610b8e57610100808354040283529160200191610bb9565b820191906000526020600020905b815481529060010190602001808311610b9c57829003601f168201915b505050505081526020019060010190610b21565b505050508152602001600a82018054610be590614077565b80601f0160208091040260200160405190810160405280929190818152602001828054610c1190614077565b8015610c5e5780601f10610c3357610100808354040283529160200191610c5e565b820191906000526020600020905b815481529060010190602001808311610c4157829003601f168201915b50505050508152602001600b82018054610c7790614077565b80601f0160208091040260200160405190810160405280929190818152602001828054610ca390614077565b8015610cf05780601f10610cc557610100808354040283529160200191610cf0565b820191906000526020600020905b815481529060010190602001808311610cd357829003601f168201915b50505050508152602001600c8201548152602001600d82015481525050838381518110610d2057610d1f61411f565b5b60200260200101819052508180610d36906140d7565b9250505b8080610d45906140d7565b915050610840565b50819350505050919050565b6000600160008481526020019081526020016000206000015403610db2576040517f08c379a0000000000000000000000000000000000000000000000000000000008152600401610da9906141ab565b60405180910390fd5b806001600084815260200190815260200160002060080160006101000a81548160ff02191690836002811115610deb57610dea613996565b5b0217905550817fcf4d4f3dcd5294f4d19269f489155c2187699f4a9fb9004b6a303752b00b282f82604051610e2091906141da565b60405180910390a25050565b6060600080600190505b6000548111610e7e5783600160008381526020019081526020016000206003015403610e6b578180610e67906140d7565b9250505b8080610e76906140d7565b915050610e36565b5060008167ffffffffffffffff811115610e9b57610e9a613154565b5b604051908082528060200260200182016040528015610ed457816020015b610ec1612f7a565b815260200190600190039081610eb95790505b509050600080600190505b600054811161139857856001600083815260200190815260200160002060030154036113855760016000828152602001908152602001600020604051806101c001604052908160008201548152602001600182018054610f3e90614077565b80601f0160208091040260200160405190810160405280929190818152602001828054610f6a90614077565b8015610fb75780601f10610f8c57610100808354040283529160200191610fb7565b820191906000526020600020905b815481529060010190602001808311610f9a57829003601f168201915b50505050508152602001600282018054610fd090614077565b80601f0160208091040260200160405190810160405280929190818152602001828054610ffc90614077565b80156110495780601f1061101e57610100808354040283529160200191611049565b820191906000526020600020905b81548152906001019060200180831161102c57829003601f168201915b505050505081526020016003820154815260200160048201805461106c90614077565b80601f016020809104026020016040519081016040528092919081815260200182805461109890614077565b80156110e55780601f106110ba576101008083540402835291602001916110e5565b820191906000526020600020905b8154815290600101906020018083116110c857829003601f168201915b505050505081526020016005820154815260200160068201548152602001600782015481526020016008820160009054906101000a900460ff16600281111561113157611130613996565b5b600281111561114357611142613996565b5b815260200160098201805480602002602001604051908101604052809291908181526020016000905b8282101561121857838290600052602060002001805461118b90614077565b80601f01602080910402602001604051908101604052809291908181526020018280546111b790614077565b80156112045780601f106111d957610100808354040283529160200191611204565b820191906000526020600020905b8154815290600101906020018083116111e757829003601f168201915b50505050508152602001906001019061116c565b505050508152602001600a8201805461123090614077565b80601f016020809104026020016040519081016040528092919081815260200182805461125c90614077565b80156112a95780601f1061127e576101008083540402835291602001916112a9565b820191906000526020600020905b81548152906001019060200180831161128c57829003601f168201915b50505050508152602001600b820180546112c290614077565b80601f01602080910402602001604051908101604052809291908181526020018280546112ee90614077565b801561133b5780601f106113105761010080835404028352916020019161133b565b820191906000526020600020905b81548152906001019060200180831161131e57829003601f168201915b50505050508152602001600c8201548152602001600d8201548152505083838151811061136b5761136a61411f565b5b60200260200101819052508180611381906140d7565b9250505b8080611390906140d7565b915050610edf565b50819350505050919050565b600060036000838152602001908152602001600020805490509050919050565b6113cc612f7a565b6000600160008481526020019081526020016000206000015403611425576040517f08c379a000000000000000000000000000000000000000000000000000000000815260040161141c906141ab565b60405180910390fd5b60016000838152602001908152602001600020604051806101c00160405290816000820154815260200160018201805461145e90614077565b80601f016020809104026020016040519081016040528092919081815260200182805461148a90614077565b80156114d75780601f106114ac576101008083540402835291602001916114d7565b820191906000526020600020905b8154815290600101906020018083116114ba57829003601f168201915b505050505081526020016002820180546114f090614077565b80601f016020809104026020016040519081016040528092919081815260200182805461151c90614077565b80156115695780601f1061153e57610100808354040283529160200191611569565b820191906000526020600020905b81548152906001019060200180831161154c57829003601f168201915b505050505081526020016003820154815260200160048201805461158c90614077565b80601f01602080910402602001604051908101604052809291908181526020018280546115b890614077565b80156116055780601f106115da57610100808354040283529160200191611605565b820191906000526020600020905b8154815290600101906020018083116115e857829003601f168201915b505050505081526020016005820154815260200160068201548152602001600782015481526020016008820160009054906101000a900460ff16600281111561165157611650613996565b5b600281111561166357611662613996565b5b815260200160098201805480602002602001604051908101604052809291908181526020016000905b828210156117385783829060005260206000200180546116ab90614077565b80601f01602080910402602001604051908101604052809291908181526020018280546116d790614077565b80156117245780601f106116f957610100808354040283529160200191611724565b820191906000526020600020905b81548152906001019060200180831161170757829003601f168201915b50505050508152602001906001019061168c565b505050508152602001600a8201805461175090614077565b80601f016020809104026020016040519081016040528092919081815260200182805461177c90614077565b80156117c95780601f1061179e576101008083540402835291602001916117c9565b820191906000526020600020905b8154815290600101906020018083116117ac57829003601f168201915b50505050508152602001600b820180546117e290614077565b80601f016020809104026020016040519081016040528092919081815260200182805461180e90614077565b801561185b5780601f106118305761010080835404028352916020019161185b565b820191906000526020600020905b81548152906001019060200180831161183e57829003601f168201915b50505050508152602001600c8201548152602001600d820154815250509050919050565b60006040518060e00160405280428152602001878152602001868152602001858152602001600015158152602001848152602001838152509050600360008781526020019081526020016000208190806001815401808255809150506001900390600052602060002090600702016000909190919091506000820151816000015560208201518160010155604082015181600201908161191f91906143a1565b50606082015181600301908161193591906143a1565b5060808201518160040160006101000a81548160ff02191690831515021790555060a0820151816005019080519060200190611972929190612ffe565b5060c082015181600601908051906020019061198f929190613057565b505050857f0fb336061951903d147e6b93ba30f6d47839e02426fcd5ee1876873afe47bab38686600087876040516119cb9594939291906145a1565b60405180910390a2505050505050565b6119e3612f7a565b60006002836040516119f59190614031565b908152602001604051809103902054905060008103611a49576040517f08c379a0000000000000000000000000000000000000000000000000000000008152600401611a4090614682565b60405180910390fd5b60016000828152602001908152602001600020604051806101c001604052908160008201548152602001600182018054611a8290614077565b80601f0160208091040260200160405190810160405280929190818152602001828054611aae90614077565b8015611afb5780601f10611ad057610100808354040283529160200191611afb565b820191906000526020600020905b815481529060010190602001808311611ade57829003601f168201915b50505050508152602001600282018054611b1490614077565b80601f0160208091040260200160405190810160405280929190818152602001828054611b4090614077565b8015611b8d5780601f10611b6257610100808354040283529160200191611b8d565b820191906000526020600020905b815481529060010190602001808311611b7057829003601f168201915b5050505050815260200160038201548152602001600482018054611bb090614077565b80601f0160208091040260200160405190810160405280929190818152602001828054611bdc90614077565b8015611c295780601f10611bfe57610100808354040283529160200191611c29565b820191906000526020600020905b815481529060010190602001808311611c0c57829003601f168201915b505050505081526020016005820154815260200160068201548152602001600782015481526020016008820160009054906101000a900460ff166002811115611c7557611c74613996565b5b6002811115611c8757611c86613996565b5b815260200160098201805480602002602001604051908101604052809291908181526020016000905b82821015611d5c578382906000526020600020018054611ccf90614077565b80601f0160208091040260200160405190810160405280929190818152602001828054611cfb90614077565b8015611d485780601f10611d1d57610100808354040283529160200191611d48565b820191906000526020600020905b815481529060010190602001808311611d2b57829003601f168201915b505050505081526020019060010190611cb0565b505050508152602001600a82018054611d7490614077565b80601f0160208091040260200160405190810160405280929190818152602001828054611da090614077565b8015611ded5780601f10611dc257610100808354040283529160200191611ded565b820191906000526020600020905b815481529060010190602001808311611dd057829003601f168201915b50505050508152602001600b82018054611e0690614077565b80601f0160208091040260200160405190810160405280929190818152602001828054611e3290614077565b8015611e7f5780601f10611e5457610100808354040283529160200191611e7f565b820191906000526020600020905b815481529060010190602001808311611e6257829003601f168201915b50505050508152602001600c8201548152602001600d82015481525050915050919050565b6000600160008381526020019081526020016000206000015403611efd576040517f08c379a0000000000000000000000000000000000000000000000000000000008152600401611ef4906141ab565b60405180910390fd5b60006002811115611f1157611f10613996565b5b6001600083815260200190815260200160002060080160009054906101000a900460ff166002811115611f4757611f46613996565b5b14611f87576040517f08c379a0000000000000000000000000000000000000000000000000000000008152600401611f7e906146ee565b60405180910390fd5b600180600083815260200190815260200160002060080160006101000a81548160ff02191690836002811115611fc057611fbf613996565b5b021790555060016004600083815260200190815260200160002060006101000a81548160ff0219169083151502179055506001600082815260200190815260200160002060030154817f1a621270a25ae67b5e557b98be27914cd1de793b7ca49110be85cb5aaa169c9b6001600085815260200190815260200160002060020160405161204d9190614792565b60405180910390a36001600082815260200190815260200160002060030154817f309958f3629dbb8b1c3fb39cc2ffd4759c619a8c6c7927159d9e608c99ae4632600160008581526020019081526020016000206002016040516120b19190614792565b60405180910390a36000600167ffffffffffffffff8111156120d6576120d5613154565b5b6040519080825280602002602001820160405280156121045781602001602082028036833780820191505090505b50905060016000838152602001908152602001600020600d0154816000815181106121325761213161411f565b5b6020026020010181815250506121ad60016000848152602001908152602001600020600301546040518060400160405280600e81526020017f426174636820417070726f766564000000000000000000000000000000000000815250604051806060016040528060278152602001614f916027913984612b3e565b5050565b60008054905090565b606060036000838152602001908152602001600020805480602002602001604051908101604052809291908181526020016000905b828210156124a557838290600052602060002090600702016040518060e0016040529081600082015481526020016001820154815260200160028201805461223690614077565b80601f016020809104026020016040519081016040528092919081815260200182805461226290614077565b80156122af5780601f10612284576101008083540402835291602001916122af565b820191906000526020600020905b81548152906001019060200180831161229257829003601f168201915b505050505081526020016003820180546122c890614077565b80601f01602080910402602001604051908101604052809291908181526020018280546122f490614077565b80156123415780601f1061231657610100808354040283529160200191612341565b820191906000526020600020905b81548152906001019060200180831161232457829003601f168201915b505050505081526020016004820160009054906101000a900460ff1615151515815260200160058201805480602002602001604051908101604052809291908181526020016000905b828210156124365783829060005260206000200180546123a990614077565b80601f01602080910402602001604051908101604052809291908181526020018280546123d590614077565b80156124225780601f106123f757610100808354040283529160200191612422565b820191906000526020600020905b81548152906001019060200180831161240557829003601f168201915b50505050508152602001906001019061238a565b5050505081526020016006820180548060200260200160405190810160405280929190818152602001828054801561248d57602002820191906000526020600020905b815481526020019060010190808311612479575b505050505081525050815260200190600101906121ef565b505050509050919050565b600081600160008581526020019081526020016000206003015414905092915050565b606060006040518060400160405280600281526020017f30300000000000000000000000000000000000000000000000000000000000008152509050600061251a84612cec565b9050600042856040516020016125319291906147d5565b6040516020818303038152906040528051906020012060001c9050600061255782612cec565b9050600084848360405160200161257093929190614801565b6040516020818303038152906040529050600061258c82612e74565b905060008261259d8360ff16612cec565b6040516020016125ae929190614832565b604051602081830303815290604052905080975050505050505050919050565b600080600283602001516040516125e59190614031565b90815260200160405180910390205414612634576040517f08c379a000000000000000000000000000000000000000000000000000000000815260040161262b906148a2565b60405180910390fd5b60008260600151511161267c576040517f08c379a00000000000000000000000000000000000000000000000000000000081526004016126739061490e565b60405180910390fd5b6000826080015151116126c4576040517f08c379a00000000000000000000000000000000000000000000000000000000081526004016126bb906149a0565b60405180910390fd5b60008260a00151511161270c576040517f08c379a000000000000000000000000000000000000000000000000000000000815260040161270390614a32565b60405180910390fd5b60008260c001515111612754576040517f08c379a000000000000000000000000000000000000000000000000000000000815260040161274b90614a9e565b60405180910390fd5b60008260e001511161279b576040517f08c379a000000000000000000000000000000000000000000000000000000000815260040161279290614b0a565b60405180910390fd5b6000826101000151116127e3576040517f08c379a00000000000000000000000000000000000000000000000000000000081526004016127da90614b76565b60405180910390fd5b60008261012001511161282b576040517f08c379a000000000000000000000000000000000000000000000000000000000815260040161282290614be2565b60405180910390fd5b81610120015182610100015110612877576040517f08c379a000000000000000000000000000000000000000000000000000000000815260040161286e90614c74565b60405180910390fd5b6000826000015151116128bf576040517f08c379a00000000000000000000000000000000000000000000000000000000081526004016128b690614ce0565b60405180910390fd5b6000808154809291906128d1906140d7565b91905055506000805490506000429050600061290a856020015186604001518760600151858960c001518a60e001518b60000151612f38565b90506000604051806101c0016040528085815260200187600001518152602001876020015181526020018760400151815260200187606001518152602001848152602001876101000151815260200187610120015181526020016000600281111561297857612977613996565b5b8152602001876080015181526020018760a0015181526020018760c0015181526020018381526020018760e00151815250905080600160008681526020019081526020016000206000820151816000015560208201518160010190816129de91906143a1565b5060408201518160020190816129f491906143a1565b50606082015181600301556080820151816004019081612a1491906143a1565b5060a0820151816005015560c0820151816006015560e082015181600701556101008201518160080160006101000a81548160ff02191690836002811115612a5f57612a5e613996565b5b0217905550610120820151816009019080519060200190612a81929190612ffe565b5061014082015181600a019081612a9891906143a1565b5061016082015181600b019081612aaf91906143a1565b5061018082015181600c01556101a082015181600d01559050508360028760200151604051612ade9190614031565b908152602001604051809103902081905550837f58c168780de5fc719a1e7a85c7eca394e664c0e74b7c9ebc621f0b093112d04b87602001518860400151604051612b2a929190614d00565b60405180910390a283945050505050919050565b60008067ffffffffffffffff811115612b5a57612b59613154565b5b604051908082528060200260200182016040528015612b8d57816020015b6060815260200190600190039081612b785790505b50905060006040518060e001604052804281526020018781526020018681526020018581526020016001151581526020018381526020018481525090506003600087815260200190815260200160002081908060018154018082558091505060019003906000526020600020906007020160009091909190915060008201518160000155602082015181600101556040820151816002019081612c3091906143a1565b506060820151816003019081612c4691906143a1565b5060808201518160040160006101000a81548160ff02191690831515021790555060a0820151816005019080519060200190612c83929190612ffe565b5060c0820151816006019080519060200190612ca0929190613057565b505050857f0fb336061951903d147e6b93ba30f6d47839e02426fcd5ee1876873afe47bab3868660018688604051612cdc9594939291906145a1565b60405180910390a2505050505050565b606060008203612d33576040518060400160405280600181526020017f30000000000000000000000000000000000000000000000000000000000000008152509050612e6f565b600082905060005b60008214612d65578080612d4e906140d7565b915050600a82612d5e9190614d5f565b9150612d3b565b60008167ffffffffffffffff811115612d8157612d80613154565b5b6040519080825280601f01601f191660200182016040528015612db35781602001600182028036833780820191505090505b50905060008290505b60008614612e6757600181612dd19190614d90565b90506000600a8088612de39190614d5f565b612ded9190614dc4565b87612df89190614d90565b6030612e049190614e13565b905060008160f81b905080848481518110612e2257612e2161411f565b5b60200101907effffffffffffffffffffffffffffffffffffffffffffffffffffffffffffff1916908160001a905350600a88612e5e9190614d5f565b97505050612dbc565b819450505050505b919050565b6000808290506000805b8251811015612f045760006030848381518110612e9e57612e9d61411f565b5b602001015160f81c60f81b60f81c612eb69190614e48565b90506000600283612ec79190614e7d565b14612ed25780612ee0565b600381612edf9190614eae565b5b60ff1683612eee9190614eeb565b9250508080612efc906140d7565b915050612e7e565b506000600a8083612f159190614e7d565b600a612f219190614d90565b612f2b9190614e7d565b9050809350505050919050565b600087878787878787604051602001612f579796959493929190614f1f565b604051602081830303815290604052805190602001209050979650505050505050565b604051806101c00160405280600081526020016060815260200160608152602001600081526020016060815260200160008152602001600081526020016000815260200160006002811115612fd257612fd1613996565b5b815260200160608152602001606081526020016060815260200160008019168152602001600081525090565b828054828255906000526020600020908101928215613046579160200282015b8281111561304557825182908161303591906143a1565b509160200191906001019061301e565b5b50905061305391906130a4565b5090565b828054828255906000526020600020908101928215613093579160200282015b82811115613092578251825591602001919060010190613077565b5b5090506130a091906130c8565b5090565b5b808211156130c457600081816130bb91906130e5565b506001016130a5565b5090565b5b808211156130e15760008160009055506001016130c9565b5090565b5080546130f190614077565b6000825580601f106131035750613122565b601f01602090049060005260206000209081019061312191906130c8565b5b50565b6000604051905090565b600080fd5b600080fd5b600080fd5b600080fd5b6000601f19601f8301169050919050565b7f4e487b7100000000000000000000000000000000000000000000000000000000600052604160045260246000fd5b61318c82613143565b810181811067ffffffffffffffff821117156131ab576131aa613154565b5b80604052505050565b60006131be613125565b90506131ca8282613183565b919050565b600067ffffffffffffffff8211156131ea576131e9613154565b5b6131f382613143565b9050602081019050919050565b82818337600083830152505050565b600061322261321d846131cf565b6131b4565b90508281526020810184848401111561323e5761323d61313e565b5b613249848285613200565b509392505050565b600082601f83011261326657613265613139565b5b813561327684826020860161320f565b91505092915050565b6000602082840312156132955761329461312f565b5b600082013567ffffffffffffffff8111156132b3576132b2613134565b5b6132bf84828501613251565b91505092915050565b60008115159050919050565b6132dd816132c8565b82525050565b60006020820190506132f860008301846132d4565b92915050565b6000819050919050565b613311816132fe565b811461331c57600080fd5b50565b60008135905061332e81613308565b92915050565b60006020828403121561334a5761334961312f565b5b60006133588482850161331f565b91505092915050565b600081519050919050565b600082825260208201905092915050565b6000819050602082019050919050565b613396816132fe565b82525050565b600081519050919050565b600082825260208201905092915050565b60005b838110156133d65780820151818401526020810190506133bb565b60008484015250505050565b60006133ed8261339c565b6133f781856133a7565b93506134078185602086016133b8565b61341081613143565b840191505092915050565b613424816132c8565b82525050565b600081519050919050565b600082825260208201905092915050565b6000819050602082019050919050565b600061346283836133e2565b905092915050565b6000602082019050919050565b60006134828261342a565b61348c8185613435565b93508360208202850161349e85613446565b8060005b858110156134da57848403895281516134bb8582613456565b94506134c68361346a565b925060208a019950506001810190506134a2565b50829750879550505050505092915050565b600081519050919050565b600082825260208201905092915050565b6000819050602082019050919050565b6000613524838361338d565b60208301905092915050565b6000602082019050919050565b6000613548826134ec565b61355281856134f7565b935061355d83613508565b8060005b8381101561358e5781516135758882613518565b975061358083613530565b925050600181019050613561565b5085935050505092915050565b600060e0830160008301516135b3600086018261338d565b5060208301516135c6602086018261338d565b50604083015184820360408601526135de82826133e2565b915050606083015184820360608601526135f882826133e2565b915050608083015161360d608086018261341b565b5060a083015184820360a08601526136258282613477565b91505060c083015184820360c086015261363f828261353d565b9150508091505092915050565b6000613658838361359b565b905092915050565b6000602082019050919050565b600061367882613361565b613682818561336c565b9350836020820285016136948561337d565b8060005b858110156136d057848403895281516136b1858261364c565b94506136bc83613660565b925060208a01995050600181019050613698565b50829750879550505050505092915050565b600060208201905081810360008301526136fc818461366d565b905092915050565b600067ffffffffffffffff82111561371f5761371e613154565b5b602082029050602081019050919050565b600080fd5b600061374861374384613704565b6131b4565b9050808382526020820190506020840283018581111561376b5761376a613730565b5b835b818110156137b257803567ffffffffffffffff8111156137905761378f613139565b5b80860161379d8982613251565b8552602085019450505060208101905061376d565b5050509392505050565b600082601f8301126137d1576137d0613139565b5b81356137e1848260208601613735565b91505092915050565b60008060008060008060008060006101208a8c03121561380d5761380c61312f565b5b60008a013567ffffffffffffffff81111561382b5761382a613134565b5b6138378c828d01613251565b99505060206138488c828d0161331f565b98505060408a013567ffffffffffffffff81111561386957613868613134565b5b6138758c828d01613251565b97505060608a013567ffffffffffffffff81111561389657613895613134565b5b6138a28c828d016137bc565b96505060808a013567ffffffffffffffff8111156138c3576138c2613134565b5b6138cf8c828d01613251565b95505060a08a013567ffffffffffffffff8111156138f0576138ef613134565b5b6138fc8c828d01613251565b94505060c061390d8c828d0161331f565b93505060e061391e8c828d0161331f565b9250506101006139308c828d0161331f565b9150509295985092959850929598565b613949816132fe565b82525050565b60006020820190506139646000830184613940565b92915050565b600081519050919050565b600082825260208201905092915050565b6000819050602082019050919050565b7f4e487b7100000000000000000000000000000000000000000000000000000000600052602160045260246000fd5b600381106139d6576139d5613996565b5b50565b60008190506139e7826139c5565b919050565b60006139f7826139d9565b9050919050565b613a07816139ec565b82525050565b6000819050919050565b613a2081613a0d565b82525050565b60006101c083016000830151613a3f600086018261338d565b5060208301518482036020860152613a5782826133e2565b91505060408301518482036040860152613a7182826133e2565b9150506060830151613a86606086018261338d565b5060808301518482036080860152613a9e82826133e2565b91505060a0830151613ab360a086018261338d565b5060c0830151613ac660c086018261338d565b5060e0830151613ad960e086018261338d565b50610100830151613aee6101008601826139fe565b50610120830151848203610120860152613b088282613477565b915050610140830151848203610140860152613b2482826133e2565b915050610160830151848203610160860152613b4082826133e2565b915050610180830151613b57610180860182613a17565b506101a0830151613b6c6101a086018261338d565b508091505092915050565b6000613b838383613a26565b905092915050565b6000602082019050919050565b6000613ba38261396a565b613bad8185613975565b935083602082028501613bbf85613986565b8060005b85811015613bfb5784840389528151613bdc8582613b77565b9450613be783613b8b565b925060208a01995050600181019050613bc3565b50829750879550505050505092915050565b60006020820190508181036000830152613c278184613b98565b905092915050565b60038110613c3c57600080fd5b50565b600081359050613c4e81613c2f565b92915050565b60008060408385031215613c6b57613c6a61312f565b5b6000613c798582860161331f565b9250506020613c8a85828601613c3f565b9150509250929050565b60006101c083016000830151613cad600086018261338d565b5060208301518482036020860152613cc582826133e2565b91505060408301518482036040860152613cdf82826133e2565b9150506060830151613cf4606086018261338d565b5060808301518482036080860152613d0c82826133e2565b91505060a0830151613d2160a086018261338d565b5060c0830151613d3460c086018261338d565b5060e0830151613d4760e086018261338d565b50610100830151613d5c6101008601826139fe565b50610120830151848203610120860152613d768282613477565b915050610140830151848203610140860152613d9282826133e2565b915050610160830151848203610160860152613dae82826133e2565b915050610180830151613dc5610180860182613a17565b506101a0830151613dda6101a086018261338d565b508091505092915050565b60006020820190508181036000830152613dff8184613c94565b905092915050565b600067ffffffffffffffff821115613e2257613e21613154565b5b602082029050602081019050919050565b6000613e46613e4184613e07565b6131b4565b90508083825260208201905060208402830185811115613e6957613e68613730565b5b835b81811015613e925780613e7e888261331f565b845260208401935050602081019050613e6b565b5050509392505050565b600082601f830112613eb157613eb0613139565b5b8135613ec1848260208601613e33565b91505092915050565b600080600080600060a08688031215613ee657613ee561312f565b5b6000613ef48882890161331f565b955050602086013567ffffffffffffffff811115613f1557613f14613134565b5b613f2188828901613251565b945050604086013567ffffffffffffffff811115613f4257613f41613134565b5b613f4e88828901613251565b935050606086013567ffffffffffffffff811115613f6f57613f6e613134565b5b613f7b888289016137bc565b925050608086013567ffffffffffffffff811115613f9c57613f9b613134565b5b613fa888828901613e9c565b9150509295509295909350565b60008060408385031215613fcc57613fcb61312f565b5b6000613fda8582860161331f565b9250506020613feb8582860161331f565b9150509250929050565b600081905092915050565b600061400b8261339c565b6140158185613ff5565b93506140258185602086016133b8565b80840191505092915050565b600061403d8284614000565b915081905092915050565b7f4e487b7100000000000000000000000000000000000000000000000000000000600052602260045260246000fd5b6000600282049050600182168061408f57607f821691505b6020821081036140a2576140a1614048565b5b50919050565b7f4e487b7100000000000000000000000000000000000000000000000000000000600052601160045260246000fd5b60006140e2826132fe565b91507fffffffffffffffffffffffffffffffffffffffffffffffffffffffffffffffff8203614114576141136140a8565b5b600182019050919050565b7f4e487b7100000000000000000000000000000000000000000000000000000000600052603260045260246000fd5b600082825260208201905092915050565b7f426174636820646f6573206e6f74206578697374000000000000000000000000600082015250565b600061419560148361414e565b91506141a08261415f565b602082019050919050565b600060208201905081810360008301526141c481614188565b9050919050565b6141d4816139ec565b82525050565b60006020820190506141ef60008301846141cb565b92915050565b60008190508160005260206000209050919050565b60006020601f8301049050919050565b600082821b905092915050565b6000600883026142577fffffffffffffffffffffffffffffffffffffffffffffffffffffffffffffffff8261421a565b614261868361421a565b95508019841693508086168417925050509392505050565b6000819050919050565b600061429e614299614294846132fe565b614279565b6132fe565b9050919050565b6000819050919050565b6142b883614283565b6142cc6142c4826142a5565b848454614227565b825550505050565b600090565b6142e16142d4565b6142ec8184846142af565b505050565b5b81811015614310576143056000826142d9565b6001810190506142f2565b5050565b601f82111561435557614326816141f5565b61432f8461420a565b8101602085101561433e578190505b61435261434a8561420a565b8301826142f1565b50505b505050565b600082821c905092915050565b60006143786000198460080261435a565b1980831691505092915050565b60006143918383614367565b9150826002028217905092915050565b6143aa8261339c565b67ffffffffffffffff8111156143c3576143c2613154565b5b6143cd8254614077565b6143d8828285614314565b600060209050601f83116001811461440b57600084156143f9578287015190505b6144038582614385565b86555061446b565b601f198416614419866141f5565b60005b828110156144415784890151825560018201915060208501945060208101905061441c565b8683101561445e578489015161445a601f891682614367565b8355505b6001600288020188555050505b505050505050565b600061447e8261339c565b614488818561414e565b93506144988185602086016133b8565b6144a181613143565b840191505092915050565b600082825260208201905092915050565b60006144c88261342a565b6144d281856144ac565b9350836020820285016144e485613446565b8060005b8581101561452057848403895281516145018582613456565b945061450c8361346a565b925060208a019950506001810190506144e8565b50829750879550505050505092915050565b600082825260208201905092915050565b600061454e826134ec565b6145588185614532565b935061456383613508565b8060005b8381101561459457815161457b8882613518565b975061458683613530565b925050600181019050614567565b5085935050505092915050565b600060a08201905081810360008301526145bb8188614473565b905081810360208301526145cf8187614473565b90506145de60408301866132d4565b81810360608301526145f081856144bd565b905081810360808301526146048184614543565b90509695505050505050565b7f426174636820776974682074686973205353434320646f6573206e6f7420657860008201527f6973740000000000000000000000000000000000000000000000000000000000602082015250565b600061466c60238361414e565b915061467782614610565b604082019050919050565b6000602082019050818103600083015261469b8161465f565b9050919050565b7f4261746368206973206e6f742070656e64696e6720617070726f76616c000000600082015250565b60006146d8601d8361414e565b91506146e3826146a2565b602082019050919050565b60006020820190508181036000830152614707816146cb565b9050919050565b6000815461471b81614077565b614725818661414e565b94506001821660008114614740576001811461475657614789565b60ff198316865281151560200286019350614789565b61475f856141f5565b60005b8381101561478157815481890152600182019150602081019050614762565b808801955050505b50505092915050565b600060208201905081810360008301526147ac818461470e565b905092915050565b6000819050919050565b6147cf6147ca826132fe565b6147b4565b82525050565b60006147e182856147be565b6020820191506147f182846147be565b6020820191508190509392505050565b600061480d8286614000565b91506148198285614000565b91506148258284614000565b9150819050949350505050565b600061483e8285614000565b915061484a8284614000565b91508190509392505050565b7f5353434320616c72656164792065786973747300000000000000000000000000600082015250565b600061488c60138361414e565b915061489782614856565b602082019050919050565b600060208201905081810360008301526148bb8161487f565b9050919050565b7f5175616e74697479206d757374206e6f7420626520656d707479000000000000600082015250565b60006148f8601a8361414e565b9150614903826148c2565b602082019050919050565b60006020820190508181036000830152614927816148eb565b9050919050565b7f4174206c65617374206f6e652070726f6475637420696d6167652055524c206960008201527f7320726571756972656400000000000000000000000000000000000000000000602082015250565b600061498a602a8361414e565b91506149958261492e565b604082019050919050565b600060208201905081810360008301526149b98161497d565b9050919050565b7f436572746966696361746520696d6167652055524c206973207265717569726560008201527f6400000000000000000000000000000000000000000000000000000000000000602082015250565b6000614a1c60218361414e565b9150614a27826149c0565b604082019050919050565b60006020820190508181036000830152614a4b81614a0f565b9050919050565b7f4661726d20706c6f74206e756d62657220697320726571756972656400000000600082015250565b6000614a88601c8361414e565b9150614a9382614a52565b602082019050919050565b60006020820190508181036000830152614ab781614a7b565b9050919050565b7f50726f64756374204944206d7573742062652076616c69640000000000000000600082015250565b6000614af460188361414e565b9150614aff82614abe565b602082019050919050565b60006020820190508181036000830152614b2381614ae7565b9050919050565b7f5374617274206461746520697320726571756972656400000000000000000000600082015250565b6000614b6060168361414e565b9150614b6b82614b2a565b602082019050919050565b60006020820190508181036000830152614b8f81614b53565b9050919050565b7f456e642064617465206973207265717569726564000000000000000000000000600082015250565b6000614bcc60148361414e565b9150614bd782614b96565b602082019050919050565b60006020820190508181036000830152614bfb81614bbf565b9050919050565b7f53746172742064617465206d757374206265206265666f726520656e6420646160008201527f7465000000000000000000000000000000000000000000000000000000000000602082015250565b6000614c5e60228361414e565b9150614c6982614c02565b604082019050919050565b60006020820190508181036000830152614c8d81614c51565b9050919050565b7f4261746368206e616d65206d757374206e6f7420626520656d70747900000000600082015250565b6000614cca601c8361414e565b9150614cd582614c94565b602082019050919050565b60006020820190508181036000830152614cf981614cbd565b9050919050565b60006040820190508181036000830152614d1a8185614473565b9050614d296020830184613940565b9392505050565b7f4e487b7100000000000000000000000000000000000000000000000000000000600052601260045260246000fd5b6000614d6a826132fe565b9150614d75836132fe565b925082614d8557614d84614d30565b5b828204905092915050565b6000614d9b826132fe565b9150614da6836132fe565b9250828203905081811115614dbe57614dbd6140a8565b5b92915050565b6000614dcf826132fe565b9150614dda836132fe565b9250828202614de8816132fe565b91508282048414831517614dff57614dfe6140a8565b5b5092915050565b600060ff82169050919050565b6000614e1e82614e06565b9150614e2983614e06565b9250828201905060ff811115614e4257614e416140a8565b5b92915050565b6000614e5382614e06565b9150614e5e83614e06565b9250828203905060ff811115614e7757614e766140a8565b5b92915050565b6000614e88826132fe565b9150614e93836132fe565b925082614ea357614ea2614d30565b5b828206905092915050565b6000614eb982614e06565b9150614ec483614e06565b9250828202614ed281614e06565b9150808214614ee457614ee36140a8565b5b5092915050565b6000614ef6826132fe565b9150614f01836132fe565b9250828201905080821115614f1957614f186140a8565b5b92915050565b6000614f2b828a614000565b9150614f3782896147be565b602082019150614f478288614000565b9150614f5382876147be565b602082019150614f638286614000565b9150614f6f82856147be565b602082019150614f7f8284614000565b91508190509897505050505050505056fe426174636820686173206265656e20617070726f7665642062792074686520617070726f766572a2646970667358221220c56060471f51cae330aee9ad0643f3988f8dcb6427615921a8555868afae7e8664736f6c63430008140033",
  "immutableReferences": {},
  "source": "// SPDX-License-Identifier: MIT\r\npragma solidity ^0.8.0;\r\n\r\ncontract TraceabilityContract {\r\n    uint256 private _batchIdCounter;\r\n\r\nenum BatchStatus { PendingApproval, Approved, Rejected }\r\n\r\n    struct Batch {\r\n        uint256 batchId;\r\n        string name;  // Thm trng tn l hng\r\n        string sscc;\r\n        uint256 producerId;\r\n        string quantity;\r\n        uint256 productionDate;\r\n        uint256 startDate;\r\n        uint256 endDate;\r\n        BatchStatus status;\r\n        string[] productImageUrls;\r\n        string certificateImageUrl;\r\n        string farmPlotNumber;\r\n        bytes32 dataHash;\r\n        uint256 productId;\r\n    }\r\n      struct ActivityLog {\r\n        uint256 timestamp;\r\n        uint256 uid;\r\n        string activityName;\r\n        string description;\r\n        bool isSystemGenerated;\r\n        string[] imageUrls;\r\n        uint256[] relatedProductIds;\r\n    }\r\n\r\n\r\n    mapping(uint256 => Batch) private _batches;\r\n    mapping(string => uint256) private _ssccToBatchId;\r\n        mapping(uint256 => ActivityLog[]) private _producerActivityLogs;\r\n    mapping(uint256 => bool) private _approvedBatches;\r\n    \r\n    event BatchApproved(uint256 indexed batchId, uint256 indexed producerId, string sscc);\r\n    event BatchApprovedForQR(uint256 indexed batchId, uint256 indexed producerId, string sscc);\r\n\r\n    event BatchCreated(uint256 indexed batchId, string sscc, uint256 producerId);\r\n    event ActivityLogAdded(\r\n        uint256 indexed uid,\r\n        string activityName,\r\n        string description,\r\n        bool isSystemGenerated,\r\n        string[] imageUrls,\r\n        uint256[] relatedProductIds\r\n    );\r\n\r\n    struct BatchParams {\r\n        string name;  // Thm trng tn l hng\r\n        string sscc;\r\n        uint256 producerId;\r\n        string quantity;\r\n        string[] productImageUrls;\r\n        string certificateImageUrl;\r\n        string farmPlotNumber;\r\n        uint256 productId;\r\n        uint256 startDate;\r\n        uint256 endDate;\r\n    }\r\n\r\n    function createBatch(\r\n        string memory _name,  // Thm tham s tn l hng\r\n        uint256 _producerId,\r\n        string memory _quantity,\r\n        string[] memory _productImageUrls,\r\n        string memory _certificateImageUrl,\r\n        string memory _farmPlotNumber,\r\n        uint256 _productId,\r\n        uint256 _startDate,\r\n        uint256 _endDate\r\n    ) public returns (uint256) {\r\n        string memory sscc = generateSSCC(_producerId);\r\n        BatchParams memory params = BatchParams({\r\n            name: _name,  // Thm tn l hng\r\n            sscc: sscc,\r\n            producerId: _producerId,\r\n            quantity: _quantity,\r\n            productImageUrls: _productImageUrls,\r\n            certificateImageUrl: _certificateImageUrl,\r\n            farmPlotNumber: _farmPlotNumber,\r\n            productId: _productId,\r\n            startDate: _startDate,\r\n            endDate: _endDate\r\n        });\r\n\r\n        return _createBatch(params);\r\n    }\r\n\r\n    function generateSSCC(uint256 _producerId) private view returns (string memory) {\r\n        string memory prefix = \"00\";\r\n        string memory companyPrefix = uint2str(_producerId);\r\n        uint256 serialNumber = uint256(keccak256(abi.encodePacked(block.timestamp, _producerId)));\r\n        string memory serialReference = uint2str(serialNumber);\r\n        \r\n        string memory ssccWithoutCheck = string(abi.encodePacked(prefix, companyPrefix, serialReference));\r\n        uint8 checkDigit = calculateCheckDigit(ssccWithoutCheck);\r\n        \r\n        string memory sscc = string(abi.encodePacked(ssccWithoutCheck, uint2str(uint256(checkDigit))));\r\n        \r\n        return sscc;\r\n    }\r\n\r\n    function calculateCheckDigit(string memory _code) private pure returns (uint8) {\r\n        bytes memory codeBytes = bytes(_code);\r\n        uint256 sum = 0;\r\n        for (uint256 i = 0; i < codeBytes.length; i++) {\r\n            uint8 digit = uint8(codeBytes[i]) - 48;\r\n            sum += (i % 2 == 0) ? digit * 3 : digit;\r\n        }\r\n        uint8 checkDigit = uint8((10 - (sum % 10)) % 10);\r\n        return checkDigit;\r\n    }\r\n\r\n    function uint2str(uint256 _i) private pure returns (string memory) {\r\n        if (_i == 0) {\r\n            return \"0\";\r\n        }\r\n        uint256 j = _i;\r\n        uint256 length;\r\n        while (j != 0) {\r\n            length++;\r\n            j /= 10;\r\n        }\r\n        bytes memory bstr = new bytes(length);\r\n        uint256 k = length;\r\n        while (_i != 0) {\r\n            k = k-1;\r\n            uint8 temp = (48 + uint8(_i - _i / 10 * 10));\r\n            bytes1 b1 = bytes1(temp);\r\n            bstr[k] = b1;\r\n            _i /= 10;\r\n        }\r\n        return string(bstr);\r\n    }\r\n\r\n    function _createBatch(BatchParams memory params) private returns (uint256) {\r\n        require(_ssccToBatchId[params.sscc] == 0, \"SSCC already exists\");\r\n        require(bytes(params.quantity).length > 0, \"Quantity must not be empty\");\r\n        require(params.productImageUrls.length > 0, \"At least one product image URL is required\");\r\n        require(bytes(params.certificateImageUrl).length > 0, \"Certificate image URL is required\");\r\n        require(bytes(params.farmPlotNumber).length > 0, \"Farm plot number is required\");\r\n        require(params.productId > 0, \"Product ID must be valid\");\r\n        require(params.startDate > 0, \"Start date is required\");\r\n        require(params.endDate > 0, \"End date is required\");\r\n        require(params.startDate < params.endDate, \"Start date must be before end date\");\r\n        require(bytes(params.name).length > 0, \"Batch name must not be empty\");\r\n\r\n        _batchIdCounter++;\r\n        uint256 newBatchId = _batchIdCounter;\r\n\r\n        uint256 productionDate = block.timestamp;\r\n\r\n        bytes32 dataHash = _calculateDataHash(\r\n            params.sscc,\r\n            params.producerId,\r\n            params.quantity,\r\n            productionDate,\r\n            params.farmPlotNumber,\r\n            params.productId,\r\n            params.name  // Thm tn l hng vo hm bm\r\n        );\r\n\r\n        Batch memory newBatch = Batch({\r\n            batchId: newBatchId,\r\n            name: params.name,  // Thm tn l hng\r\n            sscc: params.sscc,\r\n            producerId: params.producerId,\r\n            quantity: params.quantity,\r\n            productionDate: productionDate,\r\n            startDate: params.startDate,\r\n            endDate: params.endDate,\r\n            status: BatchStatus.PendingApproval,\r\n            productImageUrls: params.productImageUrls,\r\n            certificateImageUrl: params.certificateImageUrl,\r\n            farmPlotNumber: params.farmPlotNumber,\r\n            dataHash: dataHash,\r\n            productId: params.productId\r\n        });\r\n\r\n        _batches[newBatchId] = newBatch;\r\n        _ssccToBatchId[params.sscc] = newBatchId;\r\n\r\n        emit BatchCreated(newBatchId, params.sscc, params.producerId);\r\n        return newBatchId;\r\n    }\r\n    \r\n\r\n    function addActivityLog(\r\n        uint256 _uid,\r\n        string memory _activityName,\r\n        string memory _description,\r\n        string[] memory _imageUrls,\r\n        uint256[] memory _relatedProductIds\r\n    ) public {\r\n        ActivityLog memory newLog = ActivityLog({\r\n            timestamp: block.timestamp,\r\n            uid: _uid,\r\n            activityName: _activityName,\r\n            description: _description,\r\n            isSystemGenerated: false,\r\n            imageUrls: _imageUrls,\r\n            relatedProductIds: _relatedProductIds\r\n        });\r\n\r\n        _producerActivityLogs[_uid].push(newLog);\r\n        emit ActivityLogAdded(_uid, _activityName, _description, false, _imageUrls, _relatedProductIds);\r\n    }\r\n // Hm  ly nht k hot ng ca mt nh sn xut\r\n    function getProducerActivityLogs(uint256 _uid) public view returns (ActivityLog[] memory) {\r\n        return _producerActivityLogs[_uid];\r\n    }\r\n\r\n    \r\n    // Hm ni b  h thng t ng thm nht k\r\n    function _addSystemActivityLog(\r\n        uint256 _uid,\r\n        string memory _activityName,\r\n        string memory _description,\r\n        uint256[] memory _relatedProductIds\r\n    ) internal {\r\n        string[] memory emptyImageUrls = new string[](0);\r\n        ActivityLog memory newLog = ActivityLog({\r\n            timestamp: block.timestamp,\r\n            uid: _uid,\r\n            activityName: _activityName,\r\n            description: _description,\r\n            isSystemGenerated: true,\r\n            imageUrls: emptyImageUrls,\r\n            relatedProductIds: _relatedProductIds\r\n        });\r\n\r\n        _producerActivityLogs[_uid].push(newLog);\r\n        emit ActivityLogAdded(_uid, _activityName, _description, true, emptyImageUrls, _relatedProductIds);\r\n    }\r\n    \r\n    function _calculateDataHash(\r\n        string memory _sscc,\r\n        uint256 _producerId,\r\n        string memory _quantity,\r\n        uint256 _productionDate,\r\n        string memory _farmPlotNumber,\r\n        uint256 _productId,\r\n        string memory _name  // Thm tn l hng\r\n    ) private pure returns (bytes32) {\r\n        return keccak256(abi.encodePacked(_sscc, _producerId, _quantity, _productionDate, _farmPlotNumber, _productId, _name));\r\n    }\r\n    // hm kim tra sscc  tn ti hay cha \r\n    function ssccExists(string memory sscc) public view returns (bool) {\r\n        return _ssccToBatchId[sscc] != 0;\r\n    }\r\n\r\n    // Hm mi  ly danh sch cc l hng da trn producerId\r\n    function getBatchesByProducer(uint256 producerId) public view returns (Batch[] memory) {\r\n        uint256 count = 0;\r\n        for (uint256 i = 1; i <= _batchIdCounter; i++) {\r\n            if (_batches[i].producerId == producerId) {\r\n                count++;\r\n            }\r\n        }\r\n\r\n        Batch[] memory batches = new Batch[](count);\r\n        uint256 index = 0;\r\n        for (uint256 i = 1; i <= _batchIdCounter; i++) {\r\n            if (_batches[i].producerId == producerId) {\r\n                batches[index] = _batches[i];\r\n                index++;\r\n            }\r\n        }\r\n\r\n        return batches;\r\n    }\r\n\r\n    // hm cp nht trng thi l hng\r\nfunction updateBatchStatus(uint256 _batchId, BatchStatus _newStatus) public {\r\n    require(_batches[_batchId].batchId != 0, \"Batch does not exist\");\r\n    // Thm kim tra quyn nu cn\r\n    _batches[_batchId].status = _newStatus;\r\n    emit BatchStatusUpdated(_batchId, _newStatus);\r\n}\r\nfunction getPendingBatchesByProducer(uint256 _producerId) public view returns (Batch[] memory) {\r\n    uint256 pendingCount = 0;\r\n    for (uint256 i = 1; i <= _batchIdCounter; i++) {\r\n        if (_batches[i].producerId == _producerId && _batches[i].status == BatchStatus.PendingApproval) {\r\n            pendingCount++;\r\n        }\r\n    }\r\n\r\n    Batch[] memory pendingBatches = new Batch[](pendingCount);\r\n    uint256 index = 0;\r\n    for (uint256 i = 1; i <= _batchIdCounter; i++) {\r\n        if (_batches[i].producerId == _producerId && _batches[i].status == BatchStatus.PendingApproval) {\r\n            pendingBatches[index] = _batches[i];\r\n            index++;\r\n        }\r\n    }\r\n\r\n    return pendingBatches;\r\n}\r\n\r\nevent BatchStatusUpdated(uint256 indexed batchId, BatchStatus newStatus);\r\n\r\n// hm ly thng tin l hng\r\nfunction getBatchDetails(uint256 _batchId) public view returns (Batch memory) {\r\n    require(_batches[_batchId].batchId != 0, \"Batch does not exist\");\r\n    return _batches[_batchId];\r\n}\r\nfunction getBatchBySSCC(string memory _sscc) public view returns (Batch memory) {\r\n    uint256 batchId = _ssccToBatchId[_sscc];\r\n    require(batchId != 0, \"Batch with this SSCC does not exist\");\r\n    return _batches[batchId];\r\n}\r\n\r\nfunction getTotalBatches() public view returns (uint256) {\r\n    return _batchIdCounter;\r\n}\r\n\r\nfunction isProducerOfBatch(uint256 _batchId, uint256 _producerId) public view returns (bool) {\r\n    return _batches[_batchId].producerId == _producerId;\r\n}\r\n\r\n// Thm hm ny vo smart contract\r\nfunction getActivityLogs(uint256 _uid) public view returns (ActivityLog[] memory) {\r\n    return _producerActivityLogs[_uid];\r\n}\r\nfunction getActivityLogCount(uint256 _uid) public view returns (uint256) {\r\n    return _producerActivityLogs[_uid].length;\r\n}\r\n\r\nmodifier onlyApprover() {\r\n    // Implement logic to check if msg.sender is an approver\r\n    _;\r\n}\r\n\r\nfunction approveBatch(uint256 _batchId) public onlyApprover {\r\n    require(_batches[_batchId].batchId != 0, \"Batch does not exist\");\r\n    require(_batches[_batchId].status == BatchStatus.PendingApproval, \"Batch is not pending approval\");\r\n\r\n    _batches[_batchId].status = BatchStatus.Approved;\r\n    _approvedBatches[_batchId] = true;\r\n\r\n    emit BatchApproved(_batchId, _batches[_batchId].producerId, _batches[_batchId].sscc);\r\n    emit BatchApprovedForQR(_batchId, _batches[_batchId].producerId, _batches[_batchId].sscc);\r\n    \r\n    // Add system activity log\r\n    uint256[] memory relatedProductIds = new uint256[](1);\r\n    relatedProductIds[0] = _batches[_batchId].productId;\r\n    _addSystemActivityLog(_batches[_batchId].producerId, \"Batch Approved\", \"Batch has been approved by the approver\", relatedProductIds);\r\n}\r\n\r\nfunction isBatchApproved(uint256 _batchId) public view returns (bool) {\r\n    return _approvedBatches[_batchId];\r\n}\r\n\r\n}",
  "sourcePath": "D:\\projects\\nckh-be\\blockchain\\contracts\\supplychain.sol",
  "compiler": {
    "name": "solc",
    "version": "0.8.20+commit.a1b79de6.Emscripten.clang"
  },
  "schemaVersion": "3.4.16",
  "updatedAt": "2024-09-09T12:05:46.511Z",
  "networkType": "ethereum",
  "devdoc": {
    "kind": "dev",
    "methods": {},
    "version": 1
  },
  "userdoc": {
    "kind": "user",
    "methods": {},
    "version": 1
  }
}