{
  "contractName": "TraceabilityContract",
  "abi": [
    {
      "anonymous": false,
      "inputs": [
        {
          "indexed": true,
          "internalType": "uint256",
          "name": "uid",
          "type": "uint256"
        },
        {
          "indexed": false,
          "internalType": "string",
          "name": "activityName",
          "type": "string"
        },
        {
          "indexed": false,
          "internalType": "string",
          "name": "description",
          "type": "string"
        },
        {
          "indexed": false,
          "internalType": "bool",
          "name": "isSystemGenerated",
          "type": "bool"
        },
        {
          "indexed": false,
          "internalType": "string[]",
          "name": "imageUrls",
          "type": "string[]"
        },
        {
          "indexed": false,
          "internalType": "uint256[]",
          "name": "relatedProductIds",
          "type": "uint256[]"
        }
      ],
      "name": "ActivityLogAdded",
      "type": "event"
    },
    {
      "anonymous": false,
      "inputs": [
        {
          "indexed": true,
          "internalType": "uint256",
          "name": "batchId",
          "type": "uint256"
        },
        {
          "indexed": true,
          "internalType": "uint256",
          "name": "producerId",
          "type": "uint256"
        },
        {
          "indexed": false,
          "internalType": "string",
          "name": "sscc",
          "type": "string"
        }
      ],
      "name": "BatchApproved",
      "type": "event"
    },
    {
      "anonymous": false,
      "inputs": [
        {
          "indexed": true,
          "internalType": "uint256",
          "name": "batchId",
          "type": "uint256"
        },
        {
          "indexed": true,
          "internalType": "uint256",
          "name": "producerId",
          "type": "uint256"
        },
        {
          "indexed": false,
          "internalType": "string",
          "name": "sscc",
          "type": "string"
        }
      ],
      "name": "BatchApprovedForQR",
      "type": "event"
    },
    {
      "anonymous": false,
      "inputs": [
        {
          "indexed": true,
          "internalType": "uint256",
          "name": "batchId",
          "type": "uint256"
        },
        {
          "indexed": false,
          "internalType": "string",
          "name": "sscc",
          "type": "string"
        },
        {
          "indexed": false,
          "internalType": "uint256",
          "name": "producerId",
          "type": "uint256"
        }
      ],
      "name": "BatchCreated",
      "type": "event"
    },
    {
      "anonymous": false,
      "inputs": [
        {
          "indexed": true,
          "internalType": "uint256",
          "name": "batchId",
          "type": "uint256"
        },
        {
          "indexed": false,
          "internalType": "uint256",
          "name": "producerId",
          "type": "uint256"
        },
        {
          "indexed": false,
          "internalType": "string",
          "name": "sscc",
          "type": "string"
        }
      ],
      "name": "BatchRejected",
      "type": "event"
    },
    {
      "anonymous": false,
      "inputs": [
        {
          "indexed": true,
          "internalType": "uint256",
          "name": "batchId",
          "type": "uint256"
        },
        {
          "indexed": false,
          "internalType": "enum TraceabilityContract.BatchStatus",
          "name": "newStatus",
          "type": "uint8"
        }
      ],
      "name": "BatchStatusUpdated",
      "type": "event"
    },
    {
      "anonymous": false,
      "inputs": [
        {
          "indexed": true,
          "internalType": "uint256",
          "name": "batchId",
          "type": "uint256"
        },
        {
          "indexed": false,
          "internalType": "string",
          "name": "participantType",
          "type": "string"
        }
      ],
      "name": "LogParticipantType",
      "type": "event"
    },
    {
      "anonymous": false,
      "inputs": [
        {
          "indexed": true,
          "internalType": "uint256",
          "name": "batchId",
          "type": "uint256"
        },
        {
          "indexed": false,
          "internalType": "uint256",
          "name": "participantId",
          "type": "uint256"
        },
        {
          "indexed": false,
          "internalType": "string",
          "name": "participantType",
          "type": "string"
        },
        {
          "indexed": false,
          "internalType": "string",
          "name": "action",
          "type": "string"
        }
      ],
      "name": "ParticipationRecorded",
      "type": "event"
    },
    {
      "anonymous": false,
      "inputs": [
        {
          "indexed": true,
          "internalType": "uint256",
          "name": "batchId",
          "type": "uint256"
        },
        {
          "indexed": false,
          "internalType": "enum TraceabilityContract.DetailedTransportStatus",
          "name": "newStatus",
          "type": "uint8"
        },
        {
          "indexed": false,
          "internalType": "string",
          "name": "action",
          "type": "string"
        },
        {
          "indexed": false,
          "internalType": "uint256",
          "name": "participantId",
          "type": "uint256"
        },
        {
          "indexed": false,
          "internalType": "string",
          "name": "participantType",
          "type": "string"
        }
      ],
      "name": "TransportStatusUpdated",
      "type": "event"
    },
    {
      "anonymous": false,
      "inputs": [
        {
          "indexed": true,
          "internalType": "uint256",
          "name": "batchId",
          "type": "uint256"
        },
        {
          "indexed": false,
          "internalType": "uint256",
          "name": "warehouseId",
          "type": "uint256"
        }
      ],
      "name": "WarehouseConfirmed",
      "type": "event"
    },
    {
      "inputs": [
        {
          "internalType": "string",
          "name": "_name",
          "type": "string"
        },
        {
          "internalType": "uint256",
          "name": "_producerId",
          "type": "uint256"
        },
        {
          "internalType": "string",
          "name": "_quantity",
          "type": "string"
        },
        {
          "internalType": "string[]",
          "name": "_productImageUrls",
          "type": "string[]"
        },
        {
          "internalType": "string",
          "name": "_certificateImageUrl",
          "type": "string"
        },
        {
          "internalType": "string",
          "name": "_farmPlotNumber",
          "type": "string"
        },
        {
          "internalType": "uint256",
          "name": "_productId",
          "type": "uint256"
        },
        {
          "internalType": "uint256",
          "name": "_startDate",
          "type": "uint256"
        },
        {
          "internalType": "uint256",
          "name": "_endDate",
          "type": "uint256"
        }
      ],
      "name": "createBatch",
      "outputs": [
        {
          "internalType": "uint256",
          "name": "",
          "type": "uint256"
        }
      ],
      "stateMutability": "nonpayable",
      "type": "function"
    },
    {
      "inputs": [
        {
          "internalType": "uint256",
          "name": "_uid",
          "type": "uint256"
        },
        {
          "internalType": "string",
          "name": "_activityName",
          "type": "string"
        },
        {
          "internalType": "string",
          "name": "_description",
          "type": "string"
        },
        {
          "internalType": "string[]",
          "name": "_imageUrls",
          "type": "string[]"
        },
        {
          "internalType": "uint256[]",
          "name": "_relatedProductIds",
          "type": "uint256[]"
        }
      ],
      "name": "addActivityLog",
      "outputs": [],
      "stateMutability": "nonpayable",
      "type": "function"
    },
    {
      "inputs": [
        {
          "internalType": "uint256",
          "name": "_uid",
          "type": "uint256"
        }
      ],
      "name": "getProducerActivityLogs",
      "outputs": [
        {
          "components": [
            {
              "internalType": "uint256",
              "name": "timestamp",
              "type": "uint256"
            },
            {
              "internalType": "uint256",
              "name": "uid",
              "type": "uint256"
            },
            {
              "internalType": "string",
              "name": "activityName",
              "type": "string"
            },
            {
              "internalType": "string",
              "name": "description",
              "type": "string"
            },
            {
              "internalType": "bool",
              "name": "isSystemGenerated",
              "type": "bool"
            },
            {
              "internalType": "string[]",
              "name": "imageUrls",
              "type": "string[]"
            },
            {
              "internalType": "uint256[]",
              "name": "relatedProductIds",
              "type": "uint256[]"
            }
          ],
          "internalType": "struct TraceabilityContract.ActivityLog[]",
          "name": "",
          "type": "tuple[]"
        }
      ],
      "stateMutability": "view",
      "type": "function"
    },
    {
      "inputs": [
        {
          "internalType": "string",
          "name": "sscc",
          "type": "string"
        }
      ],
      "name": "ssccExists",
      "outputs": [
        {
          "internalType": "bool",
          "name": "",
          "type": "bool"
        }
      ],
      "stateMutability": "view",
      "type": "function"
    },
    {
      "inputs": [
        {
          "internalType": "uint256",
          "name": "producerId",
          "type": "uint256"
        }
      ],
      "name": "getBatchesByProducer",
      "outputs": [
        {
          "components": [
            {
              "internalType": "uint256",
              "name": "batchId",
              "type": "uint256"
            },
            {
              "internalType": "string",
              "name": "name",
              "type": "string"
            },
            {
              "internalType": "string",
              "name": "sscc",
              "type": "string"
            },
            {
              "internalType": "uint256",
              "name": "producerId",
              "type": "uint256"
            },
            {
              "internalType": "string",
              "name": "quantity",
              "type": "string"
            },
            {
              "internalType": "uint256",
              "name": "productionDate",
              "type": "uint256"
            },
            {
              "internalType": "uint256",
              "name": "startDate",
              "type": "uint256"
            },
            {
              "internalType": "uint256",
              "name": "endDate",
              "type": "uint256"
            },
            {
              "internalType": "enum TraceabilityContract.BatchStatus",
              "name": "status",
              "type": "uint8"
            },
            {
              "internalType": "string[]",
              "name": "productImageUrls",
              "type": "string[]"
            },
            {
              "internalType": "string",
              "name": "certificateImageUrl",
              "type": "string"
            },
            {
              "internalType": "string",
              "name": "farmPlotNumber",
              "type": "string"
            },
            {
              "internalType": "bytes32",
              "name": "dataHash",
              "type": "bytes32"
            },
            {
              "internalType": "uint256",
              "name": "productId",
              "type": "uint256"
            },
            {
              "internalType": "enum TraceabilityContract.TransportStatus",
              "name": "transportStatus",
              "type": "uint8"
            },
            {
              "internalType": "enum TraceabilityContract.DetailedTransportStatus",
              "name": "detailedTransportStatus",
              "type": "uint8"
            },
            {
              "internalType": "uint256",
              "name": "lastTransporterId",
              "type": "uint256"
            },
            {
              "internalType": "bool",
              "name": "warehouseConfirmed",
              "type": "bool"
            }
          ],
          "internalType": "struct TraceabilityContract.Batch[]",
          "name": "",
          "type": "tuple[]"
        }
      ],
      "stateMutability": "view",
      "type": "function"
    },
    {
      "inputs": [
        {
          "internalType": "uint256",
          "name": "_batchId",
          "type": "uint256"
        },
        {
          "internalType": "enum TraceabilityContract.BatchStatus",
          "name": "_newStatus",
          "type": "uint8"
        }
      ],
      "name": "updateBatchStatus",
      "outputs": [],
      "stateMutability": "nonpayable",
      "type": "function"
    },
    {
      "inputs": [
        {
          "internalType": "uint256",
          "name": "_producerId",
          "type": "uint256"
        }
      ],
      "name": "getPendingBatchesByProducer",
      "outputs": [
        {
          "components": [
            {
              "internalType": "uint256",
              "name": "batchId",
              "type": "uint256"
            },
            {
              "internalType": "string",
              "name": "name",
              "type": "string"
            },
            {
              "internalType": "string",
              "name": "sscc",
              "type": "string"
            },
            {
              "internalType": "uint256",
              "name": "producerId",
              "type": "uint256"
            },
            {
              "internalType": "string",
              "name": "quantity",
              "type": "string"
            },
            {
              "internalType": "uint256",
              "name": "productionDate",
              "type": "uint256"
            },
            {
              "internalType": "uint256",
              "name": "startDate",
              "type": "uint256"
            },
            {
              "internalType": "uint256",
              "name": "endDate",
              "type": "uint256"
            },
            {
              "internalType": "enum TraceabilityContract.BatchStatus",
              "name": "status",
              "type": "uint8"
            },
            {
              "internalType": "string[]",
              "name": "productImageUrls",
              "type": "string[]"
            },
            {
              "internalType": "string",
              "name": "certificateImageUrl",
              "type": "string"
            },
            {
              "internalType": "string",
              "name": "farmPlotNumber",
              "type": "string"
            },
            {
              "internalType": "bytes32",
              "name": "dataHash",
              "type": "bytes32"
            },
            {
              "internalType": "uint256",
              "name": "productId",
              "type": "uint256"
            },
            {
              "internalType": "enum TraceabilityContract.TransportStatus",
              "name": "transportStatus",
              "type": "uint8"
            },
            {
              "internalType": "enum TraceabilityContract.DetailedTransportStatus",
              "name": "detailedTransportStatus",
              "type": "uint8"
            },
            {
              "internalType": "uint256",
              "name": "lastTransporterId",
              "type": "uint256"
            },
            {
              "internalType": "bool",
              "name": "warehouseConfirmed",
              "type": "bool"
            }
          ],
          "internalType": "struct TraceabilityContract.Batch[]",
          "name": "",
          "type": "tuple[]"
        }
      ],
      "stateMutability": "view",
      "type": "function"
    },
    {
      "inputs": [
        {
          "internalType": "uint256",
          "name": "_producerId",
          "type": "uint256"
        }
      ],
      "name": "getRejectedBatchesByProducer",
      "outputs": [
        {
          "components": [
            {
              "internalType": "uint256",
              "name": "batchId",
              "type": "uint256"
            },
            {
              "internalType": "string",
              "name": "name",
              "type": "string"
            },
            {
              "internalType": "string",
              "name": "sscc",
              "type": "string"
            },
            {
              "internalType": "uint256",
              "name": "producerId",
              "type": "uint256"
            },
            {
              "internalType": "string",
              "name": "quantity",
              "type": "string"
            },
            {
              "internalType": "uint256",
              "name": "productionDate",
              "type": "uint256"
            },
            {
              "internalType": "uint256",
              "name": "startDate",
              "type": "uint256"
            },
            {
              "internalType": "uint256",
              "name": "endDate",
              "type": "uint256"
            },
            {
              "internalType": "enum TraceabilityContract.BatchStatus",
              "name": "status",
              "type": "uint8"
            },
            {
              "internalType": "string[]",
              "name": "productImageUrls",
              "type": "string[]"
            },
            {
              "internalType": "string",
              "name": "certificateImageUrl",
              "type": "string"
            },
            {
              "internalType": "string",
              "name": "farmPlotNumber",
              "type": "string"
            },
            {
              "internalType": "bytes32",
              "name": "dataHash",
              "type": "bytes32"
            },
            {
              "internalType": "uint256",
              "name": "productId",
              "type": "uint256"
            },
            {
              "internalType": "enum TraceabilityContract.TransportStatus",
              "name": "transportStatus",
              "type": "uint8"
            },
            {
              "internalType": "enum TraceabilityContract.DetailedTransportStatus",
              "name": "detailedTransportStatus",
              "type": "uint8"
            },
            {
              "internalType": "uint256",
              "name": "lastTransporterId",
              "type": "uint256"
            },
            {
              "internalType": "bool",
              "name": "warehouseConfirmed",
              "type": "bool"
            }
          ],
          "internalType": "struct TraceabilityContract.Batch[]",
          "name": "",
          "type": "tuple[]"
        }
      ],
      "stateMutability": "view",
      "type": "function"
    },
    {
      "inputs": [],
      "name": "getAllPendingBatches",
      "outputs": [
        {
          "components": [
            {
              "internalType": "uint256",
              "name": "batchId",
              "type": "uint256"
            },
            {
              "internalType": "string",
              "name": "name",
              "type": "string"
            },
            {
              "internalType": "string",
              "name": "sscc",
              "type": "string"
            },
            {
              "internalType": "uint256",
              "name": "producerId",
              "type": "uint256"
            },
            {
              "internalType": "string",
              "name": "quantity",
              "type": "string"
            },
            {
              "internalType": "uint256",
              "name": "productionDate",
              "type": "uint256"
            },
            {
              "internalType": "uint256",
              "name": "startDate",
              "type": "uint256"
            },
            {
              "internalType": "uint256",
              "name": "endDate",
              "type": "uint256"
            },
            {
              "internalType": "enum TraceabilityContract.BatchStatus",
              "name": "status",
              "type": "uint8"
            },
            {
              "internalType": "string[]",
              "name": "productImageUrls",
              "type": "string[]"
            },
            {
              "internalType": "string",
              "name": "certificateImageUrl",
              "type": "string"
            },
            {
              "internalType": "string",
              "name": "farmPlotNumber",
              "type": "string"
            },
            {
              "internalType": "bytes32",
              "name": "dataHash",
              "type": "bytes32"
            },
            {
              "internalType": "uint256",
              "name": "productId",
              "type": "uint256"
            },
            {
              "internalType": "enum TraceabilityContract.TransportStatus",
              "name": "transportStatus",
              "type": "uint8"
            },
            {
              "internalType": "enum TraceabilityContract.DetailedTransportStatus",
              "name": "detailedTransportStatus",
              "type": "uint8"
            },
            {
              "internalType": "uint256",
              "name": "lastTransporterId",
              "type": "uint256"
            },
            {
              "internalType": "bool",
              "name": "warehouseConfirmed",
              "type": "bool"
            }
          ],
          "internalType": "struct TraceabilityContract.Batch[]",
          "name": "",
          "type": "tuple[]"
        }
      ],
      "stateMutability": "view",
      "type": "function"
    },
    {
      "inputs": [
        {
          "internalType": "uint256",
          "name": "_batchId",
          "type": "uint256"
        }
      ],
      "name": "getBatchDetails",
      "outputs": [
        {
          "components": [
            {
              "internalType": "uint256",
              "name": "batchId",
              "type": "uint256"
            },
            {
              "internalType": "string",
              "name": "name",
              "type": "string"
            },
            {
              "internalType": "string",
              "name": "sscc",
              "type": "string"
            },
            {
              "internalType": "uint256",
              "name": "producerId",
              "type": "uint256"
            },
            {
              "internalType": "string",
              "name": "quantity",
              "type": "string"
            },
            {
              "internalType": "uint256",
              "name": "productionDate",
              "type": "uint256"
            },
            {
              "internalType": "uint256",
              "name": "startDate",
              "type": "uint256"
            },
            {
              "internalType": "uint256",
              "name": "endDate",
              "type": "uint256"
            },
            {
              "internalType": "enum TraceabilityContract.BatchStatus",
              "name": "status",
              "type": "uint8"
            },
            {
              "internalType": "string[]",
              "name": "productImageUrls",
              "type": "string[]"
            },
            {
              "internalType": "string",
              "name": "certificateImageUrl",
              "type": "string"
            },
            {
              "internalType": "string",
              "name": "farmPlotNumber",
              "type": "string"
            },
            {
              "internalType": "bytes32",
              "name": "dataHash",
              "type": "bytes32"
            },
            {
              "internalType": "uint256",
              "name": "productId",
              "type": "uint256"
            },
            {
              "internalType": "enum TraceabilityContract.TransportStatus",
              "name": "transportStatus",
              "type": "uint8"
            },
            {
              "internalType": "enum TraceabilityContract.DetailedTransportStatus",
              "name": "detailedTransportStatus",
              "type": "uint8"
            },
            {
              "internalType": "uint256",
              "name": "lastTransporterId",
              "type": "uint256"
            },
            {
              "internalType": "bool",
              "name": "warehouseConfirmed",
              "type": "bool"
            }
          ],
          "internalType": "struct TraceabilityContract.Batch",
          "name": "",
          "type": "tuple"
        }
      ],
      "stateMutability": "view",
      "type": "function"
    },
    {
      "inputs": [],
      "name": "getTotalBatches",
      "outputs": [
        {
          "internalType": "uint256",
          "name": "",
          "type": "uint256"
        }
      ],
      "stateMutability": "view",
      "type": "function"
    },
    {
      "inputs": [
        {
          "internalType": "uint256",
          "name": "_batchId",
          "type": "uint256"
        },
        {
          "internalType": "uint256",
          "name": "_producerId",
          "type": "uint256"
        }
      ],
      "name": "isProducerOfBatch",
      "outputs": [
        {
          "internalType": "bool",
          "name": "",
          "type": "bool"
        }
      ],
      "stateMutability": "view",
      "type": "function"
    },
    {
      "inputs": [
        {
          "internalType": "uint256",
          "name": "_uid",
          "type": "uint256"
        }
      ],
      "name": "getActivityLogs",
      "outputs": [
        {
          "components": [
            {
              "internalType": "uint256",
              "name": "timestamp",
              "type": "uint256"
            },
            {
              "internalType": "uint256",
              "name": "uid",
              "type": "uint256"
            },
            {
              "internalType": "string",
              "name": "activityName",
              "type": "string"
            },
            {
              "internalType": "string",
              "name": "description",
              "type": "string"
            },
            {
              "internalType": "bool",
              "name": "isSystemGenerated",
              "type": "bool"
            },
            {
              "internalType": "string[]",
              "name": "imageUrls",
              "type": "string[]"
            },
            {
              "internalType": "uint256[]",
              "name": "relatedProductIds",
              "type": "uint256[]"
            }
          ],
          "internalType": "struct TraceabilityContract.ActivityLog[]",
          "name": "",
          "type": "tuple[]"
        }
      ],
      "stateMutability": "view",
      "type": "function"
    },
    {
      "inputs": [
        {
          "internalType": "uint256",
          "name": "_uid",
          "type": "uint256"
        }
      ],
      "name": "getActivityLogCount",
      "outputs": [
        {
          "internalType": "uint256",
          "name": "",
          "type": "uint256"
        }
      ],
      "stateMutability": "view",
      "type": "function"
    },
    {
      "inputs": [
        {
          "internalType": "uint256",
          "name": "_batchId",
          "type": "uint256"
        }
      ],
      "name": "approveBatch",
      "outputs": [],
      "stateMutability": "nonpayable",
      "type": "function"
    },
    {
      "inputs": [
        {
          "internalType": "uint256",
          "name": "_batchId",
          "type": "uint256"
        }
      ],
      "name": "rejectBatch",
      "outputs": [],
      "stateMutability": "nonpayable",
      "type": "function"
    },
    {
      "inputs": [
        {
          "internalType": "uint256",
          "name": "_producerId",
          "type": "uint256"
        }
      ],
      "name": "getApprovedBatchesByProducer",
      "outputs": [
        {
          "components": [
            {
              "internalType": "uint256",
              "name": "batchId",
              "type": "uint256"
            },
            {
              "internalType": "string",
              "name": "name",
              "type": "string"
            },
            {
              "internalType": "string",
              "name": "sscc",
              "type": "string"
            },
            {
              "internalType": "uint256",
              "name": "producerId",
              "type": "uint256"
            },
            {
              "internalType": "string",
              "name": "quantity",
              "type": "string"
            },
            {
              "internalType": "uint256",
              "name": "productionDate",
              "type": "uint256"
            },
            {
              "internalType": "uint256",
              "name": "startDate",
              "type": "uint256"
            },
            {
              "internalType": "uint256",
              "name": "endDate",
              "type": "uint256"
            },
            {
              "internalType": "enum TraceabilityContract.BatchStatus",
              "name": "status",
              "type": "uint8"
            },
            {
              "internalType": "string[]",
              "name": "productImageUrls",
              "type": "string[]"
            },
            {
              "internalType": "string",
              "name": "certificateImageUrl",
              "type": "string"
            },
            {
              "internalType": "string",
              "name": "farmPlotNumber",
              "type": "string"
            },
            {
              "internalType": "bytes32",
              "name": "dataHash",
              "type": "bytes32"
            },
            {
              "internalType": "uint256",
              "name": "productId",
              "type": "uint256"
            },
            {
              "internalType": "enum TraceabilityContract.TransportStatus",
              "name": "transportStatus",
              "type": "uint8"
            },
            {
              "internalType": "enum TraceabilityContract.DetailedTransportStatus",
              "name": "detailedTransportStatus",
              "type": "uint8"
            },
            {
              "internalType": "uint256",
              "name": "lastTransporterId",
              "type": "uint256"
            },
            {
              "internalType": "bool",
              "name": "warehouseConfirmed",
              "type": "bool"
            }
          ],
          "internalType": "struct TraceabilityContract.Batch[]",
          "name": "",
          "type": "tuple[]"
        }
      ],
      "stateMutability": "view",
      "type": "function"
    },
    {
      "inputs": [
        {
          "internalType": "string",
          "name": "_sscc",
          "type": "string"
        }
      ],
      "name": "getBatchBySSCC",
      "outputs": [
        {
          "components": [
            {
              "internalType": "uint256",
              "name": "batchId",
              "type": "uint256"
            },
            {
              "internalType": "string",
              "name": "name",
              "type": "string"
            },
            {
              "internalType": "string",
              "name": "sscc",
              "type": "string"
            },
            {
              "internalType": "uint256",
              "name": "producerId",
              "type": "uint256"
            },
            {
              "internalType": "string",
              "name": "quantity",
              "type": "string"
            },
            {
              "internalType": "uint256",
              "name": "productionDate",
              "type": "uint256"
            },
            {
              "internalType": "uint256",
              "name": "startDate",
              "type": "uint256"
            },
            {
              "internalType": "uint256",
              "name": "endDate",
              "type": "uint256"
            },
            {
              "internalType": "enum TraceabilityContract.BatchStatus",
              "name": "status",
              "type": "uint8"
            },
            {
              "internalType": "string[]",
              "name": "productImageUrls",
              "type": "string[]"
            },
            {
              "internalType": "string",
              "name": "certificateImageUrl",
              "type": "string"
            },
            {
              "internalType": "string",
              "name": "farmPlotNumber",
              "type": "string"
            },
            {
              "internalType": "bytes32",
              "name": "dataHash",
              "type": "bytes32"
            },
            {
              "internalType": "uint256",
              "name": "productId",
              "type": "uint256"
            },
            {
              "internalType": "enum TraceabilityContract.TransportStatus",
              "name": "transportStatus",
              "type": "uint8"
            },
            {
              "internalType": "enum TraceabilityContract.DetailedTransportStatus",
              "name": "detailedTransportStatus",
              "type": "uint8"
            },
            {
              "internalType": "uint256",
              "name": "lastTransporterId",
              "type": "uint256"
            },
            {
              "internalType": "bool",
              "name": "warehouseConfirmed",
              "type": "bool"
            }
          ],
          "internalType": "struct TraceabilityContract.Batch",
          "name": "",
          "type": "tuple"
        }
      ],
      "stateMutability": "view",
      "type": "function"
    },
    {
      "inputs": [
        {
          "internalType": "string",
          "name": "_sscc",
          "type": "string"
        }
      ],
      "name": "isValidSSCC",
      "outputs": [
        {
          "internalType": "bool",
          "name": "",
          "type": "bool"
        }
      ],
      "stateMutability": "view",
      "type": "function"
    },
    {
      "inputs": [
        {
          "internalType": "uint256",
          "name": "_batchId",
          "type": "uint256"
        }
      ],
      "name": "isBatchApproved",
      "outputs": [
        {
          "internalType": "bool",
          "name": "",
          "type": "bool"
        }
      ],
      "stateMutability": "view",
      "type": "function"
    },
    {
      "inputs": [
        {
          "internalType": "uint256",
          "name": "_batchId",
          "type": "uint256"
        },
        {
          "internalType": "uint256",
          "name": "_participantId",
          "type": "uint256"
        },
        {
          "internalType": "string",
          "name": "_participantType",
          "type": "string"
        },
        {
          "internalType": "string",
          "name": "_action",
          "type": "string"
        }
      ],
      "name": "recordParticipation",
      "outputs": [],
      "stateMutability": "nonpayable",
      "type": "function"
    },
    {
      "inputs": [
        {
          "internalType": "uint256",
          "name": "_batchId",
          "type": "uint256"
        },
        {
          "internalType": "uint256",
          "name": "_participantId",
          "type": "uint256"
        },
        {
          "internalType": "string",
          "name": "_action",
          "type": "string"
        },
        {
          "internalType": "string",
          "name": "_participantType",
          "type": "string"
        }
      ],
      "name": "updateTransportStatus",
      "outputs": [],
      "stateMutability": "nonpayable",
      "type": "function"
    },
    {
      "inputs": [
        {
          "internalType": "string",
          "name": "_sscc",
          "type": "string"
        },
        {
          "internalType": "uint256",
          "name": "_participantId",
          "type": "uint256"
        },
        {
          "internalType": "string",
          "name": "_action",
          "type": "string"
        },
        {
          "internalType": "string",
          "name": "_participantType",
          "type": "string"
        }
      ],
      "name": "updateTransportStatusBySSCC",
      "outputs": [],
      "stateMutability": "nonpayable",
      "type": "function"
    },
    {
      "inputs": [
        {
          "internalType": "uint256",
          "name": "_batchId",
          "type": "uint256"
        },
        {
          "internalType": "uint256",
          "name": "_warehouseId",
          "type": "uint256"
        }
      ],
      "name": "warehouseConfirmation",
      "outputs": [],
      "stateMutability": "nonpayable",
      "type": "function"
    },
    {
      "inputs": [
        {
          "internalType": "string",
          "name": "_sscc",
          "type": "string"
        }
      ],
      "name": "getBatchIdBySSCC",
      "outputs": [
        {
          "internalType": "uint256",
          "name": "",
          "type": "uint256"
        }
      ],
      "stateMutability": "view",
      "type": "function"
    },
    {
      "inputs": [
        {
          "internalType": "uint256",
          "name": "_batchId",
          "type": "uint256"
        }
      ],
      "name": "getDetailedTransportStatus",
      "outputs": [
        {
          "internalType": "enum TraceabilityContract.DetailedTransportStatus",
          "name": "",
          "type": "uint8"
        }
      ],
      "stateMutability": "view",
      "type": "function"
    },
    {
      "inputs": [
        {
          "internalType": "uint256",
          "name": "_batchId",
          "type": "uint256"
        },
        {
          "internalType": "uint256",
          "name": "_transporterId",
          "type": "uint256"
        }
      ],
      "name": "canStartTransport",
      "outputs": [
        {
          "internalType": "bool",
          "name": "",
          "type": "bool"
        }
      ],
      "stateMutability": "view",
      "type": "function"
    },
    {
      "inputs": [
        {
          "internalType": "string",
          "name": "_sscc",
          "type": "string"
        }
      ],
      "name": "getTransportHistoryBySSCC",
      "outputs": [
        {
          "components": [
            {
              "internalType": "uint256",
              "name": "participantId",
              "type": "uint256"
            },
            {
              "internalType": "uint256",
              "name": "timestamp",
              "type": "uint256"
            },
            {
              "internalType": "string",
              "name": "action",
              "type": "string"
            },
            {
              "internalType": "string",
              "name": "participantType",
              "type": "string"
            }
          ],
          "internalType": "struct TraceabilityContract.TransportEvent[]",
          "name": "",
          "type": "tuple[]"
        }
      ],
      "stateMutability": "view",
      "type": "function"
    },
    {
      "inputs": [
        {
          "internalType": "uint256",
          "name": "_batchId",
          "type": "uint256"
        }
      ],
      "name": "getBatchTransportStatus",
      "outputs": [
        {
          "internalType": "enum TraceabilityContract.TransportStatus",
          "name": "",
          "type": "uint8"
        }
      ],
      "stateMutability": "view",
      "type": "function"
    }
  ],
  "bytecode": "0x608060405234801561001057600080fd5b5061606e80620000216000396000f3fe608060405234801561001057600080fd5b50600436106101cf5760003560e01c8063838b1da311610104578063bf193ffa116100a2578063dd235d9d11610071578063dd235d9d14610421578063e561dddc14610434578063f7f097f41461043c578063f9b8da0e1461044f57600080fd5b8063bf193ffa146103e8578063d040e18c146101d4578063d043b843146103fb578063d9860bfc1461040e57600080fd5b80639d47dcc0116100de5780639d47dcc014610382578063a7732c96146103a2578063a7934786146103c2578063b82adf3b146103d557600080fd5b8063838b1da31461032f57806385bdd03f1461034257806397ae6a0e1461036257600080fd5b806347e2f863116101715780635a9c9d901161014b5780635a9c9d90146102ee5780635aa825aa146103015780636b0ba8da1461030957806380e32d451461031c57600080fd5b806347e2f863146102b3578063510664ed146102c657806352c88f36146102db57600080fd5b806319d6ed3c116101ad57806319d6ed3c1461023f5780631bb93d1e146102605780632db53c9d1461028057806336c701e1146102a057600080fd5b806304008078146101d45780630d82dcf4146101fc5780630e6e369c1461021f575b600080fd5b6101e76101e23660046151a0565b610474565b60405190151581526020015b60405180910390f35b6101e761020a3660046151dc565b60009081526005602052604090205460ff1690565b61023261022d3660046151dc565b61049e565b6040516101f391906152d8565b61025261024d3660046151a0565b610786565b6040519081526020016101f3565b61027361026e3660046151a0565b6107ae565b6040516101f391906153b7565b61029361028e3660046151dc565b61099b565b6040516101f391906155d0565b6102526102ae3660046156e4565b610fde565b6102936102c13660046151dc565b61104f565b6102d96102d43660046157dc565b611686565b005b6102d96102e9366004615852565b611b2c565b6102d96102fc366004615886565b611bcd565b610293611c23565b6102d96103173660046158dc565b612229565b61029361032a3660046151dc565b61245f565b6102d961033d3660046151dc565b612a36565b6102526103503660046151dc565b60009081526004602052604090205490565b6103756103703660046151dc565b612bee565b6040516101f391906158fe565b6103956103903660046151dc565b612c39565b6040516101f3919061590c565b6103b56103b03660046151dc565b613144565b6040516101f3919061591f565b6101e76103d03660046158dc565b61318a565b6102d96103e33660046157dc565b613213565b6102d96103f6366004615932565b613300565b6102936104093660046151dc565b61342d565b61039561041c3660046151a0565b613a6a565b6102d961042f3660046151dc565b613f8c565b600054610252565b61023261044a3660046151dc565b6141ab565b6101e761045d3660046158dc565b600091825260026020526040909120600301541490565b60006003826040516104869190615a3e565b90815260405190819003602001902054151592915050565b606060046000838152602001908152602001600020805480602002602001604051908101604052809291908181526020016000905b8282101561077b57838290600052602060002090600702016040518060e0016040529081600082015481526020016001820154815260200160028201805461051a90615a5a565b80601f016020809104026020016040519081016040528092919081815260200182805461054690615a5a565b80156105935780601f1061056857610100808354040283529160200191610593565b820191906000526020600020905b81548152906001019060200180831161057657829003601f168201915b505050505081526020016003820180546105ac90615a5a565b80601f01602080910402602001604051908101604052809291908181526020018280546105d890615a5a565b80156106255780601f106105fa57610100808354040283529160200191610625565b820191906000526020600020905b81548152906001019060200180831161060857829003601f168201915b5050509183525050600482015460ff161515602080830191909152600583018054604080518285028101850182528281529401939260009084015b8282101561070c57838290600052602060002001805461067f90615a5a565b80601f01602080910402602001604051908101604052809291908181526020018280546106ab90615a5a565b80156106f85780601f106106cd576101008083540402835291602001916106f8565b820191906000526020600020905b8154815290600101906020018083116106db57829003601f168201915b505050505081526020019060010190610660565b5050505081526020016006820180548060200260200160405190810160405280929190818152602001828054801561076357602002820191906000526020600020905b81548152602001906001019080831161074f575b505050505081525050815260200190600101906104d3565b505050509050919050565b60006003826040516107989190615a3e565b9081526020016040518091039020549050919050565b606060006003836040516107c29190615a3e565b9081526020016040518091039020549050806000036107fc5760405162461bcd60e51b81526004016107f390615a94565b60405180910390fd5b600081815260016020908152604080832080548251818502810185019093528083529193909284015b8282101561098f5783829060005260206000209060040201604051806080016040529081600082015481526020016001820154815260200160028201805461086c90615a5a565b80601f016020809104026020016040519081016040528092919081815260200182805461089890615a5a565b80156108e55780601f106108ba576101008083540402835291602001916108e5565b820191906000526020600020905b8154815290600101906020018083116108c857829003601f168201915b505050505081526020016003820180546108fe90615a5a565b80601f016020809104026020016040519081016040528092919081815260200182805461092a90615a5a565b80156109775780601f1061094c57610100808354040283529160200191610977565b820191906000526020600020905b81548152906001019060200180831161095a57829003601f168201915b50505050508152505081526020019060010190610825565b50505050915050919050565b6060600060015b6000548111610a1557600081815260026020526040902060030154841480156109f0575060008181526002602081905260409091206008015460ff16818111156109ee576109ee615445565b145b15610a0357816109ff81615aed565b9250505b80610a0d81615aed565b9150506109a2565b506000816001600160401b03811115610a3057610a306150eb565b604051908082528060200260200182016040528015610a6957816020015b610a56614f2f565b815260200190600190039081610a4e5790505b509050600060015b6000548111610fd45760008181526002602052604090206003015486148015610abf575060008181526002602081905260409091206008015460ff1681811115610abd57610abd615445565b145b15610fc257600260008281526020019081526020016000206040518061024001604052908160008201548152602001600182018054610afd90615a5a565b80601f0160208091040260200160405190810160405280929190818152602001828054610b2990615a5a565b8015610b765780601f10610b4b57610100808354040283529160200191610b76565b820191906000526020600020905b815481529060010190602001808311610b5957829003601f168201915b50505050508152602001600282018054610b8f90615a5a565b80601f0160208091040260200160405190810160405280929190818152602001828054610bbb90615a5a565b8015610c085780601f10610bdd57610100808354040283529160200191610c08565b820191906000526020600020905b815481529060010190602001808311610beb57829003601f168201915b5050505050815260200160038201548152602001600482018054610c2b90615a5a565b80601f0160208091040260200160405190810160405280929190818152602001828054610c5790615a5a565b8015610ca45780601f10610c7957610100808354040283529160200191610ca4565b820191906000526020600020905b815481529060010190602001808311610c8757829003601f168201915b5050509183525050600582015460208201526006820154604082015260078201546060820152600882015460809091019060ff166002811115610ce957610ce9615445565b6002811115610cfa57610cfa615445565b815260200160098201805480602002602001604051908101604052809291908181526020016000905b82821015610dcf578382906000526020600020018054610d4290615a5a565b80601f0160208091040260200160405190810160405280929190818152602001828054610d6e90615a5a565b8015610dbb5780601f10610d9057610100808354040283529160200191610dbb565b820191906000526020600020905b815481529060010190602001808311610d9e57829003601f168201915b505050505081526020019060010190610d23565b505050508152602001600a82018054610de790615a5a565b80601f0160208091040260200160405190810160405280929190818152602001828054610e1390615a5a565b8015610e605780601f10610e3557610100808354040283529160200191610e60565b820191906000526020600020905b815481529060010190602001808311610e4357829003601f168201915b50505050508152602001600b82018054610e7990615a5a565b80601f0160208091040260200160405190810160405280929190818152602001828054610ea590615a5a565b8015610ef25780601f10610ec757610100808354040283529160200191610ef2565b820191906000526020600020905b815481529060010190602001808311610ed557829003601f168201915b5050509183525050600c8201546020820152600d8201546040820152600e82015460609091019060ff166002811115610f2d57610f2d615445565b6002811115610f3e57610f3e615445565b8152602001600e820160019054906101000a900460ff166003811115610f6657610f66615445565b6003811115610f7757610f77615445565b8152600f820154602082015260109091015460ff1615156040909101528351849084908110610fa857610fa8615b06565b60200260200101819052508180610fbe90615aed565b9250505b80610fcc81615aed565b915050610a71565b5090949350505050565b600080610fea8a614488565b905060006040518061014001604052808d81526020018381526020018c81526020018b81526020018a815260200189815260200188815260200187815260200186815260200185815250905061103f8161455b565b9c9b505050505050505050505050565b6060600060015b60005481116110c857600081815260026020526040902060030154841480156110a35750600081815260026020819052604082206008015460ff16908111156110a1576110a1615445565b145b156110b657816110b281615aed565b9250505b806110c081615aed565b915050611056565b506000816001600160401b038111156110e3576110e36150eb565b60405190808252806020026020018201604052801561111c57816020015b611109614f2f565b8152602001906001900390816111015790505b509050600060015b6000548111610fd457600081815260026020526040902060030154861480156111715750600081815260026020819052604082206008015460ff169081111561116f5761116f615445565b145b15611674576002600082815260200190815260200160002060405180610240016040529081600082015481526020016001820180546111af90615a5a565b80601f01602080910402602001604051908101604052809291908181526020018280546111db90615a5a565b80156112285780601f106111fd57610100808354040283529160200191611228565b820191906000526020600020905b81548152906001019060200180831161120b57829003601f168201915b5050505050815260200160028201805461124190615a5a565b80601f016020809104026020016040519081016040528092919081815260200182805461126d90615a5a565b80156112ba5780601f1061128f576101008083540402835291602001916112ba565b820191906000526020600020905b81548152906001019060200180831161129d57829003601f168201915b50505050508152602001600382015481526020016004820180546112dd90615a5a565b80601f016020809104026020016040519081016040528092919081815260200182805461130990615a5a565b80156113565780601f1061132b57610100808354040283529160200191611356565b820191906000526020600020905b81548152906001019060200180831161133957829003601f168201915b5050509183525050600582015460208201526006820154604082015260078201546060820152600882015460809091019060ff16600281111561139b5761139b615445565b60028111156113ac576113ac615445565b815260200160098201805480602002602001604051908101604052809291908181526020016000905b828210156114815783829060005260206000200180546113f490615a5a565b80601f016020809104026020016040519081016040528092919081815260200182805461142090615a5a565b801561146d5780601f106114425761010080835404028352916020019161146d565b820191906000526020600020905b81548152906001019060200180831161145057829003601f168201915b5050505050815260200190600101906113d5565b505050508152602001600a8201805461149990615a5a565b80601f01602080910402602001604051908101604052809291908181526020018280546114c590615a5a565b80156115125780601f106114e757610100808354040283529160200191611512565b820191906000526020600020905b8154815290600101906020018083116114f557829003601f168201915b50505050508152602001600b8201805461152b90615a5a565b80601f016020809104026020016040519081016040528092919081815260200182805461155790615a5a565b80156115a45780601f10611579576101008083540402835291602001916115a4565b820191906000526020600020905b81548152906001019060200180831161158757829003601f168201915b5050509183525050600c8201546020820152600d8201546040820152600e82015460609091019060ff1660028111156115df576115df615445565b60028111156115f0576115f0615445565b8152602001600e820160019054906101000a900460ff16600381111561161857611618615445565b600381111561162957611629615445565b8152600f820154602082015260109091015460ff161515604090910152835184908490811061165a5761165a615b06565b6020026020010181905250818061167090615aed565b9250505b8061167e81615aed565b915050611124565b6040516a2a3930b739b837b93a32b960a91b6020820152602b0160405160208183030381529060405280519060200120816040516020016116c79190615a3e565b60405160208183030381529060405280519060200120148061173b57506040516857617265686f75736560b81b602082015260290160405160208183030381529060405280519060200120816040516020016117239190615a3e565b60405160208183030381529060405280519060200120145b6117875760405162461bcd60e51b815260206004820152601860248201527f496e76616c6964207061727469636970616e742074797065000000000000000060448201526064016107f3565b60008481526002602052604081205490036117b45760405162461bcd60e51b81526004016107f390615b1c565b600160008581526002602081905260409091206008015460ff16908111156117de576117de615445565b146118245760405162461bcd60e51b815260206004820152601660248201527510985d18da081b5d5cdd08189948185c1c1c9bdd995960521b60448201526064016107f3565b604080516080810182528481524260208083019182528284018681526060840186905260008981526001808452958120805480880182559082529290208451600490930201918255915193810193909355519091829160028201906118899082615b99565b506060820151600382019061189e9082615b99565b5050604051712130ba103230ba903b30b71031b43abcb2b760711b6020820152603201905060405160208183030381529060405280519060200120836040516020016118ea9190615a3e565b604051602081830303815290604052805190602001200361192f576000858152600260205260409020600e8101805461ffff1916610101179055600f01849055611acb565b604051722a30b690323ab733903b30b71031b43abcb2b760691b602082015260330160405160208183030381529060405280519060200120836040516020016119789190615a3e565b60405160208183030381529060405280519060200120036119bd576000858152600260208190526040909120600e01805461ff001916610100835b0217905550611acb565b604051722a34b2b8103a3ab1903b30b71031b43abcb2b760691b60208201526033016040516020818303038152906040528051906020012083604051602001611a069190615a3e565b6040516020818303038152906040528051906020012003611a46576000858152600260205260409020600e0180546001919061ff001916610100836119b3565b604051742437b0b7103a3430b734103b30b71031b43abcb2b760591b60208201526035016040516020818303038152906040528051906020012083604051602001611a919190615a3e565b6040516020818303038152906040528051906020012003611acb576000858152600260205260409020600e01805461ffff19166103021790555b60008581526002602052604090819020600e0154905186917f946c8fa0a82d640c200413cf1c62f9401d34b0f1435a263a281ff0fd09030ae891611b1d91610100900460ff1690879089908890615c58565b60405180910390a25050505050565b6000828152600260205260408120549003611b595760405162461bcd60e51b81526004016107f390615b1c565b60008281526002602081905260409091206008018054839260ff19909116906001908490811115611b8c57611b8c615445565b0217905550817fcf4d4f3dcd5294f4d19269f489155c2187699f4a9fb9004b6a303752b00b282f82604051611bc1919061591f565b60405180910390a25050565b6000600385604051611bdf9190615a3e565b908152602001604051809103902054905080600003611c105760405162461bcd60e51b81526004016107f390615a94565b611c1c81858585611686565b5050505050565b6060600060015b6000548111611c7f57600081815260026020819052604082206008015460ff1690811115611c5a57611c5a615445565b03611c6d5781611c6981615aed565b9250505b80611c7781615aed565b915050611c2a565b506000816001600160401b03811115611c9a57611c9a6150eb565b604051908082528060200260200182016040528015611cd357816020015b611cc0614f2f565b815260200190600190039081611cb85790505b509050600060015b600054811161222057600081815260026020819052604082206008015460ff1690811115611d0b57611d0b615445565b0361220e57600260008281526020019081526020016000206040518061024001604052908160008201548152602001600182018054611d4990615a5a565b80601f0160208091040260200160405190810160405280929190818152602001828054611d7590615a5a565b8015611dc25780601f10611d9757610100808354040283529160200191611dc2565b820191906000526020600020905b815481529060010190602001808311611da557829003601f168201915b50505050508152602001600282018054611ddb90615a5a565b80601f0160208091040260200160405190810160405280929190818152602001828054611e0790615a5a565b8015611e545780601f10611e2957610100808354040283529160200191611e54565b820191906000526020600020905b815481529060010190602001808311611e3757829003601f168201915b5050505050815260200160038201548152602001600482018054611e7790615a5a565b80601f0160208091040260200160405190810160405280929190818152602001828054611ea390615a5a565b8015611ef05780601f10611ec557610100808354040283529160200191611ef0565b820191906000526020600020905b815481529060010190602001808311611ed357829003601f168201915b5050509183525050600582015460208201526006820154604082015260078201546060820152600882015460809091019060ff166002811115611f3557611f35615445565b6002811115611f4657611f46615445565b815260200160098201805480602002602001604051908101604052809291908181526020016000905b8282101561201b578382906000526020600020018054611f8e90615a5a565b80601f0160208091040260200160405190810160405280929190818152602001828054611fba90615a5a565b80156120075780601f10611fdc57610100808354040283529160200191612007565b820191906000526020600020905b815481529060010190602001808311611fea57829003601f168201915b505050505081526020019060010190611f6f565b505050508152602001600a8201805461203390615a5a565b80601f016020809104026020016040519081016040528092919081815260200182805461205f90615a5a565b80156120ac5780601f10612081576101008083540402835291602001916120ac565b820191906000526020600020905b81548152906001019060200180831161208f57829003601f168201915b50505050508152602001600b820180546120c590615a5a565b80601f01602080910402602001604051908101604052809291908181526020018280546120f190615a5a565b801561213e5780601f106121135761010080835404028352916020019161213e565b820191906000526020600020905b81548152906001019060200180831161212157829003601f168201915b5050509183525050600c8201546020820152600d8201546040820152600e82015460609091019060ff16600281111561217957612179615445565b600281111561218a5761218a615445565b8152602001600e820160019054906101000a900460ff1660038111156121b2576121b2615445565b60038111156121c3576121c3615445565b8152600f820154602082015260109091015460ff16151560409091015283518490849081106121f4576121f4615b06565b6020026020010181905250818061220a90615aed565b9250505b8061221881615aed565b915050611cdb565b50909392505050565b6000828152600260208190526040909120600e015460ff168181111561225157612251615445565b146122bc5760405162461bcd60e51b815260206004820152603560248201527f4261746368206d7573742062652064656c697665726564206265666f7265207760448201527430b932b437bab9b29031b7b73334b936b0ba34b7b760591b60648201526084016107f3565b60036000838152600260205260409020600e0154610100900460ff1660038111156122e9576122e9615445565b146123405760405162461bcd60e51b815260206004820152602160248201527f4261746368206d75737420626520696e2044656c6976657265642073746174756044820152607360f81b60648201526084016107f3565b6000828152600260209081526040808320601001805460ff19166001908117909155815160808101835285815282518084018452600981526857617265686f75736560b81b81860152818501908152428285015283518085018552601e81527f436f6e6669726d656420726563656970742061742077617265686f7573650000818701526060830152878652600685529285208054808401825590865293909420845160049094020192835590518392918201906123fe9082615b99565b50604082015160028201556060820151600382019061241d9082615b99565b505050827f5a0ca583abbe4762e00286f277fb259ed4a722726e02cd87aa38d3b2eeead4f58360405161245291815260200190565b60405180910390a2505050565b6060600060015b60005481116124a857600081815260026020526040902060030154849003612496578161249281615aed565b9250505b806124a081615aed565b915050612466565b506000816001600160401b038111156124c3576124c36150eb565b6040519080825280602002602001820160405280156124fc57816020015b6124e9614f2f565b8152602001906001900390816124e15790505b509050600060015b6000548111610fd457600081815260026020526040902060030154869003612a245760026000828152602001908152602001600020604051806102400160405290816000820154815260200160018201805461255f90615a5a565b80601f016020809104026020016040519081016040528092919081815260200182805461258b90615a5a565b80156125d85780601f106125ad576101008083540402835291602001916125d8565b820191906000526020600020905b8154815290600101906020018083116125bb57829003601f168201915b505050505081526020016002820180546125f190615a5a565b80601f016020809104026020016040519081016040528092919081815260200182805461261d90615a5a565b801561266a5780601f1061263f5761010080835404028352916020019161266a565b820191906000526020600020905b81548152906001019060200180831161264d57829003601f168201915b505050505081526020016003820154815260200160048201805461268d90615a5a565b80601f01602080910402602001604051908101604052809291908181526020018280546126b990615a5a565b80156127065780601f106126db57610100808354040283529160200191612706565b820191906000526020600020905b8154815290600101906020018083116126e957829003601f168201915b5050509183525050600582015460208201526006820154604082015260078201546060820152600882015460809091019060ff16600281111561274b5761274b615445565b600281111561275c5761275c615445565b815260200160098201805480602002602001604051908101604052809291908181526020016000905b828210156128315783829060005260206000200180546127a490615a5a565b80601f01602080910402602001604051908101604052809291908181526020018280546127d090615a5a565b801561281d5780601f106127f25761010080835404028352916020019161281d565b820191906000526020600020905b81548152906001019060200180831161280057829003601f168201915b505050505081526020019060010190612785565b505050508152602001600a8201805461284990615a5a565b80601f016020809104026020016040519081016040528092919081815260200182805461287590615a5a565b80156128c25780601f10612897576101008083540402835291602001916128c2565b820191906000526020600020905b8154815290600101906020018083116128a557829003601f168201915b50505050508152602001600b820180546128db90615a5a565b80601f016020809104026020016040519081016040528092919081815260200182805461290790615a5a565b80156129545780601f1061292957610100808354040283529160200191612954565b820191906000526020600020905b81548152906001019060200180831161293757829003601f168201915b5050509183525050600c8201546020820152600d8201546040820152600e82015460609091019060ff16600281111561298f5761298f615445565b60028111156129a0576129a0615445565b8152602001600e820160019054906101000a900460ff1660038111156129c8576129c8615445565b60038111156129d9576129d9615445565b8152600f820154602082015260109091015460ff1615156040909101528351849084908110612a0a57612a0a615b06565b60200260200101819052508180612a2090615aed565b9250505b80612a2e81615aed565b915050612504565b6000818152600260205260408120549003612a635760405162461bcd60e51b81526004016107f390615b1c565b600081815260026020819052604082206008015460ff1690811115612a8a57612a8a615445565b14612ad75760405162461bcd60e51b815260206004820152601d60248201527f4261746368206973206e6f742070656e64696e6720617070726f76616c00000060448201526064016107f3565b60008181526002602081905260409182902060088101805460ff1916831790556003810154925184937ffd30c1d70626cdbca41a738198079b1d57c2a7d36d52b79ae4b4bcc980506f7693612b30939192910190615d18565b60405180910390a2604080516001808252818301909252600091602080830190803683375050506000838152600260205260408120600d0154825192935091839190612b7e57612b7e615b06565b602002602001018181525050612bea60026000848152602001908152602001600020600301546040518060400160405280600e81526020016d10985d18da0814995a9958dd195960921b815250604051806060016040528060278152602001615feb6027913984614bcc565b5050565b6000818152600260205260408120548103612c1b5760405162461bcd60e51b81526004016107f390615b1c565b506000908152600260205260409020600e0154610100900460ff1690565b612c41614f2f565b6000828152600260205260408120549003612c6e5760405162461bcd60e51b81526004016107f390615b1c565b600260008381526020019081526020016000206040518061024001604052908160008201548152602001600182018054612ca790615a5a565b80601f0160208091040260200160405190810160405280929190818152602001828054612cd390615a5a565b8015612d205780601f10612cf557610100808354040283529160200191612d20565b820191906000526020600020905b815481529060010190602001808311612d0357829003601f168201915b50505050508152602001600282018054612d3990615a5a565b80601f0160208091040260200160405190810160405280929190818152602001828054612d6590615a5a565b8015612db25780601f10612d8757610100808354040283529160200191612db2565b820191906000526020600020905b815481529060010190602001808311612d9557829003601f168201915b5050505050815260200160038201548152602001600482018054612dd590615a5a565b80601f0160208091040260200160405190810160405280929190818152602001828054612e0190615a5a565b8015612e4e5780601f10612e2357610100808354040283529160200191612e4e565b820191906000526020600020905b815481529060010190602001808311612e3157829003601f168201915b5050509183525050600582015460208201526006820154604082015260078201546060820152600882015460809091019060ff166002811115612e9357612e93615445565b6002811115612ea457612ea4615445565b815260200160098201805480602002602001604051908101604052809291908181526020016000905b82821015612f79578382906000526020600020018054612eec90615a5a565b80601f0160208091040260200160405190810160405280929190818152602001828054612f1890615a5a565b8015612f655780601f10612f3a57610100808354040283529160200191612f65565b820191906000526020600020905b815481529060010190602001808311612f4857829003601f168201915b505050505081526020019060010190612ecd565b505050508152602001600a82018054612f9190615a5a565b80601f0160208091040260200160405190810160405280929190818152602001828054612fbd90615a5a565b801561300a5780601f10612fdf5761010080835404028352916020019161300a565b820191906000526020600020905b815481529060010190602001808311612fed57829003601f168201915b50505050508152602001600b8201805461302390615a5a565b80601f016020809104026020016040519081016040528092919081815260200182805461304f90615a5a565b801561309c5780601f106130715761010080835404028352916020019161309c565b820191906000526020600020905b81548152906001019060200180831161307f57829003601f168201915b5050509183525050600c8201546020820152600d8201546040820152600e82015460609091019060ff1660028111156130d7576130d7615445565b60028111156130e8576130e8615445565b8152602001600e820160019054906101000a900460ff16600381111561311057613110615445565b600381111561312157613121615445565b8152600f820154602082015260109091015460ff16151560409091015292915050565b60008181526002602052604081205481036131715760405162461bcd60e51b81526004016107f390615b1c565b506000908152600260205260409020600e015460ff1690565b6000806000848152600260205260409020600e0154610100900460ff1660038111156131b8576131b8615445565b148061320a575060036000848152600260205260409020600e0154610100900460ff1660038111156131ec576131ec615445565b14801561320a57506000838152600260205260409020600f01548214155b90505b92915050565b60008481526002602052604081205490036132405760405162461bcd60e51b81526004016107f390615b1c565b6000848152600660209081526040808320815160808101835287815280840187815242938201939093526060810186905281546001818101845592865293909420845160049094020192835590519082019061329c9082615b99565b5060408201516002820155606082015160038201906132bb9082615b99565b505050837fe5fd3732b00b2878e55e64cdde6c59b6566f044952fe6b2f36658364da9b561c8484846040516132f293929190615d31565b60405180910390a250505050565b6040805160e08101825242815260208082018881528284018881526060840188905260006080850181905260a0850188905260c085018790528a815260048452948520805460018181018355918752939095208451600790940201928355905193820193909355915190918291600282019061337c9082615b99565b50606082015160038201906133919082615b99565b50608082015160048201805460ff191691151591909117905560a082015180516133c5916005840191602090910190614fdf565b5060c082015180516133e1916006840191602090910190615035565b505050857f0fb336061951903d147e6b93ba30f6d47839e02426fcd5ee1876873afe47bab386866000878760405161341d959493929190615d66565b60405180910390a2505050505050565b6060600060015b60005481116134a957600081815260026020526040902060030154841480156134845750600160008281526002602081905260409091206008015460ff169081111561348257613482615445565b145b15613497578161349381615aed565b9250505b806134a181615aed565b915050613434565b506000816001600160401b038111156134c4576134c46150eb565b6040519080825280602002602001820160405280156134fd57816020015b6134ea614f2f565b8152602001906001900390816134e25790505b509050600060015b6000548111610fd457600081815260026020526040902060030154861480156135555750600160008281526002602081905260409091206008015460ff169081111561355357613553615445565b145b15613a585760026000828152602001908152602001600020604051806102400160405290816000820154815260200160018201805461359390615a5a565b80601f01602080910402602001604051908101604052809291908181526020018280546135bf90615a5a565b801561360c5780601f106135e15761010080835404028352916020019161360c565b820191906000526020600020905b8154815290600101906020018083116135ef57829003601f168201915b5050505050815260200160028201805461362590615a5a565b80601f016020809104026020016040519081016040528092919081815260200182805461365190615a5a565b801561369e5780601f106136735761010080835404028352916020019161369e565b820191906000526020600020905b81548152906001019060200180831161368157829003601f168201915b50505050508152602001600382015481526020016004820180546136c190615a5a565b80601f01602080910402602001604051908101604052809291908181526020018280546136ed90615a5a565b801561373a5780601f1061370f5761010080835404028352916020019161373a565b820191906000526020600020905b81548152906001019060200180831161371d57829003601f168201915b5050509183525050600582015460208201526006820154604082015260078201546060820152600882015460809091019060ff16600281111561377f5761377f615445565b600281111561379057613790615445565b815260200160098201805480602002602001604051908101604052809291908181526020016000905b828210156138655783829060005260206000200180546137d890615a5a565b80601f016020809104026020016040519081016040528092919081815260200182805461380490615a5a565b80156138515780601f1061382657610100808354040283529160200191613851565b820191906000526020600020905b81548152906001019060200180831161383457829003601f168201915b5050505050815260200190600101906137b9565b505050508152602001600a8201805461387d90615a5a565b80601f01602080910402602001604051908101604052809291908181526020018280546138a990615a5a565b80156138f65780601f106138cb576101008083540402835291602001916138f6565b820191906000526020600020905b8154815290600101906020018083116138d957829003601f168201915b50505050508152602001600b8201805461390f90615a5a565b80601f016020809104026020016040519081016040528092919081815260200182805461393b90615a5a565b80156139885780601f1061395d57610100808354040283529160200191613988565b820191906000526020600020905b81548152906001019060200180831161396b57829003601f168201915b5050509183525050600c8201546020820152600d8201546040820152600e82015460609091019060ff1660028111156139c3576139c3615445565b60028111156139d4576139d4615445565b8152602001600e820160019054906101000a900460ff1660038111156139fc576139fc615445565b6003811115613a0d57613a0d615445565b8152600f820154602082015260109091015460ff1615156040909101528351849084908110613a3e57613a3e615b06565b60200260200101819052508180613a5490615aed565b9250505b80613a6281615aed565b915050613505565b613a72614f2f565b6000600383604051613a849190615a3e565b908152602001604051809103902054905080600003613ab55760405162461bcd60e51b81526004016107f390615a94565b600260008281526020019081526020016000206040518061024001604052908160008201548152602001600182018054613aee90615a5a565b80601f0160208091040260200160405190810160405280929190818152602001828054613b1a90615a5a565b8015613b675780601f10613b3c57610100808354040283529160200191613b67565b820191906000526020600020905b815481529060010190602001808311613b4a57829003601f168201915b50505050508152602001600282018054613b8090615a5a565b80601f0160208091040260200160405190810160405280929190818152602001828054613bac90615a5a565b8015613bf95780601f10613bce57610100808354040283529160200191613bf9565b820191906000526020600020905b815481529060010190602001808311613bdc57829003601f168201915b5050505050815260200160038201548152602001600482018054613c1c90615a5a565b80601f0160208091040260200160405190810160405280929190818152602001828054613c4890615a5a565b8015613c955780601f10613c6a57610100808354040283529160200191613c95565b820191906000526020600020905b815481529060010190602001808311613c7857829003601f168201915b5050509183525050600582015460208201526006820154604082015260078201546060820152600882015460809091019060ff166002811115613cda57613cda615445565b6002811115613ceb57613ceb615445565b815260200160098201805480602002602001604051908101604052809291908181526020016000905b82821015613dc0578382906000526020600020018054613d3390615a5a565b80601f0160208091040260200160405190810160405280929190818152602001828054613d5f90615a5a565b8015613dac5780601f10613d8157610100808354040283529160200191613dac565b820191906000526020600020905b815481529060010190602001808311613d8f57829003601f168201915b505050505081526020019060010190613d14565b505050508152602001600a82018054613dd890615a5a565b80601f0160208091040260200160405190810160405280929190818152602001828054613e0490615a5a565b8015613e515780601f10613e2657610100808354040283529160200191613e51565b820191906000526020600020905b815481529060010190602001808311613e3457829003601f168201915b50505050508152602001600b82018054613e6a90615a5a565b80601f0160208091040260200160405190810160405280929190818152602001828054613e9690615a5a565b8015613ee35780601f10613eb857610100808354040283529160200191613ee3565b820191906000526020600020905b815481529060010190602001808311613ec657829003601f168201915b5050509183525050600c8201546020820152600d8201546040820152600e82015460609091019060ff166002811115613f1e57613f1e615445565b6002811115613f2f57613f2f615445565b8152602001600e820160019054906101000a900460ff166003811115613f5757613f57615445565b6003811115613f6857613f68615445565b8152600f820154602082015260109091015460ff1615156040909101529392505050565b6000818152600260205260408120549003613fb95760405162461bcd60e51b81526004016107f390615b1c565b600081815260026020819052604082206008015460ff1690811115613fe057613fe0615445565b1461402d5760405162461bcd60e51b815260206004820152601d60248201527f4261746368206973206e6f742070656e64696e6720617070726f76616c00000060448201526064016107f3565b6000818152600260208181526040808420600881018054600160ff19918216811790925560058552958390208054909616179094559082905260038301549051909284927f1a621270a25ae67b5e557b98be27914cd1de793b7ca49110be85cb5aaa169c9b926140a09290910190615df9565b60405180910390a36000818152600260208190526040918290206003810154925184927f309958f3629dbb8b1c3fb39cc2ffd4759c619a8c6c7927159d9e608c99ae4632926140f192910190615df9565b60405180910390a3604080516001808252818301909252600091602080830190803683375050506000838152600260205260408120600d015482519293509183919061413f5761413f615b06565b602002602001018181525050612bea60026000848152602001908152602001600020600301546040518060400160405280600e81526020016d10985d18da08105c1c1c9bdd995960921b8152506040518060600160405280602781526020016160126027913984614bcc565b606060046000838152602001908152602001600020805480602002602001604051908101604052809291908181526020016000905b8282101561077b57838290600052602060002090600702016040518060e0016040529081600082015481526020016001820154815260200160028201805461422790615a5a565b80601f016020809104026020016040519081016040528092919081815260200182805461425390615a5a565b80156142a05780601f10614275576101008083540402835291602001916142a0565b820191906000526020600020905b81548152906001019060200180831161428357829003601f168201915b505050505081526020016003820180546142b990615a5a565b80601f01602080910402602001604051908101604052809291908181526020018280546142e590615a5a565b80156143325780601f1061430757610100808354040283529160200191614332565b820191906000526020600020905b81548152906001019060200180831161431557829003601f168201915b5050509183525050600482015460ff161515602080830191909152600583018054604080518285028101850182528281529401939260009084015b8282101561441957838290600052602060002001805461438c90615a5a565b80601f01602080910402602001604051908101604052809291908181526020018280546143b890615a5a565b80156144055780601f106143da57610100808354040283529160200191614405565b820191906000526020600020905b8154815290600101906020018083116143e857829003601f168201915b50505050508152602001906001019061436d565b5050505081526020016006820180548060200260200160405190810160405280929190818152602001828054801561447057602002820191906000526020600020905b81548152602001906001019080831161445c575b505050505081525050815260200190600101906141e0565b604080518082019091526002815261030360f41b602082015260609060006144af84614d18565b60408051426020808301919091528183018890528251808303840181526060909201909252805191012090915060006144e782614d18565b9050600084848360405160200161450093929190615e0c565b6040516020818303038152906040529050600061451c82614e43565b905060008261452d8360ff16614d18565b60405160200161453e929190615e4f565b60408051601f198184030181529190529998505050505050505050565b6000600382602001516040516145719190615a3e565b9081526020016040518091039020546000146145c55760405162461bcd60e51b81526020600482015260136024820152725353434320616c72656164792065786973747360681b60448201526064016107f3565b60008260600151511161461a5760405162461bcd60e51b815260206004820152601a60248201527f5175616e74697479206d757374206e6f7420626520656d70747900000000000060448201526064016107f3565b6000826080015151116146825760405162461bcd60e51b815260206004820152602a60248201527f4174206c65617374206f6e652070726f6475637420696d6167652055524c20696044820152691cc81c995c5d5a5c995960b21b60648201526084016107f3565b60008260a0015151116146e15760405162461bcd60e51b815260206004820152602160248201527f436572746966696361746520696d6167652055524c20697320726571756972656044820152601960fa1b60648201526084016107f3565b60008260c0015151116147365760405162461bcd60e51b815260206004820152601c60248201527f4661726d20706c6f74206e756d6265722069732072657175697265640000000060448201526064016107f3565b60008260e001511161478a5760405162461bcd60e51b815260206004820152601860248201527f50726f64756374204944206d7573742062652076616c6964000000000000000060448201526064016107f3565b6000826101000151116147d85760405162461bcd60e51b815260206004820152601660248201527514dd185c9d0819185d19481a5cc81c995c5d5a5c995960521b60448201526064016107f3565b6000826101200151116148245760405162461bcd60e51b8152602060048201526014602482015273115b990819185d19481a5cc81c995c5d5a5c995960621b60448201526064016107f3565b816101200151826101000151106148885760405162461bcd60e51b815260206004820152602260248201527f53746172742064617465206d757374206265206265666f726520656e64206461604482015261746560f01b60648201526084016107f3565b8151516148d75760405162461bcd60e51b815260206004820152601c60248201527f4261746368206e616d65206d757374206e6f7420626520656d7074790000000060448201526064016107f3565b6000805490806148e683615aed565b91905055506000805490506000429050600061491f856020015186604001518760600151858960c001518a60e001518b60000151614eed565b9050600060405180610240016040528085815260200187600001518152602001876020015181526020018760400151815260200187606001518152602001848152602001876101000151815260200187610120015181526020016000600281111561498c5761498c615445565b8152608080890151602083015260a0808a0151604084015260c0808b0151606085015291830186905260e08a01519083015201600081526020016000815260006020808301829052604092830182905287825260028152919020825181559082015191925082916001820190614a029082615b99565b5060408201516002820190614a179082615b99565b506060820151600382015560808201516004820190614a369082615b99565b5060a0820151600582015560c0820151600682015560e0820151600782015561010082015160088201805460ff19166001836002811115614a7957614a79615445565b02179055506101208201518051614a9a916009840191602090910190614fdf565b50610140820151600a820190614ab09082615b99565b50610160820151600b820190614ac69082615b99565b50610180820151600c8201556101a0820151600d8201556101c0820151600e8201805460ff19166001836002811115614b0157614b01615445565b02179055506101e0820151600e8201805461ff001916610100836003811115614b2c57614b2c615445565b0217905550610200820151600f820155610220909101516010909101805460ff191691151591909117905560208601516040518591600391614b6e9190615a3e565b908152602001604051809103902081905550837f58c168780de5fc719a1e7a85c7eca394e664c0e74b7c9ebc621f0b093112d04b87602001518860400151604051614bba929190615e7e565b60405180910390a25091949350505050565b6040805160008082526020820190925281614bf7565b6060815260200190600190039081614be25790505b506040805160e08101825242815260208082018981528284018981526060840189905260016080850181905260a0850187905260c0850189905260008c815260048552958620805480830182559087529390952084516007909402019283559051938201939093559151929350918291906002820190614c779082615b99565b5060608201516003820190614c8c9082615b99565b50608082015160048201805460ff191691151591909117905560a08201518051614cc0916005840191602090910190614fdf565b5060c08201518051614cdc916006840191602090910190615035565b505050857f0fb336061951903d147e6b93ba30f6d47839e02426fcd5ee1876873afe47bab386866001868860405161341d959493929190615d66565b606081600003614d3f5750506040805180820190915260018152600360fc1b602082015290565b8160005b8115614d695780614d5381615aed565b9150614d629050600a83615eb6565b9150614d43565b6000816001600160401b03811115614d8357614d836150eb565b6040519080825280601f01601f191660200182016040528015614dad576020820181803683370190505b509050815b8515614e3a57614dc3600182615eca565b90506000614dd2600a88615eb6565b614ddd90600a615edd565b614de79088615eca565b614df2906030615ef4565b905060008160f81b905080848481518110614e0f57614e0f615b06565b60200101906001600160f81b031916908160001a905350614e31600a89615eb6565b97505050614db2565b50949350505050565b60008181805b8251811015614ec05760006030848381518110614e6857614e68615b06565b0160200151614e7a919060f81c615f0d565b9050614e87600283615f26565b15614e925780614e9d565b614e9d816003615f3a565b614eaa9060ff1684615f5d565b9250508080614eb890615aed565b915050614e49565b506000600a614ecf8184615f26565b614eda90600a615eca565b614ee49190615f26565b95945050505050565b600087878787878787604051602001614f0c9796959493929190615f70565b604051602081830303815290604052805190602001209050979650505050505050565b604051806102400160405280600081526020016060815260200160608152602001600081526020016060815260200160008152602001600081526020016000815260200160006002811115614f8657614f86615445565b8152602001606081526020016060815260200160608152602001600080191681526020016000815260200160006002811115614fc457614fc4615445565b81526020016000815260006020820181905260409091015290565b828054828255906000526020600020908101928215615025579160200282015b8281111561502557825182906150159082615b99565b5091602001919060010190614fff565b5061503192915061507c565b5090565b828054828255906000526020600020908101928215615070579160200282015b82811115615070578251825591602001919060010190615055565b50615031929150615099565b8082111561503157600061509082826150ae565b5060010161507c565b5b80821115615031576000815560010161509a565b5080546150ba90615a5a565b6000825580601f106150ca575050565b601f0160209004906000526020600020908101906150e89190615099565b50565b634e487b7160e01b600052604160045260246000fd5b604051601f8201601f191681016001600160401b0381118282101715615129576151296150eb565b604052919050565b600082601f83011261514257600080fd5b81356001600160401b0381111561515b5761515b6150eb565b61516e601f8201601f1916602001615101565b81815284602083860101111561518357600080fd5b816020850160208301376000918101602001919091529392505050565b6000602082840312156151b257600080fd5b81356001600160401b038111156151c857600080fd5b6151d484828501615131565b949350505050565b6000602082840312156151ee57600080fd5b5035919050565b60005b838110156152105781810151838201526020016151f8565b50506000910152565b600081518084526152318160208601602086016151f5565b601f01601f19169290920160200192915050565b600082825180855260208086019550808260051b84010181860160005b8481101561529057601f1986840301895261527e838351615219565b98840198925090830190600101615262565b5090979650505050505050565b600081518084526020808501945080840160005b838110156152cd578151875295820195908201906001016152b1565b509495945050505050565b60006020808301818452808551808352604092508286019150828160051b87010184880160005b838110156153a957603f19898403018552815160e081518552888201518986015287820151818987015261533582870182615219565b9150506060808301518683038288015261534f8382615219565b925050506080808301511515818701525060a080830151868303828801526153778382615245565b9250505060c08083015192508582038187015250615395818361529d565b9689019694505050908601906001016152ff565b509098975050505050505050565b60006020808301818452808551808352604092508286019150828160051b87010184880160005b838110156153a957603f198984030185528151608081518552888201518986015287820151818987015261541482870182615219565b915050606080830151925085820381870152506154318183615219565b9689019694505050908601906001016153de565b634e487b7160e01b600052602160045260246000fd5b600381106150e8576150e8615445565b6154748161545b565b9052565b6004811061547457615474615445565b60006102408251845260208301518160208601526154a882860182615219565b915050604083015184820360408601526154c28282615219565b91505060608301516060850152608083015184820360808601526154e68282615219565b91505060a083015160a085015260c083015160c085015260e083015160e08501526101008084015161551a8287018261546b565b505061012080840151858303828701526155348382615245565b9250505061014080840151858303828701526155508382615219565b92505050610160808401518583038287015261556c8382615219565b925050506101808084015181860152506101a08084015181860152506101c08084015161559b8287018261546b565b50506101e0808401516155b082870182615478565b505061020083810151908501526102208084015180151582870152610fd4565b6000602080830181845280855180835260408601915060408160051b870101925083870160005b8281101561562557603f19888603018452615613858351615488565b945092850192908501906001016155f7565b5092979650505050505050565b60006001600160401b0382111561564b5761564b6150eb565b5060051b60200190565b600082601f83011261566657600080fd5b8135602061567b61567683615632565b615101565b82815260059290921b8401810191818101908684111561569a57600080fd5b8286015b848110156156d95780356001600160401b038111156156bd5760008081fd5b6156cb8986838b0101615131565b84525091830191830161569e565b509695505050505050565b60008060008060008060008060006101208a8c03121561570357600080fd5b89356001600160401b038082111561571a57600080fd5b6157268d838e01615131565b9a5060208c0135995060408c013591508082111561574357600080fd5b61574f8d838e01615131565b985060608c013591508082111561576557600080fd5b6157718d838e01615655565b975060808c013591508082111561578757600080fd5b6157938d838e01615131565b965060a08c01359150808211156157a957600080fd5b506157b68c828d01615131565b94505060c08a0135925060e08a013591506101008a013590509295985092959850929598565b600080600080608085870312156157f257600080fd5b843593506020850135925060408501356001600160401b038082111561581757600080fd5b61582388838901615131565b9350606087013591508082111561583957600080fd5b5061584687828801615131565b91505092959194509250565b6000806040838503121561586557600080fd5b8235915060208301356003811061587b57600080fd5b809150509250929050565b6000806000806080858703121561589c57600080fd5b84356001600160401b03808211156158b357600080fd5b6158bf88838901615131565b955060208701359450604087013591508082111561581757600080fd5b600080604083850312156158ef57600080fd5b50508035926020909101359150565b6020810161320d8284615478565b60208152600061320a6020830184615488565b6020810161592c8361545b565b91905290565b600080600080600060a0868803121561594a57600080fd5b853594506020808701356001600160401b038082111561596957600080fd5b6159758a838b01615131565b9650604089013591508082111561598b57600080fd5b6159978a838b01615131565b955060608901359150808211156159ad57600080fd5b6159b98a838b01615655565b945060808901359150808211156159cf57600080fd5b508701601f810189136159e157600080fd5b80356159ef61567682615632565b81815260059190911b8201830190838101908b831115615a0e57600080fd5b928401925b82841015615a2c57833582529284019290840190615a13565b80955050505050509295509295909350565b60008251615a508184602087016151f5565b9190910192915050565b600181811c90821680615a6e57607f821691505b602082108103615a8e57634e487b7160e01b600052602260045260246000fd5b50919050565b60208082526023908201527f426174636820646f6573206e6f7420657869737420776974682074686973205360408201526253434360e81b606082015260800190565b634e487b7160e01b600052601160045260246000fd5b600060018201615aff57615aff615ad7565b5060010190565b634e487b7160e01b600052603260045260246000fd5b60208082526014908201527310985d18da08191bd95cc81b9bdd08195e1a5cdd60621b604082015260600190565b601f821115615b9457600081815260208120601f850160051c81016020861015615b715750805b601f850160051c820191505b81811015615b9057828155600101615b7d565b5050505b505050565b81516001600160401b03811115615bb257615bb26150eb565b615bc681615bc08454615a5a565b84615b4a565b602080601f831160018114615bfb5760008415615be35750858301515b600019600386901b1c1916600185901b178555615b90565b600085815260208120601f198616915b82811015615c2a57888601518255948401946001909101908401615c0b565b5085821015615c485787850151600019600388901b60f8161c191681555b5050505050600190811b01905550565b615c628186615478565b608060208201526000615c786080830186615219565b8460408401528281036060840152615c908185615219565b979650505050505050565b60008154615ca881615a5a565b808552602060018381168015615cc55760018114615cdf57615d0d565b60ff1985168884015283151560051b880183019550615d0d565b866000528260002060005b85811015615d055781548a8201860152908301908401615cea565b890184019650505b505050505092915050565b8281526040602082015260006151d46040830184615c9b565b838152606060208201526000615d4a6060830185615219565b8281036040840152615d5c8185615219565b9695505050505050565b60a081526000615d7960a0830188615219565b602083820381850152615d8c8289615219565b9150861515604085015283820360608501528186518084528284019150828160051b85010183890160005b83811015615de557601f19878403018552615dd3838351615219565b94860194925090850190600101615db7565b5050868103608088015261103f818961529d565b60208152600061320a6020830184615c9b565b60008451615e1e8184602089016151f5565b845190830190615e328183602089016151f5565b8451910190615e458183602088016151f5565b0195945050505050565b60008351615e618184602088016151f5565b835190830190615e758183602088016151f5565b01949350505050565b604081526000615e916040830185615219565b90508260208301529392505050565b634e487b7160e01b600052601260045260246000fd5b600082615ec557615ec5615ea0565b500490565b8181038181111561320d5761320d615ad7565b808202811582820484141761320d5761320d615ad7565b60ff818116838216019081111561320d5761320d615ad7565b60ff828116828216039081111561320d5761320d615ad7565b600082615f3557615f35615ea0565b500690565b60ff8181168382160290811690818114615f5657615f56615ad7565b5092915050565b8082018082111561320d5761320d615ad7565b600088516020615f838285838e016151f5565b81840191508982528851615f9c81838501848d016151f5565b80830192505087818301528651615fb98160408501848b016151f5565b604092019182018690528451615fd581606085018489016151f5565b919091016060019a995050505050505050505056fe426174636820686173206265656e2072656a65637465642062792074686520617070726f766572426174636820686173206265656e20617070726f7665642062792074686520617070726f766572a2646970667358221220877f3823e727b962a969b523d23de4fbe59ede9a18788454585e84aa75bd8d7364736f6c63430008140033",
  "immutableReferences": {},
  "source": "// SPDX-License-Identifier: MIT\r\npragma solidity ^0.8.0;\r\n\r\ncontract TraceabilityContract {\r\n    uint256 private _batchIdCounter;\r\n\r\nenum BatchStatus { PendingApproval, Approved, Rejected }\r\nenum TransportStatus { NotTransported, InTransit, Delivered }\r\nenum ParticipantType { Transporter, Warehouse }\r\nenum DetailedTransportStatus { NotStarted, InTransit, Paused, Delivered }\r\n\r\n    struct Batch {\r\n        uint256 batchId;\r\n        string name;  // Thm trng tn l hng\r\n        string sscc;\r\n        uint256 producerId;\r\n        string quantity;\r\n        uint256 productionDate;\r\n        uint256 startDate;\r\n        uint256 endDate;\r\n        BatchStatus status;\r\n        string[] productImageUrls;\r\n        string certificateImageUrl;\r\n        string farmPlotNumber;\r\n        bytes32 dataHash;\r\n        uint256 productId;\r\n        TransportStatus transportStatus;\r\n        DetailedTransportStatus detailedTransportStatus;\r\n        uint256 lastTransporterId;\r\n        bool warehouseConfirmed;  // Thm trng ny\r\n\r\n    }\r\n\r\n     struct BatchParams {\r\n        string name;\r\n        string sscc;\r\n        uint256 producerId;\r\n        string quantity;\r\n        string[] productImageUrls;\r\n        string certificateImageUrl;\r\n        string farmPlotNumber;\r\n        uint256 productId;\r\n        uint256 startDate;\r\n        uint256 endDate;\r\n    }\r\n    \r\n    struct Participation {\r\n        uint256 participantId;\r\n        string participantType;\r\n        uint256 timestamp;\r\n        string action;\r\n    }\r\n      struct ActivityLog {\r\n        uint256 timestamp;\r\n        uint256 uid;\r\n        string activityName;\r\n        string description;\r\n        bool isSystemGenerated;\r\n        string[] imageUrls;\r\n        uint256[] relatedProductIds;\r\n    }\r\n    struct TransportEvent {\r\n    uint256 participantId;\r\n    uint256 timestamp;\r\n    string action;\r\n    string participantType;\r\n}\r\n\r\nmapping(uint256 => TransportEvent[]) private _batchTransportEvents;\r\n\r\n\r\n    mapping(uint256 => Batch) private _batches;\r\n    mapping(string => uint256) private _ssccToBatchId;\r\n    mapping(uint256 => ActivityLog[]) private _producerActivityLogs;\r\n    mapping(uint256 => bool) private _approvedBatches;\r\n    mapping(uint256 => Participation[]) private _batchParticipations;\r\n    \r\n    event BatchApproved(uint256 indexed batchId, uint256 indexed producerId, string sscc);\r\n    event BatchApprovedForQR(uint256 indexed batchId, uint256 indexed producerId, string sscc);\r\n    event ParticipationRecorded(uint256 indexed batchId, uint256 participantId, string participantType, string action);\r\n    event BatchCreated(uint256 indexed batchId, string sscc, uint256 producerId);\r\n    event ActivityLogAdded(\r\n        uint256 indexed uid,\r\n        string activityName,\r\n        string description,\r\n        bool isSystemGenerated,\r\n        string[] imageUrls,\r\n        uint256[] relatedProductIds\r\n    );\r\nevent TransportStatusUpdated(\r\n    uint256 indexed batchId, \r\n    DetailedTransportStatus newStatus, \r\n    string action, \r\n    uint256 participantId, \r\n    string participantType\r\n);\r\n\r\nevent WarehouseConfirmed(uint256 indexed batchId, uint256 warehouseId);\r\n\r\n    function createBatch(\r\n        string memory _name,  // Thm tham s tn l hng\r\n        uint256 _producerId,\r\n        string memory _quantity,\r\n        string[] memory _productImageUrls,\r\n        string memory _certificateImageUrl,\r\n        string memory _farmPlotNumber,\r\n        uint256 _productId,\r\n        uint256 _startDate,\r\n        uint256 _endDate\r\n    ) public returns (uint256) {\r\n        string memory sscc = generateSSCC(_producerId);\r\n        BatchParams memory params = BatchParams({\r\n            name: _name,  // Thm tn l hng\r\n            sscc: sscc,\r\n            producerId: _producerId,\r\n            quantity: _quantity,\r\n            productImageUrls: _productImageUrls,\r\n            certificateImageUrl: _certificateImageUrl,\r\n            farmPlotNumber: _farmPlotNumber,\r\n            productId: _productId,\r\n            startDate: _startDate,\r\n            endDate: _endDate\r\n        });\r\n\r\n        return _createBatch(params);\r\n    }\r\n\r\n    function generateSSCC(uint256 _producerId) private view returns (string memory) {\r\n        string memory prefix = \"00\";\r\n        string memory companyPrefix = uint2str(_producerId);\r\n        uint256 serialNumber = uint256(keccak256(abi.encodePacked(block.timestamp, _producerId)));\r\n        string memory serialReference = uint2str(serialNumber);\r\n        \r\n        string memory ssccWithoutCheck = string(abi.encodePacked(prefix, companyPrefix, serialReference));\r\n        uint8 checkDigit = calculateCheckDigit(ssccWithoutCheck);\r\n        \r\n        string memory sscc = string(abi.encodePacked(ssccWithoutCheck, uint2str(uint256(checkDigit))));\r\n        \r\n        return sscc;\r\n    }\r\n\r\n    function calculateCheckDigit(string memory _code) private pure returns (uint8) {\r\n        bytes memory codeBytes = bytes(_code);\r\n        uint256 sum = 0;\r\n        for (uint256 i = 0; i < codeBytes.length; i++) {\r\n            uint8 digit = uint8(codeBytes[i]) - 48;\r\n            sum += (i % 2 == 0) ? digit * 3 : digit;\r\n        }\r\n        uint8 checkDigit = uint8((10 - (sum % 10)) % 10);\r\n        return checkDigit;\r\n    }\r\n\r\n    function uint2str(uint256 _i) private pure returns (string memory) {\r\n        if (_i == 0) {\r\n            return \"0\";\r\n        }\r\n        uint256 j = _i;\r\n        uint256 length;\r\n        while (j != 0) {\r\n            length++;\r\n            j /= 10;\r\n        }\r\n        bytes memory bstr = new bytes(length);\r\n        uint256 k = length;\r\n        while (_i != 0) {\r\n            k = k-1;\r\n            uint8 temp = (48 + uint8(_i - _i / 10 * 10));\r\n            bytes1 b1 = bytes1(temp);\r\n            bstr[k] = b1;\r\n            _i /= 10;\r\n        }\r\n        return string(bstr);\r\n    }\r\n\r\n    function _createBatch(BatchParams memory params) private returns (uint256) {\r\n        require(_ssccToBatchId[params.sscc] == 0, \"SSCC already exists\");\r\n        require(bytes(params.quantity).length > 0, \"Quantity must not be empty\");\r\n        require(params.productImageUrls.length > 0, \"At least one product image URL is required\");\r\n        require(bytes(params.certificateImageUrl).length > 0, \"Certificate image URL is required\");\r\n        require(bytes(params.farmPlotNumber).length > 0, \"Farm plot number is required\");\r\n        require(params.productId > 0, \"Product ID must be valid\");\r\n        require(params.startDate > 0, \"Start date is required\");\r\n        require(params.endDate > 0, \"End date is required\");\r\n        require(params.startDate < params.endDate, \"Start date must be before end date\");\r\n        require(bytes(params.name).length > 0, \"Batch name must not be empty\");\r\n\r\n        _batchIdCounter++;\r\n        uint256 newBatchId = _batchIdCounter;\r\n\r\n        uint256 productionDate = block.timestamp;\r\n\r\n        bytes32 dataHash = _calculateDataHash(\r\n            params.sscc,\r\n            params.producerId,\r\n            params.quantity,\r\n            productionDate,\r\n            params.farmPlotNumber,\r\n            params.productId,\r\n            params.name  // Thm tn l hng vo hm bm\r\n        );\r\n\r\n        Batch memory newBatch = Batch({\r\n            batchId: newBatchId,\r\n            name: params.name,  // Thm tn l hng\r\n            sscc: params.sscc,\r\n            producerId: params.producerId,\r\n            quantity: params.quantity,\r\n            productionDate: productionDate,\r\n            startDate: params.startDate,\r\n            endDate: params.endDate,\r\n            status: BatchStatus.PendingApproval,\r\n            productImageUrls: params.productImageUrls,\r\n            certificateImageUrl: params.certificateImageUrl,\r\n            farmPlotNumber: params.farmPlotNumber,\r\n            dataHash: dataHash,\r\n            productId: params.productId,\r\n            transportStatus: TransportStatus.NotTransported,\r\n            detailedTransportStatus: DetailedTransportStatus.NotStarted,\r\n            lastTransporterId: 0,\r\n            warehouseConfirmed: false  // Thm trng mi ny\r\n        });\r\n\r\n        _batches[newBatchId] = newBatch;\r\n        _ssccToBatchId[params.sscc] = newBatchId;\r\n\r\n        emit BatchCreated(newBatchId, params.sscc, params.producerId);\r\n        return newBatchId;\r\n    }\r\n    \r\n\r\n    function addActivityLog(\r\n        uint256 _uid,\r\n        string memory _activityName,\r\n        string memory _description,\r\n        string[] memory _imageUrls,\r\n        uint256[] memory _relatedProductIds\r\n    ) public {\r\n        ActivityLog memory newLog = ActivityLog({\r\n            timestamp: block.timestamp,\r\n            uid: _uid,\r\n            activityName: _activityName,\r\n            description: _description,\r\n            isSystemGenerated: false,\r\n            imageUrls: _imageUrls,\r\n            relatedProductIds: _relatedProductIds\r\n        });\r\n\r\n        _producerActivityLogs[_uid].push(newLog);\r\n        emit ActivityLogAdded(_uid, _activityName, _description, false, _imageUrls, _relatedProductIds);\r\n    }\r\n // Hm  ly nht k hot ng ca mt nh sn xut\r\n    function getProducerActivityLogs(uint256 _uid) public view returns (ActivityLog[] memory) {\r\n        return _producerActivityLogs[_uid];\r\n    }\r\n\r\n    \r\n    // Hm ni b  h thng t ng thm nht k\r\n    function _addSystemActivityLog(\r\n        uint256 _uid,\r\n        string memory _activityName,\r\n        string memory _description,\r\n        uint256[] memory _relatedProductIds\r\n    ) internal {\r\n        string[] memory emptyImageUrls = new string[](0);\r\n        ActivityLog memory newLog = ActivityLog({\r\n            timestamp: block.timestamp,\r\n            uid: _uid,\r\n            activityName: _activityName,\r\n            description: _description,\r\n            isSystemGenerated: true,\r\n            imageUrls: emptyImageUrls,\r\n            relatedProductIds: _relatedProductIds\r\n        });\r\n\r\n        _producerActivityLogs[_uid].push(newLog);\r\n        emit ActivityLogAdded(_uid, _activityName, _description, true, emptyImageUrls, _relatedProductIds);\r\n    }\r\n    \r\n    function _calculateDataHash(\r\n        string memory _sscc,\r\n        uint256 _producerId,\r\n        string memory _quantity,\r\n        uint256 _productionDate,\r\n        string memory _farmPlotNumber,\r\n        uint256 _productId,\r\n        string memory _name  // Thm tn l hng\r\n    ) private pure returns (bytes32) {\r\n        return keccak256(abi.encodePacked(_sscc, _producerId, _quantity, _productionDate, _farmPlotNumber, _productId, _name));\r\n    }\r\n    // hm kim tra sscc  tn ti hay cha \r\n    function ssccExists(string memory sscc) public view returns (bool) {\r\n        return _ssccToBatchId[sscc] != 0;\r\n    }\r\n\r\n    // Hm mi  ly danh sch cc l hng da trn producerId\r\n    function getBatchesByProducer(uint256 producerId) public view returns (Batch[] memory) {\r\n        uint256 count = 0;\r\n        for (uint256 i = 1; i <= _batchIdCounter; i++) {\r\n            if (_batches[i].producerId == producerId) {\r\n                count++;\r\n            }\r\n        }\r\n\r\n        Batch[] memory batches = new Batch[](count);\r\n        uint256 index = 0;\r\n        for (uint256 i = 1; i <= _batchIdCounter; i++) {\r\n            if (_batches[i].producerId == producerId) {\r\n                batches[index] = _batches[i];\r\n                index++;\r\n            }\r\n        }\r\n\r\n        return batches;\r\n    }\r\n\r\n    // hm cp nht trng thi l hng\r\nfunction updateBatchStatus(uint256 _batchId, BatchStatus _newStatus) public {\r\n    require(_batches[_batchId].batchId != 0, \"Batch does not exist\");\r\n    // Thm kim tra quyn nu cn\r\n    _batches[_batchId].status = _newStatus;\r\n    emit BatchStatusUpdated(_batchId, _newStatus);\r\n}\r\nfunction getPendingBatchesByProducer(uint256 _producerId) public view returns (Batch[] memory) {\r\n    uint256 pendingCount = 0;\r\n    for (uint256 i = 1; i <= _batchIdCounter; i++) {\r\n        if (_batches[i].producerId == _producerId && _batches[i].status == BatchStatus.PendingApproval) {\r\n            pendingCount++;\r\n        }\r\n    }\r\n    Batch[] memory pendingBatches = new Batch[](pendingCount);\r\n    uint256 index = 0;\r\n    for (uint256 i = 1; i <= _batchIdCounter; i++) {\r\n        if (_batches[i].producerId == _producerId && _batches[i].status == BatchStatus.PendingApproval) {\r\n            pendingBatches[index] = _batches[i];\r\n            index++;\r\n        }\r\n    }\r\n\r\n    return pendingBatches;\r\n}\r\n\r\nfunction getRejectedBatchesByProducer(uint256 _producerId) public view returns (Batch[] memory) {\r\n    uint256 rejectedCount = 0;\r\n    for (uint256 i = 1; i <= _batchIdCounter; i++) {\r\n        if (_batches[i].producerId == _producerId && _batches[i].status == BatchStatus.Rejected) {\r\n            rejectedCount++;\r\n        }\r\n    }\r\n\r\n    Batch[] memory rejectedBatches = new Batch[](rejectedCount);\r\n    uint256 index = 0;\r\n    for (uint256 i = 1; i <= _batchIdCounter; i++) {\r\n        if (_batches[i].producerId == _producerId && _batches[i].status == BatchStatus.Rejected) {\r\n            rejectedBatches[index] = _batches[i];\r\n            index++;\r\n        }\r\n    }\r\n\r\n    return rejectedBatches;\r\n}\r\nfunction getAllPendingBatches() public view returns (Batch[] memory) {\r\n        uint256 pendingCount = 0;\r\n        for (uint256 i = 1; i <= _batchIdCounter; i++) {\r\n            if (_batches[i].status == BatchStatus.PendingApproval) {\r\n                pendingCount++;\r\n            }\r\n        }\r\n\r\n        Batch[] memory pendingBatches = new Batch[](pendingCount);\r\n        uint256 index = 0;\r\n        for (uint256 i = 1; i <= _batchIdCounter; i++) {\r\n            if (_batches[i].status == BatchStatus.PendingApproval) {\r\n                pendingBatches[index] = _batches[i];\r\n                index++;\r\n            }\r\n        }\r\n\r\n        return pendingBatches;\r\n    }\r\n\r\nevent BatchStatusUpdated(uint256 indexed batchId, BatchStatus newStatus);\r\n\r\n// hm ly thng tin l hng\r\nfunction getBatchDetails(uint256 _batchId) public view returns (Batch memory) {\r\n    require(_batches[_batchId].batchId != 0, \"Batch does not exist\");\r\n    return _batches[_batchId];\r\n}\r\n\r\n\r\nfunction getTotalBatches() public view returns (uint256) {\r\n    return _batchIdCounter;\r\n}\r\n\r\nfunction isProducerOfBatch(uint256 _batchId, uint256 _producerId) public view returns (bool) {\r\n    return _batches[_batchId].producerId == _producerId;\r\n}\r\n\r\n// Thm hm ny vo smart contract\r\nfunction getActivityLogs(uint256 _uid) public view returns (ActivityLog[] memory) {\r\n    return _producerActivityLogs[_uid];\r\n}\r\nfunction getActivityLogCount(uint256 _uid) public view returns (uint256) {\r\n    return _producerActivityLogs[_uid].length;\r\n}\r\n\r\nmodifier onlyApprover() {\r\n    // Implement logic to check if msg.sender is an approver\r\n    _;\r\n}\r\n\r\nfunction approveBatch(uint256 _batchId) public onlyApprover {\r\n    require(_batches[_batchId].batchId != 0, \"Batch does not exist\");\r\n    require(_batches[_batchId].status == BatchStatus.PendingApproval, \"Batch is not pending approval\");\r\n\r\n    _batches[_batchId].status = BatchStatus.Approved;\r\n    _approvedBatches[_batchId] = true;\r\n\r\n    emit BatchApproved(_batchId, _batches[_batchId].producerId, _batches[_batchId].sscc);\r\n    emit BatchApprovedForQR(_batchId, _batches[_batchId].producerId, _batches[_batchId].sscc);\r\n    \r\n    // Add system activity log\r\n    uint256[] memory relatedProductIds = new uint256[](1);\r\n    relatedProductIds[0] = _batches[_batchId].productId;\r\n    _addSystemActivityLog(_batches[_batchId].producerId, \"Batch Approved\", \"Batch has been approved by the approver\", relatedProductIds);\r\n}\r\n\r\nfunction rejectBatch(uint256 _batchId) public onlyApprover {\r\n    require(_batches[_batchId].batchId != 0, \"Batch does not exist\");\r\n    require(_batches[_batchId].status == BatchStatus.PendingApproval, \"Batch is not pending approval\");\r\n\r\n    _batches[_batchId].status = BatchStatus.Rejected;\r\n\r\n    emit BatchRejected(_batchId, _batches[_batchId].producerId, _batches[_batchId].sscc);\r\n    \r\n    // Add system activity log\r\n    uint256[] memory relatedProductIds = new uint256[](1);\r\n    relatedProductIds[0] = _batches[_batchId].productId;\r\n    _addSystemActivityLog(_batches[_batchId].producerId, \"Batch Rejected\", \"Batch has been rejected by the approver\", relatedProductIds);\r\n}\r\n\r\nevent BatchRejected(uint256 indexed batchId, uint256 producerId, string sscc);\r\n\r\nfunction getApprovedBatchesByProducer(uint256 _producerId) public view returns (Batch[] memory) {\r\n    uint256 approvedCount = 0;\r\n    for (uint256 i = 1; i <= _batchIdCounter; i++) {\r\n        if (_batches[i].producerId == _producerId && _batches[i].status == BatchStatus.Approved) {\r\n            approvedCount++;\r\n        }\r\n    }\r\n\r\n    Batch[] memory approvedBatches = new Batch[](approvedCount);\r\n    uint256 index = 0;\r\n    for (uint256 i = 1; i <= _batchIdCounter; i++) {\r\n        if (_batches[i].producerId == _producerId && _batches[i].status == BatchStatus.Approved) {\r\n            approvedBatches[index] = _batches[i];\r\n            index++;\r\n        }\r\n    }\r\n\r\n    return approvedBatches;\r\n}\r\n\r\nfunction getBatchBySSCC(string memory _sscc) public view returns (Batch memory) {\r\n    uint256 batchId = _ssccToBatchId[_sscc];\r\n    require(batchId != 0, \"Batch does not exist with this SSCC\");\r\n    return _batches[batchId];\r\n}\r\n\r\nfunction isValidSSCC(string memory _sscc) public view returns (bool) {\r\n    return _ssccToBatchId[_sscc] != 0;\r\n}\r\n\r\nfunction isBatchApproved(uint256 _batchId) public view returns (bool) {\r\n    return _approvedBatches[_batchId];\r\n}\r\n\r\nfunction recordParticipation(uint256 _batchId, uint256 _participantId, string memory _participantType, string memory _action) public {\r\n    require(_batches[_batchId].batchId != 0, \"Batch does not exist\");\r\n    _batchParticipations[_batchId].push(Participation(_participantId, _participantType, block.timestamp, _action));\r\n    \r\n    emit ParticipationRecorded(_batchId, _participantId, _participantType, _action);\r\n}\r\nevent LogParticipantType(uint256 indexed batchId, string participantType);\r\nfunction updateTransportStatus(\r\n    uint256 _batchId, \r\n    uint256 _participantId, \r\n    string memory _action, \r\n    string memory _participantType\r\n) public {\r\n    require(\r\n        keccak256(abi.encodePacked(_participantType)) == keccak256(abi.encodePacked(\"Transporter\")) ||\r\n        keccak256(abi.encodePacked(_participantType)) == keccak256(abi.encodePacked(\"Warehouse\")),\r\n        \"Invalid participant type\"\r\n    );\r\n    \r\n    require(_batches[_batchId].batchId != 0, \"Batch does not exist\");\r\n    require(_batches[_batchId].status == BatchStatus.Approved, \"Batch must be approved\");\r\n\r\n    TransportEvent memory newEvent = TransportEvent({\r\n        participantId: _participantId,\r\n        timestamp: block.timestamp,\r\n        action: _action,\r\n        participantType: _participantType\r\n    });\r\n    \r\n    _batchTransportEvents[_batchId].push(newEvent);\r\n    \r\n    if (keccak256(abi.encodePacked(_action)) == keccak256(abi.encodePacked(\"Bat dau van chuyen\"))) {\r\n        _batches[_batchId].detailedTransportStatus = DetailedTransportStatus.InTransit;\r\n        _batches[_batchId].transportStatus = TransportStatus.InTransit;\r\n        _batches[_batchId].lastTransporterId = _participantId;\r\n    } else if (keccak256(abi.encodePacked(_action)) == keccak256(abi.encodePacked(\"Tam dung van chuyen\"))) {\r\n        _batches[_batchId].detailedTransportStatus = DetailedTransportStatus.Paused;\r\n    } else if (keccak256(abi.encodePacked(_action)) == keccak256(abi.encodePacked(\"Tiep tuc van chuyen\"))) {\r\n        _batches[_batchId].detailedTransportStatus = DetailedTransportStatus.InTransit;\r\n    } else if (keccak256(abi.encodePacked(_action)) == keccak256(abi.encodePacked(\"Hoan thanh van chuyen\"))) {\r\n        _batches[_batchId].detailedTransportStatus = DetailedTransportStatus.Delivered;\r\n        _batches[_batchId].transportStatus = TransportStatus.Delivered;\r\n    }\r\n    \r\n    emit TransportStatusUpdated(_batchId, _batches[_batchId].detailedTransportStatus, _action, _participantId, _participantType);\r\n}\r\nfunction updateTransportStatusBySSCC(\r\n    string memory _sscc, \r\n    uint256 _participantId, \r\n    string memory _action, \r\n    string memory _participantType\r\n) public {\r\n    uint256 batchId = _ssccToBatchId[_sscc];\r\n    require(batchId != 0, \"Batch does not exist with this SSCC\");\r\n    updateTransportStatus(batchId, _participantId, _action, _participantType);\r\n}\r\n\r\n// i tn s kin\r\n\r\nfunction warehouseConfirmation(uint256 _batchId, uint256 _warehouseId) public {\r\n    require(_batches[_batchId].transportStatus == TransportStatus.Delivered, \"Batch must be delivered before warehouse confirmation\");\r\n    require(_batches[_batchId].detailedTransportStatus == DetailedTransportStatus.Delivered, \"Batch must be in Delivered status\");\r\n    \r\n    // Thm logic xc nhn ca nh kho  y\r\n    _batches[_batchId].warehouseConfirmed = true;\r\n    \r\n    // Ghi nhn s tham gia ca nh kho\r\n    Participation memory newParticipation = Participation({\r\n        participantId: _warehouseId,\r\n        participantType: \"Warehouse\",\r\n        timestamp: block.timestamp,\r\n        action: \"Confirmed receipt at warehouse\"\r\n    });\r\n    _batchParticipations[_batchId].push(newParticipation);\r\n    \r\n    // Pht ra s kin vi tn mi\r\n    emit WarehouseConfirmed(_batchId, _warehouseId);\r\n}\r\nfunction getBatchIdBySSCC(string memory _sscc) public view returns (uint256) {\r\n    return _ssccToBatchId[_sscc];\r\n}\r\n\r\nfunction getDetailedTransportStatus(uint256 _batchId) public view returns (DetailedTransportStatus) {\r\n    require(_batches[_batchId].batchId != 0, \"Batch does not exist\");\r\n    return _batches[_batchId].detailedTransportStatus;\r\n}\r\nfunction canStartTransport(uint256 _batchId, uint256 _transporterId) public view returns (bool) {\r\n    return _batches[_batchId].detailedTransportStatus == DetailedTransportStatus.NotStarted ||\r\n           (_batches[_batchId].detailedTransportStatus == DetailedTransportStatus.Delivered && _batches[_batchId].lastTransporterId != _transporterId);\r\n}\r\nfunction getTransportHistoryBySSCC(string memory _sscc) public view returns (TransportEvent[] memory) {\r\n    uint256 batchId = _ssccToBatchId[_sscc];\r\n    require(batchId != 0, \"Batch does not exist with this SSCC\");\r\n    return _batchTransportEvents[batchId];\r\n}\r\n// Thm hm  kim tra trng thi vn chuyn\r\nfunction getBatchTransportStatus(uint256 _batchId) public view returns (TransportStatus) {\r\n    require(_batches[_batchId].batchId != 0, \"Batch does not exist\");\r\n    return _batches[_batchId].transportStatus;\r\n}\r\n\r\n\r\n\r\n}\r\n",
  "sourcePath": "D:\\projects\\nckh-be\\blockchain\\contracts\\supplychain.sol",
  "compiler": {
    "name": "solc",
    "version": "0.8.20+commit.a1b79de6.Emscripten.clang"
  },
  "schemaVersion": "3.4.16",
  "updatedAt": "2024-09-20T11:58:19.261Z",
  "devdoc": {
    "kind": "dev",
    "methods": {},
    "version": 1
  },
  "userdoc": {
    "kind": "user",
    "methods": {},
    "version": 1
  }
}