{
  "contractName": "TraceabilityContract",
  "abi": [
    {
      "anonymous": false,
      "inputs": [
        {
          "indexed": true,
          "internalType": "uint256",
          "name": "uid",
          "type": "uint256"
        },
        {
          "indexed": false,
          "internalType": "string",
          "name": "activityName",
          "type": "string"
        },
        {
          "indexed": false,
          "internalType": "string",
          "name": "description",
          "type": "string"
        },
        {
          "indexed": false,
          "internalType": "bool",
          "name": "isSystemGenerated",
          "type": "bool"
        },
        {
          "indexed": false,
          "internalType": "string[]",
          "name": "imageUrls",
          "type": "string[]"
        },
        {
          "indexed": false,
          "internalType": "uint256[]",
          "name": "relatedProductIds",
          "type": "uint256[]"
        }
      ],
      "name": "ActivityLogAdded",
      "type": "event"
    },
    {
      "anonymous": false,
      "inputs": [
        {
          "indexed": true,
          "internalType": "uint256",
          "name": "batchId",
          "type": "uint256"
        },
        {
          "indexed": false,
          "internalType": "string",
          "name": "sscc",
          "type": "string"
        },
        {
          "indexed": false,
          "internalType": "uint256",
          "name": "producerId",
          "type": "uint256"
        }
      ],
      "name": "BatchCreated",
      "type": "event"
    },
    {
      "anonymous": false,
      "inputs": [
        {
          "indexed": true,
          "internalType": "uint256",
          "name": "batchId",
          "type": "uint256"
        },
        {
          "indexed": false,
          "internalType": "enum TraceabilityContract.BatchStatus",
          "name": "newStatus",
          "type": "uint8"
        }
      ],
      "name": "BatchStatusUpdated",
      "type": "event"
    },
    {
      "inputs": [
        {
          "internalType": "string",
          "name": "_sscc",
          "type": "string"
        },
        {
          "internalType": "uint256",
          "name": "_producerId",
          "type": "uint256"
        },
        {
          "internalType": "string",
          "name": "_quantity",
          "type": "string"
        },
        {
          "internalType": "string[]",
          "name": "_productImageUrls",
          "type": "string[]"
        },
        {
          "internalType": "string",
          "name": "_certificateImageUrl",
          "type": "string"
        },
        {
          "internalType": "string",
          "name": "_farmPlotNumber",
          "type": "string"
        },
        {
          "internalType": "uint256",
          "name": "_productId",
          "type": "uint256"
        },
        {
          "internalType": "uint256",
          "name": "_startDate",
          "type": "uint256"
        },
        {
          "internalType": "uint256",
          "name": "_endDate",
          "type": "uint256"
        }
      ],
      "name": "createBatch",
      "outputs": [
        {
          "internalType": "uint256",
          "name": "",
          "type": "uint256"
        }
      ],
      "stateMutability": "nonpayable",
      "type": "function"
    },
    {
      "inputs": [
        {
          "internalType": "uint256",
          "name": "_uid",
          "type": "uint256"
        },
        {
          "internalType": "string",
          "name": "_activityName",
          "type": "string"
        },
        {
          "internalType": "string",
          "name": "_description",
          "type": "string"
        },
        {
          "internalType": "string[]",
          "name": "_imageUrls",
          "type": "string[]"
        },
        {
          "internalType": "uint256[]",
          "name": "_relatedProductIds",
          "type": "uint256[]"
        }
      ],
      "name": "addActivityLog",
      "outputs": [],
      "stateMutability": "nonpayable",
      "type": "function"
    },
    {
      "inputs": [
        {
          "internalType": "uint256",
          "name": "_uid",
          "type": "uint256"
        }
      ],
      "name": "getProducerActivityLogs",
      "outputs": [
        {
          "components": [
            {
              "internalType": "uint256",
              "name": "timestamp",
              "type": "uint256"
            },
            {
              "internalType": "uint256",
              "name": "uid",
              "type": "uint256"
            },
            {
              "internalType": "string",
              "name": "activityName",
              "type": "string"
            },
            {
              "internalType": "string",
              "name": "description",
              "type": "string"
            },
            {
              "internalType": "bool",
              "name": "isSystemGenerated",
              "type": "bool"
            },
            {
              "internalType": "string[]",
              "name": "imageUrls",
              "type": "string[]"
            },
            {
              "internalType": "uint256[]",
              "name": "relatedProductIds",
              "type": "uint256[]"
            }
          ],
          "internalType": "struct TraceabilityContract.ActivityLog[]",
          "name": "",
          "type": "tuple[]"
        }
      ],
      "stateMutability": "view",
      "type": "function",
      "constant": true
    },
    {
      "inputs": [
        {
          "internalType": "string",
          "name": "sscc",
          "type": "string"
        }
      ],
      "name": "ssccExists",
      "outputs": [
        {
          "internalType": "bool",
          "name": "",
          "type": "bool"
        }
      ],
      "stateMutability": "view",
      "type": "function",
      "constant": true
    },
    {
      "inputs": [
        {
          "internalType": "uint256",
          "name": "producerId",
          "type": "uint256"
        }
      ],
      "name": "getBatchesByProducer",
      "outputs": [
        {
          "components": [
            {
              "internalType": "uint256",
              "name": "batchId",
              "type": "uint256"
            },
            {
              "internalType": "string",
              "name": "sscc",
              "type": "string"
            },
            {
              "internalType": "uint256",
              "name": "producerId",
              "type": "uint256"
            },
            {
              "internalType": "string",
              "name": "quantity",
              "type": "string"
            },
            {
              "internalType": "uint256",
              "name": "productionDate",
              "type": "uint256"
            },
            {
              "internalType": "uint256",
              "name": "startDate",
              "type": "uint256"
            },
            {
              "internalType": "uint256",
              "name": "endDate",
              "type": "uint256"
            },
            {
              "internalType": "enum TraceabilityContract.BatchStatus",
              "name": "status",
              "type": "uint8"
            },
            {
              "internalType": "string[]",
              "name": "productImageUrls",
              "type": "string[]"
            },
            {
              "internalType": "string",
              "name": "certificateImageUrl",
              "type": "string"
            },
            {
              "internalType": "string",
              "name": "farmPlotNumber",
              "type": "string"
            },
            {
              "internalType": "bytes32",
              "name": "dataHash",
              "type": "bytes32"
            },
            {
              "internalType": "uint256",
              "name": "productId",
              "type": "uint256"
            }
          ],
          "internalType": "struct TraceabilityContract.Batch[]",
          "name": "",
          "type": "tuple[]"
        }
      ],
      "stateMutability": "view",
      "type": "function",
      "constant": true
    },
    {
      "inputs": [
        {
          "internalType": "uint256",
          "name": "_batchId",
          "type": "uint256"
        },
        {
          "internalType": "enum TraceabilityContract.BatchStatus",
          "name": "_newStatus",
          "type": "uint8"
        }
      ],
      "name": "updateBatchStatus",
      "outputs": [],
      "stateMutability": "nonpayable",
      "type": "function"
    },
    {
      "inputs": [
        {
          "internalType": "uint256",
          "name": "_batchId",
          "type": "uint256"
        }
      ],
      "name": "getBatchDetails",
      "outputs": [
        {
          "components": [
            {
              "internalType": "uint256",
              "name": "batchId",
              "type": "uint256"
            },
            {
              "internalType": "string",
              "name": "sscc",
              "type": "string"
            },
            {
              "internalType": "uint256",
              "name": "producerId",
              "type": "uint256"
            },
            {
              "internalType": "string",
              "name": "quantity",
              "type": "string"
            },
            {
              "internalType": "uint256",
              "name": "productionDate",
              "type": "uint256"
            },
            {
              "internalType": "uint256",
              "name": "startDate",
              "type": "uint256"
            },
            {
              "internalType": "uint256",
              "name": "endDate",
              "type": "uint256"
            },
            {
              "internalType": "enum TraceabilityContract.BatchStatus",
              "name": "status",
              "type": "uint8"
            },
            {
              "internalType": "string[]",
              "name": "productImageUrls",
              "type": "string[]"
            },
            {
              "internalType": "string",
              "name": "certificateImageUrl",
              "type": "string"
            },
            {
              "internalType": "string",
              "name": "farmPlotNumber",
              "type": "string"
            },
            {
              "internalType": "bytes32",
              "name": "dataHash",
              "type": "bytes32"
            },
            {
              "internalType": "uint256",
              "name": "productId",
              "type": "uint256"
            }
          ],
          "internalType": "struct TraceabilityContract.Batch",
          "name": "",
          "type": "tuple"
        }
      ],
      "stateMutability": "view",
      "type": "function",
      "constant": true
    },
    {
      "inputs": [
        {
          "internalType": "string",
          "name": "_sscc",
          "type": "string"
        }
      ],
      "name": "getBatchBySSCC",
      "outputs": [
        {
          "components": [
            {
              "internalType": "uint256",
              "name": "batchId",
              "type": "uint256"
            },
            {
              "internalType": "string",
              "name": "sscc",
              "type": "string"
            },
            {
              "internalType": "uint256",
              "name": "producerId",
              "type": "uint256"
            },
            {
              "internalType": "string",
              "name": "quantity",
              "type": "string"
            },
            {
              "internalType": "uint256",
              "name": "productionDate",
              "type": "uint256"
            },
            {
              "internalType": "uint256",
              "name": "startDate",
              "type": "uint256"
            },
            {
              "internalType": "uint256",
              "name": "endDate",
              "type": "uint256"
            },
            {
              "internalType": "enum TraceabilityContract.BatchStatus",
              "name": "status",
              "type": "uint8"
            },
            {
              "internalType": "string[]",
              "name": "productImageUrls",
              "type": "string[]"
            },
            {
              "internalType": "string",
              "name": "certificateImageUrl",
              "type": "string"
            },
            {
              "internalType": "string",
              "name": "farmPlotNumber",
              "type": "string"
            },
            {
              "internalType": "bytes32",
              "name": "dataHash",
              "type": "bytes32"
            },
            {
              "internalType": "uint256",
              "name": "productId",
              "type": "uint256"
            }
          ],
          "internalType": "struct TraceabilityContract.Batch",
          "name": "",
          "type": "tuple"
        }
      ],
      "stateMutability": "view",
      "type": "function",
      "constant": true
    },
    {
      "inputs": [],
      "name": "getTotalBatches",
      "outputs": [
        {
          "internalType": "uint256",
          "name": "",
          "type": "uint256"
        }
      ],
      "stateMutability": "view",
      "type": "function",
      "constant": true
    },
    {
      "inputs": [
        {
          "internalType": "uint256",
          "name": "_batchId",
          "type": "uint256"
        },
        {
          "internalType": "uint256",
          "name": "_producerId",
          "type": "uint256"
        }
      ],
      "name": "isProducerOfBatch",
      "outputs": [
        {
          "internalType": "bool",
          "name": "",
          "type": "bool"
        }
      ],
      "stateMutability": "view",
      "type": "function",
      "constant": true
    },
    {
      "inputs": [
        {
          "internalType": "uint256",
          "name": "_uid",
          "type": "uint256"
        }
      ],
      "name": "getActivityLogs",
      "outputs": [
        {
          "components": [
            {
              "internalType": "uint256",
              "name": "timestamp",
              "type": "uint256"
            },
            {
              "internalType": "uint256",
              "name": "uid",
              "type": "uint256"
            },
            {
              "internalType": "string",
              "name": "activityName",
              "type": "string"
            },
            {
              "internalType": "string",
              "name": "description",
              "type": "string"
            },
            {
              "internalType": "bool",
              "name": "isSystemGenerated",
              "type": "bool"
            },
            {
              "internalType": "string[]",
              "name": "imageUrls",
              "type": "string[]"
            },
            {
              "internalType": "uint256[]",
              "name": "relatedProductIds",
              "type": "uint256[]"
            }
          ],
          "internalType": "struct TraceabilityContract.ActivityLog[]",
          "name": "",
          "type": "tuple[]"
        }
      ],
      "stateMutability": "view",
      "type": "function",
      "constant": true
    },
    {
      "inputs": [
        {
          "internalType": "uint256",
          "name": "_uid",
          "type": "uint256"
        }
      ],
      "name": "getActivityLogCount",
      "outputs": [
        {
          "internalType": "uint256",
          "name": "",
          "type": "uint256"
        }
      ],
      "stateMutability": "view",
      "type": "function",
      "constant": true
    }
  ],
  "bytecode": "0x608060405234801561001057600080fd5b50613afa806100206000396000f3fe608060405234801561001057600080fd5b50600436106100b45760003560e01c80639d47dcc0116100715780639d47dcc0146101c5578063bf193ffa146101f5578063d9860bfc14610211578063e561dddc14610241578063f7f097f41461025f578063f9b8da0e1461028f576100b4565b806304008078146100b95780630e6e369c146100e957806336c701e11461011957806352c88f361461014957806380e32d451461016557806385bdd03f14610195575b600080fd5b6100d360048036038101906100ce919061217a565b6102bf565b6040516100e091906121de565b60405180910390f35b61010360048036038101906100fe919061222f565b6102ea565b60405161011091906125dd565b60405180910390f35b610133600480360381019061012e91906126e5565b6105e0565b604051610140919061284a565b60405180910390f35b610163600480360381019061015e919061288a565b61063e565b005b61017f600480360381019061017a919061222f565b610711565b60405161018c9190612b51565b60405180910390f35b6101af60048036038101906101aa919061222f565b610bf7565b6040516101bc919061284a565b60405180910390f35b6101df60048036038101906101da919061222f565b610c17565b6040516101ec9190612ca8565b60405180910390f35b61020f600480360381019061020a9190612d8d565b611040565b005b61022b6004803603810190610226919061217a565b61119c565b6040516102389190612ca8565b60405180910390f35b6102496115d3565b604051610256919061284a565b60405180910390f35b6102796004803603810190610274919061222f565b6115dc565b60405161028691906125dd565b60405180910390f35b6102a960048036038101906102a49190612e78565b6118d2565b6040516102b691906121de565b60405180910390f35b6000806002836040516102d29190612ef4565b90815260200160405180910390205414159050919050565b606060036000838152602001908152602001600020805480602002602001604051908101604052809291908181526020016000905b828210156105d557838290600052602060002090600702016040518060e0016040529081600082015481526020016001820154815260200160028201805461036690612f3a565b80601f016020809104026020016040519081016040528092919081815260200182805461039290612f3a565b80156103df5780601f106103b4576101008083540402835291602001916103df565b820191906000526020600020905b8154815290600101906020018083116103c257829003601f168201915b505050505081526020016003820180546103f890612f3a565b80601f016020809104026020016040519081016040528092919081815260200182805461042490612f3a565b80156104715780601f1061044657610100808354040283529160200191610471565b820191906000526020600020905b81548152906001019060200180831161045457829003601f168201915b505050505081526020016004820160009054906101000a900460ff1615151515815260200160058201805480602002602001604051908101604052809291908181526020016000905b828210156105665783829060005260206000200180546104d990612f3a565b80601f016020809104026020016040519081016040528092919081815260200182805461050590612f3a565b80156105525780601f1061052757610100808354040283529160200191610552565b820191906000526020600020905b81548152906001019060200180831161053557829003601f168201915b5050505050815260200190600101906104ba565b505050508152602001600682018054806020026020016040519081016040528092919081815260200182805480156105bd57602002820191906000526020600020905b8154815260200190600101908083116105a9575b5050505050815250508152602001906001019061031f565b505050509050919050565b6000806040518061012001604052808c81526020018b81526020018a815260200189815260200188815260200187815260200186815260200185815260200184815250905061062e816118f5565b9150509998505050505050505050565b6000600160008481526020019081526020016000206000015403610697576040517f08c379a000000000000000000000000000000000000000000000000000000000815260040161068e90612fc8565b60405180910390fd5b806001600084815260200190815260200160002060070160006101000a81548160ff021916908360038111156106d0576106cf6128f6565b5b0217905550817fcf4d4f3dcd5294f4d19269f489155c2187699f4a9fb9004b6a303752b00b282f826040516107059190612ff7565b60405180910390a25050565b6060600080600190505b6000548111610763578360016000838152602001908152602001600020600201540361075057818061074c90613041565b9250505b808061075b90613041565b91505061071b565b5060008167ffffffffffffffff8111156107805761077f61204f565b5b6040519080825280602002602001820160405280156107b957816020015b6107a6611e7c565b81526020019060019003908161079e5790505b509050600080600190505b6000548111610beb5785600160008381526020019081526020016000206002015403610bd85760016000828152602001908152602001600020604051806101a00160405290816000820154815260200160018201805461082390612f3a565b80601f016020809104026020016040519081016040528092919081815260200182805461084f90612f3a565b801561089c5780601f106108715761010080835404028352916020019161089c565b820191906000526020600020905b81548152906001019060200180831161087f57829003601f168201915b50505050508152602001600282015481526020016003820180546108bf90612f3a565b80601f01602080910402602001604051908101604052809291908181526020018280546108eb90612f3a565b80156109385780601f1061090d57610100808354040283529160200191610938565b820191906000526020600020905b81548152906001019060200180831161091b57829003601f168201915b505050505081526020016004820154815260200160058201548152602001600682015481526020016007820160009054906101000a900460ff166003811115610984576109836128f6565b5b6003811115610996576109956128f6565b5b815260200160088201805480602002602001604051908101604052809291908181526020016000905b82821015610a6b5783829060005260206000200180546109de90612f3a565b80601f0160208091040260200160405190810160405280929190818152602001828054610a0a90612f3a565b8015610a575780601f10610a2c57610100808354040283529160200191610a57565b820191906000526020600020905b815481529060010190602001808311610a3a57829003601f168201915b5050505050815260200190600101906109bf565b505050508152602001600982018054610a8390612f3a565b80601f0160208091040260200160405190810160405280929190818152602001828054610aaf90612f3a565b8015610afc5780601f10610ad157610100808354040283529160200191610afc565b820191906000526020600020905b815481529060010190602001808311610adf57829003601f168201915b50505050508152602001600a82018054610b1590612f3a565b80601f0160208091040260200160405190810160405280929190818152602001828054610b4190612f3a565b8015610b8e5780601f10610b6357610100808354040283529160200191610b8e565b820191906000526020600020905b815481529060010190602001808311610b7157829003601f168201915b50505050508152602001600b8201548152602001600c82015481525050838381518110610bbe57610bbd613089565b5b60200260200101819052508180610bd490613041565b9250505b8080610be390613041565b9150506107c4565b50819350505050919050565b600060036000838152602001908152602001600020805490509050919050565b610c1f611e7c565b6000600160008481526020019081526020016000206000015403610c78576040517f08c379a0000000000000000000000000000000000000000000000000000000008152600401610c6f90612fc8565b60405180910390fd5b60016000838152602001908152602001600020604051806101a001604052908160008201548152602001600182018054610cb190612f3a565b80601f0160208091040260200160405190810160405280929190818152602001828054610cdd90612f3a565b8015610d2a5780601f10610cff57610100808354040283529160200191610d2a565b820191906000526020600020905b815481529060010190602001808311610d0d57829003601f168201915b5050505050815260200160028201548152602001600382018054610d4d90612f3a565b80601f0160208091040260200160405190810160405280929190818152602001828054610d7990612f3a565b8015610dc65780601f10610d9b57610100808354040283529160200191610dc6565b820191906000526020600020905b815481529060010190602001808311610da957829003601f168201915b505050505081526020016004820154815260200160058201548152602001600682015481526020016007820160009054906101000a900460ff166003811115610e1257610e116128f6565b5b6003811115610e2457610e236128f6565b5b815260200160088201805480602002602001604051908101604052809291908181526020016000905b82821015610ef9578382906000526020600020018054610e6c90612f3a565b80601f0160208091040260200160405190810160405280929190818152602001828054610e9890612f3a565b8015610ee55780601f10610eba57610100808354040283529160200191610ee5565b820191906000526020600020905b815481529060010190602001808311610ec857829003601f168201915b505050505081526020019060010190610e4d565b505050508152602001600982018054610f1190612f3a565b80601f0160208091040260200160405190810160405280929190818152602001828054610f3d90612f3a565b8015610f8a5780601f10610f5f57610100808354040283529160200191610f8a565b820191906000526020600020905b815481529060010190602001808311610f6d57829003601f168201915b50505050508152602001600a82018054610fa390612f3a565b80601f0160208091040260200160405190810160405280929190818152602001828054610fcf90612f3a565b801561101c5780601f10610ff15761010080835404028352916020019161101c565b820191906000526020600020905b815481529060010190602001808311610fff57829003601f168201915b50505050508152602001600b8201548152602001600c820154815250509050919050565b60006040518060e0016040528042815260200187815260200186815260200185815260200160001515815260200184815260200183815250905060036000878152602001908152602001600020819080600181540180825580915050600190039060005260206000209060070201600090919091909150600082015181600001556020820151816001015560408201518160020190816110e09190613264565b5060608201518160030190816110f69190613264565b5060808201518160040160006101000a81548160ff02191690831515021790555060a0820151816005019080519060200190611133929190611ef9565b5060c0820151816006019080519060200190611150929190611f52565b505050857f0fb336061951903d147e6b93ba30f6d47839e02426fcd5ee1876873afe47bab386866000878760405161118c959493929190613464565b60405180910390a2505050505050565b6111a4611e7c565b60006002836040516111b69190612ef4565b90815260200160405180910390205490506000810361120a576040517f08c379a000000000000000000000000000000000000000000000000000000000815260040161120190613545565b60405180910390fd5b60016000828152602001908152602001600020604051806101a00160405290816000820154815260200160018201805461124390612f3a565b80601f016020809104026020016040519081016040528092919081815260200182805461126f90612f3a565b80156112bc5780601f10611291576101008083540402835291602001916112bc565b820191906000526020600020905b81548152906001019060200180831161129f57829003601f168201915b50505050508152602001600282015481526020016003820180546112df90612f3a565b80601f016020809104026020016040519081016040528092919081815260200182805461130b90612f3a565b80156113585780601f1061132d57610100808354040283529160200191611358565b820191906000526020600020905b81548152906001019060200180831161133b57829003601f168201915b505050505081526020016004820154815260200160058201548152602001600682015481526020016007820160009054906101000a900460ff1660038111156113a4576113a36128f6565b5b60038111156113b6576113b56128f6565b5b815260200160088201805480602002602001604051908101604052809291908181526020016000905b8282101561148b5783829060005260206000200180546113fe90612f3a565b80601f016020809104026020016040519081016040528092919081815260200182805461142a90612f3a565b80156114775780601f1061144c57610100808354040283529160200191611477565b820191906000526020600020905b81548152906001019060200180831161145a57829003601f168201915b5050505050815260200190600101906113df565b5050505081526020016009820180546114a390612f3a565b80601f01602080910402602001604051908101604052809291908181526020018280546114cf90612f3a565b801561151c5780601f106114f15761010080835404028352916020019161151c565b820191906000526020600020905b8154815290600101906020018083116114ff57829003601f168201915b50505050508152602001600a8201805461153590612f3a565b80601f016020809104026020016040519081016040528092919081815260200182805461156190612f3a565b80156115ae5780601f10611583576101008083540402835291602001916115ae565b820191906000526020600020905b81548152906001019060200180831161159157829003601f168201915b50505050508152602001600b8201548152602001600c82015481525050915050919050565b60008054905090565b606060036000838152602001908152602001600020805480602002602001604051908101604052809291908181526020016000905b828210156118c757838290600052602060002090600702016040518060e0016040529081600082015481526020016001820154815260200160028201805461165890612f3a565b80601f016020809104026020016040519081016040528092919081815260200182805461168490612f3a565b80156116d15780601f106116a6576101008083540402835291602001916116d1565b820191906000526020600020905b8154815290600101906020018083116116b457829003601f168201915b505050505081526020016003820180546116ea90612f3a565b80601f016020809104026020016040519081016040528092919081815260200182805461171690612f3a565b80156117635780601f1061173857610100808354040283529160200191611763565b820191906000526020600020905b81548152906001019060200180831161174657829003601f168201915b505050505081526020016004820160009054906101000a900460ff1615151515815260200160058201805480602002602001604051908101604052809291908181526020016000905b828210156118585783829060005260206000200180546117cb90612f3a565b80601f01602080910402602001604051908101604052809291908181526020018280546117f790612f3a565b80156118445780601f1061181957610100808354040283529160200191611844565b820191906000526020600020905b81548152906001019060200180831161182757829003601f168201915b5050505050815260200190600101906117ac565b505050508152602001600682018054806020026020016040519081016040528092919081815260200182805480156118af57602002820191906000526020600020905b81548152602001906001019080831161189b575b50505050508152505081526020019060010190611611565b505050509050919050565b600081600160008581526020019081526020016000206002015414905092915050565b600060128260000151511461193f576040517f08c379a0000000000000000000000000000000000000000000000000000000008152600401611936906135b1565b60405180910390fd5b6000600283600001516040516119559190612ef4565b908152602001604051809103902054146119a4576040517f08c379a000000000000000000000000000000000000000000000000000000000815260040161199b9061361d565b60405180910390fd5b6000826040015151116119ec576040517f08c379a00000000000000000000000000000000000000000000000000000000081526004016119e390613689565b60405180910390fd5b600082606001515111611a34576040517f08c379a0000000000000000000000000000000000000000000000000000000008152600401611a2b9061371b565b60405180910390fd5b600082608001515111611a7c576040517f08c379a0000000000000000000000000000000000000000000000000000000008152600401611a73906137ad565b60405180910390fd5b60008260a001515111611ac4576040517f08c379a0000000000000000000000000000000000000000000000000000000008152600401611abb90613819565b60405180910390fd5b60008260c0015111611b0b576040517f08c379a0000000000000000000000000000000000000000000000000000000008152600401611b0290613885565b60405180910390fd5b60008260e0015111611b52576040517f08c379a0000000000000000000000000000000000000000000000000000000008152600401611b49906138f1565b60405180910390fd5b600082610100015111611b9a576040517f08c379a0000000000000000000000000000000000000000000000000000000008152600401611b919061395d565b60405180910390fd5b8161010001518260e0015110611be5576040517f08c379a0000000000000000000000000000000000000000000000000000000008152600401611bdc906139ef565b60405180910390fd5b600080815480929190611bf790613041565b919050555060008054905060004290506000611c2b856000015186602001518760400151858960a001518a60c00151611e3d565b90506000604051806101a001604052808581526020018760000151815260200187602001518152602001876040015181526020018481526020018760e001518152602001876101000151815260200160016003811115611c8e57611c8d6128f6565b5b815260200187606001518152602001876080015181526020018760a0015181526020018381526020018760c0015181525090508060016000868152602001908152602001600020600082015181600001556020820151816001019081611cf49190613264565b50604082015181600201556060820151816003019081611d149190613264565b506080820151816004015560a0820151816005015560c0820151816006015560e08201518160070160006101000a81548160ff02191690836003811115611d5e57611d5d6128f6565b5b0217905550610100820151816008019080519060200190611d80929190611ef9565b50610120820151816009019081611d979190613264565b5061014082015181600a019081611dae9190613264565b5061016082015181600b015561018082015181600c01559050508360028760000151604051611ddd9190612ef4565b908152602001604051809103902081905550837f58c168780de5fc719a1e7a85c7eca394e664c0e74b7c9ebc621f0b093112d04b87600001518860200151604051611e29929190613a0f565b60405180910390a283945050505050919050565b6000868686868686604051602001611e5a96959493929190613a60565b6040516020818303038152906040528051906020012090509695505050505050565b604051806101a001604052806000815260200160608152602001600081526020016060815260200160008152602001600081526020016000815260200160006003811115611ecd57611ecc6128f6565b5b815260200160608152602001606081526020016060815260200160008019168152602001600081525090565b828054828255906000526020600020908101928215611f41579160200282015b82811115611f40578251829081611f309190613264565b5091602001919060010190611f19565b5b509050611f4e9190611f9f565b5090565b828054828255906000526020600020908101928215611f8e579160200282015b82811115611f8d578251825591602001919060010190611f72565b5b509050611f9b9190611fc3565b5090565b5b80821115611fbf5760008181611fb69190611fe0565b50600101611fa0565b5090565b5b80821115611fdc576000816000905550600101611fc4565b5090565b508054611fec90612f3a565b6000825580601f10611ffe575061201d565b601f01602090049060005260206000209081019061201c9190611fc3565b5b50565b6000604051905090565b600080fd5b600080fd5b600080fd5b600080fd5b6000601f19601f8301169050919050565b7f4e487b7100000000000000000000000000000000000000000000000000000000600052604160045260246000fd5b6120878261203e565b810181811067ffffffffffffffff821117156120a6576120a561204f565b5b80604052505050565b60006120b9612020565b90506120c5828261207e565b919050565b600067ffffffffffffffff8211156120e5576120e461204f565b5b6120ee8261203e565b9050602081019050919050565b82818337600083830152505050565b600061211d612118846120ca565b6120af565b90508281526020810184848401111561213957612138612039565b5b6121448482856120fb565b509392505050565b600082601f83011261216157612160612034565b5b813561217184826020860161210a565b91505092915050565b6000602082840312156121905761218f61202a565b5b600082013567ffffffffffffffff8111156121ae576121ad61202f565b5b6121ba8482850161214c565b91505092915050565b60008115159050919050565b6121d8816121c3565b82525050565b60006020820190506121f360008301846121cf565b92915050565b6000819050919050565b61220c816121f9565b811461221757600080fd5b50565b60008135905061222981612203565b92915050565b6000602082840312156122455761224461202a565b5b60006122538482850161221a565b91505092915050565b600081519050919050565b600082825260208201905092915050565b6000819050602082019050919050565b612291816121f9565b82525050565b600081519050919050565b600082825260208201905092915050565b60005b838110156122d15780820151818401526020810190506122b6565b60008484015250505050565b60006122e882612297565b6122f281856122a2565b93506123028185602086016122b3565b61230b8161203e565b840191505092915050565b61231f816121c3565b82525050565b600081519050919050565b600082825260208201905092915050565b6000819050602082019050919050565b600061235d83836122dd565b905092915050565b6000602082019050919050565b600061237d82612325565b6123878185612330565b93508360208202850161239985612341565b8060005b858110156123d557848403895281516123b68582612351565b94506123c183612365565b925060208a0199505060018101905061239d565b50829750879550505050505092915050565b600081519050919050565b600082825260208201905092915050565b6000819050602082019050919050565b600061241f8383612288565b60208301905092915050565b6000602082019050919050565b6000612443826123e7565b61244d81856123f2565b935061245883612403565b8060005b838110156124895781516124708882612413565b975061247b8361242b565b92505060018101905061245c565b5085935050505092915050565b600060e0830160008301516124ae6000860182612288565b5060208301516124c16020860182612288565b50604083015184820360408601526124d982826122dd565b915050606083015184820360608601526124f382826122dd565b91505060808301516125086080860182612316565b5060a083015184820360a08601526125208282612372565b91505060c083015184820360c086015261253a8282612438565b9150508091505092915050565b60006125538383612496565b905092915050565b6000602082019050919050565b60006125738261225c565b61257d8185612267565b93508360208202850161258f85612278565b8060005b858110156125cb57848403895281516125ac8582612547565b94506125b78361255b565b925060208a01995050600181019050612593565b50829750879550505050505092915050565b600060208201905081810360008301526125f78184612568565b905092915050565b600067ffffffffffffffff82111561261a5761261961204f565b5b602082029050602081019050919050565b600080fd5b600061264361263e846125ff565b6120af565b905080838252602082019050602084028301858111156126665761266561262b565b5b835b818110156126ad57803567ffffffffffffffff81111561268b5761268a612034565b5b808601612698898261214c565b85526020850194505050602081019050612668565b5050509392505050565b600082601f8301126126cc576126cb612034565b5b81356126dc848260208601612630565b91505092915050565b60008060008060008060008060006101208a8c0312156127085761270761202a565b5b60008a013567ffffffffffffffff8111156127265761272561202f565b5b6127328c828d0161214c565b99505060206127438c828d0161221a565b98505060408a013567ffffffffffffffff8111156127645761276361202f565b5b6127708c828d0161214c565b97505060608a013567ffffffffffffffff8111156127915761279061202f565b5b61279d8c828d016126b7565b96505060808a013567ffffffffffffffff8111156127be576127bd61202f565b5b6127ca8c828d0161214c565b95505060a08a013567ffffffffffffffff8111156127eb576127ea61202f565b5b6127f78c828d0161214c565b94505060c06128088c828d0161221a565b93505060e06128198c828d0161221a565b92505061010061282b8c828d0161221a565b9150509295985092959850929598565b612844816121f9565b82525050565b600060208201905061285f600083018461283b565b92915050565b6004811061287257600080fd5b50565b60008135905061288481612865565b92915050565b600080604083850312156128a1576128a061202a565b5b60006128af8582860161221a565b92505060206128c085828601612875565b9150509250929050565b600081519050919050565b600082825260208201905092915050565b6000819050602082019050919050565b7f4e487b7100000000000000000000000000000000000000000000000000000000600052602160045260246000fd5b60048110612936576129356128f6565b5b50565b600081905061294782612925565b919050565b600061295782612939565b9050919050565b6129678161294c565b82525050565b6000819050919050565b6129808161296d565b82525050565b60006101a08301600083015161299f6000860182612288565b50602083015184820360208601526129b782826122dd565b91505060408301516129cc6040860182612288565b50606083015184820360608601526129e482826122dd565b91505060808301516129f96080860182612288565b5060a0830151612a0c60a0860182612288565b5060c0830151612a1f60c0860182612288565b5060e0830151612a3260e086018261295e565b50610100830151848203610100860152612a4c8282612372565b915050610120830151848203610120860152612a6882826122dd565b915050610140830151848203610140860152612a8482826122dd565b915050610160830151612a9b610160860182612977565b50610180830151612ab0610180860182612288565b508091505092915050565b6000612ac78383612986565b905092915050565b6000602082019050919050565b6000612ae7826128ca565b612af181856128d5565b935083602082028501612b03856128e6565b8060005b85811015612b3f5784840389528151612b208582612abb565b9450612b2b83612acf565b925060208a01995050600181019050612b07565b50829750879550505050505092915050565b60006020820190508181036000830152612b6b8184612adc565b905092915050565b60006101a083016000830151612b8c6000860182612288565b5060208301518482036020860152612ba482826122dd565b9150506040830151612bb96040860182612288565b5060608301518482036060860152612bd182826122dd565b9150506080830151612be66080860182612288565b5060a0830151612bf960a0860182612288565b5060c0830151612c0c60c0860182612288565b5060e0830151612c1f60e086018261295e565b50610100830151848203610100860152612c398282612372565b915050610120830151848203610120860152612c5582826122dd565b915050610140830151848203610140860152612c7182826122dd565b915050610160830151612c88610160860182612977565b50610180830151612c9d610180860182612288565b508091505092915050565b60006020820190508181036000830152612cc28184612b73565b905092915050565b600067ffffffffffffffff821115612ce557612ce461204f565b5b602082029050602081019050919050565b6000612d09612d0484612cca565b6120af565b90508083825260208201905060208402830185811115612d2c57612d2b61262b565b5b835b81811015612d555780612d41888261221a565b845260208401935050602081019050612d2e565b5050509392505050565b600082601f830112612d7457612d73612034565b5b8135612d84848260208601612cf6565b91505092915050565b600080600080600060a08688031215612da957612da861202a565b5b6000612db78882890161221a565b955050602086013567ffffffffffffffff811115612dd857612dd761202f565b5b612de48882890161214c565b945050604086013567ffffffffffffffff811115612e0557612e0461202f565b5b612e118882890161214c565b935050606086013567ffffffffffffffff811115612e3257612e3161202f565b5b612e3e888289016126b7565b925050608086013567ffffffffffffffff811115612e5f57612e5e61202f565b5b612e6b88828901612d5f565b9150509295509295909350565b60008060408385031215612e8f57612e8e61202a565b5b6000612e9d8582860161221a565b9250506020612eae8582860161221a565b9150509250929050565b600081905092915050565b6000612ece82612297565b612ed88185612eb8565b9350612ee88185602086016122b3565b80840191505092915050565b6000612f008284612ec3565b915081905092915050565b7f4e487b7100000000000000000000000000000000000000000000000000000000600052602260045260246000fd5b60006002820490506001821680612f5257607f821691505b602082108103612f6557612f64612f0b565b5b50919050565b600082825260208201905092915050565b7f426174636820646f6573206e6f74206578697374000000000000000000000000600082015250565b6000612fb2601483612f6b565b9150612fbd82612f7c565b602082019050919050565b60006020820190508181036000830152612fe181612fa5565b9050919050565b612ff18161294c565b82525050565b600060208201905061300c6000830184612fe8565b92915050565b7f4e487b7100000000000000000000000000000000000000000000000000000000600052601160045260246000fd5b600061304c826121f9565b91507fffffffffffffffffffffffffffffffffffffffffffffffffffffffffffffffff820361307e5761307d613012565b5b600182019050919050565b7f4e487b7100000000000000000000000000000000000000000000000000000000600052603260045260246000fd5b60008190508160005260206000209050919050565b60006020601f8301049050919050565b600082821b905092915050565b60006008830261311a7fffffffffffffffffffffffffffffffffffffffffffffffffffffffffffffffff826130dd565b61312486836130dd565b95508019841693508086168417925050509392505050565b6000819050919050565b600061316161315c613157846121f9565b61313c565b6121f9565b9050919050565b6000819050919050565b61317b83613146565b61318f61318782613168565b8484546130ea565b825550505050565b600090565b6131a4613197565b6131af818484613172565b505050565b5b818110156131d3576131c860008261319c565b6001810190506131b5565b5050565b601f821115613218576131e9816130b8565b6131f2846130cd565b81016020851015613201578190505b61321561320d856130cd565b8301826131b4565b50505b505050565b600082821c905092915050565b600061323b6000198460080261321d565b1980831691505092915050565b6000613254838361322a565b9150826002028217905092915050565b61326d82612297565b67ffffffffffffffff8111156132865761328561204f565b5b6132908254612f3a565b61329b8282856131d7565b600060209050601f8311600181146132ce57600084156132bc578287015190505b6132c68582613248565b86555061332e565b601f1984166132dc866130b8565b60005b82811015613304578489015182556001820191506020850194506020810190506132df565b86831015613321578489015161331d601f89168261322a565b8355505b6001600288020188555050505b505050505050565b600061334182612297565b61334b8185612f6b565b935061335b8185602086016122b3565b6133648161203e565b840191505092915050565b600082825260208201905092915050565b600061338b82612325565b613395818561336f565b9350836020820285016133a785612341565b8060005b858110156133e357848403895281516133c48582612351565b94506133cf83612365565b925060208a019950506001810190506133ab565b50829750879550505050505092915050565b600082825260208201905092915050565b6000613411826123e7565b61341b81856133f5565b935061342683612403565b8060005b8381101561345757815161343e8882612413565b97506134498361242b565b92505060018101905061342a565b5085935050505092915050565b600060a082019050818103600083015261347e8188613336565b905081810360208301526134928187613336565b90506134a160408301866121cf565b81810360608301526134b38185613380565b905081810360808301526134c78184613406565b90509695505050505050565b7f426174636820776974682074686973205353434320646f6573206e6f7420657860008201527f6973740000000000000000000000000000000000000000000000000000000000602082015250565b600061352f602383612f6b565b915061353a826134d3565b604082019050919050565b6000602082019050818103600083015261355e81613522565b9050919050565b7f53534343206d7573742062652031382063686172616374657273206c6f6e6700600082015250565b600061359b601f83612f6b565b91506135a682613565565b602082019050919050565b600060208201905081810360008301526135ca8161358e565b9050919050565b7f5353434320616c72656164792065786973747300000000000000000000000000600082015250565b6000613607601383612f6b565b9150613612826135d1565b602082019050919050565b60006020820190508181036000830152613636816135fa565b9050919050565b7f5175616e74697479206d757374206e6f7420626520656d707479000000000000600082015250565b6000613673601a83612f6b565b915061367e8261363d565b602082019050919050565b600060208201905081810360008301526136a281613666565b9050919050565b7f4174206c65617374206f6e652070726f6475637420696d6167652055524c206960008201527f7320726571756972656400000000000000000000000000000000000000000000602082015250565b6000613705602a83612f6b565b9150613710826136a9565b604082019050919050565b60006020820190508181036000830152613734816136f8565b9050919050565b7f436572746966696361746520696d6167652055524c206973207265717569726560008201527f6400000000000000000000000000000000000000000000000000000000000000602082015250565b6000613797602183612f6b565b91506137a28261373b565b604082019050919050565b600060208201905081810360008301526137c68161378a565b9050919050565b7f4661726d20706c6f74206e756d62657220697320726571756972656400000000600082015250565b6000613803601c83612f6b565b915061380e826137cd565b602082019050919050565b60006020820190508181036000830152613832816137f6565b9050919050565b7f50726f64756374204944206d7573742062652076616c69640000000000000000600082015250565b600061386f601883612f6b565b915061387a82613839565b602082019050919050565b6000602082019050818103600083015261389e81613862565b9050919050565b7f5374617274206461746520697320726571756972656400000000000000000000600082015250565b60006138db601683612f6b565b91506138e6826138a5565b602082019050919050565b6000602082019050818103600083015261390a816138ce565b9050919050565b7f456e642064617465206973207265717569726564000000000000000000000000600082015250565b6000613947601483612f6b565b915061395282613911565b602082019050919050565b600060208201905081810360008301526139768161393a565b9050919050565b7f53746172742064617465206d757374206265206265666f726520656e6420646160008201527f7465000000000000000000000000000000000000000000000000000000000000602082015250565b60006139d9602283612f6b565b91506139e48261397d565b604082019050919050565b60006020820190508181036000830152613a08816139cc565b9050919050565b60006040820190508181036000830152613a298185613336565b9050613a38602083018461283b565b9392505050565b6000819050919050565b613a5a613a55826121f9565b613a3f565b82525050565b6000613a6c8289612ec3565b9150613a788288613a49565b602082019150613a888287612ec3565b9150613a948286613a49565b602082019150613aa48285612ec3565b9150613ab08284613a49565b60208201915081905097965050505050505056fea2646970667358221220c74f9fdc8dd9fcb71b02052ad85566ba65aeb2fbab93a19c253e30e64b9078ba64736f6c63430008140033",
  "immutableReferences": {},
  "source": "\r\n// SPDX-License-Identifier: MIT\r\npragma solidity ^0.8.0;\r\n\r\ncontract TraceabilityContract {\r\n    uint256 private _batchIdCounter;\r\n\r\n    struct Batch {\r\n        uint256 batchId;\r\n        string sscc;\r\n        uint256 producerId;\r\n        string quantity;\r\n        uint256 productionDate;\r\n      //  uint256 expiryDate;\r\n        uint256 startDate;\r\n        uint256 endDate;\r\n        BatchStatus status;\r\n        string[] productImageUrls; // Change to array\r\n        string certificateImageUrl;\r\n        string farmPlotNumber;\r\n        bytes32 dataHash;\r\n        uint256 productId;\r\n    }\r\n      struct ActivityLog {\r\n        uint256 timestamp;\r\n        uint256 uid; // S dng uid thay v address\r\n        string activityName;\r\n        string description;\r\n        bool isSystemGenerated;\r\n        string[] imageUrls;\r\n        uint256[] relatedProductIds;\r\n    }\r\n\r\n    enum BatchStatus { Created, PendingApproval, Approved, Rejected }\r\n\r\n    mapping(uint256 => Batch) private _batches;\r\n    mapping(string => uint256) private _ssccToBatchId;\r\n        mapping(uint256 => ActivityLog[]) private _producerActivityLogs;\r\n\r\n\r\n    event BatchCreated(uint256 indexed batchId, string sscc, uint256 producerId);\r\n    event ActivityLogAdded(\r\n        uint256 indexed uid,\r\n        string activityName,\r\n        string description,\r\n        bool isSystemGenerated,\r\n        string[] imageUrls,\r\n        uint256[] relatedProductIds\r\n    );\r\n\r\n    struct BatchParams {\r\n        string sscc;\r\n        uint256 producerId;\r\n        string quantity;\r\n        string[] productImageUrls; // Change to array\r\n        string certificateImageUrl;\r\n        string farmPlotNumber;\r\n        uint256 productId;\r\n        uint256 startDate;\r\n        uint256 endDate;\r\n    }\r\n\r\n    function createBatch(\r\n        string memory _sscc,\r\n        uint256 _producerId,\r\n        string memory _quantity,\r\n        string[] memory _productImageUrls, //  thay i thnh mng\r\n        string memory _certificateImageUrl,\r\n        string memory _farmPlotNumber,\r\n        uint256 _productId,\r\n        uint256 _startDate,\r\n        uint256 _endDate\r\n    ) public returns (uint256) {\r\n        BatchParams memory params = BatchParams({\r\n            sscc: _sscc,\r\n            producerId: _producerId,\r\n            quantity: _quantity,\r\n            productImageUrls: _productImageUrls, //  sa\r\n            certificateImageUrl: _certificateImageUrl,\r\n            farmPlotNumber: _farmPlotNumber,\r\n            productId: _productId,\r\n            startDate: _startDate,\r\n            endDate: _endDate\r\n        });\r\n\r\n        return _createBatch(params);\r\n    }\r\n\r\n    \r\n    function _createBatch(BatchParams memory params) private returns (uint256) {\r\n        require(bytes(params.sscc).length == 18, \"SSCC must be 18 characters long\");\r\n        require(_ssccToBatchId[params.sscc] == 0, \"SSCC already exists\");\r\n        require(bytes(params.quantity).length > 0, \"Quantity must not be empty\");\r\n        require(params.productImageUrls.length > 0, \"At least one product image URL is required\");\r\n        require(bytes(params.certificateImageUrl).length > 0, \"Certificate image URL is required\");\r\n        require(bytes(params.farmPlotNumber).length > 0, \"Farm plot number is required\");\r\n        require(params.productId > 0, \"Product ID must be valid\");\r\n        require(params.startDate > 0, \"Start date is required\");\r\n        require(params.endDate > 0, \"End date is required\");\r\n        require(params.startDate < params.endDate, \"Start date must be before end date\");\r\n\r\n        _batchIdCounter++;\r\n        uint256 newBatchId = _batchIdCounter;\r\n\r\n        uint256 productionDate = block.timestamp;\r\n        // uint256 expiryDate = productionDate + 5 days;\r\n\r\n        bytes32 dataHash = _calculateDataHash(\r\n            params.sscc,\r\n            params.producerId,\r\n            params.quantity,\r\n            productionDate,\r\n         //   expiryDate,\r\n            params.farmPlotNumber,\r\n            params.productId\r\n        );\r\n\r\n        Batch memory newBatch = Batch({\r\n            batchId: newBatchId,\r\n            sscc: params.sscc,\r\n            producerId: params.producerId,\r\n            quantity: params.quantity,\r\n            productionDate: productionDate,\r\n        //    expiryDate: expiryDate,\r\n            startDate: params.startDate,\r\n            endDate: params.endDate,\r\n            status: BatchStatus.PendingApproval,\r\n            productImageUrls: params.productImageUrls, //  sa\r\n            certificateImageUrl: params.certificateImageUrl,\r\n            farmPlotNumber: params.farmPlotNumber,\r\n            dataHash: dataHash,\r\n            productId: params.productId\r\n        });\r\n\r\n        _batches[newBatchId] = newBatch;\r\n        _ssccToBatchId[params.sscc] = newBatchId;\r\n\r\n        emit BatchCreated(newBatchId, params.sscc, params.producerId);\r\n        return newBatchId;\r\n    }\r\n\r\n    function addActivityLog(\r\n        uint256 _uid,\r\n        string memory _activityName,\r\n        string memory _description,\r\n        string[] memory _imageUrls,\r\n        uint256[] memory _relatedProductIds\r\n    ) public {\r\n        ActivityLog memory newLog = ActivityLog({\r\n            timestamp: block.timestamp,\r\n            uid: _uid,\r\n            activityName: _activityName,\r\n            description: _description,\r\n            isSystemGenerated: false,\r\n            imageUrls: _imageUrls,\r\n            relatedProductIds: _relatedProductIds\r\n        });\r\n\r\n        _producerActivityLogs[_uid].push(newLog);\r\n        emit ActivityLogAdded(_uid, _activityName, _description, false, _imageUrls, _relatedProductIds);\r\n    }\r\n // Hm  ly nht k hot ng ca mt nh sn xut\r\n    function getProducerActivityLogs(uint256 _uid) public view returns (ActivityLog[] memory) {\r\n        return _producerActivityLogs[_uid];\r\n    }\r\n\r\n    \r\n    // Hm ni b  h thng t ng thm nht k\r\n    function _addSystemActivityLog(\r\n        uint256 _uid,\r\n        string memory _activityName,\r\n        string memory _description,\r\n        uint256[] memory _relatedProductIds\r\n    ) internal {\r\n        string[] memory emptyImageUrls = new string[](0);\r\n        ActivityLog memory newLog = ActivityLog({\r\n            timestamp: block.timestamp,\r\n            uid: _uid,\r\n            activityName: _activityName,\r\n            description: _description,\r\n            isSystemGenerated: true,\r\n            imageUrls: emptyImageUrls,\r\n            relatedProductIds: _relatedProductIds\r\n        });\r\n\r\n        _producerActivityLogs[_uid].push(newLog);\r\n        emit ActivityLogAdded(_uid, _activityName, _description, true, emptyImageUrls, _relatedProductIds);\r\n    }\r\n    \r\n    function _calculateDataHash(\r\n        string memory _sscc,\r\n        uint256 _producerId,\r\n        string memory _quantity,\r\n        uint256 _productionDate,\r\n        // Xa _expiryDate khi y\r\n        string memory _farmPlotNumber,\r\n        uint256 _productId\r\n    ) private pure returns (bytes32) {\r\n        return keccak256(abi.encodePacked(_sscc, _producerId, _quantity, _productionDate, _farmPlotNumber, _productId));\r\n    }\r\n    // hm kim tra sscc  tn ti hay cha \r\n    function ssccExists(string memory sscc) public view returns (bool) {\r\n        return _ssccToBatchId[sscc] != 0;\r\n    }\r\n\r\n    // Hm mi  ly danh sch cc l hng da trn producerId\r\n    function getBatchesByProducer(uint256 producerId) public view returns (Batch[] memory) {\r\n        uint256 count = 0;\r\n        for (uint256 i = 1; i <= _batchIdCounter; i++) {\r\n            if (_batches[i].producerId == producerId) {\r\n                count++;\r\n            }\r\n        }\r\n\r\n        Batch[] memory batches = new Batch[](count);\r\n        uint256 index = 0;\r\n        for (uint256 i = 1; i <= _batchIdCounter; i++) {\r\n            if (_batches[i].producerId == producerId) {\r\n                batches[index] = _batches[i];\r\n                index++;\r\n            }\r\n        }\r\n\r\n        return batches;\r\n    }\r\n\r\n    // hm cp nht trng thi l hng\r\nfunction updateBatchStatus(uint256 _batchId, BatchStatus _newStatus) public {\r\n    require(_batches[_batchId].batchId != 0, \"Batch does not exist\");\r\n    // Thm kim tra quyn nu cn\r\n    _batches[_batchId].status = _newStatus;\r\n    emit BatchStatusUpdated(_batchId, _newStatus);\r\n}\r\n\r\nevent BatchStatusUpdated(uint256 indexed batchId, BatchStatus newStatus);\r\n\r\n// hm ly thng tin l hng\r\nfunction getBatchDetails(uint256 _batchId) public view returns (Batch memory) {\r\n    require(_batches[_batchId].batchId != 0, \"Batch does not exist\");\r\n    return _batches[_batchId];\r\n}\r\nfunction getBatchBySSCC(string memory _sscc) public view returns (Batch memory) {\r\n    uint256 batchId = _ssccToBatchId[_sscc];\r\n    require(batchId != 0, \"Batch with this SSCC does not exist\");\r\n    return _batches[batchId];\r\n}\r\n\r\nfunction getTotalBatches() public view returns (uint256) {\r\n    return _batchIdCounter;\r\n}\r\n\r\nfunction isProducerOfBatch(uint256 _batchId, uint256 _producerId) public view returns (bool) {\r\n    return _batches[_batchId].producerId == _producerId;\r\n}\r\n\r\n// Thm hm ny vo smart contract\r\nfunction getActivityLogs(uint256 _uid) public view returns (ActivityLog[] memory) {\r\n    return _producerActivityLogs[_uid];\r\n}\r\nfunction getActivityLogCount(uint256 _uid) public view returns (uint256) {\r\n    return _producerActivityLogs[_uid].length;\r\n}\r\n\r\n}",
  "sourcePath": "D:\\projects\\nckh-be\\blockchain\\contracts\\supplychain.sol",
  "compiler": {
    "name": "solc",
    "version": "0.8.20+commit.a1b79de6.Emscripten.clang"
  },
  "schemaVersion": "3.4.16",
  "updatedAt": "2024-09-06T15:24:53.669Z",
  "networkType": "ethereum",
  "devdoc": {
    "kind": "dev",
    "methods": {},
    "version": 1
  },
  "userdoc": {
    "kind": "user",
    "methods": {},
    "version": 1
  }
}