{
  "contractName": "TraceabilityContract",
  "abi": [
    {
      "inputs": [
        {
          "internalType": "address",
          "name": "_activityLogAddress",
          "type": "address"
        }
      ],
      "stateMutability": "nonpayable",
      "type": "constructor"
    },
    {
      "anonymous": false,
      "inputs": [
        {
          "indexed": true,
          "internalType": "uint256",
          "name": "uid",
          "type": "uint256"
        },
        {
          "indexed": false,
          "internalType": "string",
          "name": "activityName",
          "type": "string"
        },
        {
          "indexed": false,
          "internalType": "string",
          "name": "description",
          "type": "string"
        },
        {
          "indexed": false,
          "internalType": "bool",
          "name": "isSystemGenerated",
          "type": "bool"
        },
        {
          "indexed": false,
          "internalType": "string[]",
          "name": "imageUrls",
          "type": "string[]"
        },
        {
          "indexed": false,
          "internalType": "uint256[]",
          "name": "relatedProductIds",
          "type": "uint256[]"
        }
      ],
      "name": "ActivityLogAdded",
      "type": "event"
    },
    {
      "anonymous": false,
      "inputs": [
        {
          "indexed": true,
          "internalType": "uint256",
          "name": "batchId",
          "type": "uint256"
        },
        {
          "indexed": true,
          "internalType": "uint256",
          "name": "producerId",
          "type": "uint256"
        },
        {
          "indexed": false,
          "internalType": "string",
          "name": "sscc",
          "type": "string"
        }
      ],
      "name": "BatchApproved",
      "type": "event"
    },
    {
      "anonymous": false,
      "inputs": [
        {
          "indexed": true,
          "internalType": "uint256",
          "name": "batchId",
          "type": "uint256"
        },
        {
          "indexed": true,
          "internalType": "uint256",
          "name": "producerId",
          "type": "uint256"
        },
        {
          "indexed": false,
          "internalType": "string",
          "name": "sscc",
          "type": "string"
        }
      ],
      "name": "BatchApprovedForQR",
      "type": "event"
    },
    {
      "anonymous": false,
      "inputs": [
        {
          "indexed": true,
          "internalType": "uint256",
          "name": "batchId",
          "type": "uint256"
        },
        {
          "indexed": false,
          "internalType": "string",
          "name": "sscc",
          "type": "string"
        },
        {
          "indexed": false,
          "internalType": "uint256",
          "name": "producerId",
          "type": "uint256"
        }
      ],
      "name": "BatchCreated",
      "type": "event"
    },
    {
      "anonymous": false,
      "inputs": [
        {
          "indexed": true,
          "internalType": "uint256",
          "name": "batchId",
          "type": "uint256"
        },
        {
          "indexed": false,
          "internalType": "uint256",
          "name": "producerId",
          "type": "uint256"
        },
        {
          "indexed": false,
          "internalType": "string",
          "name": "sscc",
          "type": "string"
        }
      ],
      "name": "BatchRejected",
      "type": "event"
    },
    {
      "anonymous": false,
      "inputs": [
        {
          "indexed": true,
          "internalType": "uint256",
          "name": "batchId",
          "type": "uint256"
        },
        {
          "indexed": false,
          "internalType": "enum TraceabilityContract.BatchStatus",
          "name": "newStatus",
          "type": "uint8"
        }
      ],
      "name": "BatchStatusUpdated",
      "type": "event"
    },
    {
      "anonymous": false,
      "inputs": [
        {
          "indexed": true,
          "internalType": "uint256",
          "name": "batchId",
          "type": "uint256"
        },
        {
          "indexed": false,
          "internalType": "string",
          "name": "participantType",
          "type": "string"
        }
      ],
      "name": "LogParticipantType",
      "type": "event"
    },
    {
      "anonymous": false,
      "inputs": [
        {
          "indexed": true,
          "internalType": "uint256",
          "name": "batchId",
          "type": "uint256"
        },
        {
          "indexed": false,
          "internalType": "uint256",
          "name": "participantId",
          "type": "uint256"
        },
        {
          "indexed": false,
          "internalType": "string",
          "name": "participantType",
          "type": "string"
        },
        {
          "indexed": false,
          "internalType": "string",
          "name": "action",
          "type": "string"
        }
      ],
      "name": "ParticipationRecorded",
      "type": "event"
    },
    {
      "anonymous": false,
      "inputs": [
        {
          "indexed": true,
          "internalType": "uint256",
          "name": "batchId",
          "type": "uint256"
        },
        {
          "indexed": false,
          "internalType": "enum TraceabilityContract.DetailedTransportStatus",
          "name": "newStatus",
          "type": "uint8"
        },
        {
          "indexed": false,
          "internalType": "string",
          "name": "action",
          "type": "string"
        },
        {
          "indexed": false,
          "internalType": "uint256",
          "name": "participantId",
          "type": "uint256"
        },
        {
          "indexed": false,
          "internalType": "string",
          "name": "participantType",
          "type": "string"
        }
      ],
      "name": "TransportStatusUpdated",
      "type": "event"
    },
    {
      "anonymous": false,
      "inputs": [
        {
          "indexed": true,
          "internalType": "uint256",
          "name": "batchId",
          "type": "uint256"
        },
        {
          "indexed": false,
          "internalType": "uint256",
          "name": "warehouseId",
          "type": "uint256"
        }
      ],
      "name": "WarehouseConfirmed",
      "type": "event"
    },
    {
      "inputs": [
        {
          "internalType": "string",
          "name": "_name",
          "type": "string"
        },
        {
          "internalType": "uint256",
          "name": "_producerId",
          "type": "uint256"
        },
        {
          "internalType": "string",
          "name": "_quantity",
          "type": "string"
        },
        {
          "internalType": "string[]",
          "name": "_productImageUrls",
          "type": "string[]"
        },
        {
          "internalType": "string",
          "name": "_certificateImageUrl",
          "type": "string"
        },
        {
          "internalType": "string",
          "name": "_farmPlotNumber",
          "type": "string"
        },
        {
          "internalType": "uint256",
          "name": "_productId",
          "type": "uint256"
        },
        {
          "internalType": "uint256",
          "name": "_startDate",
          "type": "uint256"
        },
        {
          "internalType": "uint256",
          "name": "_endDate",
          "type": "uint256"
        }
      ],
      "name": "createBatch",
      "outputs": [
        {
          "internalType": "uint256",
          "name": "",
          "type": "uint256"
        }
      ],
      "stateMutability": "nonpayable",
      "type": "function"
    },
    {
      "inputs": [
        {
          "internalType": "string",
          "name": "sscc",
          "type": "string"
        }
      ],
      "name": "ssccExists",
      "outputs": [
        {
          "internalType": "bool",
          "name": "",
          "type": "bool"
        }
      ],
      "stateMutability": "view",
      "type": "function",
      "constant": true
    },
    {
      "inputs": [
        {
          "internalType": "uint256",
          "name": "producerId",
          "type": "uint256"
        }
      ],
      "name": "getBatchesByProducer",
      "outputs": [
        {
          "components": [
            {
              "internalType": "uint256",
              "name": "batchId",
              "type": "uint256"
            },
            {
              "internalType": "string",
              "name": "name",
              "type": "string"
            },
            {
              "internalType": "string",
              "name": "sscc",
              "type": "string"
            },
            {
              "internalType": "uint256",
              "name": "producerId",
              "type": "uint256"
            },
            {
              "internalType": "string",
              "name": "quantity",
              "type": "string"
            },
            {
              "internalType": "uint256",
              "name": "productionDate",
              "type": "uint256"
            },
            {
              "internalType": "uint256",
              "name": "startDate",
              "type": "uint256"
            },
            {
              "internalType": "uint256",
              "name": "endDate",
              "type": "uint256"
            },
            {
              "internalType": "enum TraceabilityContract.BatchStatus",
              "name": "status",
              "type": "uint8"
            },
            {
              "internalType": "string[]",
              "name": "productImageUrls",
              "type": "string[]"
            },
            {
              "internalType": "string",
              "name": "certificateImageUrl",
              "type": "string"
            },
            {
              "internalType": "string",
              "name": "farmPlotNumber",
              "type": "string"
            },
            {
              "internalType": "bytes32",
              "name": "dataHash",
              "type": "bytes32"
            },
            {
              "internalType": "uint256",
              "name": "productId",
              "type": "uint256"
            },
            {
              "internalType": "enum TraceabilityContract.TransportStatus",
              "name": "transportStatus",
              "type": "uint8"
            },
            {
              "internalType": "enum TraceabilityContract.DetailedTransportStatus",
              "name": "detailedTransportStatus",
              "type": "uint8"
            },
            {
              "internalType": "uint256",
              "name": "lastTransporterId",
              "type": "uint256"
            },
            {
              "internalType": "bool",
              "name": "warehouseConfirmed",
              "type": "bool"
            }
          ],
          "internalType": "struct TraceabilityContract.Batch[]",
          "name": "",
          "type": "tuple[]"
        }
      ],
      "stateMutability": "view",
      "type": "function",
      "constant": true
    },
    {
      "inputs": [
        {
          "internalType": "uint256",
          "name": "_batchId",
          "type": "uint256"
        },
        {
          "internalType": "enum TraceabilityContract.BatchStatus",
          "name": "_newStatus",
          "type": "uint8"
        }
      ],
      "name": "updateBatchStatus",
      "outputs": [],
      "stateMutability": "nonpayable",
      "type": "function"
    },
    {
      "inputs": [
        {
          "internalType": "uint256",
          "name": "_producerId",
          "type": "uint256"
        }
      ],
      "name": "getPendingBatchesByProducer",
      "outputs": [
        {
          "components": [
            {
              "internalType": "uint256",
              "name": "batchId",
              "type": "uint256"
            },
            {
              "internalType": "string",
              "name": "name",
              "type": "string"
            },
            {
              "internalType": "string",
              "name": "sscc",
              "type": "string"
            },
            {
              "internalType": "uint256",
              "name": "producerId",
              "type": "uint256"
            },
            {
              "internalType": "string",
              "name": "quantity",
              "type": "string"
            },
            {
              "internalType": "uint256",
              "name": "productionDate",
              "type": "uint256"
            },
            {
              "internalType": "uint256",
              "name": "startDate",
              "type": "uint256"
            },
            {
              "internalType": "uint256",
              "name": "endDate",
              "type": "uint256"
            },
            {
              "internalType": "enum TraceabilityContract.BatchStatus",
              "name": "status",
              "type": "uint8"
            },
            {
              "internalType": "string[]",
              "name": "productImageUrls",
              "type": "string[]"
            },
            {
              "internalType": "string",
              "name": "certificateImageUrl",
              "type": "string"
            },
            {
              "internalType": "string",
              "name": "farmPlotNumber",
              "type": "string"
            },
            {
              "internalType": "bytes32",
              "name": "dataHash",
              "type": "bytes32"
            },
            {
              "internalType": "uint256",
              "name": "productId",
              "type": "uint256"
            },
            {
              "internalType": "enum TraceabilityContract.TransportStatus",
              "name": "transportStatus",
              "type": "uint8"
            },
            {
              "internalType": "enum TraceabilityContract.DetailedTransportStatus",
              "name": "detailedTransportStatus",
              "type": "uint8"
            },
            {
              "internalType": "uint256",
              "name": "lastTransporterId",
              "type": "uint256"
            },
            {
              "internalType": "bool",
              "name": "warehouseConfirmed",
              "type": "bool"
            }
          ],
          "internalType": "struct TraceabilityContract.Batch[]",
          "name": "",
          "type": "tuple[]"
        }
      ],
      "stateMutability": "view",
      "type": "function",
      "constant": true
    },
    {
      "inputs": [
        {
          "internalType": "uint256",
          "name": "_producerId",
          "type": "uint256"
        }
      ],
      "name": "getRejectedBatchesByProducer",
      "outputs": [
        {
          "components": [
            {
              "internalType": "uint256",
              "name": "batchId",
              "type": "uint256"
            },
            {
              "internalType": "string",
              "name": "name",
              "type": "string"
            },
            {
              "internalType": "string",
              "name": "sscc",
              "type": "string"
            },
            {
              "internalType": "uint256",
              "name": "producerId",
              "type": "uint256"
            },
            {
              "internalType": "string",
              "name": "quantity",
              "type": "string"
            },
            {
              "internalType": "uint256",
              "name": "productionDate",
              "type": "uint256"
            },
            {
              "internalType": "uint256",
              "name": "startDate",
              "type": "uint256"
            },
            {
              "internalType": "uint256",
              "name": "endDate",
              "type": "uint256"
            },
            {
              "internalType": "enum TraceabilityContract.BatchStatus",
              "name": "status",
              "type": "uint8"
            },
            {
              "internalType": "string[]",
              "name": "productImageUrls",
              "type": "string[]"
            },
            {
              "internalType": "string",
              "name": "certificateImageUrl",
              "type": "string"
            },
            {
              "internalType": "string",
              "name": "farmPlotNumber",
              "type": "string"
            },
            {
              "internalType": "bytes32",
              "name": "dataHash",
              "type": "bytes32"
            },
            {
              "internalType": "uint256",
              "name": "productId",
              "type": "uint256"
            },
            {
              "internalType": "enum TraceabilityContract.TransportStatus",
              "name": "transportStatus",
              "type": "uint8"
            },
            {
              "internalType": "enum TraceabilityContract.DetailedTransportStatus",
              "name": "detailedTransportStatus",
              "type": "uint8"
            },
            {
              "internalType": "uint256",
              "name": "lastTransporterId",
              "type": "uint256"
            },
            {
              "internalType": "bool",
              "name": "warehouseConfirmed",
              "type": "bool"
            }
          ],
          "internalType": "struct TraceabilityContract.Batch[]",
          "name": "",
          "type": "tuple[]"
        }
      ],
      "stateMutability": "view",
      "type": "function",
      "constant": true
    },
    {
      "inputs": [],
      "name": "getAllPendingBatches",
      "outputs": [
        {
          "components": [
            {
              "internalType": "uint256",
              "name": "batchId",
              "type": "uint256"
            },
            {
              "internalType": "string",
              "name": "name",
              "type": "string"
            },
            {
              "internalType": "string",
              "name": "sscc",
              "type": "string"
            },
            {
              "internalType": "uint256",
              "name": "producerId",
              "type": "uint256"
            },
            {
              "internalType": "string",
              "name": "quantity",
              "type": "string"
            },
            {
              "internalType": "uint256",
              "name": "productionDate",
              "type": "uint256"
            },
            {
              "internalType": "uint256",
              "name": "startDate",
              "type": "uint256"
            },
            {
              "internalType": "uint256",
              "name": "endDate",
              "type": "uint256"
            },
            {
              "internalType": "enum TraceabilityContract.BatchStatus",
              "name": "status",
              "type": "uint8"
            },
            {
              "internalType": "string[]",
              "name": "productImageUrls",
              "type": "string[]"
            },
            {
              "internalType": "string",
              "name": "certificateImageUrl",
              "type": "string"
            },
            {
              "internalType": "string",
              "name": "farmPlotNumber",
              "type": "string"
            },
            {
              "internalType": "bytes32",
              "name": "dataHash",
              "type": "bytes32"
            },
            {
              "internalType": "uint256",
              "name": "productId",
              "type": "uint256"
            },
            {
              "internalType": "enum TraceabilityContract.TransportStatus",
              "name": "transportStatus",
              "type": "uint8"
            },
            {
              "internalType": "enum TraceabilityContract.DetailedTransportStatus",
              "name": "detailedTransportStatus",
              "type": "uint8"
            },
            {
              "internalType": "uint256",
              "name": "lastTransporterId",
              "type": "uint256"
            },
            {
              "internalType": "bool",
              "name": "warehouseConfirmed",
              "type": "bool"
            }
          ],
          "internalType": "struct TraceabilityContract.Batch[]",
          "name": "",
          "type": "tuple[]"
        }
      ],
      "stateMutability": "view",
      "type": "function",
      "constant": true
    },
    {
      "inputs": [
        {
          "internalType": "uint256",
          "name": "_batchId",
          "type": "uint256"
        }
      ],
      "name": "getBatchDetails",
      "outputs": [
        {
          "components": [
            {
              "internalType": "uint256",
              "name": "batchId",
              "type": "uint256"
            },
            {
              "internalType": "string",
              "name": "name",
              "type": "string"
            },
            {
              "internalType": "string",
              "name": "sscc",
              "type": "string"
            },
            {
              "internalType": "uint256",
              "name": "producerId",
              "type": "uint256"
            },
            {
              "internalType": "string",
              "name": "quantity",
              "type": "string"
            },
            {
              "internalType": "uint256",
              "name": "productionDate",
              "type": "uint256"
            },
            {
              "internalType": "uint256",
              "name": "startDate",
              "type": "uint256"
            },
            {
              "internalType": "uint256",
              "name": "endDate",
              "type": "uint256"
            },
            {
              "internalType": "enum TraceabilityContract.BatchStatus",
              "name": "status",
              "type": "uint8"
            },
            {
              "internalType": "string[]",
              "name": "productImageUrls",
              "type": "string[]"
            },
            {
              "internalType": "string",
              "name": "certificateImageUrl",
              "type": "string"
            },
            {
              "internalType": "string",
              "name": "farmPlotNumber",
              "type": "string"
            },
            {
              "internalType": "bytes32",
              "name": "dataHash",
              "type": "bytes32"
            },
            {
              "internalType": "uint256",
              "name": "productId",
              "type": "uint256"
            },
            {
              "internalType": "enum TraceabilityContract.TransportStatus",
              "name": "transportStatus",
              "type": "uint8"
            },
            {
              "internalType": "enum TraceabilityContract.DetailedTransportStatus",
              "name": "detailedTransportStatus",
              "type": "uint8"
            },
            {
              "internalType": "uint256",
              "name": "lastTransporterId",
              "type": "uint256"
            },
            {
              "internalType": "bool",
              "name": "warehouseConfirmed",
              "type": "bool"
            }
          ],
          "internalType": "struct TraceabilityContract.Batch",
          "name": "",
          "type": "tuple"
        }
      ],
      "stateMutability": "view",
      "type": "function",
      "constant": true
    },
    {
      "inputs": [],
      "name": "getTotalBatches",
      "outputs": [
        {
          "internalType": "uint256",
          "name": "",
          "type": "uint256"
        }
      ],
      "stateMutability": "view",
      "type": "function",
      "constant": true
    },
    {
      "inputs": [
        {
          "internalType": "uint256",
          "name": "_batchId",
          "type": "uint256"
        },
        {
          "internalType": "uint256",
          "name": "_producerId",
          "type": "uint256"
        }
      ],
      "name": "isProducerOfBatch",
      "outputs": [
        {
          "internalType": "bool",
          "name": "",
          "type": "bool"
        }
      ],
      "stateMutability": "view",
      "type": "function",
      "constant": true
    },
    {
      "inputs": [
        {
          "internalType": "uint256",
          "name": "_batchId",
          "type": "uint256"
        }
      ],
      "name": "approveBatch",
      "outputs": [],
      "stateMutability": "nonpayable",
      "type": "function"
    },
    {
      "inputs": [
        {
          "internalType": "uint256",
          "name": "_batchId",
          "type": "uint256"
        }
      ],
      "name": "rejectBatch",
      "outputs": [],
      "stateMutability": "nonpayable",
      "type": "function"
    },
    {
      "inputs": [
        {
          "internalType": "uint256",
          "name": "_uid",
          "type": "uint256"
        }
      ],
      "name": "getActivityLogs",
      "outputs": [
        {
          "components": [
            {
              "internalType": "uint256",
              "name": "timestamp",
              "type": "uint256"
            },
            {
              "internalType": "uint256",
              "name": "uid",
              "type": "uint256"
            },
            {
              "internalType": "string",
              "name": "activityName",
              "type": "string"
            },
            {
              "internalType": "string",
              "name": "description",
              "type": "string"
            },
            {
              "internalType": "bool",
              "name": "isSystemGenerated",
              "type": "bool"
            },
            {
              "internalType": "string[]",
              "name": "imageUrls",
              "type": "string[]"
            },
            {
              "internalType": "uint256[]",
              "name": "relatedProductIds",
              "type": "uint256[]"
            }
          ],
          "internalType": "struct ActivityLog.ActivityLogEntry[]",
          "name": "",
          "type": "tuple[]"
        }
      ],
      "stateMutability": "view",
      "type": "function",
      "constant": true
    },
    {
      "inputs": [
        {
          "internalType": "uint256",
          "name": "_producerId",
          "type": "uint256"
        }
      ],
      "name": "getApprovedBatchesByProducer",
      "outputs": [
        {
          "components": [
            {
              "internalType": "uint256",
              "name": "batchId",
              "type": "uint256"
            },
            {
              "internalType": "string",
              "name": "name",
              "type": "string"
            },
            {
              "internalType": "string",
              "name": "sscc",
              "type": "string"
            },
            {
              "internalType": "uint256",
              "name": "producerId",
              "type": "uint256"
            },
            {
              "internalType": "string",
              "name": "quantity",
              "type": "string"
            },
            {
              "internalType": "uint256",
              "name": "productionDate",
              "type": "uint256"
            },
            {
              "internalType": "uint256",
              "name": "startDate",
              "type": "uint256"
            },
            {
              "internalType": "uint256",
              "name": "endDate",
              "type": "uint256"
            },
            {
              "internalType": "enum TraceabilityContract.BatchStatus",
              "name": "status",
              "type": "uint8"
            },
            {
              "internalType": "string[]",
              "name": "productImageUrls",
              "type": "string[]"
            },
            {
              "internalType": "string",
              "name": "certificateImageUrl",
              "type": "string"
            },
            {
              "internalType": "string",
              "name": "farmPlotNumber",
              "type": "string"
            },
            {
              "internalType": "bytes32",
              "name": "dataHash",
              "type": "bytes32"
            },
            {
              "internalType": "uint256",
              "name": "productId",
              "type": "uint256"
            },
            {
              "internalType": "enum TraceabilityContract.TransportStatus",
              "name": "transportStatus",
              "type": "uint8"
            },
            {
              "internalType": "enum TraceabilityContract.DetailedTransportStatus",
              "name": "detailedTransportStatus",
              "type": "uint8"
            },
            {
              "internalType": "uint256",
              "name": "lastTransporterId",
              "type": "uint256"
            },
            {
              "internalType": "bool",
              "name": "warehouseConfirmed",
              "type": "bool"
            }
          ],
          "internalType": "struct TraceabilityContract.Batch[]",
          "name": "",
          "type": "tuple[]"
        }
      ],
      "stateMutability": "view",
      "type": "function",
      "constant": true
    },
    {
      "inputs": [
        {
          "internalType": "string",
          "name": "_sscc",
          "type": "string"
        }
      ],
      "name": "getBatchBySSCC",
      "outputs": [
        {
          "components": [
            {
              "internalType": "uint256",
              "name": "batchId",
              "type": "uint256"
            },
            {
              "internalType": "string",
              "name": "name",
              "type": "string"
            },
            {
              "internalType": "string",
              "name": "sscc",
              "type": "string"
            },
            {
              "internalType": "uint256",
              "name": "producerId",
              "type": "uint256"
            },
            {
              "internalType": "string",
              "name": "quantity",
              "type": "string"
            },
            {
              "internalType": "uint256",
              "name": "productionDate",
              "type": "uint256"
            },
            {
              "internalType": "uint256",
              "name": "startDate",
              "type": "uint256"
            },
            {
              "internalType": "uint256",
              "name": "endDate",
              "type": "uint256"
            },
            {
              "internalType": "enum TraceabilityContract.BatchStatus",
              "name": "status",
              "type": "uint8"
            },
            {
              "internalType": "string[]",
              "name": "productImageUrls",
              "type": "string[]"
            },
            {
              "internalType": "string",
              "name": "certificateImageUrl",
              "type": "string"
            },
            {
              "internalType": "string",
              "name": "farmPlotNumber",
              "type": "string"
            },
            {
              "internalType": "bytes32",
              "name": "dataHash",
              "type": "bytes32"
            },
            {
              "internalType": "uint256",
              "name": "productId",
              "type": "uint256"
            },
            {
              "internalType": "enum TraceabilityContract.TransportStatus",
              "name": "transportStatus",
              "type": "uint8"
            },
            {
              "internalType": "enum TraceabilityContract.DetailedTransportStatus",
              "name": "detailedTransportStatus",
              "type": "uint8"
            },
            {
              "internalType": "uint256",
              "name": "lastTransporterId",
              "type": "uint256"
            },
            {
              "internalType": "bool",
              "name": "warehouseConfirmed",
              "type": "bool"
            }
          ],
          "internalType": "struct TraceabilityContract.Batch",
          "name": "",
          "type": "tuple"
        }
      ],
      "stateMutability": "view",
      "type": "function",
      "constant": true
    },
    {
      "inputs": [
        {
          "internalType": "string",
          "name": "_sscc",
          "type": "string"
        }
      ],
      "name": "isValidSSCC",
      "outputs": [
        {
          "internalType": "bool",
          "name": "",
          "type": "bool"
        }
      ],
      "stateMutability": "view",
      "type": "function",
      "constant": true
    },
    {
      "inputs": [
        {
          "internalType": "uint256",
          "name": "_batchId",
          "type": "uint256"
        }
      ],
      "name": "isBatchApproved",
      "outputs": [
        {
          "internalType": "bool",
          "name": "",
          "type": "bool"
        }
      ],
      "stateMutability": "view",
      "type": "function",
      "constant": true
    },
    {
      "inputs": [
        {
          "internalType": "uint256",
          "name": "_batchId",
          "type": "uint256"
        },
        {
          "internalType": "uint256",
          "name": "_participantId",
          "type": "uint256"
        },
        {
          "internalType": "string",
          "name": "_participantType",
          "type": "string"
        },
        {
          "internalType": "string",
          "name": "_action",
          "type": "string"
        }
      ],
      "name": "recordParticipation",
      "outputs": [],
      "stateMutability": "nonpayable",
      "type": "function"
    },
    {
      "inputs": [
        {
          "internalType": "uint256",
          "name": "_batchId",
          "type": "uint256"
        },
        {
          "internalType": "uint256",
          "name": "_participantId",
          "type": "uint256"
        },
        {
          "internalType": "string",
          "name": "_action",
          "type": "string"
        },
        {
          "internalType": "string",
          "name": "_participantType",
          "type": "string"
        }
      ],
      "name": "updateTransportStatus",
      "outputs": [],
      "stateMutability": "nonpayable",
      "type": "function"
    },
    {
      "inputs": [
        {
          "internalType": "string",
          "name": "_sscc",
          "type": "string"
        },
        {
          "internalType": "uint256",
          "name": "_participantId",
          "type": "uint256"
        },
        {
          "internalType": "string",
          "name": "_action",
          "type": "string"
        },
        {
          "internalType": "string",
          "name": "_participantType",
          "type": "string"
        }
      ],
      "name": "updateTransportStatusBySSCC",
      "outputs": [],
      "stateMutability": "nonpayable",
      "type": "function"
    },
    {
      "inputs": [
        {
          "internalType": "uint256",
          "name": "_batchId",
          "type": "uint256"
        },
        {
          "internalType": "uint256",
          "name": "_warehouseId",
          "type": "uint256"
        }
      ],
      "name": "warehouseConfirmation",
      "outputs": [],
      "stateMutability": "nonpayable",
      "type": "function"
    },
    {
      "inputs": [
        {
          "internalType": "uint256",
          "name": "_batchId",
          "type": "uint256"
        },
        {
          "internalType": "uint256",
          "name": "_warehouseId",
          "type": "uint256"
        }
      ],
      "name": "isWarehouseConfirmed",
      "outputs": [
        {
          "internalType": "bool",
          "name": "",
          "type": "bool"
        }
      ],
      "stateMutability": "view",
      "type": "function",
      "constant": true
    },
    {
      "inputs": [
        {
          "internalType": "uint256",
          "name": "_batchId",
          "type": "uint256"
        }
      ],
      "name": "getConfirmedWarehouses",
      "outputs": [
        {
          "internalType": "uint256[]",
          "name": "",
          "type": "uint256[]"
        }
      ],
      "stateMutability": "view",
      "type": "function",
      "constant": true
    },
    {
      "inputs": [
        {
          "internalType": "string",
          "name": "_sscc",
          "type": "string"
        }
      ],
      "name": "getBatchIdBySSCC",
      "outputs": [
        {
          "internalType": "uint256",
          "name": "",
          "type": "uint256"
        }
      ],
      "stateMutability": "view",
      "type": "function",
      "constant": true
    },
    {
      "inputs": [
        {
          "internalType": "uint256",
          "name": "_batchId",
          "type": "uint256"
        }
      ],
      "name": "getDetailedTransportStatus",
      "outputs": [
        {
          "internalType": "enum TraceabilityContract.DetailedTransportStatus",
          "name": "",
          "type": "uint8"
        }
      ],
      "stateMutability": "view",
      "type": "function",
      "constant": true
    },
    {
      "inputs": [
        {
          "internalType": "uint256",
          "name": "_batchId",
          "type": "uint256"
        },
        {
          "internalType": "uint256",
          "name": "_transporterId",
          "type": "uint256"
        }
      ],
      "name": "canStartTransport",
      "outputs": [
        {
          "internalType": "bool",
          "name": "",
          "type": "bool"
        }
      ],
      "stateMutability": "view",
      "type": "function",
      "constant": true
    },
    {
      "inputs": [
        {
          "internalType": "string",
          "name": "_sscc",
          "type": "string"
        }
      ],
      "name": "getTransportHistoryBySSCC",
      "outputs": [
        {
          "components": [
            {
              "internalType": "uint256",
              "name": "participantId",
              "type": "uint256"
            },
            {
              "internalType": "uint256",
              "name": "timestamp",
              "type": "uint256"
            },
            {
              "internalType": "string",
              "name": "action",
              "type": "string"
            },
            {
              "internalType": "string",
              "name": "participantType",
              "type": "string"
            }
          ],
          "internalType": "struct TraceabilityContract.TransportEvent[]",
          "name": "",
          "type": "tuple[]"
        }
      ],
      "stateMutability": "view",
      "type": "function",
      "constant": true
    },
    {
      "inputs": [
        {
          "internalType": "uint256",
          "name": "_batchId",
          "type": "uint256"
        }
      ],
      "name": "getBatchTransportStatus",
      "outputs": [
        {
          "internalType": "enum TraceabilityContract.TransportStatus",
          "name": "",
          "type": "uint8"
        }
      ],
      "stateMutability": "view",
      "type": "function",
      "constant": true
    }
  ],
  "bytecode": "0x60806040523480156200001157600080fd5b5060405162005d3238038062005d328339810160408190526200003491620000b5565b6001600160a01b0381166200008f5760405162461bcd60e51b815260206004820152601b60248201527f496e76616c69642041637469766974794c6f6720616464726573730000000000604482015260640160405180910390fd5b600080546001600160a01b0319166001600160a01b0392909216919091179055620000e7565b600060208284031215620000c857600080fd5b81516001600160a01b0381168114620000e057600080fd5b9392505050565b615c3b80620000f76000396000f3fe608060405234801561001057600080fd5b50600436106101545760003560e01c806304008078146101595780630d82dcf4146101815780630e6e369c146101a457806319d6ed3c146101c45780631bb93d1e146101e55780632db53c9d1461020557806336c701e1146102255780633904c26c1461023857806347e2f86314610258578063510664ed1461026b57806352c88f36146102805780635a9c9d90146102935780635aa825aa146102a65780636b0ba8da146102ae57806380e32d45146102c157806381f7d4e0146102d4578063838b1da31461030257806397ae6a0e146103155780639d47dcc014610335578063a7732c9614610355578063a793478614610375578063b82adf3b14610388578063d040e18c14610159578063d043b8431461039b578063d9860bfc146103ae578063dd235d9d146103c1578063e561dddc146103d4578063f9b8da0e146103dc575b600080fd5b61016c610167366004614ad5565b610401565b60405190151581526020015b60405180910390f35b61016c61018f366004614b11565b60009081526006602052604090205460ff1690565b6101b76101b2366004614b11565b61042b565b6040516101789190614c0d565b6101d76101d2366004614ad5565b6104a3565b604051908152602001610178565b6101f86101f3366004614ad5565b6104cb565b6040516101789190614cec565b610218610213366004614b11565b6106b8565b6040516101789190614f05565b6101d7610233366004615014565b610cfb565b61024b610246366004614b11565b610d6c565b604051610178919061510c565b610218610266366004614b11565b610e73565b61027e61027936600461511f565b6114a8565b005b61027e61028e366004615195565b61194a565b61027e6102a13660046151c9565b6119e6565b610218611a3c565b61027e6102bc36600461521f565b612040565b6102186102cf366004614b11565b61232a565b61016c6102e236600461521f565b600091825260086020908152604080842092845291905290205460ff1690565b61027e610310366004614b11565b612901565b610328610323366004614b11565b612ac3565b6040516101789190615241565b610348610343366004614b11565b612b0e565b604051610178919061524f565b610368610363366004614b11565b613019565b6040516101789190615262565b61016c61038336600461521f565b61305f565b61027e61039636600461511f565b6130e6565b6102186103a9366004614b11565b6131d3565b6103486103bc366004614ad5565b61380c565b61027e6103cf366004614b11565b613d2e565b6001546101d7565b61016c6103ea36600461521f565b600091825260046020526040909120600301541490565b60006005826040516104139190615275565b90815260405190819003602001902054151592915050565b60005460405163039b8da760e21b8152600481018390526060916001600160a01b031690630e6e369c90602401600060405180830381865afa158015610475573d6000803e3d6000fd5b505050506040513d6000823e601f3d908101601f1916820160405261049d91908101906153c5565b92915050565b60006005826040516104b59190615275565b9081526020016040518091039020549050919050565b606060006005836040516104df9190615275565b9081526020016040518091039020549050806000036105195760405162461bcd60e51b81526004016105109061554a565b60405180910390fd5b600081815260036020908152604080832080548251818502810185019093528083529193909284015b828210156106ac578382906000526020600020906004020160405180608001604052908160008201548152602001600182015481526020016002820180546105899061558d565b80601f01602080910402602001604051908101604052809291908181526020018280546105b59061558d565b80156106025780601f106105d757610100808354040283529160200191610602565b820191906000526020600020905b8154815290600101906020018083116105e557829003601f168201915b5050505050815260200160038201805461061b9061558d565b80601f01602080910402602001604051908101604052809291908181526020018280546106479061558d565b80156106945780601f1061066957610100808354040283529160200191610694565b820191906000526020600020905b81548152906001019060200180831161067757829003601f168201915b50505050508152505081526020019060010190610542565b50505050915050919050565b6060600060015b6001548111610732576000818152600460205260409020600301548414801561070d5750600260008281526004602052604090206008015460ff16600281111561070b5761070b614d7a565b145b15610720578161071c816155dd565b9250505b8061072a816155dd565b9150506106bf565b506000816001600160401b0381111561074d5761074d6149ea565b60405190808252806020026020018201604052801561078657816020015b610773614875565b81526020019060019003908161076b5790505b509050600060015b6001548111610cf157600081815260046020526040902060030154861480156107dc5750600260008281526004602052604090206008015460ff1660028111156107da576107da614d7a565b145b15610cdf5760046000828152602001908152602001600020604051806102400160405290816000820154815260200160018201805461081a9061558d565b80601f01602080910402602001604051908101604052809291908181526020018280546108469061558d565b80156108935780601f1061086857610100808354040283529160200191610893565b820191906000526020600020905b81548152906001019060200180831161087657829003601f168201915b505050505081526020016002820180546108ac9061558d565b80601f01602080910402602001604051908101604052809291908181526020018280546108d89061558d565b80156109255780601f106108fa57610100808354040283529160200191610925565b820191906000526020600020905b81548152906001019060200180831161090857829003601f168201915b50505050508152602001600382015481526020016004820180546109489061558d565b80601f01602080910402602001604051908101604052809291908181526020018280546109749061558d565b80156109c15780601f10610996576101008083540402835291602001916109c1565b820191906000526020600020905b8154815290600101906020018083116109a457829003601f168201915b5050509183525050600582015460208201526006820154604082015260078201546060820152600882015460809091019060ff166002811115610a0657610a06614d7a565b6002811115610a1757610a17614d7a565b815260200160098201805480602002602001604051908101604052809291908181526020016000905b82821015610aec578382906000526020600020018054610a5f9061558d565b80601f0160208091040260200160405190810160405280929190818152602001828054610a8b9061558d565b8015610ad85780601f10610aad57610100808354040283529160200191610ad8565b820191906000526020600020905b815481529060010190602001808311610abb57829003601f168201915b505050505081526020019060010190610a40565b505050508152602001600a82018054610b049061558d565b80601f0160208091040260200160405190810160405280929190818152602001828054610b309061558d565b8015610b7d5780601f10610b5257610100808354040283529160200191610b7d565b820191906000526020600020905b815481529060010190602001808311610b6057829003601f168201915b50505050508152602001600b82018054610b969061558d565b80601f0160208091040260200160405190810160405280929190818152602001828054610bc29061558d565b8015610c0f5780601f10610be457610100808354040283529160200191610c0f565b820191906000526020600020905b815481529060010190602001808311610bf257829003601f168201915b5050509183525050600c8201546020820152600d8201546040820152600e82015460609091019060ff166002811115610c4a57610c4a614d7a565b6002811115610c5b57610c5b614d7a565b8152602001600e820160019054906101000a900460ff166003811115610c8357610c83614d7a565b6003811115610c9457610c94614d7a565b8152600f820154602082015260109091015460ff1615156040909101528351849084908110610cc557610cc56155f6565b60200260200101819052508180610cdb906155dd565b9250505b80610ce9816155dd565b91505061078e565b5090949350505050565b600080610d078a613f22565b905060006040518061014001604052808d81526020018381526020018c81526020018b81526020018a8152602001898152602001888152602001878152602001868152602001858152509050610d5c81613ff5565b9c9b505050505050505050505050565b6060600060015b6002548111610dbe57600084815260086020908152604080832084845290915290205460ff1615610dac5781610da8816155dd565b9250505b80610db6816155dd565b915050610d73565b506000816001600160401b03811115610dd957610dd96149ea565b604051908082528060200260200182016040528015610e02578160200160208202803683370190505b509050600060015b6002548111610cf157600086815260086020908152604080832084845290915290205460ff1615610e615780838381518110610e4857610e486155f6565b602090810291909101015281610e5d816155dd565b9250505b80610e6b816155dd565b915050610e0a565b6060600060015b6001548111610eeb5760008181526004602052604090206003015484148015610ec6575060008181526004602052604081206008015460ff166002811115610ec457610ec4614d7a565b145b15610ed95781610ed5816155dd565b9250505b80610ee3816155dd565b915050610e7a565b506000816001600160401b03811115610f0657610f066149ea565b604051908082528060200260200182016040528015610f3f57816020015b610f2c614875565b815260200190600190039081610f245790505b509050600060015b6001548111610cf15760008181526004602052604090206003015486148015610f93575060008181526004602052604081206008015460ff166002811115610f9157610f91614d7a565b145b1561149657600460008281526020019081526020016000206040518061024001604052908160008201548152602001600182018054610fd19061558d565b80601f0160208091040260200160405190810160405280929190818152602001828054610ffd9061558d565b801561104a5780601f1061101f5761010080835404028352916020019161104a565b820191906000526020600020905b81548152906001019060200180831161102d57829003601f168201915b505050505081526020016002820180546110639061558d565b80601f016020809104026020016040519081016040528092919081815260200182805461108f9061558d565b80156110dc5780601f106110b1576101008083540402835291602001916110dc565b820191906000526020600020905b8154815290600101906020018083116110bf57829003601f168201915b50505050508152602001600382015481526020016004820180546110ff9061558d565b80601f016020809104026020016040519081016040528092919081815260200182805461112b9061558d565b80156111785780601f1061114d57610100808354040283529160200191611178565b820191906000526020600020905b81548152906001019060200180831161115b57829003601f168201915b5050509183525050600582015460208201526006820154604082015260078201546060820152600882015460809091019060ff1660028111156111bd576111bd614d7a565b60028111156111ce576111ce614d7a565b815260200160098201805480602002602001604051908101604052809291908181526020016000905b828210156112a35783829060005260206000200180546112169061558d565b80601f01602080910402602001604051908101604052809291908181526020018280546112429061558d565b801561128f5780601f106112645761010080835404028352916020019161128f565b820191906000526020600020905b81548152906001019060200180831161127257829003601f168201915b5050505050815260200190600101906111f7565b505050508152602001600a820180546112bb9061558d565b80601f01602080910402602001604051908101604052809291908181526020018280546112e79061558d565b80156113345780601f1061130957610100808354040283529160200191611334565b820191906000526020600020905b81548152906001019060200180831161131757829003601f168201915b50505050508152602001600b8201805461134d9061558d565b80601f01602080910402602001604051908101604052809291908181526020018280546113799061558d565b80156113c65780601f1061139b576101008083540402835291602001916113c6565b820191906000526020600020905b8154815290600101906020018083116113a957829003601f168201915b5050509183525050600c8201546020820152600d8201546040820152600e82015460609091019060ff16600281111561140157611401614d7a565b600281111561141257611412614d7a565b8152602001600e820160019054906101000a900460ff16600381111561143a5761143a614d7a565b600381111561144b5761144b614d7a565b8152600f820154602082015260109091015460ff161515604090910152835184908490811061147c5761147c6155f6565b60200260200101819052508180611492906155dd565b9250505b806114a0816155dd565b915050610f47565b6040516a2a3930b739b837b93a32b960a91b6020820152602b0160405160208183030381529060405280519060200120816040516020016114e99190615275565b60405160208183030381529060405280519060200120148061155d57506040516857617265686f75736560b81b602082015260290160405160208183030381529060405280519060200120816040516020016115459190615275565b60405160208183030381529060405280519060200120145b6115a45760405162461bcd60e51b8152602060048201526018602482015277496e76616c6964207061727469636970616e74207479706560401b6044820152606401610510565b60008481526004602052604081205490036115d15760405162461bcd60e51b81526004016105109061560c565b600160008581526004602052604090206008015460ff1660028111156115f9576115f9614d7a565b1461163f5760405162461bcd60e51b815260206004820152601660248201527510985d18da081b5d5cdd08189948185c1c1c9bdd995960521b6044820152606401610510565b6040805160808101825284815242602080830191825282840186815260608401869052600089815260038352948520805460018181018355918752929095208451600490930201918255915193810193909355519091829160028201906116a69082615689565b50606082015160038201906116bb9082615689565b5050604051712130ba103230ba903b30b71031b43abcb2b760711b6020820152603201905060405160208183030381529060405280519060200120836040516020016117079190615275565b604051602081830303815290604052805190602001200361174c576000858152600460205260409020600e8101805461ffff1916610101179055600f018490556118e9565b604051722a30b690323ab733903b30b71031b43abcb2b760691b602082015260330160405160208183030381529060405280519060200120836040516020016117959190615275565b60405160208183030381529060405280519060200120036117db576000858152600460205260409020600e0180546002919061ff001916610100835b02179055506118e9565b604051722a34b2b8103a3ab1903b30b71031b43abcb2b760691b602082015260330160405160208183030381529060405280519060200120836040516020016118249190615275565b6040516020818303038152906040528051906020012003611864576000858152600460205260409020600e0180546001919061ff001916610100836117d1565b604051742437b0b7103a3430b734103b30b71031b43abcb2b760591b602082015260350160405160208183030381529060405280519060200120836040516020016118af9190615275565b60405160208183030381529060405280519060200120036118e9576000858152600460205260409020600e01805461ffff19166103021790555b60008581526004602052604090819020600e0154905186917f946c8fa0a82d640c200413cf1c62f9401d34b0f1435a263a281ff0fd09030ae89161193b91610100900460ff1690879089908890615748565b60405180910390a25050505050565b60008281526004602052604081205490036119775760405162461bcd60e51b81526004016105109061560c565b6000828152600460205260409020600801805482919060ff191660018360028111156119a5576119a5614d7a565b0217905550817fcf4d4f3dcd5294f4d19269f489155c2187699f4a9fb9004b6a303752b00b282f826040516119da9190615262565b60405180910390a25050565b60006005856040516119f89190615275565b908152602001604051809103902054905080600003611a295760405162461bcd60e51b81526004016105109061554a565b611a35818585856114a8565b5050505050565b6060600060015b6001548111611a975760008181526004602052604081206008015460ff166002811115611a7257611a72614d7a565b03611a855781611a81816155dd565b9250505b80611a8f816155dd565b915050611a43565b506000816001600160401b03811115611ab257611ab26149ea565b604051908082528060200260200182016040528015611aeb57816020015b611ad8614875565b815260200190600190039081611ad05790505b509050600060015b60015481116120375760008181526004602052604081206008015460ff166002811115611b2257611b22614d7a565b0361202557600460008281526020019081526020016000206040518061024001604052908160008201548152602001600182018054611b609061558d565b80601f0160208091040260200160405190810160405280929190818152602001828054611b8c9061558d565b8015611bd95780601f10611bae57610100808354040283529160200191611bd9565b820191906000526020600020905b815481529060010190602001808311611bbc57829003601f168201915b50505050508152602001600282018054611bf29061558d565b80601f0160208091040260200160405190810160405280929190818152602001828054611c1e9061558d565b8015611c6b5780601f10611c4057610100808354040283529160200191611c6b565b820191906000526020600020905b815481529060010190602001808311611c4e57829003601f168201915b5050505050815260200160038201548152602001600482018054611c8e9061558d565b80601f0160208091040260200160405190810160405280929190818152602001828054611cba9061558d565b8015611d075780601f10611cdc57610100808354040283529160200191611d07565b820191906000526020600020905b815481529060010190602001808311611cea57829003601f168201915b5050509183525050600582015460208201526006820154604082015260078201546060820152600882015460809091019060ff166002811115611d4c57611d4c614d7a565b6002811115611d5d57611d5d614d7a565b815260200160098201805480602002602001604051908101604052809291908181526020016000905b82821015611e32578382906000526020600020018054611da59061558d565b80601f0160208091040260200160405190810160405280929190818152602001828054611dd19061558d565b8015611e1e5780601f10611df357610100808354040283529160200191611e1e565b820191906000526020600020905b815481529060010190602001808311611e0157829003601f168201915b505050505081526020019060010190611d86565b505050508152602001600a82018054611e4a9061558d565b80601f0160208091040260200160405190810160405280929190818152602001828054611e769061558d565b8015611ec35780601f10611e9857610100808354040283529160200191611ec3565b820191906000526020600020905b815481529060010190602001808311611ea657829003601f168201915b50505050508152602001600b82018054611edc9061558d565b80601f0160208091040260200160405190810160405280929190818152602001828054611f089061558d565b8015611f555780601f10611f2a57610100808354040283529160200191611f55565b820191906000526020600020905b815481529060010190602001808311611f3857829003601f168201915b5050509183525050600c8201546020820152600d8201546040820152600e82015460609091019060ff166002811115611f9057611f90614d7a565b6002811115611fa157611fa1614d7a565b8152602001600e820160019054906101000a900460ff166003811115611fc957611fc9614d7a565b6003811115611fda57611fda614d7a565b8152600f820154602082015260109091015460ff161515604090910152835184908490811061200b5761200b6155f6565b60200260200101819052508180612021906155dd565b9250505b8061202f816155dd565b915050611af3565b50909392505050565b600082815260046020526040812054900361206d5760405162461bcd60e51b81526004016105109061560c565b60026000838152600460205260409020600e015460ff16600281111561209557612095614d7a565b146121005760405162461bcd60e51b815260206004820152603560248201527f4261746368206d7573742062652064656c697665726564206265666f7265207760448201527430b932b437bab9b29031b7b73334b936b0ba34b7b760591b6064820152608401610510565b60036000838152600460205260409020600e0154610100900460ff16600381111561212d5761212d614d7a565b146121845760405162461bcd60e51b815260206004820152602160248201527f4261746368206d75737420626520696e2044656c6976657265642073746174756044820152607360f81b6064820152608401610510565b600082815260086020908152604080832084845290915290205460ff16156122065760405162461bcd60e51b815260206004820152602f60248201527f546869732077617265686f7573652068617320616c726561647920636f6e666960448201526e0e4dacac840e8d0d2e640c4c2e8c6d608b1b6064820152608401610510565b60008281526008602090815260408083208484528252808320805460ff19166001908117909155815160808101835285815282518084018452600981526857617265686f75736560b81b81860152818501908152428285015283518085018552601e81527f436f6e6669726d656420726563656970742061742077617265686f7573650000818701526060830152878652600785529285208054808401825590865293909420845160049094020192835590518392918201906122c99082615689565b5060408201516002820155606082015160038201906122e89082615689565b505050827f5a0ca583abbe4762e00286f277fb259ed4a722726e02cd87aa38d3b2eeead4f58360405161231d91815260200190565b60405180910390a2505050565b6060600060015b600154811161237357600081815260046020526040902060030154849003612361578161235d816155dd565b9250505b8061236b816155dd565b915050612331565b506000816001600160401b0381111561238e5761238e6149ea565b6040519080825280602002602001820160405280156123c757816020015b6123b4614875565b8152602001906001900390816123ac5790505b509050600060015b6001548111610cf1576000818152600460205260409020600301548690036128ef5760046000828152602001908152602001600020604051806102400160405290816000820154815260200160018201805461242a9061558d565b80601f01602080910402602001604051908101604052809291908181526020018280546124569061558d565b80156124a35780601f10612478576101008083540402835291602001916124a3565b820191906000526020600020905b81548152906001019060200180831161248657829003601f168201915b505050505081526020016002820180546124bc9061558d565b80601f01602080910402602001604051908101604052809291908181526020018280546124e89061558d565b80156125355780601f1061250a57610100808354040283529160200191612535565b820191906000526020600020905b81548152906001019060200180831161251857829003601f168201915b50505050508152602001600382015481526020016004820180546125589061558d565b80601f01602080910402602001604051908101604052809291908181526020018280546125849061558d565b80156125d15780601f106125a6576101008083540402835291602001916125d1565b820191906000526020600020905b8154815290600101906020018083116125b457829003601f168201915b5050509183525050600582015460208201526006820154604082015260078201546060820152600882015460809091019060ff16600281111561261657612616614d7a565b600281111561262757612627614d7a565b815260200160098201805480602002602001604051908101604052809291908181526020016000905b828210156126fc57838290600052602060002001805461266f9061558d565b80601f016020809104026020016040519081016040528092919081815260200182805461269b9061558d565b80156126e85780601f106126bd576101008083540402835291602001916126e8565b820191906000526020600020905b8154815290600101906020018083116126cb57829003601f168201915b505050505081526020019060010190612650565b505050508152602001600a820180546127149061558d565b80601f01602080910402602001604051908101604052809291908181526020018280546127409061558d565b801561278d5780601f106127625761010080835404028352916020019161278d565b820191906000526020600020905b81548152906001019060200180831161277057829003601f168201915b50505050508152602001600b820180546127a69061558d565b80601f01602080910402602001604051908101604052809291908181526020018280546127d29061558d565b801561281f5780601f106127f45761010080835404028352916020019161281f565b820191906000526020600020905b81548152906001019060200180831161280257829003601f168201915b5050509183525050600c8201546020820152600d8201546040820152600e82015460609091019060ff16600281111561285a5761285a614d7a565b600281111561286b5761286b614d7a565b8152602001600e820160019054906101000a900460ff16600381111561289357612893614d7a565b60038111156128a4576128a4614d7a565b8152600f820154602082015260109091015460ff16151560409091015283518490849081106128d5576128d56155f6565b602002602001018190525081806128eb906155dd565b9250505b806128f9816155dd565b9150506123cf565b600081815260046020526040812054900361292e5760405162461bcd60e51b81526004016105109061560c565b60008181526004602052604081206008015460ff16600281111561295457612954614d7a565b146129715760405162461bcd60e51b81526004016105109061578b565b6000818152600460205260409081902060088101805460ff191660029081179091556003820154925184937ffd30c1d70626cdbca41a738198079b1d57c2a7d36d52b79ae4b4bcc980506f76936129cc93919291019061583f565b60405180910390a2604080516001808252818301909252600091602080830190803683375050506000838152600460205260408120600d0154825192935091839190612a1a57612a1a6155f6565b60209081029190910181019190915260408051600080825292810190915281612a53565b6060815260200190600190039081612a3e5790505b506000546040516324ac943560e01b81529192506001600160a01b0316906324ac943590612a8c908690600190869088906004016158ad565b600060405180830381600087803b158015612aa657600080fd5b505af1158015612aba573d6000803e3d6000fd5b50505050505050565b6000818152600460205260408120548103612af05760405162461bcd60e51b81526004016105109061560c565b506000908152600460205260409020600e0154610100900460ff1690565b612b16614875565b6000828152600460205260408120549003612b435760405162461bcd60e51b81526004016105109061560c565b600460008381526020019081526020016000206040518061024001604052908160008201548152602001600182018054612b7c9061558d565b80601f0160208091040260200160405190810160405280929190818152602001828054612ba89061558d565b8015612bf55780601f10612bca57610100808354040283529160200191612bf5565b820191906000526020600020905b815481529060010190602001808311612bd857829003601f168201915b50505050508152602001600282018054612c0e9061558d565b80601f0160208091040260200160405190810160405280929190818152602001828054612c3a9061558d565b8015612c875780601f10612c5c57610100808354040283529160200191612c87565b820191906000526020600020905b815481529060010190602001808311612c6a57829003601f168201915b5050505050815260200160038201548152602001600482018054612caa9061558d565b80601f0160208091040260200160405190810160405280929190818152602001828054612cd69061558d565b8015612d235780601f10612cf857610100808354040283529160200191612d23565b820191906000526020600020905b815481529060010190602001808311612d0657829003601f168201915b5050509183525050600582015460208201526006820154604082015260078201546060820152600882015460809091019060ff166002811115612d6857612d68614d7a565b6002811115612d7957612d79614d7a565b815260200160098201805480602002602001604051908101604052809291908181526020016000905b82821015612e4e578382906000526020600020018054612dc19061558d565b80601f0160208091040260200160405190810160405280929190818152602001828054612ded9061558d565b8015612e3a5780601f10612e0f57610100808354040283529160200191612e3a565b820191906000526020600020905b815481529060010190602001808311612e1d57829003601f168201915b505050505081526020019060010190612da2565b505050508152602001600a82018054612e669061558d565b80601f0160208091040260200160405190810160405280929190818152602001828054612e929061558d565b8015612edf5780601f10612eb457610100808354040283529160200191612edf565b820191906000526020600020905b815481529060010190602001808311612ec257829003601f168201915b50505050508152602001600b82018054612ef89061558d565b80601f0160208091040260200160405190810160405280929190818152602001828054612f249061558d565b8015612f715780601f10612f4657610100808354040283529160200191612f71565b820191906000526020600020905b815481529060010190602001808311612f5457829003601f168201915b5050509183525050600c8201546020820152600d8201546040820152600e82015460609091019060ff166002811115612fac57612fac614d7a565b6002811115612fbd57612fbd614d7a565b8152602001600e820160019054906101000a900460ff166003811115612fe557612fe5614d7a565b6003811115612ff657612ff6614d7a565b8152600f820154602082015260109091015460ff16151560409091015292915050565b60008181526004602052604081205481036130465760405162461bcd60e51b81526004016105109061560c565b506000908152600460205260409020600e015460ff1690565b6000806000848152600460205260409020600e0154610100900460ff16600381111561308d5761308d614d7a565b14806130df575060036000848152600460205260409020600e0154610100900460ff1660038111156130c1576130c1614d7a565b1480156130df57506000838152600460205260409020600f01548214155b9392505050565b60008481526004602052604081205490036131135760405162461bcd60e51b81526004016105109061560c565b6000848152600760209081526040808320815160808101835287815280840187815242938201939093526060810186905281546001818101845592865293909420845160049094020192835590519082019061316f9082615689565b50604082015160028201556060820151600382019061318e9082615689565b505050837fe5fd3732b00b2878e55e64cdde6c59b6566f044952fe6b2f36658364da9b561c8484846040516131c593929190615950565b60405180910390a250505050565b6060600060015b600154811161324d57600081815260046020526040902060030154841480156132285750600160008281526004602052604090206008015460ff16600281111561322657613226614d7a565b145b1561323b5781613237816155dd565b9250505b80613245816155dd565b9150506131da565b506000816001600160401b03811115613268576132686149ea565b6040519080825280602002602001820160405280156132a157816020015b61328e614875565b8152602001906001900390816132865790505b509050600060015b6001548111610cf157600081815260046020526040902060030154861480156132f75750600160008281526004602052604090206008015460ff1660028111156132f5576132f5614d7a565b145b156137fa576004600082815260200190815260200160002060405180610240016040529081600082015481526020016001820180546133359061558d565b80601f01602080910402602001604051908101604052809291908181526020018280546133619061558d565b80156133ae5780601f10613383576101008083540402835291602001916133ae565b820191906000526020600020905b81548152906001019060200180831161339157829003601f168201915b505050505081526020016002820180546133c79061558d565b80601f01602080910402602001604051908101604052809291908181526020018280546133f39061558d565b80156134405780601f1061341557610100808354040283529160200191613440565b820191906000526020600020905b81548152906001019060200180831161342357829003601f168201915b50505050508152602001600382015481526020016004820180546134639061558d565b80601f016020809104026020016040519081016040528092919081815260200182805461348f9061558d565b80156134dc5780601f106134b1576101008083540402835291602001916134dc565b820191906000526020600020905b8154815290600101906020018083116134bf57829003601f168201915b5050509183525050600582015460208201526006820154604082015260078201546060820152600882015460809091019060ff16600281111561352157613521614d7a565b600281111561353257613532614d7a565b815260200160098201805480602002602001604051908101604052809291908181526020016000905b8282101561360757838290600052602060002001805461357a9061558d565b80601f01602080910402602001604051908101604052809291908181526020018280546135a69061558d565b80156135f35780601f106135c8576101008083540402835291602001916135f3565b820191906000526020600020905b8154815290600101906020018083116135d657829003601f168201915b50505050508152602001906001019061355b565b505050508152602001600a8201805461361f9061558d565b80601f016020809104026020016040519081016040528092919081815260200182805461364b9061558d565b80156136985780601f1061366d57610100808354040283529160200191613698565b820191906000526020600020905b81548152906001019060200180831161367b57829003601f168201915b50505050508152602001600b820180546136b19061558d565b80601f01602080910402602001604051908101604052809291908181526020018280546136dd9061558d565b801561372a5780601f106136ff5761010080835404028352916020019161372a565b820191906000526020600020905b81548152906001019060200180831161370d57829003601f168201915b5050509183525050600c8201546020820152600d8201546040820152600e82015460609091019060ff16600281111561376557613765614d7a565b600281111561377657613776614d7a565b8152602001600e820160019054906101000a900460ff16600381111561379e5761379e614d7a565b60038111156137af576137af614d7a565b8152600f820154602082015260109091015460ff16151560409091015283518490849081106137e0576137e06155f6565b602002602001018190525081806137f6906155dd565b9250505b80613804816155dd565b9150506132a9565b613814614875565b60006005836040516138269190615275565b9081526020016040518091039020549050806000036138575760405162461bcd60e51b81526004016105109061554a565b6004600082815260200190815260200160002060405180610240016040529081600082015481526020016001820180546138909061558d565b80601f01602080910402602001604051908101604052809291908181526020018280546138bc9061558d565b80156139095780601f106138de57610100808354040283529160200191613909565b820191906000526020600020905b8154815290600101906020018083116138ec57829003601f168201915b505050505081526020016002820180546139229061558d565b80601f016020809104026020016040519081016040528092919081815260200182805461394e9061558d565b801561399b5780601f106139705761010080835404028352916020019161399b565b820191906000526020600020905b81548152906001019060200180831161397e57829003601f168201915b50505050508152602001600382015481526020016004820180546139be9061558d565b80601f01602080910402602001604051908101604052809291908181526020018280546139ea9061558d565b8015613a375780601f10613a0c57610100808354040283529160200191613a37565b820191906000526020600020905b815481529060010190602001808311613a1a57829003601f168201915b5050509183525050600582015460208201526006820154604082015260078201546060820152600882015460809091019060ff166002811115613a7c57613a7c614d7a565b6002811115613a8d57613a8d614d7a565b815260200160098201805480602002602001604051908101604052809291908181526020016000905b82821015613b62578382906000526020600020018054613ad59061558d565b80601f0160208091040260200160405190810160405280929190818152602001828054613b019061558d565b8015613b4e5780601f10613b2357610100808354040283529160200191613b4e565b820191906000526020600020905b815481529060010190602001808311613b3157829003601f168201915b505050505081526020019060010190613ab6565b505050508152602001600a82018054613b7a9061558d565b80601f0160208091040260200160405190810160405280929190818152602001828054613ba69061558d565b8015613bf35780601f10613bc857610100808354040283529160200191613bf3565b820191906000526020600020905b815481529060010190602001808311613bd657829003601f168201915b50505050508152602001600b82018054613c0c9061558d565b80601f0160208091040260200160405190810160405280929190818152602001828054613c389061558d565b8015613c855780601f10613c5a57610100808354040283529160200191613c85565b820191906000526020600020905b815481529060010190602001808311613c6857829003601f168201915b5050509183525050600c8201546020820152600d8201546040820152600e82015460609091019060ff166002811115613cc057613cc0614d7a565b6002811115613cd157613cd1614d7a565b8152602001600e820160019054906101000a900460ff166003811115613cf957613cf9614d7a565b6003811115613d0a57613d0a614d7a565b8152600f820154602082015260109091015460ff1615156040909101529392505050565b6000818152600460205260408120549003613d5b5760405162461bcd60e51b81526004016105109061560c565b60008181526004602052604081206008015460ff166002811115613d8157613d81614d7a565b14613d9e5760405162461bcd60e51b81526004016105109061578b565b6000818152600460208181526040808420600881018054600160ff199182168117909255600685529583902080549096161790945591905260038201549051909183917f1a621270a25ae67b5e557b98be27914cd1de793b7ca49110be85cb5aaa169c9b91613e1291600290910190615985565b60405180910390a3600081815260046020526040908190206003810154915183917f309958f3629dbb8b1c3fb39cc2ffd4759c619a8c6c7927159d9e608c99ae463291613e629160020190615985565b60405180910390a3604080516001808252818301909252600091602080830190803683375050506000838152600460205260408120600d0154825192935091839190613eb057613eb06155f6565b60209081029190910181019190915260408051600080825292810190915281613ee9565b6060815260200190600190039081613ed45790505b506000546040516324ac943560e01b81529192506001600160a01b0316906324ac943590612a8c90869060019086908890600401615998565b604080518082019091526002815261030360f41b60208201526060906000613f498461465e565b6040805142602080830191909152818301889052825180830384018152606090920190925280519101209091506000613f818261465e565b90506000848483604051602001613f9a93929190615a27565b60405160208183030381529060405290506000613fb682614789565b9050600082613fc78360ff1661465e565b604051602001613fd8929190615a6a565b60408051601f198184030181529190529998505050505050505050565b60006005826020015160405161400b9190615275565b90815260200160405180910390205460001461405f5760405162461bcd60e51b81526020600482015260136024820152725353434320616c72656164792065786973747360681b6044820152606401610510565b6000826060015151116140b15760405162461bcd60e51b815260206004820152601a6024820152795175616e74697479206d757374206e6f7420626520656d70747960301b6044820152606401610510565b6000826080015151116141195760405162461bcd60e51b815260206004820152602a60248201527f4174206c65617374206f6e652070726f6475637420696d6167652055524c20696044820152691cc81c995c5d5a5c995960b21b6064820152608401610510565b60008260a0015151116141785760405162461bcd60e51b815260206004820152602160248201527f436572746966696361746520696d6167652055524c20697320726571756972656044820152601960fa1b6064820152608401610510565b60008260c0015151116141cc5760405162461bcd60e51b815260206004820152601c60248201527b11985c9b481c1b1bdd081b9d5b58995c881a5cc81c995c5d5a5c995960221b6044820152606401610510565b60008260e001511161421b5760405162461bcd60e51b8152602060048201526018602482015277141c9bd91d58dd081251081b5d5cdd081899481d985b1a5960421b6044820152606401610510565b6000826101000151116142695760405162461bcd60e51b815260206004820152601660248201527514dd185c9d0819185d19481a5cc81c995c5d5a5c995960521b6044820152606401610510565b6000826101200151116142b55760405162461bcd60e51b8152602060048201526014602482015273115b990819185d19481a5cc81c995c5d5a5c995960621b6044820152606401610510565b816101200151826101000151106143195760405162461bcd60e51b815260206004820152602260248201527f53746172742064617465206d757374206265206265666f726520656e64206461604482015261746560f01b6064820152608401610510565b8151516143675760405162461bcd60e51b815260206004820152601c60248201527b4261746368206e616d65206d757374206e6f7420626520656d70747960201b6044820152606401610510565b60018054906000614377836155dd565b919050555060006001549050600042905060006143b1856020015186604001518760600151858960c001518a60e001518b60000151614833565b9050600060405180610240016040528085815260200187600001518152602001876020015181526020018760400151815260200187606001518152602001848152602001876101000151815260200187610120015181526020016000600281111561441e5761441e614d7a565b8152608080890151602083015260a0808a0151604084015260c0808b0151606085015291830186905260e08a015190830152016000815260200160008152600060208083018290526040928301829052878252600481529190208251815590820151919250829160018201906144949082615689565b50604082015160028201906144a99082615689565b5060608201516003820155608082015160048201906144c89082615689565b5060a0820151600582015560c0820151600682015560e0820151600782015561010082015160088201805460ff1916600183600281111561450b5761450b614d7a565b0217905550610120820151805161452c916009840191602090910190614925565b50610140820151600a8201906145429082615689565b50610160820151600b8201906145589082615689565b50610180820151600c8201556101a0820151600d8201556101c0820151600e8201805460ff1916600183600281111561459357614593614d7a565b02179055506101e0820151600e8201805461ff0019166101008360038111156145be576145be614d7a565b0217905550610200820151600f820155610220909101516010909101805460ff1916911515919091179055602086015160405185916005916146009190615275565b908152602001604051809103902081905550837f58c168780de5fc719a1e7a85c7eca394e664c0e74b7c9ebc621f0b093112d04b8760200151886040015160405161464c929190615a99565b60405180910390a25091949350505050565b6060816000036146855750506040805180820190915260018152600360fc1b602082015290565b8160005b81156146af5780614699816155dd565b91506146a89050600a83615ad1565b9150614689565b6000816001600160401b038111156146c9576146c96149ea565b6040519080825280601f01601f1916602001820160405280156146f3576020820181803683370190505b509050815b851561478057614709600182615ae5565b90506000614718600a88615ad1565b61472390600a615af8565b61472d9088615ae5565b614738906030615b0f565b905060008160f81b905080848481518110614755576147556155f6565b60200101906001600160f81b031916908160001a905350614777600a89615ad1565b975050506146f8565b50949350505050565b60008181805b825181101561480657600060308483815181106147ae576147ae6155f6565b01602001516147c0919060f81c615b28565b90506147cd600283615b41565b156147d857806147e3565b6147e3816003615b55565b6147f09060ff1684615b78565b92505080806147fe906155dd565b91505061478f565b506000600a6148158184615b41565b61482090600a615ae5565b61482a9190615b41565b95945050505050565b6000878787878787876040516020016148529796959493929190615b8b565b604051602081830303815290604052805190602001209050979650505050505050565b6040518061024001604052806000815260200160608152602001606081526020016000815260200160608152602001600081526020016000815260200160008152602001600060028111156148cc576148cc614d7a565b815260200160608152602001606081526020016060815260200160008019168152602001600081526020016000600281111561490a5761490a614d7a565b81526020016000815260006020820181905260409091015290565b82805482825590600052602060002090810192821561496b579160200282015b8281111561496b578251829061495b9082615689565b5091602001919060010190614945565b5061497792915061497b565b5090565b8082111561497757600061498f8282614998565b5060010161497b565b5080546149a49061558d565b6000825580601f106149b4575050565b601f0160209004906000526020600020908101906149d291906149d5565b50565b5b8082111561497757600081556001016149d6565b634e487b7160e01b600052604160045260246000fd5b60405160e081016001600160401b0381118282101715614a2257614a226149ea565b60405290565b604051601f8201601f191681016001600160401b0381118282101715614a5057614a506149ea565b604052919050565b60006001600160401b03821115614a7157614a716149ea565b50601f01601f191660200190565b600082601f830112614a9057600080fd5b8135614aa3614a9e82614a58565b614a28565b818152846020838601011115614ab857600080fd5b816020850160208301376000918101602001919091529392505050565b600060208284031215614ae757600080fd5b81356001600160401b03811115614afd57600080fd5b614b0984828501614a7f565b949350505050565b600060208284031215614b2357600080fd5b5035919050565b60005b83811015614b45578181015183820152602001614b2d565b50506000910152565b60008151808452614b66816020860160208601614b2a565b601f01601f19169290920160200192915050565b600082825180855260208086019550808260051b84010181860160005b84811015614bc557601f19868403018952614bb3838351614b4e565b98840198925090830190600101614b97565b5090979650505050505050565b600081518084526020808501945080840160005b83811015614c0257815187529582019590820190600101614be6565b509495945050505050565b60006020808301818452808551808352604092508286019150828160051b87010184880160005b83811015614cde57603f19898403018552815160e0815185528882015189860152878201518189870152614c6a82870182614b4e565b91505060608083015186830382880152614c848382614b4e565b925050506080808301511515818701525060a08083015186830382880152614cac8382614b7a565b9250505060c08083015192508582038187015250614cca8183614bd2565b968901969450505090860190600101614c34565b509098975050505050505050565b60006020808301818452808551808352604092508286019150828160051b87010184880160005b83811015614cde57603f1989840301855281516080815185528882015189860152878201518189870152614d4982870182614b4e565b91505060608083015192508582038187015250614d668183614b4e565b968901969450505090860190600101614d13565b634e487b7160e01b600052602160045260246000fd5b600381106149d2576149d2614d7a565b614da981614d90565b9052565b60048110614da957614da9614d7a565b6000610240825184526020830151816020860152614ddd82860182614b4e565b91505060408301518482036040860152614df78282614b4e565b9150506060830151606085015260808301518482036080860152614e1b8282614b4e565b91505060a083015160a085015260c083015160c085015260e083015160e085015261010080840151614e4f82870182614da0565b50506101208084015185830382870152614e698382614b7a565b925050506101408084015185830382870152614e858382614b4e565b925050506101608084015185830382870152614ea18382614b4e565b925050506101808084015181860152506101a08084015181860152506101c080840151614ed082870182614da0565b50506101e080840151614ee582870182614dad565b505061020083810151908501526102208084015180151582870152610cf1565b6000602080830181845280855180835260408601915060408160051b870101925083870160005b82811015614f5a57603f19888603018452614f48858351614dbd565b94509285019290850190600101614f2c565b5092979650505050505050565b60006001600160401b03821115614f8057614f806149ea565b5060051b60200190565b600082601f830112614f9b57600080fd5b81356020614fab614a9e83614f67565b82815260059290921b84018101918181019086841115614fca57600080fd5b8286015b848110156150095780356001600160401b03811115614fed5760008081fd5b614ffb8986838b0101614a7f565b845250918301918301614fce565b509695505050505050565b60008060008060008060008060006101208a8c03121561503357600080fd5b89356001600160401b038082111561504a57600080fd5b6150568d838e01614a7f565b9a5060208c0135995060408c013591508082111561507357600080fd5b61507f8d838e01614a7f565b985060608c013591508082111561509557600080fd5b6150a18d838e01614f8a565b975060808c01359150808211156150b757600080fd5b6150c38d838e01614a7f565b965060a08c01359150808211156150d957600080fd5b506150e68c828d01614a7f565b94505060c08a0135925060e08a013591506101008a013590509295985092959850929598565b6020815260006130df6020830184614bd2565b6000806000806080858703121561513557600080fd5b843593506020850135925060408501356001600160401b038082111561515a57600080fd5b61516688838901614a7f565b9350606087013591508082111561517c57600080fd5b5061518987828801614a7f565b91505092959194509250565b600080604083850312156151a857600080fd5b823591506020830135600381106151be57600080fd5b809150509250929050565b600080600080608085870312156151df57600080fd5b84356001600160401b03808211156151f657600080fd5b61520288838901614a7f565b955060208701359450604087013591508082111561515a57600080fd5b6000806040838503121561523257600080fd5b50508035926020909101359150565b6020810161049d8284614dad565b6020815260006130df6020830184614dbd565b6020810161526f83614d90565b91905290565b60008251615287818460208701614b2a565b9190910192915050565b600082601f8301126152a257600080fd5b81516152b0614a9e82614a58565b8181528460208386010111156152c557600080fd5b614b09826020830160208701614b2a565b805180151581146152e657600080fd5b919050565b600082601f8301126152fc57600080fd5b8151602061530c614a9e83614f67565b82815260059290921b8401810191818101908684111561532b57600080fd5b8286015b848110156150095780516001600160401b0381111561534e5760008081fd5b61535c8986838b0101615291565b84525091830191830161532f565b600082601f83011261537b57600080fd5b8151602061538b614a9e83614f67565b82815260059290921b840181019181810190868411156153aa57600080fd5b8286015b8481101561500957805183529183019183016153ae565b600060208083850312156153d857600080fd5b82516001600160401b03808211156153ef57600080fd5b818501915085601f83011261540357600080fd5b8151615411614a9e82614f67565b81815260059190911b8301840190848101908883111561543057600080fd5b8585015b8381101561553d5780518581111561544b57600080fd5b860160e0818c03601f190112156154625760008081fd5b61546a614a00565b8882015181526040808301518a8301526060808401518981111561548e5760008081fd5b61549c8f8d83880101615291565b83850152506080915081840151898111156154b75760008081fd5b6154c58f8d83880101615291565b82850152505060a06154d88185016152d6565b8284015260c0915081840151898111156154f25760008081fd5b6155008f8d838801016152eb565b82850152505060e0830151888111156155195760008081fd5b6155278e8c8387010161536a565b9183019190915250845250918601918601615434565b5098975050505050505050565b60208082526023908201527f426174636820646f6573206e6f7420657869737420776974682074686973205360408201526253434360e81b606082015260800190565b600181811c908216806155a157607f821691505b6020821081036155c157634e487b7160e01b600052602260045260246000fd5b50919050565b634e487b7160e01b600052601160045260246000fd5b6000600182016155ef576155ef6155c7565b5060010190565b634e487b7160e01b600052603260045260246000fd5b60208082526014908201527310985d18da08191bd95cc81b9bdd08195e1a5cdd60621b604082015260600190565b601f82111561568457600081815260208120601f850160051c810160208610156156615750805b601f850160051c820191505b818110156156805782815560010161566d565b5050505b505050565b81516001600160401b038111156156a2576156a26149ea565b6156b6816156b0845461558d565b8461563a565b602080601f8311600181146156eb57600084156156d35750858301515b600019600386901b1c1916600185901b178555615680565b600085815260208120601f198616915b8281101561571a578886015182559484019460019091019084016156fb565b50858210156157385787850151600019600388901b60f8161c191681555b5050505050600190811b01905550565b6157528186614dad565b6080602082015260006157686080830186614b4e565b84604084015282810360608401526157808185614b4e565b979650505050505050565b6020808252601d908201527f4261746368206973206e6f742070656e64696e6720617070726f76616c000000604082015260600190565b600081546157cf8161558d565b8085526020600183811680156157ec576001811461580657615834565b60ff1985168884015283151560051b880183019550615834565b866000528260002060005b8581101561582c5781548a8201860152908301908401615811565b890184019650505b505050505092915050565b828152604060208201526000614b0960408301846157c2565b600081518084526020808501808196508360051b8101915082860160005b858110156158a057828403895261588e848351614b4e565b98850198935090840190600101615876565b5091979650505050505050565b84815260c06020820152600e60c08201526d10985d18da0814995a9958dd195960921b60e08201526000610100806040840152602781840152507f426174636820686173206265656e2072656a65637465642062792074686520616101208301526638383937bb32b960c91b610140830152610160851515606084015280608084015261593c81840186615858565b905082810360a08401526157808185614bd2565b8381526060602082015260006159696060830185614b4e565b828103604084015261597b8185614b4e565b9695505050505050565b6020815260006130df60208301846157c2565b84815260c06020820152600e60c08201526d10985d18da08105c1c1c9bdd995960921b60e08201526000610100806040840152602781840152507f426174636820686173206265656e20617070726f7665642062792074686520616101208301526638383937bb32b960c91b610140830152610160851515606084015280608084015261593c81840186615858565b60008451615a39818460208901614b2a565b845190830190615a4d818360208901614b2a565b8451910190615a60818360208801614b2a565b0195945050505050565b60008351615a7c818460208801614b2a565b835190830190615a90818360208801614b2a565b01949350505050565b604081526000615aac6040830185614b4e565b90508260208301529392505050565b634e487b7160e01b600052601260045260246000fd5b600082615ae057615ae0615abb565b500490565b8181038181111561049d5761049d6155c7565b808202811582820484141761049d5761049d6155c7565b60ff818116838216019081111561049d5761049d6155c7565b60ff828116828216039081111561049d5761049d6155c7565b600082615b5057615b50615abb565b500690565b60ff8181168382160290811690818114615b7157615b716155c7565b5092915050565b8082018082111561049d5761049d6155c7565b600088516020615b9e8285838e01614b2a565b81840191508982528851615bb781838501848d01614b2a565b80830192505087818301528651615bd48160408501848b01614b2a565b604092019182018690528451615bf08160608501848901614b2a565b919091016060019a995050505050505050505056fea26469706673582212203638ab8c315b78046ba1c99e046e0e74b72df6b12c918558aabeeda48310c18564736f6c63430008140033",
  "immutableReferences": {},
  "source": "// SPDX-License-Identifier: MIT\r\npragma solidity ^0.8.0;\r\nimport \"./ActivityLog.sol\";\r\ncontract TraceabilityContract {\r\n    ActivityLog private activityLogContract;   \r\n\r\n  constructor(address _activityLogAddress) {\r\n    require(_activityLogAddress != address(0), \"Invalid ActivityLog address\");\r\n    activityLogContract = ActivityLog(_activityLogAddress);\r\n}\r\n\r\n    uint256 private _batchIdCounter;\r\n    uint256 private _warehouseIdCounter;\r\n\r\nenum BatchStatus { PendingApproval, Approved, Rejected }\r\nenum TransportStatus { NotTransported, InTransit, Delivered }\r\nenum ParticipantType { Transporter, Warehouse }\r\nenum DetailedTransportStatus { NotStarted, InTransit, Paused, Delivered }\r\n\r\n    struct Batch {\r\n        uint256 batchId;\r\n        string name;  // Thm trng tn l hng\r\n        string sscc;\r\n        uint256 producerId;\r\n        string quantity;\r\n        uint256 productionDate;\r\n        uint256 startDate;\r\n        uint256 endDate;\r\n        BatchStatus status;\r\n        string[] productImageUrls;\r\n        string certificateImageUrl;\r\n        string farmPlotNumber;\r\n        bytes32 dataHash;\r\n        uint256 productId;\r\n        TransportStatus transportStatus;\r\n        DetailedTransportStatus detailedTransportStatus;\r\n        uint256 lastTransporterId;\r\n        bool warehouseConfirmed;  // Thm trng ny\r\n\r\n    }\r\n\r\n     struct BatchParams {\r\n        string name;\r\n        string sscc;\r\n        uint256 producerId;\r\n        string quantity;\r\n        string[] productImageUrls;\r\n        string certificateImageUrl;\r\n        string farmPlotNumber;\r\n        uint256 productId;\r\n        uint256 startDate;\r\n        uint256 endDate;\r\n    }\r\n    \r\n    struct Participation {\r\n        uint256 participantId;\r\n        string participantType;\r\n        uint256 timestamp;\r\n        string action;\r\n    }\r\n\r\n    struct TransportEvent {\r\n    uint256 participantId;\r\n    uint256 timestamp;\r\n    string action;\r\n    string participantType;\r\n}\r\n\r\nmapping(uint256 => TransportEvent[]) private _batchTransportEvents;\r\n\r\n\r\n    mapping(uint256 => Batch) private _batches;\r\n    mapping(string => uint256) private _ssccToBatchId;\r\n   \r\n    mapping(uint256 => bool) private _approvedBatches;\r\n    mapping(uint256 => Participation[]) private _batchParticipations;\r\n    \r\n    event BatchApproved(uint256 indexed batchId, uint256 indexed producerId, string sscc);\r\n    event BatchApprovedForQR(uint256 indexed batchId, uint256 indexed producerId, string sscc);\r\n    event ParticipationRecorded(uint256 indexed batchId, uint256 participantId, string participantType, string action);\r\n    event BatchCreated(uint256 indexed batchId, string sscc, uint256 producerId);\r\n    event ActivityLogAdded(\r\n        uint256 indexed uid,\r\n        string activityName,\r\n        string description,\r\n        bool isSystemGenerated,\r\n        string[] imageUrls,\r\n        uint256[] relatedProductIds\r\n    );\r\nevent TransportStatusUpdated(\r\n    uint256 indexed batchId, \r\n    DetailedTransportStatus newStatus, \r\n    string action, \r\n    uint256 participantId, \r\n    string participantType\r\n);\r\n\r\nevent WarehouseConfirmed(uint256 indexed batchId, uint256 warehouseId);\r\n\r\n\r\n    function addSystemActivityLog(\r\n        uint256 _uid,\r\n        string memory _activityName,\r\n        string memory _description,\r\n        uint256[] memory _relatedProductIds\r\n    ) internal {\r\n        activityLogContract.addActivityLog(\r\n            _uid,\r\n            _activityName,\r\n            _description,\r\n            true,\r\n            new string[](0),\r\n            _relatedProductIds\r\n        );\r\n    }\r\n\r\n\r\n    function createBatch(\r\n        string memory _name,  // Thm tham s tn l hng\r\n        uint256 _producerId,\r\n        string memory _quantity,\r\n        string[] memory _productImageUrls,\r\n        string memory _certificateImageUrl,\r\n        string memory _farmPlotNumber,\r\n        uint256 _productId,\r\n        uint256 _startDate,\r\n        uint256 _endDate\r\n    ) public returns (uint256) {\r\n        string memory sscc = generateSSCC(_producerId);\r\n        BatchParams memory params = BatchParams({\r\n            name: _name,  // Thm tn l hng\r\n            sscc: sscc,\r\n            producerId: _producerId,\r\n            quantity: _quantity,\r\n            productImageUrls: _productImageUrls,\r\n            certificateImageUrl: _certificateImageUrl,\r\n            farmPlotNumber: _farmPlotNumber,\r\n            productId: _productId,\r\n            startDate: _startDate,\r\n            endDate: _endDate\r\n        });\r\n\r\n        return _createBatch(params);\r\n    }\r\n\r\n    function generateSSCC(uint256 _producerId) private view returns (string memory) {\r\n        string memory prefix = \"00\";\r\n        string memory companyPrefix = uint2str(_producerId);\r\n        uint256 serialNumber = uint256(keccak256(abi.encodePacked(block.timestamp, _producerId)));\r\n        string memory serialReference = uint2str(serialNumber);\r\n        \r\n        string memory ssccWithoutCheck = string(abi.encodePacked(prefix, companyPrefix, serialReference));\r\n        uint8 checkDigit = calculateCheckDigit(ssccWithoutCheck);\r\n        \r\n        string memory sscc = string(abi.encodePacked(ssccWithoutCheck, uint2str(uint256(checkDigit))));\r\n        \r\n        return sscc;\r\n    }\r\n\r\n    function calculateCheckDigit(string memory _code) private pure returns (uint8) {\r\n        bytes memory codeBytes = bytes(_code);\r\n        uint256 sum = 0;\r\n        for (uint256 i = 0; i < codeBytes.length; i++) {\r\n            uint8 digit = uint8(codeBytes[i]) - 48;\r\n            sum += (i % 2 == 0) ? digit * 3 : digit;\r\n        }\r\n        uint8 checkDigit = uint8((10 - (sum % 10)) % 10);\r\n        return checkDigit;\r\n    }\r\n\r\n    function uint2str(uint256 _i) private pure returns (string memory) {\r\n        if (_i == 0) {\r\n            return \"0\";\r\n        }\r\n        uint256 j = _i;\r\n        uint256 length;\r\n        while (j != 0) {\r\n            length++;\r\n            j /= 10;\r\n        }\r\n        bytes memory bstr = new bytes(length);\r\n        uint256 k = length;\r\n        while (_i != 0) {\r\n            k = k-1;\r\n            uint8 temp = (48 + uint8(_i - _i / 10 * 10));\r\n            bytes1 b1 = bytes1(temp);\r\n            bstr[k] = b1;\r\n            _i /= 10;\r\n        }\r\n        return string(bstr);\r\n    }\r\n\r\n    function _createBatch(BatchParams memory params) private returns (uint256) {\r\n        require(_ssccToBatchId[params.sscc] == 0, \"SSCC already exists\");\r\n        require(bytes(params.quantity).length > 0, \"Quantity must not be empty\");\r\n        require(params.productImageUrls.length > 0, \"At least one product image URL is required\");\r\n        require(bytes(params.certificateImageUrl).length > 0, \"Certificate image URL is required\");\r\n        require(bytes(params.farmPlotNumber).length > 0, \"Farm plot number is required\");\r\n        require(params.productId > 0, \"Product ID must be valid\");\r\n        require(params.startDate > 0, \"Start date is required\");\r\n        require(params.endDate > 0, \"End date is required\");\r\n        require(params.startDate < params.endDate, \"Start date must be before end date\");\r\n        require(bytes(params.name).length > 0, \"Batch name must not be empty\");\r\n\r\n        _batchIdCounter++;\r\n        uint256 newBatchId = _batchIdCounter;\r\n\r\n        uint256 productionDate = block.timestamp;\r\n\r\n        bytes32 dataHash = _calculateDataHash(\r\n            params.sscc,\r\n            params.producerId,\r\n            params.quantity,\r\n            productionDate,\r\n            params.farmPlotNumber,\r\n            params.productId,\r\n            params.name  // Thm tn l hng vo hm bm\r\n        );\r\n\r\n        Batch memory newBatch = Batch({\r\n            batchId: newBatchId,\r\n            name: params.name,  // Thm tn l hng\r\n            sscc: params.sscc,\r\n            producerId: params.producerId,\r\n            quantity: params.quantity,\r\n            productionDate: productionDate,\r\n            startDate: params.startDate,\r\n            endDate: params.endDate,\r\n            status: BatchStatus.PendingApproval,\r\n            productImageUrls: params.productImageUrls,\r\n            certificateImageUrl: params.certificateImageUrl,\r\n            farmPlotNumber: params.farmPlotNumber,\r\n            dataHash: dataHash,\r\n            productId: params.productId,\r\n            transportStatus: TransportStatus.NotTransported,\r\n            detailedTransportStatus: DetailedTransportStatus.NotStarted,\r\n            lastTransporterId: 0,\r\n            warehouseConfirmed: false  // Thm trng mi ny\r\n        });\r\n\r\n        _batches[newBatchId] = newBatch;\r\n        _ssccToBatchId[params.sscc] = newBatchId;\r\n\r\n        emit BatchCreated(newBatchId, params.sscc, params.producerId);\r\n        return newBatchId;\r\n    }\r\n    \r\n\r\n // Hm  ly nht k hot ng ca mt nh sn xut\r\n\r\n    \r\n    function _calculateDataHash(\r\n        string memory _sscc,\r\n        uint256 _producerId,\r\n        string memory _quantity,\r\n        uint256 _productionDate,\r\n        string memory _farmPlotNumber,\r\n        uint256 _productId,\r\n        string memory _name  // Thm tn l hng\r\n    ) private pure returns (bytes32) {\r\n        return keccak256(abi.encodePacked(_sscc, _producerId, _quantity, _productionDate, _farmPlotNumber, _productId, _name));\r\n    }\r\n    // hm kim tra sscc  tn ti hay cha \r\n    function ssccExists(string memory sscc) public view returns (bool) {\r\n        return _ssccToBatchId[sscc] != 0;\r\n    }\r\n\r\n    // Hm mi  ly danh sch cc l hng da trn producerId\r\n    function getBatchesByProducer(uint256 producerId) public view returns (Batch[] memory) {\r\n        uint256 count = 0;\r\n        for (uint256 i = 1; i <= _batchIdCounter; i++) {\r\n            if (_batches[i].producerId == producerId) {\r\n                count++;\r\n            }\r\n        }\r\n\r\n        Batch[] memory batches = new Batch[](count);\r\n        uint256 index = 0;\r\n        for (uint256 i = 1; i <= _batchIdCounter; i++) {\r\n            if (_batches[i].producerId == producerId) {\r\n                batches[index] = _batches[i];\r\n                index++;\r\n            }\r\n        }\r\n\r\n        return batches;\r\n    }\r\n\r\n    // hm cp nht trng thi l hng\r\nfunction updateBatchStatus(uint256 _batchId, BatchStatus _newStatus) public {\r\n    require(_batches[_batchId].batchId != 0, \"Batch does not exist\");\r\n    // Thm kim tra quyn nu cn\r\n    _batches[_batchId].status = _newStatus;\r\n    emit BatchStatusUpdated(_batchId, _newStatus);\r\n}\r\nfunction getPendingBatchesByProducer(uint256 _producerId) public view returns (Batch[] memory) {\r\n    uint256 pendingCount = 0;\r\n    for (uint256 i = 1; i <= _batchIdCounter; i++) {\r\n        if (_batches[i].producerId == _producerId && _batches[i].status == BatchStatus.PendingApproval) {\r\n            pendingCount++;\r\n        }\r\n    }\r\n    Batch[] memory pendingBatches = new Batch[](pendingCount);\r\n    uint256 index = 0;\r\n    for (uint256 i = 1; i <= _batchIdCounter; i++) {\r\n        if (_batches[i].producerId == _producerId && _batches[i].status == BatchStatus.PendingApproval) {\r\n            pendingBatches[index] = _batches[i];\r\n            index++;\r\n        }\r\n    }\r\n\r\n    return pendingBatches;\r\n}\r\n\r\nfunction getRejectedBatchesByProducer(uint256 _producerId) public view returns (Batch[] memory) {\r\n    uint256 rejectedCount = 0;\r\n    for (uint256 i = 1; i <= _batchIdCounter; i++) {\r\n        if (_batches[i].producerId == _producerId && _batches[i].status == BatchStatus.Rejected) {\r\n            rejectedCount++;\r\n        }\r\n    }\r\n\r\n    Batch[] memory rejectedBatches = new Batch[](rejectedCount);\r\n    uint256 index = 0;\r\n    for (uint256 i = 1; i <= _batchIdCounter; i++) {\r\n        if (_batches[i].producerId == _producerId && _batches[i].status == BatchStatus.Rejected) {\r\n            rejectedBatches[index] = _batches[i];\r\n            index++;\r\n        }\r\n    }\r\n\r\n    return rejectedBatches;\r\n}\r\nfunction getAllPendingBatches() public view returns (Batch[] memory) {\r\n        uint256 pendingCount = 0;\r\n        for (uint256 i = 1; i <= _batchIdCounter; i++) {\r\n            if (_batches[i].status == BatchStatus.PendingApproval) {\r\n                pendingCount++;\r\n            }\r\n        }\r\n\r\n        Batch[] memory pendingBatches = new Batch[](pendingCount);\r\n        uint256 index = 0;\r\n        for (uint256 i = 1; i <= _batchIdCounter; i++) {\r\n            if (_batches[i].status == BatchStatus.PendingApproval) {\r\n                pendingBatches[index] = _batches[i];\r\n                index++;\r\n            }\r\n        }\r\n\r\n        return pendingBatches;\r\n    }\r\n\r\nevent BatchStatusUpdated(uint256 indexed batchId, BatchStatus newStatus);\r\n\r\n// hm ly thng tin l hng\r\nfunction getBatchDetails(uint256 _batchId) public view returns (Batch memory) {\r\n    require(_batches[_batchId].batchId != 0, \"Batch does not exist\");\r\n    return _batches[_batchId];\r\n}\r\n\r\n\r\nfunction getTotalBatches() public view returns (uint256) {\r\n    return _batchIdCounter;\r\n}\r\n\r\nfunction isProducerOfBatch(uint256 _batchId, uint256 _producerId) public view returns (bool) {\r\n    return _batches[_batchId].producerId == _producerId;\r\n}\r\n\r\n// Thm hm ny vo smart contract\r\n\r\n\r\n\r\nmodifier onlyApprover() {\r\n    // Implement logic to check if msg.sender is an approver\r\n    _;\r\n}\r\nfunction approveBatch(uint256 _batchId) public onlyApprover {\r\n    require(_batches[_batchId].batchId != 0, \"Batch does not exist\");\r\n    require(_batches[_batchId].status == BatchStatus.PendingApproval, \"Batch is not pending approval\");\r\n\r\n    _batches[_batchId].status = BatchStatus.Approved;\r\n    _approvedBatches[_batchId] = true;\r\n\r\n    emit BatchApproved(_batchId, _batches[_batchId].producerId, _batches[_batchId].sscc);\r\n    emit BatchApprovedForQR(_batchId, _batches[_batchId].producerId, _batches[_batchId].sscc);\r\n    \r\n    // Add system activity log\r\n    uint256[] memory relatedProductIds = new uint256[](1);\r\n    relatedProductIds[0] = _batches[_batchId].productId;\r\n    string[] memory imageUrls = new string[](0); // Empty array for imageUrls\r\n    activityLogContract.addActivityLog(\r\n        _batchId,\r\n        \"Batch Approved\",\r\n        \"Batch has been approved by the approver\",\r\n        true, // isSystemGenerated\r\n        imageUrls,\r\n        relatedProductIds\r\n    );\r\n}\r\n\r\nfunction rejectBatch(uint256 _batchId) public onlyApprover {\r\n    require(_batches[_batchId].batchId != 0, \"Batch does not exist\");\r\n    require(_batches[_batchId].status == BatchStatus.PendingApproval, \"Batch is not pending approval\");\r\n\r\n    _batches[_batchId].status = BatchStatus.Rejected;\r\n\r\n    emit BatchRejected(_batchId, _batches[_batchId].producerId, _batches[_batchId].sscc);\r\n    \r\n    // Add system activity log\r\n    uint256[] memory relatedProductIds = new uint256[](1);\r\n    relatedProductIds[0] = _batches[_batchId].productId;\r\n    string[] memory imageUrls = new string[](0); // Empty array for imageUrls\r\n    activityLogContract.addActivityLog(\r\n        _batchId,\r\n        \"Batch Rejected\",\r\n        \"Batch has been rejected by the approver\",\r\n        true, // isSystemGenerated\r\n        imageUrls,\r\n        relatedProductIds\r\n    );\r\n}\r\nfunction getActivityLogs(uint256 _uid) public view returns (ActivityLog.ActivityLogEntry[] memory) {\r\n    return activityLogContract.getActivityLogs(_uid);\r\n}\r\n\r\nevent BatchRejected(uint256 indexed batchId, uint256 producerId, string sscc);\r\n\r\n\r\nfunction getApprovedBatchesByProducer(uint256 _producerId) public view returns (Batch[] memory) {\r\n    uint256 approvedCount = 0;\r\n    for (uint256 i = 1; i <= _batchIdCounter; i++) {\r\n        if (_batches[i].producerId == _producerId && _batches[i].status == BatchStatus.Approved) {\r\n            approvedCount++;\r\n        }\r\n    }\r\n\r\n    Batch[] memory approvedBatches = new Batch[](approvedCount);\r\n    uint256 index = 0;\r\n    for (uint256 i = 1; i <= _batchIdCounter; i++) {\r\n        if (_batches[i].producerId == _producerId && _batches[i].status == BatchStatus.Approved) {\r\n            approvedBatches[index] = _batches[i];\r\n            index++;\r\n        }\r\n    }\r\n\r\n    return approvedBatches;\r\n}\r\n\r\nfunction getBatchBySSCC(string memory _sscc) public view returns (Batch memory) {\r\n    uint256 batchId = _ssccToBatchId[_sscc];\r\n    require(batchId != 0, \"Batch does not exist with this SSCC\");\r\n    return _batches[batchId];\r\n}\r\n\r\nfunction isValidSSCC(string memory _sscc) public view returns (bool) {\r\n    return _ssccToBatchId[_sscc] != 0;\r\n}\r\n\r\nfunction isBatchApproved(uint256 _batchId) public view returns (bool) {\r\n    return _approvedBatches[_batchId];\r\n}\r\n\r\nfunction recordParticipation(uint256 _batchId, uint256 _participantId, string memory _participantType, string memory _action) public {\r\n    require(_batches[_batchId].batchId != 0, \"Batch does not exist\");\r\n    _batchParticipations[_batchId].push(Participation(_participantId, _participantType, block.timestamp, _action));\r\n    \r\n    emit ParticipationRecorded(_batchId, _participantId, _participantType, _action);\r\n}\r\nevent LogParticipantType(uint256 indexed batchId, string participantType);\r\nfunction updateTransportStatus(\r\n    uint256 _batchId, \r\n    uint256 _participantId, \r\n    string memory _action, \r\n    string memory _participantType\r\n) public {\r\n    require(\r\n        keccak256(abi.encodePacked(_participantType)) == keccak256(abi.encodePacked(\"Transporter\")) ||\r\n        keccak256(abi.encodePacked(_participantType)) == keccak256(abi.encodePacked(\"Warehouse\")),\r\n        \"Invalid participant type\"\r\n    );\r\n    \r\n    require(_batches[_batchId].batchId != 0, \"Batch does not exist\");\r\n    require(_batches[_batchId].status == BatchStatus.Approved, \"Batch must be approved\");\r\n\r\n    TransportEvent memory newEvent = TransportEvent({\r\n        participantId: _participantId,\r\n        timestamp: block.timestamp,\r\n        action: _action,\r\n        participantType: _participantType\r\n    });\r\n    \r\n    _batchTransportEvents[_batchId].push(newEvent);\r\n    \r\n    if (keccak256(abi.encodePacked(_action)) == keccak256(abi.encodePacked(\"Bat dau van chuyen\"))) {\r\n        _batches[_batchId].detailedTransportStatus = DetailedTransportStatus.InTransit;\r\n        _batches[_batchId].transportStatus = TransportStatus.InTransit;\r\n        _batches[_batchId].lastTransporterId = _participantId;\r\n    } else if (keccak256(abi.encodePacked(_action)) == keccak256(abi.encodePacked(\"Tam dung van chuyen\"))) {\r\n        _batches[_batchId].detailedTransportStatus = DetailedTransportStatus.Paused;\r\n    } else if (keccak256(abi.encodePacked(_action)) == keccak256(abi.encodePacked(\"Tiep tuc van chuyen\"))) {\r\n        _batches[_batchId].detailedTransportStatus = DetailedTransportStatus.InTransit;\r\n    } else if (keccak256(abi.encodePacked(_action)) == keccak256(abi.encodePacked(\"Hoan thanh van chuyen\"))) {\r\n        _batches[_batchId].detailedTransportStatus = DetailedTransportStatus.Delivered;\r\n        _batches[_batchId].transportStatus = TransportStatus.Delivered;\r\n    }\r\n    \r\n    emit TransportStatusUpdated(_batchId, _batches[_batchId].detailedTransportStatus, _action, _participantId, _participantType);\r\n}\r\nfunction updateTransportStatusBySSCC(\r\n    string memory _sscc, \r\n    uint256 _participantId, \r\n    string memory _action, \r\n    string memory _participantType\r\n) public {\r\n    uint256 batchId = _ssccToBatchId[_sscc];\r\n    require(batchId != 0, \"Batch does not exist with this SSCC\");\r\n    updateTransportStatus(batchId, _participantId, _action, _participantType);\r\n}\r\n\r\n// i tn s kin\r\n// Thm mapping  theo di xc nhn ca cc nh kho\r\nmapping(uint256 => mapping(uint256 => bool)) private _warehouseConfirmations;\r\nfunction warehouseConfirmation(uint256 _batchId, uint256 _warehouseId) public {\r\n    require(_batches[_batchId].batchId != 0, \"Batch does not exist\");\r\n    require(_batches[_batchId].transportStatus == TransportStatus.Delivered, \"Batch must be delivered before warehouse confirmation\");\r\n    require(_batches[_batchId].detailedTransportStatus == DetailedTransportStatus.Delivered, \"Batch must be in Delivered status\");\r\n    require(!_warehouseConfirmations[_batchId][_warehouseId], \"This warehouse has already confirmed this batch\");\r\n    \r\n    // nh du nh kho ny  xc nhn\r\n    _warehouseConfirmations[_batchId][_warehouseId] = true;\r\n    \r\n    // Ghi nhn s tham gia ca nh kho\r\n    Participation memory newParticipation = Participation({\r\n        participantId: _warehouseId,\r\n        participantType: \"Warehouse\",\r\n        timestamp: block.timestamp,\r\n        action: \"Confirmed receipt at warehouse\"\r\n    });\r\n    _batchParticipations[_batchId].push(newParticipation);\r\n    \r\n    // Pht ra s kin\r\n    emit WarehouseConfirmed(_batchId, _warehouseId);\r\n}\r\n\r\n// Hm  kim tra xem mt nh kho c th  xc nhn l hng cha\r\nfunction isWarehouseConfirmed(uint256 _batchId, uint256 _warehouseId) public view returns (bool) {\r\n    return _warehouseConfirmations[_batchId][_warehouseId];\r\n}\r\n\r\n// Hm  ly danh sch cc nh kho  xc nhn mt l hng\r\nfunction getConfirmedWarehouses(uint256 _batchId) public view returns (uint256[] memory) {\r\n    uint256 confirmedCount = 0;\r\n    for (uint256 i = 1; i <= _warehouseIdCounter; i++) {\r\n        if (_warehouseConfirmations[_batchId][i]) {\r\n            confirmedCount++;\r\n        }\r\n    }\r\n    \r\n    uint256[] memory confirmedWarehouses = new uint256[](confirmedCount);\r\n    uint256 index = 0;\r\n    for (uint256 i = 1; i <= _warehouseIdCounter; i++) {\r\n        if (_warehouseConfirmations[_batchId][i]) {\r\n            confirmedWarehouses[index] = i;\r\n            index++;\r\n        }\r\n    }\r\n    \r\n    return confirmedWarehouses;\r\n}\r\nfunction getBatchIdBySSCC(string memory _sscc) public view returns (uint256) {\r\n    return _ssccToBatchId[_sscc];\r\n}\r\n\r\nfunction getDetailedTransportStatus(uint256 _batchId) public view returns (DetailedTransportStatus) {\r\n    require(_batches[_batchId].batchId != 0, \"Batch does not exist\");\r\n    return _batches[_batchId].detailedTransportStatus;\r\n}\r\n// hm kim tra trng thi vn chuyn\r\nfunction canStartTransport(uint256 _batchId, uint256 _transporterId) public view returns (bool) {\r\n    return _batches[_batchId].detailedTransportStatus == DetailedTransportStatus.NotStarted ||\r\n           (_batches[_batchId].detailedTransportStatus == DetailedTransportStatus.Delivered && _batches[_batchId].lastTransporterId != _transporterId);\r\n}\r\nfunction getTransportHistoryBySSCC(string memory _sscc) public view returns (TransportEvent[] memory) {\r\n    uint256 batchId = _ssccToBatchId[_sscc];\r\n    require(batchId != 0, \"Batch does not exist with this SSCC\");\r\n    return _batchTransportEvents[batchId];\r\n}\r\n// Thm hm  kim tra trng thi vn chuyn\r\nfunction getBatchTransportStatus(uint256 _batchId) public view returns (TransportStatus) {\r\n    require(_batches[_batchId].batchId != 0, \"Batch does not exist\");\r\n    return _batches[_batchId].transportStatus;\r\n}\r\n\r\n}",
  "sourcePath": "D:\\projects\\nckh-be\\blockchain\\contracts\\supplychain.sol",
  "compiler": {
    "name": "solc",
    "version": "0.8.20+commit.a1b79de6.Emscripten.clang"
  },
  "schemaVersion": "3.4.16",
  "updatedAt": "2024-09-20T20:20:22.797Z",
  "networkType": "ethereum",
  "devdoc": {
    "kind": "dev",
    "methods": {},
    "version": 1
  },
  "userdoc": {
    "kind": "user",
    "methods": {},
    "version": 1
  }
}