{
  "contractName": "TraceabilityContract",
  "abi": [
    {
      "anonymous": false,
      "inputs": [
        {
          "indexed": true,
          "internalType": "uint256",
          "name": "batchId",
          "type": "uint256"
        },
        {
          "indexed": false,
          "internalType": "string",
          "name": "sscc",
          "type": "string"
        },
        {
          "indexed": false,
          "internalType": "uint256",
          "name": "producerId",
          "type": "uint256"
        }
      ],
      "name": "BatchCreated",
      "type": "event"
    },
    {
      "inputs": [
        {
          "internalType": "string",
          "name": "_sscc",
          "type": "string"
        },
        {
          "internalType": "uint256",
          "name": "_producerId",
          "type": "uint256"
        },
        {
          "internalType": "string",
          "name": "_quantity",
          "type": "string"
        },
        {
          "internalType": "string",
          "name": "_productImageUrl",
          "type": "string"
        },
        {
          "internalType": "string",
          "name": "_certificateImageUrl",
          "type": "string"
        },
        {
          "internalType": "string",
          "name": "_farmPlotNumber",
          "type": "string"
        },
        {
          "internalType": "uint256",
          "name": "_productId",
          "type": "uint256"
        },
        {
          "internalType": "uint256",
          "name": "_startDate",
          "type": "uint256"
        },
        {
          "internalType": "uint256",
          "name": "_endDate",
          "type": "uint256"
        }
      ],
      "name": "createBatch",
      "outputs": [
        {
          "internalType": "uint256",
          "name": "",
          "type": "uint256"
        }
      ],
      "stateMutability": "nonpayable",
      "type": "function"
    },
    {
      "inputs": [
        {
          "internalType": "string",
          "name": "sscc",
          "type": "string"
        }
      ],
      "name": "ssccExists",
      "outputs": [
        {
          "internalType": "bool",
          "name": "",
          "type": "bool"
        }
      ],
      "stateMutability": "view",
      "type": "function",
      "constant": true
    },
    {
      "inputs": [
        {
          "internalType": "uint256",
          "name": "producerId",
          "type": "uint256"
        }
      ],
      "name": "getBatchesByProducer",
      "outputs": [
        {
          "components": [
            {
              "internalType": "uint256",
              "name": "batchId",
              "type": "uint256"
            },
            {
              "internalType": "string",
              "name": "sscc",
              "type": "string"
            },
            {
              "internalType": "uint256",
              "name": "producerId",
              "type": "uint256"
            },
            {
              "internalType": "string",
              "name": "quantity",
              "type": "string"
            },
            {
              "internalType": "uint256",
              "name": "productionDate",
              "type": "uint256"
            },
            {
              "internalType": "uint256",
              "name": "expiryDate",
              "type": "uint256"
            },
            {
              "internalType": "uint256",
              "name": "startDate",
              "type": "uint256"
            },
            {
              "internalType": "uint256",
              "name": "endDate",
              "type": "uint256"
            },
            {
              "internalType": "enum TraceabilityContract.BatchStatus",
              "name": "status",
              "type": "uint8"
            },
            {
              "internalType": "string",
              "name": "productImageUrl",
              "type": "string"
            },
            {
              "internalType": "string",
              "name": "certificateImageUrl",
              "type": "string"
            },
            {
              "internalType": "string",
              "name": "farmPlotNumber",
              "type": "string"
            },
            {
              "internalType": "bytes32",
              "name": "dataHash",
              "type": "bytes32"
            },
            {
              "internalType": "uint256",
              "name": "productId",
              "type": "uint256"
            }
          ],
          "internalType": "struct TraceabilityContract.Batch[]",
          "name": "",
          "type": "tuple[]"
        }
      ],
      "stateMutability": "view",
      "type": "function",
      "constant": true
    }
  ],
  "bytecode": "0x608060405234801561001057600080fd5b50611d13806100206000396000f3fe608060405234801561001057600080fd5b50600436106100415760003560e01c8063040080781461004657806310fbb9f01461007657806380e32d45146100a6575b600080fd5b610060600480360381019061005b9190610d90565b6100d6565b60405161006d9190610df4565b60405180910390f35b610090600480360381019061008b9190610e45565b610101565b60405161009d9190610faa565b60405180910390f35b6100c060048036038101906100bb9190610fc5565b61015f565b6040516100cd919061131c565b60405180910390f35b6000806002836040516100e9919061137a565b90815260200160405180910390205414159050919050565b6000806040518061012001604052808c81526020018b81526020018a815260200189815260200188815260200187815260200186815260200185815260200184815250905061014f81610608565b9150509998505050505050505050565b6060600080600190505b60005481116101b1578360016000838152602001908152602001600020600201540361019e57818061019a906113c0565b9250505b80806101a9906113c0565b915050610169565b5060008167ffffffffffffffff8111156101ce576101cd610c65565b5b60405190808252806020026020018201604052801561020757816020015b6101f4610bb2565b8152602001906001900390816101ec5790505b509050600080600190505b60005481116105fc57856001600083815260200190815260200160002060020154036105e95760016000828152602001908152602001600020604051806101c00160405290816000820154815260200160018201805461027190611437565b80601f016020809104026020016040519081016040528092919081815260200182805461029d90611437565b80156102ea5780601f106102bf576101008083540402835291602001916102ea565b820191906000526020600020905b8154815290600101906020018083116102cd57829003601f168201915b505050505081526020016002820154815260200160038201805461030d90611437565b80601f016020809104026020016040519081016040528092919081815260200182805461033990611437565b80156103865780601f1061035b57610100808354040283529160200191610386565b820191906000526020600020905b81548152906001019060200180831161036957829003601f168201915b50505050508152602001600482015481526020016005820154815260200160068201548152602001600782015481526020016008820160009054906101000a900460ff1660038111156103dc576103db6110ac565b5b60038111156103ee576103ed6110ac565b5b815260200160098201805461040290611437565b80601f016020809104026020016040519081016040528092919081815260200182805461042e90611437565b801561047b5780601f106104505761010080835404028352916020019161047b565b820191906000526020600020905b81548152906001019060200180831161045e57829003601f168201915b50505050508152602001600a8201805461049490611437565b80601f01602080910402602001604051908101604052809291908181526020018280546104c090611437565b801561050d5780601f106104e25761010080835404028352916020019161050d565b820191906000526020600020905b8154815290600101906020018083116104f057829003601f168201915b50505050508152602001600b8201805461052690611437565b80601f016020809104026020016040519081016040528092919081815260200182805461055290611437565b801561059f5780601f106105745761010080835404028352916020019161059f565b820191906000526020600020905b81548152906001019060200180831161058257829003601f168201915b50505050508152602001600c8201548152602001600d820154815250508383815181106105cf576105ce611468565b5b602002602001018190525081806105e5906113c0565b9250505b80806105f4906113c0565b915050610212565b50819350505050919050565b6000601282600001515114610652576040517f08c379a0000000000000000000000000000000000000000000000000000000008152600401610649906114f4565b60405180910390fd5b600060028360000151604051610668919061137a565b908152602001604051809103902054146106b7576040517f08c379a00000000000000000000000000000000000000000000000000000000081526004016106ae90611560565b60405180910390fd5b6000826040015151116106ff576040517f08c379a00000000000000000000000000000000000000000000000000000000081526004016106f6906115cc565b60405180910390fd5b600082606001515111610747576040517f08c379a000000000000000000000000000000000000000000000000000000000815260040161073e90611638565b60405180910390fd5b60008260800151511161078f576040517f08c379a0000000000000000000000000000000000000000000000000000000008152600401610786906116ca565b60405180910390fd5b60008260a0015151116107d7576040517f08c379a00000000000000000000000000000000000000000000000000000000081526004016107ce90611736565b60405180910390fd5b60008260c001511161081e576040517f08c379a0000000000000000000000000000000000000000000000000000000008152600401610815906117a2565b60405180910390fd5b60008260e0015111610865576040517f08c379a000000000000000000000000000000000000000000000000000000000815260040161085c9061180e565b60405180910390fd5b6000826101000151116108ad576040517f08c379a00000000000000000000000000000000000000000000000000000000081526004016108a49061187a565b60405180910390fd5b8161010001518260e00151106108f8576040517f08c379a00000000000000000000000000000000000000000000000000000000081526004016108ef9061190c565b60405180910390fd5b60008081548092919061090a906113c0565b9190505550600080549050600042905060006301e133808261092c919061192c565b9050600061095386600001518760200151886040015186868b60a001518c60c00151610b70565b90506000604051806101c001604052808681526020018860000151815260200188602001518152602001886040015181526020018581526020018481526020018860e0015181526020018861010001518152602001600160038111156109bc576109bb6110ac565b5b815260200188606001518152602001886080015181526020018860a0015181526020018381526020018860c0015181525090508060016000878152602001908152602001600020600082015181600001556020820151816001019081610a229190611b0c565b50604082015181600201556060820151816003019081610a429190611b0c565b506080820151816004015560a0820151816005015560c0820151816006015560e082015181600701556101008201518160080160006101000a81548160ff02191690836003811115610a9757610a966110ac565b5b0217905550610120820151816009019081610ab29190611b0c565b5061014082015181600a019081610ac99190611b0c565b5061016082015181600b019081610ae09190611b0c565b5061018082015181600c01556101a082015181600d01559050508460028860000151604051610b0f919061137a565b908152602001604051809103902081905550847f58c168780de5fc719a1e7a85c7eca394e664c0e74b7c9ebc621f0b093112d04b88600001518960200151604051610b5b929190611c17565b60405180910390a28495505050505050919050565b600087878787878787604051602001610b8f9796959493929190611c68565b604051602081830303815290604052805190602001209050979650505050505050565b604051806101c00160405280600081526020016060815260200160008152602001606081526020016000815260200160008152602001600081526020016000815260200160006003811115610c0a57610c096110ac565b5b815260200160608152602001606081526020016060815260200160008019168152602001600081525090565b6000604051905090565b600080fd5b600080fd5b600080fd5b600080fd5b6000601f19601f8301169050919050565b7f4e487b7100000000000000000000000000000000000000000000000000000000600052604160045260246000fd5b610c9d82610c54565b810181811067ffffffffffffffff82111715610cbc57610cbb610c65565b5b80604052505050565b6000610ccf610c36565b9050610cdb8282610c94565b919050565b600067ffffffffffffffff821115610cfb57610cfa610c65565b5b610d0482610c54565b9050602081019050919050565b82818337600083830152505050565b6000610d33610d2e84610ce0565b610cc5565b905082815260208101848484011115610d4f57610d4e610c4f565b5b610d5a848285610d11565b509392505050565b600082601f830112610d7757610d76610c4a565b5b8135610d87848260208601610d20565b91505092915050565b600060208284031215610da657610da5610c40565b5b600082013567ffffffffffffffff811115610dc457610dc3610c45565b5b610dd084828501610d62565b91505092915050565b60008115159050919050565b610dee81610dd9565b82525050565b6000602082019050610e096000830184610de5565b92915050565b6000819050919050565b610e2281610e0f565b8114610e2d57600080fd5b50565b600081359050610e3f81610e19565b92915050565b60008060008060008060008060006101208a8c031215610e6857610e67610c40565b5b60008a013567ffffffffffffffff811115610e8657610e85610c45565b5b610e928c828d01610d62565b9950506020610ea38c828d01610e30565b98505060408a013567ffffffffffffffff811115610ec457610ec3610c45565b5b610ed08c828d01610d62565b97505060608a013567ffffffffffffffff811115610ef157610ef0610c45565b5b610efd8c828d01610d62565b96505060808a013567ffffffffffffffff811115610f1e57610f1d610c45565b5b610f2a8c828d01610d62565b95505060a08a013567ffffffffffffffff811115610f4b57610f4a610c45565b5b610f578c828d01610d62565b94505060c0610f688c828d01610e30565b93505060e0610f798c828d01610e30565b925050610100610f8b8c828d01610e30565b9150509295985092959850929598565b610fa481610e0f565b82525050565b6000602082019050610fbf6000830184610f9b565b92915050565b600060208284031215610fdb57610fda610c40565b5b6000610fe984828501610e30565b91505092915050565b600081519050919050565b600082825260208201905092915050565b6000819050602082019050919050565b61102781610e0f565b82525050565b600081519050919050565b600082825260208201905092915050565b60005b8381101561106757808201518184015260208101905061104c565b60008484015250505050565b600061107e8261102d565b6110888185611038565b9350611098818560208601611049565b6110a181610c54565b840191505092915050565b7f4e487b7100000000000000000000000000000000000000000000000000000000600052602160045260246000fd5b600481106110ec576110eb6110ac565b5b50565b60008190506110fd826110db565b919050565b600061110d826110ef565b9050919050565b61111d81611102565b82525050565b6000819050919050565b61113681611123565b82525050565b60006101c083016000830151611155600086018261101e565b506020830151848203602086015261116d8282611073565b9150506040830151611182604086018261101e565b506060830151848203606086015261119a8282611073565b91505060808301516111af608086018261101e565b5060a08301516111c260a086018261101e565b5060c08301516111d560c086018261101e565b5060e08301516111e860e086018261101e565b506101008301516111fd610100860182611114565b506101208301518482036101208601526112178282611073565b9150506101408301518482036101408601526112338282611073565b91505061016083015184820361016086015261124f8282611073565b91505061018083015161126661018086018261112d565b506101a083015161127b6101a086018261101e565b508091505092915050565b6000611292838361113c565b905092915050565b6000602082019050919050565b60006112b282610ff2565b6112bc8185610ffd565b9350836020820285016112ce8561100e565b8060005b8581101561130a57848403895281516112eb8582611286565b94506112f68361129a565b925060208a019950506001810190506112d2565b50829750879550505050505092915050565b6000602082019050818103600083015261133681846112a7565b905092915050565b600081905092915050565b60006113548261102d565b61135e818561133e565b935061136e818560208601611049565b80840191505092915050565b60006113868284611349565b915081905092915050565b7f4e487b7100000000000000000000000000000000000000000000000000000000600052601160045260246000fd5b60006113cb82610e0f565b91507fffffffffffffffffffffffffffffffffffffffffffffffffffffffffffffffff82036113fd576113fc611391565b5b600182019050919050565b7f4e487b7100000000000000000000000000000000000000000000000000000000600052602260045260246000fd5b6000600282049050600182168061144f57607f821691505b60208210810361146257611461611408565b5b50919050565b7f4e487b7100000000000000000000000000000000000000000000000000000000600052603260045260246000fd5b600082825260208201905092915050565b7f53534343206d7573742062652031382063686172616374657273206c6f6e6700600082015250565b60006114de601f83611497565b91506114e9826114a8565b602082019050919050565b6000602082019050818103600083015261150d816114d1565b9050919050565b7f5353434320616c72656164792065786973747300000000000000000000000000600082015250565b600061154a601383611497565b915061155582611514565b602082019050919050565b600060208201905081810360008301526115798161153d565b9050919050565b7f5175616e74697479206d757374206e6f7420626520656d707479000000000000600082015250565b60006115b6601a83611497565b91506115c182611580565b602082019050919050565b600060208201905081810360008301526115e5816115a9565b9050919050565b7f50726f6475637420696d6167652055524c206973207265717569726564000000600082015250565b6000611622601d83611497565b915061162d826115ec565b602082019050919050565b6000602082019050818103600083015261165181611615565b9050919050565b7f436572746966696361746520696d6167652055524c206973207265717569726560008201527f6400000000000000000000000000000000000000000000000000000000000000602082015250565b60006116b4602183611497565b91506116bf82611658565b604082019050919050565b600060208201905081810360008301526116e3816116a7565b9050919050565b7f4661726d20706c6f74206e756d62657220697320726571756972656400000000600082015250565b6000611720601c83611497565b915061172b826116ea565b602082019050919050565b6000602082019050818103600083015261174f81611713565b9050919050565b7f50726f64756374204944206d7573742062652076616c69640000000000000000600082015250565b600061178c601883611497565b915061179782611756565b602082019050919050565b600060208201905081810360008301526117bb8161177f565b9050919050565b7f5374617274206461746520697320726571756972656400000000000000000000600082015250565b60006117f8601683611497565b9150611803826117c2565b602082019050919050565b60006020820190508181036000830152611827816117eb565b9050919050565b7f456e642064617465206973207265717569726564000000000000000000000000600082015250565b6000611864601483611497565b915061186f8261182e565b602082019050919050565b6000602082019050818103600083015261189381611857565b9050919050565b7f53746172742064617465206d757374206265206265666f726520656e6420646160008201527f7465000000000000000000000000000000000000000000000000000000000000602082015250565b60006118f6602283611497565b91506119018261189a565b604082019050919050565b60006020820190508181036000830152611925816118e9565b9050919050565b600061193782610e0f565b915061194283610e0f565b925082820190508082111561195a57611959611391565b5b92915050565b60008190508160005260206000209050919050565b60006020601f8301049050919050565b600082821b905092915050565b6000600883026119c27fffffffffffffffffffffffffffffffffffffffffffffffffffffffffffffffff82611985565b6119cc8683611985565b95508019841693508086168417925050509392505050565b6000819050919050565b6000611a09611a046119ff84610e0f565b6119e4565b610e0f565b9050919050565b6000819050919050565b611a23836119ee565b611a37611a2f82611a10565b848454611992565b825550505050565b600090565b611a4c611a3f565b611a57818484611a1a565b505050565b5b81811015611a7b57611a70600082611a44565b600181019050611a5d565b5050565b601f821115611ac057611a9181611960565b611a9a84611975565b81016020851015611aa9578190505b611abd611ab585611975565b830182611a5c565b50505b505050565b600082821c905092915050565b6000611ae360001984600802611ac5565b1980831691505092915050565b6000611afc8383611ad2565b9150826002028217905092915050565b611b158261102d565b67ffffffffffffffff811115611b2e57611b2d610c65565b5b611b388254611437565b611b43828285611a7f565b600060209050601f831160018114611b765760008415611b64578287015190505b611b6e8582611af0565b865550611bd6565b601f198416611b8486611960565b60005b82811015611bac57848901518255600182019150602085019450602081019050611b87565b86831015611bc95784890151611bc5601f891682611ad2565b8355505b6001600288020188555050505b505050505050565b6000611be98261102d565b611bf38185611497565b9350611c03818560208601611049565b611c0c81610c54565b840191505092915050565b60006040820190508181036000830152611c318185611bde565b9050611c406020830184610f9b565b9392505050565b6000819050919050565b611c62611c5d82610e0f565b611c47565b82525050565b6000611c74828a611349565b9150611c808289611c51565b602082019150611c908288611349565b9150611c9c8287611c51565b602082019150611cac8286611c51565b602082019150611cbc8285611349565b9150611cc88284611c51565b6020820191508190509897505050505050505056fea2646970667358221220c0ee313265285bb8532d4d36d1ebb88b7283d05a4f177f6cf2c513c79eaa1a1864736f6c63430008140033",
  "immutableReferences": {},
  "source": "// SPDX-License-Identifier: MIT\r\npragma solidity ^0.8.0;\r\n\r\ncontract TraceabilityContract {\r\n    uint256 private _batchIdCounter;\r\n\r\n    struct Batch {\r\n        uint256 batchId;\r\n        string sscc;\r\n        uint256 producerId;\r\n        string quantity;\r\n        uint256 productionDate;\r\n        uint256 expiryDate;\r\n        uint256 startDate;\r\n        uint256 endDate;\r\n        BatchStatus status;\r\n        string productImageUrl;\r\n        string certificateImageUrl;\r\n        string farmPlotNumber;\r\n        bytes32 dataHash;\r\n        uint256 productId;\r\n    }\r\n\r\n    enum BatchStatus { Created, PendingApproval, Approved, Rejected }\r\n\r\n    mapping(uint256 => Batch) private _batches;\r\n    mapping(string => uint256) private _ssccToBatchId;\r\n\r\n    event BatchCreated(uint256 indexed batchId, string sscc, uint256 producerId);\r\n\r\n    struct BatchParams {\r\n        string sscc;\r\n        uint256 producerId;\r\n        string quantity;\r\n        string productImageUrl;\r\n        string certificateImageUrl;\r\n        string farmPlotNumber;\r\n        uint256 productId;\r\n        uint256 startDate;\r\n        uint256 endDate;\r\n    }\r\n\r\n    function createBatch(\r\n        string memory _sscc,\r\n        uint256 _producerId,\r\n        string memory _quantity,\r\n        string memory _productImageUrl,\r\n        string memory _certificateImageUrl,\r\n        string memory _farmPlotNumber,\r\n        uint256 _productId,\r\n        uint256 _startDate,\r\n        uint256 _endDate\r\n    ) public returns (uint256) {\r\n        BatchParams memory params = BatchParams({\r\n            sscc: _sscc,\r\n            producerId: _producerId,\r\n            quantity: _quantity,\r\n            productImageUrl: _productImageUrl,\r\n            certificateImageUrl: _certificateImageUrl,\r\n            farmPlotNumber: _farmPlotNumber,\r\n            productId: _productId,\r\n            startDate: _startDate,\r\n            endDate: _endDate\r\n        });\r\n\r\n        return _createBatch(params);\r\n    }\r\n\r\n    function _createBatch(BatchParams memory params) private returns (uint256) {\r\n        require(bytes(params.sscc).length == 18, \"SSCC must be 18 characters long\");\r\n        require(_ssccToBatchId[params.sscc] == 0, \"SSCC already exists\");\r\n        require(bytes(params.quantity).length > 0, \"Quantity must not be empty\");\r\n        require(bytes(params.productImageUrl).length > 0, \"Product image URL is required\");\r\n        require(bytes(params.certificateImageUrl).length > 0, \"Certificate image URL is required\");\r\n        require(bytes(params.farmPlotNumber).length > 0, \"Farm plot number is required\");\r\n        require(params.productId > 0, \"Product ID must be valid\");\r\n        require(params.startDate > 0, \"Start date is required\");\r\n        require(params.endDate > 0, \"End date is required\");\r\n        require(params.startDate < params.endDate, \"Start date must be before end date\");\r\n\r\n        _batchIdCounter++;\r\n        uint256 newBatchId = _batchIdCounter;\r\n\r\n        uint256 productionDate = block.timestamp;\r\n        uint256 expiryDate = productionDate + 365 days;\r\n\r\n        bytes32 dataHash = _calculateDataHash(\r\n            params.sscc,\r\n            params.producerId,\r\n            params.quantity,\r\n            productionDate,\r\n            expiryDate,\r\n            params.farmPlotNumber,\r\n            params.productId\r\n        );\r\n\r\n        Batch memory newBatch = Batch({\r\n            batchId: newBatchId,\r\n            sscc: params.sscc,\r\n            producerId: params.producerId,\r\n            // Remove the approverId field\r\n            quantity: params.quantity,\r\n            productionDate: productionDate,\r\n            expiryDate: expiryDate,\r\n            startDate: params.startDate,\r\n            endDate: params.endDate,\r\n            status: BatchStatus.PendingApproval,\r\n            productImageUrl: params.productImageUrl,\r\n            certificateImageUrl: params.certificateImageUrl,\r\n            farmPlotNumber: params.farmPlotNumber,\r\n            dataHash: dataHash,\r\n            productId: params.productId\r\n        });\r\n\r\n        _batches[newBatchId] = newBatch;\r\n        _ssccToBatchId[params.sscc] = newBatchId;\r\n\r\n        emit BatchCreated(newBatchId, params.sscc, params.producerId);\r\n        return newBatchId;\r\n    }\r\n\r\n    function _calculateDataHash(\r\n        string memory _sscc,\r\n        uint256 _producerId,\r\n        // Remove the approverId parameter\r\n        string memory _quantity,\r\n        uint256 _productionDate,\r\n        uint256 _expiryDate,\r\n        string memory _farmPlotNumber,\r\n        uint256 _productId\r\n    ) private pure returns (bytes32) {\r\n        return keccak256(abi.encodePacked(_sscc, _producerId, _quantity, _productionDate, _expiryDate, _farmPlotNumber, _productId));\r\n    }\r\n    // hm kim tra sscc  tn ti hay cha \r\n    function ssccExists(string memory sscc) public view returns (bool) {\r\n        return _ssccToBatchId[sscc] != 0;\r\n    }\r\n\r\n    // Hm mi  ly danh sch cc l hng da trn producerId\r\n    function getBatchesByProducer(uint256 producerId) public view returns (Batch[] memory) {\r\n        uint256 count = 0;\r\n        for (uint256 i = 1; i <= _batchIdCounter; i++) {\r\n            if (_batches[i].producerId == producerId) {\r\n                count++;\r\n            }\r\n        }\r\n\r\n        Batch[] memory batches = new Batch[](count);\r\n        uint256 index = 0;\r\n        for (uint256 i = 1; i <= _batchIdCounter; i++) {\r\n            if (_batches[i].producerId == producerId) {\r\n                batches[index] = _batches[i];\r\n                index++;\r\n            }\r\n        }\r\n\r\n        return batches;\r\n    }\r\n}",
  "sourcePath": "D:\\projects\\nckh-be\\blockchain\\contracts\\supplychain.sol",
  "compiler": {
    "name": "solc",
    "version": "0.8.20+commit.a1b79de6.Emscripten.clang"
  },
  "schemaVersion": "3.4.16",
  "updatedAt": "2024-09-02T17:38:52.986Z",
  "networkType": "ethereum",
  "devdoc": {
    "kind": "dev",
    "methods": {},
    "version": 1
  },
  "userdoc": {
    "kind": "user",
    "methods": {},
    "version": 1
  }
}